:1000000000800020BD01000089350000413500005E
:100010004135000041350000413500004135000008
:1000200041350000413500004135000089350000B0
:100030008935000041350000E1500000E551000025
:1000400089350000893500008935000089350000B8
:1000500089350000893500008935000089350000A8
:100060008935000089350000893500008935000098
:100070008935000089350000893500008935000088
:100080008935000089350000893500008935000078
:100090008935000089350000893500008935000068
:1000A0008935000089350000893500008935000058
:1000B0008935000089350000893500008935000048
:1000C0008935000089350000893500008935000038
:1000D0008935000089350000893500008935000028
:1000E0008935000089350000893500008935000018
:1000F00089350000F53A000089350000753D0000A3
:100100008935000001530000893500008935000061
:1001100089350000893500008935000089350000E7
:1001200089350000893500008935000089350000D7
:1001300089350000893500008935000089350000C7
:1001400089350000893500008935000089350000B7
:1001500089350000893500008935000089350000A7
:1001600089350000354000008935000089350000E0
:100170008935000089350000893500008935000087
:100180008935000089350000893500008935000077
:100190008935000089350000893500008935000067
:1001A0008935000089350000893500008935000057
:1001B000893500008935000089350000564B4CF226
:1001C000205210B51A804DF628121A8000BF00BFC9
:1001D00003F0DEF9514B4FF010621A60504A9A60FA
:1001E000504ADA60504A136813F4807304D14F49BF
:1001F0000B604FF4A85313604D4B1A78110703D5C9
:100200001A7842F008021A704A4B4B492A221A7097
:100210004A4A4B4B8B4204D252F8040F43F8040B6A
:10022000F8E7484B484900228B4202D243F8042B9E
:10023000FAE74649464A002352F8230041F82300D2
:1002400001336F2BF8D1434B434A802103F8011B44
:100250009342FBD1414B3D4A1A60414B8A221A70AE
:10026000A3F5805324225A70A0221A709A7992071B
:10027000FCD59A79D406FCD43A4A937903F00C035E
:10028000082B384BF9D103221A7140225A719A79FE
:100290009006FCD5334A9179324B4906FBD5324A58
:1002A000324911600221516020221A709A7902F0BD
:1002B0000C020C2AFAD12E4B2E4A1A602E4B2F4AD2
:1002C0001A6000225A60072243F8042C2C4AC3F813
:1002D0000C2D62B603F088FA144B1B68DA0705D5BB
:1002E000284803F015FA284B284A1A60284B1B7837
:1002F0005B0609D5244C254B22689A4204D121483B
:1003000003F006FA0023236008F08CF803F046F9A6
:1003100003F074F8FEE700BF0E2005403080044073
:10032000823F04000100002B10D0034014D0034092
:1003300002D0074000E007407490FF1FCCA30000EC
:100340002087FF1F7490FF1FFCA9FF1F0082FF1F63
:100350000000000000E400E05FE400E008ED00E0E1
:100360000050064000400640448004400000030165
:1003700004800440C010050014E000E0FF76010096
:10038000000020206312D75B1CE00340A5C3945AF1
:1003900000F00740FFFFFFFFFFFFFFFFFFFFFFFF32
:1003A000FFFFFFFFFFFFFFFFFFFFFFFFFFFFFFFF5D
:1003B000FFFFFFFFFFFFFFFFFFFFFFFFFFFFFFFF4D
:1003C000FFFFFFFFFFFFFFFFFFFFFFFFFFFFFFFF3D
:1003D000FFFFFFFFFFFFFFFFFFFFFFFFFFFFFFFF2D
:1003E000FFFFFFFFFFFFFFFFFFFFFFFFFFFFFFFF1D
:1003F000FFFFFFFFFFFFFFFFFFFFFFFFFFFFFFFF0D
:10040000FFFFFFFFFFFFFFFFFFFFFFFFDEF9FFFF23
:1004100010B5054C237833B9044B13B10448AFF33E
:1004200000800123237010BD7490FF1F00000000A6
:10043000D0A30000084B10B51BB108490848AFF322
:1004400000800848036803B910BD074B002BFBD0A0
:10045000BDE81040184700BF000000007890FF1F63
:10046000D0A300007490FF1F00000000704700BF81
:10047000704700BF044B05491A68137843F0200306
:1004800013700870704700BF98A6FF1FFCA6FF1FDF
:10049000F0B540F6055085B003F068FA2F4A304BAE
:1004A000304911601025A0229D7140F605509A70C8
:1004B0005D7103F0A5FB2C4B2C491A680392039E37
:1004C0001A680292029F1A6801920198284A1B68D2
:1004D0000093284C284B0E6017602849284A009F3B
:1004E000284E186027600023274C138040F6C41064
:1004F00033700B7003F02AF90E21244804F030FC0D
:10050000204602F023FF2946214804F029FC0A2155
:10051000204804F025FC204602F018FF08211E4860
:1005200004F01EFC204602F011FF44211B4804F099
:1005300017FC204602F00AFF1921194804F010FCAC
:10054000204602F003FF01210D2003F0F9F8154BBE
:100550000121187803F0F4F805B0F0BD98A6FF1F4C
:1005600000A0064006A0064000A7FF1FE0A1FF1F55
:10057000C4A1FF1F2496FF1F80A6FF1FB9A1FF1F64
:1005800056A2FF1F1AA6FF1F7C87FF1F5491000071
:100590006491000078910000849100009091000027
:1005A000D89100006C87FF1F2DE9F04FADF2844D0C
:1005B00003F09CFB002835D003F0A8FBAC4BC1B284
:1005C0000391DB78AA4900220A700F2B00F2E78121
:1005D000DFE813F0730173015601A5018F01B1012A
:1005E0009D001701F700D700B3002D0152002C0029
:1005F0002C0010009E4B9F4A5B7B049211465E1EAE
:100600009B4ACB1AF6B29DF80C10567383F823114F
:10061000002E00F07782964A0023937003F066FB69
:100620000028C9D10DF2844DBDE8F08F0E2B914BFF
:10063000049305D01B88039AB2EB132F00F0A88611
:100640008B4A02231370049A9DF80C10137982F8D8
:10065000151113F0010F874A854B00F0EA81844998
:100660001B780F22CA70022B4FF00D024A7300F064
:100670007D8100230B70CEE77E4B04939D687E4EF8
:10068000E620C5F317250346942200210AE0581EF0
:1006900043185A1C5208884202EB420240F2C381BE
:1006A00056F82220013395424FEA5303EFD31946FF
:1006B000EED8954200F0B08100210B46049D2888B9
:1006C000434083EA0313DBB2DA0082EA032282EAC0
:1006D000102282EA1313DAB22B80039B9A4200F0B5
:1006E0004A86634B0E22DA70049B9DF80C2083F837
:1006F000142100298FD05E4B4A791B7993428AD20C
:100700005E48D21A1844002108F0A6F983E7594B35
:1007100019881D461846039BC3714B4083EA031397
:10072000DBB2DA0082EA032282EA112282EA1313A0
:100730002B804F4B0722DA706DE74E4B039A1D88D2
:100740006A4082EA0212D2B2D1001E4681EA022138
:100750009B68000400F47F0081EA152140EA13231E
:1007600081EA1212F1787372C3F307201B0CB07286
:10077000F3723280002900F0A7813D4A0B23D37029
:1007800049E73C4B9D681E881F46039B734083EAE4
:100790000313DBB2DA0082EA032282EA16220002A5
:1007A00082EA131300F47F4040EA15213B80304B6E
:1007B0007972C1F30725080C0A22BD72F872DA704B
:1007C00029E72C492A4B08881D7B039B4B72434029
:1007D00083EA0313DBB2DA0082EA032282EA102200
:1007E00082EA13130020EA070B808872C872204B3C
:1007F00040F16E81CA78002A00F06D810B22DA7018
:1008000009E71C4B19881D461846039B03724B4091
:1008100083EA0313DBB2DA0082EA032282EA1122BE
:1008200082EA13132B80124B0822DA70F3E6104B86
:10083000039F1A790F4B0E4D1E46134401321F734E
:1008400030883B46434083EA0313DBB2D90081EA98
:10085000032181EA1021F078D2B281EA1313824297
:100860002A7133807FF4D7AE0C23EB70D3E600BF40
:10087000E8A1FF1F5C91FF1F289500006891FF1FF2
:100880009A499B4B08881D7B039BCB70434083EAAE
:100890000313DBB2DA0082EA032282EA102282EA40
:1008A00013130B80924B0022E8071A7140F1098163
:1008B00005200A714A71D870ADE6039BFD2B00F04C
:1008C0005F85039BFE2B7FF4A6AE894B874A1B7B7B
:1008D000104643F0010386499DF80C500B734FF608
:1008E000FF7200230280824AC37002238570D37096
:1008F00091E67E4B19881D461846039B43714B4079
:1009000083EA0313DBB2DA0082EA032282EA1122CD
:1009100082EA13132B80764B0522DA707BE673494B
:100920009DF80C300B7110F0FE0F00F0B880704A8B
:100930000123D3706FE66D4B19881D461846039B43
:1009400083714B4083EA0313DBB2DA0082EA0322AD
:1009500082EA112282EA13132B80654B0622DA7099
:1009600059E6634A0023022E93701ED1049A92F82E
:10097000154192F8143143EA042403985C49012399
:100980000022FD288B700A7001D0CB7010E6049E07
:1009900002204FF6FF73F270C870338008E6534BA5
:1009A0000493DD78524B00269E70B31E012BE4D9D0
:1009B000002E3FF4FDAD4F4EB6F8687B0A2F66D08F
:1009C0008EA940F22312D7A8ADF838428DF83B52D9
:1009D00002F01CFDD6F8643BADF85C4303F2231330
:1009E00006F65E329342C6F8643B08BF334640F2D7
:1009F0002312D7A9184608BFC6F8646B8DF85F5359
:100A000002F004FD7A1CA6F8682B3A4A002F7FF406
:100A1000CFADC2F8600BCBE5374B01EB410103EBE7
:100A200081010B794AE6344B01EB410253F8222055
:100A30003FE61B6943B11B6B002B4FD091682C48DC
:100A4000090A9847002849D0294B1E782848274989
:100A5000012340F22312C3708EA802F0D7FC049A3F
:100A60001488D578012E7FF47CAF214B049A20495D
:100A70001B8992794A7103B94B811E4E1C49B6F805
:100A8000687B013300220A2F0B818A7098D12621BE
:100A90001A4804F065F91A4802F058FC88E50888FD
:100AA000039B434083EA0313DBB2DA0082EA0322AA
:100AB00082EA102282EA13130B800D4B0422DA70B3
:100AC000A9E50322DA70A6E5094A0C23D370A2E552
:100AD0000922DA709FE50C22DA709CE5044B1E783F
:100AE000022EB3D003261E70B0E700BF5C91FF1F3B
:100AF000E8A1FF1F2896FF1F28950000F491000031
:100B00007C87FF1F1369526910931C461192002BBA
:100B100000F06E8454F8100F884D3795884D616849
:100B2000A268E368874F3895874D3D953A97DFF87F
:100B300034E2864FDFF830C23C973EADCDF8ECC0D2
:100B4000CDF8E4E00FC5824B2069DA786169E3698A
:100B500007921746A26935963C460A340FC57C4B6E
:100B60000594E40004F580747A4E3494023336968A
:100B70000693202403E0059B002B00F0D080059D08
:100B8000069EC4F14003AB4228BF2B46ED1A0595E3
:100B90003EA8354620441D441C441A46314606955D
:100BA00002F034FC402CE6D134AA22AB92F82B00A0
:100BB00092F82A101870597092F8290092F82810AB
:100BC000D970987032A90433994202F10402EDD130
:100BD000369B0893379B0993389B0A93399B0B9359
:100BE0003A9B0C933B9B0D933C9B0E930DF59A7A8D
:100BF0003D9B0F93524621AB53F8041F42F8041F4C
:100C000031A98B42F8D10DF5B6780DF5AC7C0DF518
:100C10009C7E5DAF5646302558F8044F5EF8043F81
:100C200056F8042F5CF8041F4FEAF440114480EAA0
:100C300074404FEAB34280EA942082EAF3120144FE
:100C400082EAD3030B44013D47F8043FE4D1424B11
:100C50000F9ADFF81891DDF82CB0DDF824E00A9F38
:100C6000089EDDF838C0DDF8348001920C9D0293B7
:100C70000BE0CDF804C0C446A8461D4659F8043F11
:100C80000293BB467746B64606464FEAF52205EA8A
:100C9000080182EAB5122CEA050482EA75624C402A
:100CA0005AF8041F019B144487EA0E0221444FEABC
:100CB000763002EA060407EA0E0219445440029B09
:100CC000264A80EAB60080EAB650194420444A45D4
:100CD00001EB0B030844CCD10B99089A39440F4619
:100CE0000C99399719440B460D993A9302442944BB
:100CF00014460D46099A0E99059B36943244414498
:100D0000164608460A9A0F993796724461443892FB
:100D10003B953C903D910024002B7FF430AF349CF8
:100D200004F110039C42349300F26D830C4B069344
:100D30000223C4F3C50405931EE000BF85AE67BB64
:100D400072F36E3C7F520E5119CDE05BABD9831F1D
:100D50005C91FF1F67E6096A982F8A421895000088
:100D60007092FF1F3AF54FA58C68059B1C940000FC
:100D7000059B002B00F0D080059D069EC4F140032A
:100D8000AB4228BF2B46ED1A05953EA835462044B8
:100D90001D441C441A463146069502F037FB402C90
:100DA000E6D134AA22AB92F82B0092F82A101870E0
:100DB000597092F8290092F82810D970987032A9C9
:100DC0000433994202F10402EDD1369B0893379B1C
:100DD0000993389B0A93399B0B933A9B0C933B9B4B
:100DE0000D933C9B0E930DF59A7A3D9B0F935246C3
:100DF00021AB53F8041F42F8041F31A98B42F8D1EC
:100E00000DF5B6780DF5AC7C0DF59C7E5DAF5646C4
:100E1000302558F8044F5EF8043F56F8042F5CF86C
:100E2000041F4FEAF440114480EA74404FEAB34291
:100E300080EA942082EAF312014482EAD3030B444D
:100E4000013D47F8043FE4D1BD4B0F9ADFF8FC9217
:100E5000DDF82CB0DDF824E00A9F089EDDF838C0EC
:100E6000DDF8348001920C9D02930BE0CDF804C0B4
:100E7000C446A8461D4659F8043F0293BB46774630
:100E8000B64606464FEAF52205EA080182EAB5129F
:100E90002CEA050482EA75624C405AF8041F019B53
:100EA000144487EA0E0221444FEA763002EA06042F
:100EB00007EA0E0219445440029BA24A80EAB60097
:100EC00080EAB650194420444A4501EB0B0308441C
:100ED000CCD10B99089A39440F460C99399719448B
:100EE0000B460D993A930244294414460D46099A3B
:100EF0000E99059B369432444144164608460A9A98
:100F00000F9937967244614438923B953C903D91DD
:100F10000024002B7FF430AF349C04F138039C4252
:100F2000349300F26C82884B06930723C4F3C50404
:100F3000059303E0059B002B00F0D080059D069EE5
:100F4000C4F14003AB4228BF2B46ED1A05953EA8DD
:100F5000354620441D441C441A463146069502F08D
:100F600055FA402CE6D134AA22AB92F82B0092F825
:100F70002A101870597092F8290092F82810D97028
:100F8000987032A90433994202F10402EDD1369BE4
:100F90000893379B0993389B0A93399B0B933A9B91
:100FA0000C933B9B0D933C9B0E930DF59A7A3D9BC6
:100FB0000F93524621AB53F8041F42F8041F31A986
:100FC0008B42F8D10DF5B6780DF5AC7C0DF59C7E15
:100FD0005DAF5646302558F8044F5EF8043F56F88A
:100FE000042F5CF8041F4FEAF440114480EA744077
:100FF0004FEAB34280EA942082EAF312014482EA83
:10100000D3030B44013D47F8043FE4D14C4B0F9A06
:10101000DFF83891DDF82CB0DDF824E00A9F089E57
:10102000DDF838C0DDF8348001920C9D02930BE0AE
:10103000CDF804C0C446A8461D4659F8043F0293A3
:10104000BB467746B64606464FEAF52205EA080152
:1010500082EAB5122CEA050482EA75624C405AF81D
:10106000041F019B144487EA0E0221444FEA7630A4
:1010700002EA060407EA0E0219445440029B314A70
:1010800080EAB60080EAB650194420444A4501EB94
:101090000B030844CCD10B99089A39440F460C999C
:1010A000399719440B460D993A9302442944144642
:1010B0000D46099A0E99059B3694324441441646D2
:1010C00008460A9A0F9937967244614438923B95C4
:1010D0003C903D910024002B7FF430AF349D059966
:1010E000C5F3C504C4F177068023472206F03F0606
:1010F0000DF189008DF8883007F0AEFC06F1090289
:101100001046059222AA1644359B33712A0AF271C1
:101110002A0E72711A0C290CB27005EBC0029542AE
:10112000B1714FEA1321F1704FEA136184BF0133AB
:10113000359322AB35727170349206930CE000BF88
:10114000982F8A42189500007292FF1F1C9400008D
:10115000059B002B00F0D080059D069EC4F1400346
:10116000AB4228BF2B46ED1A05953EA835462044D4
:101170001D441C441A463146069502F047F9402C9E
:10118000E6D134AA12AB92F82B0092F82A1018700C
:10119000597092F8290092F82810D970987022A9F5
:1011A0000433994202F10402EDD1369B0893379B38
:1011B0000993389B0A93399B0B933A9B0C933B9B67
:1011C0000D933C9B0E930DF59A7A3D9B0F935246DF
:1011D00011AB53F8041F42F8041F21A98B42F8D128
:1011E0000DF5B6780DF5AC7C0DF59C7E5DAF5646E1
:1011F000302558F8044F5EF8043F56F8042F5CF889
:10120000041F4FEAF440114480EA74404FEAB342AD
:1012100080EA942082EAF312014482EAD3030B4469
:10122000013D47F8043FE4D19A4B0F9ADFF87892DA
:10123000DDF82CB0DDF824E00A9F089EDDF838C008
:10124000DDF8348001920C9D02930BE0CDF804C0D0
:10125000C446A8461D4659F8043F0293BB4677464C
:10126000B64606464FEAF52205EA080182EAB512BB
:101270002CEA050482EA75624C405AF8041F019B6F
:10128000144487EA0E0221444FEA763002EA06044B
:1012900007EA0E0219445440029B7F4A80EAB600D6
:1012A00080EAB65019442044914501EB0B030844F1
:1012B000CCD10B99089A39440F460C9939971944A7
:1012C0000B460D993A930244294414460D46099A57
:1012D0000E99059B369432444144164608460A9AB4
:1012E0000F9937967244614438923B953C903D91FA
:1012F0000024002B7FF430AF9DF8DB309DF8DA201E
:10130000664C9DF8D8008DF848308DF849209DF83E
:10131000D9309DF8DF208DF84A308DF84B009DF8CC
:10132000DE308DF84C2004F21D1112A806228DF833
:101330004D3007F05FFB002869D0109B1B6B4BB151
:10134000049A57489168554C090A984700284FD18C
:10135000E3780793524B03261E7051484F490123EF
:10136000C37040F223128EA802F050F8049B079D30
:101370001C88FFF777BB4A4A0D23D370FFF7B4B937
:10138000474B464A1B7B104623F00103FFF7A3BAE5
:10139000434A01231370FFF756B90F28CDD8DDE972
:1013A0002267109B3F4AD3E9024592194FF0000390
:1013B0007B41AB4208BFA242BFD3119A049D00EB10
:1013C000C0041444EB79E3702B7A2371013084F864
:1013D00002E0053410800B6823608B881099A3808D
:1013E000D1E90223BB4208BFB24201D2C1E9026780
:1013F000049BDB7807932A4B01261E70ADE7359BD3
:10140000013335938FE5359B013335938EE404F238
:10141000171100230022CDE92223119B08688D8833
:1014200094F816E12290ADF88C50002B85D01888E6
:101430000028B4D0E579267A059C04E094B2A04255
:1014400003F10903A9D0DF78AF4204F10102F5D11D
:101450001F79B742F2D19F787745EFD1A0429CD057
:10146000119B04EBC40423441C460DF59065002237
:10147000002365E9D22354F8050F2860A388AB80C8
:10148000D5E90023DDE92267BB4208BFB242A2D3FF
:1014900053E700BF982F8A42189500005C91FF1F08
:1014A000E8A1FF1F808D5B001C940000124A134BC3
:1014B0001068012210B51A7006F042FD1049114C57
:1014C00006F046FE104B2060186806F039FD0C4906
:1014D00006F03EFE0D4B6060186806F031FD0C49C9
:1014E00006F036FE0B4BA060188806F025FD0A4971
:1014F00006F02EFEE06010BD9CA4FF1FB9A1FF1FE7
:101500008096184BA890FF1FC8A1FF1F58A2FF1F6D
:1015100000007A44CA90FF1F0000C84210B5194B62
:10152000197882B0C9B9184B184A1B680193019801
:101530001368C31AB3F5FA7F154B08D310601A78F5
:10154000C2B10D20197002F0F5F802B010BD197883
:101550000D2002F0EFF802B010BD01230C4C19462B
:101560000D20237002F0E6F821780D2002F0E2F859
:1015700002B010BD01210D20197002F0DBF802B09D
:1015800010BD00BF1AA6FF1F00A7FF1FACA4FF1FBE
:101590002EA6FF1F064BB3F81C320A2B054B0CBFBF
:1015A000012100211970044B187802F0C3B800BF64
:1015B00068A2FF1FF2A6FF1F6C87FF1F01380828D3
:1015C0001DD8DFE800F00507090B121416181A00E1
:1015D0000120704702207047032070470139C9B2CB
:1015E00008290ED8084B585C70470E2070470F2012
:1015F0007047102070471120704712207047132049
:1016000070470D20704700BF1C950000F8B5154CC1
:10161000E66805464FF07E51304606F083FE18B16D
:10162000284606F089FC0646284606F089FC0E4945
:1016300006F0DAFC0D490746304606F0D5FC0146B7
:10164000384606F0C9FB0A496269E369E060A1FB1C
:10165000051502EB951501336561E36106F0B0FEF7
:10166000F8BD00BF4887FF1FCDCCCC3D6666663F06
:10167000D34D6210F0B51D4C94F8203085B005466E
:10168000002B2FD01A4B1A680192019A0021013ABF
:1016900084F820101968039103981B680293029B39
:1016A0002361801A06F048FC124906F051FD06F04D
:1016B00011F8064628460F4605F0EAFF02460B469B
:1016C0003046394606F05AF806F030FB0A4906F073
:1016D0008BFC034601466068236006F07DFB60607A
:1016E00005B0F0BD2269024BD4E700BF4887FF1F59
:1016F00000A7FF1F00BA5B4A0000204170B5114DE2
:101700000646FFF7B7FFAC684FF07E51204606F063
:1017100009FE18B1304606F00FFC0446304606F0CC
:101720000FFC094906F060FC08490646204606F011
:101730005BFC0146304606F04FFBA86006F040FE19
:1017400070BD00BF4887FF1FCDCC4C3ECDCC4C3F79
:10175000F8B5144CE66805460021304606F0D8FD81
:1017600018B1284606F0E8FB0646284606F0E8FBD6
:101770000D4906F039FC0D490746304606F034FCA9
:101780000146384606F028FB09496269E369E060D2
:10179000A1FB051502EB951501336561E36106F0C8
:1017A0000FFEF8BD2487FF1FCDCC4C3ECDCC4C3F67
:1017B000D34D6210F0B5194C94F8203085B0054631
:1017C0004BB3174B1A680192019A0021013A84F831
:1017D00020101968039103981B680293029B2361F0
:1017E000801A06F0A9FB0F4906F0B2FC05F072FF63
:1017F000064628460F4605F04BFF02460B4630468C
:10180000394605F0BBFF06F091FA074906F0ECFBFC
:10181000206005B0F0BD2269014BDAE72487FF1F85
:1018200000A7FF1F00BA5B4A00002041F8B5114C29
:10183000A66805460021304606F06AFD18B1284624
:1018400006F07AFB0646284606F07AFB0A4906F0BF
:10185000CBFB0A490746304606F0C6FB0146384630
:1018600006F0BAFAA0602846FFF7A4FFA06806F0C9
:10187000A7FDF8BD2487FF1FCDCCCC3D6666663F33
:101880002DE9F043A34CD4F8601BD9B001F2231525
:1018900040F223120FA8C4F8605B01F0B7FD04F614
:1018A0005E339D42B4F8683B9B4D28BFC4F8604B43
:1018B000013B0FA9284640F22312A4F8683B01F02F
:1018C000A5FDAB68C3F31723212B00F09D8130D811
:1018D000182B00F071816BD8012B00F0B080C0F0A4
:1018E0000D83162B22D18D4B1B78FBB105F1140310
:1018F0000FCB8B4C8B4FDFF8BCE28B4E84E80F0094
:101900006B8A8A49EA68288ACEF800201024B3F549
:10191000B27F3C7030800B8000F06683B3F5B67FF9
:1019200004D18349834B0A6001221A7059B0BDE883
:10193000F083932B00F06E8252D84A2B00F0C180C6
:101940007D2B00F0D880412BF0D1744B1B78002BFD
:10195000ECD0794A794B95F8344079482E8A698AD7
:1019600014700122AF8AEC8A02705E80288B6E8B25
:101970009980A98BDF801C81EF8B2C8C58819E81F4
:10198000688CAE8CD981E98C1F825C822F8D6C8D26
:101990009882DE82A88D19836A4E6B499C835F838F
:1019A000D883EC8D95F8350032701C840870BDE743
:1019B0001D2B38D01E2B00F068811B2BB6D1574B46
:1019C0001B78002BB2D0614C6149624BB5F91460B1
:1019D000B5F91600B5F91820266008601A60A5E769
:1019E000B52B4DD0FD2B00F07E81A62B9ED14B4B0D
:1019F0001B78002B9AD0544B2E7C57481E70574AA8
:101A00006E7C0670564FA87C564C5749574B107049
:101A100095F813E02E7DA889EA8987F800E0267002
:101A200008801A8082E73D4B1B78002B3FF47EAF85
:101A30004F49504B28692A8B08601A8076E7374B4C
:101A40001B78002B3FF472AF688B4B4CFFF7DEFD29
:101A50002080A88BFFF752FE2388484945F20822D0
:101A60009342088000F2CB8244F2A012934240F2EB
:101A7000CE82434B1A78062A20D104221A7055E7E9
:101A8000264B1B78002B3FF451AFA8893D4CFFF744
:101A90005FFE2080E889FFF7C9FE23883A4945F2B6
:101AA00008229342088000F2AE8244F2A0129342D0
:101AB00040F2BD82354B1A78062ADED005221A7014
:101AC00034E7164B1B78002B3FF430AF3048EE68FC
:101AD000304A0660304F2869304C3149314B106034
:101AE000B5F81CE0EE8B6869AA69A7F800E02680CB
:101AF00008601A601AE7094B1B78002B3FF416AFF9
:101B0000294C2A492A4BAE89E8892A8A26800880EE
:101B10001A800BE72896FF1FCCA4FF1F1AA6FF1FF1
:101B200084A6FF1F9690FF1FE890FF1FF4A5FF1FDC
:101B30009CA1FF1FC6A6FF1FC4A6FF1FF8A5FF1F7D
:101B4000D0A1FF1F5CA2FF1F3491FF1FACA6FF1F97
:101B5000B0A6FF1F88A4FF1FC0A4FF1FC5A6FF1FBC
:101B600054A2FF1FB8A6FF1F5691FF1F9CA6FF1F80
:101B7000DC90FF1FF0A6FF1F66A6FF1FCC90FF1F83
:101B8000D4A6FF1F68A6FF1FB0A4FF1F5891FF1F18
:101B9000B4A1FF1FC4A4FF1FC890FF1F64A2FF1FB2
:101BA000A490FF1F3891FF1F94A6FF1F8CA4FF1F56
:101BB0002CA6FF1FEC90FF1FA54B1B78002B3FF4BA
:101BC000B5AE95F82830A348A34A95F829100370BC
:101BD000022B11707FF6AAAEA04B6E69A0481E6062
:101BE000A04AAE690660A04FE869A04CA049A14B8D
:101BF0001060B5F820E06E8CA88CEA8CA7F800E0A5
:101C0000268008801A8091E6914B1B78002B3FF4C8
:101C10008DAE904B1B78022B7FF688AE964F2869CD
:101C2000964E974C38606F69964A3760AE69964B0E
:101C30002660EC69146095492C8C954A1C80954B64
:101C40006C8C0C80A98CED8C11801D8006F078F9CD
:101C50009149924C06F07CFA03462360384606F020
:101C60006FF98D4906F074FA03466360304606F05A
:101C700067F98B4906F06CFA8A4BA060A3FB05302C
:101C8000400906F05DF9E06050E6714B1B78002BCF
:101C90003FF44CAE844B8549854C6A6AEF692E6AE5
:101CA0001A600F60266028698249DFF84082824E00
:101CB000824C06F099F982496F69AD6906F048FADD
:101CC0007C49C8F80000384606F08EF97C4906F0D9
:101CD0003FFA78493060284606F086F9784906F0E0
:101CE00037FA206022E6774B774E2C7B1C7005F18B
:101CF0000D07B4463D3538687968BA68FB68E64632
:101D0000AEE80F001037AF42F446F4D13A88DFF85E
:101D1000E0E16D4BACF8002032228EF8002003F198
:101D20003305002213F8010B10F0DF0F02F101015F
:101D300004D1187810F0DF0F00F03D819D420A4673
:101D4000F0D133273B4636224FF0350E4FF0340C9E
:101D50005E485F49077000255B48F55406F80C5053
:101D600006F80E50B55406F0DFFE002840F02F8133
:101D7000584B01221A70584EB6F81C82B8F10A0F5F
:101D800000F03581DFF86C914F4948463A1D00F864
:101D9000014B4D4601F03AFB0FCD01AC0FC40FCD06
:101DA0000FC40FCD0FC44B4B89F833701B7889F8E3
:101DB000343095E80300D6F8183244F8040B03F1E8
:101DC000350E06F212239E452170C6F818E204BFB4
:101DD000B646C6F8186201AF75460DF1340C3C46A4
:101DE0000FCC644528606960AA60EB60274605F166
:101DF0001005F4D12068286023792B7108F10103C4
:101E0000A6F81C32344BB8F1000F7FF48FADC3F845
:101E100014E28BE50E4B1B78002B3FF487AD95F851
:101E20002C30DFF8D4E02D4E2D4C2E496F8DEA6812
:101E300095F82F008EF80030378022600870002B54
:101E400000F0CF80012B7FF471AD274B1A806DE538
:101E50001AA6FF1F6E87FF1FB4A4FF1FC8A6FF1F8F
:101E600028A6FF1F58A2FF1FA0A6FF1FB6A6FF1F90
:101E70005491FF1F9490FF1F9CA4FF1FC8A1FF1F38
:101E8000BCA4FF1FBCA1FF1FD6A6FF1FD8A6FF1F23
:101E9000DAA6FF1FCA90FF1F8096184B6CA6FF1F83
:101EA00000007A441F85EB51ECA6FF1F4491FF1FF1
:101EB000DCA6FF1F00003443B0A1FF1F4091FF1FAD
:101EC000DB0F4940C9A4FF1FF890FF1FACA1FF1F03
:101ED000B8930000C8A4FF1F68A2FF1FA0A1FF1FA6
:101EE000D8A1FF1FB8A1FF1F22A6FF1FF8A6FF1F42
:101EF0009690FF1F30A6FF1FC690FF1F297C614AE6
:101F00004B1F012B11707FF611AD5F4B6A7C5F4E4A
:101F100018685F4F32705F4C0090A2F10C025E486F
:101F2000EB683970DFF8C4E1009E5C492660B2FAC4
:101F300082F203605209A87C594C8EF80020594E59
:101F400095F813E0584F0870584A297D87F800E04B
:101F50001D0C1B0E2370C3093570117004D0544B37
:101F60001B780BB9FFF7A2FA524D2C78002C7FF4A6
:101F7000DDAC514E5148338809210133338002F0E2
:101F8000EFFE31884E4801F031FA21464D4802F00B
:101F9000E7FE4B4801F0DAF93388022B7FF6C6AC36
:101FA00001230C2148482B7002F0DAFE444801F06E
:101FB000CDF93480BAE4D0B2471C8EF8000002F1AB
:101FC000020C02F1030E0B46FFB20432C0E63F4999
:101FD0003F4806F0A9FD00287FF4CDAE3D4B1870B8
:101FE000C9E63D4B1A80A1E43C4B1A609EE41421E3
:101FF0003B4802F0B5FE324801F0A8F996E4394BAF
:1020000006221A7092E4384B06221A708EE443F2CC
:102010003812934226D842F2D00293422CD841F291
:10202000680293422F4B0FD800221A707EE443F2CD
:10203000381293420ED842F2D002934217D841F29E
:1020400068029342284BEFD91A78032AECD0022277
:102050001A706BE4244B1A78052A7FF40EAD032224
:102060001A7063E41F4B1A78052AF8D005E51E4B59
:102070001A78042AEBD0F2E71A4B1A78042AE6D031
:10208000EDE700BF9EA6FF1F00A7FF1FE9A6FF1FE9
:1020900048A2FF1FE0A1FF1F5091FF1F65A6FF1F71
:1020A000BAA4FF1F3D91FF1F20A6FF1FDA90FF1F5C
:1020B000B9A1FF1F1AA6FF1F56A2FF1F9C93000085
:1020C0007C87FF1F74910000A8930000C893000054
:1020D000F890FF1FC8A4FF1FC490FF1F98A1FF1F07
:1020E000D8930000D4A6FF1F5891FF1F5DA2FF1FC9
:1020F000034BB3F8683B0BB1FFF7C2BB704700BF9F
:102100002896FF1F7E2808B50CD07D2803D0BDE897
:10211000084001F0A1BC01F09FFC5D20BDE8084033
:1021200001F09ABC7D2001F097FC5E20BDE80840DC
:1021300001F092BC38B50D4B1B78012B04460D46BF
:1021400002D00120FEF796F9204655B1FFF7DAFFDD
:10215000074B1888204400EB102000F0FF00188087
:1021600038BDBDE8384001F077BC00BFFCA6FF1FBA
:10217000AEA1FF1F10B51B4B1B7882B0012B009244
:10218000ADF8061002D00120FEF774F901211020ED
:10219000FFF7D0FF9DF80600134C0121FFF7CAFF9F
:1021A0009DF807000121FFF7C5FF9DF80000012100
:1021B000FFF7C0FF9DF801000121FFF7BBFF9DF86D
:1021C00002000121FFF7B6FF01219DF80300FFF790
:1021D000B1FF2078C043C0B2FFF794FF00232380F3
:1021E00002B010BDFCA6FF1FAEA1FF1F1A4B1B497A
:1021F0001B681B4A002B70B41A4C20DBA4FB0303A2
:102200005C0904EB4404002364000C6013701D4659
:1022100000221346012000FA03F101331E2B42EA8B
:102220000102F8D1104E336822402B431343336030
:102230001A464FF400611B2070BCFFF79BBF5B4246
:10224000A4FB0334640904EB4404640001230C6020
:1022500013704FF08045DBE79CA4FF1FA090FF1F89
:10226000DCA1FF1F1F85EB51D490FF1F38B51D4B1C
:102270001868002825DB05F05FFE1B4905F0B4FE59
:1022800006F09EF8194A1A4B106002221A704FF09D
:10229000004500221346012404FA03F101331E2BEA
:1022A00042EA0102F8D1134C236802402B43134346
:1022B0001A4623604FF400611B20BDE83840FFF749
:1022C00059BF404205F038FE074905F08DFE06F083
:1022D00077F8064A064B106003221A704FF040450B
:1022E000D7E700BFC8A1FF1F8FC2753DD0A6FF1F53
:1022F000DCA1FF1FD490FF1F2DE9F0435B4E337824
:102300008FB0002B47D05A4A1478A34280F29480B1
:10231000584A5948D55C0768584C13442A0693F824
:1023200003E093F8018093F802C084F801800EF076
:102330007F0302F0FE421A434FEA0841BCF1000F4E
:1023400018BFB8F1000F47EA020701F4FE014FEA97
:102350000C2241EA070102F4FE420CBF01230023D4
:102360000A43002D08BF43F00103026084F802C055
:1023700084F803E02570002B63D1BEF1000F60D01C
:102380004FF4A0411B20FFF7F5FE33780433337080
:102390000FB0BDE8F083DFF8E880B8F81C72002FBA
:1023A0005FD0D8F8144204F1350CC8F814C204F117
:1023B0003009EE4620686168A268E36875460FC57B
:1023C00010344C45AE46F5D1206828602C4B22795C
:1023D0002A7103F2122294456C4628BFC3F81432C6
:1023E0000FCCDFF8A890DFF8A0C0DFF884E04D46FE
:1023F0000FC50FCC0FC50FCC0FC594E8030045F8EF
:10240000040B99F8333099F8000029701A1D09F16E
:1024100001018CF80000013F16488EF800301C4680
:10242000A8F81C7200F0F2FF3378164A99F83410BD
:102430001170A342FFF66CAF002333700FB0BDE8FC
:10244000F083114B1B785C05990304F4000401F43C
:102450000041DB01214303F080030B431A43026078
:102460008EE7B847B8F81C729BE700BFC7A6FF1FEE
:102470007CA6FF1FE895FF1FD490FF1FC090FF1F91
:1024800068A2FF1FE8A6FF1F3C91FF1F30A6FF1F99
:10249000F8B5264B1B78062B46D0254B254C1B78D0
:1024A000254D264A2478264826492C701278DD11BD
:1024B000EBB203700B7072BB2349244B08680130E8
:1024C000C0B218702249234B91F800E0224E1F78C9
:1024D000336864014FEA4E2E04F060010EF400747C
:1024E0000C43BF0244EA030107F44067120302F4FD
:1024F00080523943114341EAC51141EA052300F0F6
:102500001F0003431A46336045F201011B20BDE85A
:10251000F840FFF72FBE114B114918780978FFF7E3
:102520004DF80A4B1870CDE7F8BD00BF48A2FF1F59
:1025300065A6FF1FC8A4FF1FE8A6FF1F5DA2FF1F1F
:1025400094A4FF1FB8A4FF1F5091FF1FB3A4FF1F47
:102550002FA6FF1F8EA4FF1FD490FF1F3D91FF1FCA
:10256000BAA4FF1FF8B5204B20491868204C05F08D
:102570003BFD204905F030FC05F022FF1E4A1F4BB1
:102580001A4987B21F80106805F02EFD1C4905F01E
:1025900023FC05F015FF1B49002380B21A4620805A
:1025A0000B80012505FA03F401330B2B42EA0402E8
:1025B000F8D1154E34683A40C0022243002101256B
:1025C00005FA03F40133152B41EA0401F8D1014067
:1025D00041EA02031A46336045F206011B20BDE8BA
:1025E000F840FFF7C7BD00BFF8A6FF1F0000A040DE
:1025F000CCA6FF1F00006144B0A1FF1FD890FF1FB1
:102600000000E143B6A4FF1FD490FF1F30B42E4B4F
:102610001A78042A0AD80132D2B2042A1A700CD0CD
:10262000052A3CD0012A24D030BC7047274900221B
:1026300001201A70087030BC7047254B25491A706C
:102640000D6800221346012000FA03F10133182B14
:1026500042EA0102F8D1204C21682A4041F080630F
:10266000134323601A4645F207011B2030BCFFF7D5
:1026700081BD1A481A49164B05780D6000211A7061
:102680000B4602FA03F00133182B41EA0001F8D19E
:10269000114C2268294042F080730B43E1E70C4B58
:1026A00010491A700D6800221346012000FA03F148
:1026B0000133182B42EA0102F8D1074C21682A4065
:1026C00041F0A063CCE700BF9C90FF1FB9A4FF1F9F
:1026D000B4A6FF1FA0A4FF1FD490FF1F48A2FF1F96
:1026E000F4A6FF1FA8A4FF1F10B50229044680EA24
:1026F000E070A0EBE47011D0032901D0002010BDE0
:10270000012A26D0022AF9D1B0F57A7F52DA800068
:1027100080B2002CF3DA40F4805010BD012A31D091
:10272000022AEBD163285EDDB0F57A7F72DA05F01C
:1027300003FC574905F058FC02F01EFF05F040FE6F
:10274000C0B2800040F00100002CD8DA40F40070E4
:1027500010BDB0F57A7F49DBB0F5205F6CDA05F08B
:10276000EBFB4B4905F040FC02F006FF05F028FEAC
:1027700080B2400040F0010080B2002CBFDA40F48B
:10278000006010BD63282BDD40F2F54398423FDC2A
:1027900005F0D2FB3E4905F027FC02F0EDFE05F006
:1027A0000FFEC0B2400040F00100002CA7DA40F458
:1027B000807010BD42F20F7398421ADD354B98427B
:1027C0003DD805F0B9FB344905F00EFC02F0D4FE0B
:1027D00005F0F6FD80B2800040F0020080B298E77C
:1027E000400080B2E1E7800080B2ADE7400080B2F7
:1027F000C3E705F0A1FB264905F0F6FB02F0BCFE9D
:1028000005F0DEFD80B2800040F0010080B280E77C
:10281000FF20CAE742F20F73984222D805F08CFBE2
:102820001D4905F0E1FB02F0A7FE05F0C9FDC0B2AD
:10283000800040F0020087E740F2FF709DE7B0F5AE
:102840007A2F1FD205F078FB144905F0CDFB02F07A
:1028500093FE05F0B5FD80B2800040F0030080B229
:1028600057E70F4B984210D805F066FB0B4905F06F
:10287000BBFB02F081FE05F0A3FDC0B2800040F07A
:10288000030061E740F6FF7043E740F2FF105BE7AB
:10289000CDCCCC3D9F8601000AD7233C6F12833AF2
:1028A00017F00100F8B52D4B2D4A1B780F2B4ED990
:1028B0000F2313709E462B4A2B4B11782B4E032966
:1028C0000A4628BF032203291A70336842D9033904
:1028D000CFB2BC0304F4404C25482649058809685A
:1028E0002548120102F030021A4380FB013042EA0F
:1028F0000E03224ADFF890E0C917A2FB0525022249
:10290000C1EB6010114643EA0C048EF80070FFF72B
:10291000EBFEC5F3C7051A4B0746012228460221E4
:102920001F60FFF7E1FE174BDFF860E0BF053B409B
:10293000C5B2234343EA85138EF800501A4633602C
:1029400045F202011B20BDE8F840FFF713BC9E468C
:102950001370B0E74FF0000C6746BDE7B4A4FF1F4B
:102960003591FF1F6E87FF1FD1A1FF1FD490FF1F5E
:10297000A0A6FF1F58A2FF1F1F85EB51CDCCCCCCCA
:102980004891FF1F0000C07FF290FF1FB2A4FF1FFD
:102990001E4B1F491A881F4870B51F4C1F4D0088D9
:1029A0002B68A4FB02425209C2F308040A801C43AC
:1029B00005F0C6FA1A4905F017FB02F0DDFD05F037
:1029C000D9FC01220221FFF78FFE164A164B11880F
:1029D0001880400200F4FF3343EA04024E0411233E
:1029E0000021012404FA03F00133202B41EA000105
:1029F000F8D1314041EA02032B601A4645F2030147
:102A00001B20BDE87040FFF7B5BB00BF66A6FF1FE7
:102A1000B890FF1FCC90FF1F1F85EB51D490FF1F74
:102A2000CDCCCC3DC490FF1FF090FF1F2DE9F04F9F
:102A3000DFF86493C249D9F80400C24EDFF85C8322
:102A4000C14FC24DC24C89B005F082FBC14905F0AF
:102A5000CBFA8346BA49D9F80000C6F800B005F0B1
:102A600077FBBC4905F0C0FA8246B549D8F80400A6
:102A7000C7F800A005F06CFBB64905F0B5FA814631
:102A8000AF49D8F80000C5F8009005F061FBB149E6
:102A900005F0AAFA804659464846C4F8008005F079
:102AA00099F904F017FE02460B46CDE9062302F021
:102AB0001FFDCDE90001404604F00CFE804689462A
:102AC00002F0CCFCCDE90201504604F003FE824640
:102AD0008B4602F0C3FCCDE904014046494602F0B2
:102AE00007FD804689465046594602F001FDDDE962
:102AF000062382468B461046194602F0AFFC42463A
:102B00004B46CDE90601DDE9040104F037FE5246EB
:102B10005B46DDE902AB804689465046594604F0E3
:102B20002DFEDDE9062304F029FE02460B46404651
:102B3000494604F06FFC5246804689465B46DDE913
:102B4000000104F01BFE42464B4602F091FD05F0E9
:102B5000EDF87B4905F048FA7E4905F0F9FA0021C5
:102B6000804605F0DFFB002840F0E4807A4BDFF878
:102B700030A2C3F80080404605F0FCFB83B2A3F10D
:102B8000B40000B20028BCBF03F1B40000B2B0F53D
:102B9000B47FA8BFA0F5B470704BA8BF00B2188076
:102BA00005F0CEF96E4905F01FFA05F0E3FB246845
:102BB0003F68AAF800003946204605F00BF9694B3A
:102BC00031688046C3F80080286805F003F9664B39
:102BD000054618604FF07C51404605F005FA04F0B8
:102BE00079FD02F085FCCDE9000128464FF07C51CB
:102BF00005F0FAF904F06EFD02F07AFC80463846E2
:102C0000894604F067FD02F029FC064620460F467F
:102C100004F060FD02F022FC424604460D464B469D
:102C20004046494604F0AAFD32463B4604F0A6FD64
:102C300022462B4604F0A2FDDDE9002304460D46A2
:102C40001046194604F09AFD0B46024629462046D6
:102C500004F0E2FB05F06AF8444A106004F03AFD23
:102C600002F008FD02F0ACFC02460B4604F0D4FB77
:102C700005F05CF83E4B3F49186005F0B5F93E4B56
:102C80003E4A1B781060002B52D005F073FB80B2D7
:102C900005F052F902F070FC05F06CFB384B394E30
:102CA0001B68032186FB0326DB170222C3EB661693
:102CB000FFF71AFD344A002336B210801C4601216A
:102CC00001FA04F201340C2C43EA0203F8D12F4D2F
:102CD0002A680340304643EA020705F031F902F062
:102CE0004BFC05F047FB02220321FFF7FDFC284BBC
:102CF00000B2188000220303012606FA04F1013411
:102D0000182C42EA0102F8D11A403A430028BAF9D5
:102D10000030B8BF42F0807242EA43631A4645F27F
:102D200004011B202B6009B0BDE8F04FFFF722BA69
:102D30001846B3E74046174905F04EF8804615E7B8
:102D40000000344350A2FF1FA4A6FF1F4C91FF1F99
:102D5000A8A6FF1FDB0F49409890FF1FC0A1FF1FCF
:102D60004CA6AA3ED090FF1F94A1FF1FA4A1FF1F55
:102D7000A8A1FF1F706DC24AB9A1FF1F9090FF1F4D
:102D8000BCA1FF1F1F85EB51E090FF1FD490FF1FD8
:102D9000F690FF1F0000B443A890FF1F6CA6FF1F12
:102DA000F490FF1F2DE9F84F334B34491868344F26
:102DB000344CDFF8DCA0DFF8DC8005F015F9324B8D
:102DC0002E490646186805F00FF9304B8346B3F9D3
:102DD000000000EB8000400005F0B2F800218146C1
:102DE000304605F09FFA3D68002842D1304602F097
:102DF000C3FB05F0BFFA01220221FFF775FC06466E
:102E000005F09AF82060584602F0B6FB05F0B2FAD9
:102E100001220221FFF768FCF6B246EA05040646E5
:102E200005F08AF8760206F4FF334FF07C51CAF8B9
:102E30000000484643EA040605F0D6F8C8F800004A
:102E400005F0BEFA012500214004112305FA03F420
:102E500001331C2B41EA0401F8D1014041EA060389
:102E60001A463B6045F205011B20BDE8F84FFFF70D
:102E700081B945F48075B9E73891FF1F0000204102
:102E8000D490FF1FC0A6FF1FC4A4FF1FC890FF1F40
:102E9000BCA6FF1F1CA6FF1FF8B5224B22481B88AB
:102EA000224D234FA0FB0330400905F049F8214B88
:102EB000186005F085FA204A2B68C0F30804B2F9BF
:102EC00000001C4305F03CF81C4905F08DF802F0A9
:102ED00053FB05F04FFA01220221FFF705FC0646DD
:102EE00005F02AF8164A38601188730203F4FF339C
:102EF00043EA04024E0411230021012404FA03F0E2
:102F00000133202B41EA0001F8D1314041EA0203AC
:102F10001A462B6045F208011B20BDE8F840FFF778
:102F200029B900BF66A6FF1F1F85EB51D490FF1F74
:102F3000E4A6FF1FA4A4FF1FCC90FF1FCDCCCC3D67
:102F400022A6FF1FF0B5904C23685A1E97B00B2A9B
:102F50004CD8DFE812F0D100D1009800AD000C0091
:102F6000CD00CF00C7005600C900CB008000874DC0
:102F70002B68874E0F930F9B3268844F9B1AB3F5D3
:102F8000A77F80F025812368013323602B68814E61
:102F90000D930D9B32687D4F9B1AB3F5A77F80F090
:102FA000DE802368013323602B687B4E0B930B9BE1
:102FB0003268764F9B1AB3F57A7F00F2C08023689F
:102FC000013323602B68754E0993099B32689B1A65
:102FD000B3F5FA7F40F2A780714B1B78022B00F209
:102FE00005812B680893089B336023686D4A664906
:102FF000127801339342236001D901230B6017B08B
:10300000F0BD624D2B68684E0793079B32685F4F97
:103010009B1AB3F5FA7F00F2AE8023680133236078
:103020002B68624E0593059B3268584F9B1AC82B3C
:1030300000F28D802368013323602B685C4D03937D
:103040002A68039B514E9B1A41F2883293426ED8F4
:10305000236801332360574B1B888BB14B4E564D71
:1030600033680193019B2A689B1AB3F57A7F07D9CD
:10307000FFF712FF33680093009B2B602368B5E7CE
:1030800023680133B2E7414D2B684C4E1393139BD9
:1030900032689B1AB3F5A77F69D3414B1B78022B8B
:1030A00000F2A1802B681293129B336023689DE786
:1030B000364D434BB3F81C321BB9424B1B78002BE7
:1030C0002DD02B68404E1193119B32682F4F9B1AC5
:1030D000C82B24D9FFF710F93B681093109B33607D
:1030E000236883E7294D6DE7284D99E7274DA4E72D
:1030F000264D4BE7254D57E7244D344E2A6815924F
:10310000159A3168521AB2F5A77F69D3244A12780A
:10311000022A6ED82A681492149A326066E72368ED
:103120000133236024E72368013323606AE7FFF754
:103130006DFA33680293029B2B60236856E7FFF712
:1031400027FC3B680A930A9B336023684EE7FFF72E
:1031500009FA3B680493049B3360236846E7FFF752
:10316000A1FB3B680C930C9B336023683EE723680C
:10317000013323609DE7FFF715FE3B680693069B2E
:103180003360236832E700BF7087FF1F00A7FF1F6F
:10319000F0A5FF1FBC90FF1F60A2FF1FCCA1FF1F67
:1031A000D1A1FF1F6F87FF1FE0A6FF1FD4A1FF1F44
:1031B00098A4FF1F22A6FF1F90A4FF1FE490FF1FEB
:1031C00068A2FF1FC7A6FF1F24A6FF1FE4A1FF1FC1
:1031D000FFF75EF93B680E930E9B3360236805E7AB
:1031E0000133236050E7FFF741F85BE7FFF71EFC70
:1031F000F7E6FEF7FBFF23688CE700BF154B1A7854
:103200002DE9F0413AB1144A11680A78002082F0A1
:1032100020020A7018700025A846104F104E00F0CA
:1032200025FC48B100F032FC7E2DC4B206D0254604
:1032300000F01CFC0028F5D1BDE8F0811B2CF6D174
:103240003378C7F80080002BF1D0FFF77BFE2546CE
:10325000EEE700BFFCA6FF1F98A6FF1FD490FF1F3C
:103260001AA6FF1F30B51E4C237885B053B11D4BF5
:103270001D4A1B6801931168019B40F6B8325B1A26
:1032800093421AD800F032FD30BBFEF731FF2378AD
:103290006BB1144D154C2B680293029B22689A4225
:1032A00005D0FFF7ABFF2B680393039B2360FEF76A
:1032B00035F9FEF76FF905B030BD00252A210C481D
:1032C000257001F04DFD0B4800F040F80A4B1D80C1
:1032D00000F00CFD0028D8D0FDF766F9D5E700BF57
:1032E0001AA6FF1F00A7FF1FE0A1FF1F4CA2FF1F90
:1032F000F09300007C87FF1F56A2FF1F38B50E4BCE
:103300000E4C0F49C3F81432002522461846A3F884
:103310001C52C3F8183205F073F80A4B0A49A3F897
:10332000685B22461846C3F8603BC3F8643BBDE8BF
:10333000384005F065B800BF68A2FF1F2087FF1F57
:103340006D0400002896FF1F7104000000B5064AB6
:10335000036812885B6883B001A9ADF804200222DB
:10336000984703B05DF804FBF09F0000F0B50746F6
:103370008BB0002A33D0012A08BF0A2251B321247E
:1033800000E0F4B2B1FBF2F502FB1511C8B2092955
:1033900000F1300198BFC8B20AA988BF3730214474
:1033A00088BFC0B201F8240C661E2946002DE8D162
:1033B00033B1013CE4B20AAB23442D2203F8242CA0
:1033C0003B6801AA11195B683846C4F1220298478C
:1033D0000BB0F0BD30228DF825202124E8E70368EA
:1033E000C9B21B6898470BB0F0BD00BF0029BABF37
:1033F00049422D2300230A22FFF7B8BF08B5FDF785
:1034000047F8FFF72FFF01F0AFFDFAE7844641EAE6
:10341000000313F003036DD1403A41D351F8043B4C
:1034200040F8043B51F8043B40F8043B51F8043B9E
:1034300040F8043B51F8043B40F8043B51F8043B8E
:1034400040F8043B51F8043B40F8043B51F8043B7E
:1034500040F8043B51F8043B40F8043B51F8043B6E
:1034600040F8043B51F8043B40F8043B51F8043B5E
:1034700040F8043B51F8043B40F8043B51F8043B4E
:1034800040F8043B51F8043B40F8043B51F8043B3E
:1034900040F8043B51F8043B40F8043B403ABDD2AD
:1034A000303211D351F8043B40F8043B51F8043B4F
:1034B00040F8043B51F8043B40F8043B51F8043B0E
:1034C00040F8043B103AEDD20C3205D351F8043BDE
:1034D00040F8043B043AF9D2043208D0D2071CBFAA
:1034E00011F8013B00F8013B01D30B8803806046D3
:1034F000704700BF082A13D38B078DD010F0030349
:103500008AD0C3F10403D21ADB071CBF11F8013BB8
:1035100000F8013B80D331F8023B20F8023B7BE707
:10352000043AD9D3013A11F8013B00F8013BF9D232
:103530000B7803704B7843708B78837060467047CC
:1035400008B5104C08E0236859050DD423681A0506
:103550000FD42368DB0411D423685803F3D500F09B
:1035600069FD23685905F1D500F0C4FA23681A05EE
:10357000EFD500F0FFFB2368DB04EDD501F0C0FEC2
:10358000EAE700BF3480044008B5FFF7D9FF00BF69
:10359000014B10221A80704700200540704700BF81
:1035A000094908B50B6830B16A461844A2F5805243
:1035B000904202D20860184608BD04F02DFF0C238B
:1035C00003604FF0FF3008BD7487FF1FEFF31380D7
:1035D00070B9EFF310836BB9EFF305825AB94FF46A
:1035E0008070EFF311832BB1984228BF18467047C3
:1035F0004FF0FF3070470F2A01D81846F1E7014B12
:10360000D05CEEE7F0E300E0F0B44D1E2E4600245F
:1036100000E00134B0FBF2F302FB1300092800F1D3
:1036200030078ABF3730F8B2C0B206F8010F18462B
:10363000002BEED10A1953704CB1107815F8016FB8
:1036400028700133E01A834202F80169F5DB08466D
:10365000F0BC704710B40F4B53F8302092F8804202
:103660002CB1012369B182F8803010BC704703EBA4
:10367000C0035B681A6841B922F002021A6010BCEC
:10368000704782F8003110BC704742F003021A60A4
:1036900010BC7047F49F00001C4A02EBC0030129D4
:1036A0005B6811D004291BD052F83000002280F84A
:1036B000802229B1022920D0032922D01A60704724
:1036C0004FF480721A60704752F830004FF4A272C3
:1036D00080F880121A601A6822F020021A6070477F
:1036E00052F830104FF4A272012081F880021A6063
:1036F0001A6842F020021A60704740F203121A6002
:1037000070474FF481721A60704700BFF49F000049
:1037100030B4054B054D064C002210211A602A607A
:103720002060196030BC704714D0034004D00340BF
:1037300000D00340212801D8FFF78CBF704700BF9D
:10374000212801D8FFF7A8BF704700BF2DE9F84333
:10375000054672B6204F214B214A1B683C6812680F
:1037600062B6520102D5322B88BF013495B3C3F53E
:10377000BB331C4EDFF86490DFF86480FF334FF4F6
:103780007A72A6FB031302FB04F404EB931472B6E3
:10379000D9F800103A68D8F800E062B6C1F5BB333A
:1037A000FF33A6FB03031EF0806FC4EB93134FF4AB
:1037B0007A7002D0322988BF013200FB0233B3F5A0
:1037C0007A7F04D3013D05D004F57A74DFE701F078
:1037D000CBFBDCE7BDE8F88300A7FF1F18E000E0A3
:1037E00004ED00E0ABAAAAAAF8B52D4B2D49DFF8ED
:1037F000D0E0DFF8D0C02C4E2C4D2D4C2D4A2E4F52
:103800004FF4000018604FF0807018604FF00070A7
:1038100018604FF0806018604FF000601860002062
:10382000086028234BF6FF71CCF80010CEF800306A
:10383000336013602B6023603B60B36293620922A4
:1038400045F8242CC4F8D80F05F57F65C7F8D41FB8
:1038500007F5FF2707F5FA67C6F8F83F2B6006F56E
:10386000FF26C4F8D42F05F5FD2504F5FF243860A4
:1038700006F2F4761148316005F5FF6504F5FD6444
:103880002B602360026001F0BBFC1920FFF75EFF94
:1038900001F038F940F21310BDE8F840FFF756BFC9
:1038A00008E100E0048003401480034024800340CA
:1038B0002C8003401C8003403480034000800B4078
:1038C0000C800340088003402DE9F84F214B1B6812
:1038D00007460BB101221A70DFF888901E4D99F847
:1038E0000040DFF884801D4E01343F2C8ABF4FF02A
:1038F000000A5FFA84FA5446AB462B78A34216D1ED
:10390000FFF764FE40281FDC33791B06F5D59BF8D2
:10391000003001333F2B86BF00221346DAB218F87D
:103920000330DBB2F3712A702B78A342E8D00C4944
:103930000A4BFFB208F804700120BC22087089F815
:1039400000A0DA70BDE8F88FFF28D6DD01F00CFB8F
:10395000D3E700BF94A7FF1F91A7FF1F00A0064059
:1039600090A7FF1F98A7FF1F0CA7FF1F2B4A2C49EA
:103970001368F0B543F4806313600A78294F2A4E28
:103980002A4D2B4C2B4900233B7033702B70237036
:103990000B70002A3DD0152A21D0274B1B78012B14
:1039A00025D0052B30D01F2827D80020024601251E
:1039B000224B234C1A7023495D7004224FF0020EF3
:1039C00088273C26402598729A704FF4005083F85F
:1039D00013E05A751F74DE7025700860F0BD1A4B35
:1039E00040F213321A60144B1B78012BD9D1174BBC
:1039F0004FF451721F281A60D7D9C0F34432C0F374
:103A0000471500F01F00D3E7114B4FF451721A60B5
:103A1000C9E7104B40F213321A60BEE7348004400D
:103A20004CA7FF1F08A7FF1F09A7FF1F98A7FF1F8D
:103A300091A7FF1F90A7FF1F7887FF1F00A00640D8
:103A40002DE400E004E100E018C0044044A004407C
:103A50001CC0044040A00440034B1B685B0501D51B
:103A6000FFF732BF704700BF34800440054A064B61
:103A700010781B78C0B2DBB2984238BF4030C01A11
:103A8000704700BF08A7FF1F09A7FF1F30B4154BE1
:103A9000154C1A782378D2B2DBB29A421ED0013389
:103AA0003F2B0ED91149124B087819680023C0B278
:103AB000237021B1D31A1A2B01DC00230B7030BC08
:103AC00070470A480A49C05C0968DDB2C0B2257077
:103AD0000029F4D09A4238BF4032EBE74FF0FF3074
:103AE000EDE700BF08A7FF1F09A7FF1F50A7FF1F93
:103AF00004A7FF1FF0B4384B1A7912F0300F2CD006
:103B000072B6997D01F0FF0200293DD062B6334FB5
:103B1000334938780D78334E1C46C0B2EDB2431CA1
:103B2000402BE17928BF0023AB4202F1FF32C9B23A
:103B30001CBFF154184612F0FF02F0D12A4B1B684B
:103B4000C2B23A704BB1A84236BFC5F14005401B26
:103B500040192728C4BF01221A701F49CA78D2B25F
:103B6000150616D452060DD51B4B1B795B0609D5DD
:103B70001E4B1F491B6800220A7003B11A70164BB6
:103B80003C22DA70F0BC70474022D9795A7462B690
:103B9000E3E70B791C06E5D5164B174E1C783378F6
:103BA000E4B2DBB29C420ED0144D01E0A3420AD035
:103BB0000133402B28BF00230879E85CC0B2C871EC
:103BC000087D0728F2D9DBB2034933700B79180658
:103BD00044BF7C23CB70C5E700A0064008A7FF1FA9
:103BE00009A7FF1F50A7FF1F04A7FF1F94A7FF1FD0
:103BF00090A7FF1F98A7FF1F91A7FF1F0CA7FF1FEC
:103C00002B4A2C491368F0B543F4006313600A781B
:103C1000294F2A4E2A4D2B4C2B490023092A3B7051
:103C200033702B7023700B703DD01A2A21D0274B94
:103C30001B780A2B25D01F2B30D01F2827D8002017
:103C400002460125224B234C1A7023495D70042241
:103C50004FF0020E88273C26402598729A704FF448
:103C6000004083F813E05A751F74DE7025700860F9
:103C7000F0BD1A4B40F213321A60144B1B780A2B1A
:103C8000D9D1174B4FF451721F281A60D7D9C0F3FE
:103C90004432C0F3471500F01F00D3E7114B4FF437
:103CA00051721A60C9E7104B40F213321A60BEE736
:103CB000348004407987FF1F0CA8FF1FA1A7FF1FB6
:103CC00014A8FF1F0DA8FF1FA0A7FF1F7A87FF1FC3
:103CD00000B006402FE400E004E100E004D004401E
:103CE00010B0044000D004400CB00440054A064B1C
:103CF00010781B78C0B2DBB2984238BF4030C01A8F
:103D0000704700BF0CA8FF1FA1A7FF1F30B4154BC1
:103D1000154C1A782378D2B2DBB29A421ED0013306
:103D20003F2B0ED91149124B087819680023C0B2F5
:103D3000237021B1D31A1A2B01DC00230B7030BC85
:103D400070470A480A49C05C0968DDB2C0B22570F4
:103D50000029F4D09A4238BF4032EBE74FF0FF30F1
:103D6000EDE700BF0CA8FF1FA1A7FF1FCCA7FF1FF7
:103D70009CA7FF1FF0B4384B1A7912F0300F2CD0EB
:103D800072B6997D01F0FF0200293DD062B6334F33
:103D9000334938780D78334E1C46C0B2EDB2431C1F
:103DA000402BE17928BF0023AB4202F1FF32C9B2B8
:103DB0001CBFF154184612F0FF02F0D12A4B1B68C9
:103DC000C2B23A704BB1A84236BFC5F14005401BA4
:103DD00040192728C4BF01221A701F49CA78D2B2DD
:103DE000150616D452060DD51B4B1B795B0609D55B
:103DF0001E4B1F491B6800220A7003B11A70164B34
:103E00003C22DA70F0BC70474022D9795A7462B60D
:103E1000E3E70B791C06E5D5164B174E1C78337873
:103E2000E4B2DBB29C420ED0144D01E0A3420AD0B2
:103E30000133282B28BF00230879E85CC0B2C87181
:103E4000087D0728F2D9DBB2034933700B791806D5
:103E500044BF7C23CB70C5E700B006400CA8FF1F11
:103E6000A1A7FF1FCCA7FF1F9CA7FF1F10A8FF1F24
:103E7000A0A7FF1F14A8FF1F0DA8FF1FA4A7FF1FC7
:103E8000431E032B14D872B60A4951F8230068B1B7
:103E900070B4094C058834F81320466841F8236053
:103EA000521B24F8132062B670BC704762B670478C
:103EB0000020704770A8FF1FE4A9FF1F01380328E6
:103EC0000BD872B6074B53F8203043B100205B6823
:103ED0000130002BFBD162B67047002070471846B6
:103EE000F9E700BFC4A8FF1F30B472B62B4A13789D
:103EF0001D0706D52A4B196A002936D0996A002970
:103F000041D053781C0706D5254B196C00293ED0AB
:103F1000996C002939D09378190705D5204B196E73
:103F2000002936D0996E89B1D3781B0707D51C4B71
:103F3000D3F880207AB3D3F8882011213AB162B641
:103F4000184B00221A7030BC00F07EBE0D21154CBB
:103F5000154D227843F8315003EBC1030830013A84
:103F60005860227062B630BC704704220D4C0F4D71
:103F7000217843F8325003EBC20308304A1E5860E0
:103F8000227062B6EFE70521E1E70921DFE70822A9
:103F9000ECE70C22EAE71022E8E700BF2CA10000C2
:103FA0000080FF1FEDA8FF1FC800400088004000F0
:103FB000431E032B1DD81B4A400140F0100030B4B3
:103FC000104472B6184CE25C032A1BD8DFE802F0FA
:103FD0000212151703220D88E25410F0080F14BFC7
:103FE000C823882343EA054308310360416062B671
:103FF00030BC704708300222EDE70522EBE70830BD
:104000000422E8E7094A52F8230038B1084A52F876
:104010002300416042F8231062B6E9E742F823101A
:10402000034AF7E70080FF1FFCA8FF1FC4A8FF1F7B
:10403000D4A8FF1F2DE9F04FDFF80CB3DFF80CA375
:1040400087B044E0AB4F4FEA930807EBC809013E45
:10405000D9F8042003F00803F6B2A2F1080003F037
:10406000FF04002B40F0028157F838301B0C99B246
:1040700022F8081C002B00F0F0809F4B22F8064C21
:1040800042F8044C53F82620002A00F0C5829B4DCC
:1040900055F8263058609A4C45F8260034F816300A
:1040A000194424F8161000F0AFFD002800F0AD828E
:1040B000944A954B19F0080F00F1080018BF1346F9
:1040C000C9F8040047F8383008238BF800309BF813
:1040D0000040E4B261071AD58C4B1B78A3B18C4920
:1040E0000A7802F0FF0322B1013BDBB20B7003B987
:1040F00000BE88490A7802F0FF032AB1013BDBB217
:104100000B70002B00F0578204238BF8003004F072
:10411000080303F0FF02002B00F0CC809AF8003077
:10412000DBB21E098ED19C08DFF8C89159F8342003
:1041300009EBC401C2F38302013A49680C2A00F278
:104140008880DFE802F07C7C8686868686864786C5
:10415000868607000868704D4A68704F704E286068
:1041600081B240F28160674B6A604FF0010E00221D
:10417000814249F834303A60C9F81020C9F8182053
:1041800086F800E05B4C00F2E380B1F5D06F80F080
:104190004683B1F5817F00F0FC8200F28D82802998
:1041A00000F07783822940F0FA82A98801F07F012C
:1041B000042900F2F4825B485B4C890008442270B9
:1041C00062700278930740F1588484F800E04FF061
:1041D000020E42E3514F3A6832B3544B504E5449A9
:1041E000188834780D784028864645F0020828BFA4
:1041F0004FF0400E002C84F001043470CEEB000030
:104200000CBF8824C82409EBC80680B285F00105DC
:1042100044EA0E447260188049F8384072440D70C8
:10422000002800F045813A603B4B1A88B2F5A06F38
:104230000FD100219A7859703E4B1A7009E0364A26
:10424000108842F22102904200F037812D4A49F84D
:104250003420394A0123137036E72A4A2A4B19F0D1
:10426000080F18BF134647F838302DE700F0ECFC74
:10427000324A334952F82630002B00F0D181586879
:104280008C5D42F8260003F10802C9F80420032CD3
:1042900005D8DFE804F02C02292602228A551A8864
:1042A00019F0080F0CBF8823C82343EA024347F8DC
:1042B000383009E7E00700F18181210600F1F28141
:1042C000A20706D51F4A204913780220DBB21370DB
:1042D0000870E30602D51C4B10221A7007B0BDE827
:1042E000F08F04228A55DAE705228A55D7E70322A0
:1042F0008A55D4E70080FF1F70A8FF1F1CA8FF1F6E
:10430000E4A9FF1FC800400088004000F8A8FF1F74
:1043100081A8FF1F00A9FF1FE4A8FF1F18A8FF1F07
:1043200080A8FF1FC0200740F0A8FF1F2CA8FF1F78
:10433000ECA8FF1F9820074094200740C4A8FF1F47
:10434000FCA8FF1F882007408020074090200740DE
:1043500042F22100814200F02A8100F2D880B1F5BA
:10436000086F00F07682B1F5106F40F01882226A73
:10437000B349A8780870120600F13A83D9F82820CA
:10438000B049130600F10C83D9F83020AD49150669
:1043900000F10183D9F83820AA49140600F1F68209
:1043A000D9F84020A749100600F14A83D9F84820DF
:1043B000A449120600F13F83D9F85020A149130601
:1043C00000F13483D9F858209E49150600F129835D
:1043D000D9F860209B49140600F11E83D9F86820A3
:1043E0009849100600F11383D9F8702095491206F8
:1043F00000F10883D9F878209249130600F1FD8274
:10440000D9F880208F49150600F13183D9F888202A
:104410008C49140600F12583D9F8902089491006AB
:1044200000F11983D9F898208649120600F10D830E
:104430008548864A864901908648874D874C04976F
:1044400000230596029580460F4616461D460394A6
:10445000306828B1446800F0F7FB2046002CF9D101
:1044600000233360029B38681A46002342F8253047
:1044700028B1446800F0E8FB2046002CF9D1002266
:104480003A60019A98F800301146002241F8042B56
:10449000039A0191023B4FF0000122F81510032B03
:1044A00000F22B81DFE813F0700125017001250176
:1044B000BEF1400F18BF0022B5E6694A0D78487872
:1044C000157050708D78C8789570D07010680D791F
:1044D000157186284D7989795571917100F09B810C
:1044E0006049614E0A78307882F00105002842F078
:1044F00002020D700CBF8821C82149F8321009EB67
:10450000C20280F001000021307051609EE642F24C
:104510002120814240F0CB81544B554C5549A8781D
:104520001D682560CDF804E00870002002908046E8
:10453000844604464B490D7845F0020E09EBCE0344
:104540000393019B002B039B5C600CBF8824C82451
:1045500044EA080385F0010449F83E3032700C70DB
:10456000DFF8E0E0404BDFF8FC80002840F01E81DF
:10457000BCF1400F1BD144F0020C09EBCC03029CB0
:10458000DFF8C0E05C60002A40F02681020442F0BF
:1045900088029DF804304EF83C20044433700D70BE
:1045A0002346402803D10020334A3B601080334A21
:1045B000012313704DE600F0B3FCA5E5214B2F4815
:1045C00028491A614FF0020E80F800E02C4F0A7063
:1045D0002C49196099602C4E2C4D2D4C9A610D215F
:1045E0003970FF213170DFF8B8E029702270294D51
:1045F000294A8EF800109F27012406F8047C5D608C
:104600000470DA6007B0BDE8F08F244A47F838003C
:1046100013780133137057E543F826000E4D3AE541
:104620008B5D032B00F2F08001A252F823F000BF53
:10463000C9400000C9400000ED460000E746000008
:10464000F8A8FF1F0080FF1FD4A8FF1F70A8FF1F3E
:10465000C4A8FF1FFCA8FF1F1CA8FF1FE4A9FF1F81
:10466000ECA9FF1FECA8FF1F80A8FF1F00A7FF1FDA
:10467000F4A9FF1F10A9FF1F2CA8FF1F94200740BB
:10468000C020074088004000882007408020074065
:104690009820074030A8FF1F84A8FF1FEDA8FF1F28
:1046A0008C200740C149C24B80220D2008701A702F
:1046B000A2077FF50EAE05E640F20232914240F0CD
:1046C000EE80A98801F07F01042968D86A88002A51
:1046D00065D1B648CDF804E089000844017841F07E
:1046E0000201017021E701238B55EDE400238B5576
:1046F000EAE44FF0010388F800300135042D06F19B
:10470000040607F1040708F101087FF4A1AEA94CE3
:10471000A94B2278A94D049F059E002129701A708B
:10472000130700F105816278A549DFF8A0820A70BD
:1047300010074FF00001C9F83010C9F8381000F127
:10474000E080A049A2780A700021C9F85010C9F889
:1047500058101107DFF8748200F10181E2789A495C
:104760009A4C0A7000211207C9F87010C9F8781025
:1047700000F1B08033780193002183F00102C9F881
:104780009010C9F89810D0E64FF0000388F8003078
:10479000B3E7A98801F07F01042940F28D80834AA4
:1047A0000F2313708A4A0123137052E540287FF6C5
:1047B000E2AE44F002040EEBC401029E4E60BAB1B8
:1047C0009DF80410834A19703346403888F8005029
:1047D00040334EF83420E7E69DF80430337002048D
:1047E000029B0D7042F0C80203444EF83C20D8E60C
:1047F0009DF804101970029B774A88F800504038E1
:1048000040334EF83420CFE619F0080F0CBF0223D6
:1048100003238B5558E4714A0F21117060E6704AEA
:104820005468002CBBD06888B5F804E003E00C3273
:104830005468002CB3D013888342F8D15388734551
:10484000F5D1000A03280CBF94F800E0B2F808E0A4
:1048500003E0644A644C12782270E888704580F066
:104860003F8162490D784028844645F0020E28BFFA
:104870004FF0400C04EB0C0309EBCE020293012332
:104880005460CCEB00004FEA0C4800220193C8248E
:104890005EE6554C4FF0020E22706270DDE7B1F516
:1048A000A06F7FF47CAF0123002201933DE642F22A
:1048B00021329142F7D072E76A88002A7FF46FAF05
:1048C0003A48CDF804E089000844017821F002015B
:1048D00001702AE600F098F9002800F0EF80083017
:1048E0003D4AC4F88400C4F8802000F08DF9002807
:1048F00000F0DE800830374AC9F88C00C9F88820FB
:1049000038E700F081F9002800F0C0800830324A12
:10491000C8F84400C8F8402000F076F9002800F0FC
:10492000AF8008302B4AC9F84C00C9F8482008E786
:1049300000F06AF9002800F0CD800830264AC9F856
:104940002400C9F8202000F05FF9002800F0BC80A6
:104950000830204AC9F82C00C9F82820E3E600F006
:1049600053F9002800F09E8008301B4AC8F8640004
:10497000C8F8602000F048F9002800F08D80083069
:10498000144AC9F86C00C9F86820E7E6C86B083813
:1049900000F05AF904E5486B083800F055F9F9E4DD
:1049A000C86A083800F050F9EEE400BFC0200740A4
:1049B000802007402CA10000C4200740EDA8FF1F65
:1049C000C8200740CC200740D02007400080FF1FB0
:1049D00094200740C80040008800400081A8FF1FC5
:1049E00030A10000F8A8FF1FF0A8FF1FECA8FF1FD0
:1049F000606A083800F028F9C0E4C86F083800F091
:104A000023F9FDE4486F083800F01EF9F2E4C86E9F
:104A1000083800F019F9E7E4486E083800F014F996
:104A2000DCE4C86D083800F00FF9D1E4486D0838AF
:104A300000F00AF9C6E4C86C083800F005F9BBE4D8
:104A4000486C083800F000F9B0E4D1F89C00083850
:104A500000F0FAF8ECE4D1F89400083800F0F4F82B
:104A6000E0E4D1F88C00083800F0EEF8D4E4D1F896
:104A70008400083800F0E8F8C8E44FF0020EECE6D5
:104A80002A78C9F8480001322A705AE62A78C8F80C
:104A9000400001322A703FE72A78C9F868000132E5
:104AA0002A705BE62A78C8F8600001322A7061E754
:104AB0002A78C9F8880001322A705BE62A78C4F89F
:104AC000800001322A7010E72A78C9F828000132E4
:104AD0002A7028E62A78C9F8200001322A7032E7C5
:104AE000BEF1400FF44628BF4FF0400C04EB0C031E
:104AF00002930123CCEB0E004FEA0C4800220193F5
:104B000018E500BFF8B500F067FC294B29482A4C8E
:104B10002A4F2B4DDFF8BCC0DFF8BCE0294E002245
:104B20001A605A609A60DA601A615A619A61DA61B1
:104B30001A625A629A62DA621A635A639A63DA6391
:104B40001A645A649A64DA641A655A659A65DA6571
:104B50001A665A669A66DA661A675A679A67DA6751
:104B6000C3F880200168C3F8842041F480210160EB
:104B7000C3F307212170C3F30740134938701B0E9C
:104B80002B70FF238CF80030104D8EF80030104849
:104B90000B700123337084F8642070264FF4007486
:104BA000102207F82C3C2E70046081F8F820F8BD24
:104BB0000080FF1F348004409C200740B020074045
:104BC000B4200740942007401020074049E400E04B
:104BD00008E100E0802007408820074000F0A4B8EA
:104BE00000F07CB800F056B800F090B800F06CB956
:104BF00000F046B90846114600F0B2B8084600F089
:104C000033B900BF704700BF72B60D480268B2FAF0
:104C100082F30B2B10DC4FF00041D94022EA010255
:104C2000026062B6074803EBC303DB00C218002131
:104C3000C15010465160704762B60020704700BFF7
:104C40008C87FF1FBC83FF1F0D4B0E4AC31AA2FBAC
:104C500003231B090B2B0CD80B4A127852B972B6DE
:104C60000A484FF00041026821FA03F31A43026038
:104C700062B67047064A1278002AF0D0FFF734B9BE
:104C8000BC83FF1F398EE338EDA8FF1F8C87FF1F01
:104C9000F8A8FF1F38B50F4D286878B143880288FF
:104CA000C118013393420C7A02D24380204638BDAA
:104CB000FFF7CAFF002320462B6038BD064B1B7848
:104CC0002BB10320FFF7DCF828600028E6D14FF075
:104CD000FF3038BD0CA9FF1FF8A8FF1F10B5094C05
:104CE000206818B143881844007A10BD064B1B7821
:104CF0002BB10320FFF7C4F820600028F2D14FF059
:104D0000FF3010BD0CA9FF1FF8A8FF1F044B054A78
:104D10001B6890881BB11A885B88D31A18447047A7
:104D20000CA9FF1FE4A9FF1F0B4B1B789BB110B50B
:104D30000A4C206848B1FFF787FF00230320236057
:104D4000FFF79EF830B1FFF77FFF0320FFF798F8D9
:104D50000028F8D110BD7047F8A8FF1F0CA9FF1F4D
:104D60002DE9F04FDFF8F89083B0012289F8002098
:104D7000019169B3DFF8EC80364F019E8346D8F885
:104D80000000B0B3344D4488C4F14001B14228BFA3
:104D9000314604EB010E00221FFA8EFE2A70761AAD
:104DA000A0F802E000F1080251B1013C224459444C
:104DB0001BF8014B02F8014F8B45F9D1B0F802E026
:104DC000BEF13F0F0BD8254A05211170002ED6D118
:104DD0000198002389F8003003B0BDE8F08F40222D
:104DE000028001460420FFF7E3F80022C8F8002003
:104DF000E9E73A782AB3184D4AF2F9244FF0010A4C
:104E000007E0013C16D02A78A2B900F0ADF83A7854
:104E1000BAB10420FFF752F80728F2D889F800A0A9
:104E2000FFF7F2FEC8F800000028ACD10C4B013CA3
:104E30001870E8D101234FF0FF302B7003B0BDE8AC
:104E4000F08F00234FF0FF3089F8003003B0BDE849
:104E5000F08F00BFF8A8FF1F08A9FF1F00A9FF1FC0
:104E600001A9FF1F04A9FF1F00B583B002AB0121F8
:104E700003F8010D1846FFF773FF03B05DF804FB5C
:104E800038B50E4D0E4C28680123237028B1408898
:104E900000232370C0F1400038BD0A4B1B7813B9C2
:104EA0000020207038BD0420FFF708F80728F7D845
:104EB000FFF7AAFE28600028E9D1F1E704A9FF1F47
:104EC00001A9FF1FF8A8FF1FF8B5114B1B788BB184
:104ED000104E114D346801272F7064B10F4A63885A
:104EE00000271770214623800420FFF761F8376000
:104EF00000232B70F8BDFFF787FE084B28B1014651
:104F000004201C70FFF754F8F2E71F70F0E700BFB1
:104F1000F8A8FF1F04A9FF1F01A9FF1F00A9FF1F79
:104F200038B50E4B1B7873B90D4C216861B103F095
:104F3000FF054B880B800420FFF73AF8256038BD49
:104F4000084B01221A7038BDFFF75EFE0028F7D02B
:104F50000146BDE838400420FFF72AB801A9FF1F29
:104F600004A9FF1F00A9FF1F38B5224C237803B105
:104F700038BD01232370FFF7C9FE70BBFEF776FD35
:104F800040BBFEF7B3FE10BB00F0AAF9E0B9002366
:104F90002370EFF30583002BEAD1EFF3108172B693
:104FA000154B1868E0B1154C2278CAB945691D60E7
:104FB00001232370C5B1AA6101B962B60025457706
:104FC000836898472570D3E700F018F9DFE700F011
:104FD00013F9D9E700F00EF9D3E7FFF713FECDE799
:104FE0000029C5D162B638BD054B1D600029E5D149
:104FF000E3E700BF11A9FF1F24A9FF1F28A9FF1F76
:1050000020A9FF1F10B4EFF3108272B6437F33B9AB
:10501000017F012907D003290FD00123437702B96B
:1050200062B610BC7047124C2168A1B111494361AE
:105030000B68836108605861EFE70F4C216881B10C
:105040000E4943610B688361086058610C4B4FF057
:1050500080511960E1E7074B416181612060186070
:10506000DBE7064B4161816120601860EEE700BF1D
:1050700024A9FF1F20A9FF1F14A9FF1F18A9FF1FA4
:1050800004ED00E010B4047F4160022CC26002D045
:1050900010BCFFF7B7BF836810BC184770B5EFF3BB
:1050A000108272B60C4C206880B10C4E002543690A
:1050B000236073B19D6102B962B6457783689847F2
:1050C000EFF3108272B620680028F0D102B962B600
:1050D00070BD3360EFE700BF14A9FF1F18A9FF1FC1
:1050E000FFF7DCBF184A30B41468002C27D00368DF
:1050F00021688B420ED2CB1A00218460C1602360EC
:10510000E06010600223037530BC704711688B4269
:10511000144608D3A2685B1A0360002AF6D18260A5
:10512000C460A060EEE7D268C2608460E060C568D9
:10513000CB1A0222A8602360027530BC70478460DD
:10514000C4601060DEE700BF1CA9FF1FF8B5224E47
:1051500034682CB32368002B3AD1204F1D4604E05D
:105160003468ECB12368002B32D1A36803B1DD6051
:1051700020693360036825751B68BB4221D1037F1A
:105180004560022BC46020D0FFF73CFF6368002B12
:10519000E6D023602046FFF7A5FF3468002CE1D15C
:1051A000EFF3108372B60E4A00211068116003B944
:1051B00062B628B18468FFF795FF20460028F9D130
:1051C000F8BD224600219847E0E783689847DDE76D
:1051D000013B2360E4E700BF1CA9FF1F85500000CE
:1051E0002CA9FF1F024A136801331360FFF7AEBFFB
:1051F00000A7FF1F704700BF704700BF704700BF88
:1052000030B42948294A2A4B2A4D6024E1210470F0
:1052100011701B78284C082B30D00A2B27482849BE
:1052200037D00C2B0CBF35223D2212232A6023607D
:1052300002600B60234B24491B78244ABBB1012335
:105240000B601360224B23491B78234A012B26D97C
:10525000042B0FD9082B1ED9102B94BF862387232C
:105260000B6013601D4B01221A7030BC70470B603D
:105270001360E7E784230B601360F3E700F58E20EB
:105280000F490830012213232A60236002600B605B
:10529000D0E73922F7E785230B601360E2E780232C
:1052A0000B601360DEE700BF00400740014007408D
:1052B0009087FF1F08B003400CB0034008B00B40BC
:1052C0000CB00B4031A9FF1F20B0034020B00B40B1
:1052D0009187FF1F24B0034024B00B4030A9FF1F6B
:1052E000054A064B10781B78C0B2DBB2984238BF33
:1052F0004030C01A704700BF38A9FF1F39A9FF1FEF
:1053000030B42B4B1A7994061FD52A48DA790378E2
:10531000294901333F2B0978C8BF00238B42D2B201
:1053200003D0264CD9B2E2540170254A116861B10C
:10533000244A1278D2B2934236BFC2F140029B1A7D
:105340009B18272BC4BF01230B70194AD378DBB2FB
:10535000180611D45A060DD5154B1B795B0609D5D5
:10536000194B1A491B6800220A7003B11A70104BBE
:105370002C22DA7030BC704711790906EAD514493D
:1053800010480C780178C9B28C420DD04A1C272AEB
:1053900084BF00210A460F4D054C98BFD1B2AA5CCC
:1053A000D2B2E2710170D5E76C21D170D2E700BFB3
:1053B00000C0064038A9FF1F39A9FF1F64A9FF1FBD
:1053C00034A9FF1FA5A9FF1FA8A9FF1FA4A9FF1F9C
:1053D000ACA9FF1F3CA9FF1F70B584B072B6194B72
:1053E000194D1A48702241260F2480211A702E7000
:1053F0001A460470197013781B06FCD5144B1868F4
:1054000062B6144B144C984298BF00EB800001A97F
:1054100098BF40000A22FEF7F7F801A920460023B2
:1054200011F8012B01333AB10A2B20F8022FF7D1E2
:105430001623237004B070BD5B00DBB2237004B090
:1054400070BD00BF0000024007000240060002409D
:10545000080002407F9698002088FF1F30B5224A3E
:1054600021F00043934287B01BDD204A934205DDC3
:1054700002460B4601F0CEFF07B030BD02AA00F095
:1054800053FC00F00303012B1AD0022B0FD01BB3E7
:105490000124DDE90423DDE90201009401F044FC6C
:1054A000EAE70022002300F023FF07B030BDDDE96A
:1054B0000423DDE9020100F01BFF01F10041DBE7FD
:1054C000DDE904450093DDE9020122462B4601F0A7
:1054D0002BFC01F10041CFE7DDE90423DDE9020106
:1054E00000F006FFC8E700BFFB21E93FFFFFEF7FA9
:1054F00030B51F4A21F00043934287B01BDD1D4A9F
:10550000934205DD02460B4601F084FF07B030BD33
:1055100002AA00F009FC00F003000128DDE90423E1
:105520001AD002280FD0E0B1DDE9020100F0E0FE60
:1055300001F10041EAE7002300930022002301F07B
:10554000F3FB07B030BD0124DDE90201009401F056
:10555000EBFB01F10041D9E7DDE9020100F0C8FEF3
:10556000D4E70124DDE90201009401F0DDFBCDE781
:10557000FB21E93FFFFFEF7F08B5C0F3C7537F3B37
:10558000162B01460EDC002B024610DB0B4818419F
:10559000014205D04FF480011941114421EA000174
:1055A000084608BD802BFBD102F016FC08BD013374
:1055B00000F00041F4D141F07E51F1E7FFFF7F00A0
:1055C0002DE9F043DFF8A4808BB004460D4600F0CF
:1055D000AFF898F90030013306460F462ED0224628
:1055E0002B462046294602F063FB814630BB20460D
:1055F000294601F0EFFD0022194B02F04FFBE8B104
:10560000184B1948CDF8209001228DE80C00CDE907
:105610000445CDE9024501F06DFE98F90030022BFA
:10562000CDE906010FD0684601F062FE58B1089B33
:1056300083B9DDE906010BB0BDE8F0833046394699
:105640000BB0BDE8F08302F0E7FE21230360089B66
:10565000002BEED002F0E0FE089B0360E9E700BFFC
:105660000000F03F84A10000749100003688FF1F05
:1056700000F08EBA2DE9F04F8BB004460D4600F0D5
:1056800075FD284B93F900A0BAF1FF3F06460F467F
:1056900012D022462B462046294602F009FB8346BB
:1056A00050B94FF000084FF0000942464B462046E3
:1056B000294602F0D5FA20B9304639460BB0BDE88C
:1056C000F08F194BCDF820B00122CDE90445CDE98A
:1056D00002458DE80C00BAF1000F15D042464B464A
:1056E0004046494602F074F9BAF1020FCDE90601CD
:1056F0000CD102F091FE21230360089B63B9DDE920
:1057000006010BB0BDE8F08FCDE90689684601F0CF
:10571000EFFD0028F1D1ECE702F07EFE089B03606C
:10572000EDE700BF3688FF1F8CA10000FFFFFFFFE1
:105730002DE9F047C04B21F00048984584B00D4654
:10574000044614DD08F1404808F58018034658EA7D
:10575000030323D002460B4601F05CFE02460B46D3
:1057600002F036F90446204604B0BDE8F087B34B9A
:1057700098458A462BDCB8F1795F80F2678192A365
:10578000D3E9002301F048FE0022AD4B02F086FA77
:10579000E8B12946204604B0BDE8F0878CA3D3E9E0
:1057A000002301F0EBFF8CA3D3E9002306460F464C
:1057B0002046294601F0E2FF02460B4630463946B4
:1057C00001F02AFE0446204604B0BDE8F0872046DA
:1057D000294601F0FFFC02460B460020984901F0E3
:1057E00019FE0022974B01F0C9FF7DA3D3E90023E6
:1057F00004460D4601F0C2FF7BA3D3E9002301F06C
:105800000BFE22462B4601F0B9FF79A3D3E9002312
:1058100001F000FE22462B4601F0B0FF76A3D3E94B
:10582000002301F0F9FD22462B4601F0A7FF74A3E7
:10583000D3E9002301F0EEFD22462B4601F09EFF46
:1058400071A3D3E9002301F0E7FD22462B4601F0C6
:1058500095FF6FA3D3E90023CDE900012046294637
:1058600001F08CFF6CA3D3E9002301F0D3FD2246A5
:105870002B4601F083FF6AA3D3E9002301F0CCFD9E
:1058800022462B4601F07AFF67A3D3E9002301F0FB
:10589000C1FD22462B4601F071FF694B002201F049
:1058A000BBFDCDE902012046294600F05FFC664BB6
:1058B000984506460F4666DCDDE90223DDE9000176
:1058C00002F086F83246CDE900013B4630463946C3
:1058D00001F0A2FD02460B46DDE9000101F04EFF9A
:1058E0004FF00008CDE9000142463B4640463946AC
:1058F00001F044FF02460B462046294601F08AFD8E
:10590000424604460D463B463046394601F084FD8A
:1059100002460B462046294602F05AF802460B463C
:1059200001F07AFD02460B462BA1D1E9000101F0FE
:1059300071FD02460B46DDE9000101F06BFD4246B8
:1059400004460D463B464046394601F065FD024699
:105950000B4637A1D1E9000101F05CFD02460B4680
:105960002046294601F056FD02460B4630A1D1E9FA
:10597000000101F04FFD0446BAF1000F3FF7F3AE0E
:1059800001F10041EFE6DDE90223DDE9000102F06B
:105990001FF832463B4601F0F1FE32463B4601F02D
:1059A0003BFD02460B4601F037FD0BA3D3E9002374
:1059B00001F030FD02460B4605A1D1E9000101F0DE
:1059C00029FD0446D8E700BF9C7500883CE4377E7B
:1059D000182D4454FB21F93F075C143326A6913C53
:1059E00009F7FD0DE13D023F88B20175E0EF493F47
:1059F0003B8F68B52882A43F5544880E55C1C93FE6
:105A00007D6FEB0312D6D43F555555555555C53FBF
:105A100082922EB1C5B8B33F59018D1B6C06E63F8B
:105A2000C88A599CE52A00404B2D8A1C273A03401E
:105A3000182D4454FB21E93FFFFFEF3FFFFFDF3FFD
:105A40000000F03F0000E03F3233EF3F02460B46DC
:105A500001F094FE38A3D3E9002306460F4601F077
:105A60008DFE37A3D3E9002301F0D6FC32463B4636
:105A700001F084FE34A3D3E9002301F0CBFC3246CD
:105A80003B4601F07BFE32A3D3E9002301F0C4FCC6
:105A900032463B4601F072FE2FA3D3E9002301F00A
:105AA000B9FC32463B4601F069FE2DA3D3E9002341
:105AB00001F0B2FC32463B4601F060FE2AA3D3E976
:105AC0000023804689463046394601F057FE28A318
:105AD000D3E9002301F09EFC32463B4601F04EFE26
