:1000000000800020BD01000041630000F962000093
:10001000F9620000F9620000F9620000F962000074
:10002000F9620000F9620000F9620000416300001B
:1000300041630000F9620000F97E0000FD7F0000CE
:100040004163000041630000416300004163000020
:100050004163000041630000416300004163000010
:100060004163000041630000416300004163000000
:1000700041630000416300004163000041630000F0
:1000800041630000416300004163000041630000E0
:1000900041630000416300004163000041630000D0
:1000A00041630000416300004163000041630000C0
:1000B00041630000416300004163000041630000B0
:1000C00041630000416300004163000041630000A0
:1000D0004163000041630000416300004163000090
:1000E0004163000041630000416300004163000080
:1000F0004163000045680000416300008D6B000013
:100100004163000019810000416300004163000069
:10011000416300004163000041630000416300004F
:10012000416300004163000041630000416300003F
:10013000416300004163000041630000416300002F
:10014000416300004163000041630000416300001F
:10015000416300004163000041630000416300000F
:10016000416300004D6E00004163000041630000E8
:1001700041630000416300004163000041630000EF
:1001800041630000416300004163000041630000DF
:1001900041630000416300004163000041630000CF
:1001A00041630000416300004163000041630000BF
:1001B000416300004163000041630000564B4CF274
:1001C000205210B51A804DF628121A8000BF00BFC9
:1001D00006F0BAF8514B4FF010621A60504A9A601C
:1001E000504ADA60504A136813F4807304D14F49BF
:1001F0000B604FF4A85313604D4B1A78110703D5C9
:100200001A7842F008021A704A4B4B492A221A7097
:100210004A4A4B4B8B4204D252F8040F43F8040B6A
:10022000F8E7484B484900228B4202D243F8042B9E
:10023000FAE74649464A002352F8230041F82300D2
:1002400001336F2BF8D1434B434A802103F8011B44
:100250009342FBD1414B3D4A1A60414B8A221A70AE
:10026000A3F5805324225A70A0221A709A7992071B
:10027000FCD59A79D406FCD43A4A937903F00C035E
:10028000082B384BF9D103221A7140225A719A79FE
:100290009006FCD5334A9179324B4906FBD5324A58
:1002A000324911600221516020221A709A7902F0BD
:1002B0000C020C2AFAD12E4B2E4A1A602E4B2F4AD2
:1002C0001A6000225A60072243F8042C2C4AC3F813
:1002D0000C2D62B606F064F9144B1B68DA0705D5DD
:1002E000284806F0F1F8284B284A1A60284B1B785A
:1002F0005B0609D5244C254B22689A4204D121483B
:1003000006F0E2F8002323600BF0AAF806F022F8CA
:1003100005F050FFFEE700BF0E200540308004408E
:10032000823F04000100002B10D0034014D0034092
:1003300002D0074000E007407490FF1F4CE500002A
:100340002087FF1F7490FF1FF4B3FF1F0082FF1F61
:100350000000000000E400E05FE400E008ED00E0E1
:100360000050064000400640448004400000030165
:1003700004800440C010050014E000E0FF76010096
:100380000000202059CBD65B1CE00340A5C3945A43
:1003900000F00740FFFFFFFFFFFFFFFFFFFFFFFF32
:1003A000FFFFFFFFFFFFFFFFFFFFFFFFFFFFFFFF5D
:1003B000FFFFFFFFFFFFFFFFFFFFFFFFFFFFFFFF4D
:1003C000FFFFFFFFFFFFFFFFFFFFFFFFFFFFFFFF3D
:1003D000FFFFFFFFFFFFFFFFFFFFFFFFFFFFFFFF2D
:1003E000FFFFFFFFFFFFFFFFFFFFFFFFFFFFFFFF1D
:1003F000FFFFFFFFFFFFFFFFFFFFFFFFFFFFFFFF0D
:10040000FFFFFFFFFFFFFFFFFFFFFFFFDEF9FFFF23
:1004100010B5054C237833B9044B13B10448AFF33E
:1004200000800123237010BD7490FF1F00000000A6
:1004300050E50000084B10B51BB108490848AFF360
:1004400000800848036803B910BD074B002BFBD0A0
:10045000BDE81040184700BF000000007890FF1F63
:1004600050E500007490FF1F00000000704700BFBF
:10047000704700BF044B05491A68137843F0200306
:1004800013700870704700BF2CAFFF1FF4B0FF1F40
:1004900070B5044608460D460BF0B2FF23680246CD
:1004A000294620465B68BDE870401847F0B540F625
:1004B000055085B006F036F92F4A304B30491160AF
:1004C0001025A0229D7140F605509A705D7106F0CE
:1004D0003FFA2C4B2C491A680392039E1A68029229
:1004E000029F1A6801920198284A1B680093284CC1
:1004F000284B0E6017602849284A009F284E186034
:1005000027600023274C138040F6C41033700B7013
:1005100005F0F8FF0E21244807F02EFB204605F0D9
:10052000A9FC2946214807F027FB0A21204807F0AB
:1005300023FB204605F09EFC0B211E4807F01CFB08
:10054000204605F097FC44211B4807F015FB204688
:1005500005F090FC1921194807F00EFB204605F024
:1005600089FC01210D2005F0C7FF154B01211878EA
:1005700005F0C2FF05B0F0BD2CAFFF1F00A0064084
:1005800006A00640F8B0FF1F2CA2FF1F00A2FF1F0D
:100590005096FF1F14AFFF1FF5A1FF1FA4A2FF1F5E
:1005A00098AEFF1F7C87FF1FA8C80000B8C80000D6
:1005B000CCC80000D8C80000E4C800002CC9000066
:1005C0007087FF1F2DE9F04FADF2844D06F09AFAC7
:1005D000002835D006F0A6FAAC4BC1B20391DB7807
:1005E000AA4900220A700F2B00F2E781DFE813F01E
:1005F000730173015601A5018F01B1019D0017011F
:10060000F700D700B3002D0152002C002C00100081
:100610009E4B9F4A5B7B049211465E1E9B4ACB1AFF
:10062000F6B29DF80C10567383F82311002E00F0DB
:100630007782964A0023937006F064FA0028C9D1A5
:100640000DF2844DBDE8F08F0E2B914B049305D035
:100650001B88039AB2EB132F00F0A8868B4A022363
:100660001370049A9DF80C10137982F8151113F089
:10067000010F874A854B00F0EA8184491B780F22DD
:10068000CA70022B4FF00D024A7300F07D810023E7
:100690000B70CEE77E4B04939D687E4EE620C5F33B
:1006A00017250346942200210AE0581E43185A1CBD
:1006B0005208884202EB420240F2C38156F82220DF
:1006C000013395424FEA5303EFD31946EED89542D2
:1006D00000F0B08100210B46049D2888434083EA46
:1006E0000313DBB2DA0082EA032282EA102282EAF2
:1006F0001313DAB22B80039B9A4200F04A86634BB5
:100700000E22DA70049B9DF80C2083F81421002936
:100710008FD05E4B4A791B7993428AD25E48D21AB7
:10072000184400210BF022FA83E7594B19881D4623
:100730001846039BC3714B4083EA0313DBB2DA0014
:1007400082EA032282EA112282EA13132B804F4BA2
:100750000722DA706DE74E4B039A1D886A4082EAE1
:100760000212D2B2D1001E4681EA02219B68000427
:1007700000F47F0081EA152140EA132381EA121276
:10078000F1787372C3F307201B0CB072F3723280DE
:10079000002900F0A7813D4A0B23D37049E73C4B69
:1007A0009D681E881F46039B734083EA0313DBB2D8
:1007B000DA0082EA032282EA1622000282EA131396
:1007C00000F47F4040EA15213B80304B7972C1F341
:1007D0000725080C0A22BD72F872DA7029E72C4945
:1007E0002A4B08881D7B039B4B72434083EA03130B
:1007F000DBB2DA0082EA032282EA102282EA1313D1
:100800000020EA070B808872C872204B40F16E818D
:10081000CA78002A00F06D810B22DA7009E71C4BC0
:1008200019881D461846039B03724B4083EA031345
:10083000DBB2DA0082EA032282EA112282EA13138F
:100840002B80124B0822DA70F3E6104B039F1A79C3
:100850000F4B0E4D1E46134401321F7330883B462A
:10086000434083EA0313DBB2D90081EA032181EA22
:100870001021F078D2B281EA131382422A713380B8
:100880007FF4D7AE0C23EB70D3E600BF34A2FF1F7A
:100890008891FF1F8CD600009491FF1F9A499B4BB3
:1008A00008881D7B039BCB70434083EA0313DBB2B4
:1008B000DA0082EA032282EA102282EA13130B8012
:1008C000924B0022E8071A7140F1098105200A7154
:1008D0004A71D870ADE6039BFD2B00F05F85039B4A
:1008E000FE2B7FF4A6AE894B874A1B7B104643F054
:1008F000010386499DF80C500B734FF6FF720023DD
:100900000280824AC37002238570D37091E67E4BC9
:1009100019881D461846039B43714B4083EA031315
:10092000DBB2DA0082EA032282EA112282EA13139E
:100930002B80764B0522DA707BE673499DF80C30EC
:100940000B7110F0FE0F00F0B880704A0123D370D5
:100950006FE66D4B19881D461846039B83714B400B
:1009600083EA0313DBB2DA0082EA032282EA11226D
:1009700082EA13132B80654B0622DA7059E6634A2C
:100980000023022E93701ED1049A92F8154192F81A
:10099000143143EA042403985C4901230022FD2812
:1009A0008B700A7001D0CB7010E6049E02204FF6C7
:1009B000FF73F270C870338008E6534B0493DD7800
:1009C000524B00269E70B31E012BE4D9002E3FF43B
:1009D000FDAD4F4EB6F8687B0A2F66D08EA940F267
:1009E0002312D7A8ADF838428DF83B5205F0EAFB48
:1009F000D6F8643BADF85C4303F2231306F65E328F
:100A00009342C6F8643B08BF334640F22312D7A98D
:100A1000184608BFC6F8646B8DF85F5305F0D2FB2B
:100A20007A1CA6F8682B3A4A002F7FF4CFADC2F8A3
:100A3000600BCBE5374B01EB410103EB81010B79F7
:100A40004AE6344B01EB410253F822203FE61B6992
:100A500043B11B6B002B4FD091682C48090A984773
:100A6000002849D0294B1E7828482749012340F205
:100A70002312C3708EA805F0A5FB049A1488D578BC
:100A8000012E7FF47CAF214B049A20491B89927977
:100A90004A7103B94B811E4E1C49B6F8687B01337D
:100AA00000220A2F0B818A7098D126211A4807F05C
:100AB00063F81A4805F0DEF988E50888039B43408F
:100AC00083EA0313DBB2DA0082EA032282EA10220D
:100AD00082EA13130B800D4B0422DA70A9E503227E
:100AE000DA70A6E5094A0C23D370A2E50922DA7070
:100AF0009FE50C22DA709CE5044B1E78022EB3D0E1
:100B000003261E70B0E700BF8891FF1F34A2FF1FAD
:100B10005896FF1F8CD6000048C900007C87FF1F35
:100B20001369526910931C461192002B00F06E84D9
:100B300054F8100F884D3795884D6168A268E368B6
:100B4000874F3895874D3D953A97DFF834E2864FC9
:100B5000DFF830C23C973EADCDF8ECC0CDF8E4E014
:100B60000FC5824B2069DA786169E36907921746FD
:100B7000A26935963C460A340FC57C4B0594E400C7
:100B800004F580747A4E349402333696069320240A
:100B900003E0059B002B00F0D080059D069EC4F16C
:100BA0004003AB4228BF2B46ED1A05953EA83546BB
:100BB00020441D441C441A463146069505F002FBAC
:100BC000402CE6D134AA22AB92F82B0092F82A10DE
:100BD0001870597092F8290092F82810D9709870FE
:100BE00032A90433994202F10402EDD1369B0893F5
:100BF000379B0993389B0A93399B0B933A9B0C9331
:100C00003B9B0D933C9B0E930DF59A7A3D9B0F9366
:100C1000524621AB53F8041F42F8041F31A98B42FE
:100C2000F8D10DF5B6780DF5AC7C0DF59C7E5DAF79
:100C30005646302558F8044F5EF8043F56F8042F06
:100C40005CF8041F4FEAF440114480EA74404FEA14
:100C5000B34280EA942082EAF312014482EAD30389
:100C60000B44013D47F8043FE4D1424B0F9ADFF8B3
:100C70001891DDF82CB0DDF824E00A9F089EDDF81D
:100C800038C0DDF8348001920C9D02930BE0CDF862
:100C900004C0C446A8461D4659F8043F0293BB460B
:100CA0007746B64606464FEAF52205EA080182EA8B
:100CB000B5122CEA050482EA75624C405AF8041F0A
:100CC000019B144487EA0E0221444FEA763002EA7F
:100CD000060407EA0E0219445440029B264A80EAA1
:100CE000B60080EAB650194420444A4501EB0B0394
:100CF0000844CCD10B99089A39440F460C9939977E
:100D000019440B460D993A930244294414460D4662
:100D1000099A0E99059B369432444144164608467A
:100D20000A9A0F9937967244614438923B953C90E9
:100D30003D910024002B7FF430AF349C04F110036C
:100D40009C42349300F26D830C4B06930223C4F350
:100D5000C50405931EE000BF85AE67BB72F36E3C11
:100D60007F520E5119CDE05BABD9831F8891FF1FD5
:100D700067E6096A982F8A4288D600009C92FF1F76
:100D80003AF54FA58C68059B8CD50000059B002B80
:100D900000F0D080059D069EC4F14003AB4228BF01
:100DA0002B46ED1A05953EA8354620441D441C44AB
:100DB0001A463146069505F005FA402CE6D134AACC
:100DC00022AB92F82B0092F82A101870597092F802
:100DD000290092F82810D970987032A904339942EA
:100DE00002F10402EDD1369B0893379B0993389B9F
:100DF0000A93399B0B933A9B0C933B9B0D933C9B23
:100E00000E930DF59A7A3D9B0F93524621AB53F802
:100E1000041F42F8041F31A98B42F8D10DF5B678B2
:100E20000DF5AC7C0DF59C7E5DAF5646302558F82F
:100E3000044F5EF8043F56F8042F5CF8041F4FEA95
:100E4000F440114480EA74404FEAB34280EA9420AF
:100E500082EAF312014482EAD3030B44013D47F8CE
:100E6000043FE4D1BD4B0F9ADFF8FC92DDF82CB0C3
:100E7000DDF824E00A9F089EDDF838C0DDF83480F4
:100E800001920C9D02930BE0CDF804C0C446A84625
:100E90001D4659F8043F0293BB467746B6460646C0
:100EA0004FEAF52205EA080182EAB5122CEA0504A8
:100EB00082EA75624C405AF8041F019B144487EA89
:100EC0000E0221444FEA763002EA060407EA0E02D7
:100ED00019445440029BA24A80EAB60080EAB65008
:100EE000194420444A4501EB0B030844CCD10B992B
:100EF000089A39440F460C99399719440B460D99B5
:100F00003A930244294414460D46099A0E99059BCA
:100F1000369432444144164608460A9A0F99379649
:100F20007244614438923B953C903D910024002BE3
:100F30007FF430AF349C04F138039C42349300F2C8
:100F40006C82884B06930723C4F3C504059303E022
:100F5000059B002B00F0D080059D069EC4F1400348
:100F6000AB4228BF2B46ED1A05953EA835462044D6
:100F70001D441C441A463146069505F023F9402CC1
:100F8000E6D134AA22AB92F82B0092F82A101870FE
:100F9000597092F8290092F82810D970987032A9E7
:100FA0000433994202F10402EDD1369B0893379B3A
:100FB0000993389B0A93399B0B933A9B0C933B9B69
:100FC0000D933C9B0E930DF59A7A3D9B0F935246E1
:100FD00021AB53F8041F42F8041F31A98B42F8D10A
:100FE0000DF5B6780DF5AC7C0DF59C7E5DAF5646E3
:100FF000302558F8044F5EF8043F56F8042F5CF88B
:10100000041F4FEAF440114480EA74404FEAB342AF
:1010100080EA942082EAF312014482EAD3030B446B
:10102000013D47F8043FE4D14C4B0F9ADFF838916B
:10103000DDF82CB0DDF824E00A9F089EDDF838C00A
:10104000DDF8348001920C9D02930BE0CDF804C0D2
:10105000C446A8461D4659F8043F0293BB4677464E
:10106000B64606464FEAF52205EA080182EAB512BD
:101070002CEA050482EA75624C405AF8041F019B71
:10108000144487EA0E0221444FEA763002EA06044D
:1010900007EA0E0219445440029B314A80EAB60026
:1010A00080EAB650194420444A4501EB0B0308443A
:1010B000CCD10B99089A39440F460C9939971944A9
:1010C0000B460D993A930244294414460D46099A59
:1010D0000E99059B369432444144164608460A9AB6
:1010E0000F9937967244614438923B953C903D91FC
:1010F0000024002B7FF430AF349D0599C5F3C5045F
:10110000C4F177068023472206F03F060DF18900DF
:101110008DF888300AF02AFD06F109021046059282
:1011200022AA1644359B33712A0AF2712A0E727173
:101130001A0C290CB27005EBC0029542B1714FEA4E
:101140001321F1704FEA136184BF0133359322AB51
:1011500035727170349206930CE000BF982F8A426A
:1011600088D600009E92FF1F8CD50000059B002BA7
:1011700000F0D080059D069EC4F14003AB4228BF1D
:101180002B46ED1A05953EA8354620441D441C44C7
:101190001A463146069505F015F8402CE6D134AADA
:1011A00012AB92F82B0092F82A101870597092F82E
:1011B000290092F82810D970987022A90433994216
:1011C00002F10402EDD1369B0893379B0993389BBB
:1011D0000A93399B0B933A9B0C933B9B0D933C9B3F
:1011E0000E930DF59A7A3D9B0F93524611AB53F82F
:1011F000041F42F8041F21A98B42F8D10DF5B678DF
:101200000DF5AC7C0DF59C7E5DAF5646302558F84B
:10121000044F5EF8043F56F8042F5CF8041F4FEAB1
:10122000F440114480EA74404FEAB34280EA9420CB
:1012300082EAF312014482EAD3030B44013D47F8EA
:10124000043FE4D19A4B0F9ADFF87892DDF82CB086
:10125000DDF824E00A9F089EDDF838C0DDF8348010
:1012600001920C9D02930BE0CDF804C0C446A84641
:101270001D4659F8043F0293BB467746B6460646DC
:101280004FEAF52205EA080182EAB5122CEA0504C4
:1012900082EA75624C405AF8041F019B144487EAA5
:1012A0000E0221444FEA763002EA060407EA0E02F3
:1012B00019445440029B7F4A80EAB60080EAB65047
:1012C00019442044914501EB0B030844CCD10B9900
:1012D000089A39440F460C99399719440B460D99D1
:1012E0003A930244294414460D46099A0E99059BE7
:1012F000369432444144164608460A9A0F99379666
:101300007244614438923B953C903D910024002BFF
:101310007FF430AF9DF8DB309DF8DA20664C9DF805
:10132000D8008DF848308DF849209DF8D9309DF8C7
:10133000DF208DF84A308DF84B009DF8DE308DF8B7
:101340004C2004F21D1112A806228DF84D300AF02F
:1013500077FB002869D0109B1B6B4BB1049A574850
:101360009168554C090A984700284FD1E3780793B4
:10137000524B03261E7051484F490123C37040F25F
:1013800023128EA804F01EFF049B079D1C88FFF704
:1013900077BB4A4A0D23D370FFF7B4B9474B464A8F
:1013A0001B7B104623F00103FFF7A3BA434A012336
:1013B0001370FFF756B90F28CDD8DDE92267109BCF
:1013C0003F4AD3E9024592194FF000037B41AB42FB
:1013D00008BFA242BFD3119A049D00EBC00414447D
:1013E000EB79E3702B7A2371013084F802E0053445
:1013F00010800B6823608B881099A380D1E90223A9
:10140000BB4208BFB24201D2C1E90267049BDB784C
:1014100007932A4B01261E70ADE7359B01333593A8
:101420008FE5359B013335938EE404F217110023C9
:101430000022CDE92223119B08688D8894F816E1DB
:101440002290ADF88C50002B85D018880028B4D09D
:10145000E579267A059C04E094B2A04203F10903E1
:10146000A9D0DF78AF4204F10102F5D11F79B7426C
:10147000F2D19F787745EFD1A0429CD0119B04EB2D
:10148000C40423441C460DF590650022002365E941
:10149000D22354F8050F2860A388AB80D5E9002338
:1014A000DDE92267BB4208BFB242A2D353E700BFC7
:1014B000982F8A4288D600008891FF1F34A2FF1F10
:1014C000808D5B008CD50000F0B5334A334B10683B
:1014D000334C344D012683B01E7009F039FD32497A
:1014E00009F03EFE314B2060186809F031FD2E49AD
:1014F00009F036FE2E4B6060186809F029FD2D4971
:1015000009F02EFE2C4BA060188809F01DFD2B4918
:1015100009F026FE542103462948E36006F02CFB1F
:101520000821284806F028FB206809F0BBF80727A7
:1015300002460B460097284604F0F6FC0921224893
:1015400006F01AFB606809F0ADF8009702460B46FA
:10155000284604F0E9FC09211C4806F00DFBA068B0
:1015600009F0A0F8009602460B46284604F0DCFC81
:101570000921174806F000FBE06809F093F80224FF
:1015800002460B460094284604F0CEFC284603B0E1
:10159000BDE8F04004F06EBC08A5FF1FF5A1FF1FD9
:1015A000B090FF1F7C87FF1F8096184B04A2FF1F7F
:1015B000A8A2FF1F00007A44D890FF1F0000C84275
:1015C00070C90000C8C90000D4C90000E0C900000B
:1015D000ECC900002DE9F04FADF5137D012200218B
:1015E0008DF83C208DF83D208DF83E10B14E0F98BF
:1015F000B14DB24C3170B24E2A702270DFF8DCE28D
:10160000B04D9EF80C30B04C020CB273AC4A9172E3
:10161000D172AB4990812B26FF2003F00203BE223A
:101620004E72287003EA0006227093BBDEF8103079
:10163000002B00F067861F7807F00107A04CFF2100
:10164000FD230220BE22E171A370E07021462272C8
:10165000002F00F06B869EF80620A27113AC551C7B
:101660008EF806502370012500230D714B716070B8
:101670000A250821924B22711879A0700023FF20BF
:10168000E37023726372BE222B236071A271E37137
:1016900022E08B4C0221FE23E170E0712272A370E4
:1016A000042106259EF8062085488DF84C3013ACA1
:1016B000834B8271501C00278EF806000220607058
:1016C0001F715F71002E00F02E86FF23A270E37061
:1016D000BE222B23227163714FF6FF7C66460DF10B
:1016E0004D00022301E010F8013F83EA0C0383EA76
:1016F0000313DBB2DA0082EA032282EA1C2C0139EE
:101700008CEA131389B21BB2B1421FFA83FCEAD1EF
:101710006B4A6B49127B497B534083EA0313DBB26C
:10172000DA0082EA032282EA1C2282EA13131BB245
:1017300081EA030282EA0211C9B2CA0082EA0122E6
:10174000C3F30723534083EA111212B282F08403D9
:1017500083EA0313DBB2D90081EA0321C2F3072233
:101760004A405749C87882EA13130A461BB202441A
:10177000C3F307200B808B735073002F75D1504B30
:10178000CD789A78FE2A2C4619467DD0012C40F25D
:10179000BC852944CB7A1BB100F0B7BDDB7A2BB9ED
:1017A000013CE4B2464B012C2344F7D12646444B7E
:1017B000464D9B68DFF808912A70C3F317231A126D
:1017C000181499F8061099F8048099F805E02A721F
:1017D000EB7199F8072099F80830687229716A71DD
:1017E000AB71324605F10A006C7085F803E009F12F
:1017F0000C0185F8028004F0E5FC06F10A0218F0FD
:10180000010F05EB02031AD109212D4A12881A7023
:1018100012125A700023194403312D4B2B482144D6
:1018200089B2198005F00AF92C212A4806F0A4F99A
:1018300029480DF5137DBDE8F04F04F01BBBB9F846
:101840000010A954981C0912D9F81671D9F81A6118
:10185000D9F81E5199F822215970C3F80270092154
:101860000D23466085600273D5E7DEF81060CB7803
:10187000049316B13378DB0732D4049D2C46104B09
:101880009A78FE2A194681D19B68104E8879327069
:10189000C3F31723CA7973710B7AB0700C31F270ED
:1018A00033717470B01D2A4604F08CFCAB1D3344B8
:1018B0000521AAE7E8A1FF1FA190FF1FDA90FF1FF3
:1018C00048ADFF1F1AA2FF1F04A5FF1FC0AFFF1FD7
:1018D0009890FF1FF8C900007C87FF1F34A2FF1FEC
:1018E000737881F81631D6E9022392AF67E9822333
:1018F0003868BB88C1F81701A1F81B31D6E902236B
:10190000013243F10003C6E902238D4F56F8100F50
:101910003C97DFF848E28B4F7168B268F368CDF806
:10192000F4E03E97DFF838E2874FCDF8FCE04097CF
:10193000DFF830C2DFF830E2CDF8ECC042AFCDF8CE
:1019400004E10FC7AE4630697169B269F369029567
:101950004FF4807C7D4D3A9500260CEBCE05039428
:10196000399620240FC7389503E0029B002B00F026
:10197000D180029D039EC4F14003AB4228BF2B4699
:10198000ED1A029542A8354620441D441C441A46CF
:101990003146039504F016FC402CE6D138AA26AB5C
:1019A00092F82B10197092F82A4092F8281092F8A9
:1019B0002900D9705C70987036A90433994202F1FD
:1019C0000402EDD13A9B05933B9B06933C9B079306
:1019D0003D9B08933E9B09933F9B0A93409B0B932F
:1019E0000DF5A27A419B0C93524625AB53F8041F88
:1019F00042F8041F35A99942F8D10DF5BE780DF5CE
:101A0000B47C0DF5A47E61AF5646102558F8044FFE
:101A10005EF8043F56F8042F5CF8041F4FEAF440C8
:101A2000114480EA74404FEAB34280EA942082EA8B
:101A3000F312014482EAD30301350B44402D47F8E9
:101A4000043FE3D1424B0C9ADFF82091DDF820B03F
:101A5000DDF818E0079F059EDDF82CC0DDF8288032
:101A60000092099D01930BE0CDF800C0C446A84642
:101A70001D4659F8043F0193BB467746B6460646D5
:101A80004FEAF52205EA080182EAB5122CEA0504BC
:101A900082EA75624C405AF8041F009B144487EA9E
:101AA0000E0221444FEA763002EA060407EA0E02EB
:101AB00019445440019B274A80EAB60080EAB65098
:101AC000194420444A4501EB0B030844CCD1089942
:101AD000059A39440F4609993D9719440B460A99CE
:101AE0003E930244294414460D46069A0B99029BE4
:101AF0003A943244414416460846079A0C993B965C
:101B0000724461443C923F95409041910024002BE7
:101B10007FF42FAF389D049B05EBC304A542389496
:101B200002D9399B01333993049BC5F3C505002BBA
:101B300000F0F683084B049A0D93029203931BE086
:101B400072F36E3C7F520E51ABD9831F67E6096A70
:101B5000982F8A4288D6000054ADFF1F3AF54FA552
:101B60008C68059B85AE67BB19CDE05B8CD500000A
:101B7000029B002B00F0D180029C039EC5F1400324
:101B8000A34228BF2346E41A029442A834462844BC
:101B90001C441D441A463146039404F013FB402DA7
:101BA000E6D138AA26AB92F82B0092F82A101870CA
:101BB000597092F8290092F82810D970987036A9B7
:101BC0000433994202F10402EDD13A9B05933B9B09
:101BD00006933C9B07933D9B08933E9B09933F9B39
:101BE0000A93409B0B930DF5A27A419B0C935246AE
:101BF00025AB53F8041F42F8041F35A99942F8D1C8
:101C00000DF5BE780DF5B47C0DF5A47E61AF56469A
:101C1000102558F8044F5EF8043F56F8042F5CF87E
:101C2000041F4FEAF440114480EA74404FEAB34283
:101C300080EA942082EAF312014482EAD303013558
:101C40000B44402D47F8043FE3D1AF4B0C9ADFF82B
:101C5000C492DDF820B0DDF818E0079F059EDDF89E
:101C60002CC0DDF828800092099D01930BE0CDF88F
:101C700000C0C446A8461D4659F8043F0193BB4620
:101C80007746B64606464FEAF52205EA080182EA9B
:101C9000B5122CEA050482EA75624C405AF8041F1A
:101CA000009B144487EA0E0221444FEA763002EA90
:101CB000060407EA0E0219445440019B934A80EA45
:101CC000B60080EAB650194420444A4501EB0B03A4
:101CD0000844CCD10899059A39440F4609993D9793
:101CE00019440B460A993E93024429440D46144672
:101CF0000B99069A029B3F9532444144164608468A
:101D0000079A0C993A94724461443B963C924090F5
:101D100041910025002B7FF42FAF389C04F1100374
:101D2000A342389302D2399B013339930D9B049A15
:101D3000134403930223C4F3C504029303E0029BFC
:101D4000002B00F0D180029D039EC4F14003AB4202
:101D500028BF2B46ED1A029542A8354620441D4463
:101D60001C441A463146039504F02CFA402CE6D167
:101D700038AA26AB92F82B10197092F82A4092F8E4
:101D8000281092F82900D9705C70987036A9043335
:101D9000994202F10402EDD13A9B05933B9B0693D5
:101DA0003C9B07933D9B08933E9B09933F9B0A9363
:101DB000409B0B930DF5A27A419B0C93524625ABA9
:101DC00053F8041F42F8041F35A99942F8D10DF5C4
:101DD000BE780DF5B47C0DF5A47E61AF5646102596
:101DE00058F8044F5EF8043F56F8042F5CF8041FBF
:101DF0004FEAF440114480EA74404FEAB34280EA6B
:101E0000942082EAF312014482EAD30301350B44A1
:101E1000402D47F8043FE3D13B4B0C9ADFF8F49098
:101E2000DDF820B0DDF818E0079F059EDDF82CC036
:101E3000DDF828800092099D01930BE0CDF800C0E9
:101E4000C446A8461D4659F8043F0193BB46774651
:101E5000B64606464FEAF52205EA080182EAB512BF
:101E60002CEA050482EA75624C405AF8041F009B74
:101E7000144487EA0E0221444FEA763002EA06044F
:101E800007EA0E0219445440019B204A80EAB6003A
:101E900080EAB650194420444A4501EB0B0308443C
:101EA000CCD10899059A39440F4609993D971944B0
:101EB0000B460A993E930244294414460D46069A5D
:101EC0000B99029B3A943244414416460846079ABD
:101ED0000C993B96724461443C923F9540904191ED
:101EE0000024002B7FF42FAF389C04F138039C4270
:101EF000389302D9399B01333993054B0393072358
:101F0000C4F3C50402930BE0982F8A4288D60000E0
:101F10005EAEFF1F8CD50000029B002B00F0D1802D
:101F2000029D039EC4F14003AB4228BF2B46ED1A2D
:101F3000029542A8354620441D441C441A463146A9
:101F4000039504F03FF9402CE6D138AA26AB92F86D
:101F50002B10197092F82A4092F8281092F8290054
:101F6000D9705C70987036A90433994202F104026A
:101F7000EDD13A9B05933B9B06933C9B07933D9B7E
:101F800008933E9B09933F9B0A93409B0B930DF54F
:101F9000A27A419B0C93524625AB53F8041F42F89A
:101FA000041F35A99942F8D10DF5BE780DF5B47C22
:101FB0000DF5A47E61AF5646102558F8044F5EF823
:101FC000043F56F8042F5CF8041F4FEAF440114414
:101FD00080EA74404FEAB34280EA942082EAF31226
:101FE000014482EAD30301350B44402D47F8043FF6
:101FF000E3D1C74B0C9ADFF82493DDF820B0DDF86D
:1020000018E0079F059EDDF82CC0DDF828800092BF
:10201000099D01930BE0CDF800C0C446A8461D46BB
:1020200059F8043F0193BB467746B64606464FEA49
:10203000F52205EA080182EAB5122CEA050482EAD3
:1020400075624C405AF8041F009B144487EA0E0244
:1020500021444FEA763002EA060407EA0E021944E8
:102060005440019BAB4A80EAB60080EAB65019445E
:1020700020444A4501EB0B030844CCD10899059A4A
:1020800039440F4609993D9719440B460A993E93E6
:102090000244294414460D46069A0B99029B3A9431
:1020A0003244414416460846079A0C993B967244BE
:1020B00061443C923F95409041910024002B7FF475
:1020C0002FAF389E0299C6F3C504C4F1770303F01D
:1020D0003F05802747220DF199008DF8987009F08F
:1020E00045FD05F109031F46029326AB2B44399A9F
:1020F0001E72310AD971310E5971300C110C987160
:102100009970100A06EBC701D8708E424FEA126030
:102110001A71587084BF531C399326AB38910393BE
:1021200003E0029B002B00F0D080029D039EC4F1CF
:102130004003AB4228BF2B46ED1A029542A8354614
:1021400020441D441C441A463146039504F03AF8D5
:10215000402CE6D138AA16AB92F82B10197092F8E1
:102160002A4092F8281092F82900D9705C70987073
:1021700026A90433994202F10402EDD13A9B05935A
:102180003B9B06933C9B07933D9B08933E9B099387
:102190003F9B0A93409B0B930DF5A27A419B0C93B6
:1021A000524615AB53F8041F42F8041F25A98B4271
:1021B000F8D10DF5BE780DF5B47C0DF5A47E61AFB8
:1021C0005646302558F8044F5EF8043F56F8042F61
:1021D0005CF8041F4FEAF440114480EA74404FEA6F
:1021E000B34280EA942082EAF312014482EAD303E4
:1021F0000B44013D47F8043FE4D1454B0C9ADFF80E
:102200001C91DDF820B0DDF818E0079F059EDDF891
:102210002CC0DDF828800092099D01930BE0CDF8D9
:1022200000C0C446A8461D4659F8043F0193BB466A
:102230007746B64606464FEAF52205EA080182EAE5
:10224000B5122CEA050482EA75624C405AF8041F64
:10225000009B144487EA0E0221444FEA763002EADA
:10226000060407EA0E0219445440019B294A80EAF9
:10227000B60080EAB65019442044914501EB0B03A7
:102280000844CCD10899059A39440F4609993D97DD
:1022900019440B460A993E930244294414460D46BC
:1022A000069A0B99029B3A943244414416460846DA
:1022B000079A0C993B96724461443C923F9540903A
:1022C00041910024002B7FF430AF134E9DF8EB506A
:1022D00086F81D51049D9DF8EA409DF8E9009DF89F
:1022E000E8109DF8EF209DF8EE3086F81E4186F844
:1022F0001F0186F8201186F8212186F822312C460C
:10230000FFF7BDBA3746FFF799B92E46FFF74FBA28
:10231000982F8A4288D6000048ADFF1F8CD5000058
:10232000044B0D93FAE43746FFF7A4B908210A25B8
:10233000FFF7B8B954ADFF1F10B5194B197882B02B
:10234000C9B9184B184A1B68019301981368C31A3E
:10235000B3F5FA7F154B08D310601A78C2B10D207F
:10236000197004F0C3F802B010BD19780D2004F004
:10237000BDF802B010BD01230C4C19460D2023708E
:1023800004F0B4F821780D2004F0B0F802B010BDCC
:1023900001210D20197004F0A9F802B010BD00BF92
:1023A00098AEFF1FF8B0FF1F18A5FF1FB2AEFF1FAA
:1023B000064BB3F81C320A2B054B0CBF0121002140
:1023C0001970044B187804F091B800BFD0A2FF1F19
:1023D000EBB0FF1F7087FF1F10B5044607292DD8EB
:1023E000DFE801F0090E13181D222704164903F037
:1023F000B3FE204610BD154903F0AEFE204610BDC9
:10240000134903F0A9FE204610BD124903F0A4FEB3
:10241000204610BD104903F09FFE204610BD0F4915
:1024200003F09AFE204610BD0D4903F095FE2046AC
:1024300010BD0C4903F090FE204610BD0A4903F080
:102440008BFE204610BD00BFF0CA0000B0CA0000DD
:10245000BCCA0000C4CA0000D0CA0000D8CA00002C
:10246000E0CA0000E8CA0000F8CA0000013910B54F
:102470000446082938D8DFE801F00A0F1419232888
:102480002D3205002F4903F067FE204610BD2E496E
:1024900003F062FE204610BD2C4903F05DFE20468D
:1024A00010BD2B4903F058FE204610BD013A082A02
:1024B00043D8DFE802F03E3A36322E2A26221E00AA
:1024C000244903F049FE204610BD234903F044FE91
:1024D000204610BD214903F03FFE204610BD204993
:1024E00003F03AFE204610BD1E4903F035FE20469B
:1024F00010BD1D4903F030FEC7E71C4903F02CFE58
:10250000C3E71B4903F028FEBFE71A4903F024FE86
:10251000BBE7194903F020FEB7E7184903F01CFE9A
:10252000B3E7174903F018FEAFE7164903F014FEAE
:10253000ABE7154903F010FEA7E7144903F00CFEC2
:10254000A3E700BFD4CB000000CB000008CB000005
:1025500014CB0000A8CB0000B0CB0000BCCB000027
:10256000C8CB0000F8CA000088CB000078CB000080
:102570006CCB000060CB000054CB000044CB0000CB
:1025800038CB000028CB00001CCB000098CB00000B
:10259000013808281DD8DFE800F00507090B1214E0
:1025A00016181A000020704701207047022070475B
:1025B0000139C9B208290ED8084B585C704703206E
:1025C0007047042070470520704706207047072099
:1025D00070470B2070471F20704700BF9CC8000049
:1025E000F8B5154CE66805464FF07E51304608F0C8
:1025F000A1FE18B1284608F0A7FC0646284608F0B8
:10260000A7FC0E4908F0F8FC0D490746304608F0D3
:10261000F3FC0146384608F0E7FB0A496269E369C2
:10262000E060A1FB051502EB951501336561E361DF
:1026300008F0E4FEF8BD00BF4C87FF1FCDCCCC3DB9
:102640006666663FD34D6210F0B51D4C94F820309D
:1026500085B00546002B2FD01A4B1A680192019ABB
:102660000021013A84F820101968039103981B682F
:102670000293029B2361801A08F066FC124908F05D
:102680006FFD08F00FF8064628460F4607F0E8FFF2
:1026900002460B463046394608F058F808F04EFB23
:1026A0000A4908F0A9FC034601466068236008F067
:1026B0009BFB606005B0F0BD2269024BD4E700BF10
:1026C0004C87FF1FF8B0FF1F00BA5B4A0000204193
:1026D00070B5114D0646FFF7B7FFAC684FF07E515D
:1026E000204608F027FE18B1304608F02DFC0446BD
:1026F000304608F02DFC094908F07EFC08490646E2
:10270000204608F079FC0146304608F06DFBA860D1
:1027100008F074FE70BD00BF4C87FF1FCDCC4C3E4F
:10272000CDCC4C3FF8B5144CE66805460021304648
:1027300008F0F6FD18B1284608F006FC06462846C3
:1027400008F006FC0D4908F057FC0D4907463046D5
:1027500008F052FC0146384608F046FB0949626918
:10276000E369E060A1FB051502EB95150133656196
:10277000E36108F043FEF8BD2887FF1FCDCC4C3E37
:10278000CDCC4C3FD34D6210F0B5194C94F82030AD
:1027900085B005464BB3174B1A680192019A002188
:1027A000013A84F820101968039103981B6802937A
:1027B000029B2361801A08F0C7FB0F4908F0D0FC88
:1027C00007F070FF064628460F4607F049FF02460D
:1027D0000B463046394607F0B9FF08F0AFFA074913
:1027E00008F00AFC206005B0F0BD2269014BDAE771
:1027F0002887FF1FF8B0FF1F00BA5B4A0000204186
:10280000F8B5114CA66805460021304608F088FD51
:1028100018B1284608F098FB0646284608F098FBB1
:102820000A4908F0E9FB0A490746304608F0E4FB8C
:102830000146384608F0D8FAA0602846FFF7A4FF02
:10284000A06808F0DBFDF8BD2887FF1FCDCCCC3D8C
:102850006666663F2DE9F04F114DD5F8601BE5B077
:1028600001F2231440F223121BA8C5F8604B03F0B9
:10287000A9FC05F65E339C42B5F8683B094C28BFBD
:10288000C5F8605B013B1BA9204640F22312A5F866
:10289000683B03F097FCA368C3F3172304E000BF71
:1028A0005896FF1F48ADFF1FFD2B01F27384DFE830
:1028B00013F0FE00110B710C710C710C710C710C8A
:1028C000710C710C710C710C710C710C710C710C20
:1028D000710C710C710C710C710CAB01AB010A061F
:1028E000710C5309710C710CB708710C6D0A470417
:1028F000710C710CC907710CAB01C305710C710C23
:102900009504710C710C7E06710C6C06710C710CC7
:10291000710C710C710C710C710C710C710C710CCF
:10292000710C710C710C710C710C710C710C9E0698
:10293000710C710C7E03AB01710C710C710C710C7C
:10294000710C710C710CA302710C710C710C710C77
:10295000710C710C710C710C710C710C710C710C8F
:10296000710C710C710C710C710C710C710C710C7F
:10297000710C710C710C710C710C710C710C710C6F
:10298000710C710C710C710C710C710C710C710C5F
:10299000710C710C710C710C710CAB01710C710C20
:1029A000710C710C710C710C710C710CAE01710C0D
:1029B000710C710C710C710C710C710C710C710C2F
:1029C000710C710C710C710C710C710C710C710C1F
:1029D000710C710C710C710C8107710C710CAB01D5
:1029E000710CAB01710C710C710C710C710C710CD0
:1029F000710C710C710C710C710C710C710CDB0190
:102A0000710C710C710C710C710C710C710C710CDE
:102A1000710C710C710CAB01710C710C1103AB01D9
:102A2000710C710C710C710C710C710C710C710CBE
:102A3000710C710C710C710C710C710C710C710CAE
:102A4000710C710C710C710C710C710C710C710C9E
:102A5000710C710C710C710C710C710C710C710C8E
:102A6000710C710C710C710C710C710C710C710C7E
:102A7000710C710C710C710C710C710C710C710C6E
:102A8000710C710C710C710C710C710C710C710C5E
:102A9000710C710C710C710C710C710C710C710C4E
:102AA000710C710C710C710C710C710C770B207C1A
:102AB000A04AA14B1070421F012A40F2A5805D7C04
:102AC000DFF814939D4A89F80050A5F10C051268AF
:102AD000D9689B4C9B4E0992B5FA85F56D09DFF8D4
:102AE000FCA2994FDDF824E0DFF8F4B225700D0C5C
:102AF000C6F800E0396093F812E08AF80050090E39
:102B0000924D934ADFF8DC82924E8BF80010D97C0C
:102B10001B7D2B705FEADE13107088F800E03170C7
:102B200004D08D4B1B78002B01F04B8419218B486E
:102B3000029205F021F80821894805F01DF8029A53
:102B40008848117800230A2203F0A4F90F2186484F
:102B500005F012F800230A2299F80010814803F0CA
:102B600099F90F21814805F007F800230A2298F807
:102B700000107C4803F08EF910217D4804F0FCFF22
:102B800000230A223968774803F084F91321794831
:102B900004F0F2FF00230A223178724803F07AF938
:102BA0001521754804F0E8FF002329786D480A22B2
:102BB00003F070F92378002B41F0B3836F4D69481F
:102BC00003F058F92C78FCB96D4E6E483388092112
:102BD0000133338004F0D0FF3188624803F09AF962
:102BE0002146694804F0C8FF5E4803F043F9338882
:102BF000022B09D901230C2164482B7004F0BCFF7F
:102C0000584803F037F9348065B0BDE8F08F5B4B6E
:102C10001B78002BF8D05E4FA1895E4E5E4DE28995
:102C2000238A39805D4832801E212B8004F0A4FF66
:102C300005215B4804F0A0FF39884A4803F06AF98F
:102C40000A21584804F098FF3188464803F062F999
:102C50005548092104F090FF2988424803F05AF9A9
:102C6000404803F007F9CFE7444B1B78002BCBD04B
:102C7000DFF874B1217CDFF874A1DFF87491DFF81C
:102C800074814A4F627CA37C207D494E8BF80010F2
:102C9000484DE17C8AF8002089F80030A289E38958
:102CA00088F8001038701721434832802B8004F0D8
:102CB00063FF0521414804F05FFF00230A229BF8CF
:102CC0000010284803F0E6F808213D4804F054FFBE
:102CD00000230A229AF80010224803F0DBF80621AC
:102CE000384804F049FF00230A2299F800101D48D3
:102CF00003F0D0F80621344804F03EFF00230A22F6
:102D000098F80010174803F0C5F809212F4804F07F
:102D100033FF00230A223978124803F0BBF8092157
:102D20002B4804F029FF31880E4803F0F3F8062100
:102D300028488FE734AFFF1F48ADFF1FF8B0FF1FD3
:102D4000B0A2FF1F2CA2FF1F7C91FF1FF090FF1F5E
:102D500094A2FF1FA0AEFF1FF5A1FF1FECCB000048
:102D600008CC00007C87FF1F14CC000024CC00009E
:102D700034CC000048CC00005CCC000098AEFF1FB3
:102D8000A4A2FF1F94CC0000D8D20000A0CC000069
:102D900032AFFF1FF2A4FF1FB0AEFF1F34D30000FD
:102DA00054D300005CD3000068D3000052AFFF1F73
:102DB0008291FF1F30AFFF1FE4D30000FCD300005F
:102DC00004D4000010D4000018D4000020D4000067
:102DD0002CD4000038D40000DCB0FF1F6591FF1F29
:102DE00026A5FF1FF9AEFF1F5C91FF1F2CADFF1F33
:102DF0005AAFFF1FBCA2FF1FAA4B1B78002B3FF44A
:102E000003AFDFF830A3DFF83093DFF83083A64F4D
:102E1000E2682369A18BE08BA44EA54DCAF800207F
:102E2000C9F800306269A369A8F800103880182139
:102E3000A04832602B6004F09FFE0A219E4804F0F7
:102E40009BFEDAF8000007F02DFC022402460B4638
:102E500000949A4803F068F80F21994804F08CFE1A
:102E6000D9F8000007F01EFC009402460B46934878
:102E700003F05AF80B21934804F07EFEB8F90010D5
:102E80008E4803F047F80E218F4804F075FE39880C
:102E90008A4803F03FF80C218C4804F06DFE30683E
:102EA00007F000FC002602460B460096834803F01C
:102EB0003BF887480E2104F05FFE286807F0F2FB1C
:102EC000009402460B467D4803F02EF87B4802F042
:102ED000D1FF99E6734B1B78002B3FF495AEA08988
:102EE0007C4D7D4FFFF71EFC2880E089FFF788FCB2
:102EF0002B88388045F20822934241F24682774C73
:102F0000062323701A217648764E04F035FE0B21F5
:102F1000754804F031FE288808F016F8734908F067
:102F20001FF907F0BFFB032502460B4600956348D7
:102F300002F0FAFF0B216E4804F01EFEB7F9000004
:102F400008F006F86B4908F00BF907F0ABFB012716
:102F500002460B460097594802F0E6FF06216648F4
:102F600004F00AFE306807F09DFB062702460B4678
:102F70000097524802F0D8FF0C21604804F0FCFD95
:102F8000706807F08FFB009502460B464B4802F035
:102F9000CBFF12215A4804F0EFFD21784748002367
:102FA0000A2202F077FF454802F064FF2CE63D4B11
:102FB0001B78002B3FF428AE524E94F83430524A1E
:102FC000524D33700123278A608AA18A1370E28AE6
:102FD0002F806880278B608BA980EA80A18BE28B91
:102FE0002F816881278C608CA981EA81A18CE28C79
:102FF0002F826882278D608DA982EA82A18D444A42
:103000002F836883434FA983E08DB4F830E01370B9
:103010001C21628E94F83530E8833F48A5F820E003
:103020006A843B7004F0A8FD09213C4804F0A4FD2B
:103030000023317821480A2202F02CFF062138486B
:1030400004F09AFD3378B3B1023D0024013401212C
:10305000344804F091FD2146184802F05BFF01213D
:10306000314804F089FD35F8021F144802F052FF80
:103070003378A342EADC0F212C4804F07DFD387838
:1030800007F066FF2A4908F06BF807F00BFB0224F3
:1030900002460B460094094802F046FF074802F03A
:1030A000E9FEB1E598AEFF1FB8AEFF1FAC90FF1F61
:1030B0006091FF1FC0D20000DCD200007C87FF1FA0
:1030C000E8D20000F8D2000004D3000014D30000BE
:1030D00024D30000FCAEFF1F1CA5FF1F8491FF1F1F
:1030E00040D400002887FF1FCCCC000000007A44A9
:1030F000D8CC00000000C842E4CC0000ECCC0000BA
:103100005CD4000059AFFF1F10A2FF1F70AEFF1F5D
:10311000ADA2FF1F5C91FF1F84D20000A4D200006B
:1031200060D000008CCF0000A4CE0000B0D2000020
:103130005C8F2240ECA1FF1F38ADFF1FD090FF1F16
:10314000954B1B78002B3FF45FAD944B9449954D04
:10315000626AE769266A1A6020690F602E609249E8
:10316000924F934E934D07F047FF9349D4F8148044
:10317000A46907F0F5FF8C493860404607F03CFF32
:103180008D4907F0EDFF88493060204607F034FF95
:10319000894907F0E5FF19212860884804F0ECFC14
:1031A0000E21874804F0E8FC386807F07BFA012418
:1031B00002460B460094834802F0B6FE0F21824877
:1031C00004F0DAFC306807F06DFA009402460B4612
:1031D0007C4802F0A9FE0D217C486CE66E4B1B7802
:1031E000002B3FF411AD7A4D7A4B228D94F82E10BE
:1031F000DFF834A219702A80029394F82F20764BBE
:10320000DFF828B2DFF828928AF8002022691A60D5
:10321000608D94F83010DFF81C82704B704FABF863
:10322000000089F80010E068A16919606D4E6E4BCE
:10323000C8F80000E069D4F820E0626A38601D2117
:103240006A48C6F800E01A6004F096FC0A21684853
:1032500004F092FC29885B4802F05CFE0D21654871
:1032600004F08AFC029B574819780A22002302F0D6
:1032700011FE0F21604804F07FFCBBF8001051489C
:1032800002F048FE0F215D4804F076FC00230A227C
:103290009AF800104B4802F0FDFD1421584804F044
:1032A0006BFC00230A2299F80010464802F0F2FD58
:1032B0000E21544804F060FCD8F8000007F0F2F941
:1032C000072402460B4600943E4802F02DFE0E21D4
:1032D0004D4804F051FC404B186807F0E3F90094A6
:1032E00002460B46374802F01FFE0E21474804F005
:1032F00043FC3A4B186807F0D5F9009402460B4698
:10330000304802F011FE0E21414804F035FC414BDB
:10331000186807F0C7F9009402460B46294802F0E6
:1033200003FE09213C4804F027FC386807F0BAF98D
:10333000009402460B46234802F0F6FD0921374867
:1033400004F01AFC306807F0ADF9009402460B4611
:103350001C4802F0E9FD0921314804F00DFC224B24
:10336000186807F09FF9002402460B4600941548A0
:1033700002F0DAFD134802F07DFD2B88B3F5807F63
:1033800001F22580274A3C683068013B02EBC3010B
:1033900042F83340486037E498AEFF1FE0B0FF1FAB
:1033A0007091FF1FE4A1FF1F00003443F0B0FF1F26
:1033B000B8AFFF1F6C91FF1FDB0F494074CF0000B7
:1033C00090CF00007C87FF1FA0CF0000B0CF00008F
:1033D000A4AEFF1FA1AFFF1FC0A2FF1FC4A2FF1F0B
:1033E000FC90FF1F0091FF1F0491FF1F68D0000099
:1033F00088D0000094D00000A4D00000B4D0000019
:10340000C4D00000DCD00000ECD00000FCD00000F4
:103410000CD10000C8A2FF1F1CD1000028D1000061
:1034200034D100002CA5FF1FC1AEFF1FAEA2FF1FAD
:1034300028A2FF1F94AFFF1FAE4B1B78002B3FF459
:10344000E3ABAD4DAD4E94F82020218A608AAC4BA1
:10345000A78A29806880218B608B3270E28AAF80D6
:10346000EA80A78B29810122E48B68811D21A54870
:103470001A70EC81AF8104F07FFB0821A24804F0B0
:103480007BFB3178A14800230A2202F003FD0621CC
:103490009F4804F071FB023D0024013401219D4846
:1034A00004F06AFB2146994802F034FD01219A4854
:1034B00004F062FB35F8021F944802F02BFD082C43
:1034C000EBD100F07FBE8B4B1B78002B3FF49CAB05
:1034D000924B934DDFF8C8E2924F934E0FCB85E8A5
:1034E0000F00638A914DE268218A3A601020B3F59B
:1034F000B27FAEF8000031802B8000F03C87B3F53E
:10350000B67F19D18A4C8B4B22601C2101228A483C
:103510001A7004F031FB89480E2104F02DFB20685D
:1035200007F0C0F8022402460B460094774802F0E8
:10353000FBFC764802F09EFC1C217F4804F01CFB3B
:1035400009217F4804F018FB754808F059FF01462F
:10355000734804F011FB0E217A4804F00DFB386823
:1035600007F0A0F8042402460B460094674802F0D6
:10357000DBFC0E21744804F0FFFA3188634802F046
:10358000C9FC0E217148FFF765BB5A4B1B78002B15
:103590003FF43AAB6E4DA3896E482B701E2104F0A8
:1035A000EBFA11216C4804F0E7FA2978F6E4514B64
:1035B0001B78002B3FF428AB684DA38968482B800B
:1035C000202104F0D9FA1321664804F0D5FA29889D
:1035D0004E4802F09FFC4D4802F04CFC2B88002B1B
:1035E0003FF412AB604B01221A70FFF70DBB414B49
:1035F0001B78002B3FF408AB5C4BDFF8A8B1DFF879
:10360000A8A1E2682169208CDFF8A091DFF8A081F1
:10361000574F1A60574E628CCBF80010AAF8000082
:10362000A18C6069544DD4F818E0A9F80020A8F8DE
:103630000010E26938601D215048C6F800E02A6099
:10364000029304F099FA0C214D4804F095FA029B7C
:10365000186807F027F8032402460B4600942B480D
:1036600002F062FC0E21474804F086FADBF8000005
:1036700007F018F8009402460B46244802F054FC68
:103680001021414804F078FABAF900101F4802F0FE
:1036900041FC13213D4804F06FFAB9F900101B48B2
:1036A00002F038FC0C213A4804F066FAB8F8001031
:1036B000164802F02FFC0E21364804F05DFA3868F7
:1036C00006F0F0FF022402460B4600940F4802F079
:1036D0002BFC0F21304804F04FFA306806F0E2FF6F
:1036E000009402460B46094802F01EFC11212B48AB
:1036F000FFF7E1BB98AEFF1F5CAFFF1F9490FF1F69
:1037000034ADFF1F34D0000054D000007C87FF1F71
:1037100060D000008CCF0000A4CE00005CADFF1F85
:1037200018AFFF1F0C91FF1F0891FF1FB0AFFF1FC5
:10373000C8A1FF1F84AFFF1F10CD000040CD0000C7
:1037400050CD00005CCD00006CCD00007CCD0000B1
:10375000E890FF1FA4D10000C4D10000A4AEFF1F59
:103760006CD1000090D1000058AFFF1FA0A2FF1F36
:10377000A8AFFF1F28AFFF1F5891FF1FD8D100002F
:10378000F8D1000008D2000018D200002CD20000AE
:1037900040D2000050D2000060D2000070D2000081
:1037A0009890FF1F80AFFF1FC290FF1F44ADFF1F07
:1037B000D0A1FF1FBD4B1B78002B3FF425AA94F826
:1037C0002C30BB4DBB4FBC4EBC49B4F82AE0E2687C
:1037D00094F82F002B70A7F800E032600870002BDF
:1037E00040F05D85B64B1A802021B64804F0C4F93C
:1037F0000921B54804F0C0F900230A222978B3480A
:1038000002F048FB1121B24804F0B6F9B7F90010F4
:10381000AE4801EB8101490002F07CFB1A21AD4862
:1038200004F0AAF93168A94802F074FB2C78AA4880
:103830000F21002C40F02A8504F09EF9A74B586810
:10384000FFF73CBB994B1B78002B3FF4DDA9A44B41
:103850001B78022B7FF6D8A9A269A24FA24E218C19
:103860000292DFF8E492E269B4F822E06369206929
:103870003A60DFF8D8A2E28CDFF8D4829B4DDFF803
:10388000D4B23180A18C9A4CC9F800300493029BC9
:10389000A5F800E0ABF80020C8F800302180CAF895
:1038A0000000039207F054FB9249934C07F058FC38
:1038B000049B01462160184607F04AFB8D4907F03A
:1038C0004FFC03466360029807F042FB8B4907F008
:1038D00047FC039A8A4BA060A3FB0230400907F023
:1038E00037FB182103468748E36004F045F90821B7
:1038F000854804F041F9DAF8000007F029FB7D491A
:1039000007F02EFC06F0CEFE062402460B4600947D
:103910006E4802F009FB08217C4804F02DF9D9F823
:10392000000007F015FB734907F01AFC06F0BAFE19
:10393000009402460B46654802F0F6FA09217448E5
:1039400004F01AF9D8F8000007F002FB6B4907F001
:1039500007FC06F0A7FE002402460B4600945B48D5
:1039600002F0E2FA0B216B4804F006F9386807F020
:10397000EFFA624907F0F4FB06F094FE01270246D5
:103980000B460097514802F0CFFA0721624804F035
:10399000F3F8B6F9000007F0DBFA604907F0E0FB46
:1039A00006F080FE022402460B460094474802F0CF
:1039B000BBFA07215A4804F0DFF8B5F9000007F018
:1039C000C7FA564907F0CCFB06F06CFE009402469D
:1039D0000B463E4802F0A8FA0721524804F0CCF802
:1039E000434BB3F9000007F0B3FA4C4907F0B8FBBA
:1039F00006F058FE009402460B46344802F094FA52
:103A00000C21494804F0B8F8BBF8000007F09CFA14
:103A1000424907F0A5FB06F045FE0097FFF751BAB3
:103A2000224B1B78002B3FF4EFA8404FB4F9141041
:103A30003F4E404DB4F91620B4F9183039603E4875
:103A4000326018212B6004F097F805213B4804F000
:103A500093F8386807F07CFA284907F081FB06F0F4
:103A600021FE022402460B460094184802F05CFA3C
:103A70000721334804F080F8306807F069FA1F49DD
:103A800007F06EFB06F00EFE009402460B460F4850
:103A900002F04AFA07212B4804F06EF8286807F074
:103AA00057FA164907F05CFBFFF708BA98AEFF1FFC
:103AB000CE90FF1FCCA1FF1F20A2FF1FF4A1FF1F6C
:103AC000CC90FF1F74D3000098D300007C87FF1FA9
:103AD000A4D30000B8D30000D4D300004C87FF1F4C
:103AE0007287FF1FF8A1FF1FA2AFFF1FA4AFFF1F28
:103AF000F0A4FF1F8096184B00AFFF1F00007A4410
:103B00001F85EB51C0CF0000DCCF0000E8CF0000E4
:103B1000F4CF000000D000000CD000000000C8422C
:103B200014D000001CD0000024D0000044AFFF1FC0
:103B300048AFFF1F4CAFFF1FE0CE0000FCCE0000DF
:103B400004CF00000CCF000004A2FF1F08A5FF1F38
:103B500028A5FF1FD890FF1FB04B1B78002B3FF408
:103B600053A894F82820AE4EAE4D94F82930337007
:103B7000022A2A70AC4BDFF84CB3DFF84CA3DFF815
:103B80004C93DFF84C83A94FA94C00F28E83A94BCC
:103B90000693A94B0793A94B0393A94B0493A94BF5
:103BA0000593A94B02931C21A84803F0E5FF0B21C4
:103BB000A74803F0E1FF00230A222978A54802F074
:103BC00069F92B78002B00F0F783012B00F0298492
:103BD000022B00F02C84032B00F03384042B00F024
:103BE0003984052B00F04B84062B00F04E84072B04
:103BF00000F05184082B07BF0421974897480821FB
:103C000003F0BAFF0F21964803F0B6FF00230A2203
:103C10003178904802F03EF90B21924803F0ACFF56
:103C2000DBF8000007F094F98F4907F099FA06F0E5
:103C300039FD072502460B460095864802F074F9C7
:103C40000C218A4803F098FFDAF8000007F080F9A9
:103C5000854907F085FA06F025FD009502460B46DA
:103C60007C4802F061F90F21814803F085FFD9F803
:103C7000000007F06DF97F4907F072FA06F012FDB7
:103C8000012502460B460095724802F04DF90D21C0
:103C9000794803F071FFB8F8000007F055F906F015
:103CA00001FD009502460B466A4802F03DF90D21E0
:103CB000724803F061FF388807F046F906F0F2FC1D
:103CC000009502460B46634802F02EF906216C4827
:103CD00003F052FF208807F037F96A4907F040FAED
:103CE00006F0E0FC032402460B460094594802F01B
:103CF0001BF90621644803F03FFF069B188807F074
:103D000023F9604907F02CFA06F0CCFC0095024636
:103D10000B46504802F008F911215C4803F02CFFD3
:103D2000079B5B491B684B4881FB0321DB17C3EBF7
:103D3000A1110222002302F0ADF80821554803F03A
:103D40001BFF039B434819680A22002302F0A2F8D4
:103D50000821514803F010FF049B3E4819680A22CD
:103D6000002302F097F80D214C4803F005FF059B56
:103D7000384819680A22002302F08CF80D214848BF
:103D800003F0FAFE029B1968FFF708B9234B1B7872
:103D9000002B3EF439AF434E434D2269238B4348F9
:103DA000326020212B8003F0E7FE0C21404803F015
:103DB000E3FE306806F076FC012402460B460094D0
:103DC000244802F0B1F810213A4803F0D5FE3A4BEE
:103DD000186806F067FC032602460B4600961D484D
:103DE00002F0A2F81121354803F0C6FEB5F9000033
:103DF00007F0AEF8234907F0B3F906F053FC00943E
:103E000002460B46134802F08FF821462C4803F077
:103E1000B3FE104802F02EF8FEF7F6BE98AEFF1F74
:103E200020A5FF1F7287FF1F48ADFF1F50AFFF1F68
:103E30008091FF1F9690FF1FE4B0FF1F7CAFFF1F14
:103E400030ADFF1FCCA2FF1FB8A2FF1F8CCD00001A
:103E5000ACCD00007C87FF1F14CE00001CCE0000FC
:103E600028CE000038CE00008096184B44CE0000CB
:103E700054CE000000007A4464CE000074CE0000EE
:103E800084CE00000000C8428CCE000094CE00001A
:103E9000D34D6210A8CE0000B4CE0000C0CE00000A
:103EA000D0CE0000F490FF1FE8B0FF1F14CF000039
:103EB00038CF000048CF000098AFFF1F5CCF000054
:103EC00070CF00008CAFFF1FACAEFF1FA8A2FF1F7A
:103ED00036AFFF1FC94B1B78002B3EF495AE608BAD
:103EE000C74DC84FFEF77CFB2880A08BFEF7F0FB88
:103EF0002B88388045F20822934240F25282C24C0D
:103F0000062323701A21C148C14E03F035FE0B2150
:103F1000C04803F031FE288807F016F8BE4907F0C4
:103F20001FF906F0BFFB032502460B460095BB4870
:103F300001F0FAFF0B21BA4803F01EFEB7F90000AA
:103F400007F006F8B74907F00BF906F0ABFB0127BD
:103F500002460B460097B14801F0E6FF0621B24841
:103F600003F00AFE306806F09DFB062702460B466A
:103F70000097AA4801F0D8FF0C21AC4803F0FCFDE3
:103F8000706806F08FFB009502460B46A34801F0CF
:103F9000CBFF1321A64803F0EFFD2178FEF7FEBF0B
:103FA000A44DDFF8DCE2A44F247B2C700EF1300826
:103FB000BC46DEF80000DEF80410DEF80820DEF86B
:103FC0000C3066460FC60EF1100EC645B446F0D151
:103FD000BEF80020994E984BACF800203222328077
:103FE00003F1330E002213F8010B10F0DF0F02F182
:103FF000010104D1187810F0DF0F00F0E8809E4531
:104000000A46F0D14FF03308434636224FF0350CC4
:104010004FF034098A488B4980F800804FF0000E39
:10402000854807F803E007F809E007F80CE007F80F
:1040300002E008F009F8002840F0D380DFF844A23D
:1040400001238AF80030804FB7F81CB2BBF10A0F89
:1040500000F05F81DFF830927749484608F10402AA
:1040600000F8014B02F0AEF8CE46BEE80F000DACF2
:104070000FC4BEE80F000FC4BEE80F000FC49AF8CB
:10408000003089F8338089F834309EE80300D7F88F
:10409000183244F8040B03F1350807F2122398454F
:1040A0002170C7F8188204BFB846C7F818720DF11E
:1040B000340CC6460DF1640964460FCC4C45CEF86D
:1040C0000000CEF80410CEF80820CEF80C30A4463C
:1040D0000EF1100EF0D12068CEF8000023798EF892
:1040E00004300BF10103A7F81C32574BBBF1000F52
:1040F00001D1C3F814823421544803F03DFD0E2150
:10410000534803F039FDB7F81C12444801F002FF90
:104110000921504803F030FD3188404801F0FAFE93
:104120000A214D4803F028FD00230A2229783B4844
:1041300001F0B0FE0121494803F01EFD297809A8CD
:10414000FEF74AF909A9354801F06EFE09A801F009
:10415000C3FF0821424803F00FFD0221414803F04C
:104160000BFD354808F04CF90146334803F004FDD7
:1041700002213D4803F000FD0C213C4803F0FCFC0B
:104180009AF80010254801F0C5FE244801F072FE9F
:10419000FEF73ABD194B1B78002B3EF435AD0C21D0
:1041A000334803F0E9FC1421324803F0E5FCA16830
:1041B0001A48090A00230A2201F06CFE08212E4841
:1041C00003F0DAFC154801F055FEFEF71DBD328004
:1041D00002F1020902F1030C0B465FFA81F8043286
:1041E00018E726491448DFF89CA007F02DFF0028A7
:1041F0007FF429AF8AF8000025E700BF98AEFF1FC3
:10420000FAAEFF1FDC90FF1FA0AFFF1FB0CC000075
:104210004C87FF1FCCCC000000007A447C87FF1F36
:10422000D8CC00000000C842E4CC0000ECCC000078
:10423000FCCC00003DADFF1F1891FF1F9890FF1FA1
:10424000D8A1FF1F70D40000D0A2FF1FA8D4000087
:10425000E0D40000F0D40000FCD400008CCF0000BB
:1042600008D5000014D5000018D500001CD50000AA
:104270002CD500003CD5000054D5000080D40000AF
:1042800055ADFF1F3CADFF1FC4AEFF1F03F074FC14
:104290008F4B586806F006FA0024FEF7F9BE012B92
:1042A00004BF8C4B1A80FFF79FBA8B4A06921146C7
:1042B0008A4A079210468A4A03928A4A04928A4A94
:1042C00005928A4A02925A69CBF800209A69CAF884
:1042D0000020DA69C9F800201A8CA8F800205A8C4E
:1042E0003A809A8C2280DA8C0A80D3F82A207C4982
:1042F0000260D3F82E200A607A49D3F832200A608F
:104300007949D3F836200A60784AD3F83A301360F6
:1043100049E41421764803F02FFC764801F0AAFD09
:10432000E9E60F21744803F027FC00230A229AF8DB
:104330000010704801F0AEFD0E21704803F01CFC27
:1043400000230A229BF800106A4801F0A3FD012116
:104350006B4803F011FC9BF800209AF800100DA8A0
:10436000FEF784F80DA9634801F05EFD0DA801F089
:10437000B3FEFEF723BC634C634822601C2103F0AC
:10438000FBFB0E216148FFF7C8B844F2A01293422C
:1043900026D95F4C2378062B4FD005232370FEF7D8
:1043A000B1BD44F2A01293422BD95A4C2378062B6C
:1043B0004DD005232370A5E50721574803F0DCFB0A
:1043C00020E40292FDF780F8029AFEF7AFBB2A21A3
:1043D000524803F0D1FB474801F04CFDFEF714BCF6
:1043E00043F2381293423BD842F2D00293425FD854
:1043F00041F268029342464C66D800232370FEF7D0
:1044000081BD43F23812934232D842F2D002934235
:1044100047D841F2680293423E4C51D800232370A2
:1044200070E507213E4803F0A7FBFFF7EBBB072130
:104430003C4803F0A1FBFFF7E5BB04232370FEF724
:1044400061BD0721384803F097FBFFF7DBBB04236E
:10445000237057E535492748FCF71AF8FFF7D2BB18
:104460002B4C2378052BE8D103232370FEF74ABD9C
:10447000284C2378052BEAD10323237042E52C49ED
:104480001C48FCF705F8FFF7BDBB2A491948FBF7A4
:10449000FFFFFFF7B7BB28491648FBF7F9FFFFF707
:1044A000B1BB1C4C2378042BE6D10223237029E5F1
:1044B000174C2378042BD7D102232370FEF722BD9B
:1044C0002378032BF1D1A9E72378032BF4D194E7C8
:1044D0002887FF1FA2AEFF1F9690FF1FE4B0FF1FAB
:1044E0007CAFFF1F30ADFF1FCCA2FF1FB8A2FF1F84
:1044F00090D400007C87FF1F74CC000084CC0000A7
:104500008CCF0000C4A1FF1F10CD000030CD0000F3
:104510008491FF1FA0AFFF1FB8CD000040D1000065
:10452000C0CD0000C8CD0000D0CD0000D8CD000027
:10453000ECCD0000F8CD000004CE0000034BB3F832
:10454000683B0BB1FEF786B9704700BF5896FF1F56
:104550007E2808B50CD07D2803D0BDE8084002F0C5
:1045600057B902F055F95D20BDE8084002F050B996
:104570007D2002F04DF95E20BDE8084002F048B908
:1045800038B50D4B1B78012B04460D4602D0012097
:10459000FBF770FF204655B1FFF7DAFF074B18888D
:1045A000204400EB102000F0FF00188038BDBDE86B
:1045B000384002F02DB900BFF4B0FF1FDAA1FF1F91
:1045C00010B5204B1B7882B0012B0092ADF806107D
:1045D000044602D00120FBF74DFF00217E20FFF7AB
:1045E000CFFF20460021FFF7CBFF01211020FFF76E
:1045F000C7FF9DF80600144C0121FFF7C1FF9DF88D
:1046000007000121FFF7BCFF9DF800000121FFF723
:10461000B7FF9DF801000121FFF7B2FF9DF80200EE
:104620000121FFF7ADFF01219DF80300FFF7A8FF6F
:104630002078C043C0B2FFF78BFF0023238002B075
:1046400010BD00BFF4B0FF1FDAA1FF1F1A4B1B49BA
:104650001B681B4A002B70B41A4C20DBA4FB03031D
:104660005C0904EB4404002364000C6013701D46D5
:1046700000221346012000FA03F101331E2B42EA07
:104680000102F8D1104E336822402B4313433360AC
:104690001A464FF400611B2070BCFFF791BF5B42CC
:1046A000A4FB0334640904EB4404640001230C609C
:1046B00013704FF08045DBE708A5FF1FA490FF1F94
:1046C00024A2FF1F1F85EB51E490FF1F38B51D4B3F
:1046D0001868002825DB06F037FC1B4906F08CFC27
:1046E00006F08CFE194A1A4B106002221A704FF025
:1046F000004500221346012404FA03F101331E2B66
:1047000042EA0102F8D1134C236802402B431343C1
:104710001A4623604FF400611B20BDE83840FFF7C4
:104720004FBF404206F010FC074906F065FC06F05A
:1047300065FE064A064B106003221A704FF0404592
:10474000D7E700BF04A2FF1F8FC2753D9CAFFF1FBC
:1047500024A2FF1FE490FF1F2DE9F0435B4E337846
:104760008FB0002B47D05A4A1478A34280F294802D
:10477000584A5948D55C0768584C13442A0693F8A0
:1047800003E093F8018093F802C084F801800EF0F2
:104790007F0302F0FE421A434FEA0841BCF1000FCA
:1047A00018BFB8F1000F47EA020701F4FE014FEA13
:1047B0000C2241EA070102F4FE420CBF0123002350
:1047C0000A43002D08BF43F00103026084F802C0D1
:1047D00084F803E02570002B63D1BEF1000F60D098
:1047E0004FF4A0411B20FFF7EBFE33780433337006
:1047F0000FB0BDE8F083DFF8E880B8F81C72002F36
:104800005FD0D8F8144204F1350CC8F814C204F192
:104810003009EE4620686168A268E36875460FC5F6
:1048200010344C45AE46F5D1206828602C4B2279D7
:104830002A7103F2122294456C4628BFC3F8143241
:104840000FCCDFF8A890DFF8A0C0DFF884E04D4679
:104850000FC50FCC0FC50FCC0FC594E8030045F86A
:10486000040B99F8333099F8000029701A1D09F1EA
:1048700001018CF80000013F16488EF800301C46FC
:10488000A8F81C7201F09EFC3378164A99F834108F
:104890001170A342FFF66CAF002333700FB0BDE878
:1048A000F083114B1B785C05990304F4000401F4B8
:1048B0000041DB01214303F080030B431A430260F4
:1048C0008EE7B847B8F81C729BE700BF88AFFF1FA0
:1048D00010AFFF1F1496FF1FE490FF1FC890FF1F2B
:1048E000D0A2FF1F40AFFF1F6491FF1FC4AEFF1F88
:1048F000F8B5264B1B78062B46D0254B254C1B784C
:10490000254D264A2478264826492C701278DD1138
:10491000EBB203700B7072BB2349244B0868013063
:10492000C0B218702249234B91F800E0224E1F7844
:10493000336864014FEA4E2E04F060010EF40074F7
:104940000C43BF0244EA030107F44067120302F478
:1049500080523943114341EAC51141EA052300F071
:104960001F0003431A46336045F201011B20BDE8D6
:10497000F840FFF725BE114B114918780978FDF76B
:1049800007FE0A4B1870CDE7F8BD00BF94A2FF1FC9
:10499000F9AEFF1F3CADFF1F40AFFF1FB0A2FF1FCE
:1049A000EAB0FF1F24A5FF1F7C91FF1F1FA5FF1F5B
:1049B000C0AEFF1FF4A4FF1FE490FF1F6591FF1F0F
:1049C00026A5FF1FF8B5204B20491868204C06F09B
:1049D00013FB204906F008FA06F010FD1E4A1F4B93
:1049E0001A4987B21F80106806F006FB1C4906F0C2
:1049F000FBF906F003FD1B49002380B21A46208014
:104A00000B80012505FA03F401330B2B42EA040263
:104A1000F8D1154E34683A40C002224300210125E6
:104A200005FA03F40133152B41EA0401F8D10140E2
:104A300041EA02031A46336045F206011B20BDE835
:104A4000F840FFF7BDBD00BFF0B0FF1F0000A04061
:104A50005E91FF1F00006144B8AFFF1F38AFFF1F1A
:104A60000000E14322A5FF1FE490FF1F30B43A4A43
:104A70001378052B0AD80133DBB2591E13700529B0
:104A800009D8DFE801F01F08080A4C353349012036
:104A900000230870137030BC7047314A314B1568E1
:104AA0000421002219700120134600FA03F101339A
:104AB000182B42EA0102F8D12B4C21682A4041F020
:104AC000806340E029492A4A264B0D781560012071
:104AD00000221870134600FA03F10133182B42EA42
:104AE0000102F8D1204C21682A4041F080732AE06D
:104AF0002049214A1B4B0D781560062100221970B0
:104B00000120134600FA03F10133182B42EA010297
:104B1000F8D1154C21682A4041F0C06313E0174AD0
:104B2000104B15680521002219700120134600FA68
:104B300003F10133182B42EA0102F8D10A4C216833
:104B40002A4041F0A063134323601A4645F207014F
:104B50001B2030BCFFF734BDA090FF1F25A5FF1F11
:104B60000CA5FF1FCEA1FF1FE490FF1F94A2FF1F03
:104B7000ECB0FF1FE890FF1FF0A1FF1F14A5FF1F5F
:104B80002DE9F84F8A4D95F800A0BAF1040F00F313
:104B9000C380884E36F81A00A0F2DC5006F0D8F92F
:104BA000854906F029FA002104464FEA9A0906F0E1
:104BB000D5FB002800F0B6804FF07C51204606F06F
:104BC00013F906F0F5FB4FFA80F86FF03E039845B5
:104BD0000AF10102B8BF9846B8F13F0F36F812004B
:104BE000764CA8BF4FF03F08A0F2DC5084F801805B
:104BF00006F0AEF9704906F0FFF90021074606F00D
:104C0000ADFB002800F0CC804FF07C51384606F018
:104C1000EBF806F0CDFB47B26FF03E039F420AF17E
:104C20000202B8BF1F463F2F36F81200A8BF3F2729
:104C3000A0F2DC50A77006F08BF95F4906F0DCF9B2
:104C40000021834606F08AFB002800F0A1804FF087
:104C50007C51584606F0C8F806F0AAFB42B26FF045
:104C60003E039A420AF1030AB8BF1A463F2A36F8B1
:104C70001A001646A8BF3F26A0F2DC50E67006F0E8
:104C800067F94D4906F0B8F90021824606F066FB47
:104C9000002875D04FF07C51504606F0A5F806F07C
:104CA00087FB40B26FF03E039842DFF818E1B8BFCF
:104CB00018463F28DEF80030A8BF3F2009F00F0952
:104CC000B8F1000F207149EA03034FDB4FEA0811E6
:104CD00001F47C7141EA0304002F3EDBFB0203F484
:104CE000FC3343EA0401002E2EDBB20402F47C0202
:104CF00042EA010300281DDB420602F0FC421A438F
:104D0000CEF8002045F2F1011B20FFF759FC2B786B
:104D100004332B70BDE8F88F0023294A2B701370E1
:104D2000BDE8F88F4FF07C51204606F05BF806F0A6
:104D30003FFB48E74242520602F0FC4242F000428A
:104D40001A43CEF80020DDE77242920402F47C029E
:104D500042F0807242EA0103CCE77B42DB0203F4BB
:104D6000FC3343F4003343EA0401BCE7C8F100011B
:104D7000090101F47C7143F4806341EA0304ABE769
:104D80004FF07C51504606F02DF806F011FB88E7F5
:104D90004FF07C51584606F025F806F009FB5DE718
:104DA0004FF07C51384606F01DF806F001FB32E763
:104DB000A890FF1F70AEFF1F2506013E14A2FF1F23
:104DC00034ADFF1FE490FF1F144B1B7810B50BB3DD
:104DD000134B187806F0BCF8124906F0C1F906F03A
:104DE0000DFB114B186000221346012404FA03F155
:104DF0000133202B42EA0102F8D10C4C2368024017
:104E0000134323601A464FF201111B20BDE81040E6
:104E1000FFF7D6BB044BFF201860E4E710A2FF1F8A
:104E20005C91FF1F5C8F22405496FF1FE490FF1F90
:104E300010B50129044680EAE070A0EBE47026D0AA
:104E4000022907D0032903D1012A5AD0022A36D0D9
:104E5000002010BD012A3CD0022AF9D1632840F37A
:104E60008580B0F57A7F80F29A8006F06DF86B4904
:104E700006F0C2F803F08CFA06F0C0FAC0B2800067
:104E800040F00100002CE4DA40F4007010BD012A6B
:104E9000DED1092864DD95287DDC06F055F85F49F0
:104EA00006F0AAF803F074FA06F0A8FAC0B24000BF
:104EB00040F00100002CCCDA40F0200010BDB0F52D
:104EC0007A7F37DA800080B2002CC2DA40F480505A
:104ED00010BD632847DD40F2F54398425DDC06F0E3
:104EE00033F84E4906F088F803F052FA06F086FAD5
:104EF000C0B2400040F00100002CAADA40F48070FB
:104F000010BDB0F57A7F34DBB0F5205F59DA06F0DA
:104F10001BF8424906F070F803F03AFA06F06EFA10
:104F200080B2400040F0010080B2002C91DA40F4E1
:104F3000006010BD42F20F7398421DDD384B98425D
:104F400042D806F001F8374906F056F803F020FA87
:104F500006F054FA80B2800040F0020080B2B3E75D
:104F6000400080B2A6E7400080B2C5E7800080B272
:104F700088E7400080B2D8E705F0E6FF274906F051
:104F80003BF803F005FA06F039FA80B2800040F0F1
:104F9000010080B298E71F208CE7FF20ACE742F2C7
:104FA0000F73984222D805F0CFFF1E4906F024F86F
:104FB00003F0EEF906F022FAC0B2800040F00200E1
:104FC00060E740F2FF70B0E7B0F57A2F1FD205F02E
:104FD000BBFF154906F010F803F0DAF906F00EFAF7
:104FE00080B2800040F0030080B26DE70F4B984222
:104FF00010D805F0A9FF0C4905F0FEFF03F0C8F931
:1050000006F0FCF9C0B2800040F003003AE740F639
:10501000FF7059E740F2FF1034E700BFCDCCCC3D24
:105020009F8601000AD7233C6F12833A17F00100D4
:10503000F8B52D4B2D4A1B780F2B4ED90F2313702B
:105040009E462B4A2B4B11782B4E03290A4628BF2C
:10505000032203291A70336842D90339CFB2BC0343
:1050600004F4404C25482649058809682548120162
:1050700002F030021A4380FB013042EA0E03224A5A
:10508000DFF890E0C917A2FB05250222C1EB6010F2
:10509000114643EA0C048EF80070FFF7C9FEC5F311
:1050A000C7051A4B07460122284602211F60FFF759
:1050B000BFFE174BDFF860E0BF053B40C5B223439E
:1050C00043EA85138EF800501A46336045F2020118
:1050D0001B20BDE8F840FFF773BA9E461370B0E797
:1050E0004FF0000C6746BDE720A5FF1F5D91FF1F35
:1050F0007287FF1F19A2FF1FE490FF1F36AFFF1F2B
:10510000A8A2FF1F1F85EB51CDCCCCCC7891FF1FFF
:105110000000C07F1291FF1F1EA5FF1F1E4B1F49DD
:105120001A881F4870B51F4C1F4D00882B68A4FBC0
:1051300002425209C2F308040A801C4305F008FF2A
:105140001A4905F059FF03F023F906F031F901225D
:105150000221FFF76DFE164A164B11881880400297
:1051600000F4FF3343EA04024E041123002101241A
:1051700004FA03F00133202B41EA0001F8D1314059
:1051800041EA02032B601A4645F203011B20BDE8E9
:105190007040FFF715BA00BFFAAEFF1FC090FF1FA7
:1051A000DC90FF1F1F85EB51E490FF1FCDCCCC3D61
:1051B000CC90FF1F1091FF1F2DE9F04FDFF8649393
:1051C000C249D9F80400C24EDFF85C83C14FC24D1A
:1051D000C24C89B005F0C4FFC14905F00DFF8346FC
:1051E000BA49D9F80000C6F800B005F0B9FFBC49CB
:1051F00005F002FF8246B549D8F80400C7F800A0C0
:1052000005F0AEFFB64905F0F7FE8146AF49D8F884
:105210000000C5F8009005F0A3FFB14905F0ECFED1
:10522000804659464846C4F8008005F0DBFD05F08D
:1052300039FA02460B46CDE9062303F065F8CDE9BD
:105240000001404605F02EFA8046894603F012F828
:10525000CDE90201504605F025FA82468B4603F05F
:1052600009F8CDE904014046494603F04DF880466F
:1052700089465046594603F047F8DDE90623824641
:105280008B461046194602F0F5FF42464B46CDE9E3
:105290000601DDE9040105F059FA52465B46DDE9F5
:1052A00002AB804689465046594605F04FFADDE983
:1052B000062305F04BFA02460B464046494605F0E8
:1052C00091F85246804689465B46DDE9000105F0CB
:1052D0003DFA42464B4603F0D7F805F02FFD7B49D7
:1052E00005F08AFE7E4905F03BFF0021804606F06E
:1052F00021F8002840F0E4807A4BDFF830A2C3F8B0
:105300000080404606F054F883B2A3F1B40000B226
:105310000028BCBF03F1B40000B2B0F5B47FA8BF51
:10532000A0F5B470704BA8BF00B2188005F010FE55
:105330006E4905F061FE06F03BF824683F68AAF864
:1053400000003946204605F04DFD694B3168804626
:10535000C3F80080286805F045FD664B05461860D7
:105360004FF07C51404605F047FE05F09BF902F0F6
:10537000CBFFCDE9000128464FF07C5105F03CFE03
:1053800005F090F902F0C0FF80463846894605F0E6
:1053900089F902F06FFF064620460F4605F082F9B4
:1053A00002F068FF424604460D464B4640464946D9
:1053B00005F0CCF932463B4605F0C8F922462B46AB
:1053C00005F0C4F9DDE9002304460D4610461946F0
:1053D00005F0BCF90B4602462946204605F004F8C4
:1053E00005F0ACFC444A106005F05CF903F04EF89F
:1053F00002F0F2FF02460B4604F0F6FF05F09EFCB9
:105400003E4B3F49186005F0F7FD3E4B3E4A1B7886
:105410001060002B52D005F0CBFF80B205F094FD58
:1054200002F0B6FF05F0C4FF384B394E1B6803216C
:1054300086FB0326DB170222C3EB6616FFF7F8FC98
:10544000344A002336B210801C46012101FA04F2CE
:1054500001340C2C43EA0203F8D12F4D2A68034093
:10546000304643EA020705F073FD02F091FF05F0B4
:105470009FFF02220321FFF7DBFC284B00B21880BC
:1054800000220303012606FA04F10134182C42EA33
:105490000102F8D11A403A430028BAF90030B8BFE7
:1054A00042F0807242EA43631A4645F204011B202F
:1054B0002B6009B0BDE8F04FFFF782B81846B3E79C
:1054C0004046174905F090FC804615E7000034433C
:1054D00098A2FF1F3CAFFF1F9CA2FF1F40ADFF1F04
:1054E000DB0F49409C90FF1FFCA1FF1F4CA6AA3E6A
:1054F000E090FF1FD8B0FF1F08A2FF1FD4A1FF1F1D
:10550000706DC24AF5A1FF1F9090FF1FF8A1FF1F09
:105510001F85EB51F890FF1FE490FF1F1691FF1FAE
:105520000000B443B090FF1F00AFFF1F1491FF1F96
:105530002DE9F84F334B34491868344F344CDFF8B9
:10554000DCA0DFF8DC8005F057FD324B2E49064623
:10555000186805F051FD304B8346B3F9000000EBAD
:105560008000400005F0F4FC00218146304605F043
:10557000E1FE3D68002842D1304602F009FF05F007
:1055800017FF01220221FFF753FC064605F0DCFC61
:105590002060584602F0FCFE05F00AFF01220221BD
:1055A000FFF746FCF6B246EA0504064605F0CCFCD9
:1055B000760206F4FF334FF07C51CAF800004846EB
:1055C00043EA040605F018FDC8F8000005F016FFD0
:1055D000012500214004112305FA03F401331C2B9B
:1055E00041EA0401F8D1014041EA06031A463B6052
:1055F00045F205011B20BDE8F84FFEF7E1BF45F479
:105600008075B9E76091FF1F00002041E490FF1F03
:10561000ACAFFF1F38ADFF1FD090FF1F54AFFF1F6F
:105620009CAEFF1FF8B5224B22481B88224D234F0A
:10563000A0FB0330400905F08BFC214B186005F0FE
:10564000DDFE204A2B68C0F30804B2F900001C43B9
:1056500005F07EFC1C4905F0CFFC02F099FE05F038
:10566000A7FE01220221FFF7E3FB064605F06CFCD2
:10567000164A38601188730203F4FF3343EA0402C8
:105680004E0411230021012404FA03F00133202BDE
:1056900041EA0001F8D1314041EA02031A462B6089
:1056A00045F208011B20BDE8F840FEF789BF00BFA6
:1056B000FAAEFF1F1F85EB51E490FF1FBCAFFF1F29
:1056C00010A5FF1FDC90FF1FCDCCCC3DA2AEFF1F6D
:1056D0005149524A524B5348098812881B68B0F905
:1056E00000002DE9F047504CDFF860A14F4F2180BA
:1056F000AAF800203B6005F02BFC4D4A4D4B0546B7
:105700001D60108805F024FC4B4905F075FC4B4AE0
:10571000034619461360284605F064FB05F048FE71
:1057200000B205F015FC464902F00CFF00210546C9
:1057300005F000FE002862D1284605F039FE414BF5
:10574000DFF80C91163083FB00230344C017C0EB35
:10575000631000EA0909B9F1000F56DB3A4B2588BE
:1057600083F8009000231C46012101FA04F2013461
:105770000A2C43EA0203F8D1BAF80000DFF8D4801B
:105780001D4005F0E1FB02F003FE05F011FE0222D0
:105790000321FFF74DFBD8F80060AAF800004FEA9C
:1057A000802C234600224FF0010E0EFA03F1013344
:1057B000162B42EA0102F8D138680CEA020402F022
:1057C000E7FD05F0F5FD01221146FFF731FB46EA42
:1057D00049768246354305F0B7FB4FEA8A5A2C4397
:1057E0000AF07C6A44EA0A0438602246C8F800409D
:1057F00045F209011B20BDE8F047FEF7E1BE28464F
:105800000F4905F0F1FA054696E709F1FF3969F00D
:10581000070909F10109A1E7A4AEFF1FD0A1FF1FED
:105820005891FF1F44ADFF1F86AFFF1F00A5FF1F4C
:105830009690FF1FD490FF1F0AD7233C7491FF1F3F
:105840000000B443B7600BB6ACA2FF1F5491FF1F1A
:1058500007000080E490FF1F2DE9F843254B2649FF
:105860001868264DDFF8A890254F05F0C5FB25499F
:10587000254B264A0C881C801F490646106805F0F7
:10588000BBFB8046304602F083FD05F091FD01220E
:105890000221FFF7CDFA064605F056FB24022B68DD
:1058A000C9F8000004F4FE442343F6B240461E4308
:1058B00002F06EFD05F07CFD02220321FFF7B8FA2D
:1058C000044605F041FBE203386000230F20012469
:1058D00004FA00F101301B2843EA0103F8D1134018
:1058E00033431A462B6045F2F201BDE8F843FEF758
:1058F00067BE00BFECA1FF1F00002041E490FF1F26
:10590000B4AEFF1FB8AEFF1F26A2FF1FAC90FF1F53
:1059100094AEFF1FF0B5954C23685A1EA1B00F2A14
:1059200050D8DFE812F05E0169007F00950010009A
:10593000B300B500B1004F0103012001B700D00052
:10594000E90001015A008A4D2B688A4E1793179B74
:105950003268874F9B1AB3F5A77F80F0B681236822
:10596000013323602B68844E1593159B3268804F5A
:105970009B1AB3F5A77F80F09881236801332360D9
:105980002B687E4E1393139B3268794F9B1AB3F5A5
:105990007A7F00F27A812368013323602B68784E86
:1059A0001193119B32689B1AB3F5FA7F40F2328152
:1059B000744B1B78022B00F290812B681093109B84
:1059C00033602368704A6949127801339342236037
:1059D00001D901230B6021B0F0BD654D2B686B4DE3
:1059E0000293029B2A68624E9B1AB3F5FA7F00F27B
:1059F000158123680133E5E75D4D2B68644E1D93E7
:105A00001D9B32689B1AB3F5A77FC0F02C815D4BBC
:105A10001B78022B00F236812B681C931C9B336091
:105A20002368CFE7524D2B685A4E1B931B9B32685D
:105A30009B1AB3F5A77FC0F00A81524B1B78022B4B
:105A400000F21D812B681A931A9B33602368B9E713
:105A5000474D514BB3F81C3223B9504B1B78002BE8
:105A600000F0D4802B684E4E1993199B3268404F3A
:105A70009B1AC82B40F2CA80FEF76EFE3B68189353
:105A8000189B336023689DE7394D87E7384D69E7F8
:105A9000374D75E7364D434B1B88002B00F0B28025
:105AA0002B68414E0993099B3268314F9B1AB3F51D
:105AB0007A7F40F2A780FFF7B5FD3B680893089B0B
:105AC000336023687EE72A4D384B1B78002B00F0AB
:105AD00095802B68364E0793079B3268244F9B1A9C
