:1000000000800020BD0100006D5D0000255D000046
:10001000255D0000255D0000255D0000255D0000D8
:10002000255D0000255D0000255D00006D5D000080
:100030006D5D0000255D0000B17A0000B57B000019
:100040006D5D00006D5D00006D5D00006D5D000088
:100050006D5D00006D5D00006D5D00006D5D000078
:100060006D5D00006D5D00006D5D00006D5D000068
:100070006D5D00006D5D00006D5D00006D5D000058
:100080006D5D00006D5D00006D5D00006D5D000048
:100090006D5D00006D5D00006D5D00006D5D000038
:1000A0006D5D00006D5D00006D5D00006D5D000028
:1000B0006D5D00006D5D00006D5D00006D5D000018
:1000C0006D5D00006D5D00006D5D00006D5D000008
:1000D0006D5D00006D5D00006D5D00006D5D0000F8
:1000E0006D5D00006D5D00006D5D00006D5D0000E8
:1000F0006D5D0000FD6300006D5D00004567000060
:100100006D5D0000D17C00006D5D00006D5D000044
:100110006D5D00006D5D00006D5D00006D5D0000B7
:100120006D5D00006D5D00006D5D00006D5D0000A7
:100130006D5D00006D5D00006D5D00006D5D000097
:100140006D5D00006D5D00006D5D00006D5D000087
:100150006D5D00006D5D00006D5D00006D5D000077
:100160006D5D0000056A00006D5D00006D5D0000C2
:100170006D5D00006D5D00006D5D00006D5D000057
:100180006D5D00006D5D00006D5D00006D5D000047
:100190006D5D00006D5D00006D5D00006D5D000037
:1001A0006D5D00006D5D00006D5D00006D5D000027
:1001B0006D5D00006D5D00006D5D0000564B4CF202
:1001C000205210B51A804DF628121A8000BF00BFC9
:1001D00005F0D0FD514B4FF010621A60504A9A6002
:1001E000504ADA60504A136813F4807304D14F49BF
:1001F0000B604FF4A85313604D4B1A78110703D5C9
:100200001A7842F008021A704A4B4B492A221A7097
:100210004A4A4B4B8B4204D252F8040F43F8040B6A
:10022000F8E7484B484900228B4202D243F8042B9E
:10023000FAE74649464A002352F8230041F82300D2
:1002400001336F2BF8D1434B434A802103F8011B44
:100250009342FBD1414B3D4A1A60414B8A221A70AE
:10026000A3F5805324225A70A0221A709A7992071B
:10027000FCD59A79D406FCD43A4A937903F00C035E
:10028000082B384BF9D103221A7140225A719A79FE
:100290009006FCD5334A9179324B4906FBD5324A58
:1002A000324911600221516020221A709A7902F0BD
:1002B0000C020C2AFAD12E4B2E4A1A602E4B2F4AD2
:1002C0001A6000225A60072243F8042C2C4AC3F813
:1002D0000C2D62B605F088FE144B1B68DA0705D5B5
:1002E000284805F007FE284B284A1A60284B1B783F
:1002F0005B0609D5244C254B22689A4204D121483B
:1003000005F0F8FD002323600AF05AFE05F038FDE1
:1003100005F066FCFEE700BF0E200540308004407B
:10032000823F04000100002B10D0034014D0034092
:1003300002D0074000E007407490FF1F4CD9000036
:100340002087FF1F7890FF1FDCBDFF1F0082FF1F6B
:100350000000000000E400E05FE400E008ED00E0E1
:100360000050064000400640448004400000030165
:1003700004800440C010050014E000E0FF76010096
:1003800000002020FC36345D1CE00340A5C3945AD5
:1003900000F00740FFFFFFFFFFFFFFFFFFFFFFFF32
:1003A000FFFFFFFFFFFFFFFFFFFFFFFFFFFFFFFF5D
:1003B000FFFFFFFFFFFFFFFFFFFFFFFFFFFFFFFF4D
:1003C000FFFFFFFFFFFFFFFFFFFFFFFFFFFFFFFF3D
:1003D000FFFFFFFFFFFFFFFFFFFFFFFFFFFFFFFF2D
:1003E000FFFFFFFFFFFFFFFFFFFFFFFFFFFFFFFF1D
:1003F000FFFFFFFFFFFFFFFFFFFFFFFFFFFFFFFF0D
:10040000FFFFFFFFFFFFFFFFFFFFFFFFDEF9FFFF23
:1004100010B5054C237833B9044B13B10448AFF33E
:1004200000800123237010BD7890FF1F00000000A2
:1004300050D90000084B10B51BB108490848AFF36C
:1004400000800848036803B910BD074B002BFBD0A0
:10045000BDE81040184700BF000000007C90FF1F5F
:1004600050D900007490FF1F00000000044B0549A4
:100470001A68137843F0200313700870704700BFA8
:1004800020B9FF1FDCBAFF1F2DE9F0413E4D3F4B65
:10049000AA78EC780021FE2A19705CD0012C0BD9C7
:1004A0002B19DB7A13B107E0DB7A2BB9013CE4B2FC
:1004B000012C05EB0403F7D1AB68354E324F327097
:1004C000C3F317231A121814A97995F8048095F824
:1004D00005E03272F371EA792B7A707231717271C0
:1004E00007F10C01224606F10A00747086F803E059
:1004F000B37186F8028005F07BFB04F10A0118F065
:10050000010F06EB010210D109212888107000129A
:10051000507000231944033121441E4B1C4889B2FA
:10052000BDE8F041198006F065B83B887354D7F8F0
:1005300016E1D7F81A61D7F81E5197F82201C2F8D0
:1005400002E01B125370C2F806600D23C2F80A5075
:1005500090730921DEE7AB680D4EA97995F807E0A5
:100560002F7A3270C3F317232246B170B01D05F104
:100570000C017371747086F803E0377105F038FB75
:10058000A21D32440521C0E7A0B9FF1FA8AFFF1F7D
:100590004092FF1F9C90FF1F30B5244C94F8683B9D
:1005A0000A2BCBB0224B34D02249002540F2231233
:1005B00001A81D7005F01CFBD4F8643B04F65E3501
:1005C00003F22313AB42C4F8643B08BF234601A9DE
:1005D00040F22312184608BFC4F8644B05F008FB2C
:1005E00094F8682B11490A2A034607D0501C81F859
:1005F000680B0AB9C1F8603B4BB030BDD1F8603B25
:1006000003F22313AB4208BF0B46C1F8603B4BB06B
:1006100030BD0122232108481A7007F089F80748E5
:100620004BB0BDE8304005F05DB900BFCC99FF1F6D
:10063000D2BAFF1FAC93FF1FCCC400007887FF1F06
:100640002DE9F04FADF50F7D06F038F8002838D0D1
:1006500006F044F8AE4BC1B20391DB78AC490022FE
:100660000A700F2B00F2BF81DFE813F0B201B20174
:100670009401880171015A013B0124010401E30046
:10068000BF009F005700300030001000A04BA14A6F
:100690005B7B049211465E1E9D4A9DF80C00CB1AAE
:1006A000F6B2567383F82301002E00F03582CA7823
:1006B0009949CA70964A0023937005F0FFFF0028FD
:1006C000C6D101200DF50F7DBDE8F08F0E2B914BAB
:1006D000049305D01B88039AB2EB132F00F0828697
:1006E0008B4A02231370049A9DF80C10137982F838
:1006F000151113F0010F8749854B00F0D58184480F
:100700001B780F22C270022B4FF00D02427300F0D3
:10071000A0860023CA780370CAE77E4B04939C68C6
:100720007E4DF220C4F317240346982200210AE0EC
:10073000581E43185A1C5208884202EB420240F2EB
:100740008E8155F82220013394424FEA5303EFD3B0
:100750001946EED8944200F07B8100210B46049CA0
:100760002088434083EA0313DBB2DA0082EA0322E3
:1007700082EA102282EA1313DAB22380039B9A42A0
:1007800000F01A86624B0E22DA70049B9DF80C2052
:1007900083F814215F4C29B15D4B8A791B79934210
:1007A000C0F00F86049BDA7882E7594B039D1979D4
:1007B000584B574C1E460B4401311D7330882B4655
:1007C000434083EA0313DBB2DA0082EA032282EABF
:1007D0001020F278C9B280EA13139142217133805C
:1007E0007FF466AF0C23E37062E74A4B039A1C88E0
:1007F000624082EA0212D2B2D1001D4681EA022191
:100800009B68000400F47F0081EA142140EA13236E
:1008100081EA1211EA786B72C3F307201B0CA872ED
:10082000EB722980002A00F0208139490B23CB701C
:100830003EE7384B039A1C88624082EA0212D2B229
:100840001D46D1009B68000200F47F4081EA02212E
:1008500040EA132381EA142181EA1212190CE97289
:100860002B496B72C3F307200A232A80A872EA7807
:10087000CB701DE72749264B08881C7B039B4B72D6
:10088000434083EA0313DBB2DA0082EA032282EAFE
:10089000102282EA13130020E2070B808872C872CC
:1008A0001B4B40F1FD80CA78002A00F02B810B2100
:1008B000D970FDE6174B19881C461846039B037236
:1008C0004B4083EA0313DBB2DA0082EA032282EAB6
:1008D000112282EA131323800D4BE2780821D9708C
:1008E000E6E60C4B19881C461846039BC3714B4027
:1008F00083EA0313DBB2DA0082EA032282EA1122DE
:1009000082EA13132380024BE2780721D970CFE6E5
:10091000B0AFFF1FF494FF1FAC93FF1F0CCA000081
:100920009A4B19881C461846039B83714B4083EAF7
:100930000313DBB2DA0082EA032282EA112282EA9E
:1009400013132380924BE2780621D970B0E68F4BC7
:1009500019881C461846039B43714B4083EA0313D6
:10096000DBB2DA0082EA032282EA112282EA13135E
:100970002380874BE2780521D97099E6834C9DF856
:100980000C30237110F0FE0F73D08149E2780123FF
:10099000CB708DE67D497E4B039D08881C7BCD7016
:1009A0002B46434083EA0313DBB2DA0082EA0322D8
:1009B00082EA102282EA13130B80754B0022E007B3
:1009C0001A7169D505200A714A71D8702A466FE6F6
:1009D000039BFD2B00F0DB84039BFE2B00F0FB84CC
:1009E0006A4BDA7864E6694B04931A46694BD2780D
:1009F000DA70674B00249C70A31E012B16D9002CC3
:100A00003FF422AEFFF7C8FD1EE6624A9DF81410BF
:100A1000D1705F490023022C8B70EDD1049890F8BF
:100A2000151190F8143143EA0123138003985849B3
:100A300001230022FD288B700A7001D0CB7003E6E1
:100A4000049D02204FF6FF73EA70C8702B80FBE50F
:100A5000514B01EB410103EB81010B797FE64E4BDA
:100A600001EB410253F8222074E649490C23CB7074
:100A70001EE62088039BE278434083EA0313DBB23F
:100A8000D90081EA032181EA102181EA131323802E
:100A90003F4B0421D9700BE60321039AD97007E676
:100AA0000920CA78D87003E61B693BB11B6B002B89
:100AB0002BD089683648090A984730B3344B1C78E4
:100AC000334D324933480123EB7040F2231205F0D5
:100AD0008FF8049BDB780593012C96D12C4B049A5C
:100AE0002B491B8992794A7103B94B8128482949BE
:100AF00001330022038182709DF81430CB70FFF720
:100B00004BFDA1E50C21D970D2E5214B1C78022CBC
:100B1000D6D003241C70D3E71369526910931D4685
:100B20001192002B00F08E8455F8100F1B4C379457
:100B30001B4C6968AA68EB681A4F38941A4C3D94AC
:100B40003A97DFF870E0194FDFF86CC03C973EAC85
:100B5000CDF8ECC0CDF8E4E00FC4049B2869DA7846
:100B60006969EB6905921746AA6935963D460A35CB
:100B70000FC4049B0295ED0005F580750C4E36966A
:100B800002333495069320241CE000BFF494FF1F29
:100B9000B0AFFF1FAC93FF1F0CCA000085AE67BB50
:100BA00072F36E3C7F520E5119CDE05BABD9831FBF
:100BB00067E6096A3AF54FA58C68059B029B002BF6
:100BC00000F0CD80029D069EC4F14003AB4228BFD9
:100BD0002B46ED1A02953EA8354620441D441C4480
:100BE0001A463146069505F003F8402CE6D134AAA2
:100BF00022AB92F82B0092F82A101870597092F8D4
:100C0000290092F82810D970987032A904339942BB
:100C100002F10402EDD1369B0793379B0893389B72
:100C20000993399B0A933A9B0B933B9B0C933C9BF8
:100C30000D930DF59A7A3D9B0E93524621AB53F8D6
:100C4000041F42F8041F31A98B42F8D10DF5B67884
:100C50000DF5AC7C0DF59C7E5DAF5646302558F801
:100C6000044F5EF8043F56F8042F5CF8041F4FEA67
:100C7000F440114480EA74404FEAB34280EA942081
:100C800082EAF312014482EAD3030B44013D47F8A0
:100C9000043FE4D10E9ADFF8B892A94BDDF828B0F2
:100CA000DDF820E0099F079EDDF834C0DDF83080D4
:100CB00001920B9D0AE059F8043FCDF804C0BB46F1
:100CC000C4467746A846B646254606464FEAF5226C
:100CD00005EA080182EAB5122CEA050482EA756287
:100CE0004C405AF8041F144421441944019B87EADC
:100CF0000E024FEA7630194402EA060480EAB60092
:100D000007EA0E028F4B544080EAB65020444B4510
:100D100001EB0B040844CED10A99079A39440F46D7
:100D20000B99399721440C460C993A940244294472
:100D300013460D46089A0D9936933244414416469F
:100D40000846099A0E99029B37967244614438927C
:100D50003B953C903D910024002B7FF433AF349CB5
:100D600004F110039C42349300F27C83764B07938A
:100D70000223C4F3C504069303E0069B002B00F096
:100D8000D080069D079EC4F14003AB4228BF2B468E
:100D9000ED1A06953EA8354620441D441C441A46CB
:100DA0003146079504F024FF402CE6D134AA22AB4B
:100DB00092F82B0092F82A101870597092F82900B6
:100DC00092F82810D970987032A90433994202F130
:100DD0000402EDD1369B0893379B0993389B0A9305
:100DE000399B0B933A9B0C933B9B0D933C9B0E932F
:100DF0000DF59A7A3D9B0F93524621AB53F8041F91
:100E000042F8041F31A98B42F8D10DF5B6780DF5E3
:100E1000AC7C0DF59C7E5DAF5646302558F8044FEE
:100E20005EF8043F56F8042F5CF8041F4FEAF440C4
:100E3000114480EA74404FEAB34280EA942082EA87
:100E4000F312014482EAD3030B44013D47F8043F07
:100E5000E4D13B4B0F9ADFF8F890DDF82CB0DDF8C9
:100E600024E00A9F089EDDF838C0DDF83480019246
:100E70000C9D02930BE0CDF804C0C446A8461D4665
:100E800059F8043F0293BB467746B64606464FEAFA
:100E9000F52205EA080182EAB5122CEA050482EA85
:100EA00075624C405AF8041F019B144487EA0E02F5
:100EB00021444FEA763002EA060407EA0E0219449A
:100EC0005440029B1F4A80EAB60080EAB65019449B
:100ED00020444A4501EB0B030844CCD10B99089AF6
:100EE00039440F460C99399719440B460D993A939A
:100EF0000244294414460D46099A0E99069B3694DD
:100F000032444144164608460A9A0F99379672446D
:100F1000614438923B953C903D910024002B7FF436
:100F200030AF349C04F138039C42349300F2968233
:100F3000064B07930723C4F3C50406930EE000BFD6
:100F4000982F8A4208CA00000896FF1F0A96FF1FC2
:100F50000CC90000069B002B00F0D080069D079E68
:100F6000C4F14003AB4228BF2B46ED1A06953EA8BC
:100F7000354620441D441C441A463146079504F06A
:100F800037FE402CE6D134AA22AB92F82B0092F81F
:100F90002A101870597092F8290092F82810D97008
:100FA000987032A90433994202F10402EDD1369BC4
:100FB0000893379B0993389B0A93399B0B933A9B71
:100FC0000C933B9B0D933C9B0E930DF59A7A3D9BA6
:100FD0000F93524621AB53F8041F42F8041F31A966
:100FE0008B42F8D10DF5B6780DF5AC7C0DF59C7EF5
:100FF0005DAF5646302558F8044F5EF8043F56F86A
:10100000042F5CF8041F4FEAF440114480EA744056
:101010004FEAB34280EA942082EAF312014482EA62
:10102000D3030B44013D47F8043FE4D18B4B0F9AA7
:10103000DFF83092DDF82CB0DDF824E00A9F089E3E
:10104000DDF838C0DDF8348001920C9D02930BE08E
:10105000CDF804C0C446A8461D4659F8043F029383
:10106000BB467746B64606464FEAF52205EA080132
:1010700082EAB5122CEA050482EA75624C405AF8FD
:10108000041F019B144487EA0E0221444FEA763084
:1010900002EA060407EA0E0219445440029B704A11
:1010A00080EAB60080EAB650194420444A4501EB74
:1010B0000B030844CCD10B99089A39440F460C997C
:1010C000399719440B460D993A9302442944144622
:1010D0000D46099A0E99069B3694324441441646B1
:1010E00008460A9A0F9937967244614438923B95A4
:1010F0003C903D910024002B7FF430AF349D069945
:10110000C5F3C504C4F177068023472206F03F06E5
:101110000DF189008DF888300AF0D8FA06F109023D
:101120001046069222AA1644359B33712A0AF271A0
:101130002A0E72711A0C290CB27005EBC00295428E
:10114000B1714FEA1321F1704FEA136184BF01338B
:10115000359322AB357271703492079303E0069B8E
:10116000002B00F0D780069D079EC4F14003AB42E0
:1011700028BF2B46ED1A06953EA8354620441D444F
:101180001C441A463146079504F032FD402CE6D146
:1011900034AA12AB92F82B0092F82A1018705970EA
:1011A00092F8290092F82810D970987022A9043377
:1011B000994202F10402EDD1369B0893379B0993C3
:1011C000389B0A93399B0B933A9B0C933B9B0D9353
:1011D0003C9B0E930DF59A7A3D9B0F93524611ABB3
:1011E00053F8041F42F8041F21A98B42F8D10DF5D2
:1011F000B6780DF5AC7C0DF59C7E5DAF564630257E
:1012000058F8044F5EF8043F56F8042F5CF8041FAA
:101210004FEAF440114480EA74404FEAB34280EA56
:10122000942082EAF312014482EAD3030B44013D85
:1012300047F8043FE4D1094B0F9ADFF82890DDF816
:101240002CB0DDF824E00A9F089EDDF838C0DDF8F8
:10125000348001920C9D029312E000BF982F8A42C5
:1012600008CA00000CC90000CDF804C0C446A84656
:101270001D4659F8043F0293BB467746B6460646DC
:101280004FEAF52205EA080182EAB5122CEA0504C4
:1012900082EA75624C405AF8041F019B144487EAA5
:1012A0000E0221444FEA763002EA060407EA0E02F3
:1012B00019445440029B8E4A80EAB60080EAB65038
:1012C00019442044914501EB0B030844CCD10B9900
:1012D000089A39440F460C99399719440B460D99D1
:1012E0003A930244294414460D46099A0E99069BE6
:1012F000369432444144164608460A9A0F99379666
:101300007244614438923B953C903D910024002BFF
:101310007FF429AF9DF8DB309DF8DA20754C9DF8FD
:10132000D8008DF848308DF849209DF8D9309DF8C7
:10133000DF208DF84A308DF84B009DF8DE308DF8B7
:101340004C2004F21D1112A806228DF84D300AF02F
:1013500027F9002800F08A80109B1B6B4BB1049A80
:1013600065489168634C090A984700286AD1E37878
:101370000593614B03241C705F4D5E495F48012358
:1013800040F22312EB7004F033FCFFF7A5BB5A4B7D
:10139000584A1B7B104623F0010357499DF80C4027
:1013A0000B734FF6FF7354490380002202238470AD
:1013B000C270CB70FFF77CB94F4A0D23D370FFF793
:1013C000E4B904F10C00D21A184400210AF07EF9A5
:1013D000E278FFF76DB9484B464A1B7B104643F055
:1013E0000103DAE7444A01231370FFF77CB90F28A1
:1013F000B2D8DDE92267109B414AD3E90245921930
:101400004FF000037B41AB4208BFA242A4D3119A24
:10141000049D00EBC0041444EB79E3702B7A237134
:10142000013084F802E0053410800B6823608B885B
:101430001099A380D1E90223BB4208BFB24201D276
:10144000C1E90267049BDB7805932B4B01241C70D8
:1014500092E72A4ACB78D370FFF7E0BA359B013385
:10146000359365E5359B013335937FE404F217111D
:1014700000230022CDE92223119B08688D8894F86F
:1014800016E12290ADF88C50002B3FF465AF188820
:101490000028AED0E579267A069C04E094B2844216
:1014A00003F10903A3D0DF78AF4204F10102F5D1C3
:1014B0001F79B742F2D19F787745EFD1844296D019
:1014C000119B04EBC40423441C468EAD0022002370
:1014D00065E9402354F8050F2860A388AB80D5E95F
:1014E0000023DDE92267BB4208BFB2429DD333E748
:1014F00008CA0000F494FF1FB0AFFF1FAC93FF1F9A
:10150000808D5B002DE9F04FADF5137D00260322A1
:10151000062410AB8DF8482010968DF845608DF8A4
:1015200046608DF847608DF8444093E80700934B80
:10153000934D5E720C3303C3297B92481A70DFF817
:1015400070C28E4ADFF86CE28F4F03F80A6C0470A9
:1015500001F0020314200121D6728CF8006003F020
:10156000FF028EF80000397043BB2B69002B00F09E
:10157000F08593F800E00EEA010E8049FD238B70A0
:10158000092701F1150313F8016DF9B2002E40F09F
:10159000DC85013F012FF6D13946784C1420012318
:1015A000E170E0712372BEF1000F00F0D585237168
:1015B0004FF0080A4FF0FD0C0A2412E06F4E092389
:1015C0004FF0FE0CF0713172F37086F802C01F46C6
:1015D000194608260420694B4FF0000E824683F816
:1015E00004E0AB7965488DF84CC003F101094FF078
:1015F0000008837185F806908DF84D1080F80580FD
:10160000002A5BD014228DF84E3001238DF85180D2
:101610008DF84F208DF850304FF6FF7290460DF147
:101620004D0C50460B4601E01CF8013F534083EA45
:101630000313DBB2D900013881EA032180B281EAC9
:101640001222404582EA1312EED150480D36A0F125
:101650000C031E4410F8013B534083EA0313DBB232
:10166000D90081EA032181EA122282EA13131BB214
:10167000B0429AB2EED183F0320383EA0313DBB2B5
:10168000D90081EA032181EA12223C4982EA13133C
:101690000F441BB23B73CA780E469BB20A44191220
:1016A00051733380BEF1000F1FD1394B1B78002BD3
:1016B00040F045850DF5137DBDE8F08F90F804C02E
:1016C0008DF84EC04FF014084FF0010C8DF84F20EC
:1016D0008DF850308DF853208DF854208DF855201A
:1016E0008DF851808DF852C096E72D69F3780D93EF
:1016F000002DDAD02B78DB07D7D56B7886F816313A
:10170000D5E9022392A961E9842308688B88C6F889
:101710001701A6F81B31D5E90223013243F100037A
:10172000C5E902231B4E55F8100F3C961A4F1B4E6D
:101730006968AA68EB683D973E96194F194E3F9726
:101740004096194FDFF870E0419742AECDF8ECE0DB
:101750000FC6274628696969AA69EB6903944FF4A3
:101760008075124C3A9405EBC705002413AF04971B
:1017700039940FC62024389524E000BFA0B9FF1F7C
:10178000B0AFFF1FDEB8FF1F2AB9FF1FACB9FF1FA4
:10179000A8AFFF1F72F36E3C3AF54FA57F520E5172
:1017A0008C68059BABD9831F19CDE05B67E6096A9E
:1017B00053B0FF1FD3BAFF1F85AE67BB039B002B3F
:1017C00000F0D180039D049EC4F14003AB4228BFCA
:1017D0002B46ED1A039542A8354620441D441C446F
:1017E0001A463146049504F003FA402CE6D138AA93
:1017F00026AB92F82B0092F82A101870597092F8C4
:10180000290092F82810D970987036A904339942AB
:1018100002F10402EDD13A9B05933B9B06933C9B5E
:1018200007933D9B08933E9B09933F9B0A93409BE4
:101830000B930DF5A27A419B0C93524625AB53F8BE
:10184000041F42F8041F35A99942F8D10DF5BE785E
:101850000DF5B47C0DF5A47E61AF5646102558F801
:10186000044F5EF8043F56F8042F5CF8041F4FEA5B
:10187000F440114480EA74404FEAB34280EA942075
:1018800082EAF312014482EAD30301350B44402D6E
:1018900047F8043FE3D1B24B0C9ADFF8D092DDF861
:1018A00020B0DDF818E0079F059EDDF82CC0DDF8BC
:1018B00028800192099D02930BE0CDF804C0C44634
:1018C000A8461D4659F8043F0293BB467746B646E4
:1018D00006464FEAF52205EA080182EAB5122CEA2B
:1018E000050482EA75624C405AF8041F019B1444B7
:1018F00087EA0E0221444FEA763002EA060407EA3C
:101900000E0219445440029B964A80EAB60080EACF
:10191000B650194420444A4501EB0B030844CCD18E
:101920000899059A39440F4609993D9719440B4681
:101930000A993E930244294414460D46069A0B998F
:10194000039B3A943244414416460846079A0C9940
:101950003B96724461443C923F95409041910024F3
:10196000002B7FF42FAF389D0D9B05EBC304A542E0
:10197000389402D9399B013339930D9BC5F3C505C2
:10198000002B00F0DA800393774B049303E0039B72
:10199000002B00F0D180039C049EC5F14003A342BC
:1019A00028BF2346E41A039442A8344628441C4422
:1019B0001D441A463146049404F01AF9402DE6D12C
:1019C00038AA26AB92F82B0092F82A10187059709A
:1019D00092F8290092F82810D970987036A904332B
:1019E000994202F10402EDD13A9B05933B9B069389
:1019F0003C9B07933D9B08933E9B09933F9B0A9317
:101A0000409B0B930DF5A27A419B0C93524625AB5C
:101A100053F8041F42F8041F35A99942F8D10DF577
:101A2000BE780DF5B47C0DF5A47E61AF5646102549
:101A300058F8044F5EF8043F56F8042F5CF8041F72
:101A40004FEAF440114480EA74404FEAB34280EA1E
:101A5000942082EAF312014482EAD30301350B4455
:101A6000402D47F8043FE3D13D4B0C9ADFF8FC9042
:101A7000DDF820B0DDF818E0079F059EDDF82CC0EA
:101A8000DDF828800192099D02930BE0CDF804C097
:101A9000C446A8461D4659F8043F0293BB46774604
:101AA000B64606464FEAF52205EA080182EAB51273
:101AB0002CEA050482EA75624C405AF8041F019B27
:101AC000144487EA0E0221444FEA763002EA060403
:101AD00007EA0E0219445440029B224A80EAB600EB
:101AE00080EAB65019442044914501EB0B030844A9
:101AF000CCD10899059A39440F4609993D97194464
:101B00000B460A993E93024429440D4614460B990C
:101B1000069A039B3F953244414416460846079A6D
:101B20000C993A94724461443B963C9240904191A6
:101B30000025002B7FF42FAF389C04F11003A34243
:101B4000389302D2399B013339930D9B1A46064BC9
:101B50001A4402230492C4F3C50403930CE000BFAB
:101B6000982F8A4208CA0000ACB9FF1F0CC90000B8
:101B7000039B002B00F0D180039D049EC4F1400321
:101B8000AB4228BF2B46ED1A039542A835462044A8
:101B90001D441C441A463146049504F029F8402C93
:101BA000E6D138AA26AB92F8281092F82B5092F87A
:101BB0002A4092F82900D9701D705C70987036A97F
:101BC0000433994202F10402EDD13A9B05933B9B09
:101BD00006933C9B07933D9B08933E9B09933F9B39
:101BE0000A93409B0B930DF5A27A419B0C935246AE
:101BF00025AB53F8041F42F8041F35A99942F8D1C8
:101C00000DF5BE780DF5B47C0DF5A47E61AF56469A
:101C1000102558F8044F5EF8043F56F8042F5CF87E
:101C2000041F4FEAF440114480EA74404FEAB34283
:101C300080EA942082EAF312014482EAD303013558
:101C40000B44402D47F8043FE3D1BF4B0C9ADFF81B
:101C50000493DDF820B0DDF818E0079F059EDDF85D
:101C60002CC0DDF828800192099D02930BE0CDF88D
:101C700004C0C446A8461D4659F8043F0293BB461B
:101C80007746B64606464FEAF52205EA080182EA9B
:101C9000B5122CEA050482EA75624C405AF8041F1A
:101CA000019B144487EA0E0221444FEA763002EA8F
:101CB000060407EA0E0219445440029BA34A80EA34
:101CC000B60080EAB650194420444A4501EB0B03A4
:101CD0000844CCD10899059A39440F4609993D9793
:101CE00019440B460A993E930244294414460D4672
:101CF000069A0B99039B3A9432444144164608468F
:101D0000079A0C993B96724461443C923F954090EF
:101D100041910024002B7FF42FAF389C04F138034D
:101D20009C42389302D9399B01333993884B0493F1
:101D30000723C4F3C504039303E0039B002B00F0C7
:101D4000D180039D049EC4F14003AB4228BF2B46C3
:101D5000ED1A039542A8354620441D441C441A46FA
:101D60003146049503F044FF402CE6D138AA26AB57
:101D700092F8281092F82B5092F82A4092F82900F5
:101D8000D9701D705C70987036A90433994202F1C5
:101D90000402EDD13A9B05933B9B06933C9B079332
:101DA0003D9B08933E9B09933F9B0A93409B0B935B
:101DB0000DF5A27A419B0C93524625AB53F8041FB4
:101DC00042F8041F35A99942F8D10DF5BE780DF5FA
:101DD000B47C0DF5A47E61AF5646102558F8044F2B
:101DE0005EF8043F56F8042F5CF8041F4FEAF440F5
:101DF000114480EA74404FEAB34280EA942082EAB8
:101E0000F312014482EAD30301350B44402D47F815
:101E1000043FE3D14C4B0C9ADFF83891DDF820B049
:101E2000DDF818E0079F059EDDF82CC0DDF828805E
:101E30000192099D02930BE0CDF804C0C446A84668
:101E40001D4659F8043F0293BB467746B646064600
:101E50004FEAF52205EA080182EAB5122CEA0504E8
:101E600082EA75624C405AF8041F019B144487EAC9
:101E70000E0221444FEA763002EA060407EA0E0217
:101E800019445440029B314A80EAB60080EAB650B9
:101E900019442044914501EB0B030844CCD1089927
:101EA000059A39440F4609993D9719440B460A99FA
:101EB0003E930244294414460D46069A0B99039B0F
:101EC0003A943244414416460846079A0C993B9688
:101ED000724461443C923F95409041910024002B14
:101EE0007FF42FAF389E0399C6F3C504C4F177037E
:101EF00003F03F05802747220DF199008DF8987077
:101F000009F0E4FB05F109031F46039326AB2B44BC
:101F1000399A1A71310AD971310E300C5971110C7C
:101F200098719970100A06EBC701D8708E424FEA7B
:101F300012601E72587088BF013226AB389188BF7C
:101F4000399204930CE000BF982F8A4208CA00001F
:101F5000B6BAFF1F0CC90000039B002B00F0D18014
:101F6000039D049EC4F14003AB4228BF2B46ED1AEB
:101F7000039542A8354620441D441C441A46314668
:101F8000049503F035FE402CE6D138AA16AB92F842
:101F9000281092F82B5092F82A4092F82900D97014
:101FA0001D705C70987026A904338B4202F1040204
:101FB000EDD13A9B05933B9B06933C9B07933D9B3E
:101FC00008933E9B09933F9B0A93409B0B930DF50F
:101FD000A27A419B0C93524615AB53F8041F42F86A
:101FE000041F25A99942F8D10DF5BE780DF5B47CF2
:101FF0000DF5A47E61AF5646102558F8044F5EF8E3
:10200000043F56F8042F5CF8041F4FEAF4401144D3
:1020100080EA74404FEAB34280EA942082EAF312E5
:10202000014482EAD30301350B44402D47F8043FB5
:10203000E3D14C4B0C9ADFF83C91DDF820B0DDF891
:1020400018E0079F059EDDF82CC0DDF8288001927E
:10205000099D02930BE0CDF804C0C446A8461D4676
:1020600059F8043F0293BB467746B64606464FEA08
:10207000F52205EA080182EAB5122CEA050482EA93
:1020800075624C405AF8041F019B144487EA0E0203
:1020900021444FEA763002EA060407EA0E021944A8
:1020A0005440029B304A80EAB60080EAB650194498
:1020B00020444A4501EB0B030844CCD10899059A0A
:1020C00039440F4609993D9719440B460A993E93A6
:1020D0000244294414460D46069A0B99039B3A94F0
:1020E0003244414416460846079A0C993B9672447E
:1020F00061443C923F95409041910024002B7FF435
:102100002FAF1A4E9DF8EE3086F82231184B9DF80D
:10211000EB501B789DF8EA409DF8E9009DF8E81027
:102120009DF8EF2086F81D5186F81E4186F81F01A4
:1021300086F8201186F82121002B3FF4BBAA0DF56B
:10214000137DBDE8F04FFEF79FB94E1EB6B2FFF704
:1021500024BA9646FFF711BA08204FF0FD0C0A2466
:10216000FFF739BA982F8A4208CA0000A0B9FF1FAA
:10217000A8AFFF1F0CC900002DE9F04FADF5137D8E
:10218000012100228DF83C108DF83D108DF83E2085
:10219000934E0F98934D944C3270944E2970217049
:1021A000010CB173DFF864E290499EF80C3088812D
:1021B0008E488F4D8F4C8272FF21C27203F0020352
:1021C0002B26BE224672297003EA010022709BBBB7
:1021D000DEF81030002B00F0E1851F7807F00107D2
:1021E000824CFF21FD230225BE22E171A370E57020
:1021F00021462272002F00F0DA859EF806208DF825
:102200004C3013AC501C8EF80600002301208A715C
:10221000657008714B710A250821744B2271187979
:10222000A0700023FF20E37023726372BE222B2371
:102230006071A271E37121E06C4DFE230224E9710B
:102240002A72AB70EC7004210625684C9EF80620BB
:10225000A27113AC561C2370644B8EF806600027E5
:10226000022666701F715F71002800F09D85FF23B4
:10227000A270E370BE222B23227163714FF6FF7CA4
:1022800066460DF14D00022301E010F8013F83EA9C
:102290000C0383EA0313DBB2DA0082EA032282EA48
:1022A0001C2C01398CEA131389B21BB2B1421FFAFC
:1022B00083FCEAD14D4A4D49127B497B534083EA66
:1022C0000313DBB21A0282EAC30282EA1C2282EA08
:1022D00013131BB281EA030282EA0211C9B2CA00D7
:1022E00082EA0122C3F30723534083EA111212B298
:1022F00082F0840383EA0313DBB2D90081EA03216D
:10230000C2F307224A4082EA1313384ADFF8DCC0DE
:10231000D2781BB299B262448CF80E300B12537310
:10232000ACF8001067B9344B1B781BB90DF5137D61
:10233000BDE8F08F0DF5137DBDE8F04FFEF7A4B8B2
:10234000DEF810609CF803300C93002EEBD033784D
:10235000DB07E8D573788CF81631D6E9022392A909
:1023600061E9822308688B88CCF81701ACF81B312F
:10237000D6E90223013243F10003C6E902231F4FCD
:1023800056F8100F3C97DFF888E01D4F7168B2686F
:10239000F368CDF8F4E03E97DFF878E0194FCDF818
:1023A000FCE04097DFF870C0DFF870E0CDF8ECC0DB
:1023B00042AFCDF804E10FC7AE4630697169B2692A
:1023C000F36902954FF4807C0F4D3A9500260CEB93
:1023D000CE050394399620240FC7389524E000BF1A
:1023E00054A5FF1FA990FF1F0A92FF1FA0B9FF1F4E
:1023F00044B9FF1F58B0FF1FA8AFFF1F72F36E3C18
:102400007F520E51ABD9831F67E6096AB0AFFF1F39
:102410003AF54FA58C68059B85AE67BB19CDE05B8F
:10242000029B002B00F0D180029D039EC4F140036B
:10243000AB4228BF2B46ED1A029542A835462044F0
:102440001D441C441A463146039503F0D1FB402C31
:10245000E6D138AA26AB92F82B10197092F82A40D0
:1024600092F8281092F82900D9705C70987036A9FB
:102470000433994202F10402EDD13A9B04933B9B51
:1024800005933C9B06933D9B07933E9B08933F9B84
:102490000993409B0A930DF5A27A419B0B935246F8
:1024A00025AB53F8041F42F8041F35A99942F8D10F
:1024B0000DF5BE780DF5B47C0DF5A47E61AF5646E2
:1024C000102558F8044F5EF8043F56F8042F5CF8C6
:1024D000041F4FEAF440114480EA74404FEAB342CB
:1024E00080EA942082EAF312014482EAD3030135A0
:1024F0000B44402D47F8043FE3D1B24B0B9ADFF871
:10250000D092DDF81CB0DDF814E0069F049EDDF8E3
:1025100028C0DDF824800092089D01930BE0CDF8DF
:1025200000C0C446A8461D4659F8043F0193BB4667
:102530007746B64606464FEAF52205EA080182EAE2
:10254000B5122CEA050482EA75624C405AF8041F61
:10255000009B144487EA0E0221444FEA763002EAD7
:10256000060407EA0E0219445440019B964A80EA89
:10257000B60080EAB650194420444A4501EB0B03EB
:102580000844CCD10799049A39440F4608993D97DD
:1025900019440B4609993E930244294414460D46BA
:1025A000059A0A99029B3A943244414416460846D9
:1025B000069A0B993B96724461443C923F95409039
:1025C00041910024002B7FF42FAF389D0C9B05EB2D
:1025D000C304A542389402D9399B013339930C9B2B
:1025E000C5F3C505002B00F0DC83784B0C9A0D93E6
:1025F0000292039303E0029B002B00F0D180029C27
:10260000039EC5F14003A34228BF2346E41A029467
:1026100042A8344628441C441D441A4631460394BB
:1026200003F0E6FA402DE6D138AA26AB92F82B004B
:1026300092F82A101870597092F8290092F8281010
:10264000D970987036A90433994202F10402EDD191
:102650003A9B04933B9B05933C9B06933D9B0793BE
:102660003E9B08933F9B0993409B0A930DF5A27AEA
:10267000419B0B93524625AB53F8041F42F8041FAD
:1026800035A99942F8D10DF5BE780DF5B47C0DF55C
:10269000A47E61AF5646102558F8044F5EF8043FFB
:1026A00056F8042F5CF8041F4FEAF440114480EA06
:1026B00074404FEAB34280EA942082EAF312014464
:1026C00082EAD30301350B44402D47F8043FE3D1A0
:1026D0003C4B0B9ADFF8F890DDF81CB0DDF814E005
:1026E000069F049EDDF828C0DDF824800092089D36
:1026F00001930BE0CDF800C0C446A8461D4659F82A
:10270000043F0193BB467746B64606464FEAF5229C
:1027100005EA080182EAB5122CEA050482EA75622C
:102720004C405AF8041F009B144487EA0E022144CF
:102730004FEA763002EA060407EA0E0219445440D2
:10274000019B214A80EAB60080EAB6501944204431
:10275000914501EB0B030844CCD10799049A394405
:102760000F4608993D9719440B4609993E93024438
:1027700029440D4614460A99059A029B3F95324416
:10278000414416460846069A0B993A9472446144AD
:102790003B963C92409041910025002B7FF42FAF57
:1027A000389C04F11003A342389302D2399B0133C1
:1027B00039930D9B0C9A134403930223C4F3C5046D
:1027C00002930BE0982F8A4208CA0000ACB9FF1FA1
:1027D0000CC90000029B002B00F0D180029D039EDB
:1027E000C4F14003AB4228BF2B46ED1A029542A824
:1027F000354620441D441C441A463146039503F0D7
:10280000F7F9402CE6D138AA26AB92F8281092F8B6
:102810002B5092F82A4092F82900D9701D705C70F4
:10282000987036A90433994202F10402EDD13A9B23
:1028300004933B9B05933C9B06933D9B07933E9BD8
:1028400008933F9B0993409B0A930DF5A27A419B05
:102850000B93524625AB53F8041F42F8041F35A9C9
:102860008B42F8D10DF5BE780DF5B47C0DF5A47E44
:1028700061AF5646102558F8044F5EF8043F56F8ED
:10288000042F5CF8041F4FEAF440114480EA7440BE
:102890004FEAB34280EA942082EAF312014482EACA
:1028A000D30301350B44402D47F8043FE3D1BF4B20
:1028B0000B9ADFF80493DDF81CB0DDF814E0069FF6
:1028C000049EDDF828C0DDF824800092089D019365
:1028D0000BE0CDF800C0C446A8461D4659F8043F99
:1028E0000193BB467746B64606464FEAF52205EA0F
:1028F000080182EAB5122CEA050482EA75624C40AE
:102900005AF8041F009B144487EA0E0221444FEA40
:10291000763002EA060407EA0E0219445440019B8D
:10292000A34A80EAB60080EAB650194420444A45DA
:1029300001EB0B030844CCD10799049A39440F46A4
:1029400008993D9719440B4609993E93024429443E
:1029500014460D46059A0A99029B3A943244414422
:1029600016460846069A0B993B96724461443C927F
:102970003F95409041910024002B7FF42FAF389C6D
:1029800004F138039C42389302D9399B01333993BF
:10299000884B03930723C4F3C504029303E0029B0F
:1029A000002B00F0D180029D039EC4F14003AB4296
:1029B00028BF2B46ED1A029542A8354620441D44F7
:1029C0001C441A463146039503F012F9402CE6D117
:1029D00038AA26AB92F8281092F82B5092F82A4089
:1029E00092F82900D9701D705C70987036A9043374
:1029F000994202F10402EDD13A9B04933B9B05936B
:102A00003C9B06933D9B07933E9B08933F9B0993FA
:102A1000409B0A930DF5A27A419B0B93524625AB3E
:102A200053F8041F42F8041F35A98B42F8D10DF565
:102A3000BE780DF5B47C0DF5A47E61AF5646102529
:102A400058F8044F5EF8043F56F8042F5CF8041F52
:102A50004FEAF440114480EA74404FEAB34280EAFE
:102A6000942082EAF312014482EAD30301350B4435
:102A7000402D47F8043FE3D14C4B0B9ADFF83891D7
:102A8000DDF81CB0DDF814E0069F049EDDF828C0D8
:102A9000DDF824800092089D01930BE0CDF800C082
:102AA000C446A8461D4659F8043F0193BB467746E5
:102AB000B64606464FEAF52205EA080182EAB51253
:102AC0002CEA050482EA75624C405AF8041F009B08
:102AD000144487EA0E0221444FEA763002EA0604E3
:102AE00007EA0E0219445440019B314A80EAB600BD
:102AF00080EAB650194420444A4501EB0B030844D0
:102B0000CCD10799049A39440F4608993D97194446
:102B10000B4609993E930244294414460D46059AF2
:102B20000A99029B3A943244414416460846069A52
:102B30000B993B96724461443C923F954090419181
:102B40000024002B7FF42FAF389E0299C6F3C504F2
:102B5000C4F1770303F03F05802747220DF1990068
:102B60008DF8987008F0B2FD05F109031F46029335
:102B700026AB2B44399A1A71310AD971310E300CB7
:102B80005971110C98719970100A06EBC701D87031
:102B90008E424FEA12601E72587088BF013226AB17
:102BA000389188BF399203930CE000BF982F8A4276
:102BB00008CA0000B6BAFF1F0CC90000029B002B18
:102BC00000F0D180029D039EC4F14003AB4228BFB8
:102BD0002B46ED1A029542A8354620441D441C445C
:102BE0001A463146039503F003F8402CE6D138AA83
:102BF00016AB92F8281092F82B5092F82A4092F8CF
:102C00002900D9701D705C70987026A90433994210
:102C100002F10402EDD13A9B04933B9B05933C9B4C
:102C200006933D9B07933E9B08933F9B0993409BD4
:102C30000A930DF5A27A419B0B93524615AB53F8BC
:102C4000041F42F8041F25A99942F8D10DF5BE785A
:102C50000DF5B47C0DF5A47E61AF5646102558F8ED
:102C6000044F5EF8043F56F8042F5CF8041F4FEA47
:102C7000F440114480EA74404FEAB34280EA942061
:102C800082EAF312014482EAD30301350B44402D5A
:102C900047F8043FE3D1484B0B9ADFF82C91DDF85D
:102CA0001CB0DDF814E0069F049EDDF828C0DDF8B6
:102CB00024800092089D01930BE0CDF800C0C4462B
:102CC000A8461D4659F8043F0193BB467746B646D1
:102CD00006464FEAF52205EA080182EAB5122CEA17
:102CE000050482EA75624C405AF8041F009B1444A4
:102CF00087EA0E0221444FEA763002EA060407EA28
:102D00000E0219445440019B2C4A80EAB60080EA26
:102D1000B65019442044914501EB0B030844CCD133
:102D20000799049A39440F4608993D9719440B4670
:102D300009993E930244294414460D46059A0A997E
:102D4000029B3A943244414416460846069A0B992F
:102D50003B96724461443C923F95409041910024DF
:102D6000002B7FF42FAF164E9DF8EB509DF8EA40F4
:102D70009DF8E9009DF8E8109DF8EF209DF8EE30F1
:102D800086F81D5186F81E4186F81F0186F820112D
:102D900086F8212186F82231FFF7C5BA0746FFF7EA
:102DA0001FBA084B0D93FCE40746FFF736BA08211B
:102DB0000A25FFF74ABA00BF982F8A4208CA0000C6
:102DC000A0B9FF1FACB9FF1F0CC9000010B5194B0B
:102DD000197882B0C9B9184B184A1B680193019839
:102DE0001368C31AB3F5FA7F154B08D310601A782D
:102DF000C2B10D20197003F08FF802B010BD197820
:102E00000D2003F089F802B010BD01230C4C1946C7
:102E10000D20237003F080F821780D2003F07CF85A
:102E200002B010BD01210D20197003F075F802B039
:102E300010BD00BFCCB8FF1FE0BAFF1F7CB0FF1F62
:102E4000DFB8FF1F013808281DD8DFE800F00507AC
:102E5000090B121416181A00002070470120704741
:102E6000022070470139C9B208290ED8084B585CB6
:102E700070470320704704207047052070470620E4
:102E80007047072070470B2070471F20704700BF16
:102E9000C0C40000F8B5154CE66805464FF07E51F9
:102EA000304608F003F818B1284607F009FE064638
:102EB000284607F009FE0E4907F05AFE0D4907465D
:102EC000304607F055FE0146384607F049FD0A49ED
:102ED0006269E369E060A1FB051502EB951501331A
:102EE0006561E36108F046F8F8BD00BF2487FF1F65
:102EF0004CA6AA3E4CA62A3FD34D6210F0B51E4CFC
:102F000094F8203085B00546002B32D01B4B1A6850
:102F10000192019A0021013A84F820101968039166
:102F200003981B680293029B2361801A07F0C8FD77
:102F3000134907F0D1FE07F091F9064628460F46DF
:102F400007F06AF902460B463046394607F0DAF9CF
:102F500007F0B0FC0B4907F00BFE0B4907F008FE29
:102F6000034601466068236007F0FAFC606005B024
:102F7000F0BD2269014BD1E72487FF1FE0BAFF1F94
:102F800000BA5B4A000020410000883F70B5114D37
:102F90000646FFF7B3FFAC684FF07E51204607F0BE
:102FA00085FF18B1304607F08BFD0446304607F028
:102FB0008BFD094907F0DCFD08490646204607F06D
:102FC000D7FD0146304607F0CBFCA86007F0D2FFE2
:102FD00070BD00BF2487FF1FFA7EAA3E4CA62A3F81
:102FE000F8B5144CE66805460021304607F054FF5A
:102FF00018B1284607F064FD0646284607F064FD30
:103000000D4907F0B5FD0D490746304607F0B0FD04
:103010000146384607F0A4FC09496269E369E060AB
:10302000A1FB051502EB951501336561E36107F01E
:10303000A1FFF8BD4887FF1FFA7EAA3EFA7E2A3F0D
:10304000D34D6210F0B51E4C94F8203085B0054683
:10305000002B32D01B4B1A680192019A0021013AD1
:1030600084F820101968039103981B680293029B4F
:103070002361801A07F024FD134907F02DFE07F0A5
:10308000EDF8064628460F4607F0C6F802460B46FE
:103090003046394607F036F907F00CFC0B4907F0CB
:1030A00067FD0B4907F064FD034601466068236035
:1030B00007F056FC606005B0F0BD2269014BD1E716
:1030C0004887FF1FE0BAFF1F00BA5B4A000020419B
:1030D0000000883FF8B5114CA6680546002130462F
:1030E00007F0DAFE18B1284607F0EAFC0646284643
:1030F00007F0EAFC0A4907F03BFD0A49074630465B
:1031000007F036FD0146384607F02AFCA060284645
:10311000FFF798FFA06807F02DFFF8BD4887FF1F55
:10312000FA7EAA3EFA7E2A3F08B50D4B002203F62E
:1031300028211A809A705A601A811A7414338B42AB
:10314000F7D140F6055003F0C9F8064A064B074987
:1031500011601022A0219A7199705A7108BD00BFA8
:1031600064A5FF1F20B9FF1F00A0064006A006406F
:1031700084B0F0B4154E82B0357C06AC84E80F0004
:103180000DB33246012392F824101C461432013349
:103190000029F8D10E4B0F4F1B680193019B079339
:1031A00001238DF8283006AD0FCD04EB840406EB27
:1031B00084040FC43B882A68226001333B8002B03C
:1031C000F0BC04B070472C46E4E700BF64A5FF1FC5
:1031D000E0BAFF1F36B9FF1F70B52E4B1B7882B0C7
:1031E0008BB12D4B2D4D1B682D492E4A002B44DBF6
:1031F000A5FB03435D0905EB450500236D000D604C
:1032000013701E460FE0284A244D1268002A25DB61
:10321000A5FB02525509224C224905EB45056D00DC
:1032200025600B701E4600221346012404FA03F1A8
:1032300001331E2B42EA0102F8D11C4B1C4C1880B2
:10324000154000229A701A8135431A69DD60009298
:103250000FCB2560FFF78CFF02B070BD5242A5FB7B
:1032600002256D090E490F4B05EB45056D00012246
:103270000D601A704FF08046D5E75B42A5FB033521
:103280006D0905EB45056D0001230D6013704FF0CE
:103290008046C8E73CB0FF1F3C92FF1F1F85EB51E3
:1032A000AC90FF1FA4AFFF1F38B0FF1F68B0FF1F17
:1032B0001492FF1F70B5214B1B7882B073B3204B63
:1032C0001B68204D2049214A002B29DBA5FB034325
:1032D0005D0905EB45056D0002230D6013704FF08D
:1032E000004600221346012404FA03F101331E2B89
:1032F00042EA01024FF00101F6D1154B154C18803E
:10330000154000221A8135431A69DD6099700092D8
:103310000FCB2560FFF72CFF02B070BD0E4BCFE73F
:103320005B42A5FB03356D0905EB45056D000323E5
:103330000D6013704FF04046D3E700BF3CB0FF1F55
:10334000D8B8FF1F1F85EB5180B9FF1FA4AFFF1F27
:1033500068B0FF1F1492FF1F48B9FF1F7E2808B5F1
:103360000CD07D2803D0BDE8084003F02DB803F051
:103370002BF85D20BDE8084003F026B87D2003F05F
:1033800023F85E20BDE8084003F01EB838B50D4BA9
:103390001B78012B04460D4602D00120FDF766F88C
:1033A000204655B1FFF7DAFF074B1888204400EBA1
:1033B000102000F0FF00188038BDBDE8384003F051
:1033C00003B800BFDCBAFF1F4EA5FF1F10B5204B8E
:1033D0001B7882B0012B0092ADF80610044602D093
:1033E0000120FDF743F800217E20FFF7CFFF2046A4
:1033F0000021FFF7CBFF01211020FFF7C7FF9DF849
:103400000600144C0121FFF7C1FF9DF807000121C0
:10341000FFF7BCFF9DF800000121FFF7B7FF9DF803
:1034200001000121FFF7B2FF9DF802000121FFF723
:10343000ADFF01219DF80300FFF7A8FF2078C043EE
:10344000C0B2FFF78BFF0023238002B010BD00BF86
:10345000DCBAFF1F4EA5FF1F2DE9F0411E4BDFF820
:1034600080801B68DFF874C082B000210193019F47
:10347000A8F8001008468E460E460A4663461C7C95
:10348000451C5CB158681989381A411AB142A8BF65
:103490000E46A8B2A8BF5FFA82FE21460132822AF8
:1034A00003F11403EBD199B90EEB8E0E4FEA8E03A4
:1034B0000CEB03040949227C3AB1C95AE2681B208B
:1034C000FFF784FF0023E360237402B0BDE8F081BE
:1034D000A8F80000E8E700BFE0BAFF1F64A5FF1FDF
:1034E00036B9FF1F08B5094B1B78012B02D001200C
:1034F000FCF7BCFF064B074A1B780021116003B99B
:1035000008BDBDE80840FFF7A7BF00BFDCBAFF1F3A
:10351000CCB8FF1F1492FF1F2DE9F04F584D85B016
:103520002B46039005F13204002213F8011B11F021
:10353000DF0F02F1010003D1197811F0DF0F05D080
:103540009C420246F1D14F4B1A8802E04D4B92B299
:103550001A80AB184C4C4D4949485FFA82F9002259
:1035600084F800905A709A70DA701A7108F07CFB37
:10357000002879D1464B4FF0010A83F800A0454B53
:10358000454A1B784548DFF8348113703C4988F878
:10359000009009F10402064602F02AFB404B414D1F
:1035A00083F800A0404B414C002018703318C21C17
:1035B000315C93F801A016F802E093F802C085F898
:1035C00001A00B0603F0FE4B4FEA0A4A0EF07F0300
:1035D0000AF4FE0A4BEA0303800843EA0A030130B7
:1035E0004FEA0C2A0AF4FE4AC0EB001B304F297048
:1035F000304985F802C04FEA8B0B43EA0A034A457B
:103600000BF5FA6B85F803E038700B6011DB224A8A
:1036100012784FEA425E91030EF4000E01F400416D
:10362000D2014EEA010102F080020A431343214A0B
:103630001360BDF80C202280A070A4F808B0E360ED
:10364000276994E80F000097FFF792FD164B98F852
:10365000009018780430C0B281451870A6D20022BC
:103660001A7005B0BDE8F08F1349054808F0FCFA60
:10367000074B10B98246187081E793F800A07EE7E7
:103680006C93FF1F9C90FF1F4CA5FF1F68C6000096
:10369000A0B8FF1FA1B8FF1FD894FF1F8099FF1F7C
:1036A000F191FF1FF491FF1F78B9FF1F68B0FF1F52
:1036B000B090FF1F1492FF1F78C6000004B9FF1FCF
:1036C000294B1B78062B4ED0F0B5284B284A1B7887
:1036D000284E294C29491278367826700546DF1184
:1036E0002748284CFBB283B003700B70002A31D1FD
:1036F0002549264B08680130C0B218702449254B73
:1037000091F800E019784FEA4E2E760106F060033A
:1037100089020EF400761E43120301F4406302F4A2
:10372000805146EA03020A4342EAC71242EA0723EB
:1037300000F01F00184A43EA00060023937013812B
:103740001369D660158000930FCA2660FFF710FD3D
:1037500003B0F0BD114B124918780978FFF772FBDE
:103760000A4B1870CAE7704710B0FF1FEDB8FF1F73
:103770003CB0FF1FA0B8FF1FF191FF1F88B0FF1FD3
:10378000D1BAFF1F1492FF1FEC94FF1F83B0FF1FDD
:10379000F091FF1F52B0FF1F68B0FF1FD994FF1FA9
:1037A0008AB0FF1F30B5474A1378052B83B02CD859
:1037B0000133DBB2591E1370052924D8DFE801F06C
:1037C0002C2323036046404A404B14680421002206
:1037D00019700125134605FA03F10133182B42EA4B
:1037E0000102F8D13A4B3B4D1880224042F08064F0
:1037F000042150221A811A69DC60997000920FCB63
:103800002C60FFF7B5FC03B030BD33490120002325
:103810000870137003B030BD3049314A2B4B0C781F
:103820001460012500221D70134605FA03F10133CF
:10383000182B42EA01024FF00101F6D1244B254D2D
:103840001880224042F080740022D3E72549264A9E
:103850001E4B0C78146006210022197001251346B6
:1038600005FA03F10133182B42EA0102F8D1184B93
:10387000184D1880224042F0C06406214B22B9E75F
:103880001A4A124B146805210022197001201346B0
:1038900000FA03F10133182B42EA0102F8D10C4B74
:1038A0000C4D19690091224042F0A064052132229A
:1038B000DC6099701A810FCB2C60FFF759FC03B0C4
:1038C00030BD00BFA890FF1F5CB0FF1F34B9FF1FC1
:1038D00068B0FF1F1492FF1F89B0FF1F10B0FF1FB9
:1038E000D4BAFF1F9EAFFF1F5CA5FF1F64B0FF1F70
:1038F0002DE9F04FDFF84882DFF848B298F8004031
:103900000023042C85B0CBF8003000F3CA80DFF828
:1039100038A202903AF81400A0F2DC5007F0D4F874
:10392000854907F025F900210646A50807F0D2FAD7
:10393000002800F0BB804FF07C51304607F010F8B3
:1039400007F0F2FA47B26FF03E03621C9F42B8BF25
:103950001F463AF81200DFF8F4913F2FA8BF3F2727
:10396000A0F2DC5089F8017007F0AEF8724907F058
:10397000FFF80021064607F0ADFA002800F0D480D9
:103980004FF07C51304606F0EBFF07F0CDFA46B21F
:103990006FF03E03A21C9E42B8BF1E463AF81200CA
:1039A0003F2EA8BF3F26A0F2DC5089F8026007F046
:1039B0008BF8614907F0DCF80021039007F08AFAE0
:1039C000039B002800F0A88018464FF07C5106F0B9
:1039D000C7FF07F0A9FA42B26FF03E03E11C9A421A
:1039E000B8BF1A463AF811003F2A9246A0F2DC50BE
:1039F000A8BF4FF03F0A89F803A007F065F84E49C9
:103A000007F0B6F80021039007F064FA039B002842
:103A10007AD018464FF07C5106F0A2FF07F084FAE6
:103A200040B26FF03E039842B8BF18463F28A8BF87
:103A30003F20002F05F00F0589F804005CDB3F01F3
:103A400007F47C772F43002E4EDBF50205F4FC359E
:103A50003D43BAF1000F3CDB4FEA8A4A0AF47C0A84
:103A60004AEA050A002829DB400600F0FC4040EA4B
:103A70000A00CBF8000004F00304304B04EB84028E
:103A800002EB82021A81BDF808201A8001341A69FB
:103A90009C70D86000920FCBFFF76AFB98F800305B
:103AA000043388F8003005B0BDE8F08F4FF07C514A
:103AB000304606F053FF07F037FA43E7404240062E
:103AC00000F0FC4040F0004040EA0A00CBF8000063
:103AD000D1E7CAF1000A4FEA8A4A0AF47C0A4AF09E
:103AE000807A4AEA050ABDE77542ED0205F4FC3525
:103AF00045F400353D43ACE77F423F0107F47C7756
:103B000045F480652F439EE718464FF07C5106F040
:103B100025FF07F009FA83E718464FF07C5106F0BD
:103B20001DFF07F001FA56E74FF07C51304606F0D2
:103B300015FF07F0F9F92AE72506013E68B0FF1FD7
:103B40003792FF1F1492FF1FA8B8FF1F98AFFF1FE7
:103B50002DE9F041234B244C244F1E784FF00008F0
:103B6000462286B00546C4F800803A60EEB9174692
:103B700000221346012000FA03F10133202B42EA10
:103B800001024FF00101F6D1194B3A4016430022D1
:103B90001A811A69DE601D80997000920FCB266031
:103BA000FFF7E6FA06B0BDE8F0811421114883F86A
:103BB000008003F0BDFD43460A2239680E4801F03B
:103BC000A1FE09210D4803F0B3FD0B4801F08AFE68
:103BD0000B4902A801F01EFF02A801F0DBFE3F68BE
:103BE0002668C5E72187FF1F1492FF1FC499FF1F96
:103BF00068B0FF1F88C600007887FF1FA0C60000BE
:103C0000ACC6000010B50129044680EAE070A0EBC4
:103C1000E47026D0022907D0032903D1012A5AD003
:103C2000022A36D0002010BD012A3CD0022AF9D148
:103C3000632840F38580B0F57A7F80F29A8006F0A1
:103C40003FFF6B4906F094FF04F07EF907F092F90C
:103C5000C0B2800040F00100002CE4DA40F40070B3
:103C600010BD012ADED1092864DD95287DDC06F02F
:103C700027FF5F4906F07CFF04F066F907F07AF948
:103C8000C0B2400040F00100002CCCDA40F020002F
:103C900010BDB0F57A7F37DA800080B2002CC2DA2E
:103CA00040F4805010BD632847DD40F2F543984250
:103CB0005DDC06F005FF4E4906F05AFF04F044F9BA
:103CC00007F058F9C0B2400040F00100002CAADA19
:103CD00040F4807010BDB0F57A7F34DBB0F5205F22
:103CE00059DA06F0EDFE424906F042FF04F02CF9E5
:103CF00007F040F980B2400040F0010080B2002C93
:103D000091DA40F4006010BD42F20F7398421DDD5D
:103D1000384B984242D806F0D3FE374906F028FFC8
:103D200004F012F907F026F980B2800040F002009A
:103D300080B2B3E7400080B2A6E7400080B2C5E79A
:103D4000800080B288E7400080B2D8E706F0B8FE75
:103D5000274906F00DFF04F0F7F807F00BF980B2E1
:103D6000800040F0010080B298E71F208CE7FF2020
:103D7000ACE742F20F73984222D806F0A1FE1E492A
:103D800006F0F6FE04F0E0F807F0F4F8C0B28000A8
:103D900040F0020060E740F2FF70B0E7B0F57A2F24
:103DA0001FD206F08DFE154906F0E2FE04F0CCF8B5
:103DB00007F0E0F880B2800040F0030080B26DE7C9
:103DC0000F4B984210D806F07BFE0C4906F0D0FE4F
:103DD00004F0BAF807F0CEF8C0B2800040F003005B
:103DE0003AE740F6FF7059E740F2FF1034E700BFB2
:103DF000CDCCCC3D9F8601000AD7233C6F12833A7D
:103E000017F001002DE9F0412F4B304D1B78304A5F
:103E10000F2B82B0074651D90F2313701E462D4B2E
:103E20002D491A78032A134628BF0323032A0B704F
:103E300047D9033A5FFA82FE4FEA8E3404F44044D5
:103E40002649274A0968274812881B0103F03003D6
:103E5000334380FB01C0244EC917C1EB60102349D6
:103E6000A6FB0226022281F800E011461C43FFF760
:103E7000C9FEC6F3C7061E4B80460122304602210A
:103E8000C3F80080FFF7BEFE1A4A1B4B1B4E1F8073
:103E90004FEA885808EA0202C7B2144300229A7017
:103EA0001A8144EA87141A69DC6000920FCB3770DC
:103EB0002C60FFF75DF902B0BDE8F0811E4613707B
:103EC000ADE70024A646BBE784B0FF1F1492FF1F96
:103ED000D194FF1F6E87FF1F9DAFFF1F30B0FF1FE4
:103EE00026B9FF1F1F85EB51CDCCCCCC3692FF1FDE
:103EF000E894FF1F0000C07F68B0FF1F82B0FF1F63
:103F00001F4B204A1B88204970B5204CA4FB03346A
:103F10006409148082B00546088806F0D5FD1C4966
:103F200006F026FE04F010F806F0FEFF0122022142
:103F3000FFF768FE174B184A18801288400200F4F9
:103F4000FF30C4F308040443560411230022012067
:103F500000FA03F10133202B42EA0102F8D10F4BA2
:103F60003240144300229A701A811A691D80DC6065
:103F70000B4E00920FCB3460FFF7FAF802B070BD21
:103F8000EEB8FF1FEC91FF1F0C92FF1F1F85EB5136
:103F9000CDCCCC3D3492FF1FF891FF1F68B0FF1FBE
:103FA0001492FF1F2DE9F04FC04EDFF854B3726832
:103FB000BF49DFF85083BF4FBF4DDFF84C93BF4C74
:103FC00091B000230D901046CBF8003006F084FE2F
:103FD000BB4906F0CDFD0346C8F800303068B4494F
:103FE000029306F079FEB64906F0C2FD0646B049D6
:103FF00078682E6006F070FEB14906F0B9FD824681
:10400000AB493868C9F800A006F066FEAC4906F076
:10401000AFFD029B074619462760504606F09EFCFE
:1040200006F01CF9CDE9040103F04AFFCDE90601D1
:10403000384606F013F902460B46CDE90A2303F091
:10404000F5FECDE90201304606F008F906460F46B6
:1040500003F0ECFEDDE90A23CDE90801104619461C
:1040600003F02EFF02460B4630463946CDE90E23BB
:1040700003F026FFCDE90A01DDE9040103F0D6FED5
:10408000DDE90E23CDE90401DDE9080106F03AF986
:10409000DDE90A2306460F46DDE9020106F032F9A2
:1040A000DDE9042306F02EF902460B463046394678
:1040B00005F074FFDDE9022306460F46DDE906013F
:1040C00006F020F932463B4603F0BAFF06F0F2FB59
:1040D000774906F04DFD7A4906F0FEFD00210646BF
:1040E00006F0E4FE002840F02081764BDFF81CA2A9
:1040F0001E60304606F018FF83B2A3F1B40000B290
:104100000028BCBF03F1B40000B2B0F5B47FA8BF73
:10411000A0F5B4706C4BA8BF00B2188006F0D4FCB8
:104120006A4906F025FD06F0FFFE24682D68AAF80E
:1041300000002946204606F011FC654BD8F8001017
:1041400007461F60D9F8000006F008FC614B0646E0
:1041500018604FF07C51384606F00AFD06F07EF8F4
:1041600003F0AEFECDE9020130464FF07C5106F07F
:10417000FFFC06F073F803F0A3FE8046284689464C
:1041800006F06CF803F052FE064620460F4606F095
:1041900065F803F04BFE424604460D464B4640464A
:1041A000494606F0AFF832463B4606F0ABF82246E9
:1041B0002B4606F0A7F8DDE9022304460D4610461B
:1041C000194606F09FF80B4602462946204605F0A0
:1041D000E7FE06F06FFB404A106006F03FF803F080
:1041E00031FF03F0D5FE02460B4605F0D9FE06F07E
:1041F00061FB3A4B3A49186006F0BAFC394B3A4A2F
:104200001B781060002B00F08E8006F08DFE80B2CF
:1042100006F056FC03F098FE06F086FE334B344E53
:104220001B68032186FB0326DB170222C3EB6616FD
:10423000FFF7E8FC2F4A002336B210801C4601210C
:1042400001FA04F201340C2C43EA0203F8D1DBF842
:104250000050034030461D4306F036FC03F074FE68
:1042600006F062FE02220321FFF7CCFC224B00B2D3
:10427000188000220303012606FA04F10134182CE9
:1042800042EA0102F8D11A401C492A430028BAF92F
:104290000050B8BF42F08072002342EA45658B703F
:1042A000BDF834200B810B6932E000BFDC91FF1FA9
:1042B00000003443F4B8FF1F2CB9FF1F30B9FF1FB3
:1042C000DB0F4940A090FF1F90AFFF1F4CA6AA3EF6
:1042D0001092FF1FC4BAFF1F40A5FF1F48A5FF1F74
:1042E000706DC24A61A5FF1F9490FF1F8CAFFF1F26
:1042F0001F85EB511A92FF1F3892FF1F68B0FF1FF6
:104300001492FF1F20B0FF1F24B0FF1F92AFFF1FAA
:10431000CD600A8000930FC9CBF80050FEF728FF4C
:1043200011B0BDE8F08F184678E73046024906F034
:1043300017FB0646D9E600BF0000B4432DE9F04361
:10434000354B3649DFF8F09083B00546186806F023
:104350000FFC334B31490646186806F009FC314B17
:104360000446B3F9000000EB8000400006F0ACFB0F
:1043700000218046304606F099FD0028304614BFE3
:104380004FF48077002703F0DFFD06F0CDFD01221A
:104390000221FFF737FC064606F092FBC9F8000041
:1043A000204603F0D1FD06F0BFFD01220221FFF7F8
:1043B00029FC044606F084FB1B4B4FF07C5118602F
:1043C000404606F0D5FB194B186006F0D3FDF6B257
:1043D00064023E4304F4FF3444EA0607144E00220C
:1043E00040041123012404FA03F101331C2B42EA97
:1043F0000102F8D10F4B024042EA070400229A70F2
:104400001A811A69DC601D8000920FCB3460FEF7C0
:10441000AFFE03B0BDE8F083E0B8FF1F000020410D
:104420009CB8FF1F0092FF1F3CB9FF1FD0B8FF1FB1
:104430001492FF1F68B0FF1F40B9FF1FF0B5304B4B
:10444000304983B00646186806F092FB2E4906F004
:1044500087FA06F08FFD2D4A2D4B2A4985B21D8023
:10446000106806F085FB2B4906F07AFA06F082FD0B
:10447000294A2A4B2A4987B21F80106806F078FB28
:1044800003F062FD06F076FD264B80B20022188014
:104490000124134604FA03F101330B2B42EA010213
:1044A000F8D115401C46FA020023012707FA04F14F
:1044B0000134152C43EA0103F8D1134003210122F2
:1044C0001D43FFF79FFB234640050022012404FA09
:1044D00003F10133202B42EA0102F8D11249134CB7
:1044E0000E800023024015438B700B810B69CD6059
:1044F00000930FC92560FEF73BFE03B0F0BD00BF7F
:10450000D8BAFF1F0000A0400000614450A5FF1F63
:1045100028B9FF1F0000E14370B9FF1F7CB9FF1FDE
:104520000000C84286B0FF1F68B0FF1F1492FF1F33
:10453000F0B5264B264A1B88264FA2FB032383B0E7
:104540000546580906F0C0FA234B244A06461E6069
:10455000B2F9000006F0B8FA214906F009FB03F0B1
:10456000F3FC06F0E1FC01220221FFF74BFB0446BD
:1045700006F0A6FA3860304606F0FCFC194B6402DF
:104580001A8804F4FF34C0F30800204356041123B2
:104590000022012404FA03F10133202B42EA010234
:1045A0004FF00101F6D1104B324042EA00040022E4
:1045B0001A811A691D80DC6099700C4E00920FCB35
:1045C0003460FEF7D5FD03B0F0BD00BFF0B8FF1FAB
:1045D0001F85EB519CB9FF1F60B0FF1F80B0FF1F0C
:1045E000CDCCCC3D86B9FF1F68B0FF1F1492FF1FD2
:1045F0002DE9F04F584B594D594A5A495A4CDFF85A
:1046000090B15A4F12681B882D88DFF88881258069
:1046100085B0ABF8003003900023B1F900003A6098
:10462000C8F8003006F050FA514A524B05461D605A
:10463000108806F049FA504906F09AFA4F4A0346A4
:1046400019461360284606F089F906F06DFC00B2A1
:1046500006F03AFA4A4903F051FD0021054606F0FA
:1046600025FC00286AD1284606F05EFC454BDFF8A1
:1046700028A1163083FB00230344C017C0EB63104E
:1046800000EA0A0ABAF1000F5EDB3F4B258883F887
:1046900000A000231C46012101FA04F201340A2C77
:1046A00043EA0203F8D1BBF80000D8F800601D40CF
:1046B00006F006FA03F048FC06F036FC022203215D
:1046C000FFF7A0FA2346ABF8000000224FEA802B48
:1046D0004FF0010E0EFA03F10133162B42EA0102EC
:1046E0004FF00104F6D138680BEA020B03F02CFC02
:1046F00006F01AFC22462146FFF784FA814646EA74
:104700004A7606F0DDF94FEA895303F07C613543C0
:104710001E4B386045EA0B0500220D431A81BDF897
:104720000C101A69DD609C70198000920FCBC8F8DC
:104730000050FEF71DFD05B0BDE8F08F284610497A
:1047400006F00EF905468EE70AF1FF3A6AF0070A0D
:104750000AF1010A99E700BF44A5FF1FDCB8FF1F5B
:10476000A893FF1FA2B8FF1F76B9FF1F54B0FF1F09
:104770009A90FF1F0492FF1F0AD7233CE494FF1F67
:104780000000B443B7600BB61892FF1F68B0FF1F5C
:104790007AB9FF1F1492FF1F070000802DE9F04334
:1047A0002B4B2C49DFF8C490DFF8C48083B005465A
:1047B000186806F0DDF92849284B294A0C881C8026
:1047C00024490646106806F0D3F90746304603F040
:1047D000BBFB06F0A9FB01220221FFF713FA0646F4
:1047E00006F06EF9C9F80000384603F0ADFB06F09C
:1047F0009BFB02220321FFF705FA240204F4FE4486
:10480000F6B22643044606F05BF9E703C8F8000059
:1048100000220F23012404FA03F101331B2B42EA87
:1048200001024FF00101F6D10E4B3A4042EA060474
:1048300000221A811A691D80DC6099700A4F00926B
:104840000FCB3C60FEF794FC03B0BDE8F08300BFE3
:1048500058A5FF1F0000204150B0FF1FA6AFFF1F4B
:10486000B490FF1F68B0FF1F1492FF1F44B0FF1FDA
:1048700098B9FF1F45F20602904210B57FD003465B
:104880001ED845F20202904275D02BD8B0F5A04F49
:1048900049D06AD8B0F5006F53D100297FD00129E3
:1048A00038D1454B454A1B78032B28BF0323032BE4
:1048B00013702FD14FF40060BDE81040FEF7FABC32
:1048C00045F2F102904232D017D845F208029042E8
:1048D00025D058D345F20902904232D1BDE81040AC
:1048E000FFF786BE45F20402904214D023D845F269
:1048F0000300BDE81040FFF703BB45F2F30290420E
:1049000008D046D34FF2011290421AD1BDE81040B0
:10491000FFF71EB910BDBDE81040FFF743BBBDE86F
:104920001040FFF705BEBDE81040FEF7F5BDBDE83D
:104930001040FEF7DDBF45F20500BDE81040FFF76F
:10494000FDBC1C4610211E4802F0F2FE2146002349
:1049500010221C4800F0D6FF08211B4802F0E8FE98
:104960001848BDE8104000F0BDBF45F20100BDE8A9
:104970001040FEF7A5BEBDE81040FFF743BABDE802
:104980001040FFF75BBD45F20700BDE81040FEF7A1
:1049900009BF45F2F200BDE81040FFF7FFBE064B2D
:1049A000064A1B78032B28BF0323032B1370B1D1B6
:1049B000BDE81040FEF710BC6E87FF1F9DAFFF1FC4
:1049C000BCC600007887FF1FD0C600002DE9F0416B
:1049D000994CA368C3F31723272B86B000F05B82A2
:1049E00014D94A2B67D041D82C2B00F0CC8040F250
:1049F000EF803E2B00F00C82412B04D18F4B1B78B3
:104A0000002B40F0B08306B0BDE8F081162B00F01B
:104A1000778240F2C1801E2B00F0828040F25081EC
:104A2000212B00F0B481242BEDD1844B1B78002B7B
:104A3000E9D0834B834D94F82060228A618AA08A52
:104A4000B4F816E02E70278B668B1A80A58BE28B4C
:104A500059809880002145F2F100A3F806E01F81FB
:104A60005E819D81DA81FFF705FFCCE7AD2B49D050
:104A700040F2C080B52B00F0F081FD2BC3D1724B0A
:104A8000227B724F1A7004F10D053D342868696865
:104A9000AA68EB683E460FC61035A5423746F5D1E9
:104AA0002A886B4B3280002132224FF4A0401A80BA
:104AB000FFF7E0FEA7E7614B1B78002BA3D0654F03
:104AC000B4F91C00644D654A3880E7686449654B59
:104AD0002F60654E2569E78B1560A26965690D60D9
:104AE0001A60378005F0F0FF604B0246002145F266
:104AF0000500DA60FFF7BEFE002145F2F200FFF785
:104B0000B9FE80E74D4B1B78002B3FF47CAF584B30
:104B1000E2681A60002145F20600FFF7ABFE72E77B
:104B2000464B1B78002B3FF46EAF524B5249534D0E
:104B3000626AE769266A1A600F602E602069504930
:104B4000DFF874814F4E06F013F84F496769A56985
:104B50004E4C06F0C1F84A49C8F80000384606F045
:104B600007F8494906F0B8F845493060284605F08D
:104B7000FFFF454906F0B0F80021206045F206002D
:104B8000FFF778FE3FE72D4B1B78002B3FF43BAF40
:104B90003F4BA2891A7036E7012B00F0C282C0F0A9
:104BA0004982022B7FF42FAF244B1B78002B3FF45C
:104BB0002AAFE26823693749374864690460C1E96C
:104BC000002313433FF41FAF344B01221A701AE73E
:104BD0002A2B7FF418AF194B1B78002B3FF413AF2F
:104BE000A3892F4A1380002B3FF40DAF2D4B0122D8
:104BF0001A7008E7932B7FF406AF104B1B78002B3D
:104C00003FF401AF94F82C30DFF8B0E0264E274D8A
:104C10002749678DE26894F82F008EF800303780BE
:104C20002A600870002B00F0D682012B7FF4EBAED7
:104C3000204B1A80E7E600BFB890FF1FCCB8FF1FDB
:104C40004CB9FF1F9890FF1FA1B8FF1F6C93FF1F67
:104C50009C90FF1F0092FF1F58A5FF1F9CB8FF1FCD
:104C6000B490FF1FE0B8FF1F50B0FF1FF4B8FF1F44
:104C700070B9FF1FCCBAFF1FE094FF1F94B9FF1F4C
:104C80000000344350A5FF1FDB0F494088B9FF1FC8
:104C90009EAFFF1F18B0FF1FE8B8FF1F3AB9FF1FF4
:104CA000DCB8FF1FD0BAFF1FA4B8FF1FA0AFFF1FC3
:104CB00060A5FF1F86B9FF1FD8BAFF1FFA91FF1F1B
:104CC000182B7FF4A0AEA24B1B78002B3FF49BAEB9
:104CD00094F828309F48A04A94F829100370022BBA
:104CE00011703FD99D4E60699D4D9E4F3060A66901
:104CF0009D4A2E60E5699D493D60278C17809C4B3D
:104D0000678C0F809B4AA78C1F809B49E78C17807C
:104D10009A4BD4F82A700F60994AD4F82E701F600D
:104D20009849994BD4F832701760D4F83A20D4F8E7
:104D300036701A600F6005F0C7FE9449944C05F078
:104D4000CBFF03462360304605F0BEFE8F4905F0D9
:104D5000C3FF03466360284605F0B6FE8D4905F0A3
:104D6000BBFFA06000214FF40060FFF783FD01212D
:104D70004FF40060FFF77EFD002145F20200FFF7CF
:104D800079FD002145F20400FFF774FD3BE6704B0E
:104D90001B78002B3FF437AE6E4B1B78022B7FF64F
:104DA00032AE7D4F20697D4E7D4D386067697D4A0A
:104DB0003760A6697C4B2E60E56915607B49258CC0
:104DC0007B4A1D807B4B658C0D80A18CE58C11800E
:104DD0001D8005F079FE6D496D4C05F07DFF0346A1
:104DE0002360384605F070FE684905F075FF0346FC
:104DF0006360304605F068FE664905F06DFF6E4B56
:104E0000A060A3FB0530400905F05EFEE060FAE516
:104E10004F4B1B78002B3FF4F6AD684DE668684BAE
:104E20002E60684826691E60674A268C6749684F6D
:104E3000684D694B0680668CA08C1680D4F814E00F
:104E4000A669E2690880002145F20900C7F800E080
:104E50002E601A60FFF70EFDD5E53D4B1B78002B49
:104E60003FF4D1ADA0895D4DFEF7BAF82880E08906
:104E7000FEF730F92B885A4945F208229342088000
:104E800040F2AF81574B06221A70002145F208000C
:104E9000FFF7F0FCB7E52E4B1B78002B3FF4B3ADCA
:104EA000514F238D5149524A3B8094F82E700F7018
:104EB000504E678D1780504D94F82F7037704F48C3
:104EC00094F830702F704E49E76807604D4A2769A3
:104ED0000F604D4EA7694D4D4D48E1691760B3F520
:104EE000807F226A646A31602A60046000F28F81E8
:104EF0004848013B00EBC30440F83310626082E590
:104F0000134B1B78002B3FF47EAD04F114030FCB41
:104F1000414D424FDFF818E1414E85E80F00638AAA
:104F20004049E268208ACEF800201024B3F5B27F11
:104F30003C8030800B8000F05181B3F5B67F7FF468
:104F400062AD3949394B0A6001221A705BE500BF36
:104F5000CCB8FF1F6E87FF1F84B0FF1F3C92FF1F5E
:104F6000D8B8FF1F30B0FF1F26B9FF1F38B9FF1F89
:104F7000F094FF1F9A90FF1FDC94FF1F6CB9FF1F76
:104F800098B8FF1FBC99FF1F40B0FF1F8096184BB9
:104F9000F4B8FF1F00007A4438B0FF1F48B9FF1F64
:104FA0008CB0FF1F8CAFFF1F8CB9FF1F8EB9FF1F86
:104FB00090B9FF1F0892FF1F1F85EB5128B0FF1FFC
:104FC0003092FF1FEE91FF1FA2B8FF1F44A5FF1FE5
:104FD000FC91FF1F1CB9FF1FA893FF1FF0B8FF1F14
:104FE00080B0FF1FF294FF1FDCB8FF1F85B9FF1FC1
:104FF00036B0FF1FECB8FF1FFB91FF1FD494FF1FBB
:1050000048B0FF1F4CB0FF1F1C92FF1F2092FF1FD4
:105010002492FF1F90B0FF1F0CB9FF1F9C90FF1F31
:105020002892FF1FA6B8FF1F3CA5FF1F74B9FF1FE2
:105030002C92FF1F237C9F495A1F012A0B707FF679
:10504000E2AC1B2B3FF4DFAC9B4A617C1068019003
:105050009A489B4D019E9B4F06609B48E2682970D1
:105060003B70A1F10C01994BDFF8CCE20260B1FA80
:1050700081F1A07C18704909954B8EF80010954E6F
:10508000217D954D954F94F813E01970140CC309C8
:105090004FEA126287F800E034702A700ED0904B0D
:1050A0001A785AB98F49904A086810604868506069
:1050B00088689060C968D16001221A708B4D002108
:1050C00045F20100FFF7D6FB2C78002C7FF49BAC57
:1050D000874E8848338809210133338002F028FB4A
:1050E0003188854800F04EFC2146844802F020FBC0
:1050F000814800F0F7FB3388022B7FF684AC012354
:105100000C217F482B7002F013FB7B4800F0EAFB78
:105110007C4902A800F07EFC02A800F03BFC348031
:1051200071E4724B1B78002B3FF46DAC608B764DB5
:10513000FDF7B0FE2880A08BFDF728FF2B88734970
:1051400045F208229342088056D9714B06221A7004
:10515000002145F20300FFF78DFB002145F2070017
:10516000FFF788FB4FE46B4B6B4D94F83460208A5B
:10517000618AA28AE78A2E701880268B658BA08BA5
:1051800059809A80E18B228CDF801E81678CA68CEF
:105190005D819881E58C208DD9811A82618DA28DE7
:1051A0005F829E82DD8259839A831883E08D5B4FF4
:1051B000218E5B4E5B4DD883608E1984012294F85A
:1051C0003540588400214FF201103C7032702A7033
:1051D000FFF750FB17E4544B1A8014E4534B1A604A
:1051E00011E444F2A01293422AD9514B1A78062AAC
:1051F00039D005221A7048E644F2A01293420FD922
:10520000434B1A78062A2BD005221A70A0E72A21D0
:10521000484802F08DFA384800F064FBFFF7F3BB12
:1052200043F23812934228D842F2D002934232D845
:1052300041F268029342364B38D800221A7087E751
:1052400043F23812934211D842F2D00293421BD853
:1052500041F268029342364B24D800221A7014E6B9
:1052600004221A7074E704221A700EE6304B1A7882
:10527000052AF8D103221A7007E6254B1A78052A69
:10528000EED103221A7063E7294B1A78042AF1D170
:1052900002221A70F9E51E4B1A78042AF1D1022273
:1052A0001A7055E71A78032AD7D0F1E71A78032A3B
:1052B000C3D0F4E724B9FF1FE0BAFF1FACAFFF1F54
:1052C000C8BAFF1F10B0FF1FEC94FF1FEDB8FF1FFF
:1052D00094B8FF1FD994FF1F8AB0FF1FD4B8FF1FD7
:1052E00061A5FF1FF4B8FF1FDC91FF1FCCB8FF1FA3
:1052F0002CB0FF1FDCC600007887FF1FCCC6000063
:10530000E8C60000F8C60000EEB8FF1F0C92FF1FB1
:1053100084B9FF1FA8B8FF1F45B9FF1FCF94FF1F17
:1053200034B0FF1F94AFFF1FF891FF1F38A5FF1F78
:10533000F294FF1F08C700003CB0FF1F70B51B4C64
:1053400094F8685BCCB0E5B1D4F8601B40F223124E
:1053500001F2231603A8C4F8606B00F049FC04F6C0
:105360005E339E4205F1FF3503A940F22312104837
:1053700028BFC4F8604B84F8685B00F039FCFFF785
:1053800025FB0C4B1B7873B10B4D0C4C2B68019318
:105390002268019B9B1A0A2B05D9FEF7A3F82B68FC
:1053A0000293029B23604CB070BD00BFCC99FF1FDD
:1053B000B890FF1FCCB8FF1FE0BAFF1F90B8FF1FC7
:1053C00070B588B0FBF73CF918B9374D2B78052B31
:1053D00058D0364D364A2B680193019B12689B1AB0
:1053E000012B01D9FFF7AAFF324B1B78002B3FD1CD
:1053F000314C23784BB12B68304A02931168029BE1
:1054000041F270725B1A93421AD82D4B1B784BB144
:105410002B682C4A0393039B116824485B1AB3F54D
:10542000FA6F28D8237813B1274C2378DBB1FDF726
:10543000CDFC264B0120197800F06EFD08B070BD40
:105440002A2100262248267002F072F9214800F035
:1054500049FA214904A800F0DDFA04A800F09AFAFC
:105460001E4B1E80D1E7FCF787FE01232370DEE789
:10547000FBF70AF8BCE703680493049B1360FCF78E
:1054800041F8CFE70E210446154802F051F91148C2
:1054900000F028FA124904A800F0BCFA04A800F0B1
:1054A00079FA2C7095E700BFC099FF1FE0BAFF1F83
:1054B000E4B8FF1FA8AFFF1FCCB8FF1FACAFFF1FA2
:1054C0003CB0FF1FC899FF1FD094FF1FD2BAFF1F27
:1054D00044C700007887FF1F70C700002CB0FF1F73
:1054E00034C70000FFF76CBF70B50546284600F0D2
:1054F00019FD0128FAD0224E0A24224A002128460A
:1055000000F086FE10B1864228BF0646013CF4D169
:105510003B2E0AD8282E2AD2132E1BD80C2E23D28B
:10552000032E2AD34FF4E13070BDB6F5967F08D232
:10553000962E1FD2502E34BF4FF461504FF41650A8
:1055400070BDB6F5167F0CD3B6F5966F15D24FF435
:10555000966070BD1D2E34BF4FF416404FF4E140ED
:1055600070BD4FF4166070BD4FF4614070BD4FF4D4
:10557000964070BD4FF4965070BD002070BD00BFC6
:105580003F420F0040420F00F8B504462046FFF7A7
:10559000ABFF05462046FFF7A7FF06462046FFF76C
:1055A000A3FF07462046FFF79FFFB542EED1BD425D
:1055B000ECD18542EAD1F8BDF0B500218DB00446AA
:1055C00000F0BEFC2046012100F0A6FC2046FFF7BB
:1055D000DBFF2D4E054637460BE001212B4802F03C
:1055E000A7F84FF47A6000F0B1FC2046FFF7CCFF3B
:1055F00005462046FFF7C8FF034690B93278002AD7
:10560000EBD0152122483B7002F092F8214800F0BF
:1056100069F9214908A800F0FDF908A800F0BAF9D5
:10562000DBE7337813B91B4800F05CF90F211B4806
:1056300002F07EF800230A222946164800F062F99B
:105640000421174802F074F8124800F04BF904A83E
:10565000124900F0DFF90A222946684600F00CFAE8
:10566000694604A800F054FA014608A800F0E6F9DB
:1056700008A800F08FF9684600F08CF904A800F043
:1056800089F928460DB0F0BD2087FF1FACC7000088
:1056900080C700007887FF1F98C70000B0C70000D0
:1056A000C0C7000070B540F6C41092B000F04EFCC8
:1056B0000E215D485D4C5E4E5E4D02F039F806A845
:1056C0005D4900F0A7F906A82F2100F059FA06A9B4
:1056D000421C0AA800F07CFA0AA82E2100F050FA19
:1056E000002203460AA90EA800F04EFA0EA9204691
:1056F00000F0D2F8204600F0F5F80EA800F04AF9C4
:1057000010214E4802F014F80A21304602F010F839
:10571000204600F0E7F831460EA800F07BF90EA80D
:1057200000F038F90B21284602F002F8204600F07C
:10573000D9F829460EA800F06DF90EA800F02AF954
:1057400044213F483F4D01F0F3FF204600F0CAF8E6
:105750003D490EA800F05EF90EA800F01BF91921D2
:105760003A4801F0E5FF204600F0BCF838490EA8A1
:1057700000F050F90EA800F00DF91121284601F0B3
:10578000D7FF204600F0AEF829460EA800F042F9F7
:105790000EA800F0FFF8FDF7C7FC0920FFF70CFF8B
:1057A000C0F34E032B4903F13763024603F5D833A8
:1057B00080B2B3FBF0F00A8000F0A6FE264B274A29
:1057C00019680E910E9E1968059105991868049044
:1057D000049D18680390039C186802900298166054
:1057E0001B681F4A01931F4B11601F4A1F491D6010
:1057F0001F4B146008601F4A01991F4D1F4C196010
:105800000D20002301212B702370138000F098FBE2
:105810000121084600F094FB0AA800F0BBF806A896
:1058200000F0B8F812B070BDC8C700007887FF1F3D
:1058300054C8000060C80000D8C7000040C800007D
:105840006CC80000F8C80000B4C80000C8C8000058
:10585000E4C800006C87FF1FE0BAFF1FACAFFF1F5A
:10586000E4B8FF1FC899FF1FA490FF1F08B9FF1FCE
:1058700090B8FF1F2CB0FF1FCCB8FF1F61A5FF1F02
:10588000044B0022C3F8603BC3F8643B83F8682BE9
:10589000704700BFCC99FF1F2DE9F0438C688BB097
:1058A000ECB10025064689462F462B46212201A948
:1058B000484600F035F93268202C234628BF2023C3
:1058C000D2F8048001A91A4630461D44E41AC047A4
:1058D0000744002CE9D138460BB0BDE8F0832746D9
:1058E000F9E700BF00B5064A036812885B6883B019
:1058F00001A9ADF804200222984703B05DF804FB2B
:1059000064D50000F0B507468BB0002A33D0012AD9
:1059100008BF0A2251B3212400E0F4B2B1FBF2F532
:1059200002FB1511C8B2092900F1300198BFC8B2B5
:105930000AA988BF3730214488BFC0B201F8240CBF
:10594000661E2946002DE8D133B1013CE4B20AAB12
:1059500023442D2203F8242C3B6801AA11195B680B
:105960003846C4F1220298470BB0F0BD30228DF8C2
:1059700025202124E8E70368C9B21B6898470BB0CB
:10598000F0BD00BF0029BABF49422D2300230A22DF
:10599000FFF7B8BF10B50446006805F041FB20468C
:1059A00010BD00BF38B543688B4201D3012038BD1C
:1059B0000D4604460131006805F0DAFE0028F6D0F5
:1059C000A36884E82100002BF0D10370EEE700BF4C
:1059D000F8B50446154632B9036803B11A700023BE
:1059E000A3602046F8BD0E461146FFF7DBFF0746D1
:1059F00048B9206810B105F013FB276000236360ED
:105A0000A3602046F8BDA5603146206806F096FAEE
:105A1000E7E700BF38B500230446036043608360B6
:105A2000037341B108460D4606F0EAFA29460246DC
:105A30002046FFF7CDFF204638BD00BF0023884237
:105A400010B50446036043608360037303D08A6823
:105A50000968FFF7BDFF204610BD00BF38B50546F9
:105A600008460C4606F0CCFA214602462846BDE818
:105A70003840FFF7ADBF00BF10B5044600238AB021
:105A800023606360A3602373084601A900F0AEF9A8
:105A900001A92046FFF7E2FF20460AB010BD00BF73
:105AA0002DE9F84303680F46BB420446816815465A
:105AB0000AD85A18974207D2C3EB07094FF00108DA
:105AC00035B92046BDE8F8834FF00008002DF8D026
:105AD0004E1931462046FFF765FF0028F1D0B8F196
