:1000000000800020BD010000C54500007D450000C6
:100010007D4500007D4500007D4500007D450000D8
:100020007D4500007D4500007D450000C545000080
:10003000C54500007D450000F1470000F54800007F
:10004000C5450000C5450000C5450000C545000088
:10005000C5450000C5450000C5450000C545000078
:10006000C5450000C5450000C5450000C545000068
:10007000C5450000C5450000C5450000C545000058
:10008000C5450000C5450000C5450000C545000048
:10009000C5450000C5450000C5450000C545000038
:1000A000C5450000C5450000C5450000C545000028
:1000B000C5450000C5450000C5450000C545000018
:1000C000C5450000C5450000C5450000C545000008
:1000D000C5450000C5450000C5450000C5450000F8
:1000E000C5450000C5450000C5450000C5450000E8
:1000F000C5450000E12E0000C54500002932000082
:10010000C54500005D340000C5450000C545000040
:10011000C5450000C5450000C5450000C5450000B7
:10012000C5450000C5450000C5450000C5450000A7
:10013000C5450000C5450000C5450000C545000097
:10014000C5450000C5450000C5450000C545000087
:10015000C5450000C5450000C5450000C545000077
:10016000C5450000A5360000C5450000C545000096
:10017000C5450000C5450000C5450000C545000057
:10018000C5450000C5450000C5450000C545000047
:10019000C5450000C5450000C5450000C545000037
:1001A000C5450000C5450000C5450000C545000027
:1001B000C5450000C5450000C5450000564B4CF242
:1001C000205210B51A804DF628121A8000BF00BFC9
:1001D00004F0FCF9514B4FF010621A60504A9A60DB
:1001E000504ADA60504A136813F4807304D14F49BF
:1001F0000B604FF4A85313604D4B1A78110703D5C9
:100200001A7842F008021A704A4B4B492A221A7097
:100210004A4A4B4B8B4204D252F8040F43F8040B6A
:10022000F8E7484B484900228B4202D243F8042B9E
:10023000FAE74649464A002352F8230041F82300D2
:1002400001336F2BF8D1434B434A802103F8011B44
:100250009342FBD1414B3D4A1A60414B8A221A70AE
:10026000A3F5805324225A70A0221A709A7992071B
:10027000FCD59A79D406FCD43A4A937903F00C035E
:10028000082B384BF9D103221A7140225A719A79FE
:100290009006FCD5334A9179324B4906FBD5324A58
:1002A000324911600221516020221A709A7902F0BD
:1002B0000C020C2AFAD12E4B2E4A1A602E4B2F4AD2
:1002C0001A6000225A60072243F8042C2C4AC3F813
:1002D0000C2D62B602F0B2FC144B1B68DA0705D590
:1002E000284802F045FC284B284A1A60284B1B7806
:1002F0005B0609D5244C254B22689A4204D121483B
:1003000002F036FC0023236007F0E4FA04F064F9FD
:1003100004F058F8FEE700BF0E200540308004408E
:10032000823F04000100002B10D0034014D0034092
:1003300002D0074000E007407490FF1FDC8B0000F4
:100340002087FF1F7490FF1F909BFF1F0082FF1FDD
:100350000000000000E400E05FE400E008ED00E0E1
:100360000050064000400640448004400000030165
:1003700004800440C010050014E000E0FF76010096
:1003800000002020DA1D325B1CE00340A5C3945A14
:1003900000F00740FFFFFFFFFFFFFFFFFFFFFFFF32
:1003A000FFFFFFFFFFFFFFFFFFFFFFFFFFFFFFFF5D
:1003B000FFFFFFFFFFFFFFFFFFFFFFFFFFFFFFFF4D
:1003C000FFFFFFFFFFFFFFFFFFFFFFFFFFFFFFFF3D
:1003D000FFFFFFFFFFFFFFFFFFFFFFFFFFFFFFFF2D
:1003E000FFFFFFFFFFFFFFFFFFFFFFFFFFFFFFFF1D
:1003F000FFFFFFFFFFFFFFFFFFFFFFFFFFFFFFFF0D
:10040000FFFFFFFFFFFFFFFFFFFFFFFFDEF9FFFF23
:1004100010B5054C237833B9044B13B10448AFF33E
:1004200000800123237010BD7490FF1F00000000A6
:10043000E08B0000084B10B51BB108490848AFF32A
:1004400000800848036803B910BD074B002BFBD0A0
:10045000BDE81040184700BF000000007890FF1F63
:10046000E08B00007490FF1F00000000704700BF89
:10047000044B05491A68137843F020031370087081
:10048000704700BF2097FF1F9498FF1FF0B540F6FC
:10049000055085B002F094FC284A294B2949116087
:1004A0001022A0219A7140F6055099705A7102F0FD
:1004B0009DFD40F2836002F03DFF234B234A196803
:1004C0000391039918680290029F1868019001989F
:1004D0001B6800931E4E1F4B11601F4D1F4A204981
:1004E000204C37601860009E2E6000234FF4FA60A5
:1004F00023700B7013801C4C02F052FB09211B4827
:1005000003F004FE0F211A4803F000FE204603F01A
:1005100001FF2621174803F0F9FD2821164803F0B2
:10052000F5FD204603F0F6FE1921144803F0EEFD18
:10053000204603F0EFFE05B0F0BD00BF2097FF1F7F
:1005400000A0064006A006409898FF1F1895FF1FC0
:10055000F494FF1F0897FF1FC094FF1F3895FF1FDB
:100560005693FF1FD496FF1F7C87FF1F1485000042
:10057000208500003085000058850000848500003B
:10058000124A134B1068012210B51A7006F030FFA2
:100590001049114C07F034F8104B2060186806F031
:1005A00027FF0C4907F02CF80D4B6060186806F027
:1005B0001FFF0C4907F024F80B4BA060188806F0C9
:1005C00013FF0A4907F01CF8E06010BD5C95FF1F9F
:1005D0005693FF1F8096184BAC90FF1FF894FF1F97
:1005E0003C95FF1F00007A444E93FF1F0000C84255
:1005F000F0B5444B444D454E454F87B006ACADF881
:1006000004000FCB04E90F00424A434B12781B78D9
:100610008DF806208DF8073001AC0FCCD4F800E03F
:1006200005F108040FC4B2793C48C4F800E0FE2389
:100630001424511CAB7001232A71AB71EC71EC7066
:100640006C713C704FF6FF720370B171EB1CE91DC9
:1006500001E013F8014F544084EA0414E4B2E000CE
:1006600080EA042080EA12228B4282EA1412F0D13E
:100670002B4E2A80104606F1140116F8013B224C3D
:10068000434083EA0313DBB2DA0082EA032282EA00
:10069000202282EA13131BB298B28E422880ECD13A
:1006A00083F0D60181EA0111C9B2CD0085EA0125A6
:1006B00085EA102585EA111526462DB21FFA85FC1C
:1006C00056F8020F174FA4F800C0EDB24FEA1C2EE7
:1006D000257784F81DE07168B268F3683C460FC462
:1006E00030697169104A368B03C41C233846194699
:1006F0002680137087F81BE0BD7607B0BDE8F04098
:1007000002F0EABC0C97FF1FB095FF1F2095FF1F5A
:10071000A195FF1F4995FF1F4D97FF1F6C93FF1F6A
:10072000B895FF1F7897FF1F9690FF1F2DE9F04F98
:10073000A24DA34EC5B0A84602F04CFE002866D0DC
:1007400002F058FEEB780022C4B22A700A2B00F2A5
:100750000D81DFE813F0D200D200BD00AB00E8004D
:10076000D60097007E005F000B000B000A2B00F004
:10077000EC803388DFF848A2B4EB132F00F0F1804F
:100780004FF0020985F800902B79DFF834B253441A
:100790004FF0010E594668465C724FF4887285F836
:1007A00003E002F029F9B9F1010F6F4640F0E38050
:1007B000B8F808309BF8042088F805200BB9A8F891
:1007C0000A3001339AF803A0A8F80830002387F80C
:1007D00003A088F802300AF1060422460DF1020156
:1007E000784802F009F977483B8803550AF1080A6E
:1007F0000444754A5FFA8AFA1B125146637082F804
:1008000000A002F069FC02F0E5FD002898D145B097
:10081000BDE8F08FF3796D4A3188D35C4B4083EAB1
:100820000313DBB2DA0082EA032282EA112282EAAF
:100830001313DAB29442338014BF0A230923EB70F6
:100840002B7933441C72F3788DF803300022AA70A0
:1008500072E72A79B31801321C723088F378444069
:1008600084EA0414E4B2E10081EA0421D2B281EA0C
:10087000102181EA14149A422A713480E4D10822AA
:10088000EA70E1E73188F4714C4084EA0414E4B280
:10089000E20082EA042282EA1122F37882EA141446
:1008A0003480002BEBD00722EA70CDE732887471D8
:1008B000544084EA0414E4B2E30083EA042383EAA4
:1008C000122383EA14140523EB703480F378BBE71A
:1008D0003188F47084EA010383EA0313DBB2DA009F
:1008E00082EA032282EA112282EA13120020042102
:1008F000234632802871E970A6E7FE2C28D0F378D1
:10090000A2E73288B471544084EA0414E4B2E300EC
:1009100083EA042383EA122383EA14140623EB7088
:100920003480F37890E732883471544084EA0414B8
:10093000E4B2E30083EA042383EA122383EA141473
:100940000323EB703480F3787EE7DFF874A017E7B9
:10095000022100234FF6FF72B470E970F370328009
:1009600072E74FF0010985F800900DE7DFF850A01D
:100970004FF000096F469AF803A087F803A0002003
:10098000B9F1020FA8702B7913D133440122597A9F
:100990001B7A287043EA0123FE2C3B80AA7001D009
:1009A000EA70C9E64FF6FF7385F80390F070338064
:1009B000C2E6B9F1000F3FF4BFAE0CE72095FF1F70
:1009C0007493FF1F7897FF1F9690FF1F008700000A
:1009D00000B5104B197883B0B9B90F4B0F4A1B689B
:1009E000019301981368C31AB3F5FA7F0C4B0AD32D
:1009F00010601A7852B119700A4B187802F0CAF8D0
:100A000003B05DF804FB1978F6E7054B0121197076
:100A1000F2E700BFD496FF1F9898FF1FA495FF1F11
:100A2000EA96FF1F6D87FF1F064BB3F81C320A2B97
:100A3000054B0CBF012100211970044B187802F0FE
:100A4000A9B800BFC090FF1F8A98FF1F6C87FF1FC7
:100A5000F8B5154CE66805464FF07E51304606F075
:100A6000B9FE18B1284606F0BFFC0646284606F037
:100A7000BFFC0E4906F010FD0D490746304606F052
:100A80000BFD0146384606F0FFFB0A496269E3693F
:100A9000E060A1FB051502EB951501336561E3618B
:100AA00006F0E6FEF8BD00BF4887FF1FCDCC4C3EE8
:100AB000CDCC4C3FD34D621070B5184C94F820301B
:100AC00084B006463BB3164B1A680192019A002186
:100AD000013A84F820101968039103981B68029367
:100AE000029B2361801A06F07FFC0E4906F088FD08
:100AF0000546642000FB06F006F076FC0146284619
:100B000006F0CAFC034601466068236006F0BCFBA1
:100B1000606004B070BD2269014BDCE74887FF1FAD
:100B20009898FF1F00BA5B4AF8B5124CA6680546B4
:100B30004FF07E51304606F04DFE18B1284606F0C3
:100B400053FC0646284606F053FC0B4906F0A4FC6D
:100B50000A490746304606F09FFC0146384606F033
:100B600093FBA0602846FFF7A7FFA06806F080FE71
:100B7000F8BD00BF4887FF1FCDCCCC3D6666663F01
:100B8000F8B5144CE66805460021304606F018FE1C
:100B900018B1284606F028FC0646284606F028FC30
:100BA0000D4906F079FC0D490746304606F074FC05
:100BB0000146384606F068FB09496269E369E0606E
:100BC000A1FB051502EB951501336561E36106F0A4
:100BD0004FFEF8BD2487FF1FCDCC4C3ECDCC4C3F03
:100BE000D34D621070B5184C94F8203084B006468E
:100BF0003BB3164B1A680192019A0021013A84F81E
:100C000020101968039103981B680293029B2361CB
:100C1000801A06F0E9FB0E4906F0F2FC0546642056
:100C200000FB06F006F0E0FB0146284606F034FC27
:100C3000034601466068236006F026FB606004B04E
:100C400070BD2269014BDCE72487FF1F9898FF1FC6
:100C500000BA5B4AF8B5114CA6680546002130463B
:100C600006F0AEFD18B1284606F0BEFB0646284643
:100C700006F0BEFB0A4906F00FFC0A49074630465B
:100C800006F00AFC0146384606F0FEFAA060284647
:100C9000FFF7A8FFA06806F0EBFDF8BD2487FF1F53
:100CA000CDCCCC3D6666663F2DE9F047B54DDFF80B
:100CB0001C83D4B002F074FA002800F09C8002F08B
:100CC0007FFAEB780022C4B22A700A2B00F2CC849F
:100CD000DFE813F012011201FC00E900D600C300A6
:100CE000AE0094006D000B000B000A2BA64E04D042
:100CF0003388B4EB132F00F0F9834FF0020985F825
:100D000000902B79DFF880A2334410AF4FF0010E32
:100D1000514638465C724FF4887285F803E001F062
:100D20006BFEB9F1010F40F0A3842B899AF80420DF
:100D30006A7103B96B810133F2782B810023FA7059
:100D4000AB70FB79212B00F0858300F2DB80182B40
:100D500000F05A8300F2FA80012B00F03483C0F0D7
:100D6000F881162BA6D1894B1B78002BA2D014AB8F
:100D70000FCB874C874EDFF858E284E80F00FB89E1
:100D800085488649BA68BC89CEF800201027B3F59B
:100D9000B27F377004800B8000F0CB83B3F5B67F51
:100DA00088D17F497F4B0A6001221A7082E7764E14
:100DB0007D4AF3793188D35C4B4083EA0313DBB27D
:100DC000DA0082EA032282EA112282EA1313DAB2FB
:100DD0009442338014BF0A230923EB702B793344E8
:100DE0001C72F3788DF843300022AA7002F0D8F913
:100DF00000287FF464AF54B0BDE8F087624E2A79D2
:100E0000B31801321C723088F378444084EA041429
:100E1000E4B2E10081EA0421D2B281EA102181EA40
:100E200014149A422A713480DCD10822EA70D9E77E
:100E3000554E3188F4714C4084EA0414E4B2E20067
:100E400082EA042282EA1122F37882EA14143480BE
:100E5000002BEAD00722EA70C4E74B4E3288B47107
:100E6000544084EA0414E4B2E30083EA042383EAEE
:100E7000122383EA141406223480F378EA70B1E76F
:100E8000414E32883471544084EA0414E4B2E300E1
:100E900083EA042383EA122383EA141403223480AE
:100EA000F378EA709EE7384E32887471544084EAD1
:100EB0000414E4B2E30083EA042383EA122383EAFE
:100EC000141405223480F378EA708BE72E4E3188B3
:100ED000F47084EA010383EA0313DBB2DA0082EAE6
:100EE000032282EA112282EA1312002004212346FF
:100EF00032802871E97075E7FE2C234E00F0ED82F8
:100F0000F3786FE7932B00F0218263D84A2B00F02F
:100F1000A6817D2B00F06781412B7FF4CBAE1B4B6C
:100F20001B78002B3FF4C6AE2048214A214C2249B1
:100F3000224B0126067097F8300010703E8A788D9B
:100F400097F83120268008801A70B3E61D2B00F038
:100F50002E821E2B00F056811B2B7FF4ABAE0B4B69
:100F60001B78002B3FF4A6AE154C1649164BB7F96B
:100F70001060B7F91200B7F91420266008601A60F3
:100F800098E600BF2095FF1F7493FF1FD496FF1FA4
:100F90000C97FF1F9690FF1F0493FF1F6897FF1F7A
:100FA000D094FF1F4E97FF1F008700000895FF1F7A
:100FB0000597FF1F5493FF1FEC92FF1F4C93FF1FD9
:100FC0003497FF1F3897FF1F3C97FF1F1F85EB517A
:100FD0000893FF1FB52B00F0C981FD2B1DD0A62B58
:100FE0007FF468AEAA4B1B78002B3FF463AEA94890
:100FF0003C7BA9490470A94B787B0870A84AB87B50
:101000001870A84CF87BA849A84B10703E7C388912
:101010007A89267008801A804CE6A54BA54E3C7A4A
:101020001C70B4460DF149070DF1790938687968EB
:10103000BA68FB68E646AEE80F0010374F45F44645
:10104000F4D13A88DFF8FCE29A4BACF80020322267
:101050008EF8002003F13307002213F8011B11F072
:10106000DF0F02F1010004D1197811F0DF0F00F059
:1010700042829F420246F0D13327384636224FF053
:10108000350E4FF0340C8C4B8C491F7000233354B9
:10109000884806F80C3006F80E30B35406F024FFEA
:1010A000002840F03382864B01221A70854EB6F834
:1010B0001CA2BAF10A0F00F03382DFF88C927D494E
:1010C00048463A1D00F8014B01F096FCCE46BEE8BA
:1010D0000F0002AC0FC4BEE80F000FC4BEE80F0043
:1010E0000FC4774B89F833701B7889F834309EE849
:1010F0000300D6F8183244F8040B03F1350C06F25D
:1011000012239C452170C6F818C204BFB446C6F825
:1011100018620DF1080E67460DF1380974460FCCC0
:101120004C4538607960BA60FB60A64607F110074D
:10113000F4D12068386023793B710AF10103A6F8E5
:101140001C32604BBAF1000F7FF4B4ADC3F814C287
:10115000B0E53B7B5C495A1F012A0B707FF6AAADB4
:101160005A4B5B49186801905A4A5B4C01980860D9
:10117000BB7B5A49787B107023705948BC68594A28
:101180000C60DB09FC7B397C0470117004D0564B79
:101190001B78002B00F0DB813D4E3478002C7FF46F
:1011A00089AD524F52483B880A2101333B8002F0FF
:1011B000ADFF39884F4803F0FDF821464E4802F054
:1011C000A5FF4C4803F0A6F83B88022B7FF672ADD2
:1011D00001230C214948337002F098FF454803F081
:1011E00099F83C8066E52A4B1B78002B3FF462ADF2
:1011F000434C4449444B3E897889BA89268008800B
:101200001A8057E5224B1B78002B3FF453AD3F4A21
:101210003F4BBC693F4914603A6AFC691A600C6034
:10122000F8683D493D4C06F037F93D49D7F8109034
:101230007E693C4F06F0E4F937492060484606F0E5
:101240002BF93749384C06F0DBF933493860304622
:1012500006F022F9324906F0D3F920602AE50C4B5A
:101260001B78002B3FF426AD3049B868304B08603E
:10127000304AF8681860304C388B3049304B108059
:101280007E8B38697A69268008601A6012E500BF93
:10129000D496FF1F4C93FF1FC896FF1F4C97FF1F4C
:1012A0004895FF1F4297FF1F7093FF1F2497FF1F52
:1012B000CA96FF1F1093FF1F5893FF1F5C86000004
:1012C000C996FF1FC090FF1F2C95FF1F9898FF1F06
:1012D0001895FF1F8098FF1FED96FF1F6893FF1F53
:1012E000DC96FF1FFA92FF1F5693FF1F3895FF1FD2
:1012F000408600007C87FF1FA88500004C86000008
:101300001C97FF1F4A95FF1FE896FF1F6093FF1F62
:101310008498FF1F6497FF1F000034439098FF1FBD
:10132000DB0F49407097FF1F5C93FF1F4095FF1F25
:101330000495FF1FD894FF1FF092FF1F2897FF1FEF
:10134000E892FF1F9690FF1F6C95FF1FA04B1B7824
:10135000002B3FF4AFAC9F4C9F49A04BFE8CB8686C
:1013600097F82B20268008601A70A3E4984B1B780E
:10137000002B3FF49FAC3889994CFFF701FC20808B
:101380007889FFF767FC2388964945F20822934243
:10139000088000F2D28044F2A012934240F2DA8038
:1013A000914B1A78062A2CD005221A7082E4884BB9
:1013B0001B78002B3FF47EAC8C498D4BF868BA8AC1
:1013C00008601A8076E4824B1B78002B3FF472ACE5
:1013D000F88A884CFFF73CFB2080388BFFF7A4FB92
:1013E0002388854945F208229342088000F2AA80AA
:1013F00044F2A012934240F2BE80804B1A78062A33
:10140000D2D104221A7055E4714B1B78002B3FF4A3
:1014100051AC97F824307A487A4A97F8251003702F
:10142000022B11707FF646AC77483C69774904601F
:10143000774B78690860774AB8691860764CB88B42
:101440007649774B1080FE8B388C7A8C268008800A
:101450001A802FE45E4B1B78002B3FF42BAC684BBB
:101460001B78022B7FF626AC6E4B6F49D7F8149091
:10147000C3F800906D4ABB690B606D4BB98B11804E
:101480006C4EF98B6C4A1980F8686C4B6C4C398C3B
:101490003060D7F810A07E8C11801E80C4F800A0A8
:1014A00005F0A6FF6749684C06F0AAF82060504690
:1014B00005F09EFF634906F0A3F86060484605F01A
:1014C00097FF624906F09CF8A8FB0636A0607009F9
:1014D00005F08EFFE060FFF7EDBB4FF6FF710023D4
:1014E0000222B4703180F370EA707BE44FF001099E
:1014F00085F8009005E4D3B25F1C8EF8003002F14D
:10150000020C02F1030EFFB20432BCE5504951480F
:1015100006F0EAFC00287FF4C9AD4F4B1870C5E512
:1015200011214E4802F0F2FD4D4802F0F3FEFFF7A4
:10153000C1BB4C4B1A60FFF7BDBB2B4B06221A7088
:10154000FFF7B8BB2D4B06221A70FFF7B3BBFFF7AE
:1015500017F821E643F23812934229D842F2D0021A
:1015600093422FD841F2680293421F4B10D80022B9
:101570001A70FFF79FBB43F2381293420FD842F222
:10158000D002934219D841F2680293421B4BEED924
:101590001A78032AEBD002221A70FFF78BBB174B85
:1015A0001A78052A7FF42DAF03221A70FFF782BB49
:1015B0000D4B1A78052AF7D023E7104B1A78042A26
:1015C000E9D0F1E7084B1A78042AE4D0ECE700BF31
:1015D000D496FF1FD494FF1F1095FF1FE494FF1FA4
:1015E000F096FF1FA895FF1F7293FF1FFC92FF1F2D
:1015F0008898FF1FEE96FF1FEE92FF1F5C97FF1F5C
:101600006E87FF1FAC95FF1F5097FF1FE496FF1FCB
:101610003C95FF1F2697FF1F4097FF1F6E93FF1FEC
:101620009490FF1FC496FF1FEC94FF1F5E97FF1F4F
:101630006097FF1F5C95FF1F6297FF1F4E93FF1F70
:10164000F894FF1F8096184BF496FF1F00007A4411
:101650006C8600001093FF1FC996FF1F7C86000058
:101660007C87FF1FCC94FF1F144E4FF0000910AF72
:10167000F378FB700026B9F1020FAE702B790F489A
:1016800015D103440122597A1B7A2E7043EA0123B3
:10169000FE2C3B80AA7002D0EA70FFF70BBB4FF61E
:1016A000FF7385F80390C6700380FFF703BBB9F1A1
:1016B000000F7FF446ABFFF7FDBA00BF7493FF1F26
:1016C0007E2808B50CD07D2803D0BDE8084001F085
:1016D000EDBB01F0EBFB5D20BDE8084001F0E6BB8F
:1016E0007D2001F0E3FB5E20BDE8084001F0DEBB99
:1016F00038B50D4B1B78012B04460D4602D0012056
:10170000FEF7B6FE204655B1FFF7DAFF074B188803
:10171000204400EB102000F0FF00188038BDBDE829
:10172000384001F0C3BB00BF9498FF1FE094FF1F37
:1017300010B5204B1B7882B0012B0092ADF806103B
:10174000044602D00120FEF793FE00217E20FFF721
:10175000CFFF20460021FFF7CBFF01211020FFF72C
:10176000C7FF9DF80600144C0121FFF7C1FF9DF84B
:1017700007000121FFF7BCFF9DF800000121FFF7E2
:10178000B7FF9DF801000121FFF7B2FF9DF80200AD
:101790000121FFF7ADFF01219DF80300FFF7A8FF2E
:1017A0002078C043C0B2FFF78BFF0023238002B034
:1017B00010BD00BF9498FF1FE094FF1F1A4B1B49F8
:1017C0001B681B4A002B70B41A4C20DBA4FB0303DC
:1017D0005C0904EB4404002364000C6013701D4694
:1017E00000221346012000FA03F101331E2B42EAC6
:1017F0000102F8D1104E336822402B43134333606B
:101800001A464FF400611B2070BCFFF791BF5B428A
:10181000A4FB0334640904EB4404640001230C605A
:1018200013704FF08045DBE75C95FF1FA890FF1F0A
:101830001495FF1F1F85EB51F492FF1F38B51D4B08
:101840001868002825DB05F0CFFD1B4905F024FEB4
:1018500006F00EF8194A1A4B106002221A704FF067
:10186000004500221346012404FA03F101331E2B24
:1018700042EA0102F8D1134C236802402B43134380
:101880001A4623604FF400611B20BDE83840FFF783
:101890004FBF404205F0A8FD074905F0FDFD05F0EA
:1018A000E7FF064A064B106003221A704FF04045CE
:1018B000D7E700BFF894FF1F8FC2753D5897FF1FF1
:1018C0001495FF1FF492FF1F2DE9F0435B4E337810
:1018D0008FB0002B47D05A4A1478A34280F29480EC
:1018E000584A5948D55C0768584C13442A0693F85F
:1018F00003E093F8018093F802C084F801800EF0B1
:101900007F0302F0FE421A434FEA0841BCF1000F88
:1019100018BFB8F1000F47EA020701F4FE014FEAD1
:101920000C2241EA070102F4FE420CBF012300230E
:101930000A43002D08BF43F00103026084F802C08F
:1019400084F803E02570002B63D1BEF1000F60D056
:101950004FF4A0411B20FFF7EBFE337804333370C4
:101960000FB0BDE8F083DFF8E880B8F81C72002FF4
:101970005FD0D8F8144204F1350CC8F814C204F151
:101980003009EE4620686168A268E36875460FC5B5
:1019900010344C45AE46F5D1206828602C4B227996
:1019A0002A7103F2122294456C4628BFC3F8143200
:1019B0000FCCDFF8A890DFF8A0C0DFF884E04D4638
:1019C0000FC50FCC0FC50FCC0FC594E8030045F829
:1019D000040B99F8333099F8000029701A1D09F1A9
:1019E00001018CF80000013F16488EF800301C46BB
:1019F000A8F81C7201F000F83378164A99F83410F0
:101A00001170A342FFF66CAF002333700FB0BDE836
:101A1000F083114B1B785C05990304F4000401F476
:101A20000041DB01214303F080030B431A430260B2
:101A30008EE7B847B8F81C729BE700BF4F97FF1FAF
:101A40000497FF1F8494FF1FF492FF1FE092FF1F73
:101A5000C090FF1F7F98FF1FEC96FF1F6C95FF1F24
:101A6000F0B5234B23491B78234A09781170062BC4
:101A700036D0224A224B12681B78224D224C234832
:101A80000132DB09D2B22A70237003701F46204C4A
:101A9000204894F800E0204C0678256849014FEA78
:101AA0004E2E01F060000EF400710143B002294394
:101AB00000F4406002F01F02FE010143114306F0F2
:101AC00080001B0203F4807241EA00031343236089
:101AD0001A4645F201011B20BDE8F040FFF728BE81
:101AE000084A0A48084B127807781B78CFE700BFEE
:101AF0002C95FF1FC996FF1F7F98FF1F6893FF1F3C
:101B0000ED96FF1FAB95FF1F5495FF1FC096FF1F5B
:101B1000EB96FF1F4C95FF1FF492FF1FF8B5204B6B
:101B200020491868204C05F0B7FC204905F0ACFBB3
:101B300005F09EFE1E4A1F4B1A4987B21F8010688F
:101B400005F0AAFC1C4905F09FFB05F091FE1B491E
:101B5000002380B21A4620800B80012505FA03F489
:101B600001330B2B42EA0402F8D1154E34683A4097
:101B7000C00222430021012505FA03F40133152B8D
:101B800041EA0401F8D1014041EA02031A463360F8
:101B900045F206011B20BDE8F840FFF7C9BD00BFB4
:101BA0009098FF1F0000A0405497FF1F0000614461
:101BB0007097FF1FF892FF1F0000E143AE95FF1FD3
:101BC000F492FF1F38B5314B1A78042A09D8013234
:101BD000D2B2042A1A700AD0052A3FD0012A27D08F
:101BE00038BD2B49002201201A70087038BD294BDE
:101BF00029491A70086805F03BFE284B002218603E
:101C00000124134604FA03F10133182B42EA0102BE
:101C1000F8D1234C2168024041F0806313431A46F7
:101C2000236045F207011B20BDE83840FFF780BD67
:101C30001C481D49174B05780D6000211A700B4692
:101C400002FA03F00133182B41EA0001F8D1144CD9
:101C50002268294042F080730B43E0E70D4B1349A3
:101C60001A70086805F004FE114B00221860012468
:101C7000134604FA03F10133182B42EA0102F8D1AA
:101C8000074C2168024041F0A063C7E7A090FF1F06
:101C9000C196FF1FD694FF1FCC94FF1F6095FF1FB6
:101CA000F492FF1F2C95FF1F8C98FF1FD094FF1FED
:101CB0006895FF1F144B1B7810B50BB3134B1878A6
:101CC00005F096FB124905F09BFC05F0D1FD114B88
:101CD000186000221346012404FA03F10133202B7B
:101CE00042EA0102F8D10C4C2368024013432360FE
:101CF0001A464FF201111B20BDE81040FFF718BD36
:101D0000044BFF201860E4E70895FF1F4C93FF1F6A
:101D10005C8F2240C494FF1FF492FF1F10B502296C
:101D2000044680EAE070A0EBE47011D0032901D0F2
:101D3000002010BD012A26D0022AF9D1B0F57A7F01
:101D400052DA800080B2002CF3DA40F4805010BDEB
:101D5000012A31D0022AEBD163285EDDB0F57A7F0B
:101D600072DA05F041FB574905F096FB02F05EFE82
:101D700005F07EFDC0B2800040F00100002CD8DAF2
:101D800040F4007010BDB0F57A7F49DBB0F5205FFC
:101D90006CDA05F029FB4B4905F07EFB02F046FEAC
:101DA00005F066FD80B2400040F0010080B2002CDA
:101DB000BFDA40F4006010BD63282BDD40F2F5432C
:101DC00098423FDC05F010FB3E4905F065FB02F050
:101DD0002DFE05F04DFDC0B2400040F00100002C8A
:101DE000A7DA40F4807010BD42F20F7398421ADDFA
:101DF000354B98423DD805F0F7FA344905F04CFBD5
:101E000002F014FE05F034FD80B2800040F00200C4
:101E100080B298E7400080B2E1E7800080B2ADE791
:101E2000400080B2C3E705F0DFFA264905F034FB35
:101E300002F0FCFD05F01CFD80B2800040F00100C6
:101E400080B280E7FF20CAE742F20F73984222D89F
:101E500005F0CAFA1D4905F01FFB02F0E7FD05F089
:101E600007FDC0B2800040F0020087E740F2FF703B
:101E70009DE7B0F57A2F1FD205F0B6FA144905F0A8
:101E80000BFB02F0D3FD05F0F3FC80B2800040F0C4
:101E9000030080B257E70F4B984210D805F0A4FA20
:101EA0000B4905F0F9FA02F0C1FD05F0E1FCC0B202
:101EB000800040F0030061E740F6FF7043E740F226
:101EC000FF105BE7CDCCCC3D9F8601000AD7233CB9
:101ED0006F12833A17F00100F8B52A4A2A4B11789D
:101EE0002A4E1B782A4A34682A48137003290A4666
:101EF00003F00F0328BF0322032943EA04030270FF
:101F00003DD90339CFB2BC0304F440442249234DE8
:101F1000DFF898E0096822482D88120102F03002AB
:101F2000134380FB01C0AEFB0525DFF884C002220D
:101F3000C917C1EB601011461C438CF80070FFF705
:101F4000EDFEC5F3C705174B0746012228460221BF
:101F50001F60FFF7E3FE144BDFF858E0BF053B407E
:101F6000C5B2234343EA85138EF800501A46336006
:101F700045F202011B20BDE8F840FFF7D9BB002461
:101F80002746C3E76E87FF1FAC95FF1FF492FF1F24
:101F9000E294FF1F0995FF1F3C95FF1F2697FF1F27
:101FA0001F85EB516493FF1F0000C07FCDCCCCCCCC
:101FB000E394FF1FAA95FF1FF8B51F4B1F4C1A880B
:101FC0001F49204B204D0E68204F214918882B684F
:101FD0000E80A4FB02425209C2F308043A801C435B
:101FE00005F006FA1B4905F057FA02F01FFD05F04F
:101FF00019FC01220221FFF791FE1749430203F465
:10200000FF3343EA040208807604002111230124EF
:1020100004FA03F00133202B41EA0001F8D13140EA
:1020200041EA02031A462B6045F203011B20BDE87A
:10203000F840FFF77DBB00BFEE96FF1F1F85EB51F9
:102040001095FF1FEE92FF1FF492FF1FBC90FF1F21
:10205000E492FF1FCDCCCC3D2C97FF1F2DE9F04F14
:10206000DFF87093C649D9F80400C64EDFF86883DC
:10207000C54FC64DC64C89B005F0C2FAC54905F03A
:102080000BFA8346BE49D9F80000C6F800B005F047
:10209000B7FAC04905F000FA8246B949D8F80400F9
:1020A000C7F800A005F0ACFABA4905F0F5F9814689
:1020B000B349D8F80000C5F8009005F0A1FAB54979
:1020C00005F0EAF9804659464846C4F8008005F014
:1020D000D9F804F057FD02460B46CDE9062302F07D
:1020E00061FCCDE90001404604F04CFD8046894684
:1020F00002F00EFCCDE90201504604F043FD824699
:102100008B4602F005FCCDE904014046494602F049
:1021100049FC804689465046594602F043FCDDE9B9
:10212000062382468B461046194602F0F1FB4246D2
:102130004B46CDE90601DDE9040104F077FD524686
:102140005B46DDE902AB804689465046594604F0BD
:102150006DFDDDE9062304F069FD02460B464046AD
:10216000494604F0AFFB5246804689465B46DDE9AE
:10217000000104F05BFD42464B4602F0D3FC05F043
:102180002DF87F4905F088F9824905F039FA0021D8
:10219000804605F01FFB002840F0E880DFF83CA2F5
:1021A000CAF8008024683F682046394605F06AF87E
:1021B000794B31688046C3F80080286805F062F8E2
:1021C000764B054618604FF07C51404605F064F9A7
:1021D00004F0D8FC02F0E6FBCDE9000128464FF000
:1021E0007C5105F059F904F0CDFC02F0DBFB804690
:1021F0003846894604F0C6FC02F08AFB06462046B3
:102200000F4604F0BFFC02F083FB424604460D4635
:102210004B464046494604F009FD32463B4604F031
:1022200005FD22462B4604F001FDDDE900230446AE
:102230000D461046194604F0F9FC0B4602462946A5
:10224000204604F041FB04F0C9FF554A106004F039
:1022500099FC02F069FC02F00DFC02460B4604F00A
:1022600033FB04F0BBFF4F4B4F49186005F014F9E6
:102270004E4B4F4A1B781060002B73D005F0D2FAFA
:102280004C4C83B21846238005F0AEF802F0CEFB2A
:1022900005F0C8FA0646DAF800503949284605F034
:1022A000B7FA002855D0284605F0BCFA424BA0F1F9
:1022B000B408C3F80080414B414F1B68304687FB90
:1022C00003270321DB170222C3EB6717FFF726FD65
:1022D0000023208006461C46012101FA04F2013445
:1022E0000C2C43EA0203F8D138461E4005F080F872
:1022F00002F09CFB05F096FA03210222FFF70EFD87
:10230000304F314BD7F800A018604FEA0039002554
:10231000012101FA04F30134182C45EA0305F8D130
:10232000404605F061F8294905F0B6F805F0A0FA35
:102330004AEAC06040EA060309EA05051D432A4649
:1023400045F204011B203D6009B0BDE8F04FFFF7E6
:10235000EFB9284605F066FA174B00F1B408C3F848
:102360000080A8E7134C1E46238094E74046184996
:10237000DFF868A004F088FFCAF8000012E700BF89
:10238000000034433095FF1FA490FF1F3495FF1FBA
:102390003097FF1FDB0F49405093FF1FC894FF1F6A
:1023A000FC94FF1FDC94FF1F706DC24A5693FF1F01
:1023B0009090FF1F0093FF1FF094FF1FEC94FF1FEE
:1023C0001F85EB51F492FF1F0C93FF1F213C5A3BDA
:1023D0000000B443AC90FF1FF496FF1F9890FF1FBE
:1023E0002DE9F84F344B35491868354FDFF8DCB02C
:1023F000DFF8DCA0DFF8DC8005F04EF8314B2F4928
:102400000446186805F048F82F4B0646188804F073
:10241000EBFF2A4905F0F4F800218146204605F03B
:10242000D9F93D68002843D1204602F0FFFA05F0B3
:10243000F9F901220221FFF771FC044604F0D4FFF0
:10244000CBF80000304602F0F1FA05F0EBF901227A
:102450000221FFF763FC064604F0C6FF760204F093
:102460007F0406F47E434FF07C512C43CAF80000F1
:10247000484643EA040605F00FF8C8F8000005F0E6
:10248000F7F9012500214004112305FA03F4013373
:102490001C2B41EA0401F8D1014041EA06031A4627
:1024A0003B6045F205011B20BDE8F84FFFF740B93E
:1024B00045F48075B8E700BFE892FF1F0000204197
:1024C000F492FF1F0495FF1F4E93FF1F4897FF1FB5
:1024D0004497FF1FD896FF1F284B29481B88A0FB55
:1024E00003302DE9F041400904F082FF254A264BD4
:1024F000264DDFF8A88004461C60B2F9000004F005
:1025000077FF234B0646586805F0B2F9214B87B296
:102510001F80204605F0ACF92B681F49C0F3080462
:1025200030461C4304F0B8FF02F080FA05F07AF957
:1025300001220221FFF7F2FB064604F055FF730269
:1025400003F4FF3343EA04027F04C8F800000021CB
:102550001123012404FA03F00133202B41EA000186
:10256000F8D1394041EA02032B601A4645F20801CE
:102570001B20BDE8F041FFF7DBB800BFF096FF1F5E
:102580001F85EB51A895FF1F6495FF1FF492FF1F55
:102590002487FF1FDE96FF1FCDCCCC3D7497FF1F15
:1025A000914B924A1B7800211160002B41D0F0B56D
:1025B0008F4B1B7899B01BB18E4B1B78002B39D0F9
:1025C0008D4C23685A1E0B2A28D8DFE812F0EF0042
:1025D000C300D8000C00B300A30093007E0061008C
:1025E000ED0050003800854D854BB3F81C3223B9FF
:1025F000844B1B78002B00F0EA802B68824E1193ED
:10260000119B32687D4F9B1AC82B40F2E080FFF788
:102610005BF93B681093109B336023687B4A7649D3
:10262000127801339342236001D901230B6019B062
:10263000F0BD7047FFF7C6FAF9E701332360744B2A
:102640001B688BB16D4E734D33680193019B2A68F3
:102650009B1AB3F57A7F07D9FFF73EFF33680093E3
:10266000009B2B602368D9E723680133D6E7634DCD
:102670002A68694903920868039A604D121A41F268
:1026800088308242D9D92A680292029A0A60C5E744
:102690005A4D2B68614E0793079B3268574F9B1A20
:1026A000B3F5FA7F00F2E6802368013323602B68DC
:1026B0005B4E0593059B3268504F9B1AC82B00F266
:1026C000C980236801332360D2E74C4D2B68554EF7
:1026D0000993099B32689B1AB3F5FA7F73D9524B61
:1026E0001B78022B00F2D6802B680893089B33607E
:1026F000236893E7414D2B684C4E0B930B9B32683C
:102700003E4F9B1AB3F57A7F00F29C802368013319
:102710002360DBE7394D2B68454E0D930D9B3268E6
:10272000364F9B1AB3F5A77F80F09C802368013356
:102730002360E0E7314D2B683E4E0F930F9B3268CC
:102740002E4F9B1AB3F5A77F80F09C80236801333E
:102750002360E0E7294D2B68374E1593159B3268AF
:102760009B1AB3F5A77F3AD32F4B1B78022B00F2AD
:102770009F802B681493149B336023684EE71F4D92
:102780002B682E4E1393139B32689B1AB3F5A77FC9
:1027900021D3254B1B78022B00F287802B681293E4
:1027A000129B3360236839E7144D80E7134D244AA8
:1027B0002B681793179B11685B1AB3F5FA7F6CD8D7
:1027C00002232360C7E723680133236061E723689E
:1027D00001332360AFE723680133236004E72368F4
:1027E00001332360CCE700BFD496FF1FF492FF1F94
:1027F0004E97FF1FC196FF1F7087FF1F9898FF1FFE
:10280000C090FF1F4F97FF1FE096FF1F6F87FF1FAE
:102810006895FF1F5095FF1F5895FF1F6C97FF1F6E
:102820000C95FF1F0095FF1F0995FF1F4495FF1F83
:102830009C90FF1FD096FF1F1C95FF1FE894FF1F61
:10284000CC96FF1FFFF7B8FB3B680A930A9B3360E7
:102850002368E3E6FFF762F93B680493049B336067
:102860002368DBE6FFF738FB3B680C930C9B336077
:102870002368D3E6FFF7B4FD3B680693069B3360FD
:102880002368CBE6FFF7ECF83B680E930E9B3360B2
:102890002368C3E6FFF7E2FB26E72B681693169B37
:1028A0001360FFF707FA2368B8E6FEF7C7FF75E77E
:1028B000FEF784FF5DE700BF08B5054B1B78012BD1
:1028C00002D00120FDF7D4FDBDE80840FFF768BE47
:1028D0009498FF1F30B5314C237885B04BB3304B03
:1028E000304A1B6801931168019B40F6B8325B1AAD
:1028F00093420CD900252A212B48257001F006FCB3
:102900002A4801F007FD2A4A237815808BB1294D0A
:102910002B7843B3284B1B785BB1284B1A7842B90C
:102920000122202126481A7001F0F0FB1F4801F017
:10293000F1FCFEF7B9F9FDF7F9FE23786BB1184DFC
:10294000204C2B680293029B22689A4205D0FFF725
:10295000B3FF2B680393039B2360FEF739F8FEF760
:1029600063F805B030BD4FF4B270FDF741FE4FF48F
:10297000B270FDF73DFE4FF4B670FDF739FE4FF42F
:10298000B670FDF735FE1C210F4801F0BFFB07486C
:1029900001F0C0FC01232B70CBE700BFD496FF1FD2
:1029A0009898FF1F1895FF1FD48600007C87FF1F93
:1029B0003895FF1F5793FF1F4E97FF1F0293FF1F6E
:1029C000B0860000C094FF1F90860000074B084AA5
:1029D000084910B40024A3F81C42184610BCC3F8E0
:1029E0001432C3F8183204F063BF00BFC090FF1F59
:1029F0002087FF1F6D040000844641EA000313F0A6
:102A000003036DD1403A41D351F8043B40F8043BF5
:102A100051F8043B40F8043B51F8043B40F8043BB8
:102A200051F8043B40F8043B51F8043B40F8043BA8
:102A300051F8043B40F8043B51F8043B40F8043B98
:102A400051F8043B40F8043B51F8043B40F8043B88
:102A500051F8043B40F8043B51F8043B40F8043B78
:102A600051F8043B40F8043B51F8043B40F8043B68
:102A700051F8043B40F8043B51F8043B40F8043B58
:102A800051F8043B40F8043B403ABDD2303211D3F8
:102A900051F8043B40F8043B51F8043B40F8043B38
:102AA00051F8043B40F8043B51F8043B40F8043B28
:102AB000103AEDD20C3205D351F8043B40F8043BF8
:102AC000043AF9D2043208D0D2071CBF11F8013BF6
:102AD00000F8013B01D30B8803806046704700BFBC
:102AE000082A13D38B078DD010F003038AD0C3F1CB
:102AF0000403D21ADB071CBF11F8013B00F8013BAD
:102B000080D331F8023B20F8023B7BE7043AD9D36B
:102B1000013A11F8013B00F8013BF9D20B78037040
:102B20004B7843708B7883706046704710B40F4BBE
:102B300053F8302092F880422CB1012369B182F819
:102B4000803010BC704703EBC0035B681A6841B962
:102B500022F002021A6010BC704782F8003110BCEB
:102B6000704742F003021A6010BC704700880000F2
:102B700030B4054B054D064C002210211A602A6026
:102B80002060196030BC704714D0034004D003406B
:102B900000D00340212801D8FFF7C8BF704700BF0D
:102BA0002DE9F843054672B6204F214B214A1B6898
:102BB0003C68126862B6520102D5322B88BF0134DC
:102BC00095B3C3F5BB331C4EDFF86490DFF8648027
:102BD000FF334FF47A72A6FB031302FB04F404EBF9
:102BE000931472B6D9F800103A68D8F800E062B6CB
:102BF000C1F5BB33FF33A6FB03031EF0806FC4EBAC
:102C000093134FF47A7002D0322988BF013200FB4F
:102C10000233B3F57A7F04D3013D05D004F57A740D
:102C2000DFE701F0EDFBDCE7BDE8F8839898FF1FD4
:102C300018E000E004ED00E0ABAAAAAAF8B52D4B1D
:102C40002D49DFF8D0E0DFF8D0C02C4E2C4D2D4CB4
:102C50002D4A2E4F4FF4000018604FF0807018601E
:102C60004FF0007018604FF0806018604FF0006007
:102C700018600020086028234BF6FF71CCF8001084
:102C8000CEF80030336013602B6023603B60B3628A
:102C90009362092245F8242CC4F8D80F05F57F6506
:102CA000C7F8D41F07F5FF2707F5FA67C6F8F83FFE
:102CB0002B6006F5FF26C4F8D42F05F5FD2504F595
:102CC000FF24386006F2F4761148316005F5FF659F
:102CD00004F5FD642B602360026001F0DFFB192026
:102CE000FFF75EFF01F00AF940F21310BDE8F8406B
:102CF000FFF756BF08E100E0048003401480034062
:102D0000248003402C8003401C8003403480034017
:102D100000800B400C800340088003402DE9F84FF1
:102D2000214B1B6807460BB101221A70DFF888900F
:102D30001E4D99F80040DFF884801D4E01343F2C71
:102D40008ABF4FF0000A5FFA84FA5446AB462B78EC
:102D5000A34216D101F058FC40281FDC33791B0632
:102D6000F5D59BF8003001333F2B86BF0022134678
:102D7000DAB218F80330DBB2F3712A702B78A34271
:102D8000E8D00C490A4BFFB208F804700120BC22BD
:102D9000087089F800A0DA70BDE8F88FFF28D6DD4A
:102DA00001F02EFBD3E700BF2C99FF1F2999FF1FCD
:102DB00000A006402899FF1F3099FF1FA498FF1F0D
:102DC0002B4A2C491368F0B543F4806313600A78EA
:102DD000294F2A4E2A4D2B4C2B4900233B70337030
:102DE0002B7023700B70002A3DD0152A21D0274B61
:102DF0001B78012B25D0052B30D01F2827D8002089
:102E000002460125224B234C1A7023495D7004228F
:102E10004FF0020E88273C26402598729A704FF496
:102E2000005083F813E05A751F74DE702570086037
:102E3000F0BD1A4B40F213321A60144B1B78012B71
:102E4000D9D1174B4FF451721F281A60D7D9C0F34C
:102E50004432C0F3471500F01F00D3E7114B4FF485
:102E600051721A60C9E7104B40F213321A60BEE784
:102E700034800440E498FF1FA098FF1FA198FF1F13
:102E80003099FF1F2999FF1F2899FF1F7487FF1F83
:102E900000A006402DE400E004E100E018C004407A
:102EA00044A004401CC0044040A00440034B1B68E5
:102EB0005B0501D5FFF732BF704700BF3480044087
:102EC000054A064B10781B78C0B2DBB2984238BF77
:102ED0004030C01A704700BFA098FF1FA198FF1F85
:102EE000F0B4384B1A7912F0300F2CD072B6997DAD
:102EF00001F0FF0200293DD062B6334F33493878E4
:102F00000D78334E1C46C0B2EDB2431C402BE17924
:102F100028BF0023AB4202F1FF32C9B21CBFF154FB
:102F2000184612F0FF02F0D12A4B1B68C2B23A7069
:102F30004BB1A84236BFC5F14005401B40192728B8
:102F4000C4BF01221A701F49CA78D2B2150616D41E
:102F500052060DD51B4B1B795B0609D51E4B1F492D
:102F60001B6800220A7003B11A70164B3C22DA70FB
:102F7000F0BC70474022D9795A7462B6E3E70B7906
:102F80001C06E5D5164B174E1C783378E4B2DBB23D
:102F90009C420ED0144D01E0A3420AD00133402BD5
:102FA00028BF00230879E85CC0B2C871087D0728F3
:102FB000F2D9DBB2034933700B79180644BF7C2386
:102FC000CB70C5E700A00640A098FF1FA198FF1F87
:102FD000E898FF1F9C98FF1F2C99FF1F2899FF1F3F
:102FE0003099FF1F2999FF1FA498FF1F2B4A2C49D6
:102FF0001368F0B543F4006313600A78294F2A4E32
:103000002A4D2B4C2B490023092A3B7033702B701F
:1030100023700B703DD01A2A21D0274B1B780A2B26
:1030200025D01F2B30D01F2827D80020024601258D
:10303000224B234C1A7023495D7004224FF0020E7C
:1030400088273C26402598729A704FF4004083F8F8
:1030500013E05A751F74DE7025700860F0BD1A4BBE
:1030600040F213321A60144B1B780A2BD9D1174B3C
:103070004FF451721F281A60D7D9C0F34432C0F3FD
:10308000471500F01F00D3E7114B4FF451721A603F
:10309000C9E7104B40F213321A60BEE73480044097
:1030A0007587FF1FA499FF1F3999FF1FAC99FF1F58
:1030B000A599FF1F3899FF1F7687FF1F00B00640B4
:1030C0002FE400E004E100E004D0044010B004402C
:1030D00000D004400CB004402DE9F84F294B1B6888
:1030E0001A0548D5284B1B6805460BB101221A70FA
:1030F00005EB010A554540D2DFF89C80234CDFF8F0
:103100009C90234F0AE015F8012B09F80B20214A67
:103110000123AA45137088F800602ED098F800307B
:10312000227803F1010BBBF1270F86BF0026B346BF
:103130005FFA8BF69345E6D1BC22FA7005E03A7946
:1031400013060BD422789345DDD101F05DFA4028B7
:10315000F5DDFF28F6DD01F053F9F3E722780132BF
:10316000272A86BF00210A46D1B219F80220D2B21E
:10317000FA712170E6E7BDE8F88F054BBC22DA70E2
:10318000BDE8F88F34800440A899FF1FA599FF1F60
:1031900000B006403899FF1FAC99FF1F3C99FF1FF4
:1031A000054A064B10781B78C0B2DBB2984238BF94
:1031B0004030C01A704700BFA499FF1F3999FF1F04
:1031C00030B4154B154C1A782378D2B2DBB29A4240
:1031D0001ED001333F2B0ED91149124B08781968C4
:1031E0000023C0B2237021B1D31A1A2B01DC0023B3
:1031F0000B7030BC70470A480A49C05C0968DDB2F0
:10320000C0B225700029F4D09A4238BF4032EBE7B3
:103210004FF0FF30EDE700BFA499FF1F3999FF1F62
:103220006499FF1F3499FF1FF0B4384B1A7912F0DC
:10323000300F2CD072B6997D01F0FF0200293DD0ED
:1032400062B6334F334938780D78334E1C46C0B2DE
:10325000EDB2431C402BE17928BF0023AB4202F1C1
:10326000FF32C9B21CBFF154184612F0FF02F0D170
:103270002A4B1B68C2B23A704BB1A84236BFC5F1A7
:103280004005401B40192728C4BF01221A701F495E
:10329000CA78D2B2150616D452060DD51B4B1B792F
:1032A0005B0609D51E4B1F491B6800220A7003B13B
:1032B0001A70164B3C22DA70F0BC70474022D97964
:1032C0005A7462B6E3E70B791C06E5D5164B174E28
:1032D0001C783378E4B2DBB29C420ED0144D01E08E
:1032E000A3420AD00133282B28BF00230879E85CC9
:1032F000C0B2C871087D0728F2D9DBB20349337028
:103300000B79180644BF7C23CB70C5E700B006409C
:10331000A499FF1F3999FF1F6499FF1F3499FF1F5C
:10332000A899FF1F3899FF1FAC99FF1FA599FF1F90
:103330003C99FF1F1C4BDFF894C01A681B49F0B57D
:1033400042F480521A4D1A60DFF884E0194F1A4E89
:103350001A4C00238CF800304FF451722B701F2848
:1033600040F213358EF800303B70337025600A60F0
:1033700012D819460124124A124D11701248547085
:1033800000212C27402693724FF400349170117461
:10339000D7702E700460F0BDC0F34431C0F3471401
:1033A00000F01F03E7E700BF348004400CC0044076
:1033B000B599FF1F219AFF1F209AFF1F08C00440E4
:1033C00000C0064031E400E004E100E0B499FF1FD2
:1033D000289AFF1F054A064B10781B78C0B2DBB253
:1033E000984238BF4030C01A704700BFB499FF1FE1
:1033F000B599FF1F30B4154B154C1A782378D2B20B
:10340000DBB29A421ED001333F2B0ED91149124B29
:10341000087819680023C0B2237021B1D31A1A2B7F
:1034200001DC00230B7030BC70470A480A49C05CBD
:103430000968DDB2C0B225700029F4D09A4238BFC5
:103440004032EBE74FF0FF30EDE700BFB499FF1FCC
:10345000B599FF1FE099FF1FB099FF1F30B42B4BA8
:103460001A7994061FD52A48DA7903782949013355
:103470003F2B0978C8BF00238B42D2B203D0264C21
:10348000D9B2E2540170254A116861B1244A127818
:10349000D2B2934236BFC2F140029B1A9B18272B2F
:1034A000C4BF01230B70194AD378DBB2180611D4BC
:1034B0005A060DD5154B1B795B0609D5194B1A49D0
:1034C0001B6800220A7003B11A70104B2C22DA70AC
:1034D00030BC704711790906EAD5144910480C78B8
:1034E0000178C9B28C420DD04A1C272A84BF002122
:1034F0000A460F4D054C98BFD1B2AA5CD2B2E27118
:103500000170D5E76C21D170D2E700BF00C0064042
:10351000B499FF1FB599FF1FE099FF1FB099FF1FD6
:10352000219AFF1F249AFF1F209AFF1F289AFF1F2E
:10353000B899FF1F431E032B14D872B60A4951F8DD
:10354000230068B170B4094C058834F8132046682C
:1035500041F82360521B24F8132062B670BC7047F8
:1035600062B6704700207047849AFF1F789BFF1F48
:10357000013803280BD872B6074B53F8203043B1FB
:1035800000205B680130002BFBD162B67047002041
:1035900070471846F9E700BFD89AFF1FF0B472B61B
:1035A0001A491B4E012311F8014B194F9A002407A9
:1035B00042F0010505D556F8324064B156F8352081
:1035C000BAB10133052BEED162B6124B00221A704C
:1035D000F0BC00F00FBD0F4C0F4D217847F8325072
:1035E00007EB431308304A1E5860227062B6F0BCE5
:1035F00070470849094B0A7847F8353007EBC5038F
:103600000830013A58600A7062B6F0E73C89000061
:103610000080FF1F019BFF1F88004000C800400082
:10362000431E032B1DD81B4A400140F0100030B44C
:10363000104472B6184CE25C032A1BD8DFE802F093
:103640000212151703220D88E25410F0080F14BF60
:10365000C823882343EA054308310360416062B60A
:1036600030BC704708300222EDE70522EBE7083056
:103670000422E8E7094A52F8230038B1084A52F810
:103680002300416042F8231062B6E9E742F82310B4
:10369000034AF7E70080FF1F109BFF1FD89AFF1F08
:1036A000E89AFF1F2DE9F04FDFF804A3DFF804B319
:1036B00087B044E0A94F4FEA930807EBC809013EE1
:1036C000D9F8042003F00803F6B2A2F1080003F0D1
:1036D000FF04002B40F0FE8057F838301B0C99B2E5
:1036E00022F8081C002B00F0EC809D4B22F8064CC1
:1036F00042F8044C53F82620002A00F02B82994D02
:1037000055F826305860984C45F8260034F81630A5
:10371000194424F8161000F04DFC002800F0138224
:10372000924A934B19F0080F00F1080018BF134696
:10373000C9F8040047F8383008238AF800309AF8AE
:103740000040E4B260071AD58A4B1B78A3B18A49BE
:103750000A7802F0FF0322B1013BDBB20B7003B920
:1037600000BE86490A7802F0FF032AB1013BDBB2B2
:103770000B70002B00F0BD8104238AF8003004F0A8
:10378000080303F0FF02002B00F0C8809BF8003014
:10379000DBB21E098ED19C08704F57F8342007EB1E
:1037A000C401C2F38302013A49680C2A00F2858001
:1037B000DFE802F079798383838383834283838381
:1037C000070008686E4B6F4D0193684B4A686E4E58
:1037D00047F8343081B240F28164694B6A602860F6
:1037E00000220120A1421A603A61BA61307000F2F1
:1037F000E380B1F5D06F80F02782B1F5817F00F0D2
:10380000E08100F2C381802900F03682822940F0F5
:10381000DE81A9885D4B01F07F01042900F2D88187
:103820005B4C89000B44227062701A78930740F158
:1038300022832070022023E2514B01931A683AB38D
:10384000544B514E5449188834780D784028864698
:1038500045F0020828BF4FF0400E002C84F0010410
:103860003470CEEB00000CBF8824C82407EBC806D8
:1038700080B285F0010544EA0E447260188047F872
:10388000384072440D70002800F0B780019B1A6028
:103890003C4B1A88B2F5A06F0FD100219A7859706D
:1038A0003E4B1A7009E0374A108842F221029042DA
:1038B00000F0A8802D4A47F83420394A01231370BC
:1038C0003AE72A4A2A4B19F0080F18BF134647F85F
:1038D000383031E700F08EFB324A334952F8263057
:1038E000002B00F03B8158688C5D42F8260003F104
:1038F0000802C9F80420032C05D8DFE804F02C02E4
:10390000292602228A551A8819F0080F0CBF88232D
:10391000C82343EA024347F838300DE7E00700F1D7
:10392000EB80210600F12881A20706D51F4A204915
:1039300013780220DBB213700870E30602D51C4B2B
:1039400010221A7007B0BDE8F08F04228A55DAE71A
:1039500005228A55D7E703228A55D4E70080FF1F46
:10396000849AFF1F309AFF1F789BFF1FC8004000FA
:10397000880040000C9BFF1F959AFF1F149BFF1FA0
:103980002C9AFF1FF89AFF1F949AFF1FC020074030
:10399000049BFF1F409AFF1F009BFF1F98200740BA
:1039A00094200740D89AFF1F109BFF1F88200740D4
:1039B000802007409020074042F22104A14200F0FD
:1039C000948043D8B1F5086F00F0A881B1F5106F6D
:1039D00040F0FD80B84AB94CA978117004F1800517
:1039E00003E00834AC4200F09E81236A1906F8D542
:1039F000606A083800F0FEFAF3E7BEF1400F18BF26
:103A0000002243E7AE4ACD1D11F8013B02F8013F09
:103A1000A942F9D1AB4A1268862A00F01181AA495D
:103A2000AA4E0A78307882F00105002842F002029E
:103A30000D700CBF8821C82147F8321007EBC20275
:103A400080F0010000213070516033E742F2212400
:103A5000A14240F0FE81DFF8BCC29D4B9D49AC788D
:103A6000DCF800501D6081460C70002002908046FA
:103A70008446044694490D7845F0020E07EBCE03C8
:103A8000B9F1000F5C600CBF8824C82444EA080325
:103A900085F0010447F83E3032700C70DFF81CE20C
:103AA0008A4BDFF82482002840F09880BCF1400F58
:103AB0001BD144F0020407EBC403029FDFF8FCE1D2
:103AC0005F60002A40F09F80020442F088020744B1
:103AD0004EF8342086F800900D703B46402804D103
:103AE00000207D4A019910800B607C4A01231370ED
:103AF000E3E600F0EBFB3FE6704B784872491A6151
:103B00004FF0020E80F800E0754F0A707549196099
:103B10009960754E754D764C9A610D213970FF2173
:103B20003170DFF8F4E129702270724D724A8EF81C
:103B300000109F27012406F8047C5D600470DA60A1
:103B400007B0BDE8F08F6D4A47F8380013780133AD
:103B50001370F1E543F82600694DD4E58B5D032B26
:103B600067D801A252F823F0393700003937000036
:103B7000BD3B0000B73B000059495C4B80220D2043
:103B800008701A70A2077FF5D8AECFE640F2023275
:103B9000914240F05681A98801F07F01042916D88E
:103BA0006A88A2B94E4C89000C448146217841F0C4
:103BB0000201217059E701238B55BDE500238B5588
:103BC000BAE5A98801F07F01042940F24781444BFE
:103BD0000F221A70414A012313706EE640287FF6C7
:103BE00068AF44F002040EEBC401029E4E60AAB11D
:103BF000444A83F800903346403888F800504033F8
:103C00004EF834206DE70204029B86F8009042F0E3
:103C1000C8020D7003444EF834205FE783F800902B
:103C2000029B304A88F80050403840334EF8342028
:103C300057E719F0080F0CBF022303238B557BE5D0
:103C4000314A0F211170EAE6304A5468002CBED088
:103C50006888B5F804E003E00C325468002CB6D054
:103C600013888342F8D153887345F5D1000A03289D
:103C70000CBF2078108903E0254C0220227062706E
:103C8000EA88824280F00C810F490D78402A45F085
:103C9000020E944607EBCE0028BF4FF0400C04EB19
:103CA0000C0344600293CCEB02004FEA0C484FF047
:103CB00001090022C824E9E60C9BFF1F0080FF1FBA
:103CC0007F9BFF1F809BFF1F009BFF1F949AFF1F7E
:103CD000889BFF1F249BFF1F409AFF1F94200740D3
:103CE000C02007408800400088200740802007400F
:103CF00098200740449AFF1F989AFF1F019BFF1FBF
:103D0000309AFF1FC8004000959AFF1F40890000AD
:103D1000049BFF1F9898FF1F8C200740684A694C3E
:103D200012782270ACE76849684B694A0291694988
:103D3000694C6A4D039405964FF0000988461C466D
:103D400016460495206828B1456800F053F92846C6
:103D5000002DF9D100232360049B30681A4600230C
:103D600042F8293028B1456800F044F92846002D72
:103D7000F9D100223260029A98F8003011460022F0
:103D800041F8042B039A0291023B4FF0000122F804
:103D90001910032B07D8DFE803F0340234024FF088
:103DA000010388F8003009F10109B9F1040F04F1A9
:103DB000040406F1040608F10108C3D1484B059E2E
:103DC000DFF83091DFF8308100211970012518F8F3
:103DD000013B09F8043B1A0718D4AC0044F0020276
:103DE00044F00304002347F8323047F834303D4BA9
:103DF000994505F10105EAD196F8009089F0010294
:103E000033E64FF0000388F80030CCE700F0D2F83A
:103E1000AC0007EB451300F10802002837D05A60C8
:103E2000314B47F8343000F0C5F844F0010307EB9C
:103E3000C30200F1080100B351602C4A47F8332057
:103E4000CCE7B1F5A06F7FF4C2AE00224FF00109BC
:103E50000BE642F221329142F7D0B8E66A88002A96
:103E60007FF4B5AE224C89000C448146217821F0C4
:103E700002012170F9E5022002E7194B44F001022A
:103E80001B7847F83200164A01331370A6E7144B2B
:103E9000134A1B78AC00013347F834001370C2E7B3
:103EA0004028844628BF4FF0400C04EB0C03CCEBB9
:103EB00000004FEA0C48029300224FF00109D9E5B7
:103EC0000C9BFF1F049BFF1FE89AFF1F849AFF1F94
:103ED000D89AFF1F109BFF1F789BFF1F309AFF1F70
:103EE000019BFF1FD420074088004000C80040000D
:103EF000C0200740C42007403C8900002DE9F8435A
:103F0000204C00F0C5FB002204F1880023461A6013
:103F10005A60083383424FF00001F8D11A4A1B4F10
:103F200013681B4D1B481C4EDFF87880DFF878C003
:103F3000DFF87890DFF878E043F480231360C4F36F
:103F400007233B70C4F307432B70240EFF2302F5B5
:103F500028320470114D88F8003011488CF8003078
:103F6000D4323370012389F8003070268EF80010A7
:103F70004FF40074102107F8183C2E700460117083
:103F8000BDE8F8830080FF1F348004409C20074078
:103F9000B0200740B42007401020074049E400E06B
:103FA00008E100E080200740882007409420074077
:103FB0000021074072B60D480268B2FA82F30B2B5B
:103FC00010DC4FF00041D94022EA0102026062B6E3
:103FD000074803EBC303DB00C2180021C1501046A1
:103FE0005160704762B60020704700BF7887FF1F9E
:103FF000BC83FF1F0D4B0E4AC31AA2FB03231B09F0
:104000000B2B0CD80B4A127852B972B60A484FF0F3
:104010000041026821FA03F31A43026062B6704756
:10402000064A1278002AF0D0FFF7B8BABC83FF1F07
:10403000398EE338019BFF1F7887FF1F0C9BFF1F02
:1040400038B50F4D286878B143880288C11801330C
:1040500093420C7A02D24380204638BDFFF7CAFF54
:10406000002320462B6038BD064B1B782BB1032064
:10407000FFF760FA28600028E6D14FF0FF3038BD26
:10408000209BFF1F0C9BFF1F10B5094C206818B127
:1040900043881844007A10BD064B1B782BB10320CF
:1040A000FFF748FA20600028F2D14FF0FF3010BD32
:1040B000209BFF1F0C9BFF1F044B054A1B68908829
:1040C0001BB11A885B88D31A18447047209BFF1FC6
:1040D000789BFF1F0B4B1B789BB110B50A4C2068D7
:1040E00048B1FFF787FF002303202360FFF722FA80
:1040F00030B1FFF77FFF0320FFF71CFA0028F8D14B
:1041000010BD70470C9BFF1F209BFF1F2DE9F04F38
:10411000DFF8F89083B0012289F80020019169B39B
:10412000DFF8EC80364F019E8346D8F80000B0B32C
:10413000344D4488C4F14001B14228BF314604EBFC
:10414000010E00221FFA8EFE2A70761AA0F802E0F5
:1041500000F1080251B1013C224459441BF8014BC3
:1041600002F8014F8B45F9D1B0F802E0BEF13F0FE4
:104170000BD8254A05211170002ED6D101980023B5
:1041800089F8003003B0BDE8F08F4022028001467C
:104190000420FFF745FA0022C8F80020E9E73A7842
:1041A0002AB3184D4AF2F9244FF0010A07E0013C06
:1041B00016D02A78A2B900F023F93A78BAB10420CF
:1041C000FFF7D6F90728F2D889F800A0FFF7F2FE2A
:1041D000C8F800000028ACD10C4B013C1870E8D1A5
:1041E00001234FF0FF302B7003B0BDE8F08F0023A8
:1041F0004FF0FF3089F8003003B0BDE8F08F00BF0A
:104200000C9BFF1F1C9BFF1F149BFF1F159BFF1F79
:10421000189BFF1F00B583B002AB012103F8010D0D
:104220001846FFF773FF03B05DF804FB38B50E4D79
:104230000E4C28680123237028B140880023237086
:10424000C0F1400038BD0A4B1B7813B90020207024
:1042500038BD0420FFF78CF90728F7D8FFF7AAFE2E
:1042600028600028E9D1F1E7189BFF1F159BFF1F6D
:104270000C9BFF1FF8B5114B1B788BB1104E114DE5
:10428000346801272F7064B10F4A638800271770C4
:10429000214623800420FFF7C3F9376000232B70E9
:1042A000F8BDFFF787FE084B28B1014604201C70BB
:1042B000FFF7B6F9F2E71F70F0E700BF0C9BFF1F96
:1042C000189BFF1F159BFF1F149BFF1F38B50E4B3C
:1042D0001B7873B90D4C216861B103F0FF054B8861
:1042E0000B800420FFF79CF9256038BD084B0122A4
:1042F0001A7038BDFFF75EFE0028F7D00146BDE812
:1043000038400420FFF78CB9159BFF1F189BFF1F37
:10431000149BFF1F00B5064A036812885B6883B0D0
:1043200001A9ADF804200222984703B05DF804FB10
:1043300010890000F0B507468BB0002A33D0012A5F
:1043400008BF0A2251B3212400E0F4B2B1FBF2F518
:1043500002FB1511C8B2092900F1300198BFC8B29B
:104360000AA988BF3730214488BFC0B201F8240CA5
:10437000661E2946002DE8D133B1013CE4B20AABF8
:1043800023442D2203F8242C3B6801AA11195B68F1
:104390003846C4F1220298470BB0F0BD30228DF8A8
:1043A00025202124E8E70368C9B21B6898470BB0B1
:1043B000F0BD00BF0029BABF49422D2300230A22C5
:1043C000FFF7B8BF08B5FCF761F8FEF783FA00F015
:1043D00017F8FAE7FFF77EBEFFF756BEFFF730BECD
:1043E000FFF76ABEFFF746BFFFF720BF084611463A
:1043F000FFF78CBE0846FFF70DBF00BF704700BF38
:1044000038B5224C237803B138BD01232370FFF760
:1044100053FE70BBFEF754FD40BBFEF7C1FE10BB60
:10442000FEF7D8FFE0B900232370EFF30583002BDC
:10443000EAD1EFF3108172B6154B1868E0B1154C54
:104440002278CAB945691D6001232370C5B1AA61EC
:1044500001B962B600254577836898472570D3E790
:1044600000F054FADFE700F04FFAD9E700F04AFA1B
:10447000D3E7FFF7C3FFCDE70029C5D162B638BD4A
:10448000054B1D600029E5D1E3E700BF259BFF1F19
:10449000389BFF1F3C9BFF1F349BFF1F30B42948F4
:1044A000294A2A4B2A4D6024E121047011701B789F
:1044B000284C082B30D00A2B2748284937D00C2B02
:1044C0000CBF35223D2212232A60236002600B605C
:1044D000234B24491B78244ABBB101230B60136092
:1044E000224B23491B78234A012B26D9042B0FD9B1
:1044F000082B1ED9102B94BF862387230B601360D3
:104500001D4B01221A7030BC70470B601360E7E747
:1045100084230B601360F3E700F58E200F49083009
:10452000012213232A60236002600B60D0E7392246
:10453000F7E785230B601360E2E780230B601360CD
:10454000DEE700BF00400740014007408C87FF1FA7
:1045500008B003400CB0034008B00B400CB00B4057
:10456000279BFF1F20B0034020B00B408D87FF1F0B
:1045700024B0034024B00B40269BFF1F08B5104C0D
:1045800008E0236859050DD423681A050FD4236861
:10459000DB0411D423685803F3D5FFF783F82368AD
:1045A0005905F1D5FEF79CFC23681A05EFD5FEF7F7
:1045B0003BFE2368DB04EDD5FEF750FFEAE700BFC2
:1045C0003480044008B5FFF7D9FF00BF014B10222B
:1045D0001A80704700200540704700BF094908B5A0
:1045E0000B6830B16A461844A2F58052904202D25C
:1045F0000860184608BD03F067F90C2303604FF00C
:10460000FF3008BD9087FF1FEFF3138070B9EFF301
:1046100010836BB9EFF305825AB94FF48070EFF352
:1046200011832BB1984228BF184670474FF0FF30D6
:1046300070470F2A01D81846F1E7014BD05CEEE72E
:10464000F0E300E0F0B44D1E2E46002400E00134FB
:10465000B0FBF2F302FB1300092800F130078ABF18
:104660003730F8B2C0B206F8010F1846002BEED171
:104670000A1953704CB1107815F8016F2870013386
:10468000E01A834202F80169F5DB0846F0BC704786
:1046900070B584B072B6194B194D1A487022412674
:1046A0000F2480211A702E701A4604701970137826
:1046B0001B06FCD5144B186862B6144B144C984278
:1046C00098BF00EB800001A998BF40000A22FFF7C5
:1046D000B9FF01A92046002311F8012B01333AB19B
:1046E0000A2B20F8022FF7D11623237004B070BDD7
:1046F0005B00DBB2237004B070BD00BF000002405D
:104700000700024006000240080002407F96980021
:104710002088FF1F10B4EFF3108272B6437F33B9C5
:10472000017F012907D003290FD00123437702B964
:1047300062B610BC7047124C2168A1B111494361A7
:104740000B68836108605861EFE70F4C216881B105
:104750000E4943610B688361086058610C4B4FF050
:1047600080511960E1E7074B416181612060186069
:10477000DBE7064B4161816120601860EEE700BF16
:10478000389BFF1F349BFF1F289BFF1F2C9BFF1F85
:1047900004ED00E010B4047F4160022CC26002D03E
:1047A00010BCFFF7B7BF836810BC184770B5EFF3B4
:1047B000108272B60C4C206880B10C4E0025436903
:1047C000236073B19D6102B962B6457783689847EB
:1047D000EFF3108272B620680028F0D102B962B6F9
:1047E00070BD3360EFE700BF289BFF1F2C9BFF1FAE
:1047F000FFF7DCBF184A30B41468002C27D00368D8
:1048000021688B420ED2CB1A00218460C1602360E4
:10481000E06010600223037530BC704711688B4262
:10482000144608D3A2685B1A0360002AF6D182609E
:10483000C460A060EEE7D268C2608460E060C568D2
:10484000CB1A0222A8602360027530BC70478460D6
:10485000C4601060DEE700BF309BFF1FF8B5224E3A
:1048600034682CB32368002B3AD1204F1D4604E056
:104870003468ECB12368002B32D1A36803B1DD604A
:1048800020693360036825751B68BB4221D1037F13
:104890004560022BC46020D0FFF73CFF6368002B0B
:1048A000E6D023602046FFF7A5FF3468002CE1D155
:1048B000EFF3108372B60E4A00211068116003B93D
:1048C00062B628B18468FFF795FF20460028F9D129
:1048D000F8BD224600219847E0E783689847DDE766
:1048E000013B2360E4E700BF309BFF1F95470000BA
:1048F000409BFF1F024A136801331360FFF7AEBFEE
:104900009898FF1F704700BF704700BF704700BFF7
:1049100030B5224A21F00043934287B01BDD204A84
:10492000934205DD02460B4601F0CCFF07B030BDD7
:1049300002AA00F051FC00F00303012B1AD0022B55
:104940000FD01BB30124DDE90423DDE9020100944B
:1049500001F042FCEAE70022002300F021FF07B04B
:1049600030BDDDE90423DDE9020100F019FF01F1AA
:104970000041DBE7DDE904450093DDE90201224661
:104980002B4601F029FC01F10041CFE7DDE90423CA
:10499000DDE9020100F004FFC8E700BFFB21E93FA9
:1049A000FFFFEF7F30B51F4A21F00043934287B0ED
:1049B0001BDD1D4A934205DD02460B4601F082FFD6
:1049C00007B030BD02AA00F007FC00F00300012888
:1049D000DDE904231AD002280FD0E0B1DDE902019D
:1049E00000F0DEFE01F10041EAE70023009300221F
:1049F000002301F0F1FB07B030BD0124DDE9020125
:104A0000009401F0E9FB01F10041D9E7DDE9020181
:104A100000F0C6FED4E70124DDE90201009401F0B4
:104A2000DBFBCDE7FB21E93FFFFFEF7F08B5C0F3DC
:104A3000C7537F3B162B01460EDC002B024610DBD2
:104A40000B481841014205D04FF48001194111442F
:104A500021EA0001084608BD802BFBD102F014FCBE
:104A600008BD013300F00041F4D141F07E51F1E77F
:104A7000FFFF7F002DE9F043DFF8A4808BB00446F0
:104A80000D4600F0ADF898F90030013306460F46A8
:104A90002ED022462B462046294602F061FB814655
:104AA00030BB2046294601F0EDFD0022194B02F0F3
:104AB0004DFBE8B1184B1948CDF8209001228DE844
:104AC0000C00CDE90445CDE9024501F06BFE98F9F3
:104AD0000030022BCDE906010FD0684601F060FEE0
:104AE00058B1089B83B9DDE906010BB0BDE8F0833E
:104AF000304639460BB0BDE8F08302F0E5FE2123D5
:104B00000360089B002BEED002F0DEFE089B0360E2
:104B1000E9E700BF0000F03F94890000A88500008D
:104B20003688FF1F00F08CBA2DE9F04F8BB0044699
:104B30000D4600F073FD284B93F900A0BAF1FF3F3A
:104B400006460F4612D022462B462046294602F042
:104B500007FB834650B94FF000084FF0000942466A
:104B60004B462046294602F0D3FA20B93046394652
:104B70000BB0BDE8F08F194BCDF820B00122CDE984
:104B80000445CDE902458DE80C00BAF1000F15D0BF
:104B900042464B464046494602F072F9BAF1020FCE
:104BA000CDE906010CD102F08FFE21230360089BA2
:104BB00063B9DDE906010BB0BDE8F08FCDE90689E8
:104BC000684601F0EDFD0028F1D1ECE702F07CFE33
:104BD000089B0360EDE700BF3688FF1F9C8900003B
:104BE0002DE9F047C04B21F00048984584B00D46B0
:104BF000044614DD08F1404808F58018034658EAD9
:104C0000030323D002460B4601F05CFE02460B462E
:104C100002F036F90446204604B0BDE8F087B34BF5
:104C200098458A462BDCB8F1795F80F2678192A3C0
:104C3000D3E9002301F048FE0022AD4B02F086FAD2
:104C4000E8B12946204604B0BDE8F0878CA3D3E93B
:104C5000002301F0EBFF8CA3D3E9002306460F46A7
:104C60002046294601F0E2FF02460B46304639460F
:104C700001F02AFE0446204604B0BDE8F087204635
:104C8000294601F0FFFC02460B460020984901F03E
:104C900019FE0022974B01F0C9FF7DA3D3E9002341
:104CA00004460D4601F0C2FF7BA3D3E9002301F0C7
:104CB0000BFE22462B4601F0B9FF79A3D3E900236E
:104CC00001F000FE22462B4601F0B0FF76A3D3E9A7
:104CD000002301F0F9FD22462B4601F0A7FF74A343
:104CE000D3E9002301F0EEFD22462B4601F09EFFA2
:104CF00071A3D3E9002301F0E7FD22462B4601F022
:104D000095FF6FA3D3E90023CDE900012046294692
:104D100001F08CFF6CA3D3E9002301F0D3FD224600
:104D20002B4601F083FF6AA3D3E9002301F0CCFDF9
:104D300022462B4601F07AFF67A3D3E9002301F056
:104D4000C1FD22462B4601F071FF694B002201F0A4
:104D5000BBFDCDE902012046294600F05FFC664B11
:104D6000984506460F4666DCDDE90223DDE90001D1
:104D700002F086F83246CDE900013B46304639461E
:104D800001F0A2FD02460B46DDE9000101F04EFFF5
:104D90004FF00008CDE9000142463B464046394607
:104DA00001F044FF02460B462046294601F08AFDE9
:104DB000424604460D463B463046394601F084FDE6
:104DC00002460B462046294602F05AF802460B4698
:104DD00001F07AFD02460B462BA1D1E9000101F05A
:104DE00071FD02460B46DDE9000101F06BFD424614
:104DF00004460D463B464046394601F065FD0246F5
:104E00000B4637A1D1E9000101F05CFD02460B46DB
:104E10002046294601F056FD02460B4630A1D1E955
:104E2000000101F04FFD0446BAF1000F3FF7F3AE69
:104E300001F10041EFE6DDE90223DDE9000102F0C6
:104E40001FF832463B4601F0F1FE32463B4601F088
:104E50003BFD02460B4601F037FD0BA3D3E90023CF
:104E600001F030FD02460B4605A1D1E9000101F039
:104E700029FD0446D8E700BF9C7500883CE4377ED6
:104E8000182D4454FB21F93F075C143326A6913CAE
:104E900009F7FD0DE13D023F88B20175E0EF493FA2
:104EA0003B8F68B52882A43F5544880E55C1C93F41
:104EB0007D6FEB0312D6D43F555555555555C53F1B
:104EC00082922EB1C5B8B33F59018D1B6C06E63FE7
:104ED000C88A599CE52A00404B2D8A1C273A03407A
:104EE000182D4454FB21E93FFFFFEF3FFFFFDF3F59
:104EF0000000F03F0000E03F3233EF3F02460B4638
:104F000001F094FE38A3D3E9002306460F4601F0D2
:104F10008DFE37A3D3E9002301F0D6FC32463B4691
:104F200001F084FE34A3D3E9002301F0CBFC324628
:104F30003B4601F07BFE32A3D3E9002301F0C4FC21
:104F400032463B4601F072FE2FA3D3E9002301F065
:104F5000B9FC32463B4601F069FE2DA3D3E900239C
:104F600001F0B2FC32463B4601F060FE2AA3D3E9D1
:104F70000023804689463046394601F057FE28A373
:104F8000D3E9002301F09EFC32463B4601F04EFE81
:104F900025A3D3E9002301F097FC32463B4601F0FC
:104FA00045FE23A3D3E9002301F08CFC32463B46A7
:104FB00001F03CFE0022204B01F086FC02460B462D
:104FC0004046494601F05CFF22462B4601F02EFE8A
:104FD00022462B4601F078FC0446204604B0BDE88A
:104FE000F08700BFAFF3008009F7FD0DE13D023F00
:104FF00088B20175E0EF493F3B8F68B52882A43F36
:105000005544880E55C1C93F7D6FEB0312D6D43F7E
:10501000555555555555C53F82922EB1C5B8B33F2C
:1050200059018D1B6C06E63FC88A599CE52A004051
:105030004B2D8A1C273A03400000F03FFFFFFFFF83
:105040002DE9F84F5442144323F00049DFF880E182
:1050500049EAD474744506460D463ED8444204439A
:1050600021F0004B4BEAD47474458A4635D803F1DD
:10507000404404F58014144344D09C1704F0020407
:1050800044EAD17450EA0B012FD052EA090133D01F
:10509000F14546D0F3452FD0C9EB0B094FEA29590A
:1050A000B9F13C0F34DC002B57DB3046294601F0C8
:1050B000E7FE01F0E7FA01F047F9012C4AD0022C93
:1050C0003BD084B132A3D3E9002301F0FBFB32A330
:1050D000D3E9002301F0F6FB05E0104619463246FD
:1050E0002B4601F0F1FBBDE8F88F022C14D0032C05
:1050F0000CD12D482D49F6E7BAF1000F2A480EDBF6
:105100002B49F0E7BDE8F84F01F01EB92946EAE760
:1051100023A1D1E90001D0E723482649E3E7264946
:10512000E1E7CB451FD0022CF6D0032CE1D0012CB7
:105130004FF0000020D00146D5E715A3D3E90023A6
:1051400001F0C0FB02460B4613A1D1E9000101F0BA
:10515000B9FBC8E701F10041C5E719F13C0FA4DA3A
:1051600000200021A9E7022C0ED0032C09D0012C2D
:105170000D4804D01149B6E74FF00041B3E710499C
:10518000B1E710481049AEE70E481049ABE700BF41
:10519000075C143326A6A13C182D4454FB2109407A
:1051A000182D4454FB21F93F182D4454FB2109C00C
:1051B000FB21F93FFB210940FB21F9BFFB21E93F1E
:1051C000FB21E9BFD221337F7CD902C07CD90240C8
:1051D0000000F07FFFFFFFFF2DE9F04F944E21F01C
:1051E0000047B74291B040F382809246914A97427D
:1051F0000C4626DC002984A3D3E9002340F3A881D0
:1052000001F060FB8C4B9F4204460D4600F0848009
:105210007FA3D3E9002301F055FB02460B46CAE900
:1052200000232046294601F04DFB79A3D3E9002352
:1052300001F048FB0125CAE90201284611B0BDE88A
:10524000F08F7E4A974240F384807D4A974259DC32
:105250003D15A5F21645A7EB055319461F46064610
:1052600001F094FF01F07CFC8046894602460B4623
:1052700030463946CDE90A8901F024FB0022714B02
:1052800001F0D4FC8946804601F080FF01F068FC03
:1052900002460B4606460F4640464946CDE90C6796
:1052A00001F010FB0022674B01F0C0FC002200233C
:1052B000CDE90E0101F022FF002800F075810023E6
:1052C00030463946002201F019FF002814BF01239F
:1052D00002235D4A0192022100912A4651460AA802
:1052E00000F082FB002CC0F25181054606E0C2E9C5
:1052F000000100250024C2E902450025284611B01E
:10530000BDE8F08F02460B4601F0DCFA0025CAE941
:105310000201CAE90001F1E73FA3D3E9002301F04C
:10532000D1FA3FA3D3E900230D46044601F0CAFA9F
:1053300002460B46CAE900232946204601F0C2FA7C
:1053400037A3D3E9002301F0BDFA0125CAE9020120
:10535000D4E701F097F934A3D3E9002380468946C6
:1053600001F064FC0022394B01F0AEFA01F00EFFAF
:10537000054601F0F5FB24A3D3E90023CDE90401A0
:1053800001F054FC02460B464046494601F09AFAA9
:105390001FA3D3E9002380468946DDE9040101F01B
:1053A00045FC1F2DCDE9020154DC294B6A1E53F840
:1053B00022309F424ED002460B464046494601F0FD
:1053C00081FA02460B46CAE9002383460E465A4636
:1053D00033464046494601F075FADDE9022301F003
:1053E00071FA002C02460B46CAE9022386DA5B46B4
:1053F00006F1004601F100418AE84800CAF80C10A5
:10540000CAF808006D4279E700004054FB21F93FDB
:105410003163621A61B4D03D0000601A61B4D03DBE
:105420007370032E8A19A33B83C8C96D305FE43FB4
:10543000FB21E93F7BD90240FB21F93FFB213941A8
:10544000FFFFEF7F00007041248A00000000E03F72
:10545000A4890000DDE902234046494601F032FA02
:105460003A15C1F30A53D31A102B83460E460992FC
:10547000CAE90001ABDD5EA3D3E90023DDE9040145
:1054800001F0D4FB06460F4602460B46404649460D
:1054900001F018FACDE9060102460B46404649469E
:1054A00001F010FA32463B4601F00CFA52A3D3E960
:1054B000002306460F46DDE9040101F0B7FB324642
:1054C0003B4601F0FFF9DDE90689CDE9020102461C
:1054D0000B464046494601F0F5F90B46C1F30A5721
:1054E0000E460999CF1B0246312F8346CAE9002395
:1054F0007ADD43A3D3E90023DDE9040101F096FB43
:1055000006460F4602460B4640464946CDE9068907
:1055100001F0D8F902460B4680468946DDE90601CE
:1055200001F0D0F932463B4601F0CCF936A3D3E97D
:10553000002306460F46DDE9040101F077FB324601
:105540003B4601F0BFF902460B46CDE9022334E7A2
:1055500001F0BAF9304B9F4204460D4626D02CA3E9
:10556000D3E9002301F0B0F902460B46CAE9002353
:105570002946204601F0A6F925A3D3E9002301F02E
:10558000A3F94FF0FF35CAE90201B7E6DAF80420C3
:10559000DAF80C3002F1004203F100434542CAF848
:1055A0000420CAF80C30A9E6032392E610A3D3E93D
:1055B000002301F089F910A3D3E900230D46044626
:1055C00001F082F902460B46CAE90023294620462B
:1055D00001F078F908A3D3E9002301F075F94FF041
:1055E000FF35CAE9020189E6DDE90689EFE600BF79
:1055F0000000601A61B4D03D7370032E8A19A33B7A
:105600000000002E8A19A33BC14920259A837B39CB
:105610003163621A61B4D03DFB21F93F2DE9F843B3
:105620005D4EB6460E4076450C46054600F0958028
:1056300000290B46024673DD0F157ED0A7F2FF3717
:10564000C3F31303F80743F4801364D403EBD2715C
:1056500000260B447F105200B64616204FF400116E
:105660000EEB01049C424FEAD2754FEA420203DC82
:105670001B1B04EB010E0E44013805EB43034FEAFC
:105680005101EDD1844620244FF0004109E020D0A3
:1056900003EBD275013C4FEA51012B444FEA420221
:1056A00020D09E4501EB0C05F1DA002D05EB010C35
:1056B00009DBF0469542CEEB030300D9013B521BB8
:1056C0000844C646E4E7BCF1000FF2DB0EF1010826
:1056D000F0E7954217D8002D05EB010C47DB984603
:1056E0000023ECE7134310D14008731003F17F53FC
:1056F00003F50013F20703EB075948BF40F00040E1
:105700004946BDE8F8837346C2E7411C33D000F038
:1057100001031844E8E75B0003EBD273520095E7FE
:1057200021F000460643ECD069BB0F46D30A153F73
:105730005205002BFAD0DD0220D4002100E0014602
:105740005B00DC0201F10100F9D5C0F1200422FA6E
:1057500004F423437F1A824070E702460B4601F0AF
:1057600065FA2A46234601F0AFF8BDE8F883BCF19C
:10577000000FABDAB3E701362046B6E720244FF03E
:10578000FF310020E3E702460B4601F09BF802469A
:105790000B4601F075FBB4E70000F07FFFFFFFFF51
:1057A0002DE9F04F21F00046B6F1795F85B00C4647
:1057B00092469B4605466BDA01F0E8FC002800F0B3
:1057C000E8802A4623462846214601F02FFA74A392
:1057D000D3E900238046894601F028FA72A3D3E971
:1057E000002301F071F842464B4601F01FFA70A306
:1057F000D3E9002301F066F842464B4601F016FA61
:105800006DA3D3E9002301F05FF842464B4601F057
:105810000DFA6BA3D3E9002301F054F842464B463E
:1058200001F004FA68A3D3E9002301F04DF84246E1
:105830004B4601F0FBF9CDE900010022644B4046E4
:10584000494601F0F3F9DDE9002306460F464046DC
:10585000494601F0EBF95246804689465B462846A8
:10586000214601F0E3F902460B464046494601F065
:1058700029F802460B463046394601F023F8024625
:105880000B460020534901F01DF805B0BDE8F08F2C
:1058900002460B4601F0CAF941A3D3E90023804632
:1058A000894601F0C3F940A3D3E9002301F00CF8C5
:1058B00042464B4601F0BAF93DA3D3E9002301F07B
:1058C00001F842464B4601F0B1F93BA3D3E900236E
:1058D00000F0FAFF42464B4601F0A8F938A3D3E99D
:1058E000002300F0EFFF42464B4601F09FF936A33C
:1058F000D3E9002300F0E8FF4B46424601F096F959
:10590000354B9E42CDE9000197DD344B9E424FF06E
:10591000000238DCA6F5001300202E4916461F466B
:1059200000F0D0FFCDE902010022294B4046494654
:1059300001F07CF932463B4600F0C4FFDDE900236C
:1059400006460F464046494601F070F952468046E9
:1059500089465B462846214601F068F902460B4617
:105960004046494600F0AEFF02460B4630463946F7
:1059700000F0A8FF02460B46DDE9020100F0A2FF9D
:1059800005B0BDE8F08F164B164FCDE90223002677
:10599000CAE71049002005B0BDE8F08FAFF30080E2
:1059A000D43888BEE9FAA8BDC4B1B4BD9EEE213E8C
:1059B000AD529C804F7E923E9015CB19A001FA3ECD
:1059C0007751C1166CC1563F4C5555555555A53F9D
:1059D0000000E03F0000F03F3233D33F0000E93FDA
:1059E0000000E73F0000D23F2DE9F04FADF51D7DEF
:1059F000784CA69E784D54F8264009942646D41E2D
:105A000085FB0475E417C4EBA50424EAE4741D4681
:105A10000B93631CA3EB8303013D02EBC3030893C9
:105A20002B460D940295651BF41804900A9116D428
:105A30002C44013422AEA79F08E057F8250001F05E
:105A40008FF80135A542E6E9020108D0002DF4DA0D
:105A5000013500200021A542E6E90201F6D1099BAB
:105A6000002B2FDB099BDDF8089074AA02EBC30B17
:105A70000DF5E47A029B002BC0F295810B9BC3EBE2
:105A8000090824AB03EBC808049BA3F1080524AB69
:105A900003EBC90400260027F5E9022374E802019C
:105AA00001F0C4F802460B463046394600F00CFFC0
:105AB000444506460F46EFD1EAE90267DA4509F1A7
:105AC0000109D7D1099D05F18043023B9B001A1DB6
:105AD00010A90A440B440F920E939CAB03EBC50331
