:1000000000800020BD01000039960000F19500003D
:10001000F1950000F1950000F1950000F1950000C8
:10002000F1950000F1950000F1950000399600006F
:1000300039960000F195000021BC000025BC0000AD
:100040003996000039960000399600003996000074
:100050003996000039960000399600003996000064
:100060003996000039960000399600003996000054
:100070003996000039960000399600003996000044
:100080003996000039960000399600003996000034
:100090003996000039960000399600003996000024
:1000A000A5940000B1940000399600003996000034
:1000B0003996000039960000399600003996000004
:1000C00039960000399600003996000039960000F4
:1000D00039960000399600003996000039960000E4
:1000E00039960000399600003996000039960000D4
:1000F00039960000E1A200003996000039AA0000FC
:1001000039960000399600003996000039960000B3
:1001100039960000399600003996000039960000A3
:100120003996000039960000399600003996000093
:100130003996000039960000399600003996000083
:100140003996000039960000399600003996000073
:100150003996000039960000399600003996000063
:1001600039960000F9AC000039960000399600007D
:100170003996000039960000399600003996000043
:100180003996000039960000399600003996000033
:100190003996000039960000399600003996000023
:1001A0003996000039960000399600003996000013
:1001B000399600003996000039960000564B4CF2F3
:1001C000205210B51A804DF628121A8000BF00BFC9
:1001D00009F036FA514B4FF010621A60504A9A609B
:1001E000504ADA60504A136813F4807304D14F49BF
:1001F0000B604FF4A85313604D4B1A78110703D5C9
:100200001A7842F008021A704A4B4B492A221A7097
:100210004A4A4B4B8B4204D252F8040F43F8040B6A
:10022000F8E7484B484900228B4202D243F8042B9E
:10023000FAE74649464A002352F8230041F82300D2
:1002400001336F2BF8D1434B434A802103F8011B44
:100250009342FBD1414B3D4A1A60414B8A221A70AE
:10026000A3F5805324225A70A0221A709A7992071B
:10027000FCD59A79D406FCD43A4A937903F00C035E
:10028000082B384BF9D103221A7140225A719A79FE
:100290009006FCD5334A9179324B4906FBD5324A58
:1002A000324911600221516020221A709A7902F0BD
:1002B0000C020C2AFAD12E4B2E4A1A602E4B2F4AD2
:1002C0001A6000225A60072243F8042C2C4AC3F813
:1002D0000C2D62B609F0AEFB144B1B68DA0705D58E
:1002E000284809F00BFB284B284A1A60284B1B783A
:1002F0005B0609D5244C254B22689A4204D121483B
:1003000009F0FCFA002323600FF0A2FA09F09EF92D
:100310000CF012F8FEE700BF0E20054030800440CC
:10032000823F04000100002B10D0034014D0034092
:1003300002D0074000E00740A894FF1F5873010057
:100340002087FF1FA894FF1F60CDFF1F0082FF1FA3
:100350000000000000E400E05FE400E008ED00E0E1
:100360000050064000400640448004400000030165
:1003700004800440C010050014E000E0FF76010096
:1003800000002020BFDEA7601CE00340A5C3945AF4
:1003900000F00740FFFFFFFFFFFFFFFFFFFFFFFF32
:1003A000FFFFFFFFFFFFFFFFFFFFFFFFFFFFFFFF5D
:1003B000FFFFFFFFFFFFFFFFFFFFFFFFFFFFFFFF4D
:1003C000FFFFFFFFFFFFFFFFFFFFFFFFFFFFFFFF3D
:1003D000FFFFFFFFFFFFFFFFFFFFFFFFFFFFFFFF2D
:1003E000FFFFFFFFFFFFFFFFFFFFFFFFFFFFFFFF1D
:1003F000FFFFFFFFFFFFFFFFFFFFFFFFFFFFFFFF0D
:10040000FFFFFFFFFFFFFFFFFFFFFFFFDEF9FFFF23
:1004100010B5054C237833B9044B13B10448AFF33E
:1004200000800123237010BDA894FF1F000000006E
:1004300054730100084B10B51BB108490848AFF3CD
:1004400000800848036803B910BD074B002BFBD0A0
:10045000BDE81040184700BF00000000AC94FF1F2B
:1004600054730100A894FF1F000000002DE9F04F15
:100470000468DFB004EBC2039C4205900292039132
:10048000036002D9436801334360029BC4F3C5048F
:10049000002B00F0DA80059B2833049303E0029BD5
:1004A000002B00F0D280029D039E0498C4F140030B
:1004B000AB4228BF2B46ED1A0295354620441D4419
:1004C0001C441A463146039508F0F8FF402CE6D14B
:1004D000049A0EABD5789478507812F8041BD97032
:1004E0001D705C7098701EA904339942F2D1059A70
:1004F000936806931346D26807921A4619461B69F9
:10050000089353690993CB690B930B6A92690C9317
:100510000DF1740A4B6A0A920D9352460DAB53F8D3
:10052000041F42F8041F9A45F9D10DF1AC080DF1F2
:10053000980C0DF1780E2DAF5646102558F8044F43
:100540005EF8043F56F8042F5CF8041F4FEAF440AD
:10055000114480EA74404FEAB34280EA942082EA70
:10056000F312014482EAD30301350B44402D47F8CE
:10057000043FE3D1364B0D9ADFF8DC90DDF824B070
:10058000DDF81CE0089F069EDDF830C0DDF82C8009
:1005900000920A9D01930BE0CDF800C0C446A84626
:1005A0001D4659F8043F0193BB467746B6460646BA
:1005B0004FEAF52205EA080182EAB5122CEA0504A1
:1005C00082EA75624C405AF8041F009B144487EA83
:1005D0000E0221444FEA763002EA060407EA0E02D0
:1005E00019445440019B1B4A80EAB60080EAB65089
:1005F000194420444A4501EB0B030844CCD1099926
:10060000069A39440F460A9919440B9B2B4402441D
:100610001D460C9B1446079A4344324418460D9BD2
:100620001646089A634472448E461946059B9C60A0
:10063000DE601A615F61C3F818E0DD61186259621B
:10064000029B0024002B7FF42EAF5FB0BDE8F08F3B
:10065000982F8A42D0460100D44501002DE9F0418F
:100660003D4DAA78EC78FE2A5CD0012C0BD92B19D1
:10067000DB7A13B107E0DB7A2BB9013CE4B2012C41
:1006800005EB0403F7D1AB68344E334F3270C3F33C
:1006900017231A121814A97995F8048095F805E023
:1006A0003272F371EA792B7A70723171727107F1DB
:1006B0000C01224606F10A00747086F803E0B3715B
:1006C00086F8028008F0FAFE04F10A0118F0010F22
:1006D00006EB010210D10921288810700012507019
:1006E00000231944033121441D4B1C4889B2BDE845
:1006F000F04119800AF09CB83B887354D7F816E192
:10070000D7F81A61D7F81E5197F82201C2F802E013
:100710001B125370C2F806600D23C2F80A50907382
:100720000921DEE7AB680D4EA97995F807E02F7A2D
:100730003270C3F317232246B170B01D05F10C01CE
:100740007371747086F803E0377108F0B7FEA21D6C
:1007500032440521C0E700BF2C98FF1FC894FF1F3B
:10076000E699FF1F2DE9F04FADF50F7D0AF0E2F895
:10077000002838D00AF0EEF8AE4BC1B20391DB7816
:10078000AC4900220A700F2B00F2BF81DFE813F0A2
:10079000B201B2019401880171015A013A012301A9
:1007A0000301E200BE009E0056002F002F00100043
:1007B000A04BA14A5B7B049211465E1E9D4A9DF8A8
:1007C0000C00CB1AF6B2567383F82301002E00F00A
:1007D0003782CA789949CA70964A002393700AF002
:1007E000A9F80028C6D10DF50F7DBDE8F08F0E2BBE
:1007F000914B049305D01B88039AB2EB132F00F0A2
:1008000087868C4A02231370049A9DF80C10137982
:1008100082F8151113F0010F8749864B00F0D7813C
:1008200084481B780F22C270022B4FF00D024273D6
:1008300000F0A5860023CA780370CBE77E4B0493B3
:100840009C687F4DFD20C4F3172403469E2200219F
:100850000AE0581E43185A1C5208884202EB420212
:1008600040F2908155F82220013394424FEA53031D
:10087000EFD31946EED8944200F07D8100210B465B
:10088000049C2088434083EA0313DBB2DA0082EA47
:10089000032282EA102282EA1313DAB22380039B36
:1008A0009A4200F01F86634B0E22DA70049B9DF87B
:1008B0000C2083F81421604C29B15E4B8A791B7996
:1008C0009342C0F01486049BDA7883E7594B039D6A
:1008D0001979594B574C1E460B4401311D73308812
:1008E0002B46434083EA0313DBB2DA0082EA032299
:1008F00082EA1020F278C9B280EA13139142217182
:1009000033807FF467AF0C23E37063E74A4B039AAD
:100910001C88624082EA0212D2B2D1001D4681EAEE
:1009200002219B68000400F47F0081EA142140EA60
:10093000132381EA1211EA786B72C3F307201B0CB0
:10094000A872EB722980002A00F0228139490B231A
:10095000CB703FE7384B039A1C88624082EA021250
:10096000D2B21D46D1009B68000200F47F4081EAAC
:10097000022140EA132381EA142181EA1212190CA0
:10098000E9722C496B72C3F307200A232A80A872EC
:10099000EA78CB701EE72849264B08881C7B039B0E
:1009A0004B72434083EA0313DBB2DA0082EA03228C
:1009B00082EA102282EA13130020E2070B80887279
:1009C000C8721C4B40F1FF80CA78002A00F02E81CB
:1009D0000B21D970FEE6184B19881C461846039B5C
:1009E00003724B4083EA0313DBB2DA0082EA03228C
:1009F00082EA112282EA131323800E4BE278082147
:100A0000D970E7E60C4B19881C461846039BC37146
:100A10004B4083EA0313DBB2DA0082EA032282EA64
:100A2000112282EA13132380024BE2780721D97046
:100A3000D0E600BFA09DFF1F38B4FF1F2C98FF1FFA
:100A4000D44601009B4B19881C461846039B8371B2
:100A50004B4083EA0313DBB2DA0082EA032282EA24
:100A6000112282EA13132380934BE2780621D97076
:100A7000B0E6904B19881C461846039B43714B40C7
:100A800083EA0313DBB2DA0082EA032282EA11224C
:100A900082EA13132380884BE2780521D97099E606
:100AA000844C9DF80C30237110F0FE0F74D08249F5
:100AB000E2780123CB708DE67E497F4B039D088849
:100AC0001C7BCD702B46434083EA0313DBB2DA0074
:100AD00082EA032282EA102282EA13130B80764B09
:100AE0000022E0071A716AD505200A714A71D87090
:100AF0002A466FE6039BFD2B00F0DF84039BFE2B51
:100B000000F0FF846B4BDA7864E66A4B04931A4674
:100B10006A4BD278DA70684B00249C70A31E012BBC
:100B200017D9002C3FF422AE654B01221A701DE646
:100B3000624A9DF81410D1705F490023022C8B701B
:100B4000ECD1049890F8151190F8143143EA012380
:100B500013800398584901230022FD288B700A70E6
:100B600001D0CB7002E6049D02204FF6FF73EA70BD
:100B7000C8702B80FAE5534B01EB410103EB810177
:100B80000B797DE64F4B01EB410253F8222072E6D0
:100B900049490C23CB701DE62088039BE278434033
:100BA00083EA0313DBB2D90081EA032181EA102131
:100BB00081EA13132380404B0421D9700AE60321F4
:100BC000039AD97006E60920CA78D87002E61B6934
:100BD0003BB11B6B002B2CD089683748090A98471A
:100BE00038B3354B1C78344D324934480123EB700F
:100BF00040F2231208F062FC049BDB780593012C81
:100C000096D12D4B049A2C491B8992794A7103B9CC
:100C10004B8129482949013303819DF81430CB7059
:100C20000022274B827001221A709FE50C21D97097
:100C3000D0E5214B1C78022CD5D003241C70D2E7C0
:100C40001369526910931D461192002B00F0908495
:100C500055F8100F1C4C37941C4C6968AA68EB6857
:100C60001B4F38941B4C3D943A97DFF874E01A4FB1
:100C7000DFF870C03C973EACCDF8ECC0CDF8E4E0B6
:100C80000FC4049B2869DA786969EB6905921746F5
:100C9000AA6935963D460A350FC4049B0295ED00BE
:100CA00005F580750D4E3696023334950693202453
:100CB0001EE000BF38B4FF1FA09DFF1F2C98FF1F30
:100CC000ECB2FF1FD446010085AE67BB72F36E3CE9
:100CD0007F520E5119CDE05BABD9831F67E6096ADD
:100CE0003AF54FA58C68059B029B002B00F0CD8048
:100CF000029D069EC4F14003AB4228BF2B46ED1A6D
:100D000002953EA8354620441D441C441A463146EF
:100D1000069508F0D3FB402CE6D134AA22AB92F81A
:100D20002B0092F82A101870597092F8290092F846
:100D30002810D970987032A90433994202F1040244
:100D4000EDD1369B0793379B0893389B0993399BCA
:100D50000A933A9B0B933B9B0C933C9B0D930DF595
:100D60009A7A3D9B0E93524621AB53F8041F42F8EA
:100D7000041F31A98B42F8D10DF5B6780DF5AC7C86
:100D80000DF59C7E5DAF5646302558F8044F5EF851
:100D9000043F56F8042F5CF8041F4FEAF440114456
:100DA00080EA74404FEAB34280EA942082EAF31268
:100DB000014482EAD3030B44013D47F8043FE4D1E8
:100DC0000E9ADFF8B892A94BDDF828B0DDF820E0E4
:100DD000099F079EDDF834C0DDF8308001920B9D3D
:100DE0000AE059F8043FCDF804C0BB46C446774634
:100DF000A846B646254606464FEAF52205EA08010A
:100E000082EAB5122CEA050482EA75624C405AF86F
:100E1000041F144421441944019B87EA0E024FEA3F
:100E20007630194402EA060480EAB60007EA0E02A8
:100E30008F4B544080EAB65020444B4501EB0B04E5
:100E40000844CED10A99079A39440F460B9939972D
:100E500021440C460C993A940244294413460D4609
:100E6000089A0D9936933244414416460846099A29
:100E70000E99029B37967244614438923B953C90A0
:100E80003D910024002B7FF433AF349C04F1100318
:100E90009C42349300F27C83764B07930223C4F385
:100EA000C504069303E0069B002B00F0D080069D4E
:100EB000079EC4F14003AB4228BF2B46ED1A0695AE
:100EC0003EA8354620441D441C441A463146079529
:100ED00008F0F4FA402CE6D134AA22AB92F82B00A9
:100EE00092F82A101870597092F8290092F8281078
:100EF000D970987032A90433994202F10402EDD1FD
:100F0000369B0893379B0993389B0A93399B0B9325
:100F10003A9B0C933B9B0D933C9B0E930DF59A7A59
:100F20003D9B0F93524621AB53F8041F42F8041F18
:100F300031A98B42F8D10DF5B6780DF5AC7C0DF5E5
:100F40009C7E5DAF5646302558F8044F5EF8043F4E
:100F500056F8042F5CF8041F4FEAF440114480EA6D
:100F600074404FEAB34280EA942082EAF3120144CB
:100F700082EAD3030B44013D47F8043FE4D13B4BE5
:100F80000F9ADFF8F890DDF82CB0DDF824E00A9F26
:100F9000089EDDF838C0DDF8348001920C9D029384
:100FA0000BE0CDF804C0C446A8461D4659F8043FDE
:100FB0000293BB467746B64606464FEAF52205EA57
:100FC000080182EAB5122CEA050482EA75624C40F7
:100FD0005AF8041F019B144487EA0E0221444FEA89
:100FE000763002EA060407EA0E0219445440029BD6
:100FF0001F4A80EAB60080EAB650194420444A45A8
:1010000001EB0B030844CCD10B99089A39440F46E5
:101010000C99399719440B460D993A930244294487
:1010200014460D46099A0E99069B36943244414463
:10103000164608460A9A0F993796724461443892C8
:101040003B953C903D910024002B7FF430AF349CC5
:1010500004F138039C42349300F29682064B0793C6
:101060000723C4F3C50406930EE000BF982F8A42FD
:10107000D04601004CB5FF1F4EB5FF1FD4450100FF
:10108000069B002B00F0D080069D079EC4F1400314
:10109000AB4228BF2B46ED1A06953EA835462044A4
:1010A0001D441C441A463146079508F007FA402CA7
:1010B000E6D134AA22AB92F82B0092F82A101870CD
:1010C000597092F8290092F82810D970987032A9B6
:1010D0000433994202F10402EDD1369B0893379B09
:1010E0000993389B0A93399B0B933A9B0C933B9B38
:1010F0000D933C9B0E930DF59A7A3D9B0F935246B0
:1011000021AB53F8041F42F8041F31A98B42F8D1D8
:101110000DF5B6780DF5AC7C0DF59C7E5DAF5646B1
:10112000302558F8044F5EF8043F56F8042F5CF859
:10113000041F4FEAF440114480EA74404FEAB3427E
:1011400080EA942082EAF312014482EAD3030B443A
:10115000013D47F8043FE4D18B4B0F9ADFF8309202
:10116000DDF82CB0DDF824E00A9F089EDDF838C0D9
:10117000DDF8348001920C9D02930BE0CDF804C0A1
:10118000C446A8461D4659F8043F0293BB4677461D
:10119000B64606464FEAF52205EA080182EAB5128C
:1011A0002CEA050482EA75624C405AF8041F019B40
:1011B000144487EA0E0221444FEA763002EA06041C
:1011C00007EA0E0219445440029B704A80EAB600B6
:1011D00080EAB650194420444A4501EB0B03084409
:1011E000CCD10B99089A39440F460C993997194478
:1011F0000B460D993A930244294414460D46099A28
:101200000E99069B369432444144164608460A9A83
:101210000F9937967244614438923B953C903D91CA
:101220000024002B7FF430AF349D0699C5F3C5042C
:10123000C4F177068023472206F03F060DF18900AE
:101240008DF888300EF0A0FE06F1090210460692D5
:1012500022AA1644359B33712A0AF2712A0E727142
:101260001A0C290CB27005EBC0029542B1714FEA1D
:101270001321F1704FEA136184BF0133359322AB20
:10128000357271703492079303E0069B002B00F0D7
:10129000D780069D079EC4F14003AB4228BF2B4672
:1012A000ED1A06953EA8354620441D441C441A46B6
:1012B0003146079508F002F9402CE6D134AA12AB6A
:1012C00092F82B0092F82A101870597092F82900A1
:1012D00092F82810D970987022A90433994202F12B
:1012E0000402EDD1369B0893379B0993389B0A93F0
:1012F000399B0B933A9B0C933B9B0D933C9B0E931A
:101300000DF59A7A3D9B0F93524611AB53F8041F8B
:1013100042F8041F21A98B42F8D10DF5B6780DF5DE
:10132000AC7C0DF59C7E5DAF5646302558F8044FD9
:101330005EF8043F56F8042F5CF8041F4FEAF440AF
:10134000114480EA74404FEAB34280EA942082EA72
:10135000F312014482EAD3030B44013D47F8043FF2
:10136000E4D1094B0F9ADFF82890DDF82CB0DDF8B6
:1013700024E00A9F089EDDF838C0DDF83480019231
:101380000C9D029312E000BF982F8A42D0460100C4
:10139000D4450100CDF804C0C446A8461D4659F8FE
:1013A000043F0293BB467746B64606464FEAF5220F
:1013B00005EA080182EAB5122CEA050482EA7562A0
:1013C0004C405AF8041F019B144487EA0E02214442
:1013D0004FEA763002EA060407EA0E021944544046
:1013E000029B8E4A80EAB60080EAB6501944204437
:1013F000914501EB0B030844CCD10B99089A394471
:101400000F460C99399719440B460D993A930244AB
:10141000294414460D46099A0E99069B3694324487
:101420004144164608460A9A0F9937967244614419
:1014300038923B953C903D910024002B7FF429AFDE
:101440009DF8DB309DF8DA20754C9DF8D8008DF8BA
:1014500048308DF849209DF8D9309DF8DF208DF86F
:101460004A308DF84B009DF8DE308DF84C2004F2A8
:101470001D1112A806228DF84D300EF0EFFC002849
:1014800000F08A80109B1B6B4BB1049A65489168F1
:10149000634C090A984700286AD1E3780593614BA9
:1014A00003241C705F4D5E495F48012340F2231204
:1014B000EB7008F003F8FFF7A2BB5A4B584A1B7BAE
:1014C000104623F0010357499DF80C400B734FF66B
:1014D000FF7354490380002202238470C270CB70D2
:1014E000FFF778B94F4A0D23D370FFF7DFB904F146
:1014F0000C00D21A184400210EF046FDE278FFF7E6
:1015000069B9484B464A1B7B104643F00103DAE7B2
:10151000444A01231370FFF777B90F28B2D8DDE9E9
:101520002267109B414AD3E9024592194FF000030C
:101530007B41AB4208BFA242A4D3119A049D00EBA9
:10154000C0041444EB79E3702B7A2371013084F8E2
:1015500002E0053410800B6823608B881099A3800B
:10156000D1E90223BB4208BFB24201D2C1E90267FE
:10157000049BDB7805932B4B01241C7092E72A4ACD
:10158000CB78D370FFF7DDBA359B0133359365E532
:10159000359B013335937FE404F2171100230022B9
:1015A000CDE92223119B08688D8894F816E12290DA
:1015B000ADF88C50002B3FF465AF18880028AED0F2
:1015C000E579267A069C04E094B2844203F109038B
:1015D000A3D0DF78AF4204F10102F5D11F79B74201
:1015E000F2D19F787745EFD1844296D0119B04EBDE
:1015F000C40423441C468EAD0022002365E9402329
:1016000054F8050F2860A388AB80D5E90023DDE9F5
:101610002267BB4208BFB2429DD333E7D0460100E8
:1016200038B4FF1FA09DFF1F2C98FF1F808D5B000B
:1016300090F89930012B70B504460D4608D0D0F8CB
:1016400094100B78012043F020030B7084F899006C
:10165000D2B194F8C73003F0FD03012B20D0204B0A
:10166000DB78DA0702D5284608F02CFDB4F88A307A
:10167000E91801EB112101F0FF01A4F88A10002004
:10168000BDE8704008F088B9154BDB78DB07F6D56C
:10169000284608F017FD0020BDE8704008F07CB92E
:1016A0007E2D0FD07D2DDAD10D4EF378D807DDD504
:1016B000284608F007FDF378D907D7D55D2008F054
:1016C00001FDD3E7064EF378DB07CFD57D2008F088
:1016D000F9FCF378DE07C9D55E2008F0F3FCC5E716
:1016E000E096FF1F2DE9F0433B4B83B01B6801934D
:1016F0000021019FA0F80C1B8E4688468C460E46A2
:10170000034608E0B242A4BFA8461646013180292C
:1017100003F114031FD093F805218DB2002AF5D0F0
:10172000B0F80C4BD3F800210134A0F80C4B93F81F
:10173000FE90B3F8FC40BA1AC9EB0202B4F5A04F10
:1017400012B2DFD16245E1DB01318029AE46944619
:1017500003F11403DFD1E6B9BCF1000F31D00EEB79
:101760008E0200EB8202734692F8FC20143AD2B249
:10177000392A2ED803EB830300EB830303F584732C
:1017800093E80300154B18607046998003B0BDE8DC
:10179000F08308EB880200EB8202434692F8FC20BB
:1017A000143AD2B2392A12D903EB830300EB830037
:1017B000C646D0F808210A4B70461A6003B0BDE84F
:1017C000F0834FF6FF7E704603B0BDE8F0839E467F
:1017D000D0E7F046E8E700BFD8CAFF1F1C96FF1FFE
:1017E00018B4FF1F2DE9F84F90F89930012B0446EB
:1017F0008846914608D0D0F894201378012143F010
:101800002003137080F899104FEA880505EB080350
:1018100004EB8303874FB3F8FC20874EDFF824B234
:101820003280A2F11403DBB2392B4FF201118CBFCD
:10183000002301238A423B7067D09BF80130012BC3
:1018400000F08880023B012B40F2AD803A78DFF84F
:10185000E4A1002A40D0012A51D0784E31780122EB
:101860002046FFF7E5FE012271782046FFF7E0FEF3
:101870000122B1782046FFF7DBFE0122F1782046F5
:10188000FFF7D6FE97F80090B9F1010F00F09D80A8
:1018900094F88A10C9430122C9B22046FFF7C8FE56
:1018A00094F8C7300022012BA4F88A2000F0988019
:1018B0003B7873B1012B07D0454404EB850400232A
:1018C00084F80531BDE8F88F5D4B00221A609A80DC
:1018D000F2E75A4A1360EFE7012249462046FFF734
:1018E000A7FE012231782046FFF7A2FE012271787F
:1018F0002046FFF79DFE9AF80020012AADD1494607
:101900002046FFF795FE4E4EA8E79BF80130032BCB
:1019100049D094F8C7A00AF0FD03012B2CD0BAF1EE
:10192000020F62D0BAF1030F6CD09BF80130012B8B
:1019300088D1BAF1010F6BD0BAF1020F86D12046DF
:1019400000220821FFF774FE01221B212046FFF729
:101950006FFE7BE794F8C7A0BAF1030FE9D100222C
:101960007E212046FFF764FE00221B212046FFF760
:101970005FFE94F8C7A0DCE700227E212046FFF737
:1019800057FE94F8C7A0BAF1010FC8D152460821FA
:101990002046FFF74DFE524681212046FFF748FEC4
:1019A00094F8C7A0BBE794F8C7A0BAF1010FC3D160
:1019B000524608212046FFF73BFE52468121204631
:1019C000FFF736FE94F8C7A0B6E74A4631792046BD
:1019D000FFF72EFE4A4671792046FFF729FE57E7AA
:1019E0007E212046FFF724FE62E7002208212046E0
:1019F000FFF71EFE01221B212046FFF719FE94F877
:101A0000C7A08FE700221B212046FFF711FE14E735
:101A100000227E212046FFF70BFE52460821204679
:101A2000FFF706FE524651462046FFF701FE94F8A6
:101A3000C7A081E74896FF1F08B9FF1F18B4FF1F12
:101A40001C96FF1FE096FF1F38B50D460446FFF7B2
:101A500049FE4FF6FF73984206D02A4601462046BB
:101A6000BDE83840FFF7BEBE38BD00BFF0B500236B
:101A700083B0A0F8FA30044604E07F2D2B46A0F88E
:101A8000FA5026D094F805615D1C1434002EF4D170
:101A9000224CB0F80C5B2468019403EB8303A1F1A2
:101AA000140400EB8303E4B2019F01350126392CB5
:101AB000A0F80C5BC3F80071A3F8FC1083F8FE20BB
:101AC00083F8056120D9164A1268C3F8082103B0CB
:101AD000F0BDD0F8FC3A044643B1124AA2FB03120F
:101AE000D20B49F6404101FB123242B944210E4863
:101AF00009F070FF0D480AF009FAD4F8FC3A0133F6
:101B0000C4F8FC3A03B0F0BD094A92E80300C3F8F8
:101B10000801A3F80C1103B0F0BD00BFD8CAFF1F25
:101B200018B4FF1F5917B7D130530100488AFF1F5F
:101B30001C96FF1F2C4B1B78F0B413B92B4B1B7852
:101B40001BB32B4B2B4A1B682B4D2C4C002B2DDB36
:101B5000A2FB03235A0902EB4202002356002E6027
:101B600023701F4600221346012505FA03F40133B2
:101B70001E2B42EA0402F8D13240214C42EA07030C
:101B800023600022F0BCFFF771BF1E4A1268002AD2
:101B900019DB184E184D194CA6FB0262520902EBD4
:101BA000420256002E6023701F46DBE75B42A2FB19
:101BB0000332520902EB4202560001232E602370C9
:101BC0004FF08047CEE70B4D0B4C0C4B5242A5FB20
:101BD0000252520902EB42025600012226601A709C
:101BE0004FF08047BEE700BFE4B2FF1F4996FF1FDA
:101BF0008496FF1F1F85EB51C494FF1F1498FF1F8D
:101C000018B4FF1FD0CAFF1F1D4B1B78F0B413B9C7
:101C10001C4B1B7823B31C4B1B681C4A1C4D1D4CD2
:101C2000002B1FDBA2FB03235A0902EB42025600E2
:101C300002232E6023704FF0004700221346012537
:101C400005FA03F401331E2B42EA0402F8D13240B4
:101C5000114C42EA070323600122F0BCFFF706BFE4
:101C60000E4BD9E75B42A2FB0332520902EB420260
:101C7000560003232E6023704FF04047DDE700BF7E
:101C8000E4B2FF1F4996FF1F0096FF1F1F85EB510F
:101C9000D0C4FF1F1498FF1F18B4FF1F74B9FF1F93
:101CA0002DE9F04F83B04D4A8DE80300002303E097
:101CB0000133322B00F08F8012F8011F0029F7D179
:101CC000474A9BB21380474C47484849E2185FFA9D
:101CD00083F880F800800023204653709370D370FF
:101CE00013710EF071FC00286AD1414B01241C7065
:101CF000404B414A1B7813704048414B394983F8A7
:101D0000008008F10402DFF808B1DFF80C91824688
:101D100007F0D4FB3B4B00271C708BF800703A4651
:101D20000AEB020302F1030C1AF802705C781AF84D
:101D30000C6089F801404FEA076E24040EF0FE4E55
:101D400089F8036006F07F069D7889F8025004F454
:101D5000FE044EEA0606930826432B4C89F80070D1
:101D600001332D021A4605F4FE452370274B3543F7
:101D7000C4459DE803001D600FDB1F4B1B785E050B
:101D80009C0306F4000604F40044DB01344303F032
:101D9000800323431D431D4B1D60FFF767FE9BF827
:101DA0000020174B043293F80080194BD2B29045B3
:101DB0008BF80020B4D200221A7003B0BDE8F08F77
:101DC000204614490EF000FC094B10B90446187067
:101DD0008EE71C788CE7024B1B8874E7579DFF1F2A
:101DE000E699FF1F589DFF1F489AFF1F7853010077
:101DF0009896FF1F71B9FF1F089EFF1F90C4FF1F19
:101E00001298FF1FD699FF1F4096FF1F18B4FF1F9F
:101E10006196FF1F885301006496FF1F013A70B559
:101E2000052A21D8DFE802F03A2020542103354C5E
:101E3000354A364B26781660062400221C70012590
:101E4000134605FA03F40133182B42EA04024FF05B
:101E50000104F6D132402E4D42F0C06306222B60C1
:101E6000FFF704FE2B4B1C7070BD2B4A274B1668E6
:101E7000052400221C700125134605FA03F40133E2
:101E8000182B42EA0402F8D13240214C42F0A06300
:101E900023600522BDE87040FFF7E8BD1F4C204AD3
:101EA0001A4B26781660012500221D70134605FA8C
:101EB00003F40133182B42EA0402F8D13240144CE7
:101EC00042F0807323600122BDE87040FFF7CEBD71
:101ED000144A0E4B1668042400221C700125134678
:101EE00005FA03F40133182B42EA0402F8D1324018
:101EF000074C42F0806323600422BDE87040FFF786
:101F0000B5BD00BF4E96FF1F109AFF1F1EB4FF1FE6
:101F100018B4FF1FCCC4FF1F1096FF1FE499FF1FCA
:101F20002496FF1F5C96FF1F1F4B2DE9F0410546CD
:101F30000E4618681D490DF02DFA0AF011FC0DF03F
:101F400005FC1B4A1B4B19490FFA80F8A3F80080C7
:101F500010680DF01FFA0AF003FC0DF0F7FB164BAA
:101F600000B2002218800127134607FA03F4013358
:101F7000102B42EA0402F8D108EA02020004002110
:101F8000012707FA03F40133202B41EA0401F8D1B9
:101F900000EA0103094C134331462846236001221D
:101FA000BDE8F041FFF762BDD896FF1FCDCCCC3D18
:101FB000B899FF1F2098FF1F2298FF1F18B4FF1F1A
:101FC0002DE9F04F90F8BC60DFF834B20023042E06
:101FD00083B0CBF8003000F3C680DFF828920746C4
:101FE00039F81600A0F2DC508A460DF07FF98349DB
:101FF0000DF0D0F9B3080021044601930DF07CFBED
:10200000002800F0B5804FF07C5120460DF0BAF862
:102010000DF09CFB45B26FF03E03721C9D42B8BFB1
:102020001D4639F81200DFF8E0813F2DA8BF3F259B
:10203000A0F2DC5088F801500DF058F96F490DF00E
:10204000A9F9002104460DF057FB002800F0CE80CE
:102050004FF07C5120460DF095F80DF077FB44B21F
:102060006FF03E03B21C9C42B8BF1C4639F8120008
:102070003F2CA8BF3F24A0F2DC5088F802400DF0AE
:1020800035F95E490DF086F9002101900DF034FB21
:10209000019B002800F0A28018464FF07C510DF003
:1020A00071F80DF053FB42B26FF03E03F11C9A42FF
:1020B000B8BF1A4639F811003F2A9146A0F2DC5009
:1020C000A8BF4FF03F0988F803900DF00FF94B4976
:1020D0000DF060F9002101900DF00EFB019B00282E
:1020E00074D018464FF07C510DF04CF80DF02EFBDB
:1020F00040B26FF03E039842B8BF18463F28A8BFD1
:102100003F20B308002D03F00F0388F8040055DBCF
:102110002D0105F47C751D43002C47DBE40204F41B
:10212000FC342C43B9F1000F35DB4FEA894909F43F
:102130007C0949EA0409002822DB400600F0FC4043
:1021400040EA0900CBF8000006F0030201325146D4
:102150003846FFF78BFC97F8BC30043387F8BC3067
:1021600003B0BDE8F08F80F8BC3003B0BDE8F08F5D
:102170004FF07C5120460DF003F80DF0E7FA49E7E7
:1021800043425B0603F0FC4343F0004343EA090388
:10219000CBF80030D8E7C9F100094FEA894909F4C2
:1021A0007C0949F0807949EA0409C4E76442E40201
:1021B00004F4FC3444F400342C43B3E76D422D01A5
:1021C00005F47C7243F480651543A5E718464FF08B
:1021D0007C510CF0D5FF0DF0B9FA89E718464FF0A5
:1021E0007C510CF0CDFF0DF0B1FA5CE74FF07C5163
:1021F00020460CF0C5FF0DF0A9FA30E72506013E98
:1022000018B4FF1F80CAFF1FF4B8FF1F0A4B30B479
:10221000002246241C600125134605FA03F401330D
:10222000202B42EA0402F8D1044C02F0460323605A
:10223000012230BCFFF71ABCB8CAFF1F18B4FF1F39
:1022400070B5094C0E460025204631460EF0BCF90B
:10225000E37D1C3403B128B10135102DF4D14FF6C4
:10226000FF7070BDA8B270BD919BFF1FF8B500252F
:102270000F462E46142441F288320121384607F0D9
:10228000EDFC41F2883206440021384607F0E6FCB6
:102290004FF420730544013BFDD1013CEBD1AE422C
:1022A0008CBF00200120F8BDF8B50D4617463ABB9B
:1022B000284607F03BFB0028FAD0304E0A2441F2B2
:1022C0008832012128461FB141F288320021284678
:1022D00007F0C4FC10B1864228BF0646013CEED18F
:1022E0003B2E18D8282E45D2132E20D80C2E3ED2A5
:1022F000022E37D022D9042E37D34FF4E130F8BD67
:10230000284607F013FB0128D7D1284607F00EFB1B
:102310000128F5D0D1E7B6F5967F14D2962E1BD2C0
:10232000502E34BF4FF461504FF41650F8BD1D2E9F
:1023300034BF4FF416404FF4E140F8BD012E14D1E4
:102340004FF46120F8BDB6F5167F08D3B6F5966F49
:102350000BD24FF49660F8BD4FF49650F8BD4FF491
:102360001660F8BD4FF4E120F8BD0020F8BD4FF431
:102370006140F8BD4FF49640F8BD00BF3F420F00EA
:102380002DE9F04706460D461446224629463046BA
:10239000FFF78AFF07460A2007F0FEFA2246294681
:1023A0003046FFF781FF80460A2007F0F5FA224603
:1023B00029463046FFF778FF81460A2007F0ECFAFD
:1023C000224629463046FFF76FFF82460A2007F073
:1023D000E3FA224629463046FFF766FF4745D4D147
:1023E0004F45D2D15745D0D18742CED1BDE8F087F5
:1023F0002DE9F0470E46054619213548174609F0E4
:10240000E9FA00230A223146324809F0A5FD314895
:1024100009F07CFD3046002107F096FA3046012194
:1024200007F07EFA3A4631462846FFF7A9FF824672
:10243000002843D10446DFF8A880814608E03C2C00
:1024400022D83A4631462846FFF79AFF8246A8BB73
:1024500009F101095FFA89F9A8FB09239B0895F89E
:10246000F82003EB8303C3EB090312B1002285F8C4
:10247000F82013F0FF0FE2D1013401211648E4B235
:1024800009F0A8FA3C2CDCD9124809F03FFD1A21CA
:10249000124809F09FFA00230A2231460D4809F03C
:1024A0005BFD0C4809F032FD3A4631462846FFF7FD
:1024B00067FF0024A14682460028C9D095F8F8306D
:1024C00013B9044809F022FD5046BDE8F08700BF6B
:1024D000B4530100488AFF1FD0530100D4530100B8
:1024E000CDCCCCCC0D4B5B79032B16D810B40C4B58
:1024F0000C499A68DC790C481B7A0B70130A83B07C
:10250000047008D1094B0A4A1B6801930199094BD1
:10251000116001221A7003B010BC7047E096FF1FD3
:102520002C98FF1F049EFF1F13B4FF1FD8CAFF1F64
:10253000CC96FF1F00B9FF1F30B5244C94F8683BC0
:102540000A2BCBB0224B34D02249002540F2231273
:1025500001A81D7006F0B2FFD4F8643B04F65E35A6
:1025600003F22313AB42C4F8643B08BF234601A91E
:1025700040F22312184608BFC4F8644B06F09EFFD1
:1025800094F8682B11490A2A034607D0501C81F899
:10259000680B0AB9C1F8603B4BB030BDD1F8603B65
:1025A00003F22313AB4208BF0B46C1F8603B4BB0AC
:1025B00030BD0122262108481A7009F00BFA07489D
:1025C0004BB0BDE8304009F0A1BC00BF609FFF1FC9
:1025D0007696FF1FF0B2FF1FF0530100488AFF1FDD
:1025E0002DE9F04FADF50F7D08F0A4F9002838D0A3
:1025F00008F0B0F9AE4BC1B20391DB78AC490022D0
:102600000A700F2B00F2BF81DFE813F0B201B201B4
:102610009401880171015A013B0124010401E30086
:10262000BF009F005700300030001000A04BA14AAF
:102630005B7B049211465E1E9D4A9DF80C00CB1AEE
:10264000F6B2567383F82301002E00F03582CA7863
:102650009949CA70964A0023937008F06BF90028D4
:10266000C6D101200DF50F7DBDE8F08F0E2B914BEB
:10267000049305D01B88039AB2EB132F00F08286D7
:102680008B4A02231370049A9DF80C10137982F878
:10269000151113F0010F8749854B00F0D58184484F
:1026A0001B780F22C270022B4FF00D02427300F014
:1026B000A0860023CA780370CAE77E4B04939C6807
:1026C0007E4DFD20C4F3172403469E2200210AE01C
:1026D000581E43185A1C5208884202EB420240F22C
:1026E0008E8155F82220013394424FEA5303EFD3F1
:1026F0001946EED8944200F07B8100210B46049CE1
:102700002088434083EA0313DBB2DA0082EA032223
:1027100082EA102282EA1313DAB22380039B9A42E0
:1027200000F01A86624B0E22DA70049B9DF80C2092
:1027300083F814215F4C29B15D4B8A791B79934250
:10274000C0F00F86049BDA7882E7594B039D197914
:10275000584B574C1E460B4401311D7330882B4695
:10276000434083EA0313DBB2DA0082EA032282EAFF
:102770001020F278C9B280EA13139142217133809C
:102780007FF466AF0C23E37062E74A4B039A1C8820
:10279000624082EA0212D2B2D1001D4681EA0221D1
:1027A0009B68000400F47F0081EA142140EA1323AF
:1027B00081EA1211EA786B72C3F307201B0CA8722E
:1027C000EB722980002A00F0208139490B23CB705D
:1027D0003EE7384B039A1C88624082EA0212D2B26A
:1027E0001D46D1009B68000200F47F4081EA02216F
:1027F00040EA132381EA142181EA1212190CE972CA
:102800002B496B72C3F307200A232A80A872EA7847
:10281000CB701DE72749264B08881C7B039B4B7216
:10282000434083EA0313DBB2DA0082EA032282EA3E
:10283000102282EA13130020E2070B808872C8720C
:102840001B4B40F1FD80CA78002A00F02B810B2140
:10285000D970FDE6174B19881C461846039B037276
:102860004B4083EA0313DBB2DA0082EA032282EAF6
:10287000112282EA131323800D4BE2780821D970CC
:10288000E6E60C4B19881C461846039BC3714B4067
:1028900083EA0313DBB2DA0082EA032282EA11221E
:1028A00082EA13132380024BE2780721D970CFE626
:1028B000A09DFF1F38B4FF1FF0B2FF1FD4460100D8
:1028C0009A4B19881C461846039B83714B4083EA38
:1028D0000313DBB2DA0082EA032282EA112282EADF
:1028E00013132380924BE2780621D970B0E68F4B08
:1028F00019881C461846039B43714B4083EA031317
:10290000DBB2DA0082EA032282EA112282EA13139E
:102910002380874BE2780521D97099E6834C9DF896
:102920000C30237110F0FE0F73D08149E27801233F
:10293000CB708DE67D497E4B039D08881C7BCD7056
:102940002B46434083EA0313DBB2DA0082EA032218
:1029500082EA102282EA13130B80754B0022E007F3
:102960001A7169D505200A714A71D8702A466FE636
:10297000039BFD2B00F0DB84039BFE2B00F0FB840C
:102980006A4BDA7864E6694B04931A46694BD2784D
:10299000DA70674B00249C70A31E012B16D9002C03
:1029A0003FF422AEFFF7C8FD1EE6624A9DF8141000
:1029B000D1705F490023022C8B70EDD1049890F800
:1029C000151190F8143143EA0123138003985849F4
:1029D00001230022FD288B700A7001D0CB7003E622
:1029E000049D02204FF6FF73EA70C8702B80FBE550
:1029F000514B01EB410103EB81010B797FE64E4B1B
:102A000001EB410253F8222074E649490C23CB70B4
:102A10001EE62088039BE278434083EA0313DBB27F
:102A2000D90081EA032181EA102181EA131323806E
:102A30003F4B0421D9700BE60321039AD97007E6B6
:102A40000920CA78D87003E61B693BB11B6B002BC9
:102A50002BD089683648090A984730B3344B1C7824
:102A6000334D324933480123EB7040F2231206F014
:102A700025FD049BDB780593012C96D12C4B049A01
:102A80002B491B8992794A7103B94B8128482949FE
:102A900001330022038182709DF81430CB70FFF760
:102AA0004BFDA1E50C21D970D2E5214B1C78022CFD
:102AB000D6D003241C70D3E71369526910931D46C6
:102AC0001192002B00F08E8455F8100F1B4C379498
:102AD0001B4C6968AA68EB681A4F38941A4C3D94ED
:102AE0003A97DFF870E0194FDFF86CC03C973EACC6
:102AF000CDF8ECC0CDF8E4E00FC4049B2869DA7887
:102B00006969EB6905921746AA6935963D460A350B
:102B10000FC4049B0295ED0005F580750C4E3696AA
:102B200002333495069320241CE000BF38B4FF1F05
:102B3000A09DFF1FF0B2FF1FD446010085AE67BB0A
:102B400072F36E3C7F520E5119CDE05BABD9831FFF
:102B500067E6096A3AF54FA58C68059B029B002B36
:102B600000F0CD80029D069EC4F14003AB4228BF19
:102B70002B46ED1A02953EA8354620441D441C44C0
:102B80001A463146069506F099FC402CE6D134AA47
:102B900022AB92F82B0092F82A101870597092F814
:102BA000290092F82810D970987032A904339942FC
:102BB00002F10402EDD1369B0793379B0893389BB3
:102BC0000993399B0A933A9B0B933B9B0C933C9B39
:102BD0000D930DF59A7A3D9B0E93524621AB53F817
:102BE000041F42F8041F31A98B42F8D10DF5B678C5
:102BF0000DF5AC7C0DF59C7E5DAF5646302558F842
:102C0000044F5EF8043F56F8042F5CF8041F4FEAA7
:102C1000F440114480EA74404FEAB34280EA9420C1
:102C200082EAF312014482EAD3030B44013D47F8E0
:102C3000043FE4D10E9ADFF8B892A94BDDF828B032
:102C4000DDF820E0099F079EDDF834C0DDF8308014
:102C500001920B9D0AE059F8043FCDF804C0BB4631
:102C6000C4467746A846B646254606464FEAF522AC
:102C700005EA080182EAB5122CEA050482EA7562C7
:102C80004C405AF8041F144421441944019B87EA1C
:102C90000E024FEA7630194402EA060480EAB600D2
:102CA00007EA0E028F4B544080EAB65020444B4551
:102CB00001EB0B040844CED10A99079A39440F4618
:102CC0000B99399721440C460C993A9402442944B3
:102CD00013460D46089A0D993693324441441646E0
:102CE0000846099A0E99029B3796724461443892BD
:102CF0003B953C903D910024002B7FF433AF349CF6
:102D000004F110039C42349300F27C83764B0793CA
:102D10000223C4F3C504069303E0069B002B00F0D6
:102D2000D080069D079EC4F14003AB4228BF2B46CE
:102D3000ED1A06953EA8354620441D441C441A460B
:102D40003146079506F0BAFB402CE6D134AA22ABF7
:102D500092F82B0092F82A101870597092F82900F6
:102D600092F82810D970987032A90433994202F170
:102D70000402EDD1369B0893379B0993389B0A9345
:102D8000399B0B933A9B0C933B9B0D933C9B0E936F
:102D90000DF59A7A3D9B0F93524621AB53F8041FD1
:102DA00042F8041F31A98B42F8D10DF5B6780DF524
:102DB000AC7C0DF59C7E5DAF5646302558F8044F2F
:102DC0005EF8043F56F8042F5CF8041F4FEAF44005
:102DD000114480EA74404FEAB34280EA942082EAC8
:102DE000F312014482EAD3030B44013D47F8043F48
:102DF000E4D13B4B0F9ADFF8F890DDF82CB0DDF80A
:102E000024E00A9F089EDDF838C0DDF83480019286
:102E10000C9D02930BE0CDF804C0C446A8461D46A5
:102E200059F8043F0293BB467746B64606464FEA3A
:102E3000F52205EA080182EAB5122CEA050482EAC5
:102E400075624C405AF8041F019B144487EA0E0235
:102E500021444FEA763002EA060407EA0E021944DA
:102E60005440029B1F4A80EAB60080EAB6501944DB
:102E700020444A4501EB0B030844CCD10B99089A36
:102E800039440F460C99399719440B460D993A93DA
:102E90000244294414460D46099A0E99069B36941D
:102EA00032444144164608460A9A0F9937967244AE
:102EB000614438923B953C903D910024002B7FF477
:102EC00030AF349C04F138039C42349300F2968274
:102ED000064B07930723C4F3C50406930EE000BF17
:102EE000982F8A42D04601004CB5FF1F4EB5FF1FF8
:102EF000D4450100069B002B00F0D080069D079E64
:102F0000C4F14003AB4228BF2B46ED1A06953EA8FC
:102F1000354620441D441C441A463146079506F0A8
:102F2000CDFA402CE6D134AA22AB92F82B0092F8CD
:102F30002A101870597092F8290092F82810D97048
:102F4000987032A90433994202F10402EDD1369B04
:102F50000893379B0993389B0A93399B0B933A9BB1
:102F60000C933B9B0D933C9B0E930DF59A7A3D9BE6
:102F70000F93524621AB53F8041F42F8041F31A9A6
:102F80008B42F8D10DF5B6780DF5AC7C0DF59C7E35
:102F90005DAF5646302558F8044F5EF8043F56F8AA
:102FA000042F5CF8041F4FEAF440114480EA744097
:102FB0004FEAB34280EA942082EAF312014482EAA3
:102FC000D3030B44013D47F8043FE4D18B4B0F9AE8
:102FD000DFF83092DDF82CB0DDF824E00A9F089E7F
:102FE000DDF838C0DDF8348001920C9D02930BE0CF
:102FF000CDF804C0C446A8461D4659F8043F0293C4
:10300000BB467746B64606464FEAF52205EA080172
:1030100082EAB5122CEA050482EA75624C405AF83D
:10302000041F019B144487EA0E0221444FEA7630C4
:1030300002EA060407EA0E0219445440029B704A51
:1030400080EAB60080EAB650194420444A4501EBB4
:103050000B030844CCD10B99089A39440F460C99BC
:10306000399719440B460D993A9302442944144662
:103070000D46099A0E99069B3694324441441646F1
:1030800008460A9A0F9937967244614438923B95E4
:103090003C903D910024002B7FF430AF349D069985
:1030A000C5F3C504C4F177068023472206F03F0626
:1030B0000DF189008DF888300CF066FF06F10902E9
:1030C0001046069222AA1644359B33712A0AF271E1
:1030D0002A0E72711A0C290CB27005EBC0029542CF
:1030E000B1714FEA1321F1704FEA136184BF0133CC
:1030F000359322AB357271703492079303E0069BCF
:10310000002B00F0D780069D079EC4F14003AB4220
:1031100028BF2B46ED1A06953EA8354620441D448F
:103120001C441A463146079506F0C8F9402CE6D1F2
:1031300034AA12AB92F82B0092F82A10187059702A
:1031400092F8290092F82810D970987022A90433B7
:10315000994202F10402EDD1369B0893379B099303
:10316000389B0A93399B0B933A9B0C933B9B0D9393
:103170003C9B0E930DF59A7A3D9B0F93524611ABF3
:1031800053F8041F42F8041F21A98B42F8D10DF512
:10319000B6780DF5AC7C0DF59C7E5DAF56463025BE
:1031A00058F8044F5EF8043F56F8042F5CF8041FEB
:1031B0004FEAF440114480EA74404FEAB34280EA97
:1031C000942082EAF312014482EAD3030B44013DC6
:1031D00047F8043FE4D1094B0F9ADFF82890DDF857
:1031E0002CB0DDF824E00A9F089EDDF838C0DDF839
:1031F000348001920C9D029312E000BF982F8A4206
:10320000D0460100D4450100CDF804C0C446A8460C
:103210001D4659F8043F0293BB467746B64606461C
:103220004FEAF52205EA080182EAB5122CEA050404
:1032300082EA75624C405AF8041F019B144487EAE5
:103240000E0221444FEA763002EA060407EA0E0233
:1032500019445440029B8E4A80EAB60080EAB65078
:1032600019442044914501EB0B030844CCD10B9940
:10327000089A39440F460C99399719440B460D9911
:103280003A930244294414460D46099A0E99069B26
:10329000369432444144164608460A9A0F993796A6
:1032A0007244614438923B953C903D910024002B40
:1032B0007FF429AF9DF8DB309DF8DA20754C9DF83E
:1032C000D8008DF848308DF849209DF8D9309DF808
:1032D000DF208DF84A308DF84B009DF8DE308DF8F8
:1032E0004C2004F21D1112A806228DF84D300CF06E
:1032F000B5FD002800F08A80109B1B6B4BB1049A2F
:1033000065489168634C090A984700286AD1E378B8
:103310000593614B03241C705F4D5E495F48012398
:1033200040F22312EB7006F0C9F8FFF7A5BB5A4B29
:10333000584A1B7B104623F0010357499DF80C4067
:103340000B734FF6FF7354490380002202238470ED
:10335000C270CB70FFF77CB94F4A0D23D370FFF7D3
:10336000E4B904F10C00D21A184400210CF00CFE50
:10337000E278FFF76DB9484B464A1B7B104643F095
:103380000103DAE7444A01231370FFF77CB90F28E1
:10339000B2D8DDE92267109B414AD3E90245921970
:1033A0004FF000037B41AB4208BFA242A4D3119A65
:1033B000049D00EBC0041444EB79E3702B7A237175
:1033C000013084F802E0053410800B6823608B889C
:1033D0001099A380D1E90223BB4208BFB24201D2B7
:1033E000C1E90267049BDB7805932B4B01241C7019
:1033F00092E72A4ACB78D370FFF7E0BA359B0133C6
:10340000359365E5359B013335937FE404F217115D
:1034100000230022CDE92223119B08688D8894F8AF
:1034200016E12290ADF88C50002B3FF465AF188860
:103430000028AED0E579267A069C04E094B2844256
:1034400003F10903A3D0DF78AF4204F10102F5D103
:103450001F79B742F2D19F787745EFD1844296D059
:10346000119B04EBC40423441C468EAD00220023B0
:1034700065E9402354F8050F2860A388AB80D5E99F
:103480000023DDE92267BB4208BFB2429DD333E788
:10349000D046010038B4FF1FA09DFF1FF0B2FF1FF0
:1034A000808D5B00404B5B79002B4DD12DE9F041C5
:1034B0003E4DAA78EC78FE2A5DD0012C0BD92B1951
:1034C000DB7A13B107E0DB7A2BB9013CE4B2012CC3
:1034D00005EB0403F7D1AB68354E344F3270C3F3BC
:1034E00017231A121814A97995F8048095F805E0A5
:1034F0003272F371EA792B7A70723171727107F15D
:103500000C01224606F10A00747086F803E0B371DC
:1035100086F8028005F0D2FF04F10A0118F0010FCD
:1035200006EB010211D10921288810700012507099
:1035300000231944033121441E4B1D4889B2BDE8C4
:10354000F041198007F074B970473B887354D7F87D
:1035500016E1D7F81A61D7F81E5197F82201C2F880
:1035600002E01B125370C2F806600D23C2F80A5025
:1035700090730921DDE7AB680D4EA97995F807E056
:103580002F7A3270C3F317232246B170B01D05F1B4
:103590000C017371747086F803E0377105F08EFFCB
:1035A000A21D32440521BFE7E096FF1F4C9AFF1F82
:1035B0000C9EFF1FE699FF1F2DE9F04FB5B00023C9
:1035C0004FF003084FF0060C04248DF80D808DF8A1
:1035D00010808DF80E308DF80F308DF80CC00294ED
:1035E00002AA07CACC4ECD4FDFF8689397F80CA01B
:1035F00089F8008006F10C05AE46AEE80300C84825
:103600008EF80020DFF850E3C64903700AF002028A
:10361000DFF848B3DFF848A3DFF84893C2488EF8D4
:1036200000404FF0FB0E7372B372F37281F800E04A
:1036300001239E218BF800C002F0FF088AF80010D9
:1036400089F8003003703ABB3B69002B00F05D81C4
:1036500093F800E00EF0010EFD23B44AB370092088
:1036600012F8011DC3B2002940F04A810138012837
:10367000F6D18C4603469E22FB213272F370F17123
:10368000A54ABEF1000F00F04281012111714FF0F7
:10369000FD0908210A2411E009234FF0FE093172C7
:1036A0001846214686F807E06446F37086F80290D3
:1036B0004FF0080C4FF0000E86F804E0BA798DF850
:1036C000149002F1010A4FF0000987F806A08DF866
:1036D0001530B27186F80590DFF83CA2B8F1000F02
:1036E0005BD04FF0FB088DF816209E228DF81990C4
:1036F0008DF817808DF818204FF6FF78C2460DF12F
:10370000150901E019F8013F83EA080383EA03136E
:10371000DBB2DA00013982EA032289B282EA182296
:10372000514582EA1318EDD10CF10D0C8049B444D7
:1037300011F8013B83EA080383EA0313DBB2DA00E2
:1037400082EA032282EA182282EA13131BB261453D
:103750001FFA83F8ECD183F0320181EA0111C9B27A
:10376000CA0082EA012282EA182282EA1111304458
:1037700009B20173F378DFF8A08189B233440A12E9
:103780005A733180BEF1000F1ED16A4B1B790BB901
:10379000FCF764FF35B0BDE8F08F9AF804908DF81F
:1037A00016904FF0FB0A4FF09E098DF817808DF8A8
:1037B00018208DF81B808DF81C808DF81D808DF8E9
:1037C00019A08DF81A9097E739690029DDD00B7898
:1037D000DB07DAD54B7888F81631D1E90223CDE939
:1037E000002334AB544F53F8D00DC8F817019B8811
:1037F000A8F81B31D1E90223013243F10003C1E9EA
:1038000002234E4B1D934E4B4E4A1C9720934E4F16
:103810001E9203F12D634D4A1F9703F51E334C4F43
:10382000219203F29A23002610311AA8202222970F
:1038300098F8037023931A961B96FCF717FE2246FE
:103840001AA805A9FCF712FE3A461AA808F10C01BD
:10385000FCF70CFEE9191AA80222FCF707FE1AA8C9
:10386000072208F58B71FCF701FE1A9D34AFC5F3F2
:10387000C504314680234722C4F177040DF12100AD
:1038800007F8B03D04F03F040CF07EFB34AB23445A
:103890001B9E03F8A85C04F109022C0C39464FEA80
:1038A000152C4FEA156E03F8AA4C1AA8350C340EE5
:1038B000370A03F8AE5C03F8AF4C03F8A9CC03F861
:1038C000ABEC03F8AC6C03F8AD7CFCF7CFFD9DF8D6
:1038D00073509DF872409DF871009DF870109DF82E
:1038E00077209DF8763088F81D5188F81E4188F8B9
:1038F0001F0188F8201188F8212188F8223144E737
:1039000003F1FF3C1FFA8CFCB5E6C646A4E608218D
:103910004FF0FD090A24CDE62C98FF1FA09DFF1F44
:10392000F9B8FF1FA999FF1FD799FF1F4198FF1FE3
:103930003898FF1FE096FF1F67E6096A85AE67BBF0
:103940007F520E5172F36E3C3AF54FA58C68059B81
:10395000ABD9831FE8B8FF1F059EFF1FCCAAFF1F2E
:10396000FD99FF1FD8B2FF1F2DE9F047D04AD14B78
:1039700016781B78D04FD14DD149D248DFF864C3B7
:10398000DFF864E3DFF86493B4B000248DF804300A
:103990008DF806408DF80560019A3B7B0C70AC7287
:1039A000110CEC729E2403F00203A973AA81FB217F
:1039B0002B22047001206A7203F0FF088CF80010BB
:1039C0008EF8000089F80000C3B93B69002B00F0B5
:1039D000A6801B78DA0740F1A280FD23AB70002E91
:1039E00040F05F818646E8700346E9712C724046DC
:1039F00001262E71FD220A2408210AE00223FE225C
:103A0000E9712C729E46EB70AA70062404210026F0
:103A10002E7197F806908DF8142009F1010C002200
:103A20006A718DF8153085F8069087F806C0A34AAC
:103A3000B8F1000F5CD0FB224FF09E0C8DF81720E0
:103A40002B228DF816908DF818C08DF819204FF69E
:103A5000FF78C1460DF1150C01E01CF8013F83EA27
:103A6000080383EA0313DBB2DA00013982EA032296
:103A700089B282EA1822494582EA1318EDD1DFF8AB
:103A800070C20D302844614611F8013B83EA0803F7
:103A900083EA0313DBB2DA0082EA032282EA182205
:103AA00082EA13131BB281421FFA83F8ECD183F030
:103AB000840383EA0313DBB2DA0082EA032282EA98
:103AC000182282EA1313AE441BB28EF80C30EA7847
:103AD000DFF8E8819BB22A44191251732B808EBB08
:103AE000794B1B790BB9FCF7B9FD34B0BDE8F08711
:103AF00012798DF816204FF0FB0A4FF09E0C2B2206
:103B00008DF817808DF818908DF81C808DF81D8029
:103B10008DF819A08DF81AC08DF81B2097E7FD22AB
:103B2000AA706649002E40F0E78001239E244FF0E2
:103B3000FB0C0C72CB7081F807C09E4630460A24FD
:103B4000082164E798F8039039690CEB090A002909
:103B5000C6D00B78DB07C3D54B7888F81631D1E98E
:103B60000223CDE9022334AB0E4653F8C80DC8F842
:103B700017019B88A8F81B31D1E90223013243F1D8
:103B80000003C1E90223514B1C93A3F16263A3F527
:103B90001123DFF860E14E4F4E4D4F484F49504AD8
:103BA0001E97A3F64E131F95CDF874E02090219137
:103BB0002292239356F8100F7168B268F36824AD0F
:103BC0000FC534AF4FF4807E47F868EDF369306974
:103BD0007169B26900261B960FC52246384605A9B1
:103BE000FCF744FC4A46384608F10C01FCF73EFC61
:103BF000514638460222FCF739FC3846072208F5C0
:103C00008B71FCF733FC1A9D0DF1D009C5F3C50487
:103C1000314680234722C4F177040DF1210009F8D1
:103C2000B03D04F03F040CF0AFF91B9E34AB2344CD
:103C30004946384604F109024FEA156C4FEA152A45
:103C40004FEA15494FEA162E340E370C03F8A85CDC
:103C500003F8AF4C03F8A9AC03F8AA9C03F8ABCC6B
:103C600003F8AC6C03F8ADEC03F8AE7CFCF7FEFB9C
:103C70009DF873509DF872409DF871009DF870108A
:103C80009DF877209DF8763088F81D5188F81E4100
:103C900088F81F0188F8201188F8212188F822313E
:103CA0001EE702239E46E9712C72EB70A0E600BF6E
:103CB000D799FF1FD8B2FF1FA09DFF1F2C98FF1F91
:103CC0001CB4FF1FFD99FF1FE096FF1F67E6096AFE
:103CD00072F36E3C3AF54FA57F520E518C68059BEE
:103CE000ABD9831FA999FF1FB5CAFF1F14B4FF1FCB
:103CF0003898FF1F85AE67BB0223FB249E20CC7142
:103D00000872CB709E4601200A2408217FE600BF7E
:103D100010B5194B197882B0C9B9184B184A1B68ED
:103D2000019301981368C31AB3F5FA7F154B08D3B2
:103D300010601A78C2B10D20197005F0F1FD02B0C3
:103D400010BD19780D2005F0EBFD02B010BD012368
:103D50000C4C19460D20237005F0E2FD21780D2052
:103D600005F0DEFD02B010BD01210D20197005F037
:103D7000D7FD02B010BD00BF4A96FF1FD8CAFF1F73
:103D8000D899FF1F6096FF1F10B5064C204604F01F
:103D9000EBFE01232046A38263821946BDE8104052
:103DA00004F0CABA0CB9FF1FF8B5154CE668054611
:103DB0004FF07E5130460BF08BFC18B128460BF0CB
:103DC00091FA064628460BF091FA0E490BF0E2FAFA
:103DD0000D49074630460BF0DDFA014638460BF038
:103DE000D1F90A496269E369E060A1FB051502EBBC
:103DF000951501336561E3610BF0CEFCF8BD00BFA2
:103E00000488FF1F4CA6AA3E4CA62A3FD34D621041
:103E1000F0B51E4C94F8203085B00546002B32D00A
:103E20001B4B1A680192019A0021013A84F8201074
:103E30001968039103981B680293029B2361801AFF
:103E40000BF050FA13490BF059FB0AF019FE064625
:103E500028460F460AF0F2FD02460B463046394628
:103E60000AF062FE0BF038F90B490BF093FA0B499C
:103E70000BF090FA03460146606823600BF082F96C
:103E8000606005B0F0BD2269014BD1E70488FF1FD7
:103E9000D8CAFF1F00BA5B4A000020410000883FDB
:103EA00070B5114D0646FFF7B3FFAC684FF07E5179
:103EB00020460BF00DFC18B130460BF013FA044607
:103EC00030460BF013FA09490BF064FA084906462C
:103ED00020460BF05FFA014630460BF053F9A8601C
:103EE0000BF05AFC70BD00BF0488FF1FFA7EAA3E8B
:103EF0004CA62A3FF8B51D4CE56806460021284629
:103F00000BF0DCFB00282BD030460BF0EBF907461A
:103F1000054630460BF0EAF915490BF03BFA154916
:103F2000064628460BF036FA014630460BF02AF9D1
:103F30000546E56060690BF0D5F90F49064638463D
:103F40000BF028FA014630460BF01CF90BF024FC6C
:103F5000E369606101332846E3610BF01DFCF8BDA5
:103F600030460BF0BFF90746D3E700BF2888FF1F94
:103F7000FA7EAA3EFA7E2A3F6F12833AF0B51E4CB3
:103F800094F8203085B00546002B32D01B4B1A68C0
:103F90000192019A0021013A84F8201019680391D6
:103FA00003981B680293029B2361801A0BF09AF915
:103FB00013490BF0A3FA0AF063FD064628460F46A4
:103FC0000AF03CFD02460B46304639460AF0ACFD8D
:103FD0000BF082F80B490BF0DDF90B490BF0DAF925
:103FE00003460146606823600BF0CCF8606005B0C2
:103FF000F0BD2269014BD1E72888FF1FD8CAFF1FF7
:1040000000BA5B4A000020410000883FF8B5114C1F
:10401000A6680546002130460BF050FB18B1284633
:104020000BF060F9064628460BF060F90A490BF0E0
:10403000B1F90A49074630460BF0ACF9014638465B
:104040000BF0A0F8A0602846FFF798FFA0680BF0DF
:10405000A3FBF8BD2888FF1FFA7EAA3EFA7E2A3FFE
:1040600010B50129044680EAE070A0EBE47026D088
:10407000022907D0032903D1012A5AD0022A36D0B7
:10408000002010BD012A3CD0022AF9D1632840F358
:104090008580B0F57A7F80F29A800BF023F96B4926
:1040A0000BF078F908F05CFB0BF076FBC0B28000F7
:1040B00040F00100002CE4DA40F4007010BD012A49
:1040C000DED1092864DD95287DDC0BF00BF95F4912
:1040D0000BF060F908F044FB0BF05EFBC0B240004F
:1040E00040F00100002CCCDA40F0200010BDB0F50B
:1040F0007A7F37DA800080B2002CC2DA40F4805038
:1041000010BD632847DD40F2F54398425DDC0BF0BB
:10411000E9F84E490BF03EF908F022FB0BF03CFBAE
:10412000C0B2400040F00100002CAADA40F48070D8
:1041300010BDB0F57A7F34DBB0F5205F59DA0BF0B3
:10414000D1F842490BF026F908F00AFB0BF024FBEA
:1041500080B2400040F0010080B2002C91DA40F4BF
:10416000006010BD42F20F7398421DDD384B98423B
:1041700042D80BF0B7F837490BF00CF908F0F0FA19
:104180000BF00AFB80B2800040F0020080B2B3E77F
:10419000400080B2A6E7400080B2C5E7800080B250
:1041A00088E7400080B2D8E70BF09CF827490BF075
:1041B000F1F808F0D5FA0BF0EFFA80B2800040F089
:1041C000010080B298E71F208CE7FF20ACE742F2A5
:1041D0000F73984222D80BF085F81E490BF0DAF8DD
:1041E00008F0BEFA0BF0D8FAC0B2800040F002002E
:1041F00060E740F2FF70B0E7B0F57A2F1FD20BF006
:1042000071F815490BF0C6F808F0AAFA0BF0C4FAD9
:1042100080B2800040F0030080B26DE70F4B9842FF
:1042200010D80BF05FF80C490BF0B4F808F098FACE
:104230000BF0B2FAC0B2800040F003003AE740F65B
:10424000FF7059E740F2FF1034E700BFCDCCCC3D02
:104250009F8601000AD7233C6F12833A17F00100B2
:104260002DE9F047324B334F1B780F2B80468946A0
:1042700006D9FF2B56D0304B0F241C70A64602E007
:104280002D4A9E4613702D4A2D4B12682D481C78DE
:104290002D492E4E2E4D80FB0230D217C2EB6010FE
:1042A00004F003038842C4F3810433702C7031DDC1
:1042B000284E08463160284A128840F2F645AA4244
:1042C00003D8264DA5FB0225ED0802221B0143EA77
:1042D0008433114643EA0E04FFF7C2FE01228246F0
:1042E00002212846C6F800A0FFF7BAFE1C4A1D4D61
:1042F0008101034601F47F514FEA8A5002400C438A
:104300001443494640463C602B800022BDE8F047FC
:10431000FDF7ACBB144A0F4E9042AEBF3060326026
:104320001046C8E7044B002296461A70ABE700BF60
:104330007096FF1F18B4FF1F259AFF1F04B9FF1FB7
:104340005288FF1F1F85EB5118F0010063CAFF1F41
:1043500072B9FF1F34B4FF1F1098FF1FCDCCCCCC17
:104360000000C07F2AB4FF1FE80FFEFF194AF8B50E
:10437000194B05461088B3F900400E460AF0B6FF07
:1043800016490BF007F808F0EBF90BF0DFF9012202
:104390000221FFF765FE124A4002128800F4FF3343
:1043A000C4F308041C43570411230022012000FA1F
:1043B00003F10133202B42EA0102F8D13A40094FC0
:1043C00042EA0403314628463B600022BDE8F8403B
:1043D000FDF74CBB709BFF1FC496FF1FCDCCCC3D9F
:1043E000DC99FF1F18B4FF1F2DE9F04FC24EC34ADE
:1043F0007368DFF84083C24FC24DDFF83C93C24C74
:104400008FB083461846002313600B91BF490BF011
:1044100075F8BF490AF0BEFF0346C8F8003030689F
:10442000BA4900930BF06AF8B9490AF0B3FF06469F
:10443000B64978682E600BF061F8B5490AF0AAFF1A
:104440008246B2493868C9F800A00BF057F8B04965
:104450000AF0A0FF009B07461946276050460AF065
:104460008FFE0AF00DFBCDE9020108F035F9CDE928
:10447000040138460AF004FB02460B46CDE9082346
:1044800008F0E0F8CDE9000130460AF0F9FA0646F6
:104490000F4608F0D7F8DDE90823CDE906011046FC
:1044A000194608F019F902460B4630463946CDE95F
:1044B0000C2308F011F9CDE90801DDE9020108F04B
:1044C000C1F8DDE90C23CDE90201DDE906010AF0BE
:1044D0002BFBDDE9082306460F46DDE900010AF063
:1044E00023FBDDE902230AF01FFB02460B463046A0
:1044F00039460AF065F9DDE9002306460F46DDE995
:1045000004010AF011FB32463B4608F0A5F90AF017
:10451000E3FD7E49CBF8A4000AF03CFF7C490AF099
:10452000EDFF002106460BF0D3F8002840F008818B
:10453000CBF8A86030460BF009F983B2A3F1B400C0
:1045400000B20028BCBF03F1B40000B2B0F5B47FE4
:10455000A8BFA0F5B4706F4BDFF8E0A1A8BF00B210
:1045600018800AF0C3FE6C490AF014FF0BF0EEF855
:1045700024682D68AAF80000294620460AF000FEAB
:10458000D8F80010CBF8B4000746D9F800000AF0BC
:10459000F7FD4FF07C510646CBF8B80038460AF0DC
:1045A000F9FE0AF06DFA08F097F8CDE900013046FF
:1045B0004FF07C510AF0EEFE0AF062FA08F08CF837
:1045C0008046284689460AF05BFA08F03BF8064622
:1045D00020460F460AF054FA08F034F842460446E2
:1045E0000D464B46404649460AF09EFA32463B4647
:1045F0000AF09AFA22462B460AF096FADDE90023E1
:1046000004460D46104619460AF08EFA02460B463D
:10461000204629460AF0D6F80AF05EFDCBF8A40041
:104620000AF02EFA08F01AF908F0BEF80B46024616
:104630000AF0C8F80AF050FD3849CBF8AC000AF08F
:10464000A9FE374BCBF8B0001B78002B52D00BF0F3
:104650007DF880B20AF046FE08F082F80BF076F89A
:10466000304B314E1B68032186FB0326DB170222E9
:10467000C3EB6616FFF7F4FC2C4A002336B2108019
:104680001C46012101FA04F201340C2C43EA020316
:10469000F8D11A4A12680340304643EA02050AF08C
:1046A00025FE08F05DF80BF051F803210222FFF718
:1046B000D7FC1F4B00B2188006030023012101FA2A
:1046C00004F20134182C43EA0203F8D133402B439F
:1046D0000028BAF90050094C0B99B8BF43F0807319
:1046E00043EA45635846002223600FB0BDE8F04F0F
:1046F000FDF7BCB91846B3E7149AFF1F18B4FF1FA3
:10470000C4B8FF1F0896FF1F0C96FF1F000034431C
:10471000DB0F49402A98FF1F4CA6AA3E706DC24A83
:1047200062CAFF1FA8CAFF1F1F85EB51AC96FF1F6F
:104730005096FF1F7896FF1F7C96FF1FC096FF1FA5
:10474000304602490AF01EFD0646F1E60000B44379
:10475000334B2DE9F04705460E4618683149324C77
:104760000AF018FE314B2F49074618680AF012FE6E
:104770002F4B8246B3F9000000EB800040000AF0A6
:10478000B5FD0021814638460AF0A2FF00283846D0
:1047900014BF4FF480784FF0000807F0E1FF0AF0F3
:1047A000D5FF01220221FFF75BFC07460AF09AFDC4
:1047B0002060504607F0D4FF0AF0C8FF0122022112
:1047C000FFF74EFC04460AF08DFD1A4B4FF07C516A
:1047D000186048460AF0DEFD174B18600AF0DCFF4F
:1047E000FFB2640247EA080704F4FF3444EA07080A
:1047F000124F002240041123012404FA03F1013373
:104800001C2B42EA0102F8D1024042EA0804314678
:1048100028463C600022BDE8F047FDF727B900BFFD
:10482000009AFF1F00002041A499FF1FB496FF1FAC
:10483000069EFF1FA099FF1F6C96FF1F18B4FF1F55
:10484000304B2DE9F04105460E4618682E490AF016
:10485000A1FD2E490AF096FC0AF09EFF2C4A2D4B32
:10486000294987B21F8010680AF094FD2A490AF08E
:1048700089FC0AF091FF294A294B2A491FFA80F83E
:10488000A3F8008010680AF085FD07F069FF0AF0C0
:1048900083FF254B80B2002218800124134604FABE
:1048A00003F101330B2B42EA0102F8D107EA020EB1
:1048B0001C464FEAC82700234FF0010C0CFA04F104
:1048C0000134152C43EA0103F8D13B4001220321B6
:1048D00043EA0E07FFF7C4FB2346400500220124EC
:1048E00004FA03F10133202B42EA0102F8D102401D
:1048F0000E4B1743314628461F600022BDE8F041A9
:10490000FDF7B4B85496FF1F0000A04000006144BA
:104910009499FF1F5ACAFF1F0000E143B0CAFF1F4E
:104920002498FF1F0000C842809BFF1F18B4FF1F80
:10493000F8B51D4B1D4C1B881D4A1E4EA4FB0334AD
:1049400064091480054630880E460AF0CFFC1A49E7
:104950000AF020FD07F004FF0AF0F8FE0122022110
:10496000FFF77EFB154B164A18801288430203F4AA
:10497000FF33C4F308041C43570411230022012011
:1049800000FA03F10133202B42EA0102F8D13A4048
:104990000C4F42EA0403314628463B600122BDE841
:1049A000F840FDF763B800BF8699FF1F1F85EB51E4
:1049B000DEB8FF1F3E96FF1FCDCCCC3D7496FF1F87
:1049C0006296FF1F18B4FF1F2DE9F04F514B524E56
:1049D000524A534D534CDFF874B1534F12681B8841
:1049E0003688DFF86C81ABF8003083B000233A6082
:1049F00026808146B5F90000C8F800308A460AF0E2
:104A000075FC4A4A4A4B05461D6010880AF06EFC48
:104A100048490AF0BFFC484A034619461360284635
:104A20000AF0AEFB0AF092FE00B20AF05FFC4349C6
:104A300007F070FF002105460AF04AFE00285DD10C
:104A400028460AF083FE3E4B3E4D163083FB002382
:104A50000344C017C0EB63100540002D54DB3A4BF4
:104A600024881D7000221646012000FA06F1013646
:104A70000A2E42EA0102F8D1D8F80030BBF8000053
:104A8000019314400AF02EFC07F06AFE0AF05EFE65
:104A900002220321FFF7E4FA3346ABF800000022BC
:104AA0004FEA802B4FF0010E0EFA03F10133162B63
:104AB00042EA0102F8D138680BEA020B07F050FE17
:104AC0000AF044FE01221146FFF7CAFA06460AF030
:104AD00009FC019B386043EA45752C43B30544EA61
:104AE0000B0403F07C631C43514648460122C8F87E
:104AF000004003B0BDE8F04FFCF7B8BF28460F49AF
:104B00000AF040FB05469BE7013D65F007050135CE
:104B1000A5E700BF0C9AFF1F28B4FF1FD4B8FF1FE2
:104B2000449AFF1FD499FF1F5499FF1FB299FF1F8A
:104B3000E8B2FF1F0AD7233C24B4FF1F0000B44390
:104B4000B7600BB6070000807796FF1F60CAFF1F93
:104B500018B4FF1FF8B5184B184C06460F461868D6
:104B600017490AF017FC07F0FBFD0AF0EFFD0222DF
:104B70000321FFF775FA134B1349B3F90030B3FA69
:104B800083F500B26D09002220800D7013460124C8
:104B900004FA03F101330D2B42EA0102F8D102407D
:104BA0000A4C42EA45333946304623600122BDE8CB
:104BB000F840FCF75BBF00BF3496FF1F469AFF1F0B
:104BC00000002041B699FF1F01B9FF1F18B4FF1F55
:104BD0002DE9F843264BDFF8B49006460F461868D7
:104BE00024490AF0D7FB2449244B254A0C881C8011
:104BF0002049054610680AF0CDFB8046284607F09C
:104C0000AFFD0AF0A3FD01220221FFF729FA0546B4
:104C10000AF068FBC9F80000404607F0A1FD0AF061
:104C200095FD02220321FFF71BFA240204F4FE443F
:104C3000EDB2254304460AF055FB124B4FEAC43E41
:104C4000186000220F23012404FA03F101331B2B07
:104C500042EA0102F8D10EEA02020B4B1543394633
:104C600030461D600122BDE8F843FCF7FFBE00BFDF
:104C7000EC99FF1F000020415899FF1F4C96FF1F21
:104C80002C9AFF1FBCCAFF1F18B4FF1F5C9FFF1F99
:104C9000013808281DD8DFE800F00507090B1214B9
:104CA00016181A0000207047012070470220704734
:104CB0000139C9B208290ED8084B585C7047032047
:104CC0007047042070470520704706207047072072
:104CD00070470B2070471F20704700BFBC52010077
:104CE0002DE9F84F564B1B78062B00F0A780554B4B
:104CF000554A1B78554C1278DFF8A08106464FEADA
:104D0000E31953485FFA89F30F46524903700020B4
:104D100023700870002A73D14F4B504A1B78002B28
:104D200000F086804E4B15781D704E4C4E484F4912
:104D30004F4A504B94F800A0047882F800A00888ED
:104D40001C700AF0D3FA4C490AF024FB0021834678
:104D50000AF0D2FC002863D04FF07C5158460AF08C
:104D600011FA0AF0F3FC40B26FF03E039842B8BF6C
:104D700018463F28A8BF3F2080EAE0710028A1EB39
:104D8000E07147DB3D4B89B219803D483D4A3E4BBF
:104D900090F800E010781A7840024FEA8E2E00F466
:104DA000007312030EF4406E4EEA030E374802F40D
:104DB00080534FEA4A3A0AF4005AA4034EEA030326
:104DC00004F4804290F800E0314C43EA0A031343B4
:104DD00043EA8E6343EAC91305F01F05C90443EA99
:104DE000092301F07E722B43134384F800E0394617
:104DF0003046C8F800300022BDE8F84FFCF736BE58
:104E0000244B254A18781178FFF742FF144B0546CA
:104E100018708AE741F04001184BC9B21980B4E715
:104E20004FF07C5158460AF0ABF90AF08FFC9AE734
:104E300015680B4B0135EDB21D7076E7BDE8F88FB4
:104E4000E499FF1FE0B8FF1FE4B2FF1F8196FF1F28
:104E500002B9FF1FD699FF1F4996FF1F509DFF1FE4
:104E6000F499FF1FEB99FF1F0E9AFF1F5899FF1F20
:104E70009C9DFF1F3A96FF1FAE47213F4C96FF1F98
:104E8000829BFF1F9899FF1F5A99FF1FF299FF1FDE
:104E90004F96FF1FD496FF1FF099FF1F18B4FF1FF6
:104EA00070B545F20604A14200F086800B4615D984
:104EB00045F20B04A1427BD030D845F20804A14250
:104EC00028D06FD345F20902914267D045F20A0219
:104ED000914279D1BDE87040FDF726B8154645F2FC
:104EE000010291426CD02AD945F2030291420DD0C1
:104EF000C0F0828045F20402914279D045F2050269
:104F0000914261D1BDE87040FFF722BCBDE870401E
:104F1000FFF72CBABDE87040FFF70ABD45F2F20278
:104F2000914237D01BD945F2F302914216D04FF28D
:104F30000112914248D1BDE87040FDF767B94D2993
:104F40000CD009D9B1F5006F11D0B1F5A04F3BD10C
:104F5000BDE87040FCF7A4BE162935D170BD45F2FE
:104F6000F102914230D1BDE87040FDF729B8002D23
:104F700048D0012DF2D12A4B2A4A1B78032B28BF97
:104F80000323032B1370E9D14FF40061BDE8704097
:104F9000FCF73ABEBDE87040FFF71ABEBDE87040AE
:104FA000FFF712BD45F20701BDE87040FCF736BFC0
:104FB000BDE87040FFF7CEBDBDE87040FFF740BCD4
:104FC000BDE87040FFF78CBE1C461021164806F065
:104FD00001FD214600231022144806F0BDFF0821E0
:104FE000134806F0F7FC1148BDE8704006F08EBF8C
:104FF000BDE87040FFF7F8B945F20201BDE8704026
:10500000FFF72EB9064B074A1B78032B28BF032353
:10501000032B1370A2D1BDE87040FCF78BBD00BF1D
:105020005288FF1F63CAFF1F70560100488AFF1F86
:10503000845601002DE9F041364C374B374F384E3E
:10504000384DDFF8F8E007CCC3F81100C3F81510AD
:1050500003CFC3F82F00C3F8331003CE3F78C3F853
:10506000192083F8377003224FF46147248836886B
:105070009A70DF6001220027C3F843004FF0020856
:105080000920A3F81D40A3F84B605A70DA701A7219
:10509000C3F847101F719F71DF715871187483F83E
:1050A000098003CD204EC3F86100C3F8651003CE1C
:1050B0003688A3F87D602E88A3F869601B4C1C4ECF
:1050C000C3F875003688C3F8791007CCAD78A3F81B
:1050D0008A60184E83F86B50174D3688BEF800E092
:1050E0002D88A3F890602688A47883F89280A3F88E
:1050F0008CE0A3F88E50C3F89300C3F89710C3F860
:105100009B20A3F89F6083F8A14083F8A970BDE8B5
:10511000F08100BF20570100E096FF1F30570100CB
:105120003C570100485701005457010060570100E7
:105130004C88FF1F0088FF1F4E88FF1F5488FF1FE9
:10514000F0B591F8685B0C46CBB00646D1F8601B11
:10515000DDB101F22317C4F8607B01A840F22312ED
:1051600004F0ACF904F65E339F4205F1FF3528BF29
:10517000C4F8604B84F8685B01A940F22312304602
:1051800004F09CF930464BB0F0BD40F2231204F01D
:1051900095F930464BB0F0BD2DE9F041DFF81481B0
:1051A0003A4E3B4D3B4C3C4F84B04046002106F00C
:1051B0005BFF32462946404609F0F8FA20460021B6
:1051C00006F052FF32462946204609F0EFFA334DE9
:1051D000334B02930024334A01924FF0FF33009384
:1051E0003846314BC5F8605B40228021C5F8645BCE
:1051F00085F8684B03F060F9324638462B4909F0D0
:10520000D5FA2B4B012210211C705C709C70DC7055
:105210001C715C719C71DC719C60DC601C611C7594
:105220009C61DC611C6283F824409C6283F88640A8
:10523000A3F88840A3F88A40A3F88C4083F88E40F6
:1052400083F88F4083F8904083F89A4083F8BC40FD
:1052500083F8BD4083F8BE40C3F8C040A3F8C44003
:1052600083F89D10C3F8A02083F8C64083F8C74098
:1052700083F8F820A3F8FA40C3F8FC4AC3F8004BBF
:10528000C3F8044B04B0BDE8F08100BFFC87FF1FEA
:10529000E9BF00008896FF1F0CB9FF1F609FFF1F2A
:1052A000A0860100801A06005888FF1F11850000A3
:1052B0007CB9FF1F349AFF1F70B5214C2378012B56
:1052C00006460D4603D0FEF75FFD012323701D4CFB
:1052D000204603F049FC1C4B1A780023072AE3817F
:1052E000238222D8B5FA85F56D0976B2B54217DA70
:1052F0002AB202EB8204154B02EB440403EB440494
:1053000020460BF03DFB214602460E4806F0C2FD4A
:1053100001350C4806F0FAFDB54204F11604EFD150
:105320000848BDE8704003F02BBD1DB9F51F6DB2F4
:1053300076B2DBE7A6F108056DB276B2D6E700BF1C
:1053400058CAFF1F0CB9FF1FFE99FF1FD8C4FF1FCB
:1053500010B52149214A0B68146882B00093009B64
:105360001B1BB3F5967F1AD30B68019301991C4B55
:105370001160012290421A7013D002280FD1194BEC
:10538000194A187812780130C0B207281DD80820B1
:10539000164A1870002301211370FFF78DFF02B029
:1053A00010BD104B104A187812780138C0B2072887
:1053B0000FD9904228BF10460D4A187000230121D2
:1053C0001370FFF779FF02B010BD904228BF10465E
:1053D000DEE70820F0E700BFD8CAFF1F7CCAFF1F26
:1053E0005188FF1FE899FF1FFE99FF1FB896FF1F06
:1053F000E999FF1FF0B5624C2378022B89B003D0E6
:10540000FEF7C2FC022323705E495F4A0B680693D5
:10541000069B10681B1AB3F5FA6F40F2AF800B6859
:105420005A4C5B4F07930025079B13603868E58152
:10543000258209F025FB0826CDE90001554A56488A
:1054400020210AF0FDFF42232A461821204601951B
:10545000009602F0E3FB50480BF092FA4E490246E8
:10546000204606F017FD204606F050FD7868E581DD
:105470000E27278209F004FB484ACDE900012021CC
:1054800045480AF0DDFF42233A461821204601959F
:10549000009602F0C3FB40480BF072FA3E49024608
:1054A000204606F0F7FC204606F030FD3C4BE58137
:1054B0001C271888278209F019FF3A4909F06AFF6A
:1054C00009F0DEFACDE90401374B188809F00EFF28
:1054D000364909F05FFF09F0D3FACDE90201344BF8
:1054E000B3F9000009F002FF304909F053FF09F059
:1054F000C7FA304ACDE90001202127480AF0A0FF71
:1055000080233A46294620460195009602F086FB04
:1055100021480BF035FA20490246204606F0BAFC35
:10552000204606F0F3FC244A244B12681B781A48E4
:1055300000922B27224AE581202127820AF080FF52
:105540003A46204612231E210195009602F066FB82
:1055500018233A46482120460195009602F05EFB4A
:105560000D480BF00DFA0C490246204606F092FC5D
:10557000204606F0CBFC204603F002FC09B0F0BD4B
:1055800058CAFF1FD8CAFF1FECB8FF1F0CB9FF1F76
:10559000C4B8FF1F985701006499FF1FA45701006A
:1055A000DC99FF1F6F12833A709BFF1FCDCCCC3D5F
:1055B000C496FF1FB0570100B8CAFF1F7096FF1FA7
:1055C000C45701002DE9F0413F4C237888B01BB14E
:1055D0003E4D2F78002F3CD03D4A3E4B10683E494F
:1055E0001A680492049A121AB2F57A7F03D93748DE
:1055F0000022027022701B68384C05932268059BBC
:10560000344D9B1A43F69822934243D92B68069354
:10561000069B236000230B70FFF7ECFE0B2004F0C9
:1056200085F92F4BB0FA80F0400918701B78002BD9
:1056300045D10C2004F07AF92A4BB0FA80F04009E9
:1056400018701B7813B10220FFF782FE08B0BDE886
:10565000F081204B20491A68029202981C4A1E6869
:105660000196DFF888C0204E91F800E0DDF8048054
:1056700010600122C6F800808CF800202A70BEF16C
:10568000000F1AD01A680392039A0F7002F57A720B
:105690003260A5E70B78002BBED0144E3378002B78
:1056A000BCD0134B01211878FFF706FE2B68079337
:1056B000079B236000233370B0E70A7090E7012056
:1056C000FFF746FEB5E700BFCC99FF1F869BFF1F83
:1056D000F899FF1FD8CAFF1F5188FF1F989DFF1F11
:1056E000E999FF1FB896FF1FECB8FF1F20B4FF1FFA
:1056F000FE99FF1F2DE9F04F444C454E2378012BB6
:1057000083B081466BD0FEF73FFB012330782370D6
:105710000021FFF7D1FDD9F8004020460BF030F909
:1057200080B2152862D80746002867D0DFF800B19C
:10573000DFF800819BF8004000252946484696F88E
:1057400000A006F05BFD9BF800300178162202FBFA
:105750000A82013301351155BD42DCB28BF800409D
:10576000EBDB152C31780AD8162202FB01820025CA
:10577000631C1555DCB2162CFAD18BF800401624A8
:1057800004FB018840460BF0FBF8414602462148E5
:105790001F4D06F07FFB1F4806F0B8FB1D4803F0C5
:1057A000EFFA33780133DBB200223F2B33708BF8F2
:1057B000002008D92146184806F00CF9174806F0D1
:1057C000A5FB3F232B70164B164A1B6801930199CA
:1057D000154B116001221A7003B0BDE8F08F3078CC
:1057E000072898D90021FFF767FD94E72346152283
:1057F0000E490A4806F0A2FB152797E7DFF830B0FC
:10580000DFF830809BF80040ABE700BF58CAFF1FAD
:10581000FE99FF1F0CB9FF1FD8570100488AFF1FD0
:10582000D8CAFF1F989DFF1F5188FF1F70570100A6
:10583000309AFF1FD8C4FF1F10B5037942799A42EE
:1058400084B0044612D043714BBB14211E4806F0AD
:10585000C1F81E4806F05AFB1D49684606F004FCD4
:105860006846FFF747FF684606F0BEFBA379E2797A
:105870009A4212D0E371E3B90E21164806F0AAF855
:10588000124806F043FB1349684606F0EDFB6846F4
:10589000FFF730FF684606F0A7FB04B010BD1121EA
:1058A0000D4806F097F8094806F030FB68460B49AA
:1058B000D4E70B210A4806F08DF8044806F026FBD1
:1058C00068460749E1E700BF14580100488AFF1FF6
:1058D0002C58010048580100F057010004580100FD
:1058E0003C58010010B5154BC4681A6884B041F2E9
:1058F00088310192019A121B8A4203D90022C27098
:10590000027182711A680292029A846841F28831A7
:10591000121B8A4202D90022027182711B68039312
:10592000039B016941F288325B1A934284BF0023D2
:105930008371FFF781FF04B010BD00BFD8CAFF1FFD
:1059400030B590F8993083B0044653B3D0F8942022
:10595000137883F020031370B0F88C30002280F8A5
:1059600099204BB92046FFF7BDFF04F037FC80B209
:10597000A4F88C000028F5D00C4B1B680193019B08
:10598000E3600123E37004F039FCB4F88C30013B90
:105990000546A4F88C30002003F0FEFFE8B203B007
:1059A00030BDB0F88C30002BDCD0E5E7D8CAFF1F43
:1059B00038B590F89930044643B1D0F89420137864
:1059C000002183F02003137080F8991004F006FC86
:1059D00080B20928A4F88C0001D8002038BD2046E8
:1059E000FFF7AEFF1E4A13787E2B1CD07E2811D005
:1059F000A3F10D01C9B216291AD9082B15D11A28FD
:105A000013D818490B7801335BB20A2B0B700CDDED
:105A1000022038BD14490B7801335BB20A2B0B709E
:105A200003DD032038BD7E280CD01070002038BD67
:105A30000E4B23FA01F1CB07F7D5FF28E1D0F1286F
:105A4000DFD0F2E70A4D084C2B78217801335BB2A6
:105A500001390A2B2B702170E7DD012038BD00BF12
:105A6000C0CAFF1F2798FF1FEA99FF1F01084000C7
:105A70002698FF1F70B590F8993082B004460D4605
:105A800043B1D0F894201378002183F020031370E1
:105A900080F8991000260EE07E2812BFB4F8C430BA
:105AA000A4F8C4600023E854B4F8C43084F8BD00FE
:105AB0000133A4F8C43004F091FBF8B12046FFF79D
:105AC0003FFFB4F8C4302F2B84BF03F1FF33A4F899
:105AD000C43094F8BD307E2BDED11B28DCD1084BBE
