:1000000000800020BD010000255B0000DD5A0000DB
:10001000DD5A0000DD5A0000DD5A0000DD5A000004
:10002000DD5A0000DD5A0000DD5A0000255B0000AB
:10003000255B0000DD5A0000DD760000E17700005E
:10004000255B0000255B0000255B0000255B0000B0
:10005000255B0000255B0000255B0000255B0000A0
:10006000255B0000255B0000255B0000255B000090
:10007000255B0000255B0000255B0000255B000080
:10008000255B0000255B0000255B0000255B000070
:10009000255B0000255B0000255B0000255B000060
:1000A000255B0000255B0000255B0000255B000050
:1000B000255B0000255B0000255B0000255B000040
:1000C000255B0000255B0000255B0000255B000030
:1000D000255B0000255B0000255B0000255B000020
:1000E000255B0000255B0000255B0000255B000010
:1000F000255B000029600000255B000071630000A3
:10010000255B0000FD780000255B0000255B0000FA
:10011000255B0000255B0000255B0000255B0000DF
:10012000255B0000255B0000255B0000255B0000CF
:10013000255B0000255B0000255B0000255B0000BF
:10014000255B0000255B0000255B0000255B0000AF
:10015000255B0000255B0000255B0000255B00009F
:10016000255B000031660000255B0000255B000078
:10017000255B0000255B0000255B0000255B00007F
:10018000255B0000255B0000255B0000255B00006F
:10019000255B0000255B0000255B0000255B00005F
:1001A000255B0000255B0000255B0000255B00004F
:1001B000255B0000255B0000255B0000564B4CF2E0
:1001C000205210B51A804DF628121A8000BF00BFC9
:1001D00005F0ACFC514B4FF010621A60504A9A6027
:1001E000504ADA60504A136813F4807304D14F49BF
:1001F0000B604FF4A85313604D4B1A78110703D5C9
:100200001A7842F008021A704A4B4B492A221A7097
:100210004A4A4B4B8B4204D252F8040F43F8040B6A
:10022000F8E7484B484900228B4202D243F8042B9E
:10023000FAE74649464A002352F8230041F82300D2
:1002400001336F2BF8D1434B434A802103F8011B44
:100250009342FBD1414B3D4A1A60414B8A221A70AE
:10026000A3F5805324225A70A0221A709A7992071B
:10027000FCD59A79D406FCD43A4A937903F00C035E
:10028000082B384BF9D103221A7140225A719A79FE
:100290009006FCD5334A9179324B4906FBD5324A58
:1002A000324911600221516020221A709A7902F0BD
:1002B0000C020C2AFAD12E4B2E4A1A602E4B2F4AD2
:1002C0001A6000225A60072243F8042C2C4AC3F813
:1002D0000C2D62B605F056FD144B1B68DA0705D5E8
:1002E000284805F0E3FC284B284A1A60284B1B7865
:1002F0005B0609D5244C254B22689A4204D121483B
:1003000005F0D4FC002323600AF072FC05F014FC15
:1003100005F042FBFEE700BF0E20054030800440A0
:10032000823F04000100002B10D0034014D0034092
:1003300002D0074000E007407490FF1F74D5000012
:100340002087FF1F7890FF1F88BBFF1F0082FF1FC1
:100350000000000000E400E05FE400E008ED00E0E1
:100360000050064000400640448004400000030165
:1003700004800440C010050014E000E0FF76010096
:1003800000002020B06F285D1CE00340A5C3945AF4
:1003900000F00740FFFFFFFFFFFFFFFFFFFFFFFF32
:1003A000FFFFFFFFFFFFFFFFFFFFFFFFFFFFFFFF5D
:1003B000FFFFFFFFFFFFFFFFFFFFFFFFFFFFFFFF4D
:1003C000FFFFFFFFFFFFFFFFFFFFFFFFFFFFFFFF3D
:1003D000FFFFFFFFFFFFFFFFFFFFFFFFFFFFFFFF2D
:1003E000FFFFFFFFFFFFFFFFFFFFFFFFFFFFFFFF1D
:1003F000FFFFFFFFFFFFFFFFFFFFFFFFFFFFFFFF0D
:10040000FFFFFFFFFFFFFFFFFFFFFFFFDEF9FFFF23
:1004100010B5054C237833B9044B13B10448AFF33E
:1004200000800123237010BD7890FF1F00000000A2
:1004300078D50000084B10B51BB108490848AFF348
:1004400000800848036803B910BD074B002BFBD0A0
:10045000BDE81040184700BF000000007C90FF1F5F
:1004600078D500007490FF1F00000000044B054980
:100470001A68137843F0200313700870704700BFA8
:10048000CCB6FF1F88B8FF1F2DE9F0413E4D3F4B12
:10049000AA78EC780021FE2A19705CD0012C0BD9C7
:1004A0002B19DB7A13B107E0DB7A2BB9013CE4B2FC
:1004B000012C05EB0403F7D1AB68354E324F327097
:1004C000C3F317231A121814A97995F8048095F824
:1004D00005E03272F371EA792B7A707231717271C0
:1004E00007F10C01224606F10A00747086F803E059
:1004F000B37186F8028005F057FA04F10A0118F08A
:10050000010F06EB010210D109212888107000129A
:10051000507000231944033121441E4B1C4889B2FA
:10052000BDE8F041198005F07BBE3B887354D7F8D5
:1005300016E1D7F81A61D7F81E5197F82201C2F8D0
:1005400002E01B125370C2F806600D23C2F80A5075
:1005500090730921DEE7AB680D4EA97995F807E0A5
:100560002F7A3270C3F317232246B170B01D05F104
:100570000C017371747086F803E0377105F014FA9A
:10058000A21D32440521C0E74CB7FF1F50ADFF1F2D
:100590003C92FF1F9C90FF1F30B5244C94F8683BA1
:1005A0000A2BCBB0224B34D02249002540F2231233
:1005B00001A81D7005F0F8F9D4F8643B04F65E3527
:1005C00003F22313AB42C4F8643B08BF234601A9DE
:1005D00040F22312184608BFC4F8644B05F0E4F952
:1005E00094F8682B11490A2A034607D0501C81F859
:1005F000680B0AB9C1F8603B4BB030BDD1F8603B25
:1006000003F22313AB4208BF0B46C1F8603B4BB06B
:1006100030BD0122232108481A7006F09FFE0748CA
:100620004BB0BDE8304005F09DB800BFC499FF1F36
:100630007EB8FF1FA893FF1F00C100007887FF1F2F
:100640002DE9F04FADF50F7D05F04EFE002838D0B6
:1006500005F05AFEAE4BC1B20391DB78AC490022E3
:100660000A700F2B00F2BF81DFE813F0B201B20174
:100670009401880171015A013B0124010401E30046
:10068000BF009F005700300030001000A04BA14A6F
:100690005B7B049211465E1E9D4A9DF80C00CB1AAE
:1006A000F6B2567383F82301002E00F03582CA7823
:1006B0009949CA70964A0023937005F015FE0028E8
:1006C000C6D101200DF50F7DBDE8F08F0E2B914BAB
:1006D000049305D01B88039AB2EB132F00F0828697
:1006E0008B4A02231370049A9DF80C10137982F838
:1006F000151113F0010F8749854B00F0D58184480F
:100700001B780F22C270022B4FF00D02427300F0D3
:10071000A0860023CA780370CAE77E4B04939C68C6
:100720007E4DF220C4F317240346982200210AE0EC
:10073000581E43185A1C5208884202EB420240F2EB
:100740008E8155F82220013394424FEA5303EFD3B0
:100750001946EED8944200F07B8100210B46049CA0
:100760002088434083EA0313DBB2DA0082EA0322E3
:1007700082EA102282EA1313DAB22380039B9A42A0
:1007800000F01A86624B0E22DA70049B9DF80C2052
:1007900083F814215F4C29B15D4B8A791B79934210
:1007A000C0F00F86049BDA7882E7594B039D1979D4
:1007B000584B574C1E460B4401311D7330882B4655
:1007C000434083EA0313DBB2DA0082EA032282EABF
:1007D0001020F278C9B280EA13139142217133805C
:1007E0007FF466AF0C23E37062E74A4B039A1C88E0
:1007F000624082EA0212D2B2D1001D4681EA022191
:100800009B68000400F47F0081EA142140EA13236E
:1008100081EA1211EA786B72C3F307201B0CA872ED
:10082000EB722980002A00F0208139490B23CB701C
:100830003EE7384B039A1C88624082EA0212D2B229
:100840001D46D1009B68000200F47F4081EA02212E
:1008500040EA132381EA142181EA1212190CE97289
:100860002B496B72C3F307200A232A80A872EA7807
:10087000CB701DE72749264B08881C7B039B4B72D6
:10088000434083EA0313DBB2DA0082EA032282EAFE
:10089000102282EA13130020E2070B808872C872CC
:1008A0001B4B40F1FD80CA78002A00F02B810B2100
:1008B000D970FDE6174B19881C461846039B037236
:1008C0004B4083EA0313DBB2DA0082EA032282EAB6
:1008D000112282EA131323800D4BE2780821D9708C
:1008E000E6E60C4B19881C461846039BC3714B4027
:1008F00083EA0313DBB2DA0082EA032282EA1122DE
:1009000082EA13132380024BE2780721D970CFE6E5
:1009100058ADFF1FF094FF1FA893FF1F24C60000CF
:100920009A4B19881C461846039B83714B4083EAF7
:100930000313DBB2DA0082EA032282EA112282EA9E
:1009400013132380924BE2780621D970B0E68F4BC7
:1009500019881C461846039B43714B4083EA0313D6
:10096000DBB2DA0082EA032282EA112282EA13135E
:100970002380874BE2780521D97099E6834C9DF856
:100980000C30237110F0FE0F73D08149E2780123FF
:10099000CB708DE67D497E4B039D08881C7BCD7016
:1009A0002B46434083EA0313DBB2DA0082EA0322D8
:1009B00082EA102282EA13130B80754B0022E007B3
:1009C0001A7169D505200A714A71D8702A466FE6F6
:1009D000039BFD2B00F0DB84039BFE2B00F0FB84CC
:1009E0006A4BDA7864E6694B04931A46694BD2780D
:1009F000DA70674B00249C70A31E012B16D9002CC3
:100A00003FF422AEFFF7C8FD1EE6624A9DF81410BF
:100A1000D1705F490023022C8B70EDD1049890F8BF
:100A2000151190F8143143EA0123138003985849B3
:100A300001230022FD288B700A7001D0CB7003E6E1
:100A4000049D02204FF6FF73EA70C8702B80FBE50F
:100A5000514B01EB410103EB81010B797FE64E4BDA
:100A600001EB410253F8222074E649490C23CB7074
:100A70001EE62088039BE278434083EA0313DBB23F
:100A8000D90081EA032181EA102181EA131323802E
:100A90003F4B0421D9700BE60321039AD97007E676
:100AA0000920CA78D87003E61B693BB11B6B002B89
:100AB0002BD089683648090A984730B3344B1C78E4
:100AC000334D324933480123EB7040F2231204F0D6
:100AD0006BFF049BDB780593012C96D12C4B049A79
:100AE0002B491B8992794A7103B94B8128482949BE
:100AF00001330022038182709DF81430CB70FFF720
:100B00004BFDA1E50C21D970D2E5214B1C78022CBC
:100B1000D6D003241C70D3E71369526910931D4685
:100B20001192002B00F08E8455F8100F1B4C379457
:100B30001B4C6968AA68EB681A4F38941A4C3D94AC
:100B40003A97DFF870E0194FDFF86CC03C973EAC85
:100B5000CDF8ECC0CDF8E4E00FC4049B2869DA7846
:100B60006969EB6905921746AA6935963D460A35CB
:100B70000FC4049B0295ED0005F580750C4E36966A
:100B800002333495069320241CE000BFF094FF1F2D
:100B900058ADFF1FA893FF1F24C6000085AE67BB9A
:100BA00072F36E3C7F520E5119CDE05BABD9831FBF
:100BB00067E6096A3AF54FA58C68059B029B002BF6
:100BC00000F0CD80029D069EC4F14003AB4228BFD9
:100BD0002B46ED1A02953EA8354620441D441C4480
:100BE0001A463146069504F0DFFE402CE6D134AAC1
:100BF00022AB92F82B0092F82A101870597092F8D4
:100C0000290092F82810D970987032A904339942BB
:100C100002F10402EDD1369B0793379B0893389B72
:100C20000993399B0A933A9B0B933B9B0C933C9BF8
:100C30000D930DF59A7A3D9B0E93524621AB53F8D6
:100C4000041F42F8041F31A98B42F8D10DF5B67884
:100C50000DF5AC7C0DF59C7E5DAF5646302558F801
:100C6000044F5EF8043F56F8042F5CF8041F4FEA67
:100C7000F440114480EA74404FEAB34280EA942081
:100C800082EAF312014482EAD3030B44013D47F8A0
:100C9000043FE4D10E9ADFF8B892A94BDDF828B0F2
:100CA000DDF820E0099F079EDDF834C0DDF83080D4
:100CB00001920B9D0AE059F8043FCDF804C0BB46F1
:100CC000C4467746A846B646254606464FEAF5226C
:100CD00005EA080182EAB5122CEA050482EA756287
:100CE0004C405AF8041F144421441944019B87EADC
:100CF0000E024FEA7630194402EA060480EAB60092
:100D000007EA0E028F4B544080EAB65020444B4510
:100D100001EB0B040844CED10A99079A39440F46D7
:100D20000B99399721440C460C993A940244294472
:100D300013460D46089A0D9936933244414416469F
:100D40000846099A0E99029B37967244614438927C
:100D50003B953C903D910024002B7FF433AF349CB5
:100D600004F110039C42349300F27C83764B07938A
:100D70000223C4F3C504069303E0069B002B00F096
:100D8000D080069D079EC4F14003AB4228BF2B468E
:100D9000ED1A06953EA8354620441D441C441A46CB
:100DA0003146079504F000FE402CE6D134AA22AB70
:100DB00092F82B0092F82A101870597092F82900B6
:100DC00092F82810D970987032A90433994202F130
:100DD0000402EDD1369B0893379B0993389B0A9305
:100DE000399B0B933A9B0C933B9B0D933C9B0E932F
:100DF0000DF59A7A3D9B0F93524621AB53F8041F91
:100E000042F8041F31A98B42F8D10DF5B6780DF5E3
:100E1000AC7C0DF59C7E5DAF5646302558F8044FEE
:100E20005EF8043F56F8042F5CF8041F4FEAF440C4
:100E3000114480EA74404FEAB34280EA942082EA87
:100E4000F312014482EAD3030B44013D47F8043F07
:100E5000E4D13B4B0F9ADFF8F890DDF82CB0DDF8C9
:100E600024E00A9F089EDDF838C0DDF83480019246
:100E70000C9D02930BE0CDF804C0C446A8461D4665
:100E800059F8043F0293BB467746B64606464FEAFA
:100E9000F52205EA080182EAB5122CEA050482EA85
:100EA00075624C405AF8041F019B144487EA0E02F5
:100EB00021444FEA763002EA060407EA0E0219449A
:100EC0005440029B1F4A80EAB60080EAB65019449B
:100ED00020444A4501EB0B030844CCD10B99089AF6
:100EE00039440F460C99399719440B460D993A939A
:100EF0000244294414460D46099A0E99069B3694DD
:100F000032444144164608460A9A0F99379672446D
:100F1000614438923B953C903D910024002B7FF436
:100F200030AF349C04F138039C42349300F2968233
:100F3000064B07930723C4F3C50406930EE000BFD6
:100F4000982F8A4220C600000496FF1F0696FF1FB6
:100F500024C50000069B002B00F0D080069D079E54
:100F6000C4F14003AB4228BF2B46ED1A06953EA8BC
:100F7000354620441D441C441A463146079504F06A
:100F800013FD402CE6D134AA22AB92F82B0092F844
:100F90002A101870597092F8290092F82810D97008
:100FA000987032A90433994202F10402EDD1369BC4
:100FB0000893379B0993389B0A93399B0B933A9B71
:100FC0000C933B9B0D933C9B0E930DF59A7A3D9BA6
:100FD0000F93524621AB53F8041F42F8041F31A966
:100FE0008B42F8D10DF5B6780DF5AC7C0DF59C7EF5
:100FF0005DAF5646302558F8044F5EF8043F56F86A
:10100000042F5CF8041F4FEAF440114480EA744056
:101010004FEAB34280EA942082EAF312014482EA62
:10102000D3030B44013D47F8043FE4D18B4B0F9AA7
:10103000DFF83092DDF82CB0DDF824E00A9F089E3E
:10104000DDF838C0DDF8348001920C9D02930BE08E
:10105000CDF804C0C446A8461D4659F8043F029383
:10106000BB467746B64606464FEAF52205EA080132
:1010700082EAB5122CEA050482EA75624C405AF8FD
:10108000041F019B144487EA0E0221444FEA763084
:1010900002EA060407EA0E0219445440029B704A11
:1010A00080EAB60080EAB650194420444A4501EB74
:1010B0000B030844CCD10B99089A39440F460C997C
:1010C000399719440B460D993A9302442944144622
:1010D0000D46099A0E99069B3694324441441646B1
:1010E00008460A9A0F9937967244614438923B95A4
:1010F0003C903D910024002B7FF430AF349D069945
:10110000C5F3C504C4F177068023472206F03F06E5
:101110000DF189008DF888300AF0F0F806F1090227
:101120001046069222AA1644359B33712A0AF271A0
:101130002A0E72711A0C290CB27005EBC00295428E
:10114000B1714FEA1321F1704FEA136184BF01338B
:10115000359322AB357271703492079303E0069B8E
:10116000002B00F0D780069D079EC4F14003AB42E0
:1011700028BF2B46ED1A06953EA8354620441D444F
:101180001C441A463146079504F00EFC402CE6D16B
:1011900034AA12AB92F82B0092F82A1018705970EA
:1011A00092F8290092F82810D970987022A9043377
:1011B000994202F10402EDD1369B0893379B0993C3
:1011C000389B0A93399B0B933A9B0C933B9B0D9353
:1011D0003C9B0E930DF59A7A3D9B0F93524611ABB3
:1011E00053F8041F42F8041F21A98B42F8D10DF5D2
:1011F000B6780DF5AC7C0DF59C7E5DAF564630257E
:1012000058F8044F5EF8043F56F8042F5CF8041FAA
:101210004FEAF440114480EA74404FEAB34280EA56
:10122000942082EAF312014482EAD3030B44013D85
:1012300047F8043FE4D1094B0F9ADFF82890DDF816
:101240002CB0DDF824E00A9F089EDDF838C0DDF8F8
:10125000348001920C9D029312E000BF982F8A42C5
:1012600020C6000024C50000CDF804C0C446A8462E
:101270001D4659F8043F0293BB467746B6460646DC
:101280004FEAF52205EA080182EAB5122CEA0504C4
:1012900082EA75624C405AF8041F019B144487EAA5
:1012A0000E0221444FEA763002EA060407EA0E02F3
:1012B00019445440029B8E4A80EAB60080EAB65038
:1012C00019442044914501EB0B030844CCD10B9900
:1012D000089A39440F460C99399719440B460D99D1
:1012E0003A930244294414460D46099A0E99069BE6
:1012F000369432444144164608460A9A0F99379666
:101300007244614438923B953C903D910024002BFF
:101310007FF429AF9DF8DB309DF8DA20754C9DF8FD
:10132000D8008DF848308DF849209DF8D9309DF8C7
:10133000DF208DF84A308DF84B009DF8DE308DF8B7
:101340004C2004F21D1112A806228DF84D3009F030
:101350003FFF002800F08A80109B1B6B4BB1049A62
:1013600065489168634C090A984700286AD1E37878
:101370000593614B03241C705F4D5E495F48012358
:1013800040F22312EB7004F00FFBFFF7A5BB5A4BA2
:10139000584A1B7B104623F0010357499DF80C4027
:1013A0000B734FF6FF7354490380002202238470AD
:1013B000C270CB70FFF77CB94F4A0D23D370FFF793
:1013C000E4B904F10C00D21A1844002109F096FF88
:1013D000E278FFF76DB9484B464A1B7B104643F055
:1013E0000103DAE7444A01231370FFF77CB90F28A1
:1013F000B2D8DDE92267109B414AD3E90245921930
:101400004FF000037B41AB4208BFA242A4D3119A24
:10141000049D00EBC0041444EB79E3702B7A237134
:10142000013084F802E0053410800B6823608B885B
:101430001099A380D1E90223BB4208BFB24201D276
:10144000C1E90267049BDB7805932B4B01241C70D8
:1014500092E72A4ACB78D370FFF7E0BA359B013385
:10146000359365E5359B013335937FE404F217111D
:1014700000230022CDE92223119B08688D8894F86F
:1014800016E12290ADF88C50002B3FF465AF188820
:101490000028AED0E579267A069C04E094B2844216
:1014A00003F10903A3D0DF78AF4204F10102F5D1C3
:1014B0001F79B742F2D19F787745EFD1844296D019
:1014C000119B04EBC40423441C468EAD0022002370
:1014D00065E9402354F8050F2860A388AB80D5E95F
:1014E0000023DDE92267BB4208BFB2429DD333E748
:1014F00020C60000F094FF1F58ADFF1FA893FF1FE8
:10150000808D5B002DE9F04FADF5137D00260322A1
:10151000062410AB8DF8482010968DF845608DF8A4
:1015200046608DF847608DF8444093E80700934B80
:10153000934D5E720C3303C3297B92481A70DFF817
:1015400070C28E4ADFF86CE28F4F03F80A6C0470A9
:1015500001F0020314200121D6728CF8006003F020
:10156000FF028EF80000397043BB2B69002B00F09E
:10157000F08593F800E00EEA010E8049FD238B70A0
:10158000092701F1150313F8016DF9B2002E40F09F
:10159000DC85013F012FF6D13946784C1420012318
:1015A000E170E0712372BEF1000F00F0D585237168
:1015B0004FF0080A4FF0FD0C0A2412E06F4E092389
:1015C0004FF0FE0CF0713172F37086F802C01F46C6
:1015D000194608260420694B4FF0000E824683F816
:1015E00004E0AB7965488DF84CC003F101094FF078
:1015F0000008837185F806908DF84D1080F80580FD
:10160000002A5BD014228DF84E3001238DF85180D2
:101610008DF84F208DF850304FF6FF7290460DF147
:101620004D0C50460B4601E01CF8013F534083EA45
:101630000313DBB2D900013881EA032180B281EAC9
:101640001222404582EA1312EED150480D36A0F125
:101650000C031E4410F8013B534083EA0313DBB232
:10166000D90081EA032181EA122282EA13131BB214
:10167000B0429AB2EED183F0320383EA0313DBB2B5
:10168000D90081EA032181EA12223C4982EA13133C
:101690000F441BB23B73CA780E469BB20A44191220
:1016A00051733380BEF1000F1FD1394B1B78002BD3
:1016B00040F045850DF5137DBDE8F08F90F804C02E
:1016C0008DF84EC04FF014084FF0010C8DF84F20EC
:1016D0008DF850308DF853208DF854208DF855201A
:1016E0008DF851808DF852C096E72D69F3780D93EF
:1016F000002DDAD02B78DB07D7D56B7886F816313A
:10170000D5E9022392A961E9842308688B88C6F889
:101710001701A6F81B31D5E90223013243F100037A
:10172000C5E902231B4E55F8100F3C961A4F1B4E6D
:101730006968AA68EB683D973E96194F194E3F9726
:101740004096194FDFF870E0419742AECDF8ECE0DB
:101750000FC6274628696969AA69EB6903944FF4A3
:101760008075124C3A9405EBC705002413AF04971B
:1017700039940FC62024389524E000BF4CB7FF1FD2
:1017800058ADFF1F8AB6FF1FD6B6FF1F58B7FF1F01
:1017900050ADFF1F72F36E3C3AF54FA57F520E51CC
:1017A0008C68059BABD9831F19CDE05B67E6096A9E
:1017B00001AEFF1F7FB8FF1F85AE67BB039B002BE9
:1017C00000F0D180039D049EC4F14003AB4228BFCA
:1017D0002B46ED1A039542A8354620441D441C446F
:1017E0001A463146049504F0DFF8402CE6D138AAB9
:1017F00026AB92F82B0092F82A101870597092F8C4
:10180000290092F82810D970987036A904339942AB
:1018100002F10402EDD13A9B05933B9B06933C9B5E
:1018200007933D9B08933E9B09933F9B0A93409BE4
:101830000B930DF5A27A419B0C93524625AB53F8BE
:10184000041F42F8041F35A99942F8D10DF5BE785E
:101850000DF5B47C0DF5A47E61AF5646102558F801
:10186000044F5EF8043F56F8042F5CF8041F4FEA5B
:10187000F440114480EA74404FEAB34280EA942075
:1018800082EAF312014482EAD30301350B44402D6E
:1018900047F8043FE3D1B24B0C9ADFF8D092DDF861
:1018A00020B0DDF818E0079F059EDDF82CC0DDF8BC
:1018B00028800192099D02930BE0CDF804C0C44634
:1018C000A8461D4659F8043F0293BB467746B646E4
:1018D00006464FEAF52205EA080182EAB5122CEA2B
:1018E000050482EA75624C405AF8041F019B1444B7
:1018F00087EA0E0221444FEA763002EA060407EA3C
:101900000E0219445440029B964A80EAB60080EACF
:10191000B650194420444A4501EB0B030844CCD18E
:101920000899059A39440F4609993D9719440B4681
:101930000A993E930244294414460D46069A0B998F
:10194000039B3A943244414416460846079A0C9940
:101950003B96724461443C923F95409041910024F3
:10196000002B7FF42FAF389D0D9B05EBC304A542E0
:10197000389402D9399B013339930D9BC5F3C505C2
:10198000002B00F0DA800393774B049303E0039B72
:10199000002B00F0D180039C049EC5F14003A342BC
:1019A00028BF2346E41A039442A8344628441C4422
:1019B0001D441A463146049403F0F6FF402DE6D14B
:1019C00038AA26AB92F82B0092F82A10187059709A
:1019D00092F8290092F82810D970987036A904332B
:1019E000994202F10402EDD13A9B05933B9B069389
:1019F0003C9B07933D9B08933E9B09933F9B0A9317
:101A0000409B0B930DF5A27A419B0C93524625AB5C
:101A100053F8041F42F8041F35A99942F8D10DF577
:101A2000BE780DF5B47C0DF5A47E61AF5646102549
:101A300058F8044F5EF8043F56F8042F5CF8041F72
:101A40004FEAF440114480EA74404FEAB34280EA1E
:101A5000942082EAF312014482EAD30301350B4455
:101A6000402D47F8043FE3D13D4B0C9ADFF8FC9042
:101A7000DDF820B0DDF818E0079F059EDDF82CC0EA
:101A8000DDF828800192099D02930BE0CDF804C097
:101A9000C446A8461D4659F8043F0293BB46774604
:101AA000B64606464FEAF52205EA080182EAB51273
:101AB0002CEA050482EA75624C405AF8041F019B27
:101AC000144487EA0E0221444FEA763002EA060403
:101AD00007EA0E0219445440029B224A80EAB600EB
:101AE00080EAB65019442044914501EB0B030844A9
:101AF000CCD10899059A39440F4609993D97194464
:101B00000B460A993E93024429440D4614460B990C
:101B1000069A039B3F953244414416460846079A6D
:101B20000C993A94724461443B963C9240904191A6
:101B30000025002B7FF42FAF389C04F11003A34243
:101B4000389302D2399B013339930D9B1A46064BC9
:101B50001A4402230492C4F3C50403930CE000BFAB
:101B6000982F8A4220C6000058B7FF1F24C50000E6
:101B7000039B002B00F0D180039D049EC4F1400321
:101B8000AB4228BF2B46ED1A039542A835462044A8
:101B90001D441C441A463146049503F005FF402CB1
:101BA000E6D138AA26AB92F8281092F82B5092F87A
:101BB0002A4092F82900D9701D705C70987036A97F
:101BC0000433994202F10402EDD13A9B05933B9B09
:101BD00006933C9B07933D9B08933E9B09933F9B39
:101BE0000A93409B0B930DF5A27A419B0C935246AE
:101BF00025AB53F8041F42F8041F35A99942F8D1C8
:101C00000DF5BE780DF5B47C0DF5A47E61AF56469A
:101C1000102558F8044F5EF8043F56F8042F5CF87E
:101C2000041F4FEAF440114480EA74404FEAB34283
:101C300080EA942082EAF312014482EAD303013558
:101C40000B44402D47F8043FE3D1BF4B0C9ADFF81B
:101C50000493DDF820B0DDF818E0079F059EDDF85D
:101C60002CC0DDF828800192099D02930BE0CDF88D
:101C700004C0C446A8461D4659F8043F0293BB461B
:101C80007746B64606464FEAF52205EA080182EA9B
:101C9000B5122CEA050482EA75624C405AF8041F1A
:101CA000019B144487EA0E0221444FEA763002EA8F
:101CB000060407EA0E0219445440029BA34A80EA34
:101CC000B60080EAB650194420444A4501EB0B03A4
:101CD0000844CCD10899059A39440F4609993D9793
:101CE00019440B460A993E930244294414460D4672
:101CF000069A0B99039B3A9432444144164608468F
:101D0000079A0C993B96724461443C923F954090EF
:101D100041910024002B7FF42FAF389C04F138034D
:101D20009C42389302D9399B01333993884B0493F1
:101D30000723C4F3C504039303E0039B002B00F0C7
:101D4000D180039D049EC4F14003AB4228BF2B46C3
:101D5000ED1A039542A8354620441D441C441A46FA
:101D60003146049503F020FE402CE6D138AA26AB7C
:101D700092F8281092F82B5092F82A4092F82900F5
:101D8000D9701D705C70987036A90433994202F1C5
:101D90000402EDD13A9B05933B9B06933C9B079332
:101DA0003D9B08933E9B09933F9B0A93409B0B935B
:101DB0000DF5A27A419B0C93524625AB53F8041FB4
:101DC00042F8041F35A99942F8D10DF5BE780DF5FA
:101DD000B47C0DF5A47E61AF5646102558F8044F2B
:101DE0005EF8043F56F8042F5CF8041F4FEAF440F5
:101DF000114480EA74404FEAB34280EA942082EAB8
:101E0000F312014482EAD30301350B44402D47F815
:101E1000043FE3D14C4B0C9ADFF83891DDF820B049
:101E2000DDF818E0079F059EDDF82CC0DDF828805E
:101E30000192099D02930BE0CDF804C0C446A84668
:101E40001D4659F8043F0293BB467746B646064600
:101E50004FEAF52205EA080182EAB5122CEA0504E8
:101E600082EA75624C405AF8041F019B144487EAC9
:101E70000E0221444FEA763002EA060407EA0E0217
:101E800019445440029B314A80EAB60080EAB650B9
:101E900019442044914501EB0B030844CCD1089927
:101EA000059A39440F4609993D9719440B460A99FA
:101EB0003E930244294414460D46069A0B99039B0F
:101EC0003A943244414416460846079A0C993B9688
:101ED000724461443C923F95409041910024002B14
:101EE0007FF42FAF389E0399C6F3C504C4F177037E
:101EF00003F03F05802747220DF199008DF8987077
:101F000009F0FCF905F109031F46039326AB2B44A6
:101F1000399A1A71310AD971310E300C5971110C7C
:101F200098719970100A06EBC701D8708E424FEA7B
:101F300012601E72587088BF013226AB389188BF7C
:101F4000399204930CE000BF982F8A4220C600000B
:101F500062B8FF1F24C50000039B002B00F0D18056
:101F6000039D049EC4F14003AB4228BF2B46ED1AEB
:101F7000039542A8354620441D441C441A46314668
:101F8000049503F011FD402CE6D138AA16AB92F867
:101F9000281092F82B5092F82A4092F82900D97014
:101FA0001D705C70987026A904338B4202F1040204
:101FB000EDD13A9B05933B9B06933C9B07933D9B3E
:101FC00008933E9B09933F9B0A93409B0B930DF50F
:101FD000A27A419B0C93524615AB53F8041F42F86A
:101FE000041F25A99942F8D10DF5BE780DF5B47CF2
:101FF0000DF5A47E61AF5646102558F8044F5EF8E3
:10200000043F56F8042F5CF8041F4FEAF4401144D3
:1020100080EA74404FEAB34280EA942082EAF312E5
:10202000014482EAD30301350B44402D47F8043FB5
:10203000E3D14C4B0C9ADFF83C91DDF820B0DDF891
:1020400018E0079F059EDDF82CC0DDF8288001927E
:10205000099D02930BE0CDF804C0C446A8461D4676
:1020600059F8043F0293BB467746B64606464FEA08
:10207000F52205EA080182EAB5122CEA050482EA93
:1020800075624C405AF8041F019B144487EA0E0203
:1020900021444FEA763002EA060407EA0E021944A8
:1020A0005440029B304A80EAB60080EAB650194498
:1020B00020444A4501EB0B030844CCD10899059A0A
:1020C00039440F4609993D9719440B460A993E93A6
:1020D0000244294414460D46069A0B99039B3A94F0
:1020E0003244414416460846079A0C993B9672447E
:1020F00061443C923F95409041910024002B7FF435
:102100002FAF1A4E9DF8EE3086F82231184B9DF80D
:10211000EB501B789DF8EA409DF8E9009DF8E81027
:102120009DF8EF2086F81D5186F81E4186F81F01A4
:1021300086F8201186F82121002B3FF4BBAA0DF56B
:10214000137DBDE8F04FFEF79FB94E1EB6B2FFF704
:1021500024BA9646FFF711BA08204FF0FD0C0A2466
:10216000FFF739BA982F8A4220C600004CB7FF1FEC
:1021700050ADFF1F24C500002DE9F04FADF5137DD4
:10218000012100228DF83C108DF83D108DF83E2085
:10219000934E0F98934D944C3270944E2970217049
:1021A000010CB173DFF864E290499EF80C3088812D
:1021B0008E488F4D8F4C8272FF21C27203F0020352
:1021C0002B26BE224672297003EA010022709BBBB7
:1021D000DEF81030002B00F0E1851F7807F00107D2
:1021E000824CFF21FD230225BE22E171A370E57020
:1021F00021462272002F00F0DA859EF806208DF825
:102200004C3013AC501C8EF80600002301208A715C
:10221000657008714B710A250821744B2271187979
:10222000A0700023FF20E37023726372BE222B2371
:102230006071A271E37121E06C4DFE230224E9710B
:102240002A72AB70EC7004210625684C9EF80620BB
:10225000A27113AC561C2370644B8EF806600027E5
:10226000022666701F715F71002800F09D85FF23B4
:10227000A270E370BE222B23227163714FF6FF7CA4
:1022800066460DF14D00022301E010F8013F83EA9C
:102290000C0383EA0313DBB2DA0082EA032282EA48
:1022A0001C2C01398CEA131389B21BB2B1421FFAFC
:1022B00083FCEAD14D4A4D49127B497B534083EA66
:1022C0000313DBB21A0282EAC30282EA1C2282EA08
:1022D00013131BB281EA030282EA0211C9B2CA00D7
:1022E00082EA0122C3F30723534083EA111212B298
:1022F00082F0840383EA0313DBB2D90081EA03216D
:10230000C2F307224A4082EA1313384ADFF8DCC0DE
:10231000D2781BB299B262448CF80E300B12537310
:10232000ACF8001067B9344B1B781BB90DF5137D61
:10233000BDE8F08F0DF5137DBDE8F04FFEF7A4B8B2
:10234000DEF810609CF803300C93002EEBD033784D
:10235000DB07E8D573788CF81631D6E9022392A909
:1023600061E9822308688B88CCF81701ACF81B312F
:10237000D6E90223013243F10003C6E902231F4FCD
:1023800056F8100F3C97DFF888E01D4F7168B2686F
:10239000F368CDF8F4E03E97DFF878E0194FCDF818
:1023A000FCE04097DFF870C0DFF870E0CDF8ECC0DB
:1023B00042AFCDF804E10FC7AE4630697169B2692A
:1023C000F36902954FF4807C0F4D3A9500260CEB93
:1023D000CE050394399620240FC7389524E000BF1A
:1023E0004CA5FF1FA590FF1F0692FF1F4CB7FF1FB4
:1023F000F0B6FF1F08AEFF1F50ADFF1F72F36E3C1B
:102400007F520E51ABD9831F67E6096A58ADFF1F93
:102410003AF54FA58C68059B85AE67BB19CDE05B8F
:10242000029B002B00F0D180029D039EC4F140036B
:10243000AB4228BF2B46ED1A029542A835462044F0
:102440001D441C441A463146039503F0ADFA402C56
:10245000E6D138AA26AB92F82B10197092F82A40D0
:1024600092F8281092F82900D9705C70987036A9FB
:102470000433994202F10402EDD13A9B04933B9B51
:1024800005933C9B06933D9B07933E9B08933F9B84
:102490000993409B0A930DF5A27A419B0B935246F8
:1024A00025AB53F8041F42F8041F35A99942F8D10F
:1024B0000DF5BE780DF5B47C0DF5A47E61AF5646E2
:1024C000102558F8044F5EF8043F56F8042F5CF8C6
:1024D000041F4FEAF440114480EA74404FEAB342CB
:1024E00080EA942082EAF312014482EAD3030135A0
:1024F0000B44402D47F8043FE3D1B24B0B9ADFF871
:10250000D092DDF81CB0DDF814E0069F049EDDF8E3
:1025100028C0DDF824800092089D01930BE0CDF8DF
:1025200000C0C446A8461D4659F8043F0193BB4667
:102530007746B64606464FEAF52205EA080182EAE2
:10254000B5122CEA050482EA75624C405AF8041F61
:10255000009B144487EA0E0221444FEA763002EAD7
:10256000060407EA0E0219445440019B964A80EA89
:10257000B60080EAB650194420444A4501EB0B03EB
:102580000844CCD10799049A39440F4608993D97DD
:1025900019440B4609993E930244294414460D46BA
:1025A000059A0A99029B3A943244414416460846D9
:1025B000069A0B993B96724461443C923F95409039
:1025C00041910024002B7FF42FAF389D0C9B05EB2D
:1025D000C304A542389402D9399B013339930C9B2B
:1025E000C5F3C505002B00F0DC83784B0C9A0D93E6
:1025F0000292039303E0029B002B00F0D180029C27
:10260000039EC5F14003A34228BF2346E41A029467
:1026100042A8344628441C441D441A4631460394BB
:1026200003F0C2F9402DE6D138AA26AB92F82B0070
:1026300092F82A101870597092F8290092F8281010
:10264000D970987036A90433994202F10402EDD191
:102650003A9B04933B9B05933C9B06933D9B0793BE
:102660003E9B08933F9B0993409B0A930DF5A27AEA
:10267000419B0B93524625AB53F8041F42F8041FAD
:1026800035A99942F8D10DF5BE780DF5B47C0DF55C
:10269000A47E61AF5646102558F8044F5EF8043FFB
:1026A00056F8042F5CF8041F4FEAF440114480EA06
:1026B00074404FEAB34280EA942082EAF312014464
:1026C00082EAD30301350B44402D47F8043FE3D1A0
:1026D0003C4B0B9ADFF8F890DDF81CB0DDF814E005
:1026E000069F049EDDF828C0DDF824800092089D36
:1026F00001930BE0CDF800C0C446A8461D4659F82A
:10270000043F0193BB467746B64606464FEAF5229C
:1027100005EA080182EAB5122CEA050482EA75622C
:102720004C405AF8041F009B144487EA0E022144CF
:102730004FEA763002EA060407EA0E0219445440D2
:10274000019B214A80EAB60080EAB6501944204431
:10275000914501EB0B030844CCD10799049A394405
:102760000F4608993D9719440B4609993E93024438
:1027700029440D4614460A99059A029B3F95324416
:10278000414416460846069A0B993A9472446144AD
:102790003B963C92409041910025002B7FF42FAF57
:1027A000389C04F11003A342389302D2399B0133C1
:1027B00039930D9B0C9A134403930223C4F3C5046D
:1027C00002930BE0982F8A4220C6000058B7FF1FE3
:1027D00024C50000029B002B00F0D180029D039EC7
:1027E000C4F14003AB4228BF2B46ED1A029542A824
:1027F000354620441D441C441A463146039503F0D7
:10280000D3F8402CE6D138AA26AB92F8281092F8DB
:102810002B5092F82A4092F82900D9701D705C70F4
:10282000987036A90433994202F10402EDD13A9B23
:1028300004933B9B05933C9B06933D9B07933E9BD8
:1028400008933F9B0993409B0A930DF5A27A419B05
:102850000B93524625AB53F8041F42F8041F35A9C9
:102860008B42F8D10DF5BE780DF5B47C0DF5A47E44
:1028700061AF5646102558F8044F5EF8043F56F8ED
:10288000042F5CF8041F4FEAF440114480EA7440BE
:102890004FEAB34280EA942082EAF312014482EACA
:1028A000D30301350B44402D47F8043FE3D1BF4B20
:1028B0000B9ADFF80493DDF81CB0DDF814E0069FF6
:1028C000049EDDF828C0DDF824800092089D019365
:1028D0000BE0CDF800C0C446A8461D4659F8043F99
:1028E0000193BB467746B64606464FEAF52205EA0F
:1028F000080182EAB5122CEA050482EA75624C40AE
:102900005AF8041F009B144487EA0E0221444FEA40
:10291000763002EA060407EA0E0219445440019B8D
:10292000A34A80EAB60080EAB650194420444A45DA
:1029300001EB0B030844CCD10799049A39440F46A4
:1029400008993D9719440B4609993E93024429443E
:1029500014460D46059A0A99029B3A943244414422
:1029600016460846069A0B993B96724461443C927F
:102970003F95409041910024002B7FF42FAF389C6D
:1029800004F138039C42389302D9399B01333993BF
:10299000884B03930723C4F3C504029303E0029B0F
:1029A000002B00F0D180029D039EC4F14003AB4296
:1029B00028BF2B46ED1A029542A8354620441D44F7
:1029C0001C441A463146039502F0EEFF402CE6D136
:1029D00038AA26AB92F8281092F82B5092F82A4089
:1029E00092F82900D9701D705C70987036A9043374
:1029F000994202F10402EDD13A9B04933B9B05936B
:102A00003C9B06933D9B07933E9B08933F9B0993FA
:102A1000409B0A930DF5A27A419B0B93524625AB3E
:102A200053F8041F42F8041F35A98B42F8D10DF565
:102A3000BE780DF5B47C0DF5A47E61AF5646102529
:102A400058F8044F5EF8043F56F8042F5CF8041F52
:102A50004FEAF440114480EA74404FEAB34280EAFE
:102A6000942082EAF312014482EAD30301350B4435
:102A7000402D47F8043FE3D14C4B0B9ADFF83891D7
:102A8000DDF81CB0DDF814E0069F049EDDF828C0D8
:102A9000DDF824800092089D01930BE0CDF800C082
:102AA000C446A8461D4659F8043F0193BB467746E5
:102AB000B64606464FEAF52205EA080182EAB51253
:102AC0002CEA050482EA75624C405AF8041F009B08
:102AD000144487EA0E0221444FEA763002EA0604E3
:102AE00007EA0E0219445440019B314A80EAB600BD
:102AF00080EAB650194420444A4501EB0B030844D0
:102B0000CCD10799049A39440F4608993D97194446
:102B10000B4609993E930244294414460D46059AF2
:102B20000A99029B3A943244414416460846069A52
:102B30000B993B96724461443C923F954090419181
:102B40000024002B7FF42FAF389E0299C6F3C504F2
:102B5000C4F1770303F03F05802747220DF1990068
:102B60008DF8987008F0CAFB05F109031F4602931F
:102B700026AB2B44399A1A71310AD971310E300CB7
:102B80005971110C98719970100A06EBC701D87031
:102B90008E424FEA12601E72587088BF013226AB17
:102BA000389188BF399203930CE000BF982F8A4276
:102BB00020C6000062B8FF1F24C50000029B002B46
:102BC00000F0D180029D039EC4F14003AB4228BFB8
:102BD0002B46ED1A029542A8354620441D441C445C
:102BE0001A463146039502F0DFFE402CE6D138AAA2
:102BF00016AB92F8281092F82B5092F82A4092F8CF
:102C00002900D9701D705C70987026A90433994210
:102C100002F10402EDD13A9B04933B9B05933C9B4C
:102C200006933D9B07933E9B08933F9B0993409BD4
:102C30000A930DF5A27A419B0B93524615AB53F8BC
:102C4000041F42F8041F25A99942F8D10DF5BE785A
:102C50000DF5B47C0DF5A47E61AF5646102558F8ED
:102C6000044F5EF8043F56F8042F5CF8041F4FEA47
:102C7000F440114480EA74404FEAB34280EA942061
:102C800082EAF312014482EAD30301350B44402D5A
:102C900047F8043FE3D1484B0B9ADFF82C91DDF85D
:102CA0001CB0DDF814E0069F049EDDF828C0DDF8B6
:102CB00024800092089D01930BE0CDF800C0C4462B
:102CC000A8461D4659F8043F0193BB467746B646D1
:102CD00006464FEAF52205EA080182EAB5122CEA17
:102CE000050482EA75624C405AF8041F009B1444A4
:102CF00087EA0E0221444FEA763002EA060407EA28
:102D00000E0219445440019B2C4A80EAB60080EA26
:102D1000B65019442044914501EB0B030844CCD133
:102D20000799049A39440F4608993D9719440B4670
:102D300009993E930244294414460D46059A0A997E
:102D4000029B3A943244414416460846069A0B992F
:102D50003B96724461443C923F95409041910024DF
:102D6000002B7FF42FAF164E9DF8EB509DF8EA40F4
:102D70009DF8E9009DF8E8109DF8EF209DF8EE30F1
:102D800086F81D5186F81E4186F81F0186F820112D
:102D900086F8212186F82231FFF7C5BA0746FFF7EA
:102DA0001FBA084B0D93FCE40746FFF736BA08211B
:102DB0000A25FFF74ABA00BF982F8A4220C60000B2
:102DC0004CB7FF1F58B7FF1F24C5000010B5194BA3
:102DD000197882B0C9B9184B184A1B680193019839
:102DE0001368C31AB3F5FA7F154B08D310601A782D
:102DF000C2B10D20197002F06BFF02B010BD19783E
:102E00000D2002F065FF02B010BD01230C4C1946E5
:102E10000D20237002F05CFF21780D2002F058FF96
:102E200002B010BD01210D20197002F051FF02B057
:102E300010BD00BF78B6FF1F8CB8FF1FCC94FF1FDA
:102E40008BB6FF1F013808281DD8DFE800F0050702
:102E5000090B121416181A00002070470120704741
:102E6000022070470139C9B208290ED8084B585CB6
:102E700070470320704704207047052070470620E4
:102E80007047072070470B2070471F20704700BF16
:102E90007CD10000F8B5154CE66805464FF07E5130
:102EA000304607F01BFE18B1284607F021FC064605
:102EB000284607F021FC0E4907F072FC0D49074631
:102EC000304607F06DFC0146384607F061FB0A49C1
:102ED0006269E369E060A1FB051502EB951501331A
:102EE0006561E36107F05EFEF8BD00BF2487FF1F48
:102EF0004CA6AA3E4CA62A3FD34D6210F0B51E4CFC
:102F000094F8203085B00546002B32D01B4B1A6850
:102F10000192019A0021013A84F820101968039166
:102F200003981B680293029B2361801A07F0E0FB61
:102F3000134907F0E9FC06F0A9FF064628460F46AC
:102F400006F082FF02460B463046394606F0F2FF95
:102F500007F0C8FA0B4907F023FC0B4907F020FCE7
:102F6000034601466068236007F012FB606005B00D
:102F7000F0BD2269014BD1E72487FF1F8CB8FF1FEA
:102F800000BA5B4A000020410000883F70B5114D37
:102F90000646FFF7B3FFAC684FF07E51204607F0BE
:102FA0009DFD18B1304607F0A3FB0446304607F0FC
:102FB000A3FB094907F0F4FB08490646204607F041
:102FC000EFFB0146304607F0E3FAA86007F0EAFDA0
:102FD00070BD00BF2487FF1FFA7EAA3E4CA62A3F81
:102FE000F8B5144CE66805460021304607F06CFD44
:102FF00018B1284607F07CFB0646284607F07CFB04
:103000000D4907F0CDFB0D490746304607F0C8FBD8
:103010000146384607F0BCFA09496269E369E06095
:10302000A1FB051502EB951501336561E36107F01E
:10303000B9FDF8BD4887FF1FFA7EAA3EFA7E2A3FF7
:10304000D34D6210F0B51E4C94F8203085B0054683
:10305000002B32D01B4B1A680192019A0021013AD1
:1030600084F820101968039103981B680293029B4F
:103070002361801A07F03CFB134907F045FC06F07A
:1030800005FF064628460F4606F0DEFE02460B46C2
:103090003046394606F04EFF07F024FA0B4907F098
:1030A0007FFB0B4907F07CFB034601466068236009
:1030B00007F06EFA606005B0F0BD2269014BD1E700
:1030C0004887FF1F8CB8FF1F00BA5B4A00002041F1
:1030D0000000883FF8B5114CA6680546002130462F
:1030E00007F0F2FC18B1284607F002FB0646284616
:1030F00007F002FB0A4907F053FB0A49074630462E
:1031000007F04EFB0146384607F042FAA060284619
:10311000FFF798FFA06807F045FDF8BD4887FF1F3F
:10312000FA7EAA3EFA7E2A3F08B50D4B002203F52F
:10313000FA611A809A705A601A811A7414338B4299
:10314000F7D140F6055002F0DFFE064A064B07496C
:1031500011601022A0219A7199705A7108BD00BFA8
:103160005CA5FF1FCCB6FF1F00A0064006A00640CE
:1031700070B540F6C41092B002F0B6FD0E2157486B
:10318000574C584E584D04F0E9F806A8574902F03C
:1031900081FB06A82F2102F0CFFB06A9421C0AA83A
:1031A00002F0F2FB0AA82E2102F0C6FB0022034621
:1031B0000AA90EA802F0C4FB0EA9204602F0ACFA40
:1031C000204602F0CFFA0EA802F024FB1021484856
:1031D00004F0C4F80A21304604F0C0F8204602F09A
:1031E000C1FA31460EA802F055FB0EA802F012FB00
:1031F0000B21284604F0B2F8204602F0B3FA294623
:103200000EA802F047FB0EA802F004FB4421394847
:10321000394D04F0A3F8204602F0A4FA37490EA86D
:1032200002F038FB0EA802F0F5FA1921344804F038
:1032300095F8204602F096FA32490EA802F02AFBD1
:103240000EA802F0E7FA1121284604F087F820467C
:1032500002F088FA29460EA802F01CFB0EA802F024
:10326000D9FAFFF761FF40F6055002F063FF264BE5
:10327000264A19680E910E9E1968059105991868DD
:103280000490049D18680390039C186802900298AB
:1032900016601B681E4A01931E4B11601E4A1F498F
:1032A0001D601F4B146008601E4A01991E4D1F4C83
:1032B00019600D20002301212B702370138002F070
:1032C0000DFD01210E2002F009FD0AA802F0A2FA6C
:1032D00006A802F09FFA12B070BD00BF9CC20000A9
:1032E0007887FF1F34C3000040C30000ACC2000059
:1032F00020C300004CC30000D8C3000094C30000EA
:10330000A8C30000C4C300008CB8FF1F54ADFF1F4A
:1033100090B6FF1F3CADFF1F34ADFF1FB4B6FF1FBB
:10332000B899FF1FD4ADFF1F78B6FF1F59A5FF1F27
:1033300084B070B5184C82B0257C06AE86E80F00CC
:10334000A5B100230133DBB203EB830204EB82025D
:103350001D46127C52B1642BF4D11E210F4803F09C
:10336000FDFF0F4802F0FEF96323EBE70D4B1B68EE
:103370000193019B079301238DF8283006AE0FCEF1
:1033800005EB850504EB85040FC43368236002B0A8
:10339000BDE8704004B070475CA5FF1FECC300009F
:1033A0007887FF1F8CB8FF1F70B52E4B1B7882B03B
:1033B0008BB12D4B2D4D1B682D492E4A002B44DB24
:1033C000A5FB03435D0905EB450500236D000D607A
:1033D00013701E460FE0284A244D1268002A25DB90
:1033E000A5FB02525509224C224905EB45056D000B
:1033F00025600B701E4600221346012404FA03F1D7
:1034000001331E2B42EA0102F8D11C4B1C4C1880E0
:10341000154000229A701A8135431A69DD600092C6
:103420000FCB2560FFF784FF02B070BD5242A5FBB1
:1034300002256D090E490F4B05EB45056D00012274
:103440000D601A704FF08046D5E75B42A5FB03354F
:103450006D0905EB45056D0001230D6013704FF0FC
:103460008046C8E7E4ADFF1F3892FF1F1F85EB5170
:10347000A890FF1F4CADFF1FE0ADFF1F18AEFF1F50
:103480000C92FF1F70B52E4B1B7882B0BBB12D4B39
:103490002D4D1B682D4A2E491268002BB8BF5B4288
:1034A000A5FB03356D0905EB45056D00002A0D6090
:1034B000284B40DB02221A704FF0004611E0264BE9
:1034C000214D1B682249234A002B27DBA5FB034320
:1034D0005D0905EB45056D0002230D6013704FF08B
:1034E000004600221346012404FA03F101331E2B87
:1034F00042EA01024FF00101F6D1184B184C188036
:10350000154000221A8135431A69DD6099700092D6
:103510000FCB2560FFF70CFF02B070BD5B42A5FB2F
:1035200003356D0905EB45056D0003230D60137030
:103530004FF04046D5E703221A704FF04046D0E7DF
:10354000E4ADFF1F84B6FF1F1F85EB513892FF1FAC
:103550002CB7FF1F4CADFF1FF4B6FF1F18AEFF1FA7
:103560000C92FF1F7E2808B50CD07D2803D0BDE843
:10357000084002F03FBD02F03DFD5D20BDE808407F
:1035800002F038BD7D2002F035FD5E20BDE8084028
:1035900002F030BD38B50D4B1B78012B04460D46AB
:1035A00002D00120FCF762FF204655B1FFF7DAFF99
:1035B000074B1888204400EB102000F0FF00188013
:1035C00038BDBDE8384002F015BD00BF88B8FF1F08
:1035D00046A5FF1F10B5204B1B7882B0012B00922F
:1035E000ADF80610044602D00120FCF73FFF002191
:1035F0007E20FFF7CFFF20460021FFF7CBFF012100
:103600001020FFF7C7FF9DF80600144C0121FFF7BB
:10361000C1FF9DF807000121FFF7BCFF9DF80000E6
:103620000121FFF7B7FF9DF801000121FFF7B2FF6D
:103630009DF802000121FFF7ADFF01219DF8030075
:10364000FFF7A8FF2078C043C0B2FFF78BFF00232D
:10365000238002B010BD00BF88B8FF1F46A5FF1F22
:10366000F0B5154B154F1B6883B000260193019DE3
:103670003B4634463246197C39B158681989281AB4
:10368000411AA142A4BF0C46D6B20132642A03F10A
:103690001403F0D106EB8606B3001F4407493A7CB9
:1036A0003AB1C95AFA681B20FFF794FF0023FB6068
:1036B0003B7403B0F0BD00BF8CB8FF1F5CA5FF1FBB
:1036C00008B5094B1B78012B02D00120FCF7CEFE78
:1036D000064B074A1B780021116003B908BDBDE8FD
:1036E0000840FFF7BDBF00BF88B8FF1F78B6FF1FB7
:1036F0000C92FF1F2DE9F04F674D85B02B460390CC
:1037000005F13204002213F8011B11F0DF0F02F162
:10371000010003D1197811F0DF0F05D09C42024659
:10372000F1D15E4B1A8802E05C4B92B21A80AB1862
:103730005B4C5C4958485FFA82F9002284F800909B
:103740005A709A70DA701A7108F0AEF8002840F0DA
:103750009680554B4FF0010A83F800A0534B544A12
:103760001B781370534B4C49534883F8009009F170
:10377000040202F019F9DFF85881504B504F514DB7
:10378000514C83F800A0002088F800004A4B4A49B9
:10379000494E095C29700344C21C93F801A016F835
:1037A00002E093F802C085F801A00B0603F0FE4B7F
:1037B0004FEA0A4A0EF07F030AF4FE0A4BEA0303BB
:1037C00043EA0A0380084FEA0C2A01300AF4FE4A51
:1037D0003E4985F802C0C0EB001B43EA0A034A4594
:1037E0000BF5FA6B85F803E038700B6011DB304A9B
:1037F00012784FEA425E91030EF4000E01F400418C
:10380000D2014EEA010102F080020A4313432F4A1B
:103810001360BDF80C202280A070A4F808B0E3600B
:10382000266994E80F000096FFF782FD3B78226935
:103830000092C3EB031303F5FA63238194E80F00AE
:10384000FFF776FD3B7822690092C3EB031303F583
:10385000FA63238194E80F00FFF76AFD98F80000EF
:10386000144B043093F80090194BC0B2814588F88E
:1038700000008BD200221A7005B0BDE8F08F154908
:10388000054808F011F8084B10B98246187065E732
:1038900093F800A062E700BF6893FF1F9C90FF1F92
:1038A00044A5FF1F0CC400004CB6FF1F4DB6FF1F00
:1038B000D494FF1FB0B6FF1F7C99FF1FED91FF1F2F
:1038C000AC90FF1FF091FF1F18AEFF1F0C92FF1F5F
:1038D00024B7FF1F1CC40000294B1B78062B4ED0B9
:1038E000F0B5284B284A1B78284E294C29491278D4
:1038F000367826700546DF112748284CFBB283B086
:1039000003700B70002A31D12549264B086801301D
:10391000C0B218702449254B91F800E019784FEA9D
:103920004E2E760106F0600389020EF400761E43E7
:10393000120301F4406302F4805146EA03020A4391
:1039400042EAC71242EA072300F01F00184A43EA7E
:1039500000060023937013811369D66015800093CD
:103960000FCA2660FFF7E4FC03B0F0BD114B12490B
:1039700018780978FFF766FA0A4B1870CAE770479B
:10398000B8ADFF1F99B6FF1FE4ADFF1F4CB6FF1F78
:10399000ED91FF1F37AEFF1F7DB8FF1F0C92FF1F79
:1039A000E894FF1F31AEFF1FEC91FF1F00AEFF1F19
:1039B00018AEFF1FD594FF1F39AEFF1F30B5474A21
:1039C0001378052B83B02CD80133DBB2591E13704A
:1039D000052924D8DFE801F02C2323036046404A60
:1039E000404B14680421002219700125134605FA82
:1039F00003F10133182B42EA0102F8D13A4B3B4D57
:103A00001880224042F08064042150221A811A69F1
:103A1000DC60997000920FCB2C60FFF789FC03B03B
:103A200030BD3349012000230870137003B030BD4E
:103A30003049314A2B4B0C781460012500221D704F
:103A4000134605FA03F10133182B42EA01024FF045
:103A50000101F6D1244B254D1880224042F080749C
:103A60000022D3E72549264A1E4B0C781460062114
:103A7000002219700125134605FA03F10133182BB2
:103A800042EA0102F8D1184B184D1880224042F04A
:103A9000C06406214B22B9E71A4A124B146805216B
:103AA000002219700120134600FA03F10133182B8C
:103AB00042EA0102F8D10C4B0C4D196900912240E9
:103AC00042F0A06405213222DC6099701A810FCB8C
:103AD0002C60FFF72DFC03B030BD00BFA490FF1F8A
:103AE0000CAEFF1FE0B6FF1F18AEFF1F0C92FF1FAA
:103AF00038AEFF1FB8ADFF1F80B8FF1F46ADFF1FD8
:103B000054A5FF1F14AEFF1F2DE9F04FDFF84882C8
:103B1000DFF848B298F800400023042C85B0CBF8B9
:103B2000003000F3CA80DFF838A202903AF814009F
:103B3000A0F2DC5006F0E0FD854906F031FE0021E0
:103B40000646A50806F0DEFF002800F0BB804FF017
:103B50007C51304606F01CFD06F0FEFF47B26FF0C8
:103B60003E03621C9F42B8BF1F463AF81200DFF8BE
:103B7000F4913F2FA8BF3F27A0F2DC5089F80170D5
:103B800006F0BAFD724906F00BFE0021064606F06B
:103B9000B9FF002800F0D4804FF07C51304606F089
:103BA000F7FC06F0D9FF46B26FF03E03A21C9E421E
:103BB000B8BF1E463AF812003F2EA8BF3F26A0F21B
:103BC000DC5089F8026006F097FD614906F0E8FDD7
:103BD0000021039006F096FF039B002800F0A880C8
:103BE00018464FF07C5106F0D3FC06F0B5FF42B208
:103BF0006FF03E03E11C9A42B8BF1A463AF8110032
:103C00003F2A9246A0F2DC50A8BF4FF03F0A89F845
:103C100003A006F071FD4E4906F0C2FD002103909D
:103C200006F070FF039B00287AD018464FF07C51B5
:103C300006F0AEFC06F090FF40B26FF03E039842F3
:103C4000B8BF18463F28A8BF3F20002F05F00F053A
:103C500089F804005CDB3F0107F47C772F43002EDA
:103C60004EDBF50205F4FC353D43BAF1000F3CDBB9
:103C70004FEA8A4A0AF47C0A4AEA050A002829DB44
:103C8000400600F0FC4040EA0A00CBF8000004F0D7
:103C90000304304B04EB840202EB82021A81BDF86C
:103CA00008201A8001341A699C70D86000920FCBEA
:103CB000FFF73EFB98F80030043388F8003005B079
:103CC000BDE8F08F4FF07C51304606F05FFC06F007
:103CD00043FF43E74042400600F0FC4040F0004014
:103CE00040EA0A00CBF80000D1E7CAF1000A4FEA27
:103CF0008A4A0AF47C0A4AF0807A4AEA050ABDE751
:103D00007542ED0205F4FC3545F400353D43ACE762
:103D10007F423F0107F47C7745F480652F439EE79F
:103D200018464FF07C5106F031FC06F015FF83E792
:103D300018464FF07C5106F029FC06F00DFF56E7BF
:103D40004FF07C51304606F021FC06F005FF2AE7D3
:103D50002506013E18AEFF1F3292FF1F0C92FF1F77
:103D600054B6FF1F40ADFF1F2DE9F041234B244CFB
:103D7000244F1E784FF00008462286B00546C4F84E
:103D800000803A60EEB9174600221346012000FA7F
:103D900003F10133202B42EA01024FF00101F6D179
:103DA000194B3A40164300221A811A69DE601D80C1
:103DB000997000920FCB2660FFF7BAFA06B0BDE803
:103DC000F0811421114883F8008003F0C7FA4346BC
:103DD0000A2239680E4801F0D5FC09210D4803F08C
:103DE000BDFA0B4801F0BEFC0B4902A801F052FDE0
:103DF00002A801F00FFD3F682668C5E72087FF1F76
:103E00000C92FF1FC099FF1F18AEFF1F2CC40000AB
:103E10007887FF1F44C4000050C4000010B501297A
:103E2000044680EAE070A0EBE47026D0022907D0B7
:103E3000032903D1012A5AD0022A36D0002010BD0E
:103E4000012A3CD0022AF9D1632840F38580B0F5DD
:103E50007A7F80F29A8006F04BFC6B4906F0A0FC5A
:103E600003F088FE06F09EFEC0B2800040F0010024
:103E7000002CE4DA40F4007010BD012ADED10928DC
:103E800064DD95287DDC06F033FC5F4906F088FC94
:103E900003F070FE06F086FEC0B2400040F0010064
:103EA000002CCCDA40F0200010BDB0F57A7F37DA74
:103EB000800080B2002CC2DA40F4805010BD63282C
:103EC00047DD40F2F54398425DDC06F011FC4E49B7
:103ED00006F066FC03F04EFE06F064FEC0B2400041
:103EE00040F00100002CAADA40F4807010BDB0F55B
:103EF0007A7F34DBB0F5205F59DA06F0F9FB4249EE
:103F000006F04EFC03F036FE06F04CFE80B2400098
:103F100040F0010080B2002C91DA40F4006010BD46
:103F200042F20F7398421DDD384B984242D806F09A
:103F3000DFFB374906F034FC03F01CFE06F032FECE
:103F400080B2800040F0020080B2B3E7400080B24F
:103F5000A6E7400080B2C5E7800080B288E7400055
:103F600080B2D8E706F0C4FB274906F019FC03F03D
:103F700001FE06F017FE80B2800040F0010080B222
:103F800098E71F208CE7FF20ACE742F20F739842BE
:103F900022D806F0ADFB1E4906F002FC03F0EAFD54
:103FA00006F000FEC0B2800040F0020060E740F280
:103FB000FF70B0E7B0F57A2F1FD206F099FB1549D4
:103FC00006F0EEFB03F0D6FD06F0ECFD80B28000BB
:103FD00040F0030080B26DE70F4B984210D806F016
:103FE00087FB0C4906F0DCFB03F0C4FD06F0DAFDAC
:103FF000C0B2800040F003003AE740F6FF7059E796
:1040000040F2FF1034E700BFCDCCCC3D9F860100CD
:104010000AD7233C6F12833A17F001002DE9F041D3
:104020002F4B304D1B78304A0F2B82B0074651D9A9
:104030000F2313701E462D4B2D491A78032A134661
:1040400028BF0323032A0B7047D9033A5FFA82FE85
:104050004FEA8E3404F440442649274A0968274829
:1040600012881B0103F03003334380FB01C0244E50
:10407000C917C1EB60102349A6FB0226022281F872
:1040800000E011461C43FFF7C9FEC6F3C7061E4BEE
:104090008046012230460221C3F80080FFF7BEFEB1
:1040A0001A4A1B4B1B4E1F804FEA885808EA02022F
:1040B000C7B2144300229A701A8144EA87141A691D
:1040C000DC6000920FCB37702C60FFF731F902B043
:1040D000BDE8F0811E461370ADE70024A646BBE79D
:1040E00032AEFF1F0C92FF1FD194FF1F6C87FF1F82
:1040F00045ADFF1FD8ADFF1FD2B6FF1F1F85EB5187
:10410000CDCCCCCC2E92FF1FE494FF1F0000C07FCB
:1041100018AEFF1F30AEFF1F1F4B204A1B882049DF
:1041200070B5204CA4FB03346409148082B00546AA
:10413000088806F0E1FA1C4906F032FB03F01AFD8C
:1041400006F00AFD01220221FFF768FE174B184A0C
:1041500018801288400200F4FF30C4F308040443BE
:10416000560411230022012000FA03F10133202B11
:1041700042EA0102F8D10F4B3240144300229A70F8
:104180001A811A691D80DC600B4E00920FCB3460DF
:10419000FFF7CEF802B070BD9AB6FF1FE891FF1F7F
:1041A0002CAEFF1F1F85EB51CDCCCC3D2C92FF1FB9
:1041B000F491FF1F18AEFF1F0C92FF1F2DE9F04F67
:1041C000C04EDFF854B37268BF49DFF85083BF4F69
:1041D000BF4DDFF84C93BF4C91B000230D901046BB
:1041E000CBF8003006F090FBBB4906F0D9FA034645
:1041F000C8F800303068B449029306F085FBB64930
:1042000006F0CEFA0646B04978682E6006F07CFBD0
:10421000B14906F0C5FA8246AB493868C9F800A032
:1042200006F072FBAC4906F0BBFA029B0746194642
:104230002760504606F0AAF905F028FECDE90401F2
:1042400003F054FCCDE90601384605F01FFE024696
:104250000B46CDE90A2303F0FFFBCDE9020130460E
:1042600005F014FE06460F4603F0F6FBDDE90A23CF
:10427000CDE908011046194603F038FC02460B460A
:1042800030463946CDE90E2303F030FCCDE90A0172
:10429000DDE9040103F0E0FBDDE90E23CDE90401D3
:1042A000DDE9080105F046FEDDE90A2306460F4672
:1042B000DDE9020105F03EFEDDE9042305F03AFEEA
:1042C00002460B463046394605F080FCDDE9022304
:1042D00006460F46DDE9060105F02CFE32463B4658
:1042E00003F0C4FC06F0FEF8774906F059FA7A4963
:1042F00006F00AFB0021064606F0F0FB002840F01D
:104300002081764BDFF81CA21E60304606F024FCAC
:1043100083B2A3F1B40000B20028BCBF03F1B40023
:1043200000B2B0F5B47FA8BFA0F5B4706C4BA8BFC5
:1043300000B2188006F0E0F96A4906F031FA06F09A
:104340000BFC24682D68AAF800002946204606F0D8
:104350001DF9654BD8F8001007461F60D9F800001A
:1043600006F014F9614B064618604FF07C51384650
:1043700006F016FA05F08AFD03F0B8FBCDE902015C
:1043800030464FF07C5106F00BFA05F07FFD03F04C
:10439000ADFB80462846894605F078FD03F05CFBBE
:1043A000064620460F4605F071FD03F055FB4246D8
:1043B00004460D464B464046494605F0BBFD324695
:1043C0003B4605F0B7FD22462B4605F0B3FDDDE97F
:1043D000022304460D461046194605F0ABFD0B4678
:1043E00002462946204605F0F3FB06F07BF8404ADA
:1043F000106005F04BFD03F03BFC03F0DFFB0246D1
:104400000B4605F0E5FB06F06DF83A4B3A491860AB
:1044100006F0C6F9394B3A4A1B781060002B00F0C1
:104420008E8006F099FB80B206F062F903F0A2FBE1
:1044300006F092FB334B344E1B68032186FB0326A8
:10444000DB170222C3EB6616FFF7E8FC2F4A0023B6
:1044500036B210801C46012101FA04F201340C2C02
:1044600043EA0203F8D1DBF80050034030461D4315
:1044700006F042F903F07EFB06F06EFB02220321F8
:10448000FFF7CCFC224B00B2188000220303012668
:1044900006FA04F10134182C42EA0102F8D11A405C
:1044A0001C492A430028BAF90050B8BF42F0807274
:1044B000002342EA45658B70BDF834200B810B69FF
:1044C00032E000BFD891FF1F00003443A0B6FF1FA9
:1044D000D8B6FF1FDCB6FF1FDB0F4940A090FF1FBF
:1044E00030ADFF1F4CA6AA3E0892FF1F70B8FF1FF9
:1044F00038A5FF1F40A5FF1F706DC24A59A5FF1FB9
:104500009490FF1F2CADFF1F1F85EB511292FF1FD0
:104510003492FF1F18AEFF1F0C92FF1FC8ADFF1F84
:10452000CCADFF1F3092FF1FCD600A8000930FC9F2
:10453000CBF80050FEF7FCFE11B0BDE8F08F184636
:1045400078E73046024906F023F80646D9E600BF70
:104550000000B4432DE9F043354B3649DFF8F090C5
:1045600083B00546186806F01BF9334B31490646FF
:10457000186806F015F9314B0446B3F9000000EB5A
:104580008000400006F0B8F800218046304606F072
:10459000A5FA0028304614BF4FF48077002703F0B7
:1045A000E9FA06F0D9FA01220221FFF737FC0646A4
:1045B00006F09EF8C9F80000204603F0DBFA06F08A
:1045C000CBFA01220221FFF729FC044606F090F8FD
:1045D0001B4B4FF07C511860404606F0E1F8194B38
:1045E000186006F0DFFAF6B264023E4304F4FF34CA
:1045F00044EA0607144E002240041123012404FA61
:1046000003F101331C2B42EA0102F8D10F4B0240A7
:1046100042EA070400229A701A811A69DC601D8040
:1046200000920FCB3460FEF783FE03B0BDE8F08349
:104630008CB6FF1F0000204148B6FF1FFC91FF1FF2
:10464000E8B6FF1F7CB6FF1F0C92FF1F18AEFF1FBE
:10465000ECB6FF1FF0B5304B304983B00646186802
:1046600006F09EF82E4905F093FF06F09BFA2D4ABE
:104670002D4B2A4985B21D80106806F091F82B4910
:1046800005F086FF06F08EFA294A2A4B2A4987B29E
:104690001F80106806F084F803F06CFA06F082FAC6
:1046A000264B80B2002218800124134604FA03F13D
:1046B00001330B2B42EA0102F8D115401C46FA02E5
:1046C0000023012707FA04F10134152C43EA010302
:1046D000F8D11340032101221D43FFF79FFB23461E
:1046E00040050022012404FA03F10133202B42EAA1
:1046F0000102F8D11249134C0E80002302401543E9
:104700008B700B810B69CD6000930FC92560FEF79C
:104710000FFE03B0F0BD00BF84B8FF1F0000A04033
:104720000000614444B7FF1FD4B6FF1F0000E143FF
:104730001CB7FF1FD294FF1F0000C84234AEFF1FFA
:1047400018AEFF1F0C92FF1FF0B5264B264A1B88A0
:10475000264FA2FB032383B00546580905F0CCFF82
:10476000234B244A06461E60B2F9000005F0C4FF40
:10477000214906F015F803F0FDF906F0EDF90122E4
:104780000221FFF74BFB044605F0B2FF38603046CC
:1047900006F008FA194B64021A8804F4FF34C0F3D7
:1047A00008002043560411230022012404FA03F1D7
:1047B0000133202B42EA01024FF00101F6D1104BE8
:1047C000324042EA000400221A811A691D80DC602E
:1047D00099700C4E00920FCB3460FEF7A9FD03B028
:1047E000F0BD00BF9CB6FF1F1F85EB5148B7FF1FF0
:1047F00010AEFF1F2EAEFF1FCDCCCC3D32B7FF1F3A
:1048000018AEFF1F0C92FF1F2DE9F04F584B594D6A
:10481000594A5A495A4CDFF890B15A4F12681B88CE
:104820002D88DFF88881258085B0ABF800300390B3
:104830000023B1F900003A60C8F8003005F05CFFD1
:10484000514A524B05461D60108805F055FF5049EE
:1048500005F0A6FF4F4A034619461360284605F0A7
:1048600095FE06F079F900B205F046FF4A4903F0DB
:104870005BFA0021054606F031F900286AD1284686
:1048800006F06AF9454BDFF828A1163083FB0023B8
:104890000344C017C0EB631000EA0A0ABAF1000F24
:1048A0005EDB3F4B258883F800A000231C460121D6
:1048B00001FA04F201340A2C43EA0203F8D1BBF8EE
:1048C0000000D8F800601D4005F012FF03F052F917
:1048D00006F042F902220321FFF7A0FA2346ABF8C3
:1048E000000000224FEA802B4FF0010E0EFA03F178
:1048F0000133162B42EA01024FF00104F6D1386869
:104900000BEA020B03F036F906F026F9224621469F
:10491000FFF784FA814646EA4A7605F0E9FE4FEA57
:10492000895303F07C6135431E4B386045EA0B0523
:1049300000220D431A81BDF80C101A69DD609C70CD
:10494000198000920FCBC8F80050FEF7F1FC05B0BB
:10495000BDE8F08F2846104905F01AFE05468EE79F
:104960000AF1FF3A6AF0070A0AF1010A99E700BF63
:104970003CA5FF1F88B6FF1FA493FF1F4EB6FF1F65
:1049800022B7FF1F04AEFF1F9A90FF1F0092FF1F68
:104990000AD7233CE094FF1F0000B443B7600BB676
:1049A0001092FF1F18AEFF1F26B7FF1F0C92FF1FAC
:1049B000070000802DE9F0432B4B2C49DFF8C49011
:1049C000DFF8C48083B00546186805F0E9FE284981
:1049D000284B294A0C881C8024490646106805F09B
:1049E000DFFE0746304603F0C5F806F0B5F80122B1
:1049F0000221FFF713FA064605F07AFEC9F8000017
:104A0000384603F0B7F806F0A7F802220321FFF7B3
:104A100005FA240204F4FE44F6B22643044605F0E7
:104A200067FEE703C8F8000000220F23012404FA00
:104A300003F101331B2B42EA01024FF00101F6D1D1
:104A40000E4B3A4042EA060400221A811A691D8080
:104A5000DC6099700A4F00920FCB3C60FEF768FC57
:104A600003B0BDE8F08300BF50A5FF1F0000204148
:104A7000F8ADFF1F4EADFF1FB090FF1F18AEFF1F18
:104A80000C92FF1FECADFF1F40B7FF1F45F206025F
:104A9000904210B57FD003461ED845F202029042E4
:104AA00075D02BD8B0F5A04F49D06AD8B0F5006FBB
:104AB00053D100297FD0012938D1454B454A1B7875
:104AC000032B28BF0323032B13702FD14FF4006057
:104AD000BDE81040FEF7D6BC45F2F102904232D05C
:104AE00017D845F20802904225D058D345F2090262
:104AF000904232D1BDE81040FFF786BE45F2040275
:104B0000904214D023D845F20300BDE81040FFF7CF
:104B100003BB45F2F302904208D046D34FF2011294
:104B200090421AD1BDE81040FFF71EB910BDBDE894
:104B30001040FFF743BBBDE81040FFF705BEBDE8DE
:104B40001040FEF7D7BDBDE81040FEF7DDBF45F2CF
:104B50000500BDE81040FFF7FDBC1C4610211E48B3
:104B600002F0FCFB2146002310221C4800F00AFE44
:104B700008211B4802F0F2FB1848BDE8104000F085
:104B8000F1BD45F20100BDE81040FEF7A5BEBDE84D
:104B90001040FFF743BABDE81040FFF75BBD45F298
:104BA0000700BDE81040FEF709BF45F2F200BDE87E
:104BB0001040FFF7FFBE064B064A1B78032B28BFA9
:104BC0000323032B1370B1D1BDE81040FEF7ECBBFB
:104BD0006C87FF1F45ADFF1F60C400007887FF1F73
:104BE00074C400002DE9F041994CA368C3F3172366
:104BF000272B86B000F05B8214D94A2B67D041D8AE
:104C00002C2B00F0CC8040F2EF803E2B00F00C8289
:104C1000412B04D18F4B1B78002B40F0B08306B0A2
:104C2000BDE8F081162B00F0778240F2C1801E2B88
:104C300000F0828040F25081212B00F0B481242BBF
:104C4000EDD1844B1B78002BE9D0834B834D94F836
:104C50002060228A618AA08AB4F816E02E70278B21
:104C6000668B1A80A58BE28B59809880002145F2D3
:104C7000F100A3F806E01F815E819D81DA81FFF7D4
:104C800005FFCCE7AD2B49D040F2C080B52B00F03A
:104C9000F081FD2BC3D1724B227B724F1A7004F14D
:104CA0000D053D3428686968AA68EB683E460FC662
:104CB0001035A5423746F5D12A886B4B328000214A
:104CC00032224FF4A0401A80FFF7E0FEA7E7614BC5
:104CD0001B78002BA3D0654FB4F91C00644D654AC6
:104CE0003880E7686449654B2F60654E2569E78B1E
:104CF0001560A26965690D601A60378005F0FCFCDB
:104D0000604B0246002145F20500DA60FFF7BEFE67
:104D1000002145F2F200FFF7B9FE80E74D4B1B780A
:104D2000002B3FF47CAF584BE2681A60002145F23B
:104D30000600FFF7ABFE72E7464B1B78002B3FF4F3
:104D40006EAF524B5249534D626AE769266A1A6048
:104D50000F602E6020695049DFF874814F4E05F0D6
:104D60001FFD4F496769A5694E4C05F0CDFD4A49C5
:104D7000C8F80000384605F013FD494905F0C4FDA8
:104D800045493060284605F00BFD454905F0BCFD5E
:104D90000021206045F20600FFF778FE3FE72D4B2B
:104DA0001B78002B3FF43BAF3F4BA2891A7036E7CC
:104DB000012B00F0C282C0F04982022B7FF42FAF9A
:104DC000244B1B78002B3FF42AAFE2682369374954
:104DD000374864690460C1E9002313433FF41FAFFF
:104DE000344B01221A701AE72A2B7FF418AF194BA3
:104DF0001B78002B3FF413AFA3892F4A1380002B9D
:104E00003FF40DAF2D4B01221A7008E7932B7FF46E
:104E100006AF104B1B78002B3FF401AF94F82C30F9
:104E2000DFF8B0E0264E274D2749678DE26894F8F9
:104E30002F008EF8003037802A600870002B00F0B9
:104E4000D682012B7FF4EBAE204B1A80E7E600BF41
:104E5000B490FF1F78B6FF1FF8B6FF1F9890FF1F92
:104E60004DB6FF1F6893FF1F9C90FF1FFC91FF1F13
:104E700050A5FF1F48B6FF1FB090FF1F8CB6FF1F45
:104E8000F8ADFF1FA0B6FF1F1CB7FF1F78B8FF1FAC
:104E9000DC94FF1F48A5FF1F0000344344B7FF1FE9
:104EA000DB0F494034B7FF1F46ADFF1FC0ADFF1FEA
:104EB00094B6FF1FE4B6FF1F88B6FF1F7CB8FF1F24
:104EC00050B6FF1F48ADFF1F58A5FF1F32B7FF1F89
:104ED00084B8FF1F36AEFF1F182B7FF4A0AEA24B85
:104EE0001B78002B3FF49BAE94F828309F48A04AD3
:104EF00094F829100370022B11703FD99D4E606900
:104F00009D4D9E4F3060A6699D4A2E60E5699D4982
:104F10003D60278C17809C4B678C0F809B4AA78C29
:104F20001F809B49E78C17809A4BD4F82A700F603A
:104F3000994AD4F82E701F609849994BD4F8327072
:104F40001760D4F83A20D4F836701A600F6005F074
:104F5000D3FB9449944C05F0D7FC034623603046BC
:104F600005F0CAFB8F4905F0CFFC03466360284675
:104F700005F0C2FB8D4905F0C7FCA06000214FF48D
:104F80000060FFF783FD01214FF40060FFF77EFD15
:104F9000002145F20200FFF779FD002145F20400EF
:104FA000FFF774FD3BE6704B1B78002B3FF437AEE8
:104FB0006E4B1B78022B7FF632AE7D4F20697D4E03
:104FC0007D4D386067697D4A3760A6697C4B2E60ED
:104FD000E56915607B49258C7B4A1D807B4B658C80
:104FE0000D80A18CE58C11801D8005F085FB6D493D
:104FF0006D4C05F089FC03462360384605F07CFBC8
:10500000684905F081FC03466360304605F074FB97
:10501000664905F079FC6E4BA060A3FB05304009A2
:1050200005F06AFBE060FAE54F4B1B78002B3FF47C
:10503000F6AD684DE668684B2E60684826691E60CC
:10504000674A268C6749684F684D694B0680668CB5
:10505000A08C1680D4F814E0A669E26908800021CB
:1050600045F20900C7F800E02E601A60FFF70EFD58
:10507000D5E53D4B1B78002B3FF4D1ADA0895D4DAC
:10508000FDF7AEFF2880E089FEF724F82B885A4907
:1050900045F208229342088040F2AF81574B062226
:1050A0001A70002145F20800FFF7F0FCB7E52E4B1F
:1050B0001B78002B3FF4B3AD514F238D5149524A19
:1050C0003B8094F82E700F70504E678D1780504DB6
:1050D00094F82F7037704F4894F830702F704E4905
:1050E000E76807604D4A27690F604D4EA7694D4D2F
:1050F0004D48E1691760B3F5807F226A646A3160C8
:105100002A60046000F28F814848013B00EBC30431
:1051100040F83310626082E5134B1B78002B3FF49C
:105120007EAD04F114030FCB414D424FDFF818E17F
:10513000414E85E80F00638A4049E268208ACEF834
:1051400000201024B3F5B27F3C8030800B8000F04B
:105150005181B3F5B67F7FF462AD3949394B0A60AE
:1051600001221A705BE500BF78B6FF1F6C87FF1F36
:1051700032AEFF1F3892FF1F84B6FF1FD8ADFF1F4E
:10518000D2B6FF1FE2B6FF1FEC94FF1F9A90FF1FDD
:10519000D894FF1F18B7FF1F44B6FF1FFCADFF1FB9
:1051A000E8ADFF1F8096184BA0B6FF1F00007A44A1
:1051B000E0ADFF1FF4B6FF1F3CAEFF1F2CADFF1F7D
:1051C00038B7FF1F3AB7FF1F3CB7FF1F0492FF1FFE
:1051D0001F85EB51D0ADFF1F2892FF1FEA91FF1FE3
:1051E0004EB6FF1F3CA5FF1FF891FF1FC8B6FF1F5B
:1051F000A493FF1F9CB6FF1F2EAEFF1FEE94FF1F50
:1052000088B6FF1F31B7FF1FDEADFF1F98B6FF1F27
:10521000F791FF1F28B7FF1FF0ADFF1FF4ADFF1F71
:105220001492FF1F1892FF1F1C92FF1F40AEFF1F1A
:10523000B8B6FF1F9C90FF1F2092FF1F52B6FF1FA2
:1052400034A5FF1F20B7FF1F2492FF1F237C9F4917
:105250005A1F012A0B707FF6E2AC1B2B3FF4DFAC28
:105260009B4A617C106801909A489B4D019E9B4F20
:1052700006609B48E26829703B70A1F10C01994BD4
:10528000DFF8CCE20260B1FA81F1A07C1870490924
:10529000954B8EF80010954E217D954D954F94F8C5
:1052A00013E01970140CC3094FEA126287F800E08A
:1052B00034702A700ED0904B1A785AB98F49904AA0
:1052C000086810604868506088689060C968D1605C
:1052D00001221A708B4D002145F20100FFF7D6FB29
:1052E0002C78002C7FF49BAC874E884833880921AA
:1052F0000133338002F032F83188854800F082FAB9
:105300002146844802F02AF8814800F02BFA3388BD
:10531000022B7FF684AC01230C217F482B7002F016
:105320001DF87B4800F01EFA7C4902A800F0B2FA92
:1053300002A800F06FFA348071E4724B1B78002BE6
:105340003FF46DAC608B764DFDF7A4FD2880A08BFB
:10535000FDF71CFE2B88734945F208229342088012
:1053600056D9714B06221A70002145F20300FFF74F
:105370008DFB002145F20700FFF788FB4FE46B4BE4
:105380006B4D94F83460208A618AA28AE78A2E7075
:105390001880268B658BA08B59809A80E18B228C9C
:1053A000DF801E81678CA68C5D819881E58C208DC5
:1053B000D9811A82618DA28D5F829E82DD8259839E
:1053C0009A831883E08D5B4F218E5B4E5B4DD883B3
:1053D000608E1984012294F83540588400214FF2E0
:1053E00001103C7032702A70FFF750FB17E4544BE9
:1053F0001A8014E4534B1A6011E444F2A012934251
:105400002AD9514B1A78062A39D005221A7048E653
:1054100044F2A01293420FD9434B1A78062A2BD09C
:1054200005221A70A0E72A21484801F097FF384862
:1054300000F098F9FFF7F3BB43F23812934228D8F3
:1054400042F2D002934232D841F268029342364B84
:1054500038D800221A7087E743F23812934211D8E5
:1054600042F2D00293421BD841F268029342364B7B
:1054700024D800221A7014E604221A7074E7042259
:105480001A700EE6304B1A78052AF8D103221A70EA
:1054900007E6254B1A78052AEED103221A7063E736
:1054A000294B1A78042AF1D102221A70F9E51E4B11
:1054B0001A78042AF1D102221A7055E71A78032AC1
:1054C000D7D0F1E71A78032AC3D0F4E7D0B6FF1F8C
:1054D0008CB8FF1F54ADFF1F74B8FF1FB8ADFF1F7E
:1054E000E894FF1F99B6FF1F40B6FF1FD594FF1F1A
:1054F00039AEFF1F80B6FF1F59A5FF1FA0B6FF1FC3
:10550000D891FF1F78B6FF1FD4ADFF1F80C40000E5
:105510007887FF1F70C400008CC400009CC400008A
:105520009AB6FF1F2CAEFF1F30B7FF1F54B6FF1FE8
:10553000F1B6FF1FF691FF1FDCADFF1F38ADFF1F57
:10554000F491FF1F30A5FF1FEE94FF1FACC40000B5
:10555000E4ADFF1F70B51B4C94F8685BCCB09DB9EF
:10556000194B1B7873B1194D194C2B6801932268A4
:10557000019B9B1A0A2B05D9FEF7A2F82B68029310
:10558000029B23604CB070BDD4F8601B03A801F2ED
:10559000231640F22312C4F8606B00F005FA04F6FB
:1055A0005E339E4205F1FF3503A940F223120948FC
:1055B00028BFC4F8604B84F8685B00F0F5F9FFF78A
:1055C00011FBCDE7C499FF1F78B6FF1F8CB8FF1FF2
:1055D000B899FF1FB490FF1F70B588B0FBF730F883
:1055E00018B9374D2B78052B58D0364D364A2B68D5
:1055F0000193019B12689B1A012B01D9FFF7AAFFA7
:10560000324B1B78002B3FD1314C23784BB12B68A8
:10561000304A02931168029B41F270725B1A934206
:105620001AD82D4B1B784BB12B682C4A0393039B44
:10563000116824485B1AB3F5FA6F28D8237813B1A0
:10564000274C2378DBB1FDF7C1FB264B0E201978E0
:1056500000F03EFB08B070BD2A21002622482670CB
:1056600001F07CFE214800F07DF8214904A800F0FB
:1056700011F904A800F0CEF81E4B1E80D1E7FCF70C
:105680007BFD01232370DEE7FAF7FEFEBCE703682B
:105690000493049B1360FBF735FFCFE70E2104460C
:1056A000154801F05BFE114800F05CF8124904A8AF
:1056B00000F0F0F804A800F0ADF82C7095E700BFFA
:1056C000BC99FF1F8CB8FF1F90B6FF1F50ADFF1F86
:1056D00078B6FF1F54ADFF1FE4ADFF1F3CADFF1FA9
:1056E000D094FF1F7EB8FF1FE8C400007887FF1F1B
:1056F00014C50000D4ADFF1FD8C40000FFF76CBF75
:10570000044B0022C3F8603BC3F8643B83F8682B6A
:10571000704700BFC499FF1F2DE9F0438C688BB020
:10572000ECB10025064689462F462B46212201A9C9
:10573000484600F0D1F83268202C234628BF2023A9
:10574000D2F8048001A91A4630461D44E41AC04725
:105750000744002CE9D138460BB0BDE8F08327465A
:10576000F9E700BF00B5064A036812885B6883B09A
:1057700001A9ADF804200222984703B05DF804FBAC
:1057800088D10000F0B507468BB0002A33D0012A3B
:1057900008BF0A2251B3212400E0F4B2B1FBF2F5B4
:1057A00002FB1511C8B2092900F1300198BFC8B237
:1057B0000AA988BF3730214488BFC0B201F8240C41
:1057C000661E2946002DE8D133B1013CE4B20AAB94
:1057D00023442D2203F8242C3B6801AA11195B688D
:1057E0003846C4F1220298470BB0F0BD30228DF844
:1057F00025202124E8E70368C9B21B6898470BB04D
:10580000F0BD00BF0029BABF49422D2300230A2260
:10581000FFF7B8BF10B50446006805F019FA204636
:1058200010BD00BF38B543688B4201D3012038BD9D
:105830000D4604460131006805F0B2FD0028F6D09F
:10584000A36884E82100002BF0D10370EEE700BFCD
:10585000F8B50446154632B9036803B11A7000233F
:10586000A3602046F8BD0E461146FFF7DBFF074652
:1058700048B9206810B105F0EBF927600023636098
:10588000A3602046F8BDA5603146206806F076F991
:10589000E7E700BF38B50023044603604360836038
:1058A000037341B108460D4606F0CAF9294602467F
:1058B0002046FFF7CDFF204638BD00BF38B505466E
:1058C00008460C4606F0BCF9214602462846BDE8CB
:1058D0003840FFF7BDBF00BFB2B1A9B138B5846889
:1058E0009C420ED9E41A013A0D469442016828BF41
:1058F000144619442246284606F010FA00232B5578
:1059000038BD00230B7038BD704700BFF8B5836801
:1059100093420ED90368541C00221F5D1A55066875
:105920000546304606F02EFA375510B12B68C01ADE
:10593000F8BD4FF0FF30F8BD8268013AFFF7E6BFCF
:105940009A42F8B504460E4602D911461A460B464D
:105950000021A1602173B0682160824261600ED88D
:10596000834228BF03461D4633685F5D595533683F
:10597000991806D02046FFF7A1FF33685F552046EF
:10598000F8BDA1605F55FAE710B58B680446FFF7D4
:10599000D7FF204610BD00BF08B5FDF7E9FBFFF7B4
:1059A000ADFE01F0DFFDFAE7844641EA000313F0A3
:1059B00003036DD1403A41D351F8043B40F8043B16
:1059C00051F8043B40F8043B51F8043B40F8043BD9
:1059D00051F8043B40F8043B51F8043B40F8043BC9
:1059E00051F8043B40F8043B51F8043B40F8043BB9
:1059F00051F8043B40F8043B51F8043B40F8043BA9
:105A000051F8043B40F8043B51F8043B40F8043B98
:105A100051F8043B40F8043B51F8043B40F8043B88
:105A200051F8043B40F8043B51F8043B40F8043B78
:105A300051F8043B40F8043B403ABDD2303211D318
:105A400051F8043B40F8043B51F8043B40F8043B58
:105A500051F8043B40F8043B51F8043B40F8043B48
:105A6000103AEDD20C3205D351F8043B40F8043B18
:105A7000043AF9D2043208D0D2071CBF11F8013B16
:105A800000F8013B01D30B8803806046704700BFDC
:105A9000082A13D38B078DD010F003038AD0C3F1EB
:105AA0000403D21ADB071CBF11F8013B00F8013BCD
:105AB00080D331F8023B20F8023B7BE7043AD9D38C
:105AC000013A11F8013B00F8013BF9D20B78037061
:105AD0004B7843708B7883706046704708B5104CE4
