:1000000000800020BD010000D56B00008D6B00005A
:100010008D6B00008D6B00008D6B00008D6B000000
:100020008D6B00008D6B00008D6B0000D56B0000A8
:10003000D56B00008D6B0000658E0000698E00009E
:10004000D56B0000D56B0000D56B0000D56B0000B0
:10005000D56B0000D56B0000D56B0000D56B0000A0
:10006000D56B0000D56B0000D56B0000D56B000090
:10007000D56B0000D56B0000D56B0000D56B000080
:10008000D56B0000D56B0000D56B0000D56B000070
:10009000D56B0000D56B0000D56B0000D56B000060
:1000A000D56B0000D56B0000D56B0000D56B000050
:1000B000D56B0000D56B0000D56B0000D56B000040
:1000C000D56B0000D56B0000D56B0000D56B000030
:1000D000D56B0000D56B0000D56B0000D56B000020
:1000E000D56B0000D56B0000D56B0000D56B000010
:1000F000D56B000025750000D56B00007D7C0000ED
:10010000D56B0000D56B0000D56B0000D56B0000EF
:10011000D56B0000D56B0000D56B0000D56B0000DF
:10012000D56B0000D56B0000D56B0000D56B0000CF
:10013000D56B0000D56B0000D56B0000D56B0000BF
:10014000D56B0000D56B0000D56B0000D56B0000AF
:10015000D56B0000D56B0000D56B0000D56B00009F
:10016000D56B00003D7F0000D56B0000D56B000013
:10017000D56B0000D56B0000D56B0000D56B00007F
:10018000D56B0000D56B0000D56B0000D56B00006F
:10019000D56B0000D56B0000D56B0000D56B00005F
:1001A000D56B0000D56B0000D56B0000D56B00004F
:1001B000D56B0000D56B0000D56B0000564B4CF2A0
:1001C000205210B51A804DF628121A8000BF00BFC9
:1001D00006F004FD514B4FF010621A60504A9A60CD
:1001E000504ADA60504A136813F4807304D14F49BF
:1001F0000B604FF4A85313604D4B1A78110703D5C9
:100200001A7842F008021A704A4B4B492A221A7097
:100210004A4A4B4B8B4204D252F8040F43F8040B6A
:10022000F8E7484B484900228B4202D243F8042B9E
:10023000FAE74649464A002352F8230041F82300D2
:1002400001336F2BF8D1434B434A802103F8011B44
:100250009342FBD1414B3D4A1A60414B8A221A70AE
:10026000A3F5805324225A70A0221A709A7992071B
:10027000FCD59A79D406FCD43A4A937903F00C035E
:10028000082B384BF9D103221A7140225A719A79FE
:100290009006FCD5334A9179324B4906FBD5324A58
:1002A000324911600221516020221A709A7902F0BD
:1002B0000C020C2AFAD12E4B2E4A1A602E4B2F4AD2
:1002C0001A6000225A60072243F8042C2C4AC3F813
:1002D0000C2D62B606F088FD144B1B68DA0705D5B5
:1002E000284806F015FD284B284A1A60284B1B7831
:1002F0005B0609D5244C254B22689A4204D121483B
:1003000006F006FD002323600CF0F2FA06F06CFC08
:1003100009F090F8FEE700BF0E2005403080044051
:10032000823F04000100002B10D0034014D0034092
:1003300002D0074000E007401092FF1F503201003A
:100340002087FF1F1092FF1FD8C3FF1F0082FF1FCF
:100350000000000000E400E05FE400E008ED00E0E1
:100360000050064000400640448004400000030165
:1003700004800440C010050014E000E0FF76010096
:1003800000002020364C525F1CE00340A5C3945A65
:1003900000F00740FFFFFFFFFFFFFFFFFFFFFFFF32
:1003A000FFFFFFFFFFFFFFFFFFFFFFFFFFFFFFFF5D
:1003B000FFFFFFFFFFFFFFFFFFFFFFFFFFFFFFFF4D
:1003C000FFFFFFFFFFFFFFFFFFFFFFFFFFFFFFFF3D
:1003D000FFFFFFFFFFFFFFFFFFFFFFFFFFFFFFFF2D
:1003E000FFFFFFFFFFFFFFFFFFFFFFFFFFFFFFFF1D
:1003F000FFFFFFFFFFFFFFFFFFFFFFFFFFFFFFFF0D
:10040000FFFFFFFFFFFFFFFFFFFFFFFFDEF9FFFF23
:1004100010B5054C237833B9044B13B10448AFF33E
:1004200000800123237010BD1092FF1F0000000008
:100430004C320100084B10B51BB108490848AFF316
:1004400000800848036803B910BD074B002BFBD0A0
:10045000BDE81040184700BF000000001492FF1FC5
:100460004C3201001092FF1F000000002DE9F04FF8
:100470000468DFB004EBC2039C4205900292039132
:10048000036002D9436801334360029BC4F3C5048F
:10049000002B00F0DA80059B2833049303E0029BD5
:1004A000002B00F0D280029D039E0498C4F140030B
:1004B000AB4228BF2B46ED1A0295354620441D4419
:1004C0001C441A463146039506F0C6FA402CE6D184
:1004D000049A0EABD5789478507812F8041BD97032
:1004E0001D705C7098701EA904339942F2D1059A70
:1004F000936806931346D26807921A4619461B69F9
:10050000089353690993CB690B930B6A92690C9317
:100510000DF1740A4B6A0A920D9352460DAB53F8D3
:10052000041F42F8041F9A45F9D10DF1AC080DF1F2
:10053000980C0DF1780E2DAF5646102558F8044F43
:100540005EF8043F56F8042F5CF8041F4FEAF440AD
:10055000114480EA74404FEAB34280EA942082EA70
:10056000F312014482EAD30301350B44402D47F8CE
:10057000043FE3D1364B0D9ADFF8DC90DDF824B070
:10058000DDF81CE0089F069EDDF830C0DDF82C8009
:1005900000920A9D01930BE0CDF800C0C446A84626
:1005A0001D4659F8043F0193BB467746B6460646BA
:1005B0004FEAF52205EA080182EAB5122CEA0504A1
:1005C00082EA75624C405AF8041F009B144487EA83
:1005D0000E0221444FEA763002EA060407EA0E02D0
:1005E00019445440019B1B4A80EAB60080EAB65089
:1005F000194420444A4501EB0B030844CCD1099926
:10060000069A39440F460A9919440B9B2B4402441D
:100610001D460C9B1446079A4344324418460D9BD2
:100620001646089A634472448E461946059B9C60A0
:10063000DE601A615F61C3F818E0DD61186259621B
:10064000029B0024002B7FF42EAF5FB0BDE8F08F3B
:10065000982F8A4220170100241601002DE9F0414D
:100660003D4DAA78EC78FE2A5CD0012C0BD92B19D1
:10067000DB7A13B107E0DB7A2BB9013CE4B2012C41
:1006800005EB0403F7D1AB68344E334F3270C3F33C
:1006900017231A121814A97995F8048095F805E023
:1006A0003272F371EA792B7A70723171727107F1DB
:1006B0000C01224606F10A00747086F803E0B3715B
:1006C00086F8028006F0C8F904F10A0118F0010F5B
:1006D00006EB010210D10921288810700012507019
:1006E00000231944033121441D4B1C4889B2BDE845
:1006F000F041198007F0BEB93B887354D7F816E172
:10070000D7F81A61D7F81E5197F82201C2F802E013
:100710001B125370C2F806600D23C2F80A50907382
:100720000921DEE7AB680D4EA97995F807E02F7A2D
:100730003270C3F317232246B170B01D05F10C01CE
:100740007371747086F803E0377106F085F9A21DA5
:1007500032440521C0E700BFFC9FFF1F3492FF1FFA
:100760009EA1FF1F2DE9F04FADF50F7D07F004FAB4
:10077000002838D007F010FAAE4BC1B20391DB78F5
:10078000AC4900220A700F2B00F2BF81DFE813F0A2
:10079000B201B2019401880171015A013A012301A9
:1007A0000301E200BE009E0056002F002F00100043
:1007B000A04BA14A5B7B049211465E1E9D4A9DF8A8
:1007C0000C00CB1AF6B2567383F82301002E00F00A
:1007D0003782CA789949CA70964A0023937007F005
:1007E000CBF90028C6D10DF50F7DBDE8F08F0E2B9B
:1007F000914B049305D01B88039AB2EB132F00F0A2
:1008000087868C4A02231370049A9DF80C10137982
:1008100082F8151113F0010F8749864B00F0D7813C
:1008200084481B780F22C270022B4FF00D024273D6
:1008300000F0A5860023CA780370CBE77E4B0493B3
:100840009C687F4DFD20C4F3172403469E2200219F
:100850000AE0581E43185A1C5208884202EB420212
:1008600040F2908155F82220013394424FEA53031D
:10087000EFD31946EED8944200F07D8100210B465B
:10088000049C2088434083EA0313DBB2DA0082EA47
:10089000032282EA102282EA1313DAB22380039B36
:1008A0009A4200F01F86634B0E22DA70049B9DF87B
:1008B0000C2083F81421604C29B15E4B8A791B7996
:1008C0009342C0F01486049BDA7883E7594B039D6A
:1008D0001979594B574C1E460B4401311D73308812
:1008E0002B46434083EA0313DBB2DA0082EA032299
:1008F00082EA1020F278C9B280EA13139142217182
:1009000033807FF467AF0C23E37063E74A4B039AAD
:100910001C88624082EA0212D2B2D1001D4681EAEE
:1009200002219B68000400F47F0081EA142140EA60
:10093000132381EA1211EA786B72C3F307201B0CB0
:10094000A872EB722980002A00F0228139490B231A
:10095000CB703FE7384B039A1C88624082EA021250
:10096000D2B21D46D1009B68000200F47F4081EAAC
:10097000022140EA132381EA142181EA1212190CA0
:10098000E9722C496B72C3F307200A232A80A872EC
:10099000EA78CB701EE72849264B08881C7B039B0E
:1009A0004B72434083EA0313DBB2DA0082EA03228C
:1009B00082EA102282EA13130020E2070B80887279
:1009C000C8721C4B40F1FF80CA78002A00F02E81CB
:1009D0000B21D970FEE6184B19881C461846039B5C
:1009E00003724B4083EA0313DBB2DA0082EA03228C
:1009F00082EA112282EA131323800E4BE278082147
:100A0000D970E7E60C4B19881C461846039BC37146
:100A10004B4083EA0313DBB2DA0082EA032282EA64
:100A2000112282EA13132380024BE2780721D97046
:100A3000D0E600BF3CA5FF1F94BAFF1FFC9FFF1F1D
:100A4000241701009B4B19881C461846039B837191
:100A50004B4083EA0313DBB2DA0082EA032282EA24
:100A6000112282EA13132380934BE2780621D97076
:100A7000B0E6904B19881C461846039B43714B40C7
:100A800083EA0313DBB2DA0082EA032282EA11224C
:100A900082EA13132380884BE2780521D97099E606
:100AA000844C9DF80C30237110F0FE0F74D08249F5
:100AB000E2780123CB708DE67E497F4B039D088849
:100AC0001C7BCD702B46434083EA0313DBB2DA0074
:100AD00082EA032282EA102282EA13130B80764B09
:100AE0000022E0071A716AD505200A714A71D87090
:100AF0002A466FE6039BFD2B00F0DF84039BFE2B51
:100B000000F0FF846B4BDA7864E66A4B04931A4674
:100B10006A4BD278DA70684B00249C70A31E012BBC
:100B200017D9002C3FF422AE654B01221A701DE646
:100B3000624A9DF81410D1705F490023022C8B701B
:100B4000ECD1049890F8151190F8143143EA012380
:100B500013800398584901230022FD288B700A70E6
:100B600001D0CB7002E6049D02204FF6FF73EA70BD
:100B7000C8702B80FAE5534B01EB410103EB810177
:100B80000B797DE64F4B01EB410253F8222072E6D0
:100B900049490C23CB701DE62088039BE278434033
:100BA00083EA0313DBB2D90081EA032181EA102131
:100BB00081EA13132380404B0421D9700AE60321F4
:100BC000039AD97006E60920CA78D87002E61B6934
:100BD0003BB11B6B002B2CD089683748090A98471A
:100BE00038B3354B1C78344D324934480123EB700F
:100BF00040F2231205F030FF049BDB780593012CB3
:100C000096D12D4B049A2C491B8992794A7103B9CC
:100C10004B8129482949013303819DF81430CB7059
:100C20000022274B827001221A709FE50C21D97097
:100C3000D0E5214B1C78022CD5D003241C70D2E7C0
:100C40001369526910931D461192002B00F0908495
:100C500055F8100F1C4C37941C4C6968AA68EB6857
:100C60001B4F38941B4C3D943A97DFF874E01A4FB1
:100C7000DFF870C03C973EACCDF8ECC0CDF8E4E0B6
:100C80000FC4049B2869DA786969EB6905921746F5
:100C9000AA6935963D460A350FC4049B0295ED00BE
:100CA00005F580750D4E3696023334950693202453
:100CB0001EE000BF94BAFF1F3CA5FF1FFC9FFF1F53
:100CC00050B1FF1F2417010085AE67BB72F36E3C65
:100CD0007F520E5119CDE05BABD9831F67E6096ADD
:100CE0003AF54FA58C68059B029B002B00F0CD8048
:100CF000029D069EC4F14003AB4228BF2B46ED1A6D
:100D000002953EA8354620441D441C441A463146EF
:100D1000069505F0A1FE402CE6D134AA22AB92F84C
:100D20002B0092F82A101870597092F8290092F846
:100D30002810D970987032A90433994202F1040244
:100D4000EDD1369B0793379B0893389B0993399BCA
:100D50000A933A9B0B933B9B0C933C9B0D930DF595
:100D60009A7A3D9B0E93524621AB53F8041F42F8EA
:100D7000041F31A98B42F8D10DF5B6780DF5AC7C86
:100D80000DF59C7E5DAF5646302558F8044F5EF851
:100D9000043F56F8042F5CF8041F4FEAF440114456
:100DA00080EA74404FEAB34280EA942082EAF31268
:100DB000014482EAD3030B44013D47F8043FE4D1E8
:100DC0000E9ADFF8B892A94BDDF828B0DDF820E0E4
:100DD000099F079EDDF834C0DDF8308001920B9D3D
:100DE0000AE059F8043FCDF804C0BB46C446774634
:100DF000A846B646254606464FEAF52205EA08010A
:100E000082EAB5122CEA050482EA75624C405AF86F
:100E1000041F144421441944019B87EA0E024FEA3F
:100E20007630194402EA060480EAB60007EA0E02A8
:100E30008F4B544080EAB65020444B4501EB0B04E5
:100E40000844CED10A99079A39440F460B9939972D
:100E500021440C460C993A940244294413460D4609
:100E6000089A0D9936933244414416460846099A29
:100E70000E99029B37967244614438923B953C90A0
:100E80003D910024002B7FF433AF349C04F1100318
:100E90009C42349300F27C83764B07930223C4F385
:100EA000C504069303E0069B002B00F0D080069D4E
:100EB000079EC4F14003AB4228BF2B46ED1A0695AE
:100EC0003EA8354620441D441C441A463146079529
:100ED00005F0C2FD402CE6D134AA22AB92F82B00DB
:100EE00092F82A101870597092F8290092F8281078
:100EF000D970987032A90433994202F10402EDD1FD
:100F0000369B0893379B0993389B0A93399B0B9325
:100F10003A9B0C933B9B0D933C9B0E930DF59A7A59
:100F20003D9B0F93524621AB53F8041F42F8041F18
:100F300031A98B42F8D10DF5B6780DF5AC7C0DF5E5
:100F40009C7E5DAF5646302558F8044F5EF8043F4E
:100F500056F8042F5CF8041F4FEAF440114480EA6D
:100F600074404FEAB34280EA942082EAF3120144CB
:100F700082EAD3030B44013D47F8043FE4D13B4BE5
:100F80000F9ADFF8F890DDF82CB0DDF824E00A9F26
:100F9000089EDDF838C0DDF8348001920C9D029384
:100FA0000BE0CDF804C0C446A8461D4659F8043FDE
:100FB0000293BB467746B64606464FEAF52205EA57
:100FC000080182EAB5122CEA050482EA75624C40F7
:100FD0005AF8041F019B144487EA0E0221444FEA89
:100FE000763002EA060407EA0E0219445440029BD6
:100FF0001F4A80EAB60080EAB650194420444A45A8
:1010000001EB0B030844CCD10B99089A39440F46E5
:101010000C99399719440B460D993A930244294487
:1010200014460D46099A0E99069B36943244414463
:10103000164608460A9A0F993796724461443892C8
:101040003B953C903D910024002B7FF430AF349CC5
:1010500004F138039C42349300F29682064B0793C6
:101060000723C4F3C50406930EE000BF982F8A42FD
:1010700020170100A8BBFF1FAABBFF1F24160100F9
:10108000069B002B00F0D080069D079EC4F1400314
:10109000AB4228BF2B46ED1A06953EA835462044A4
:1010A0001D441C441A463146079505F0D5FC402CDA
:1010B000E6D134AA22AB92F82B0092F82A101870CD
:1010C000597092F8290092F82810D970987032A9B6
:1010D0000433994202F10402EDD1369B0893379B09
:1010E0000993389B0A93399B0B933A9B0C933B9B38
:1010F0000D933C9B0E930DF59A7A3D9B0F935246B0
:1011000021AB53F8041F42F8041F31A98B42F8D1D8
:101110000DF5B6780DF5AC7C0DF59C7E5DAF5646B1
:10112000302558F8044F5EF8043F56F8042F5CF859
:10113000041F4FEAF440114480EA74404FEAB3427E
:1011400080EA942082EAF312014482EAD3030B443A
:10115000013D47F8043FE4D18B4B0F9ADFF8309202
:10116000DDF82CB0DDF824E00A9F089EDDF838C0D9
:10117000DDF8348001920C9D02930BE0CDF804C0A1
:10118000C446A8461D4659F8043F0293BB4677461D
:10119000B64606464FEAF52205EA080182EAB5128C
:1011A0002CEA050482EA75624C405AF8041F019B40
:1011B000144487EA0E0221444FEA763002EA06041C
:1011C00007EA0E0219445440029B704A80EAB600B6
:1011D00080EAB650194420444A4501EB0B03084409
:1011E000CCD10B99089A39440F460C993997194478
:1011F0000B460D993A930244294414460D46099A28
:101200000E99069B369432444144164608460A9A83
:101210000F9937967244614438923B953C903D91CA
:101220000024002B7FF430AF349D0699C5F3C5042C
:10123000C4F177068023472206F03F060DF18900AE
:101240008DF888300BF0F0FE06F109021046069288
:1012500022AA1644359B33712A0AF2712A0E727142
:101260001A0C290CB27005EBC0029542B1714FEA1D
:101270001321F1704FEA136184BF0133359322AB20
:10128000357271703492079303E0069B002B00F0D7
:10129000D780069D079EC4F14003AB4228BF2B4672
:1012A000ED1A06953EA8354620441D441C441A46B6
:1012B0003146079505F0D0FB402CE6D134AA12AB9D
:1012C00092F82B0092F82A101870597092F82900A1
:1012D00092F82810D970987022A90433994202F12B
:1012E0000402EDD1369B0893379B0993389B0A93F0
:1012F000399B0B933A9B0C933B9B0D933C9B0E931A
:101300000DF59A7A3D9B0F93524611AB53F8041F8B
:1013100042F8041F21A98B42F8D10DF5B6780DF5DE
:10132000AC7C0DF59C7E5DAF5646302558F8044FD9
:101330005EF8043F56F8042F5CF8041F4FEAF440AF
:10134000114480EA74404FEAB34280EA942082EA72
:10135000F312014482EAD3030B44013D47F8043FF2
:10136000E4D1094B0F9ADFF82890DDF82CB0DDF8B6
:1013700024E00A9F089EDDF838C0DDF83480019231
:101380000C9D029312E000BF982F8A4220170100A3
:1013900024160100CDF804C0C446A8461D4659F8DD
:1013A000043F0293BB467746B64606464FEAF5220F
:1013B00005EA080182EAB5122CEA050482EA7562A0
:1013C0004C405AF8041F019B144487EA0E02214442
:1013D0004FEA763002EA060407EA0E021944544046
:1013E000029B8E4A80EAB60080EAB6501944204437
:1013F000914501EB0B030844CCD10B99089A394471
:101400000F460C99399719440B460D993A930244AB
:10141000294414460D46099A0E99069B3694324487
:101420004144164608460A9A0F9937967244614419
:1014300038923B953C903D910024002B7FF429AFDE
:101440009DF8DB309DF8DA20754C9DF8D8008DF8BA
:1014500048308DF849209DF8D9309DF8DF208DF86F
:101460004A308DF84B009DF8DE308DF84C2004F2A8
:101470001D1112A806228DF84D300BF03FFD0028FB
:1014800000F08A80109B1B6B4BB1049A65489168F1
:10149000634C090A984700286AD1E3780593614BA9
:1014A00003241C705F4D5E495F48012340F2231204
:1014B000EB7005F0D1FAFFF7A2BB5A4B584A1B7BE1
:1014C000104623F0010357499DF80C400B734FF66B
:1014D000FF7354490380002202238470C270CB70D2
:1014E000FFF778B94F4A0D23D370FFF7DFB904F146
:1014F0000C00D21A184400210BF096FDE278FFF799
:1015000069B9484B464A1B7B104643F00103DAE7B2
:10151000444A01231370FFF777B90F28B2D8DDE9E9
:101520002267109B414AD3E9024592194FF000030C
:101530007B41AB4208BFA242A4D3119A049D00EBA9
:10154000C0041444EB79E3702B7A2371013084F8E2
:1015500002E0053410800B6823608B881099A3800B
:10156000D1E90223BB4208BFB24201D2C1E90267FE
:10157000049BDB7805932B4B01241C7092E72A4ACD
:10158000CB78D370FFF7DDBA359B0133359365E532
:10159000359B013335937FE404F2171100230022B9
:1015A000CDE92223119B08688D8894F816E12290DA
:1015B000ADF88C50002B3FF465AF18880028AED0F2
:1015C000E579267A069C04E094B2844203F109038B
:1015D000A3D0DF78AF4204F10102F5D11F79B74201
:1015E000F2D19F787745EFD1844296D0119B04EBDE
:1015F000C40423441C468EAD0022002365E9402329
:1016000054F8050F2860A388AB80D5E90023DDE9F5
:101610002267BB4208BFB2429DD333E720170100C7
:1016200094BAFF1F3CA5FF1FFC9FFF1F808D5B002E
:10163000828803780A4402EB1222D2B2828003B974
:10164000704700B583B00B460192009203480A46EA
:10165000034907F07FFD03B05DF804FBAC87FF1F73
:101660001823010038B590F82D303BB1826A137809
:10167000002183F02003137080F82D100E4D2C787C
:1016800034B100232B70002005F060FB204638BDEC
:1016900005F0D6FEC4B27D2CF5D105F0D1FEC0B266
:1016A0005E2807D0287005F0CBFEC0B25D28EAD0D6
:1016B0002870E8E77E24E6E72C92FF1F38B590F803
:1016C0002D30012B05460C4607D0816A0B7801208E
:1016D00043F020030B7085F82D007AB17E2C1BD0CF
:1016E0007D2C204612D005F00FFE28462146FFF73C
:1016F0009FFF0020BDE8384005F028BB204605F0DC
:1017000003FE0020BDE8384005F020BB05F0FCFDDD
:101710005D2005F0F9FDE8E77D2005F0F5FD5E2090
:1017200005F0F2FDE1E700BF2DE9F043394B83B04E
:101730001B6801930021019FA0F88C1A8E468846F1
:101740008C460E46034608E0B242A4BFA8461646A1
:101750000131822903F114031ED093F85D208DB26C
:10176000002AF5D0B0F88C4A9A6D0134A0F88C4A62
:1017700093F85690B3F85440BA1AC9EB0202B4F584
:10178000A04F12B2E0D16245E2DB01318229AE46C0
:10179000944603F11403E0D1DEB9BCF1000F2FD061
:1017A0000EEB8E0200EB8202734692F85420143A3C
:1017B000D2B2392A2CD803EB830300EB83036033C6
:1017C00093E80300144B18607046998003B0BDE89D
:1017D000F08308EB880200EB8202434692F8542023
:1017E000143AD2B2392A11D903EB830300EB8300F8
:1017F000C646026E094B70461A6003B0BDE8F0831E
:101800004FF6FF7E704603B0BDE8F0839E46D2E7F8
:10181000F046E9E754C1FF1F8893FF1F78B2FF1F0E
:1018200030B5224B5B7883B0012BADF8062004461F
:1018300030D0204601221021FFF740FF1C4D9DF8BB
:10184000061020460122FFF739FF9DF807102046B9
:101850000122FFF733FF297820460122FFF72EFFF0
:10186000697820460122FFF729FFA9782046012246
:10187000FFF724FFE97820460122FFF71FFF2179B7
:10188000C943C9B200222046FFF718FF0023A380F6
:1018900003B030BD0D4600227E21FFF70FFF294621
:1018A00000222046FFF70AFFC3E700BF4C94FF1F4A
:1018B00078B2FF1F38B51B4B5B78012B044625D04F
:1018C000194D204600223221FFF7F8FE29782046E4
:1018D0000022FFF7F3FE697820460022FFF7EEFEB4
:1018E000A97820460022FFF7E9FEE9782046002289
:1018F000FFF7E4FE297920460022FFF7DFFE697931
:1019000020460022BDE83840FFF7D8BE0D46002231
:101910007E21FFF7D3FE294600222046FFF7CEFEA8
:10192000CEE700BF4C94FF1F8893FF1FF8B58F00D0
:101930007D1800EB85051D4BB5F854201A804FF239
:1019400001139A420C46064616D0A2F11403DBB2EC
:10195000392B15D8164B01251B2130461D70FFF77A
:10196000A9FF144B00221A609A803C4406EB8404C1
:10197000002384F85D30F8BD0F4B5B78032B09D151
:101980000B4B00251B2130461D70FFF749FF0B4B09
:101990001D60EAE700227E21FFF790FE00221B2156
:1019A0003046FFF78BFEB5F85420CEE760BFFF1F2F
:1019B000B093FF1F8893FF1F4C94FF1F78B2FF1F47
:1019C00010B50446FFF7B0FE4FF6FF73984205D0FE
:1019D00001462046BDE81040FFF7A8BF10BD00BF7C
:1019E00030B5274B5B78012B83B034D090F82D3085
:1019F00004463BBB00250BE07E2820D0B4F84E30D7
:101A00005A1C92B22344054683F82E00A4F84E20B7
:101A100005F006FD88B12046FFF724FEB4F84E30ED
:101A20001F2B84BF03F1FF33A4F84E307E2DE3D18A
:101A30001B28E1D12046FFF7C3FF03B030BD0122D0
:101A40000023DFE7826A1378002183F020031370FC
:101A500080F82D10CEE70B4B1B78002BEDD00A4DF4
:101A60000A4C2B680093009B22689B1A122BE4D926
:101A7000FFF7A6FF2B680193019B2360DDE700BF02
:101A80004C94FF1FB293FF1F54C1FF1F54BFFF1F91
:101A9000F0B5002383B0A0F85030044604E0812D57
:101AA0002B46A0F8505024D094F85D605D1C14348F
:101AB000002EF4D1204CB0F88C5A2468019403EB2A
:101AC0008303A1F1140400EB8303E4B2019F013509
:101AD0000126392CA0F88C5A9F65A3F8541083F87E
:101AE000562083F85D601FD9144A12681A6603B045
:101AF000F0BDD0F87C3A044643B1114AA2FB031270
:101B0000120A4FF47A6101FB123242B933210D48B7
:101B100007F082F80C4807F005FBD4F87C3A013353
:101B2000C4F87C3A03B0F0BD084A92E80300186696
:101B3000A3F8641003B0F0BD54C1FF1F78B2FF1FBB
:101B4000D34D621084230100AC87FF1F8893FF1FD1
:101B50002C4B1B78F0B413B92B4B1B781BB32B4BBE
:101B60002B4A1B682B4D2C4C002B2DDBA2FB032397
:101B70005A0902EB4202002356002E6023701F46D2
:101B800000221346012505FA03F401331E2B42EA15
:101B90000402F8D13240214C42EA070323600022BC
:101BA000F0BCFFF775BF1E4A1268002A19DB184EF9
:101BB000184D194CA6FB0262520902EB4202560074
:101BC0002E6023701F46DBE75B42A2FB0332520903
:101BD00002EB4202560001232E6023704FF0804733
:101BE000CEE70B4D0B4C0C4B5242A5FB0252520957
:101BF00002EB42025600012226601A704FF0804725
:101C0000BEE700BF48B1FF1FB193FF1FF093FF1F56
:101C10001F85EB513092FF1FE89FFF1F78B2FF1F17
:101C20004CC1FF1F1D4B1B78F0B413B91C4B1B7824
:101C300023B31C4B1B681C4A1C4D1D4C002B1FDB87
:101C4000A2FB03235A0902EB4202560002232E6034
:101C500023704FF0004700221346012505FA03F4D4
:101C600001331E2B42EA0402F8D13240114C42EA01
:101C7000070323600122F0BCFFF70ABF0E4BD9E730
:101C80005B42A2FB0332520902EB420256000323DD
:101C90002E6023704FF04047DDE700BF48B1FF1FC3
:101CA000B193FF1F6C93FF1F1F85EB51C8BFFF1F30
:101CB000E89FFF1F78B2FF1F68BFFF1F2DE9F04F9D
:101CC00083B04D4A8DE80300002303E00133322B3B
:101CD00000F08F8012F8011F0029F7D1474A9BB20C
:101CE0001380474C47484849E2185FFA83F880F868
:101CF00000800023204653709370D37013710BF053
:101D0000B3FC00286AD1414B01241C70404B414A6E
:101D10001B7813704048414B394983F8008008F123
:101D20000402DFF808B1DFF80C91824604F094FE5B
:101D30003B4B00271C708BF800703A460AEB0203FD
:101D400002F1030C1AF802705C781AF80C6089F83A
:101D500001404FEA076E24040EF0FE4E89F803603E
:101D600006F07F069D7889F8025004F4FE044EEADE
:101D70000606930826432B4C89F8007001332D0288
:101D80001A4605F4FE452370274B3543C4459DE8AC
:101D900003001D600FDB1F4B1B785E059C0306F4E0
:101DA000000604F40044DB01344303F080032343C2
:101DB0001D431D4B1D60FFF76BFE9BF80020174B6A
:101DC000043293F80080194BD2B290458BF8002072
:101DD000B4D200221A7003B0BDE8F08F2046144937
:101DE0000BF042FC094B10B9044618708EE71C78C2
:101DF0008CE7024B1B8874E7FBA4FF1F9EA1FF1F0B
:101E0000FCA4FF1FF6A1FF1FB82301000894FF1FC9
:101E100064BFFF1FA4A5FF1F80BFFF1FE69FFF1F1A
:101E200086A1FF1FA893FF1F78B2FF1F5BBFFF1F94
:101E3000C8230100C893FF1F013A70B5052A21D8B5
:101E4000DFE802F03A2020542103354C354A364B66
:101E500026781660062400221C700125134605FA18
:101E600003F40133182B42EA04024FF00104F6D1C7
:101E700032402E4D42F0C06306222B60FFF708FE71
:101E80002B4B1C7070BD2B4A274B16680524002273
:101E90001C700125134605FA03F40133182B42EA9E
:101EA0000402F8D13240214C42F0A06323600522A5
:101EB000BDE87040FFF7ECBD1F4C204A1A4B267856
:101EC0001660012500221D70134605FA03F4013344
:101ED000182B42EA0402F8D13240144C42F08073CD
:101EE00023600122BDE87040FFF7D2BD144A0E4BBB
:101EF0001668042400221C700125134605FA03F419
:101F00000133182B42EA0402F8D13240074C42F068
:101F1000806323600422BDE87040FFF7B9BD00BFB5
:101F2000B693FF1FCCA1FF1F7EB2FF1F78B2FF1F29
:101F3000BCBFFF1F7893FF1F9CA1FF1F9093FF1F43
:101F400030BFFF1F2DE9F04F90F82460DFF834B266
:101F50000023042E83B0CBF8003000F3C680DFF8F6
:101F60002892074639F81600A0F2DC508A460AF09B
:101F70003DFA83490AF08EFAB30800210446019322
:101F80000AF03AFC002800F0B5804FF07C51204662
:101F90000AF078F90AF05AFC45B26FF03E03721C61
:101FA0009D42B8BF1D4639F81200DFF8E0813F2D91
:101FB000A8BF3F25A0F2DC5088F801500AF016FABD
:101FC0006F490AF067FA002104460AF015FC002860
:101FD00000F0CE804FF07C5120460AF053F90AF011
:101FE00035FC44B26FF03E03B21C9C42B8BF1C46A5
:101FF00039F812003F2CA8BF3F24A0F2DC5088F82B
:1020000002400AF0F3F95E490AF044FA0021019017
:102010000AF0F2FB019B002800F0A28018464FF066
:102020007C510AF02FF90AF011FC42B26FF03E0326
:10203000F11C9A42B8BF1A4639F811003F2A91465E
:10204000A0F2DC50A8BF4FF03F0988F803900AF0D7
:10205000CDF94B490AF01EFA002101900AF0CCFBA1
:10206000019B002874D018464FF07C510AF00AF901
:102070000AF0ECFB40B26FF03E039842B8BF18463E
:102080003F28A8BF3F20B308002D03F00F0388F8B6
:10209000040055DB2D0105F47C751D43002C47DB46
:1020A000E40204F4FC342C43B9F1000F35DB4FEAB1
:1020B000894909F47C0949EA0409002822DB400621
:1020C00000F0FC4040EA0900CBF8000006F00302F3
:1020D000013251463846FFF7DBFC97F824300433D1
:1020E00087F8243003B0BDE8F08F80F8243003B0C7
:1020F000BDE8F08F4FF07C5120460AF0C1F80AF09D
:10210000A5FB49E743425B0603F0FC4343F0004371
:1021100043EA0903CBF80030D8E7C9F100094FEAD8
:10212000894909F47C0949F0807949EA0409C4E73E
:102130006442E40204F4FC3444F400342C43B3E776
:102140006D422D0105F47C7243F480651543A5E7CB
:1021500018464FF07C510AF093F80AF077FB89E7B4
:1021600018464FF07C510AF08BF80AF06FFB5CE7E1
:102170004FF07C5120460AF083F80AF067FB30E705
:102180002506013E78B2FF1FD4BFFF1F4CBFFF1FC3
:102190000A4B30B4002246241C600125134605FA80
:1021A00003F40133202B42EA0402F8D1044C02F07C
:1021B00046032360012230BCFFF76ABC0CC0FF1F3E
:1021C00078B2FF1F164B174A1B781178994225D019
:1021D00000B5137085B083B91421134806F01CFDB7
:1021E000124806F09FFF1049684607F041F868461C
:1021F00006F0FEFF05B05DF804FB11210C4806F067
:102200000BFD0A4806F08EFF0949684607F030F8D2
:10221000684606F0EDFF05B05DF804FB704700BFAF
:102220007293FF1FF493FF1FEC230100AC87FF1F85
:10223000D823010070B5094C0E46002520463146D2
:102240000BF012FAE37D1C3403B128B10135102DD7
:10225000F4D14FF6FF7070BDA8B270BD35A3FF1F5B
:10226000094BDB78032B0ED8084B9B681B0A0AD15D
:10227000074B084A1B6882B001930199064B116015
:1022800001221A7002B070474C94FF1FFC9FFF1F81
:1022900054C1FF1F3894FF1F58BFFF1F30B5244C97
:1022A00094F8683B0A2BCBB0224B34D0224900254E
:1022B00040F2231201A81D7004F0CEFBD4F8643B59
:1022C00004F65E3503F22313AB42C4F8643B08BF47
:1022D000234601A940F22312184608BFC4F8644BF4
:1022E00004F0BAFB94F8682B11490A2A034607D078
:1022F000501C81F8680B0AB9C1F8603B4BB030BD87
:10230000D1F8603B03F22313AB4208BF0B46C1F880
:10231000603B4BB030BD0122232108481A7006F003
:102320007BFC07484BB0BDE8304006F0FBBE00BF69
:10233000D0A5FF1FE093FF1F54B1FF1F042401002D
:10234000AC87FF1F2DE9F04FADF50F7D05F014FCB4
:10235000002838D005F020FCAE4BC1B20391DB78E9
:10236000AC4900220A700F2B00F2BF81DFE813F0A6
:10237000B201B2019401880171015A013B012401AB
:102380000401E300BF009F00570030003000100040
:10239000A04BA14A5B7B049211465E1E9D4A9DF8AC
:1023A0000C00CB1AF6B2567383F82301002E00F00E
:1023B0003582CA789949CA70964A0023937005F00D
:1023C000DBFB0028C6D101200DF50F7DBDE8F08FA5
:1023D0000E2B914B049305D01B88039AB2EB132F5D
:1023E00000F082868B4A02231370049A9DF80C1029
:1023F000137982F8151113F0010F8749854B00F00E
:10240000D58184481B780F22C270022B4FF00D0239
:10241000427300F0A0860023CA780370CAE77E4B9F
:1024200004939C687E4DFD20C4F3172403469E222E
:1024300000210AE0581E43185A1C5208884202EB39
:10244000420240F28E8155F82220013394424FEA35
:102450005303EFD31946EED8944200F07B8100215C
:102460000B46049C2088434083EA0313DBB2DA0066
:1024700082EA032282EA102282EA1313DAB223806C
:10248000039B9A4200F01A86624B0E22DA70049B7C
:102490009DF80C2083F814215F4C29B15D4B8A799B
:1024A0001B799342C0F00F86049BDA7882E7594B80
:1024B000039D1979584B574C1E460B4401311D732F
:1024C00030882B46434083EA0313DBB2DA0082EA0A
:1024D000032282EA1020F278C9B280EA13139142F3
:1024E000217133807FF466AF0C23E37062E74A4BBF
:1024F000039A1C88624082EA0212D2B2D1001D46C1
:1025000081EA02219B68000400F47F0081EA142123
:1025100040EA132381EA1211EA786B72C3F30720B1
:102520001B0CA872EB722980002A00F02081394927
:102530000B23CB703EE7384B039A1C88624082EA3B
:102540000212D2B21D46D1009B68000200F47F4007
:1025500081EA022140EA132381EA142181EA12125E
:10256000190CE9722B496B72C3F307200A232A80E6
:10257000A872EA78CB701DE72749264B08881C7B98
:10258000039B4B72434083EA0313DBB2DA0082EA17
:10259000032282EA102282EA13130020E2070B8052
:1025A0008872C8721B4B40F1FD80CA78002A00F087
:1025B0002B810B21D970FDE6174B19881C46184654
:1025C000039B03724B4083EA0313DBB2DA0082EA17
:1025D000032282EA112282EA131323800D4BE27850
:1025E0000821D970E6E60C4B19881C461846039B57
:1025F000C3714B4083EA0313DBB2DA0082EA0322A1
:1026000082EA112282EA13132380024BE278072127
:10261000D970CFE63CA5FF1F94BAFF1F54B1FF1F2E
:10262000241701009A4B19881C461846039B837196
:102630004B4083EA0313DBB2DA0082EA032282EA28
:10264000112282EA13132380924BE2780621D9707B
:10265000B0E68F4B19881C461846039B43714B40CC
:1026600083EA0313DBB2DA0082EA032282EA112250
:1026700082EA13132380874BE2780521D97099E60B
:10268000834C9DF80C30237110F0FE0F73D08149FC
:10269000E2780123CB708DE67D497E4B039D08884F
:1026A0001C7BCD702B46434083EA0313DBB2DA0078
:1026B00082EA032282EA102282EA13130B80754B0E
:1026C0000022E0071A7169D505200A714A71D87095
:1026D0002A466FE6039BFD2B00F0DB84039BFE2B59
:1026E00000F0FB846A4BDA7864E6694B04931A467F
:1026F000694BD278DA70674B00249C70A31E012BC3
:1027000016D9002C3FF422AEFFF7C8FD1EE6624A40
:102710009DF81410D1705F490023022C8B70EDD10D
:10272000049890F8151190F8143143EA01231380AE
:102730000398584901230022FD288B700A7001D0AC
:10274000CB7003E6049D02204FF6FF73EA70C87059
:102750002B80FBE5514B01EB410103EB81010B7930
:102760007FE64E4B01EB410253F8222074E64949C3
:102770000C23CB701EE62088039BE278434083EA5B
:102780000313DBB2D90081EA032181EA102181EA37
:10279000131323803F4B0421D9700BE60321039AC6
:1027A000D97007E60920CA78D87003E61B693BB1E7
:1027B0001B6B002B2BD089683648090A984730B329
:1027C000344B1C78334D324933480123EB7040F2CF
:1027D000231204F041F9049BDB780593012C96D178
:1027E0002C4B049A2B491B8992794A7103B94B816E
:1027F0002848294901330022038182709DF8143052
:10280000CB70FFF74BFDA1E50C21D970D2E5214B30
:102810001C78022CD6D003241C70D3E713695269AC
:1028200010931D461192002B00F08E8455F8100F66
:102830001B4C37941B4C6968AA68EB681A4F389494
:102840001A4C3D943A97DFF870E0194FDFF86CC0EE
:102850003C973EACCDF8ECC0CDF8E4E00FC4049B4F
:102860002869DA786969EB6905921746AA6935968D
:102870003D460A350FC4049B0295ED0005F58075B1
:102880000C4E369602333495069320241CE000BF8C
:1028900094BAFF1F3CA5FF1F54B1FF1F241701006E
:1028A00085AE67BB72F36E3C7F520E5119CDE05B73
:1028B000ABD9831F67E6096A3AF54FA58C68059B7B
:1028C000029B002B00F0CD80029D069EC4F14003C8
:1028D000AB4228BF2B46ED1A02953EA83546204450
:1028E0001D441C441A463146069504F0B5F8402CA8
:1028F000E6D134AA22AB92F82B0092F82A10187075
:10290000597092F8290092F82810D970987032A95D
:102910000433994202F10402EDD1369B0793379BB1
:102920000893389B0993399B0A933A9B0B933B9BE3
:102930000C933C9B0D930DF59A7A3D9B0E9352465A
:1029400021AB53F8041F42F8041F31A98B42F8D180
:102950000DF5B6780DF5AC7C0DF59C7E5DAF564659
:10296000302558F8044F5EF8043F56F8042F5CF801
:10297000041F4FEAF440114480EA74404FEAB34226
:1029800080EA942082EAF312014482EAD3030B44E2
:10299000013D47F8043FE4D10E9ADFF8B892A94B05
:1029A000DDF828B0DDF820E0099F079EDDF834C08F
:1029B000DDF8308001920B9D0AE059F8043FCDF814
:1029C00004C0BB46C4467746A846B64625460646DA
:1029D0004FEAF52205EA080182EAB5122CEA05045D
:1029E00082EA75624C405AF8041F14442144194489
:1029F000019B87EA0E024FEA7630194402EA060488
:102A000080EAB60007EA0E028F4B544080EAB650C7
:102A100020444B4501EB0B040844CED10A99079A98
:102A200039440F460B99399721440C460C993A9436
:102A30000244294413460D46089A0D9936933244B0
:102A4000414416460846099A0E99029B37967244ED
:102A5000614438923B953C903D910024002B7FF4DB
:102A600033AF349C04F110039C42349300F27C8316
:102A7000764B07930223C4F3C504069303E0069B39
:102A8000002B00F0D080069D079EC4F14003AB42AE
:102A900028BF2B46ED1A06953EA8354620441D4416
:102AA0001C441A463146079503F0D6FF402CE6D168
:102AB00034AA22AB92F82B0092F82A1018705970A1
:102AC00092F8290092F82810D970987032A904332E
:102AD000994202F10402EDD1369B0893379B09938A
:102AE000389B0A93399B0B933A9B0C933B9B0D931A
:102AF0003C9B0E930DF59A7A3D9B0F93524621AB6A
:102B000053F8041F42F8041F31A98B42F8D10DF588
:102B1000B6780DF5AC7C0DF59C7E5DAF5646302544
:102B200058F8044F5EF8043F56F8042F5CF8041F71
:102B30004FEAF440114480EA74404FEAB34280EA1D
:102B4000942082EAF312014482EAD3030B44013D4C
:102B500047F8043FE4D13B4B0F9ADFF8F890DDF8DB
:102B60002CB0DDF824E00A9F089EDDF838C0DDF8BF
:102B7000348001920C9D02930BE0CDF804C0C44652
:102B8000A8461D4659F8043F0293BB467746B64611
:102B900006464FEAF52205EA080182EAB5122CEA58
:102BA000050482EA75624C405AF8041F019B1444E4
:102BB00087EA0E0221444FEA763002EA060407EA69
:102BC0000E0219445440029B1F4A80EAB60080EA74
:102BD000B650194420444A4501EB0B030844CCD1BC
:102BE0000B99089A39440F460C99399719440B46AA
:102BF0000D993A930244294414460D46099A0E99B8
:102C0000069B369432444144164608460A9A0F9968
:102C100037967244614438923B953C903D91002434
:102C2000002B7FF430AF349C04F138039C42349382
:102C300000F29682064B07930723C4F3C50406935C
:102C40000EE000BF982F8A4220170100A8BBFF1F8B
:102C5000AABBFF1F24160100069B002B00F0D080AA
:102C6000069D079EC4F14003AB4228BF2B46ED1AD8
:102C700006953EA8354620441D441C441A4631465C
:102C8000079503F0E9FE402CE6D134AA22AB92F876
:102C90002B0092F82A101870597092F8290092F8B7
:102CA0002810D970987032A90433994202F10402B5
:102CB000EDD1369B0893379B0993389B0A93399B38
:102CC0000B933A9B0C933B9B0D933C9B0E930DF502
:102CD0009A7A3D9B0F93524621AB53F8041F42F85A
:102CE000041F31A98B42F8D10DF5B6780DF5AC7CF7
:102CF0000DF59C7E5DAF5646302558F8044F5EF8C2
:102D0000043F56F8042F5CF8041F4FEAF4401144C6
:102D100080EA74404FEAB34280EA942082EAF312D8
:102D2000014482EAD3030B44013D47F8043FE4D158
:102D30008B4B0F9ADFF83092DDF82CB0DDF824E0F1
:102D40000A9F089EDDF838C0DDF8348001920C9DA2
:102D500002930BE0CDF804C0C446A8461D4659F8BE
:102D6000043F0293BB467746B64606464FEAF52235
:102D700005EA080182EAB5122CEA050482EA7562C6
:102D80004C405AF8041F019B144487EA0E02214468
:102D90004FEA763002EA060407EA0E02194454406C
:102DA000029B704A80EAB60080EAB650194420447B
:102DB0004A4501EB0B030844CCD10B99089A3944DE
:102DC0000F460C99399719440B460D993A930244D2
:102DD000294414460D46099A0E99069B36943244AE
:102DE0004144164608460A9A0F9937967244614440
:102DF00038923B953C903D910024002B7FF430AFFE
:102E0000349D0699C5F3C504C4F177068023472293
:102E100006F03F060DF189008DF888300AF004F9BC
:102E200006F109021046069222AA1644359B337118
:102E30002A0AF2712A0E72711A0C290CB27005EB73
:102E4000C0029542B1714FEA1321F1704FEA13614C
:102E500084BF0133359322AB35727170349207937E
:102E600003E0069B002B00F0D780069D079EC4F16F
:102E70004003AB4228BF2B46ED1A06953EA83546C7
:102E800020441D441C441A463146079503F0E4FDD6
:102E9000402CE6D134AA12AB92F82B0092F82A10FB
:102EA0001870597092F8290092F82810D97098700B
:102EB00022A90433994202F10402EDD1369B089312
:102EC000379B0993389B0A93399B0B933A9B0C933E
:102ED0003B9B0D933C9B0E930DF59A7A3D9B0F9374
:102EE000524611AB53F8041F42F8041F21A98B422C
:102EF000F8D10DF5B6780DF5AC7C0DF59C7E5DAF87
:102F00005646302558F8044F5EF8043F56F8042F13
:102F10005CF8041F4FEAF440114480EA74404FEA21
:102F2000B34280EA942082EAF312014482EAD30396
:102F30000B44013D47F8043FE4D1094B0F9ADFF8F9
:102F40002890DDF82CB0DDF824E00A9F089EDDF81B
:102F500038C0DDF8348001920C9D029312E000BF6E
:102F6000982F8A422017010024160100CDF804C0D2
:102F7000C446A8461D4659F8043F0293BB4677460F
:102F8000B64606464FEAF52205EA080182EAB5127E
:102F90002CEA050482EA75624C405AF8041F019B32
:102FA000144487EA0E0221444FEA763002EA06040E
:102FB00007EA0E0219445440029B8E4A80EAB6008A
:102FC00080EAB65019442044914501EB0B030844B4
:102FD000CCD10B99089A39440F460C99399719446A
:102FE0000B460D993A930244294414460D46099A1A
:102FF0000E99069B369432444144164608460A9A76
:103000000F9937967244614438923B953C903D91BC
:103010000024002B7FF429AF9DF8DB309DF8DA20E7
:10302000754C9DF8D8008DF848308DF849209DF8F2
:10303000D9309DF8DF208DF84A308DF84B009DF88F
:10304000DE308DF84C2004F21D1112A806228DF8F6
:103050004D3009F053FF002800F08A80109B1B6B55
:103060004BB1049A65489168634C090A9847002857
:103070006AD1E3780593614B03241C705F4D5E4970
:103080005F48012340F22312EB7003F0E5FCFFF7E9
:10309000A5BB5A4B584A1B7B104623F001035749E6
:1030A0009DF80C400B734FF6FF73544903800022C8
:1030B00002238470C270CB70FFF77CB94F4A0D2396
:1030C000D370FFF7E4B904F10C00D21A18440021C0
:1030D00009F0AAFFE278FFF76DB9484B464A1B7B1F
:1030E000104643F00103DAE7444A01231370FFF767
:1030F0007CB90F28B2D8DDE92267109B414AD3E999
:10310000024592194FF000037B41AB4208BFA24237
:10311000A4D3119A049D00EBC0041444EB79E3702E
:103120002B7A2371013084F802E0053410800B689B
:1031300023608B881099A380D1E90223BB4208BF8A
:10314000B24201D2C1E90267049BDB7805932B4BA5
:1031500001241C7092E72A4ACB78D370FFF7E0BABB
:10316000359B0133359365E5359B013335937FE41A
:1031700004F2171100230022CDE92223119B0868D5
:103180008D8894F816E12290ADF88C50002B3FF416
:1031900065AF18880028AED0E579267A069C04E051
:1031A00094B2844203F10903A3D0DF78AF4204F163
:1031B0000102F5D11F79B742F2D19F787745EFD15F
:1031C000844296D0119B04EBC40423441C468EAD6C
:1031D0000022002365E9402354F8050F2860A388E6
:1031E000AB80D5E90023DDE92267BB4208BFB242CC
:1031F0009DD333E72017010094BAFF1F3CA5FF1FA2
:1032000054B1FF1F808D5B00404BDB78002B4DD10C
:103210002DE9F0413E4DAA78EC78FE2A5DD0012CD4
:103220000BD92B19DB7A13B107E0DB7A2BB9013C00
:10323000E4B2012C05EB0403F7D1AB68354E344FF3
:103240003270C3F317231A121814A97995F8048061
:1032500095F805E03272F371EA792B7A7072317168
:10326000727107F10C01224606F10A00747086F8AB
:1032700003E0B37186F8028003F0EEFB04F10A016B
:1032800018F0010F06EB010211D1092128881070F6
:103290000012507000231944033121441E4B1D4875
:1032A00089B2BDE8F041198004F0E4BB70473B8867
:1032B0007354D7F816E1D7F81A61D7F81E5197F86A
:1032C0002201C2F802E01B125370C2F806600D23FF
:1032D000C2F80A5090730921DDE7AB680D4EA97959
:1032E00095F807E02F7A3270C3F317232246B170A6
:1032F000B01D05F10C017371747086F803E037712D
:1033000003F0AAFBA21D32440521BFE74C94FF1F26
:10331000F8A1FF1F20C0FF1F9EA1FF1F2DE9F04F46
:10332000FFB000274FF0030E04254FF0060C0EAB44
:103330008DF83DE08DF840E00E958DF83CC08DF89D
:103340003E708DF83F7093E80700B04BB04E5F724F
:1033500003F10C0B5B4603C396F80C80AD49AE48F5
:103360001A7081F800E0AD4ADFF8CC9203F80A7CCD
:10337000DFF8C8E280F800C008F00203DFF8C0827E
:1033800017701420012189F800500BF8017C03F01C
:10339000FF0288F800008EF800105BBB3369002B39
:1033A00000F05C8393F800C00CEA010C9749FD2300
:1033B0008B704FF0090E01F1150313F8017D5FFAD0
:1033C0008EF1002F40F047830EF1FF3EBEF1010F5A
:1033D000F3D171468D4C14200123E170E07123720A
:1033E000BCF1000F00F03C83237108204FF0FD0872
:1033F0000A2512E0854C09234FF0FE08E071217286
:1034000028469E466546E370194684F802800827E0
:103410007E4B4FF0000C83F804C0B3797B4C8DF8E1
:10342000448003F1010A4FF00009A37186F806A059
:103430008DF8451084F80590002A5AD014228DF892
:10344000463001238DF849908DF847208DF848309B
:103450004FF6FF7291460DF145080B4601E018F852
:10346000013F534083EA0313DBB2D900013881EAFC
:10347000032180B281EA1222484582EA1312EED17A
:1034800067480D37A0F10C031F4410F8013B53406F
:1034900083EA0313DBB2D90081EA032181EA122215
:1034A00082EA13131BB2B8429AB2EED183F0320310
:1034B00083EA0313DBB2D90081EA032181EA1222F5
:1034C000524982EA13138E441BB28EF80C30CA782C
:1034D0000F469BB20A44191251733B80BCF1000F96
:1034E0001ED1504B9B780BB9FDF7B8F87FB0BDE803
:1034F000F08F94F804808DF846804FF014094FF057
:1035000001088DF847208DF848308DF84B208DF854
:103510004C208DF84D208DF849908DF84A8097E722
:103520003169FE780029DCD00B78DB07D9D54B78E0
:1035300087F81631D1E902230DF5FC7E6EE972237E
:10354000DEF80000BEF80430C7F81701A7F81B31F9
:10355000D1E90223013243F10003C1E90223324BD6
:103560002693A3F16263A3F511238C46DFF8D48080
:10357000DFF8D4E02D482E492E4ADFF8D090CDF860
:10358000A080A3F64E13CDF8A4E02A902B912C92A4
:103590002D93CDF89C905CF8100FDCF80410DCF84B
:1035A0000820DCF80C300DF1B80EAEE80F00DCF8A6
:1035B0001C30DCF81000DCF81410DCF818204FF098
:1035C00000084FF4807CCDF890C0CDF89480AEE830
:1035D0000F002A4611A924A8FCF748FF324607F13C
:1035E0000C0124A8FCF742FF249B03F11002934234
:1035F000249202D9259A013225920BEB0602C3F3DD
:10360000C50402230392029326E000BFFC9FFF1F24
:103610003CA5FF1F4AA1FF1FD0BFFF1F51BFFF1FC7
:1036200008A0FF1F4C94FF1F67E6096A7F520E51E6
:103630008C68059BABD9831FA0A5FF1FAEA1FF1F00
:103640009DA1FF1F72F36E3C3AF54FA585AE67BB97
:10365000029B002B00F0D180029D039EC4F1400329
:10366000AB4228BF2B46ED1A02952EA835462044C2
:103670001D441C441A463146039503F0EDF9402CD5
:10368000E6D124AA14AB92F8281092F82B5092F8A5
:103690002A4092F82900D9701D705C70987024A996
:1036A0000433994202F10402EDD1269B0493279B37
:1036B0000593289B0693299B07932A9B08932B9B92
:1036C00009932C9B0A930DF1F40A2D9B0B93524600
:1036D00013AB53F8041F42F8041F23A99942F8D1F1
:1036E0000DF596780DF58C7C0DF1F80E4DAF564624
:1036F000102558F8044F5EF8043F56F8042F5CF884
:10370000041F4FEAF440114480EA74404FEAB34288
:1037100080EA942082EAF312014482EAD30301355D
:103720000B44402D47F8043FE3D17B4B0B9ADFF865
:10373000F491DDF81CB0DDF814E0069F049EDDF87E
:1037400028C0DDF824800092089D01930BE0CDF89D
:1037500000C0C446A8461D4659F8043F0193BB4625
:103760007746B64606464FEAF52205EA080182EAA0
:10377000B5122CEA050482EA75624C405AF8041F1F
:10378000009B144487EA0E0221444FEA763002EA95
:10379000060407EA0E0219445440019B5F4A80EA7E
:1037A000B60080EAB650194420444A4501EB0B03A9
:1037B0000844CCD10799049A39440F4608992997AF
:1037C00019440B4609992A930244294414460D468C
:1037D000059A0A99029B26943244414416460846AB
:1037E000069A0B9927967244614428922B952C9047
:1037F0002D910024002B7FF42FAF249C04F138037B
:103800009C42249302D9259B01332593444B039377
:103810000723C4F3C504029303E0029B002B00F0CE
:10382000D980029D039EC4F14003AB4228BF2B46C2
:10383000ED1A02952EA8354620441D441C441A4614
:103840003146039503F008F9402CE6D124AA14ABC5
:1038500092F8281092F82B5092F82A4092F82900FA
:10386000D9701D705C70987024A90433994202F1DC
:103870000402EDD1269B0493279B0593289B069376
:10388000299B07932A9B08932B9B09932C9B0A93B4
:103890000DF1F40A2D9B0B93524613AB53F8041F02
:1038A00042F8041F23A98B42F8D10DF596780DF547
:1038B0008C7C0DF1F80E4DAF5646102558F8044F8C
:1038C0005EF8043F56F8042F5CF8041F4FEAF440FA
:1038D000114480EA74404FEAB34280EA942082EABD
:1038E000F312014482EAD30301350B44402D47F81B
:1038F000043FE3D1084B0B9ADFF82890DDF81CB0A9
:10390000DDF814E0069F049EDDF828C0DDF8248071
:103910000092089D019313E0982F8A42201701001E
:1039200012A1FF1F24160100CDF800C0C446A8460E
:103930001D4659F8043F0193BB467746B6460646F6
:103940004FEAF52205EA080182EAB5122CEA0504DD
:1039500082EA75624C405AF8041F009B144487EABF
:103960000E0221444FEA763002EA060407EA0E020C
:1039700019445440019B3D4A80EAB60080EAB650A3
:1039800019442044914501EB0B030844CCD107991D
:10399000049A39440F460899299719440B46099906
:1039A0002A930244294414460D46059A0A99029B1B
:1039B00026943244414416460846069A0B992796A7
:1039C0007244614428922B952C902D910024002B59
:1039D0007FF427AF249C0299C4F3C50580234722B6
:1039E000C5F177050DF1F90005F03F058DF8F830C8
:1039F00009F01AFB3EAB2B4425981C72260A05F1F0
:103A00000902DE71250C060A240E9D715C71050CFD
:103A1000040E1871DE703EA9154E9D7024A85C70CE
:103A2000FCF724FD9DF89B509DF89A409DF8990065
:103A30009DF898109DF89F209DF89E3086F81D51A6
:103A400086F81E4186F81F0186F8201186F821218C
:103A500086F8223145E54F1EBFB2BBE49446A5E48B
:103A600008204FF0FD080A25D2E400BF201701000E
:103A7000FC9FFF1F2DE9F04FADF5017D01210022D4
:103A80008DF83C108DF83D108DF83E20914E0F982A
:103A9000914D924C3270924E29702170010CB1738D
:103AA000DFF860E28E499EF80C3088818C488D4D9D
:103AB0008D4C8272FF21C27203F002032B26BE22BC
:103AC0004672297003EA010022709BBBDEF81030B9
:103AD000002B00F00F841F7807F00107804CFF21B6
:103AE000FD230225BE22E171A370E57021462272FA
:103AF000002F00F002849EF806208DF84C3013ACA5
:103B0000501C8EF80600002301208A716570087130
:103B10004B710A250821724B22711879A07000237D
:103B2000FF20E37023726372BE222B236071A271A7
:103B3000E37121E06A4DFE230224E9712A72AB7021
:103B4000EC7004210625664C9EF80620A27113AC89
:103B5000561C2370624B8EF80660002702266670A2
:103B60001F715F71002800F0CB83FF23A270E37008
:103B7000BE222B23227163714FF6FF7C66460DF146
:103B80004D00022301E010F8013F83EA0C0383EAB1
:103B90000313DBB2DA0082EA032282EA1C2C013929
:103BA0008CEA131389B21BB2B1421FFA83FCEAD12B
:103BB0004B4A4B49127B497B534083EA0313DBB2E8
:103BC0001A0282EAC30282EA1C2282EA13131BB29F
:103BD00081EA030282EA0211C9B2CA0082EA012222
:103BE000C3F30723534083EA111212B282F0840315
:103BF00083EA0313DBB2D90081EA0321C2F307226F
:103C00004A4082EA1313364ADFF8D4C0D2781BB296
:103C100099B262448CF80E300B125373ACF800105A
:103C200047B9324B9B780BB9FCF718FD0DF5017DB8
:103C3000BDE8F08FDEF810609CF803300D93002E85
:103C4000EFD03378DB07ECD573788CF81631D6E9F2
:103C5000022380A961E9702308688B88CCF81701DA
:103C6000ACF81B31D6E90223013243F10003C6E967
:103C700002231F4B2893A3F16263A3F51123DFF8FE
:103C800088E01C4F1C481D491D4ADFF880C0CDF854
:103C9000A8E0A3F64E132B972C902D912E922F93E4
:103CA000CDF8A4C056F8100F03957168B268F36898
:103CB000049430AF0FC74FF4807E30697169B269E8
:103CC000F3690EEBC5050026279620240FC726951D
:103CD00022E000BF7CB2FF1F08C0FF1F2EA3FF1F02
:103CE000FC9FFF1FE0A1FF1F2E94FF1F4C94FF1F9E
:103CF00067E6096A3AF54FA57F520E518C68059B1D
:103D0000ABD9831F3CA5FF1F72F36E3C85AE67BB2A
:103D1000039B002B00F0D180039D049EC4F140035F
:103D2000AB4228BF2B46ED1A039530A835462044F8
:103D30001D441C441A463146049502F08DFE402C69
:103D4000E6D126AA16AB92F8281092F82B5092F8DA
:103D50002A4092F82900D9701D705C70987026A9CD
:103D60000433994202F10402EDD1289B0593299B6B
:103D700006932A9B07932B9B08932C9B09932D9BBF
:103D80000A932E9B0B930DF1FC0A2F9B0C9352462A
:103D900015AB53F8041F42F8041F25A99942F8D126
:103DA0000DF59A780DF5907C0DF5807E4FAF564657
:103DB000102558F8044F5EF8043F56F8042F5CF8BD
:103DC000041F4FEAF440114480EA74404FEAB342C2
:103DD00080EA942082EAF312014482EAD303013597
:103DE0000B44402D47F8043FE3D1B24B0C9ADFF867
:103DF000D492DDF820B0DDF818E0079F059EDDF8CD
:103E00002CC0DDF828800192099D02930BE0CDF8CB
:103E100004C0C446A8461D4659F8043F0293BB4659
:103E20007746B64606464FEAF52205EA080182EAD9
:103E3000B5122CEA050482EA75624C405AF8041F58
:103E4000019B144487EA0E0221444FEA763002EACD
:103E5000060407EA0E0219445440029B964A80EA7F
:103E6000B60080EAB650194420444A4501EB0B03E2
:103E70000844CCD10899059A39440F4609992B97E3
:103E800019440B460A992C930244294414460D46C2
:103E9000069A0B99039B28943244414416460846DF
:103EA000079A0C992996724461442A922D952E9076
:103EB0002F910024002B7FF42FAF0D9A7F4926A865
:103EC000FCF7D4FA269C04F110039C42269302D9F5
:103ED000279B01332793794B0D9A1A440223C4F38D
:103EE000C5040492039303E0039B002B00F0D180F0
:103EF000039D049EC4F14003AB4228BF2B46ED1A3C
:103F0000039530A8354620441D441C441A463146CA
:103F1000049502F0A1FD402CE6D126AA16AB92F83A
:103F2000281092F82B5092F82A4092F82900D97064
:103F30001D705C70987026A90433994202F1040246
:103F4000EDD1289B0593299B06932A9B07932B9BD6
:103F500008932C9B09932D9B0A932E9B0B930DF199
:103F6000FC0A2F9B0C93524615AB53F8041F42F8E2
:103F7000041F25A99942F8D10DF59A780DF5907C8A
:103F80000DF5807E4FAF5646102558F8044F5EF869
:103F9000043F56F8042F5CF8041F4FEAF440114424
:103FA00080EA74404FEAB34280EA942082EAF31236
:103FB000014482EAD30301350B44402D47F8043F06
:103FC000E3D13C4B0C9ADFF8FC90DDF820B0DDF833
:103FD00018E0079F059EDDF82CC0DDF828800192CF
:103FE000099D02930BE0CDF804C0C446A8461D46C7
:103FF00059F8043F0293BB467746B64606464FEA59
:10400000F52205EA080182EAB5122CEA050482EAE3
:1040100075624C405AF8041F019B144487EA0E0253
:1040200021444FEA763002EA060407EA0E021944F8
:104030005440029B204A80EAB60080EAB6501944F8
:1040400020444A4501EB0B030844CCD10899059A5A
:1040500039440F4609992B9719440B460A992C931A
:104060000244294414460D46069A0B99039B289452
:104070003244414416460846079A0C9929967244E0
:1040800061442A922D952E902F910024002B7FF4CD
:104090002FAF269C04F138039C42269302D9279B1C
:1040A00001332793064B04930723C4F3C5040393FA
:1040B0000EE000BF982F8A422017010008A0FF1FC2
:1040C00012A1FF1F24160100039B002B00F0D180DA
:1040D000039D049EC4F14003AB4228BF2B46ED1A5A
:1040E000039530A8354620441D441C441A463146E9
:1040F000049502F0B1FC402CE6D126AA16AB92F84A
:10410000281092F82B5092F82A4092F82900D97082
:104110001D705C70987026A90433994202F1040264
:10412000EDD1289B0593299B06932A9B07932B9BF4
:1041300008932C9B09932D9B0A932E9B0B930DF1B7
:10414000FC0A2F9B0C93524615AB53F8041F42F800
:10415000041F25A99942F8D10DF59A780DF5907CA8
:104160000DF5807E4FAF5646102558F8044F5EF887
:10417000043F56F8042F5CF8041F4FEAF440114442
:1041800080EA74404FEAB34280EA942082EAF31254
:10419000014482EAD30301350B44402D47F8043F24
:1041A000E3D1584B0C9ADFF86891DDF820B0DDF8C8
:1041B00018E0079F059EDDF82CC0DDF828800192ED
:1041C000099D02930BE0CDF804C0C446A8461D46E5
:1041D00059F8043F0293BB467746B64606464FEA77
:1041E000F52205EA080182EAB5122CEA050482EA02
:1041F00075624C405AF8041F019B144487EA0E0272
:1042000021444FEA763002EA060407EA0E02194416
:104210005440029B3C4A80EAB60080EAB6501944FA
:104220002044914501EB0B030844CCD10899059A31
:1042300039440F4609992B9719440B460A992C9338
:104240000244294414460D46069A0B99039B289470
:104250003244414416460846079A0C9929967244FE
:1042600061442A922D952E902F910024002B7FF4EB
:104270002FAF269E0399C6F3C50480234722C4F1BD
:1042800077040DF2011004F03F048DF8003108F0BE
:10429000CBFE40AB1D1927982E7204F10902194676
:1042A000340C330E370A060AAC716B71040C030E22
:1042B0002871EE7026A8154EAC706B70EF71FCF78C
:1042C000D5F89DF8A3509DF8A2409DF8A1009DF857
:1042D000A0109DF8A7209DF8A63086F81D5186F8FD
:1042E0001E4186F81F0186F8201186F8212186F8E4
:1042F000223196E40746FFF7F1BB08210A2522E4A4
:10430000074608E4982F8A4220170100FC9FFF1FF0
:104310002416010010B5194B197882B0C9B9184B91
:10432000184A1B68019301981368C31AB3F5FA7F02
:10433000154B08D310601A78C2B10D20197002F025
:10434000F9FC02B010BD19780D2002F0F3FC02B0A8
:1043500010BD01230C4C19460D20237002F0EAFC1D
:1043600021780D2002F0E6FC02B010BD01210D20E5
:10437000197002F0DFFC02B010BD00BFB293FF1F46
:1043800054C1FF1F88A1FF1FC293FF1FF8B5154C32
:10439000E66805464FF07E51304608F019FA18B12C
:1043A000284608F01FF80646284608F01FF80E4970
:1043B00008F070F80D490746304608F06BF80146E2
:1043C000384607F05FFF0A496269E369E060A1FBD4
:1043D000051502EB951501336561E36108F05CFAA0
:1043E000F8BD00BF2487FF1F4CA6AA3E4CA62A3F5B
:1043F000D34D6210F0B51E4C94F8203085B00546C0
:10440000002B32D01B4B1A680192019A0021013A0D
:1044100084F820101968039103981B680293029B8B
:104420002361801A07F0DEFF134908F0E7F807F070
:10443000A7FB064628460F4607F080FB02460B46C0
:104440003046394607F0F0FB07F0C6FE0B4908F08E
:1044500021F80B4908F01EF8034601466068236006
:1044600007F010FF606005B0F0BD2269014BD1E795
:104470002487FF1F54C1FF1F00BA5B4A0000204180
:104480000000883F70B5114D0646FFF7B3FFAC68DA
:104490004FF07E51204608F09BF918B1304607F0E6
:1044A000A1FF0446304607F0A1FF094907F0F2FFDB
:1044B00008490646204607F0EDFF0146304607F062
:1044C000E1FEA86008F0E8F970BD00BF2487FF1F77
:1044D000FA7EAA3E4CA62A3FF8B5144CE66805467B
:1044E0000021304608F06AF918B1284607F07AFF33
:1044F0000646284607F07AFF0D4907F0CBFF0D4925
:104500000746304607F0C6FF0146384607F0BAFEB8
:1045100009496269E369E060A1FB051502EB9515A5
:1045200001336561E36108F0B7F9F8BD4887FF1F03
:10453000FA7EAA3EFA7E2A3FD34D6210F0B51E4C99
:1045400094F8203085B00546002B32D01B4B1A68FA
:104550000192019A0021013A84F820101968039110
:1045600003981B680293029B2361801A07F03AFFAD
:10457000134908F043F807F003FB064628460F46A8
:1045800007F0DCFA02460B463046394607F04CFB92
:1045900007F022FE0B4907F07DFF0B4907F07AFF79
:1045A000034601466068236007F06CFE606005B05A
:1045B000F0BD2269014BD1E74887FF1F54C1FF1F9F
:1045C00000BA5B4A000020410000883FF8B5114C5A
:1045D000A66805460021304608F0F0F818B12846D4
:1045E00007F000FF0646284607F000FF0A4907F0DB
:1045F00051FF0A490746304607F04CFF014638464E
:1046000007F040FEA0602846FFF798FFA06808F07A
:1046100043F9F8BD4887FF1FFA7EAA3EFA7E2A3F7B
:1046200010B50129044680EAE070A0EBE47026D0C2
:10463000022907D0032903D1012A5AD0022A36D0F1
:10464000002010BD012A3CD0022AF9D1632840F392
:104650008580B0F57A7F80F29A8007F0C3FE6B49BF
:1046600007F018FF05F0FAF808F016F9C0B280005C
:1046700040F00100002CE4DA40F4007010BD012A83
:10468000DED1092864DD95287DDC07F0ABFE5F49AB
:1046900007F000FF05F0E2F808F0FEF8C0B24000B5
:1046A00040F00100002CCCDA40F0200010BDB0F545
:1046B0007A7F37DA800080B2002CC2DA40F4805072
:1046C00010BD632847DD40F2F54398425DDC07F0FA
:1046D00089FE4E4907F0DEFE05F0C0F808F0DCF870
:1046E000C0B2400040F00100002CAADA40F4807013
:1046F00010BDB0F57A7F34DBB0F5205F59DA07F0F2
:1047000071FE424907F0C6FE05F0A8F808F0C4F8AB
:1047100080B2400040F0010080B2002C91DA40F4F9
:10472000006010BD42F20F7398421DDD384B984275
:1047300042D807F057FE374907F0ACFE05F08EF877
:1047400008F0AAF880B2800040F0020080B2B3E71F
:10475000400080B2A6E7400080B2C5E7800080B28A
:1047600088E7400080B2D8E707F03CFE274907F011
:1047700091FE05F073F808F08FF880B2800040F0E9
:10478000010080B298E71F208CE7FF20ACE742F2DF
:104790000F73984222D807F025FE1E4907F07AFED3
:1047A00005F05CF808F078F8C0B2800040F0020034
:1047B00060E740F2FF70B0E7B0F57A2F1FD207F044
:1047C00011FE154907F066FE05F048F808F064F898
:1047D00080B2800040F0030080B26DE70F4B98423A
:1047E00010D807F0FFFD0C4907F054FE05F036F82D
:1047F00008F052F8C0B2800040F003003AE740F6FB
:10480000FF7059E740F2FF1034E700BFCDCCCC3D3C
:104810009F8601000AD7233C6F12833A17F00100EC
:104820002DE9F8432F4B304D1B78304A0F2B0646AD
:104830000F464FD90F2313701C462D4B2D4A197864
:1048400003290B4628BF03230329137045D90339D5
:10485000C9B24FEA813E0EF4404E2748274A00680D
:10486000DFF8A8C012881B0103F030038CFB008C1A
:104870002343C017224CC0EB6C10DFF894C0A4FB9C
:10488000022802228CF80010114643EA0E04FFF7BA
:10489000C7FEC8F3C7081B4B8146012240460221D0
:1048A000C3F80090FFF7BCFE174BDFF868C04FEA73
:1048B000895909EA03035FFA80FE1C4344EA8E1417
:1048C0008CF800E0394630462C600022BDE8F84301
:1048D000FDF7DEB81C461370AFE74FF0000E7146CF
:1048E000BBE700BFD893FF1F78B2FF1FE8A1FF1FEF
:1048F0007087FF1FCFBFFF1F5CBFFF1FE49FFF1F1D
:10490000CDCCCCCC90BAFF1F0000C07F1F85EB51EF
:10491000C393FF1F86BAFF1FF8B51D4B1D4C1B88A4
:104920001D4A1E4EA4FB03346409148005463088DA
:104930000E4607F05BFD1A4907F0ACFD04F08EFF50
:1049400007F084FF01220221FFF76AFE154B164A89
:1049500018801288430203F4FF33C4F308041C4395
:10496000570411230022012000FA03F10133202B08
:1049700042EA0102F8D13A400C4F42EA04033146C0
:1049800028463B600022BDE8F840FDF781B800BF33
:1049900046A1FF1F1F85EB513094FF1FA493FF1FFB
:1049A000CDCCCC3D1CA3FF1F7C93FF1F78B2FF1F13
:1049B0002DE9F04FC24EC34A7368DFF84083C24FFF
:1049C000C24DDFF83C93C24C8FB08346184600239B
:1049D00013600B91BF4907F011FEBF4907F05AFD64
:1049E0000346C8F800303068BA49009307F006FE65
:1049F000B94907F04FFD0646B64978682E6007F0C2
:104A0000FDFDB54907F046FD8246B2493868C9F850
:104A100000A007F0F3FDB04907F03CFD009B0746FE
:104A200019462760504607F02BFC07F0A9F8CDE99E
:104A3000020104F0CFFECDE90401384607F0A0F8EA
:104A400002460B46CDE9082304F07AFECDE90001C9
:104A5000304607F095F806460F4604F071FEDDE992
:104A60000823CDE906011046194604F0B3FE0246BC
:104A70000B4630463946CDE90C2304F0ABFECDE9B8
:104A80000801DDE9020104F05BFEDDE90C23CDE95C
:104A90000201DDE9060107F0C7F8DDE90823064653
:104AA0000F46DDE9000107F0BFF8DDE9022307F05A
:104AB000BBF802460B463046394606F001FFDDE9F9
:104AC000002306460F46DDE9040107F0ADF8324643
:104AD0003B4604F03FFF07F07FFB7E49CBF80C001C
:104AE00007F0D8FC7C4907F089FD0021064607F055
:104AF0006FFE002840F00881CBF81060304607F0C8
:104B0000A5FE83B2A3F1B40000B20028BCBF03F13C
:104B1000B40000B2B0F5B47FA8BFA0F5B4706F4B7D
:104B2000DFF8E0A1A8BF00B2188007F05FFC6C4975
:104B300007F0B0FC07F08AFE24682D68AAF8000090
:104B40002946204607F09CFBD8F80010CBF81C0043
:104B50000746D9F8000007F093FB4FF07C5106465A
:104B6000CBF82000384607F095FC07F009F804F070
:104B700031FECDE9000130464FF07C5107F08AFC50
:104B800006F0FEFF04F026FE80462846894606F021
:104B9000F7FF04F0D5FD064620460F4606F0F0FF6D
:104BA00004F0CEFD424604460D464B46404649467B
:104BB00007F03AF832463B4607F036F822462B46D5
:104BC00007F032F8DDE9002304460D461046194689
:104BD00007F02AF802460B462046294606F072FEE8
:104BE00007F0FAFACBF80C0006F0CAFF04F0B4FEA6
:104BF00004F058FE0B46024606F064FE07F0ECFA9D
:104C00003849CBF8140007F045FC374BCBF81800B7
:104C10001B78002B52D007F019FE80B207F0E2FBA0
:104C200004F01CFE07F012FE304B314E1B680321CE
:104C300086FB0326DB170222C3EB6616FFF7F0FCA8
:104C40002C4A002336B210801C46012101FA04F2DE
:104C500001340C2C43EA0203F8D11A4A12680340CB
:104C6000304643EA020507F0C1FB04F0F7FD07F008
:104C7000EDFD03210222FFF7D3FC1F4B00B2188089
:104C800006030023012101FA04F20134182C43EA3F
:104C90000203F8D133402B430028BAF90050094CE5
:104CA0000B99B8BF43F0807343EA4563584600222E
:104CB00023600FB0BDE8F04FFCF7EABE1846B3E73B
:104CC000D0A1FF1F78B2FF1F20BFFF1F9493FF1FCB
:104CD0007493FF1F00003443DB0F4940F89FFF1F10
:104CE0004CA6AA3E706DC24ACEBFFF1FFCBFFF1F7D
:104CF0001F85EB511C94FF1FB893FF1FE493FF1F08
:104D0000E893FF1F2C94FF1F3046024907F0BAFAC0
:104D10000646F1E60000B443334B2DE9F047054663
:104D20000E4618683149324C07F0B4FB314B2F491D
:104D30000746186807F0AEFB2F4B8246B3F9000018
:104D400000EB8000400007F051FB0021814638460F
:104D500007F03EFD0028384614BF4FF480784FF02E
:104D6000000804F07BFD07F071FD01220221FFF72E
:104D700057FC074607F036FB2060504604F06EFDF6
:104D800007F064FD01220221FFF74AFC044607F008
:104D900029FB1A4B4FF07C511860484607F07AFB0C
:104DA000174B186007F078FDFFB2640247EA080766
:104DB00004F4FF3444EA0708124F00224004112390
:104DC000012404FA03F101331C2B42EA0102F8D159
:104DD000024042EA0804314628463C600022BDE811
:104DE000F047FCF755BE00BFB0A1FF1F00002041F7
:104DF00064A1FF1F2494FF1FA2A5FF1F60A1FF1F36
:104E0000D493FF1F78B2FF1F304B2DE9F0410546C8
:104E10000E4618682E4907F03DFB2E4907F032FA7E
:104E200007F03AFD2C4A2D4B294987B21F801068A4
:104E300007F030FB2A4907F025FA07F02DFD294A33
:104E4000294B2A491FFA80F8A3F80080106807F060
:104E500021FB04F003FD07F01FFD254B80B200226B
:104E600018800124134604FA03F101330B2B42EAA4
:104E70000102F8D107EA020E1C464FEAC8270023B8
:104E80004FF0010C0CFA04F10134152C43EA010334
:104E9000F8D13B400122032143EA0E07FFF7C0FB94
:104EA000234640050022012404FA03F10133202B9C
:104EB00042EA0102F8D102400E4B17433146284620
:104EC0001F600022BDE8F041FCF7E2BDBC93FF1F6C
:104ED0000000A0400000614454A1FF1FC6BFFF1F97
:104EE0000000E14304C0FF1FF49FFF1F0000C84201
:104EF00028A3FF1F78B2FF1F234B244A1B88A2FB65
:104F000003232DE9F041054658090E4607F06EFAD5
:104F10001F4B204ADFF88C8007461F60B2F9000063
:104F200007F064FA1C4907F0B5FA04F097FC07F0A3
:104F30008DFC01220221FFF773FB044607F052FAB1
:104F4000C8F80000384607F0A7FC144B64021A8822
:104F500004F4FF34C0F30800204357041123002257
:104F6000012404FA03F10133202B42EA0102F8D1B3
:104F70003A400B4C42EA00033146284623600122A6
:104F8000BDE8F041FCF784BD48A1FF1F1F85EB5130
:104F90003CBFFF1FA693FF1FCDCCCC3DC493FF1F8A
:104FA00078B2FF1FDC93FF1F2DE9F04F514B524E9B
:104FB000524A534D534CDFF874B1534F12681B885B
:104FC0003688DFF86C81ABF8003083B000233A609C
:104FD00026808146B5F90000C8F800308A4607F0FF
:104FE00005FA4A4A4A4B05461D60108807F0FEF94B
:104FF000484907F04FFA484A0346194613602846C5
:1050000007F03EF907F022FC00B207F0EFF9434940
:1050100004F0FEFC0021054607F0DAFB00285DD114
:10502000284607F013FC3E4B3E4D163083FB002311
:105030000344C017C0EB63100540002D54DB3A4B0E
:1050400024881D7000221646012000FA06F1013660
:105050000A2E42EA0102F8D1D8F80030BBF800006D
:105060000193144007F0BEF904F0F8FB07F0EEFBE3
:1050700002220321FFF7D4FA3346ABF800000022E6
:105080004FEA802B4FF0010E0EFA03F10133162B7D
:1050900042EA0102F8D138680BEA020B04F0DEFBA9
:1050A00007F0D4FB01221146FFF7BAFA064607F0D3
:1050B00099F9019B386043EA45752C43B30544EAEE
:1050C0000B0403F07C631C43514648460122C8F898
:1050D000004003B0BDE8F04FFCF7DABC28460F49AA
:1050E00007F0D0F805469BE7013D65F0070501355F
:1050F000A5E700BFB8A1FF1F84BAFF1FC0BFFF1FF5
:10510000F4A1FF1F84A1FF1F24A1FF1F74A1FF1F93
:105110004CB1FF1F0AD7233C80BAFF1F0000B443E5
:10512000B7600BB607000080E193FF1FCCBFFF1FE5
:1051300078B2FF1F2DE9F843264BDFF8B4900646FE
:105140000F461868244907F0A5F92449244B254A3D
:105150000C881C8020490546106807F09BF98046A2
:10516000284604F07BFB07F071FB01220221FFF7C8
:1051700057FA054607F036F9C9F80000404604F032
:105180006DFB07F063FB02220321FFF749FA2402BB
:1051900004F4FE44EDB22543044607F023F9124B14
:1051A0004FEAC43E186000220F23012404FA03F1E1
:1051B00001331B2B42EA0102F8D10EEA02020B4B2B
:1051C0001543394630461D600122BDE8F843FCF71F
:1051D0005FBC00BFA0A1FF1F0000204128A1FF1F4E
:1051E000B493FF1FF0A1FF1F10C0FF1F78B2FF1F75
:1051F000CCA5FF1F013808281DD8DFE800F00507FF
:10520000090B121416181A0000207047012070476D
:10521000022070470139C9B208290ED8084B585CE2
:105220007047032070470420704705207047062010
:105230007047072070470B2070471F20704700BF42
:105240000C2301002C4B1B78062B54D02DE9F04188
:105250002A4B2B4A1B782B4C12782B4E05464FEAD3
:10526000E3182A485FFA88F30F46294903700020A3
:105270002370087082BB274B27491B78002B34D042
:10528000264B087818702649264B09781B78DFF8DA
:10529000A0E0DFF8A0C09EF800E08CF800E08902F2
:1052A0005B02120301F4406103F4007302F48054C2
:1052B00041EA0302224342EA8E6242EAC81200F047
:1052C0001F0442EA0823234339462846336000225C
:1052D000BDE8F041FCF7DCBB134B144918780978A2
:1052E000FFF788FF0D4B1870CDE708680B4B0130B6
:1052F000C0B21870C7E770479CA1FF1F40BFFF1FD7
:1053000048B1FF1FED93FF1F78B2FF1F59BFFF1F6A
:1053100086A1FF1FB193FF1FF4A4FF1FACA1FF1FC5
:105320002AA3FF1F58A1FF1F4094FF1FA4A1FF1F26
:1053300070A1FF1FB793FF1F38B545F20504A142C6
:1053400076D00B4615D945F20904A14239D021D9AE
:1053500045F2F202914228D042D945F2F30291423D
:105360003DD04FF20112914266D1BDE83840FCF7C2
:105370000FBF154645F20102914245D025D945F2AD
:105380000302914219D033D845F20201BDE83840FA
:10539000FFF746BA45F20704A1420AD02ED845F2DB
:1053A0000601BDE83840FFF72FBDBDE83840FFF7E4
:1053B000C1BEBDE83840FCF73FBDBDE83840FFF74F
:1053C000ABBABDE83840FFF7EFBDB1F5006F1FD0B5
:1053D000B1F5A04F51D1BDE83840FCF76FBC38BDE6
:1053E00045F2F102914227D1BDE83840FCF7AABD51
:1053F00045F20401BDE83840FFF7DABA45F208018A
:10540000BDE83840FFF778BDBDE83840FFF71ABF68
:1054100035B3012DE3D11A4B1A4A1B78032B28BF51
:105420000323032B1370DAD1BDE83840FCF7FABB35
:10543000BDE83840FFF770BC1C461021124803F04D
:10544000EBFB214600231022104803F091FE0821B7
:105450000F4803F0E1FB0D48BDE8384003F062BEA1
:10546000074B084A1B78032B28BF0323032B137019
:10547000B5D1BDE83840FCF76BBB1629DCD138BD8F
:105480007087FF1FCFBFFF1FDC260100AC87FF1F07
:10549000F02601002DE9F041A54DAC68C4F31724B6
:1054A0002A2C86B000F0248430D81A2C00F02F84E7
:1054B0005DD8022C00F0CC8300F29C81002C00F01F
:1054C0001783012C40F00B829A4B1B78002B00F0C5
:1054D0000682994B6A69688B1A60FEF757FF974CF2
:1054E0002080A88BFEF7CEFF2388954945F208223D
:1054F0009342088040F22B85924B06221A700022BC
:1055000045F203019048FFF717FFE8E14D2C00F04A
:10551000B38340F29C80AD2C00F0EE8473D9E22C72
:1055200000F09E84FD2C00F04682B52C40F0D7811F
:10553000804B1B78002B00F0D281A889834CFEF7AA
:10554000CBFF2080E889FFF741F82388804945F2A6
:1055500008229342088040F2EE847E4B06221A70A5
:10556000002245F208017848FFF7E6FEB7E1232C58
:1055700000F04C8300F29C801E2C00F01383212C41
:1055800040F0AD816B4B1B78002B00F0A881724B73
:105590001B78022B40F2A381704F2869704E714C2A
:1055A00038606F69704A3760AE69704B2660EC698D
:1055B00014606F492C8C6F4A1C806F4B6C8C0C8074
:1055C000A98CED8C11801D8006F010FF6B496C4C8E
:1055D00007F014F803462360384606F007FF6749D2
:1055E00007F00CF803466360304606F0FFFE65499D
:1055F00007F004F8644BA060A3FB0530400906F0F7
:10560000F5FEE0606BE16D2C00F0F381932C40F02F
:105610006681484B1B78002B00F0618195F82C3097
:10562000DFF8CCE1594E5A4C5A496F8DEA6895F82B
:105630002F008EF80030378022600870002B00F0B9
:105640007784012B40F04B81534B1A8047E1412C6A
:1056500000F0128400F239812C2C00F07C813E2C69
:1056600040F03D81334B1B78002B00F038814B4ECE
:10567000EF684B4B37604B492F691F604A4C2F8CAA
:105680004A4A4B484B4E4C4B0F80D5F814E06F8C78
:10569000A98C27801180AF69EC69C0F800E0002276
:1056A00045F20901284837601C60FFF745FE16E106
:1056B000242C00F05E81272C40F011811D4B1B78BB
:1056C000002B00F00C813D4C686A3D4F3D4B206043
:1056D0002C8D3D4E3C8095F82E701F703B496F8D90
:1056E00037803B4A95F82F700F703A4B95F8307021
:1056F0001770394EEF681F603849394B2F69394AA6
:105700003760AF69EE692D6A1D600F60166007F0A3
:10571000C3F8354BB4F5807F187000F22484334B06
:10572000013C03EBC40243F834605560D7E000BF8E
:10573000F8A1FF1FB293FF1FE09FFF1F46A1FF1FAD
:10574000A493FF1F22A1FF1F5095FF1F48A1FF1F19
:10575000A693FF1F38A5FF1F7087FF1F4CC1FF1FB7
:1057600068BFFF1F34BFFF1FFCBFFF1F72A1FF1FD9
:10577000C4BFFF1F76A1FF1F2AA1FF1F8096184BF1
:1057800020BFFF1F00007A441F85EB515AA1FF1F65
:1057900000C0FF1F43B1FF1FC493FF1F2894FF1FCA
:1057A0006493FF1F9CA5FF1FF4A1FF1FB8A1FF1F5B
:1057B0000C94FF1F44B1FF1FC0BFFF1F98A1FF1F24
:1057C00084BAFF1F6893FF1F5CA1FF1F7FB2FF1FFA
:1057D00038BFFF1F1094FF1F1494FF1F1894FF1F62
:1057E0001CC0FF1F18C0FF1F7CB2FF1F80B2FF1F2D
:1057F00050A1FF1F162C75D0182C70D1914B1B781F
:10580000002B6CD095F828308F48904A95F82910D5
:105810000370022B11703FD98D4F68698D4E8E4CED
:105820003860AF698D4A3760EE698D4926602C8CEF
:1058300014808C4B6C8C0C808B4AAC8C1C808B49FC
:10584000EC8C14808A4BD5F82A400C60894AD5F834
:105850002E401C608849894BD5F832401460D5F839
:105860003A20D5F836401A600C6006F0BFFD844936
:10587000844C06F0C3FE03462360384606F0B6FDAE
:105880007F4906F0BBFE03466360304606F0AEFD7E
:105890007D4906F0B3FEA06000224FF400617B4812
:1058A000FFF74AFD01224FF400617848FFF744FDFD
:1058B000002245F202017548FFF73EFD002245F245
:1058C00004017248FFF738FD09E0492C00F0D4814B
:1058D0004A2C04D15B4B1B78002B40F0E48106B0CE
:1058E000BDE8F081574B1B78002BF8D005F114036D
:1058F0000FCB674EDFF8C4E1DFF8F0C1EF68CCF8FA
:10590000007086E80F00634A634B10203146AEF802
:1059100000002E8A5D486D8A16801D80FCF78AFC87
:105920005E494FF6FF7290420346088040F0F382D2
:10593000B5F5B27F00F04583B5F5B67FCFD1584BB2
:1059400052481F60052245F20701FFF7F5FC554B51
:1059500001221A70C3E73B4B1B78002BBFD0524B80
:10596000AA891A704948062245F20701FFF7E4FCAC
:10597000B5E7344B1B78002BB1D04C4B4C4E95F80F
:1059800020702C8A6A8AA98AE88A3770B5F818E0EC
:105990006F8B1C80AE8BEC8B5A809980D880002254
:1059A00045F2F1013948A3F808E05F819E81DC816E
:1059B000FFF7C2FC93E73F4B2A7B3F4F1A7005F17C
:1059C0000D0605F13D0430687168B268F3683D4624
:1059D0000FC51036A6422F46F5D13288374B2A80A4
:1059E00032242A481C8000224FF4A041FFF7A4FC77
:1059F00075E7144B1B78002B3FF471AF304F287CB8
:105A0000304C314938706F7C2770304AAF7C0F7052
:105A10002F4EEF7C17702F4B2F7D2F4A2F49304C84
:105A20003770AE891E80ED89258001230B701370BD
:105A300006F0DCFC2B492C4C06F0E0FD06F02CFFB8
:105A400020704CE7B293FF1F7087FF1FD893FF1F92
:105A5000F093FF1F6C93FF1F5CBFFF1FE49FFF1FAE
:105A6000EA9FFF1FEC9FFF1F74A1FF1F8493FF1F7E
:105A70008093FF1FD093FF1F88BAFF1FAC93FF1FB7
:105A80008096184B20BFFF1F00007A445095FF1FDF
:105A9000BCA1FF1F8CA1FF1F8EA1FF1F20A1FF1F14
:105AA000B4A1FF1F42B1FF1FB693FF1FA8A5FF1FA0
:105AB0002CA1FF1F64BFFF1FFCA4FF1F9EA1FF1F9F
:105AC0009893FF1F14C0FF1F63BFFF1F68A1FF1F34
:105AD000C8A5FF1FA293FF1F7193FF1F39A5FF1FCA
