:1000000000800020BD010000C96300008163000082
:100010008163000081630000816300008163000050
:10002000816300008163000081630000C9630000F8
:10003000C963000081630000857F000089800000A3
:10004000C9630000C9630000C9630000C963000000
:10005000C9630000C9630000C9630000C9630000F0
:10006000C9630000C9630000C9630000C9630000E0
:10007000C9630000C9630000C9630000C9630000D0
:10008000C9630000C9630000C9630000C9630000C0
:10009000C9630000C9630000C9630000C9630000B0
:1000A000C9630000C9630000C9630000C9630000A0
:1000B000C9630000C9630000C9630000C963000090
:1000C000C9630000C9630000C9630000C963000080
:1000D000C9630000C9630000C9630000C963000070
:1000E000C9630000C9630000C9630000C963000060
:1000F000C9630000D1680000C9630000196C0000EA
:10010000C9630000A5810000C9630000C963000045
:10011000C9630000C9630000C9630000C96300002F
:10012000C9630000C9630000C9630000C96300001F
:10013000C9630000C9630000C9630000C96300000F
:10014000C9630000C9630000C9630000C9630000FF
:10015000C9630000C9630000C9630000C9630000EF
:10016000C9630000D96E0000C9630000C9630000C4
:10017000C9630000C9630000C9630000C9630000CF
:10018000C9630000C9630000C9630000C9630000BF
:10019000C9630000C9630000C9630000C9630000AF
:1001A000C9630000C9630000C9630000C96300009F
:1001B000C9630000C9630000C9630000564B4CF2DC
:1001C000205210B51A804DF628121A8000BF00BFC9
:1001D00006F0FEF8514B4FF010621A60504A9A60D8
:1001E000504ADA60504A136813F4807304D14F49BF
:1001F0000B604FF4A85313604D4B1A78110703D5C9
:100200001A7842F008021A704A4B4B492A221A7097
:100210004A4A4B4B8B4204D252F8040F43F8040B6A
:10022000F8E7484B484900228B4202D243F8042B9E
:10023000FAE74649464A002352F8230041F82300D2
:1002400001336F2BF8D1434B434A802103F8011B44
:100250009342FBD1414B3D4A1A60414B8A221A70AE
:10026000A3F5805324225A70A0221A709A7992071B
:10027000FCD59A79D406FCD43A4A937903F00C035E
:10028000082B384BF9D103221A7140225A719A79FE
:100290009006FCD5334A9179324B4906FBD5324A58
:1002A000324911600221516020221A709A7902F0BD
:1002B0000C020C2AFAD12E4B2E4A1A602E4B2F4AD2
:1002C0001A6000225A60072243F8042C2C4AC3F813
:1002D0000C2D62B606F0AAF9144B1B68DA0705D597
:1002E000284806F037F9284B284A1A60284B1B7813
:1002F0005B0609D5244C254B22689A4204D121483B
:1003000006F028F9002323600BF0E6F806F066F803
:1003100005F094FFFEE700BF0E200540308004404A
:10032000823F04000100002B10D0034014D0034092
:1003300002D0074000E007407490FF1FACE50000CA
:100340002087FF1F7490FF1FF8B3FF1F0082FF1F5D
:100350000000000000E400E05FE400E008ED00E0E1
:100360000050064000400640448004400000030165
:1003700004800440C010050014E000E0FF76010096
:100380000000202082EA495C1CE00340A5C3945A87
:1003900000F00740FFFFFFFFFFFFFFFFFFFFFFFF32
:1003A000FFFFFFFFFFFFFFFFFFFFFFFFFFFFFFFF5D
:1003B000FFFFFFFFFFFFFFFFFFFFFFFFFFFFFFFF4D
:1003C000FFFFFFFFFFFFFFFFFFFFFFFFFFFFFFFF3D
:1003D000FFFFFFFFFFFFFFFFFFFFFFFFFFFFFFFF2D
:1003E000FFFFFFFFFFFFFFFFFFFFFFFFFFFFFFFF1D
:1003F000FFFFFFFFFFFFFFFFFFFFFFFFFFFFFFFF0D
:10040000FFFFFFFFFFFFFFFFFFFFFFFFDEF9FFFF23
:1004100010B5054C237833B9044B13B10448AFF33E
:1004200000800123237010BD7490FF1F00000000A6
:10043000B0E50000084B10B51BB108490848AFF300
:1004400000800848036803B910BD074B002BFBD0A0
:10045000BDE81040184700BF000000007890FF1F63
:10046000B0E500007490FF1F00000000044B054938
:100470001A68137843F0200313700870704700BFA8
:1004800030AFFF1FF8B0FF1F70B5044608460D4699
:100490000BF0D6FF23680246294620465B68BDE87C
:1004A00070401847F0B540F6055085B006F080F969
:1004B0002F4A304B304911601025A0229D7140F623
:1004C00005509A705D7106F089FA2C4B2C491A6818
:1004D0000392039E1A680292029F1A680192019881
:1004E000284A1B680093284C284B0E601760284947
:1004F000284A009F284E186027600023274C13804D
:1005000040F6C41033700B7006F042F80E212448F8
:1005100007F078FB204605F0F3FC2946214807F058
:1005200071FB0A21204807F06DFB204605F0E8FC2E
:100530000B211E4807F066FB204605F0E1FC442134
:100540001B4807F05FFB204605F0DAFC192119482B
:1005500007F058FB204605F0D3FC01210D2006F0E2
:1005600011F8154B0121187806F00CF805B0F0BD14
:1005700030AFFF1F00A0064006A00640FCB0FF1FE2
:1005800030A2FF1F04A2FF1F5096FF1F18AFFF1FCE
:10059000F9A1FF1FA8A2FF1F9CAEFF1F7887FF1FB6
:1005A000E8C80000F8C800000CC9000018C9000025
:1005B00024C900006CC900006C87FF1F2DE9F04FB3
:1005C000ADF2844D06F0E4FA002835D006F0F0FADA
:1005D000AC4BC1B20391DB78AA4900220A700F2B01
:1005E00000F2E781DFE813F0730173015601A50102
:1005F0008F01B1019D001701F700D700B3002D0155
:1006000052002C002C0010009E4B9F4A5B7B0492F2
:1006100011465E1E9B4ACB1AF6B29DF80C1056731B
:1006200083F82311002E00F07D82964A00239370F8
:1006300006F0AEFA0028C9D10DF2844DBDE8F08F66
:100640000E2B914B049305D01B88039AB2EB132F0A
:1006500000F0AE868B4A02231370049A9DF80C10AA
:10066000137982F8151113F0010F874A854B00F0BA
:10067000F08184491B780F22CA70022B4FF00D02C3
:100680004A7300F07D8100230B70CEE77E4B04930C
:100690009D687E4EE620C5F317250346942200216F
:1006A0000AE0581E43185A1C5208884202EB4202C4
:1006B00040F2C98156F82220013395424FEA530394
:1006C000EFD31946EED8954200F0B68100210B46D3
:1006D000049D2888434083EA0313DBB2DA0082EAF0
:1006E000032282EA102282EA1313DAB22B80039BE0
:1006F0009A4200F05086634B0E22DA70049B9DF8FC
:100700000C2083F8142100298FD05E4B4A791B7985
:1007100093428AD25E48D21A184400210BF062FA42
:1007200083E7594B19881D461846039BC3714B40FC
:1007300083EA0313DBB2DA0082EA032282EA11229F
:1007400082EA13132B804F4B0722DA706DE74E4B72
:10075000039A1D886A4082EA0212D2B2D1001E4674
:1007600081EA02219B68000400F47F0081EA1521E0
:1007700040EA132381EA1212F1787372C3F307205F
:100780001B0CB072F3723280002900F0AD813D4A3B
:100790000B23D37049E73C4B9D681E881F46039B83
:1007A000734083EA0313DBB2DA0082EA032282EAAF
:1007B0001622000282EA131300F47F4040EA15215A
:1007C0003B80304B7972C1F30725080C0A22BD72B9
:1007D000F872DA7029E72C492A4B08881D7B039BA5
:1007E0004B72434083EA0313DBB2DA0082EA03224E
:1007F00082EA102282EA13130020EA070B80887233
:10080000C872204B40F17481CA78002A00F07381CD
:100810000B22DA7009E71C4B19881D461846039B0A
:1008200003724B4083EA0313DBB2DA0082EA03224D
:1008300082EA112282EA13132B80124B0822DA700B
:10084000F3E6104B039F1A790F4B0E4D1E461344CF
:1008500001321F7330883B46434083EA0313DBB207
:10086000D90081EA032181EA1021F078D2B281EA2D
:10087000131382422A7133807FF4D7AE0C23EB70BE
:10088000D3E600BF38A2FF1F8891FF1FF0D60000FB
:100890009491FF1F9D499E4B08881D7B039BCB7045
:1008A000434083EA0313DBB2DA0082EA032282EADE
:1008B000102282EA13130B80954B0022E8071A716D
:1008C00040F10F8105200A714A71D870ADE6039B93
:1008D000FD2B00F06585039BFE2B7FF4A6AE8C4BB1
:1008E0008A4A1B7B104643F0010389499DF80C504E
:1008F0000B734FF6FF7200230280854AC3700223F8
:100900008570D37091E6814B19881D461846039B6C
:1009100043714B4083EA0313DBB2DA0082EA03221D
:1009200082EA112282EA13132B80794B0522DA70B6
:100930007BE676499DF80C300B7110F0FE0F00F04D
:10094000BE80734A0123D3706FE6704B19881D4631
:100950001846039B83714B4083EA0313DBB2DA0032
:1009600082EA032282EA112282EA13132B80684B67
:100970000622DA7059E6664A0023022E93701ED1D1
:10098000049A92F8154192F8143143EA042403982A
:100990005F4901230022FD288B700A7001D0CB70C3
:1009A00010E6049E02204FF6FF73F270C870338089
:1009B00008E6564B0493DD78554B00269E70B31E17
:1009C000012BE4D9002E3FF4FDAD524E96F8683B62
:1009D0000A2B6CD08EA940F22312D7A8ADF838426A
:1009E0008DF83B5205F032FCD6F8643BADF85C4321
:1009F00003F2231306F65E37BB42C6F8643B08BF1A
:100A00003346D7A940F22312184608BFC6F8646BD4
:100A10008DF85F5305F01AFC96F8682B3D490A2AB9
:100A2000034600F0FC84501C81F8680B002A7FF418
:100A3000C9ADC1F8603BC5E5374B01EB410103EBA4
:100A400081010B7944E6344B01EB410253F822203B
:100A500039E61B6943B11B6B002B4FD091682C48C2
:100A6000090A9847002849D0294B1E782848274969
:100A7000012340F22312C3708EA805F0E7FB049A0D
:100A80001488D578012E7FF476AF214B049A204943
:100A90001B8992794A7103B94B811D491D4E01335F
:100AA0000B8196F8683B00220A2B8A7092D126218E
:100AB0001A4807F0A7F81A4805F022FA82E50888D4
:100AC000039B434083EA0313DBB2DA0082EA03228A
:100AD00082EA102282EA13130B800D4B0422DA7093
:100AE000A3E50322DA70A0E5094A0C23D3709CE544
:100AF0000922DA7099E50C22DA7096E5044B1E782B
:100B0000022EB3D003261E70B0E700BF8891FF1FEE
:100B100038A2FF1F5C96FF1FF0D6000088C90000B6
:100B20007887FF1F1369526910931C461192002B9E
:100B300000F06E8454F8100F884D3795884D616829
:100B4000A268E368874F3895874D3D953A97DFF85F
:100B500034E2864FDFF830C23C973EADCDF8ECC0B2
:100B6000CDF8E4E00FC5824B2069DA786169E3696A
:100B700007921746A26935963C460A340FC57C4B4E
:100B80000594E40004F580747A4E3494023336966A
:100B90000693202403E0059B002B00F0D080059DE8
:100BA000069EC4F14003AB4228BF2B46ED1A0595C3
:100BB0003EA8354620441D441C441A46314606953D
:100BC00005F044FB402CE6D134AA22AB92F82B006E
:100BD00092F82A101870597092F8290092F828108B
:100BE000D970987032A90433994202F10402EDD110
:100BF000369B0893379B0993389B0A93399B0B9339
:100C00003A9B0C933B9B0D933C9B0E930DF59A7A6C
:100C10003D9B0F93524621AB53F8041F42F8041F2B
:100C200031A98B42F8D10DF5B6780DF5AC7C0DF5F8
:100C30009C7E5DAF5646302558F8044F5EF8043F61
:100C400056F8042F5CF8041F4FEAF440114480EA80
:100C500074404FEAB34280EA942082EAF3120144DE
:100C600082EAD3030B44013D47F8043FE4D1424BF1
:100C70000F9ADFF81891DDF82CB0DDF824E00A9F18
:100C8000089EDDF838C0DDF8348001920C9D029397
:100C90000BE0CDF804C0C446A8461D4659F8043FF1
:100CA0000293BB467746B64606464FEAF52205EA6A
:100CB000080182EAB5122CEA050482EA75624C400A
:100CC0005AF8041F019B144487EA0E0221444FEA9C
:100CD000763002EA060407EA0E0219445440029BE9
:100CE000264A80EAB60080EAB650194420444A45B4
:100CF00001EB0B030844CCD10B99089A39440F46F9
:100D00000C99399719440B460D993A93024429449A
:100D100014460D46099A0E99059B36943244414477
:100D2000164608460A9A0F993796724461443892DB
:100D30003B953C903D910024002B7FF430AF349CD8
:100D400004F110039C42349300F278830C4B069319
:100D50000223C4F3C50405931EE000BF85AE67BB44
:100D600072F36E3C7F520E5119CDE05BABD9831FFD
:100D70008891FF1F67E6096A982F8A42ECD6000027
:100D80009C92FF1F3AF54FA58C68059BF0D500009B
:100D9000059B002B00F0D080059D069EC4F140030A
:100DA000AB4228BF2B46ED1A05953EA83546204498
:100DB0001D441C441A463146069505F047FA402C5E
:100DC000E6D134AA22AB92F82B0092F82A101870C0
:100DD000597092F8290092F82810D970987032A9A9
:100DE0000433994202F10402EDD1369B0893379BFC
:100DF0000993389B0A93399B0B933A9B0C933B9B2B
:100E00000D933C9B0E930DF59A7A3D9B0F935246A2
:100E100021AB53F8041F42F8041F31A98B42F8D1CB
:100E20000DF5B6780DF5AC7C0DF59C7E5DAF5646A4
:100E3000302558F8044F5EF8043F56F8042F5CF84C
:100E4000041F4FEAF440114480EA74404FEAB34271
:100E500080EA942082EAF312014482EAD3030B442D
:100E6000013D47F8043FE4D1BD4B0F9ADFF8FC92F7
:100E7000DDF82CB0DDF824E00A9F089EDDF838C0CC
:100E8000DDF8348001920C9D02930BE0CDF804C094
:100E9000C446A8461D4659F8043F0293BB46774610
:100EA000B64606464FEAF52205EA080182EAB5127F
:100EB0002CEA050482EA75624C405AF8041F019B33
:100EC000144487EA0E0221444FEA763002EA06040F
:100ED00007EA0E0219445440029BA24A80EAB60077
:100EE00080EAB650194420444A4501EB0B030844FC
:100EF000CCD10B99089A39440F460C99399719446B
:100F00000B460D993A930244294414460D46099A1A
:100F10000E99059B369432444144164608460A9A77
:100F20000F9937967244614438923B953C903D91BD
:100F30000024002B7FF430AF349C04F138039C4232
:100F4000349300F27782884B06930723C4F3C504D9
:100F5000059303E0059B002B00F0D080059D069EC5
:100F6000C4F14003AB4228BF2B46ED1A05953EA8BD
:100F7000354620441D441C441A463146069505F06A
:100F800065F9402CE6D134AA22AB92F82B0092F8F6
:100F90002A101870597092F8290092F82810D97008
:100FA000987032A90433994202F10402EDD1369BC4
:100FB0000893379B0993389B0A93399B0B933A9B71
:100FC0000C933B9B0D933C9B0E930DF59A7A3D9BA6
:100FD0000F93524621AB53F8041F42F8041F31A966
:100FE0008B42F8D10DF5B6780DF5AC7C0DF59C7EF5
:100FF0005DAF5646302558F8044F5EF8043F56F86A
:10100000042F5CF8041F4FEAF440114480EA744056
:101010004FEAB34280EA942082EAF312014482EA62
:10102000D3030B44013D47F8043FE4D14C4B0F9AE6
:10103000DFF83891DDF82CB0DDF824E00A9F089E37
:10104000DDF838C0DDF8348001920C9D02930BE08E
:10105000CDF804C0C446A8461D4659F8043F029383
:10106000BB467746B64606464FEAF52205EA080132
:1010700082EAB5122CEA050482EA75624C405AF8FD
:10108000041F019B144487EA0E0221444FEA763084
:1010900002EA060407EA0E0219445440029B314A50
:1010A00080EAB60080EAB650194420444A4501EB74
:1010B0000B030844CCD10B99089A39440F460C997C
:1010C000399719440B460D993A9302442944144622
:1010D0000D46099A0E99059B3694324441441646B2
:1010E00008460A9A0F9937967244614438923B95A4
:1010F0003C903D910024002B7FF430AF349D059946
:10110000C5F3C504C4F177068023472206F03F06E5
:101110000DF189008DF888300AF064FD06F10902AE
:101120001046059222AA1644359B33712A0AF271A1
:101130002A0E72711A0C290CB27005EBC00295428E
:10114000B1714FEA1321F1704FEA136184BF01338B
:10115000359322AB35727170349206930CE000BF68
:10116000982F8A42ECD600009E92FF1FF0D5000017
:10117000059B002B00F0D080059D069EC4F1400326
:10118000AB4228BF2B46ED1A05953EA835462044B4
:101190001D441C441A463146069505F057F8402C6C
:1011A000E6D134AA12AB92F82B0092F82A101870EC
:1011B000597092F8290092F82810D970987022A9D5
:1011C0000433994202F10402EDD1369B0893379B18
:1011D0000993389B0A93399B0B933A9B0C933B9B47
:1011E0000D933C9B0E930DF59A7A3D9B0F935246BF
:1011F00011AB53F8041F42F8041F21A98B42F8D108
:101200000DF5B6780DF5AC7C0DF59C7E5DAF5646C0
:10121000302558F8044F5EF8043F56F8042F5CF868
:10122000041F4FEAF440114480EA74404FEAB3428D
:1012300080EA942082EAF312014482EAD3030B4449
:10124000013D47F8043FE4D1A04B0F9ADFF890929C
:10125000DDF82CB0DDF824E00A9F089EDDF838C0E8
:10126000DDF8348001920C9D02930BE0CDF804C0B0
:10127000C446A8461D4659F8043F0293BB4677462C
:10128000B64606464FEAF52205EA080182EAB5129B
:101290002CEA050482EA75624C405AF8041F019B4F
:1012A000144487EA0E0221444FEA763002EA06042B
:1012B00007EA0E0219445440029B854A80EAB600B0
:1012C00080EAB65019442044914501EB0B030844D1
:1012D000CCD10B99089A39440F460C993997194487
:1012E0000B460D993A930244294414460D46099A37
:1012F0000E99059B369432444144164608460A9A94
:101300000F9937967244614438923B953C903D91D9
:101310000024002B7FF430AF9DF8DB309DF8DA20FD
:101320006C4C9DF8D8008DF848308DF849209DF818
:10133000D9309DF8DF208DF84A308DF84B009DF8AC
:10134000DE308DF84C2004F21D1112A806228DF813
:101350004D300AF0B1FB002874D0109B1B6B4BB1D1
:10136000049A5D4891685B4C090A984700284FD160
:10137000E3780793584B03261E70574855490123BD
:10138000C37040F223128EA804F060FF049B079DF7
:101390001C88FFF777BB504A0D23D370FFF7AEB917
:1013A0004D4B4C4A1B7B104623F00103FFF79DBABF
:1013B000494A01231370FFF750B90F28CDD8DDE952
:1013C0002267109B454AD3E9024592194FF000036A
:1013D0007B41AB4208BFA242BFD3119A049D00EBF0
:1013E000C0041444EB79E3702B7A2371013084F844
:1013F00002E0053410800B6823608B881099A3806D
:10140000D1E90223BB4208BFB24201D2C1E902675F
:10141000049BDB780793304B01261E70ADE7D1F8B3
:10142000603B03F22313BB4208BF0B46C1F8603B8D
:10143000FFF7C8B8359B0133359384E5359B0133FD
:10144000359383E404F2171100230022CDE922230F
:10145000119B08688D8894F816E12290ADF88C50A5
:10146000002B3FF47AAF18880028A8D0E579267AB7
:10147000059C04E094B2A04203F109039DD0DF78FB
:10148000AF4204F10102F5D11F79B742F2D19F7842
:101490007745EFD1A04290D0119B04EBC4042344C4
:1014A0001C460DF590650022002365E9D22354F80F
:1014B000050F2860A388AB80D5E90023DDE922670A
:1014C000BB4208BFB24296D347E700BF982F8A427B
:1014D000ECD600008891FF1F38A2FF1F808D5B00B3
:1014E000F0D50000F0B5334A334B1068334C344D1F
:1014F000012683B01E7009F073FD324909F078FEB1
:10150000314B2060186809F06BFD2E4909F070FE20
:101510002E4B6060186809F063FD2D4909F068FEE4
:101520002C4BA060188809F057FD2B4909F060FE8C
:10153000542103462948E36006F064FB082128484B
:1015400006F060FB206809F0F5F8072702460B4615
:101550000097284604F02CFD0921224806F052FB92
:10156000606809F0E7F8009702460B46284604F049
:101570001FFD09211C4806F045FBA06809F0DAF8B8
:10158000009602460B46284604F012FD0921174832
:1015900006F038FBE06809F0CDF8022402460B465D
:1015A0000094284604F004FD284603B0BDE8F0404E
:1015B00004F0A6BC0CA5FF1FF9A1FF1FB090FF1FF0
:1015C0007887FF1F8096184B08A2FF1FACA2FF1F51
:1015D00000007A44D890FF1F0000C842B0C9000044
:1015E00008CA000014CA000020CA00002CCA00006B
:1015F0002DE9F04FADF5137D012200218DF83C203F
:101600008DF83D208DF83E10B14E0F98B14DB24C83
:101610003170B24E2A702270DFF8DCE2B04D9EF8D5
:101620000C30B04C020CB273AC4A9172D172AB491F
:1016300090812B26FF2003F00203BE224E722870F9
:1016400003EA0006227093BBDEF81030002B00F096
:1016500067861F7807F00107A04CFF21FD230220B9
:10166000BE22E171A370E07021462272002F00F0CB
:101670006B869EF80620A27113AC551C8EF806509E
:101680002370012500230D714B7160700A2508211C
:10169000924B22711879A0700023FF20E37023720F
:1016A0006372BE222B236071A271E37122E08B4C26
:1016B0000221FE23E170E0712272A370042106254D
:1016C0009EF8062085488DF84C3013AC834B827110
:1016D000501C00278EF80600022060701F715F7199
:1016E000002E00F02E86FF23A270E370BE222B2373
:1016F000227163714FF6FF7C66460DF14D000223A7
:1017000001E010F8013F83EA0C0383EA0313DBB224
:10171000DA0082EA032282EA1C2C01398CEA1313D4
:1017200089B21BB2B1421FFA83FCEAD16B4A6B4902
:10173000127B497B534083EA0313DBB2DA0082EA6F
:10174000032282EA1C2282EA13131BB281EA0302FB
:1017500082EA0211C9B2CA0082EA0122C3F3072356
:10176000534083EA111212B282F0840383EA031316
:10177000DBB2D90081EA0321C2F307224A4057496C
:10178000C87882EA13130A461BB20244C3F3072047
:101790000B808B735073002F75D1504BCD789A7896
:1017A000FE2A2C4619467DD0012C40F2BC852944E6
:1017B000CB7A1BB100F0B7BDDB7A2BB9013CE4B2A8
:1017C000464B012C2344F7D12646444B464D9B689B
:1017D000DFF808912A70C3F317231A12181499F826
:1017E000061099F8048099F805E02A72EB7199F8CF
:1017F000072099F80830687229716A71AB71324616
:1018000005F10A006C7085F803E009F10C0185F818
:10181000028004F01BFD06F10A0218F0010F05EB2F
:1018200002031AD109212D4A12881A7012125A7015
:101830000023194403312D4B2B48214489B21980D0
:1018400005F042F92C212A4806F0DCF929480DF56B
:10185000137DBDE8F04F04F053BBB9F80010A95454
:10186000981C0912D9F81671D9F81A61D9F81E51C5
:1018700099F822215970C3F8027009210D2346609E
:1018800085600273D5E7DEF81060CB78049316B15B
:101890003378DB0732D4049D2C46104B9A78FE2A0D
:1018A000194681D19B68104E88793270C3F3172393
:1018B000CA7973710B7AB0700C31F2703371747035
:1018C000B01D2A4604F0C2FCAB1D33440521AAE733
:1018D000ECA1FF1FA090FF1FDA90FF1F4CADFF1F70
:1018E0001EA2FF1F08A5FF1FC4AFFF1F9890FF1F78
:1018F00038CA00007887FF1F38A2FF1F737881F86D
:101900001631D6E9022392AF67E982233868BB8893
:10191000C1F81701A1F81B31D6E90223013243F1C6
:101920000003C6E902238D4F56F8100F3C97DFF8ED
:1019300048E28B4F7168B268F368CDF8F4E03E97E7
:10194000DFF838E2874FCDF8FCE04097DFF830C28F
:10195000DFF830E2CDF8ECC042AFCDF804E10FC7BC
:10196000AE4630697169B269F36902954FF4807CC3
:101970007D4D3A9500260CEBCE0503943996202434
:101980000FC7389503E0029B002B00F0D180029D29
:10199000039EC4F14003AB4228BF2B46ED1A0295CB
:1019A00042A8354620441D441C441A46314603953E
:1019B00004F04CFC402CE6D138AA26AB92F82B1050
:1019C000197092F82A4092F8281092F82900D970DC
:1019D0005C70987036A90433994202F10402EDD18B
:1019E0003A9B05933B9B06933C9B07933D9B089337
:1019F0003E9B09933F9B0A93409B0B930DF5A27A64
:101A0000419B0C93524625AB53F8041F42F8041F28
:101A100035A99942F8D10DF5BE780DF5B47C0DF5D8
:101A2000A47E61AF5646102558F8044F5EF8043F77
:101A300056F8042F5CF8041F4FEAF440114480EA82
:101A400074404FEAB34280EA942082EAF3120144E0
:101A500082EAD30301350B44402D47F8043FE3D11C
:101A6000424B0C9ADFF82091DDF820B0DDF818E049
:101A7000079F059EDDF82CC0DDF828800092099DA7
:101A800001930BE0CDF800C0C446A8461D4659F8A6
:101A9000043F0193BB467746B64606464FEAF52219
:101AA00005EA080182EAB5122CEA050482EA7562A9
:101AB0004C405AF8041F009B144487EA0E0221444C
:101AC0004FEA763002EA060407EA0E02194454404F
:101AD000019B274A80EAB60080EAB65019442044A8
:101AE0004A4501EB0B030844CCD10899059A3944C7
:101AF0000F4609993D9719440B460A993E930244B3
:101B0000294414460D46069A0B99029B3A94324496
:101B1000414416460846079A0C993B967244614424
:101B20003C923F95409041910024002B7FF42FAFD1
:101B3000389D049B05EBC304A542389402D9399B18
:101B400001333993049BC5F3C505002B00F0F683E0
:101B5000084B049A0D93029203931BE072F36E3CC0
:101B60007F520E51ABD9831F67E6096A982F8A42CC
:101B7000ECD6000058ADFF1F3AF54FA58C68059BC9
:101B800085AE67BB19CDE05BF0D50000029B002B52
:101B900000F0D180029C039EC5F14003A34228BF00
:101BA0002346E41A029442A8344628441C441D44A7
:101BB0001A463146039404F049FB402DE6D138AA79
:101BC00026AB92F82B0092F82A101870597092F8F0
:101BD000290092F82810D970987036A904339942D8
:101BE00002F10402EDD13A9B05933B9B06933C9B8B
:101BF00007933D9B08933E9B09933F9B0A93409B11
:101C00000B930DF5A27A419B0C93524625AB53F8EA
:101C1000041F42F8041F35A99942F8D10DF5BE788A
:101C20000DF5B47C0DF5A47E61AF5646102558F82D
:101C3000044F5EF8043F56F8042F5CF8041F4FEA87
:101C4000F440114480EA74404FEAB34280EA9420A1
:101C500082EAF312014482EAD30301350B44402D9A
:101C600047F8043FE3D1AF4B0C9ADFF8C492DDF89C
:101C700020B0DDF818E0079F059EDDF82CC0DDF8E8
:101C800028800092099D01930BE0CDF800C0C44666
:101C9000A8461D4659F8043F0193BB467746B64611
:101CA00006464FEAF52205EA080182EAB5122CEA57
:101CB000050482EA75624C405AF8041F009B1444E4
:101CC00087EA0E0221444FEA763002EA060407EA68
:101CD0000E0219445440019B934A80EAB60080EA00
:101CE000B650194420444A4501EB0B030844CCD1BB
:101CF0000899059A39440F4609993D9719440B46AE
:101D00000A993E93024429440D4614460B99069ABB
:101D1000029B3F953244414416460846079A0C9967
:101D20003A94724461443B963C9240904191002524
:101D3000002B7FF42FAF389C04F11003A34238939B
:101D400002D2399B013339930D9B049A13440393B8
:101D50000223C4F3C504029303E0029B002B00F0AE
:101D6000D180029D039EC4F14003AB4228BF2B46A5
:101D7000ED1A029542A8354620441D441C441A46DB
:101D80003146039504F062FA402CE6D138AA26AB1E
:101D900092F82B10197092F82A4092F8281092F8B5
:101DA0002900D9705C70987036A90433994202F109
:101DB0000402EDD13A9B05933B9B06933C9B079312
:101DC0003D9B08933E9B09933F9B0A93409B0B933B
:101DD0000DF5A27A419B0C93524625AB53F8041F94
:101DE00042F8041F35A99942F8D10DF5BE780DF5DA
:101DF000B47C0DF5A47E61AF5646102558F8044F0B
:101E00005EF8043F56F8042F5CF8041F4FEAF440D4
:101E1000114480EA74404FEAB34280EA942082EA97
:101E2000F312014482EAD30301350B44402D47F8F5
:101E3000043FE3D13B4B0C9ADFF8F490DDF820B07F
:101E4000DDF818E0079F059EDDF82CC0DDF828803E
:101E50000092099D01930BE0CDF800C0C446A8464E
:101E60001D4659F8043F0193BB467746B6460646E1
:101E70004FEAF52205EA080182EAB5122CEA0504C8
:101E800082EA75624C405AF8041F009B144487EAAA
:101E90000E0221444FEA763002EA060407EA0E02F7
:101EA00019445440019B204A80EAB60080EAB650AB
:101EB000194420444A4501EB0B030844CCD108994E
:101EC000059A39440F4609993D9719440B460A99DA
:101ED0003E930244294414460D46069A0B99029BF0
:101EE0003A943244414416460846079A0C993B9668
:101EF000724461443C923F95409041910024002BF4
:101F00007FF42FAF389C04F138039C42389302D9F8
:101F1000399B01333993054B03930723C4F3C5045D
:101F200002930BE0982F8A42ECD6000062AEFF1FAE
:101F3000F0D50000029B002B00F0D180029D039E93
:101F4000C4F14003AB4228BF2B46ED1A029542A8CC
:101F5000354620441D441C441A463146039504F07E
:101F600075F9402CE6D138AA26AB92F82B101970DF
:101F700092F82A4092F8281092F82900D9705C70E3
:101F8000987036A90433994202F10402EDD13A9BCC
:101F900005933B9B06933C9B07933D9B08933E9B7D
:101FA00009933F9B0A93409B0B930DF5A27A419BAB
:101FB0000C93524625AB53F8041F42F8041F35A971
:101FC0009942F8D10DF5BE780DF5B47C0DF5A47EDF
:101FD00061AF5646102558F8044F5EF8043F56F896
:101FE000042F5CF8041F4FEAF440114480EA744067
:101FF0004FEAB34280EA942082EAF312014482EA73
:10200000D30301350B44402D47F8043FE3D1C74BC0
:102010000C9ADFF82493DDF820B0DDF818E0079F74
:10202000059EDDF82CC0DDF828800092099D019303
:102030000BE0CDF800C0C446A8461D4659F8043F41
:102040000193BB467746B64606464FEAF52205EAB7
:10205000080182EAB5122CEA050482EA75624C4056
:102060005AF8041F009B144487EA0E0221444FEAE9
:10207000763002EA060407EA0E0219445440019B36
:10208000AB4A80EAB60080EAB650194420444A457B
:1020900001EB0B030844CCD10899059A39440F464B
:1020A00009993D9719440B460A993E9302442944E5
:1020B00014460D46069A0B99029B3A9432444144C9
:1020C00016460846079A0C993B96724461443C9226
:1020D0003F95409041910024002B7FF42FAF389E14
:1020E0000299C6F3C504C4F1770303F03F058027C6
:1020F00047220DF199008DF8987009F073FD05F1F4
:1021000009031F46029326AB2B44399A1E72310AEB
:10211000D971310E5971300C110C98719970100AE7
:1021200006EBC701D8708E424FEA12601A715870E0
:1021300084BF531C399326AB3891039303E0029B71
:10214000002B00F0D080029D039EC4F14003AB42FF
:1021500028BF2B46ED1A029542A8354620441D445F
:102160001C441A463146039504F070F8402CE6D121
:1021700038AA16AB92F82B10197092F82A4092F8F0
:10218000281092F82900D9705C70987026A9043341
:10219000994202F10402EDD13A9B05933B9B0693D1
:1021A0003C9B07933D9B08933E9B09933F9B0A935F
:1021B000409B0B930DF5A27A419B0C93524615ABB5
:1021C00053F8041F42F8041F25A98B42F8D10DF5DE
:1021D000BE780DF5B47C0DF5A47E61AF5646302572
:1021E00058F8044F5EF8043F56F8042F5CF8041FBB
:1021F0004FEAF440114480EA74404FEAB34280EA67
:10220000942082EAF312014482EAD3030B44013D95
:1022100047F8043FE4D1454B0C9ADFF81C91DDF8F8
:1022200020B0DDF818E0079F059EDDF82CC0DDF832
:1022300028800092099D01930BE0CDF800C0C446B0
:10224000A8461D4659F8043F0193BB467746B6465B
:1022500006464FEAF52205EA080182EAB5122CEAA1
:10226000050482EA75624C405AF8041F009B14442E
:1022700087EA0E0221444FEA763002EA060407EAB2
:102280000E0219445440019B294A80EAB60080EAB4
:10229000B65019442044914501EB0B030844CCD1BE
:1022A0000899059A39440F4609993D9719440B46F8
:1022B0000A993E930244294414460D46069A0B9906
:1022C000029B3A943244414416460846079A0C99B8
:1022D0003B96724461443C923F954090419100246A
:1022E000002B7FF430AF134E9DF8EB5086F81D5154
:1022F000049D9DF8EA409DF8E9009DF8E8109DF8DE
:10230000EF209DF8EE3086F81E4186F81F0186F812
:10231000201186F8212186F822312C46FFF7BDBA1C
:102320003746FFF799B92E46FFF74FBA982F8A42E2
:10233000ECD600004CADFF1FF0D50000044B0D9310
:10234000FAE43746FFF7A4B908210A25FFF7B8B920
:1023500058ADFF1F10B5194B197882B0C9B9184B89
:10236000184A1B68019301981368C31AB3F5FA7FE2
:10237000154B08D310601A78C2B10D20197004F003
:10238000FBF802B010BD19780D2004F0F5F802B08A
:1023900010BD01230C4C19460D20237004F0ECF8FD
:1023A00021780D2004F0E8F802B010BD01210D20C5
:1023B000197004F0E1F802B010BD00BF9CAEFF1F21
:1023C000FCB0FF1F1CA5FF1FB6AEFF1F064B93F806
:1023D0001C320A2B054B0CBF012100211970044B44
:1023E000187804F0C9B800BFD4A2FF1FEFB0FF1FD8
:1023F0006C87FF1F10B5044607292DD8DFE801F0D0
:10240000090E13181D222704164903F0E9FE204681
:1024100010BD154903F0E4FE204610BD134903F03A
:10242000DFFE204610BD124903F0DAFE204610BD43
:10243000104903F0D5FE204610BD0F4903F0D0FE31
:10244000204610BD0D4903F0CBFE204610BD0C49BF
:1024500003F0C6FE204610BD0A4903F0C1FE204627
:1024600010BD00BF30CB0000F0CA0000FCCA000065
:1024700004CB000010CB000018CB000020CB0000E4
:1024800028CB000038CB0000013910B504460829DC
:1024900038D8DFE801F00A0F141923282D3205007F
:1024A0002F4903F09DFE204610BD2E4903F098FEF3
:1024B000204610BD2C4903F093FE204610BD2B4949
:1024C00003F08EFE204610BD013A082A43D8DFE80B
:1024D00002F03E3A36322E2A26221E00244903F00C
:1024E0007FFE204610BD234903F07AFE204610BD32
:1024F000214903F075FE204610BD204903F070FE0F
:10250000204610BD1E4903F06BFE204610BD1D493C
:1025100003F066FEC7E71C4903F062FEC3E71B49F0
:1025200003F05EFEBFE71A4903F05AFEBBE7194904
:1025300003F056FEB7E7184903F052FEB3E7174918
:1025400003F04EFEAFE7164903F04AFEABE715492C
:1025500003F046FEA7E7144903F042FEA3E700BFDD
:1025600014CC000040CB000048CB000054CB00004E
:10257000E8CB0000F0CB0000FCCB000008CC000052
:1025800038CB0000C8CB0000B8CB0000ACCB0000BB
:10259000A0CB000094CB000084CB000078CB0000DF
:1025A00068CB00005CCB0000D8CB000001380828C5
:1025B0001DD8DFE800F00507090B121416181A00E1
:1025C0000020704701207047022070470139C9B2CE
:1025D00008290ED8084B585C704703207047042028
:1025E00070470520704706207047072070470B2072
:1025F00070471F20704700BFDCC80000F8B5154CBD
:10260000E66805464FF07E51304608F0DBFE18B113
:10261000284608F0E1FC0646284608F0E1FC0E4991
:1026200008F032FD0D490746304608F02DFD014601
:10263000384608F021FC0A496269E369E060A1FBC1
:10264000051502EB951501336561E36108F01EFF86
:10265000F8BD00BF4887FF1FCDCCCC3D6666663F06
:10266000D34D6210F0B51D4C94F8203085B005466E
:10267000002B2FD01A4B1A680192019A0021013ABF
:1026800084F820101968039103981B680293029B39
:102690002361801A08F0A0FC124908F0A9FD08F097
:1026A00049F8064628460F4608F022F802460B462F
:1026B0003046394608F092F808F088FB0A4908F0DD
:1026C000E3FC034601466068236008F0D5FB6060C8
:1026D00005B0F0BD2269024BD4E700BF4887FF1F59
:1026E000FCB0FF1F00BA5B4A0000204170B5114DDD
:1026F0000646FFF7B7FFAC684FF07E51204608F062
:1027000061FE18B1304608F067FC0446304608F018
:1027100067FC094908F0B8FC08490646204608F05D
:10272000B3FC0146304608F0A7FBA86008F0AEFEF7
:1027300070BD00BF4887FF1FCDCC4C3ECDCC4C3F79
:10274000F8B5144CE66805460021304608F030FE26
:1027500018B1284608F040FC0646284608F040FC20
:102760000D4908F091FC0D490746304608F08CFCF5
:102770000146384608F080FB09496269E369E06078
:10278000A1FB051502EB951501336561E36108F0C6
:102790007DFEF8BD2487FF1FCDCC4C3ECDCC4C3FF9
:1027A000D34D6210F0B5194C94F8203085B0054631
:1027B0004BB3174B1A680192019A0021013A84F831
:1027C00020101968039103981B680293029B2361F0
:1027D000801A08F001FC0F4908F00AFD07F0AAFF73
:1027E000064628460F4607F083FF02460B46304652
:1027F000394607F0F3FF08F0E9FA074908F044FC0E
:10280000206005B0F0BD2269014BDAE72487FF1F85
:10281000FCB0FF1F00BA5B4A00002041F8B5114C24
:10282000A66805460021304608F0C2FD18B12846CA
:1028300008F0D2FB0646284608F0D2FB0A4908F009
:1028400023FC0A490746304608F01EFC014638467C
:1028500008F012FBA0602846FFF7A4FFA06808F06C
:1028600015FEF8BD2487FF1FCDCCCC3D6666663FC4
:102870002DE9F04F124D95F8686BE5B0002E01F090
:10288000A886D5F8601B40F2231201F223141BA87E
:10289000C5F8604B03F0DAFC05F65E339C42094C48
:1028A00028BFC5F8605B013E1BA9204640F22312F9
:1028B00085F8686B03F0CAFCA368C3F3172303E031
:1028C0005C96FF1F4CADFF1FFD2B01F2BF84DFE8BC
:1028D00013F0FE00570CBD0CBD0CBD0CBD0CBD0CA7
:1028E000BD0CBD0CBD0CBD0CBD0CBD0CBD0CBD0CA0
:1028F000BD0CBD0CBD0CBD0CBD0CAE01AE01730713
:10290000BD0C5906BD0CBD0CED05BD0CA5050205A1
:10291000BD0CBD0CB90ABD0C510AA70BBD0CBD0CFA
:102920005F09BD0CBD0CED0BBD0C3E0ABD0CBD0C12
:10293000BD0CBD0CBD0CBD0CBD0CBD0CBD0CBD0C4F
:10294000BD0CBD0CBD0CBD0CBD0CBD0CBD0C800484
:10295000BD0CBD0C1504AE01BD0CBD0CBD0CBD0CF9
:10296000BD0CBD0CBD0CF602BD0CBD0CBD0CBD0CF0
:10297000BD0CBD0CBD0CBD0CBD0CBD0CBD0CBD0C0F
:10298000BD0CBD0CBD0CBD0CBD0CBD0CBD0CBD0CFF
:10299000BD0CBD0CBD0CBD0CBD0CBD0CBD0CBD0CEF
:1029A000BD0CBD0CBD0CBD0CBD0CBD0CBD0CBD0CDF
:1029B000BD0CBD0CBD0CBD0CBD0CAE01BD0CBD0CE9
:1029C000BD0CBD0CBD0CBD0CBD0CBD0C0202BD0C84
:1029D000BD0CBD0CBD0CBD0CBD0CBD0CBD0CBD0CAF
:1029E000BD0CBD0CBD0CBD0CBD0CBD0CBD0CBD0C9F
:1029F000BD0CBD0CBD0CBD0CB101BD0CBD0CAE01C0
:102A0000BD0CAE01BD0CBD0CBD0CBD0CBD0CBD0C98
:102A1000BD0CBD0CBD0CBD0CBD0CBD0CBD0C5903DB
:102A2000BD0CBD0CBD0CBD0CBD0CBD0CBD0CBD0C5E
:102A3000BD0CBD0CBD0CAE01BD0CBD0C8902AE01C0
:102A4000BD0CBD0CBD0CBD0CBD0CBD0CBD0CBD0C3E
:102A5000BD0CBD0CBD0CBD0CBD0CBD0CBD0CBD0C2E
:102A6000BD0CBD0CBD0CBD0CBD0CBD0CBD0CBD0C1E
:102A7000BD0CBD0CBD0CBD0CBD0CBD0CBD0CBD0C0E
:102A8000BD0CBD0CBD0CBD0CBD0CBD0CBD0CBD0CFE
:102A9000BD0CBD0CBD0CBD0CBD0CBD0CBD0CBD0CEE
:102AA000BD0CBD0CBD0CBD0CBD0CBD0CBD0CBD0CDE
:102AB000BD0CBD0CBD0CBD0CBD0CBD0CBD0CBD0CCE
:102AC000BD0CBD0CBD0CBD0CBD0CBD0C3B08237C6E
:102AD000974A984913705A1F012A40F2A8801B2B6D
:102AE00000F0A5804D7CDFF8EC92934A89F8005005
:102AF000A5F10C051268C868904C914E0992B5FA80
:102B000085F56D09DFF8D0A2DDF824E08D4F8E4AFF
:102B10002570050CC6F800E0DFF8C0B291F812E0AD
:102B20008AF80050894DDFF8B8823860884E1370FB
:102B3000000E0B7D8BF800002B70C87C88F800E03D
:102B40005FEADE13307004D0824B1B78002B01F05B
:102B50008B8419218048029205F054F808217F489F
:102B600005F050F8029A7E48117800230A2203F0FB
:102B7000D7F90F217B4805F045F800230A2299F880
:102B80000010774803F0CCF90F21774805F03AF8A8
:102B900000230A2298F80010714803F0C1F91021AF
:102BA000724805F02FF800230A2239686C4803F0B8
:102BB000B7F913216E4805F025F800230A22317871
:102BC000674803F0ADF915216A4805F01BF80023AA
:102BD000297863480A2203F0A3F92378002B41F0F7
:102BE000E383654D5E4803F08BF92C78FCB9634EA6
:102BF0006348338809210133338005F003F83188B5
:102C0000574803F0CDF921465E4804F0FBFF5448D5
:102C100003F076F93388022B09D901230C215A4895
:102C20002B7004F0EFFF4E4803F06AF9348065B072
:102C3000BDE8F08F504B1B78002BF8D094F82C3067
:102C4000524D534F534E5449B4F82AE0E26894F879
:102C50002F002B70A7F800E032600870002B41F0C5
:102C600032834E4B1A8020214D4804F0CBFF0921BE
:102C70004C4804F0C7FF00230A222978384803F0A3
:102C80004FF91121484804F0BDFFB7F9001034484E
:102C900001EB8101490003F083F91A21434804F054
:102CA000B1FF31682E4803F07BF92C7840480F21A2
:102CB000002C41F0008304F0A5FF3E4B586807F05C
:102CC00039FD009402460B46254803F071F924486B
:102CD00003F016F9ABE7284B1B78002BA7D0364F33
:102CE000A189364E364DE289238A398035483280B3
:102CF0001E212B8004F086FF0521334804F082FF5B
:102D00003988174803F04CF90A21304804F07AFF5B
:102D10003188134803F044F92D48092104F072FF6B
:102D200029880F4803F03CF90D4803F0E9F87EE7E5
:102D300038AFFF1F4CADFF1FFCB0FF1FB4A2FF1F39
:102D400030A2FF1F7C91FF1F98A2FF1FF090FF1F72
:102D5000A4AEFF1FF9A1FF1F2CCC000048CC00003F
:102D60007887FF1F54CC000064CC000074CC0000B6
:102D700088CC00009CCC00009CAEFF1FA8A2FF1FC7
:102D8000D4CC00003CD30000E0CC0000CE90FF1F6C
:102D9000D0A1FF1F24A2FF1FF8A1FF1FCC90FF1F8F
:102DA000D8D30000FCD3000008D400001CD40000DD
:102DB00038D400004887FF1F36AFFF1FF6A4FF1F5F
:102DC000B4AEFF1F98D30000B8D30000C0D30000FA
:102DD000CCD30000E0B0FF1F6591FF1F2AA5FF1FA5
:102DE000FDAEFF1F9B4B1B78002B3FF420AFA0894B
:102DF000994D9A4FFFF7A4FC2880E089FFF70EFD5C
:102E00002B88388045F20822934241F2B482944CD8
:102E1000062323701A219348934E04F0F3FE0B21EE
:102E2000924804F0EFFE288808F0D6F8904908F0A0
:102E3000DFF907F07FFC032502460B4600958D481D
:102E400003F0B6F80B218C4804F0DCFEB7F9000063
:102E500008F0C6F8894908F0CBF907F06BFC0127A8
:102E600002460B460097834803F0A2F806218448E7
:102E700004F0C8FE306807F05DFC062702460B46EA
:102E800000977C4803F094F80C217E4804F0BAFEC9
:102E9000706807F04FFC009502460B46754803F03A
:102EA00087F81221784804F0ADFE2178714800239C
:102EB0000A2203F035F86F4803F022F8B7E6654BB5
:102EC0001B78002B3FF4B3AEDFF818A2DFF818929E
:102ED000DFF818826D4FE2682369A18BE08B6C4E9E
:102EE0006C4DCAF80020C9F800306269A369A8F8DF
:102EF000001038801821684832602B6004F082FE90
:102F00000A21664804F07EFEDAF8000007F012FCA1
:102F1000022402460B460094564803F049F80F215C
:102F20005F4804F06FFED9F8000007F003FC00943E
:102F300002460B464F4803F03BF80B21594804F07A
:102F400061FEB8F900104B4803F02AF80E215648EC
:102F500004F058FE3988474803F022F80C21534802
:102F600004F050FE306807F0E5FB002602460B46F1
:102F70000096404803F01CF84D480E2104F042FE34
:102F800028689CE6334B1B78002B3FF450AEDFF8EB
:102F900050B1217CDFF858A1DFF85891DFF8588153
:102FA000444F627CA37C207D434E8BF80010434D40
:102FB000E17C8AF8002089F80030A289E38988F84A
:102FC0000010387017213E4832802B8004F01AFE22
:102FD00005213C4804F016FE00230A229BF800104D
:102FE000244802F09DFF0821374804F00BFE00231F
:102FF0000A229AF800101F4802F092FF0621334877
:1030000004F000FE00230A2299F80010194802F08B
:1030100087FF06212E4804F0F5FD00230A2298F8C8
:103020000010144802F07CFF09212A4804F0EAFD50
:1030300000230A2239780F4802F072FF092126483E
:1030400004F0E0FD31880B4802F0AAFF0621234876
:1030500064E600BF9CAEFF1F00AFFF1F20A5FF1F4F
:103060008491FF1FA4D400002487FF1F0CCD000013
:1030700000007A447887FF1F18CD00000000C84286
:1030800024CD00002CCD0000C0D40000BCAEFF1F3A
:10309000AC90FF1F6091FF1F24D3000040D30000BD
:1030A0004CD300005CD3000068D3000078D300004C
:1030B00088D3000056AFFF1F8291FF1F34AFFF1F60
:1030C00048D4000060D4000068D4000074D400002C
:1030D0007CD4000084D4000090D400009CD4000074
:1030E0005C91FF1FF0A1FF1F3CADFF1FD090FF1FA1
:1030F00030ADFF1F5EAFFF1FC0A2FF1F9D4B1B78AF
:10310000002B3FF494AD9C4E9C4D94F83430278AAC
:10311000608AA28AE18A3370238B2F806880678B54
:10312000A08BAA80E980E28B218C2B81638C6F813C
:10313000A881A78CE08CEA812982228D618D6B8227
:10314000A38DAF82E8822A836983AB83E38DEB830F
:103150008B4F238EDFF8B0E28A4A94F835102B8427
:10316000638E6B84397001231C2187488EF80030F0
:10317000137004F047FD0921844804F043FD002347
:10318000317883480A2202F0CBFE0621814804F000
:1031900039FD3378B3B1023D0024013401217E486A
:1031A00004F030FD21467A4802F0FAFE01217B4806
:1031B00004F028FD35F8021F754802F0F1FE33785F
:1031C000A342EADC0F21764804F01CFD387800F0B9
:1031D000E0BD684B1B78002B3FF429AD714BDFF845
:1031E0002CB2DFF82CA2E2682169208CDFF824924F
:1031F000DFF824826C4F1A606C4E628CCBF80010A2
:10320000AAF80000A18C6069694DD4F818E0A9F80B
:103210000020A8F80010E26938601D216548C6F852
:1032200000E02A60029304F0EDFC0C21624804F0F7
:10323000E9FC029B186807F07DFA032402460B465E
:103240000094534802F0B4FE0E215C4804F0DAFC0E
:10325000DBF8000007F06EFA009402460B464C487B
:1032600002F0A6FE1021564804F0CCFCBAF900107A
:10327000474802F095FE1321524804F0C3FCB9F907
:103280000010434802F08CFE0C214F4804F0BAFCB9
:10329000B8F800103E4802F083FE0E214B4804F0BF
:1032A000B1FC386807F046FA022402460B46009447
:1032B000374802F07DFE0F21454804F0A3FC30683A
:1032C00007F038FA009402460B46314802F070FECF
:1032D0001121404852E6274B1B78002B3FF4A7AC46
:1032E0003D4B3E493E4D626AE769266A1A60206995
:1032F0000F602E603B493C4F3C4E3D4D07F0C4FEF5
:103300003C49D4F81480A46907F072FF354938604D
:10331000404607F0B9FE374907F06AFF314930608F
:10332000204607F0B1FE334907F062FF19212860FB
:10333000314804F067FC0E21304804F063FC386823
:1033400007F0F8F9012402460B460094104802F0F9
:103350002FFE0F212A4804F055FC306807F0EAF9E7
:10336000009402460B460A4802F022FE0D21254831
:1033700004E600BF9CAEFF1F5DAFFF1F74AEFF1FD2
:103380005C91FF1F14A2FF1FF8D2000018D30000A9
:103390007887FF1FD4D00000CCCF0000E4CE00001F
:1033A00098D00000A4A2FF1FACAFFF1F2CAFFF1FDF
:1033B0005891FF1F4CD200006CD200007CD200005C
:1033C0008CD20000A0D20000B4D20000C4D2000011
:1033D000D4D20000E4D20000E4B0FF1F7091FF1FC0
:1033E000E8A1FF1F00003443F4B0FF1FBCAFFF1F74
:1033F0006C91FF1FDB0F4940B4CF0000D0CF00001D
:10340000E0CF0000F0CF0000B1A2FF1F84AFFF1F8C
:10341000C290FF1F48ADFF1FD4A1FF1F464B1B7872
:10342000002B3FF404AC454E454D2269238B4548A3
:10343000326020212B8004F0E5FB0C21424804F08F
:10344000E1FB306807F076F9012402460B46009450
:103450003E4802F0ADFD10213D4804F0D3FB3D4B4A
:10346000186807F067F9032602460B4600963748AE
:1034700002F09EFD1121384804F0C4FBB5F90000AC
:1034800007F0AEFD354907F0B3FE07F053F900949D
:1034900002460B462D4802F08BFD2146304804F0D1
:1034A000B1FB2A4802F02CFDFFF7C1BB224B1B7871
:1034B000002B3FF4BCAB2B4FB4F914102A4E2B4D0C
:1034C000B4F91620B4F9183039602948326018214F
:1034D0002B6004F097FB0521264804F093FB386825
:1034E00007F07EFD244907F083FE07F023F902244C
:1034F00002460B460094154802F05AFD07211F486A
:1035000004F080FB306807F06BFD1B4907F070FE8C
:1035100007F010F9009402460B460C4802F048FDF3
:103520000721174804F06EFB286807F059FD12497F
:1035300007F05EFEFFF7C3BB9CAEFF1FF490FF1FBA
:10354000ECB0FF1F54CF000078CF00007887FF1F3A
:1035500088CF00009CAFFF1F9CCF00000000C84236
:10356000B0CF000048AFFF1F4CAFFF1F50AFFF1F91
:1035700020CF00003CCF000000007A4444CF000080
:103580004CCF0000BD4B1B78002B3FF450AB94F8A0
:103590002820BB4EBB4D94F829303370022A2A7084
:1035A000B94BDFF890B3DFF890A3DFF89093DFF822
:1035B0009083B64FB64C00F28C86B64B0693B64B52
:1035C0000793B64B0293B64B0393B64B0493B64B9B
:1035D00005931C21B54804F015FB0B21B44804F0F9
:1035E00011FB00230A222978B24802F099FC2B78BB
:1035F000002B00F00387012B00F03C87022B00F02A
:103600003F87032B00F09F87042B00F0A287052B38
:1036100000F0B487062B00F0B787072B00F0BA87BD
:10362000082B00F08A870821A34804F0EBFA0F2149
:10363000A24804F0E7FA00230A2231789D4802F0FC
:103640006FFC0B219E4804F0DDFADBF8000007F068
:10365000C7FC9C4907F0CCFD07F06CF80725024633
:103660000B460095934802F0A3FC0C21964804F009
:10367000C9FADAF8000007F0B3FC924907F0B8FD88
:1036800007F058F8009502460B468A4802F090FC75
:103690000F218E4804F0B6FAD9F8000007F0A0FC1C
:1036A0008B4907F0A5FD07F045F8012502460B46BA
:1036B0000095804802F07CFC0D21864804F0A2FAB7
:1036C000B8F8000007F088FC07F034F8022602463C
:1036D0000B460096774802F06BFC0D217E4804F003
:1036E00091FA388807F078FC07F024F80096024633
:1036F0000B46704802F05CFC0621784804F082FA20
:10370000208807F069FC764907F072FD07F012F88F
:10371000032402460B460094664802F049FC062149
:10372000704804F06FFA069B188807F055FC6C4946
:1037300007F05EFD06F0FEFF009502460B465D4871
:1037400002F036FC1121684804F05CFA079B6749D7
:103750001B68584881FB0321DB173246C3EBA111DC
:10376000002302F0DDFB0821614804F04BFA029BC4
:10377000504819680A22002302F0D2FB08215D4854
:1037800004F040FA039B4B4819680A22002302F018
:10379000C7FB0D21584804F035FA049B45481968C9
:1037A0000A22002302F0BCFB0D21544804F02AFA3F
:1037B000059B1968FFF77ABB304B1B78002B3FF451
:1037C00036AA4F4B4F4DDFF87CE14F4F4F4E0FCB9A
:1037D00085E80F00638A4E4DE268218A3A60102026
:1037E000B3F5B27FAEF8000031802B8000F0B985D0
:1037F000B3F5B67F19D1474C474B22601C210122FB
:1038000046481A7004F0FEF945480E2104F0FAF912
:10381000206806F08FFF022402460B4600942548DC
:1038200002F0C6FB234802F06BFB1C213B4804F06E
:10383000E9F909213B4804F0E5F9324808F000FEB7
:103840000146304804F0DEF90E21374804F0DAF979
:10385000386806F06FFF042402460B4600941548B2
:1038600002F0A6FB0E21314804F0CCF93188114852
:1038700002F096FB0E212E48FFF750BA9CAEFF1FB8
:1038800024A5FF1F6E87FF1F4CADFF1F54AFFF1F06
:103890008091FF1F9690FF1FE8B0FF1F80AFFF1FB2
:1038A00034ADFF1FD0A2FF1FBCA2FF1FCCCD000074
:1038B000ECCD00007887FF1F5CCE000068CE0000D2
:1038C00078CE00008096184B84CE000094CE000085
:1038D00000007A44A4CE0000B4CE0000C4CE0000A4
:1038E0000000C842CCCE0000D4CE0000D34D621000
:1038F000E8CE0000F4CE000000CF000010CF0000A2
:1039000060ADFF1F1CAFFF1F0C91FF1F0891FF1F31
:10391000B4AFFF1FCCA1FF1F88AFFF1F50CD000029
:1039200080CD000090CD00009CCD0000ACCD00000B
:10393000BCCD000090AFFF1FB0AEFF1FACA2FF1FB9
:103940003AAFFF1F9890FF1F7E4DDFF838E27E4FA1
:10395000247B2C700EF13008BC46DEF80000DEF847
:103960000410DEF80820DEF80C3066460FC60EF1B3
:10397000100EC645B446F0D1BEF80020734E724B0F
:10398000ACF800203222328003F1330E002213F80B
:10399000010B10F0DF0F02F1010104D1187810F0D3
:1039A000DF0F00F070849E450A46F0D14FF03308D7
:1039B000434636224FF0350C4FF0340964486549D0
:1039C00080F800804FF0000E5F4807F803E007F82A
:1039D00009E007F80CE007F802E008F065FB0028B2
:1039E00040F05C84DFF8A0A101238AF800305A4F30
:1039F00097F81C320A2B00F0A184DFF8909152490D
:103A0000484608F1040200F8014B02F01FFCCE46C4
:103A1000BEE80F000DAC0FC4BEE80F000FC4BEE837
:103A20000F000FC49AF8003089F8338089F83430D9
:103A30009EE80300D7F8183244F8040B03F1350868
:103A400007F21229C8452170C7F8188204BFB8468A
:103A5000C7F818720DF1340CC6460DF1640B6446BC
:103A60000FCC5C45CEF80000CEF80410CEF808204C
:103A7000CEF80C30A4460EF1100EF0D12068CEF82E
:103A8000000023798EF8043097F81C22324B0A2A62
:103A900000F05D84511C83F81C120AB9C3F814822B
:103AA00034212E4804F0AEF80E212D4804F0AAF877
:103AB00000230A2297F81C122A4802F031FA092141
:103AC000294804F09FF83188264802F069FA0A2153
:103AD000264804F097F800230A222978214802F0AA
:103AE0001FFA0121224804F08DF8297809A8FEF771
:103AF00081FC09A91B4802F0DDF909A802F030FB9E
:103B000008211C4804F07EF802211B4804F07AF8D2
:103B10000D4808F095FC01460B4804F073F80221AB
:103B2000164804F06FF80C21154804F06BF89AF869
:103B300000100C4802F034FA0A4802F0E1F9FFF7ED
:103B400076B800BF41ADFF1F1891FF1F9890FF1F6F
:103B5000DCA1FF1FD4D40000D4A2FF1F0CD50000AD
:103B600044D500007887FF1F54D5000060D50000C1
:103B7000CCCF00006CD5000078D500007CD50000CB
:103B800080D5000059ADFF1F40ADFF1FC8AEFF1F1D
:103B9000894B1B78002B3FF44AA8884D884B228D17
:103BA00094F82E10DFF88CA219702A80029394F8F2
:103BB0002F20844BDFF880B2DFF880928AF8002053
:103BC00022691A60608D94F83010DFF874827E4BA1
:103BD0007E4FABF8000089F80010E068A169196019
:103BE0007B4E7C4BC8F80000E069D4F820E0626AA4
:103BF00038601D217848C6F800E01A6004F002F829
:103C00000A21764803F0FEFF2988754802F0C8F9BA
:103C10000D21744803F0F6FF029B714819780A22BF
:103C2000002302F07DF90F216F4803F0EBFFBBF892
:103C300000106B4802F0B4F90F216C4803F0E2FF6A
:103C400000230A229AF80010654802F069F914214D
:103C5000674803F0D7FF00230A2299F80010604854
:103C600002F05EF90E21634803F0CCFFD8F80000A3
:103C700006F060FD072402460B460094584802F007
:103C800097F90E215C4803F0BDFF4E4B186806F013
:103C900051FD009402460B46514802F089F90E216D
:103CA000564803F0AFFF484B186806F043FD0094F8
:103CB00002460B464A4802F07BF90E21504803F0B9
:103CC000A1FF504B186806F035FD009402460B46E4
:103CD000434802F06DF909214B4803F093FF38681F
:103CE00006F028FD009402460B463D4802F060F9BC
:103CF0000921464803F086FF306806F01BFD00945A
:103D000002460B46364802F053F90921404803F0B9
:103D100079FF304B186806F00DFD002402460B4673
:103D200000942F4802F044F92D4802F0E9F82B885E
:103D3000B3F5807F00F26883364A3C683068013B07
:103D400002EBC30142F833404860FEF770BF1A4BE4
:103D50001B78002B3EF46BAF2F4DA3892F482B709F
:103D60001E2103F04FFF11212D4803F04BFF29784E
:103D7000FFF79CB8104B1B78002B3EF458AF202166
:103D8000284803F03FFF0F21274803F03BFF274B54
:103D9000187807F025F9264907F02AFA06F0CAFC38
:103DA000022402460B4600940D4802F001F90C482B
:103DB00002F0A6F8FEF73BBF9CAEFF1FA8AEFF1FA8
:103DC000A5AFFF1FC4A2FF1FC8A2FF1FFC90FF1FCB
:103DD0000091FF1F0491FF1FDCD00000FCD0000009
:103DE0007887FF1F08D1000018D1000028D10000FB
:103DF00038D1000050D1000060D1000070D1000027
:103E000080D10000CCA2FF1F90D100009CD1000007
:103E1000A8D1000030A5FF1FE890FF1F18D20000B6
:103E200038D2000074D0000098D000005C91FF1FD1
:103E30005C8F2240C5AEFF1FB2A2FF1F2CA2FF1F46
:103E400098AFFF1FA94B1B78002B3EF4F0AEA84B98
:103E50001B78022B7EF6EBAEA269A64FA64E218CF4
:103E60000292DFF80C93E269B4F822E063692069FA
:103E70003A60DFF800A3E28CDFF8FC829F4DDFF8A8
:103E8000FCB23180A18C9E4CC9F800300493029B97
:103E9000A5F800E0ABF80020C8F800302180CAF88F
:103EA0000000039207F09CF89649974C07F0A0F9A0
:103EB000049B01462160184607F092F8914907F0EB
:103EC00097F903466360029807F08AF88F4907F074
:103ED0008FF9039A8E4BA060A3FB0230400907F0D4
:103EE0007FF8182103468B48E36003F08BFE08211E
:103EF000894803F087FEDAF8000007F071F881497D
:103F000007F076F906F016FC062402460B460094EC
:103F1000824802F04DF80821814803F073FED9F879
:103F2000000007F05DF8774907F062F906F002FC3F
:103F3000009402460B46794802F03AF80921794884
:103F400003F060FED8F8000007F04AF86F4907F068
:103F50004FF906F0EFFB002402460B4600946F4831
:103F600002F026F80B21704803F04CFE386807F089
:103F700037F8664907F03CF906F0DCFB01270246FA
:103F80000B460097654802F013F80721674803F0D5
:103F900039FEB6F9000007F023F8654907F028F963
:103FA00006F0C8FB022402460B4600945B4801F071
:103FB000FFFF07215F4803F025FEB5F9000007F079
:103FC0000FF85B4907F014F906F0B4FB00940246C1
:103FD0000B46524801F0ECFF0721574803F012FE50
:103FE000474BB3F9000006F0FBFF514907F000F919
:103FF00006F0A0FB009402460B46484801F0D8FFAB
:104000000C214E4803F0FEFDBBF8000006F0E4FF73
:10401000474907F0EDF806F08DFB0097FEF752BE1A
:10402000324B1B78002B3EF402AE454D454E94F8C2
:104030002020218A608A444BA78A29806880218BAE
:10404000608B3270E28AAF80EA80A78B29810122DF
:10405000E48B68811D213D481A70EC81AF8103F02B
:10406000D1FD08213A4803F0CDFD31782B480023DB
:104070000A2201F055FF0621364803F0C3FD023D38
:10408000002401340121344803F0BCFD21462348BB
:1040900001F086FF0121314803F0B4FD35F8021F1D
:1040A0001E4801F07DFF082CEBD1E7E00F4B1B7899
:1040B000002B3EF4BCAD2A4DA3892A482B80202139
:1040C00003F0A0FD1321284803F09CFD2988134824
:1040D00001F066FF114801F013FF2B88002B3EF41E
:1040E000A6AD224B01221A70FEF7A1BD9CAEFF1FA8
:1040F0006E87FF1FFCA1FF1FA6AFFF1FA8AFFF1F0A
:10410000F4A4FF1F8096184B04AFFF1F00007A44F1
:104110001F85EB5100D000001CD000007887FF1FE6
:1041200028D0000034D0000040D000004CD0000067
:104130000000C84254D000005CD0000064D00000F1
:1041400060AFFF1F9490FF1F38ADFF1FA8D0000085
:10415000C8D00000D4D00000CCCF0000E4CE0000D6
:10416000A8AEFF1FE0D1000004D200005CAFFF1F2B
:1041700008A2FF1F0CA5FF1F2CA5FF1FD890FF1F33
:10418000C24B1B78002B3EF452AD608BC04DC14F2B
:10419000FEF734FA2880A08BFEF7A8FA2B88388027
:1041A00045F20822934240F2F380BB4C0623237071
:1041B0001A21BA48BA4E03F025FD0B21B94803F085
:1041C00021FD288806F008FFB74907F011F806F02E
:1041D000B1FA032502460B460095B44801F0E8FE0B
:1041E0000B21B34803F00EFDB7F9000006F0F8FE0E
:1041F000B04906F0FDFF06F09DFA012702460B4686
:104200000097AA4801F0D4FE0621AB4803F0FAFC5F
:10421000306806F08FFA062702460B460097A3483F
:1042200001F0C6FE0C21A54803F0ECFC706806F016
:1042300081FA009502460B469C4801F0B9FE132115
:104240009F4803F0DFFC2178FEF730BE8F4B1B78D0
:10425000002B3EF4ECAC0C219A4803F0D3FC142163
:10426000994803F0CFFCA1689048090A00230A226C
:1042700001F056FE0821954803F0C4FC8B4801F07C
:104280003FFEFEF7D4BC328002F1020902F1030CBA
:104290000B465FFA81F80432FFF790BB8C498D48DA
:1042A000DFF884A207F000FF00287FF4A0AB8AF8B3
:1042B0000000FFF79CBB03F0A5FC874B586806F095
:1042C00039FA00246DE5012B04BF844B1A80FEF7F8
:1042D000CABC834A06921146824A07921046824A15
:1042E0000292824A0392824A0492824A05925A6951
:1042F000CBF800209A69CAF80020DA69C9F80020D2
:104300001A8CA8F800205A8C3A809A8C2280DA8C79
:104310000A80D3F82A2074490260D3F82E200A605C
:104320007249D3F832200A607149D3F836200A6006
:10433000704AD3F83A301360FFF74BB914216E4836
:1043400003F060FC594801F0DBFDFFF7A9BBD3F88F
:10435000142235324A4508BF1A46C3F81422FFF723
:104360009FBB664C664822601C2103F04BFC0E216B
:104370006448FFF74BBA44F2A01293424DD9624C05
:104380002378062B00F0D28005232370FEF742BD70
:1043900044F2A012934254D93F4C2378062B00F0EC
:1043A000C9800523237003E70F21584803F02AFC36
:1043B00000230A229AF800103C4801F0B1FD0E21BA
:1043C000534803F01FFC00230A229BF800103748D3
:1043D00001F0A6FD01214F4803F014FC9BF80020DA
:1043E0009AF800100DA8FEF74FF80DA92F4801F01C
:1043F00061FD0DA801F0B4FEFEF7F3BB07214648AE
:1044000003F000FCFFF713B92A21444803F0FAFB3C
:10441000264801F075FDFEF70ABC43F238129342BC
:1044200000F2A48042F2D002934200F2C08041F236
:1044300068029342344C00F2C28000232370FEF7DE
:10444000E9BC43F23812934200F2898042F2D00272
:10445000934200F2A58041F2680293420E4C00F2B2
:10446000B38000232370A3E60292FDF73BF8029A83
:10447000FEF76FBB07212A4803F0C4FBFFF7D7B84C
:104480000721284803F0BEFBFFF7D1B89CAEFF1F01
:10449000FEAEFF1FDC90FF1FA4AFFF1FF0CC00009B
:1044A0004887FF1F0CCD000000007A447887FF1F6B
:1044B00018CD00000000C84224CD00002CCD000023
:1044C0003CCD000090D50000A0D50000B8D500007C
:1044D000E4D400001891FF1F2487FF1FA6AEFF1F22
:1044E0009690FF1FE8B0FF1F80AFFF1F34ADFF1F86
:1044F000D0A2FF1FBCA2FF1FF4D40000C8A1FF1F61
:1045000050CD000070CD00008491FF1FB4CC00009E
:10451000C4CC0000CCCF0000F8CD0000B4D1000026
:1045200000CE000008CE000040ADFF1F0423237022
:10453000FEF770BC042323703AE627492748FBF7AF
:10454000A3FFFFF774B826492448FBF79DFFFFF748
:104550006EB824492148FBF797FFFFF768B8224C53
:104560002378052BE6D10323237021E61F4C237803
:10457000052BDBD103232370FEF74CBC1C491748E5
:10458000FBF782FFFFF753B81A491448FBF77CFF8B
:10459000FFF74DB818491148FBF776FFFFF747B80A
:1045A000114C2378042BDED10223237000E60F4C3C
:1045B0002378042BDED102232370FEF72BBC237853
:1045C000032B3FF43AAFF6E72378032B3FF449AFD0
:1045D000EAE701F01BFF00BF54CE00007887FF1F01
:1045E00010CE000018CE0000A4AFFF1F8491FF1F63
:1045F0002CCE000038CE000044CE00007E2808B546
:104600000CD07D2803D0BDE8084002F047B902F085
:1046100045F95D20BDE8084002F040B97D2002F078
:104620003DF95E20BDE8084002F038B938B50D4BC1
:104630001B78012B04460D4602D00120FBF716FF24
:10464000204655B1FFF7DAFF074B1888204400EBEE
:10465000102000F0FF00188038BDBDE8384002F09F
:104660001DB900BFF8B0FF1FDEA1FF1F10B5204B22
:104670001B7882B0012B0092ADF80610044602D0E0
:104680000120FBF7F3FE00217E20FFF7CFFF20463D
:104690000021FFF7CBFF01211020FFF7C7FF9DF896
:1046A0000600144C0121FFF7C1FF9DF8070001210E
:1046B000FFF7BCFF9DF800000121FFF7B7FF9DF851
:1046C00001000121FFF7B2FF9DF802000121FFF771
:1046D000ADFF01219DF80300FFF7A8FF2078C0433C
:1046E000C0B2FFF78BFF0023238002B010BD00BFD4
:1046F000F8B0FF1FDEA1FF1F1A4B1B491B681B4AA6
:10470000002B70B41A4C20DBA4FB03035C0904EB00
:104710004404002364000C6013701D4600221346FD
:10472000012000FA03F101331E2B42EA0102F8D105
:10473000104E336822402B43134333601A464FF424
:1047400000611B2070BCFFF791BF5B42A4FB0334E8
:10475000640904EB4404640001230C6013704FF0FF
:104760008045DBE70CA5FF1FA490FF1F28A2FF1FB9
:104770001F85EB51E490FF1F38B51D4B18680028CA
:1047800025DB06F029FC1B4906F07EFC06F07EFEC8
:10479000194A1A4B106002221A704FF0004500228D
:1047A0001346012404FA03F101331E2B42EA0102ED
:1047B000F8D1134C236802402B4313431A4623605D
:1047C0004FF400611B20BDE83840FFF74FBF404267
:1047D00006F002FC074906F057FC06F057FE064AB1
:1047E000064B106003221A704FF04045D7E700BF18
:1047F00008A2FF1F8FC2753DA0AFFF1F28A2FF1F99
:10480000E490FF1F2DE9F047564F3E788EB0002E02
:1048100055D0554B1C78A6423CDA544B54489D5D0C
:10482000544C1E444FEA056C96F803E07378B67852
:1048300063700EF07F020CF0FE4C4CEA020C026832
:10484000A6701904002E18BF002B4CEA020C01F4CC
:10485000FE014FEA06224CEA010102F4FE420CBFBF
:10486000012300230A43002D08BF43F00103026027
:1048700084F803E0257093B9BEF1000F0FD04FF418
:10488000A0411B20FFF7F2FE3B7804333B700EB0D3
:10489000BDE8F08700233B700EB0BDE8F087364BD3
:1048A0001B785C05990304F4000401F40041DB016A
:1048B000214303F080030B431A430260DFE7DFF874
:1048C000BCE09EF81CC2BCF1000F48D0DEF81442D8
:1048D00004F13509CEF8149204F1300AE846206854
:1048E0006168A268E36845460FC510345445A84680
:1048F000F5D120682860214B22792A7103F2122217
:1049000091456C4628BFC3F814320FCCDFF8748091
:10491000DFF864A0DFF8509045460FC50FCC0FC5F7
:104920000FCC0FC594E8030045F8040B98F833301A
:1049300098F8000029701A1D0CF1FF3C8AF800005D
:1049400008F10101094889F800301C468EF81CC2A4
:1049500001F07CFC0A4B98F834201A705BE701F0F8
:1049600055FD00BF8CAFFF1F14AFFF1F1496FF1F34
:10497000E490FF1FC890FF1F6491FF1FD4A2FF1F88
:1049800044AFFF1FC8AEFF1FF8B5264B1B78062BA0
:1049900046D0254B254C1B78254D264A24782648A1
:1049A00026492C701278DD11EBB203700B7072BBCC
:1049B0002349244B08680130C0B218702249234BA8
:1049C00091F800E0224E1F78336864014FEA4E2EC2
:1049D00004F060010EF400740C43BF0244EA0301CA
:1049E00007F44067120302F480523943114341EA4D
:1049F000C51141EA052300F01F0003431A46336046
:104A000045F201011B20BDE8F840FFF72FBE114B16
:104A1000114918780978FDF7C9FD0A4B1870CDE7E0
:104A2000F8BD00BF98A2FF1FFDAEFF1F40ADFF1FE6
:104A300044AFFF1FB4A2FF1FEEB0FF1F28A5FF1F4A
:104A40007C91FF1F23A5FF1FC4AEFF1FF8A4FF1F0B
:104A5000E490FF1F6591FF1F2AA5FF1FF8B5204BAB
:104A600020491868204C06F00FFB204906F004FA94
:104A700006F00CFD1E4A1F4B1A4987B21F801068B2
:104A800006F002FB1C4906F0F7F906F0FFFC1B4993
:104A9000002380B21A4620800B80012505FA03F41A
:104AA00001330B2B42EA0402F8D1154E34683A4028
:104AB000C00222430021012505FA03F40133152B1E
:104AC00041EA0401F8D1014041EA02031A46336089
:104AD00045F206011B20BDE8F840FFF7C7BD00BF47
:104AE000F4B0FF1F0000A0405E91FF1F0000614472
:104AF000BCAFFF1F3CAFFF1F0000E14326A5FF1F17
:104B0000E490FF1F30B43A4A1378052B0AD80133DA
:104B1000DBB2591E1370052909D8DFE801F01F0820
:104B2000080A4C353349012000230870137030BC4B
:104B30007047314A314B1568042100221970012059
:104B4000134600FA03F10133182B42EA0102F8D1AF
:104B50002B4C21682A4041F0806340E029492A4AD1
:104B6000264B0D781560012000221870134600FABC
:104B700003F10133182B42EA0102F8D1204C2168DD
:104B80002A4041F080732AE02049214A1B4B0D78CE
:104B900015600621002219700120134600FA03F166
:104BA0000133182B42EA0102F8D1154C21682A4042
:104BB00041F0C06313E0174A104B1568052100222D
:104BC00019700120134600FA03F10133182B42EA51
:104BD0000102F8D10A4C21682A4041F0A063134336
:104BE00023601A4645F207011B2030BCFFF73EBD8B
:104BF0005496FF1F29A5FF1F10A5FF1FD2A1FF1F5D
:104C0000E490FF1F98A2FF1FF0B0FF1FE890FF1F66
:104C1000F4A1FF1F18A5FF1F2DE9F84F8A4D95F845
:104C200000A0BAF1040F00F3C380884E36F81A00D2
:104C3000A0F2DC5006F0D4F9854906F025FA0021EF
:104C400004464FEA9A0906F0D1FB002800F0B6802E
:104C50004FF07C51204606F00FF906F0F1FB4FFAB9
:104C600080F86FF03E0398450AF10102B8BF9846FC
:104C7000B8F13F0F36F81200764CA8BF4FF03F084E
:104C8000A0F2DC5084F8018006F0AAF9704906F021
:104C9000FBF90021074606F0A9FB002800F0CC80B4
:104CA0004FF07C51384606F0E7F806F0C9FB47B2F2
:104CB0006FF03E039F420AF10202B8BF1F463F2F2A
:104CC00036F81200A8BF3F27A0F2DC50A77006F00C
:104CD00087F95F4906F0D8F90021834606F086FB84
:104CE000002800F0A1804FF07C51584606F0C4F82F
:104CF00006F0A6FB42B26FF03E039A420AF1030AA5
:104D0000B8BF1A463F2A36F81A001646A8BF3F26F3
:104D1000A0F2DC50E67006F063F94D4906F0B4F9F4
:104D20000021824606F062FB002875D04FF07C51CE
:104D3000504606F0A1F806F083FB40B26FF03E0348
:104D40009842DFF818E1B8BF18463F28DEF8003077
:104D5000A8BF3F2009F00F09B8F1000F207149EA00
:104D600003034FDB4FEA081101F47C7141EA0304AD
:104D7000002F3EDBFB0203F4FC3343EA0401002E68
:104D80002EDBB20402F47C0242EA010300281DDBA0
:104D9000420602F0FC421A43CEF8002045F2F1012F
:104DA0001B20FFF763FC2B7804332B70BDE8F88FD2
:104DB0000023294A2B701370BDE8F88F4FF07C5107
:104DC000204606F057F806F03BFB48E74242520601
:104DD00002F0FC4242F000421A43CEF80020DDE728
:104DE0007242920402F47C0242F0807242EA0103B1
:104DF000CCE77B42DB0203F4FC3343F4003343EAA9
:104E00000401BCE7C8F10001090101F47C7143F41D
:104E1000806341EA0304ABE74FF07C51504606F053
:104E200029F806F00DFB88E74FF07C51584606F054
:104E300021F806F005FB5DE74FF07C51384606F09F
:104E400019F806F0FDFA32E7A890FF1F74AEFF1FB5
:104E50002506013E18A2FF1F38ADFF1FE490FF1F7B
:104E6000144B1B7810B50BB3134B187806F0B8F839
:104E7000124906F0BDF906F009FB114B186000223B
:104E80001346012404FA03F10133202B42EA010204
:104E9000F8D10C4C23680240134323601A464FF2AA
:104EA00001111B20BDE81040FFF7E0BB044BFF20C1
:104EB0001860E4E714A2FF1F5C91FF1F5C8F224083
:104EC0005896FF1FE490FF1F10B50129044680EAA1
:104ED000E070A0EBE47026D0022907D0032903D1AB
:104EE000012A5AD0022A36D0002010BD012A3CD017
:104EF000022AF9D1632840F38580B0F57A7F80F2E9
:104F00009A8006F069F86B4906F0BEF803F086FA5D
:104F100006F0BCFAC0B2800040F00100002CE4DAD8
:104F200040F4007010BD012ADED1092864DD952807
:104F30007DDC06F051F85F4906F0A6F803F06EFA42
:104F400006F0A4FAC0B2400040F00100002CCCDA18
:104F500040F0200010BDB0F57A7F37DA800080B2D3
:104F6000002CC2DA40F4805010BD632847DD40F2C7
:104F7000F54398425DDC06F02FF84E4906F084F8C0
:104F800003F04CFA06F082FAC0B2400040F0010093
:104F9000002CAADA40F4807010BDB0F57A7F34DBC3
:104FA000B0F5205F59DA06F017F8424906F06CF8C0
:104FB00003F034FA06F06AFA80B2400040F00100D3
:104FC00080B2002C91DA40F4006010BD42F20F7301
:104FD00098421DDD384B984242D805F0FDFF374915
:104FE00006F052F803F01AFA06F050FA80B2800088
:104FF00040F0020080B2B3E7400080B2A6E7400074
:1050000080B2C5E7800080B288E7400080B2D8E770
:1050100005F0E2FF274906F037F803F0FFF906F044
:1050200035FA80B2800040F0010080B298E71F207E
:105030008CE7FF20ACE742F20F73984222D805F0CC
:10504000CBFF1E4906F020F803F0E8F906F01EFA3F
:10505000C0B2800040F0020060E740F2FF70B0E7AD
:10506000B0F57A2F1FD205F0B7FF154906F00CF8FE
:1050700003F0D4F906F00AFA80B2800040F0030091
:1050800080B26DE70F4B984210D805F0A5FF0C4990
:1050900005F0FAFF03F0C2F906F0F8F9C0B280009B
:1050A00040F003003AE740F6FF7059E740F2FF1086
:1050B00034E700BFCDCCCC3D9F8601000AD7233C0E
:1050C0006F12833A17F00100F8B52D4B2D4A1B786B
:1050D0000F2B4ED90F2313709E462B4A2B4B117862
:1050E0002B4E03290A4628BF032203291A7033686E
:1050F00042D90339CFB2BC0304F4404C25482649B9
:10510000058809682548120102F030021A4380FB25
:10511000013042EA0E03224ADFF890E0C917A2FBF1
:1051200005250222C1EB6010114643EA0C048EF8FB
:105130000070FFF7C9FEC5F3C7051A4B07460122E9
:10514000284602211F60FFF7BFFE174BDFF860E023
:10515000BF053B40C5B2234343EA85138EF8005098
:105160001A46336045F202011B20BDE8F840FFF704
:105170007DBA9E461370B0E74FF0000C6746BDE75E
:1051800024A5FF1F5D91FF1F6E87FF1F1DA2FF1F3C
:10519000E490FF1F3AAFFF1FACA2FF1F1F85EB512A
:1051A000CDCCCCCC7891FF1F0000C07F1291FF1FA7
:1051B00022A5FF1F1E4B1F491A881F4870B51F4CA0
:1051C0001F4D00882B68A4FB02425209C2F3080459
:1051D0000A801C4305F004FF1A4905F055FF03F04F
:1051E0001DF906F02DF901220221FFF76DFE164A86
:1051F000164B11881880400200F4FF3343EA040282
:105200004E0411230021012404FA03F00133202B62
:1052100041EA0001F8D1314041EA02032B601A460D
:1052200045F203011B20BDE87040FFF71FBA00BF25
:10523000FEAEFF1FC090FF1FDC90FF1F1F85EB51CC
:10524000E490FF1FCDCCCC3DCC90FF1F1091FF1FF1
:105250002DE9F04FDFF86493C249D9F80400C24E3B
:10526000DFF85C83C14FC24DC24C89B005F0C0FF6E
:10527000C14905F009FF8346BA49D9F80000C6F8CC
:1052800000B005F0B5FFBC4905F0FEFE8246B54909
:10529000D8F80400C7F800A005F0AAFFB64905F049
:1052A000F3FE8146AF49D8F80000C5F8009005F03C
:1052B0009FFFB14905F0E8FE804659464846C4F8CC
:1052C000008005F0D7FD05F035FA02460B46CDE922
:1052D000062303F05FF8CDE90001404605F02AFA05
:1052E0008046894603F00CF8CDE90201504605F0EE
:1052F00021FA82468B4603F003F8CDE904014046CB
:10530000494603F047F8804689465046594603F01F
:1053100041F8DDE9062382468B461046194602F025
:10532000EFFF42464B46CDE90601DDE9040105F0F9
:1053300055FA52465B46DDE902AB80468946504647
:10534000594605F04BFADDE9062305F047FA024617
:105350000B464046494605F08DF852468046894640
:105360005B46DDE9000105F039FA42464B4603F0A1
:10537000D1F805F02BFD7B4905F086FE7E4905F04E
:1053800037FF0021804606F01DF8002840F0E48039
:105390007A4BDFF830A2C3F80080404606F050F8A0
:1053A00083B2A3F1B40000B20028BCBF03F1B40083
:1053B00000B2B0F5B47FA8BFA0F5B470704BA8BF21
:1053C00000B2188005F00CFE6E4905F05DFE06F097
:1053D00037F824683F68AAF800003946204605F0EF
:1053E00049FD694B31688046C3F80080286805F0A4
:1053F00041FD664B054618604FF07C51404605F074
:1054000043FE05F097F902F0C5FFCDE900012846FB
:105410004FF07C5105F038FE05F08CF902F0BAFF30
:1054200080463846894605F085F902F069FF064650
:1054300020460F4605F07EF902F062FF4246044620
:105440000D464B464046494605F0C8F932463B46B4
:1054500005F0C4F922462B4605F0C0F9DDE900232A
:1054600004460D461046194605F0B8F90B460246AB
:105470002946204605F000F805F0A8FC444A1060D3
:1054800005F058F903F048F802F0ECFF02460B462D
:1054900004F0F2FF05F09AFC3E4B3F49186005F01E
:1054A000F3FD3E4B3E4A1B781060002B52D005F0B6
:1054B000C7FF80B205F090FD02F0B0FF05F0C0FF1D
:1054C000384B394E1B68032186FB0326DB1702226B
:1054D000C3EB6616FFF7F8FC344A002336B210809F
:1054E0001C46012101FA04F201340C2C43EA0203A8
:1054F000F8D12F4D2A680340304643EA020705F0F1
:105500006FFD02F08BFF05F09BFF02220321FFF7E6
:10551000DBFC284B00B2188000220303012606FAA8
:1055200004F10134182C42EA0102F8D11A403A433E
:105530000028BAF90030B8BF42F0807242EA4363F3
:105540001A4645F204011B202B6009B0BDE8F04F5C
:10555000FFF78CB81846B3E74046174905F08CFCB6
:10556000804615E7000034439CA2FF1F40AFFF1F99
:10557000A0A2FF1F44ADFF1FDB0F49409C90FF1FFF
:1055800000A2FF1F4CA6AA3EE090FF1FDCB0FF1F49
:105590000CA2FF1FD8A1FF1F706DC24AF9A1FF1F07
:1055A0009090FF1FFCA1FF1F1F85EB51F890FF1F7C
:1055B000E490FF1F1691FF1F0000B443B090FF1F3F
:1055C00004AFFF1F1491FF1F2DE9F84F334B3449EF
:1055D0001868344F344CDFF8DCA0DFF8DC8005F0CD
:1055E00053FD324B2E490646186805F04DFD304BF1
:1055F0008346B3F9000000EB8000400005F0F0FCAA
:1056000000218146304605F0DDFE3D68002842D18C
:10561000304602F003FF05F013FF01220221FFF7DD
:1056200053FC064605F0D8FC2060584602F0F6FE12
:1056300005F006FF01220221FFF746FCF6B246EA1A
:105640000504064605F0C8FC760206F4FF334FF069
:105650007C51CAF80000484643EA040605F014FDF0
:10566000C8F8000005F012FF0125002140041123B5
:1056700005FA03F401331C2B41EA0401F8D101407F
:1056800041EA06031A463B6045F205011B20BDE8CE
:10569000F84FFEF7EBBF45F48075B9E76091FF1F47
:1056A00000002041E490FF1FB0AFFF1F3CADFF1F83
:1056B000D090FF1F58AFFF1FA0AEFF1FF8B5224BC1
:1056C00022481B88224D234FA0FB0330400905F0E0
:1056D00087FC214B186005F0D9FE204A2B68C0F3E7
:1056E0000804B2F900001C4305F07AFC1C4905F0DF
:1056F000CBFC02F093FE05F0A3FE01220221FFF78E
:10570000E3FB064605F068FC164A38601188730210
:1057100003F4FF3343EA04024E0411230021012461
:1057200004FA03F00133202B41EA0001F8D13140A3
:1057300041EA02031A462B6045F208011B20BDE82E
:10574000F840FEF793BF00BFFEAEFF1F1F85EB5171
:10575000E490FF1FC0AFFF1F14A5FF1FDC90FF1FC9
:10576000CDCCCC3DA6AEFF1F5149524A524B5348B7
:10577000098812881B68B0F900002DE9F047504CE9
:10578000DFF860A14F4F2180AAF800203B6005F0B0
:1057900027FC4D4A4D4B05461D60108805F020FC46
:1057A0004B4905F071FC4B4A0346194613602846E5
:1057B00005F060FB05F044FE00B205F011FC46491F
:1057C00002F006FF0021054605F0FCFD002862D12D
:1057D000284605F035FE414BDFF80C91163083FB6F
:1057E00000230344C017C0EB631000EA0909B9F1B4
:1057F000000F56DB3A4B258883F8009000231C46A7
:10580000012101FA04F201340A2C43EA0203F8D11F
:10581000BAF80000DFF8D4801D4005F0DDFB02F08F
:10582000FDFD05F00DFE02220321FFF74DFBD8F828
:105830000060AAF800004FEA802C234600224FF0B7
:10584000010E0EFA03F10133162B42EA0102F8D1E0
:1058500038680CEA020402F0E1FD05F0F1FD0122D6
:105860001146FFF731FB46EA49768246354305F09B
:10587000B3FB4FEA8A5A2C430AF07C6A44EA0A04D2
:1058800038602246C8F8004045F209011B20BDE8F7
:10589000F047FEF7EBBE28460F4905F0EDFA054646
:1058A00096E709F1FF3969F0070909F10109A1E754
:1058B000A8AEFF1FD4A1FF1F5891FF1F48ADFF1FC7
:1058C0008AAFFF1F04A5FF1F9690FF1FD490FF1FF4
:1058D0000AD7233C7491FF1F0000B443B7600BB696
:1058E000B0A2FF1F5491FF1F07000080E490FF1F2C
:1058F0002DE9F843254B26491868264DDFF8A89076
:10590000254F05F0C1FB2549254B264A0C881C80F4
:105910001F490646106805F0B7FB8046304602F086
:105920007DFD05F08DFD01220221FFF7CDFA06462F
:1059300005F052FB24022B68C9F8000004F4FE4471
:105940002343F6B240461E4302F068FD05F078FDA1
:1059500002220321FFF7B8FA044605F03DFBE203FB
:10596000386000230F20012404FA00F101301B28C5
:1059700043EA0103F8D1134033431A462B6045F242
:10598000F201BDE8F843FEF771BE00BFF0A1FF1FB2
:1059900000002041E490FF1FB8AEFF1FBCAEFF1F08
:1059A0002AA2FF1FAC90FF1F98AEFF1FF0B5954CC9
:1059B00023685A1EA1B00F2A50D8DFE812F05E010A
:1059C00069007F0095001000B300B500B1004F01E1
:1059D00003012001B700D000E90001015A008A4DFF
:1059E0002B688A4E1793179B3268874F9B1AB3F523
:1059F000A77F80F0B6812368013323602B68844E33
:105A00001593159B3268804F9B1AB3F5A77F80F0E2
:105A100098812368013323602B687E4E1393139B78
:105A20003268794F9B1AB3F57A7F00F27A81236846
:105A3000013323602B68784E1193119B32689B1AB7
:105A4000B3F5FA7F40F23281744B1B78022B00F2DF
:105A500090812B681093109B33602368704A6949CA
:105A6000127801339342236001D901230B6021B0E6
:105A7000F0BD654D2B686B4D0293029B2A68624E08
:105A80009B1AB3F5FA7F00F2158123680133E5E72D
:105A90005D4D2B68644E1D931D9B32689B1AB3F5B8
:105AA000A77FC0F02C815D4B1B78022B00F2368162
:105AB0002B681C931C9B33602368CFE7524D2B68E7
:105AC0005A4E1B931B9B32689B1AB3F5A77FC0F0FD
:105AD0000A81524B1B78022B00F21D812B681A930E
