:1000000000800020BD0100001D370000D536000033
:10001000D5360000D5360000D5360000D5360000B4
:10002000D5360000D5360000D53600001D3700005B
:100030001D370000D5360000115200001553000096
:100040001D3700001D3700001D3700001D37000060
:100050001D3700001D3700001D3700001D37000050
:100060001D3700001D3700001D3700001D37000040
:100070001D3700001D3700001D3700001D37000030
:100080001D3700001D3700001D3700001D37000020
:100090001D3700001D3700001D3700001D37000010
:1000A0001D3700001D3700001D3700001D37000000
:1000B0001D3700001D3700001D3700001D370000F0
:1000C0001D3700001D3700001D3700001D370000E0
:1000D0001D3700001D3700001D3700001D370000D0
:1000E0001D3700001D3700001D3700001D370000C0
:1000F0001D370000253C00001D370000A53E000014
:100100001D370000315400001D3700001D3700006E
:100110001D3700001D3700001D3700001D3700008F
:100120001D3700001D3700001D3700001D3700007F
:100130001D3700001D3700001D3700001D3700006F
:100140001D3700001D3700001D3700001D3700005F
:100150001D3700001D3700001D3700001D3700004F
:100160001D370000654100001D3700001D370000ED
:100170001D3700001D3700001D3700001D3700002F
:100180001D3700001D3700001D3700001D3700001F
:100190001D3700001D3700001D3700001D3700000F
:1001A0001D3700001D3700001D3700001D370000FF
:1001B0001D3700001D3700001D370000564B4CF264
:1001C000205210B51A804DF628121A8000BF00BFC9
:1001D00003F0A8FA514B4FF010621A60504A9A602F
:1001E000504ADA60504A136813F4807304D14F49BF
:1001F0000B604FF4A85313604D4B1A78110703D5C9
:100200001A7842F008021A704A4B4B492A221A7097
:100210004A4A4B4B8B4204D252F8040F43F8040B6A
:10022000F8E7484B484900228B4202D243F8042B9E
:10023000FAE74649464A002352F8230041F82300D2
:1002400001336F2BF8D1434B434A802103F8011B44
:100250009342FBD1414B3D4A1A60414B8A221A70AE
:10026000A3F5805324225A70A0221A709A7992071B
:10027000FCD59A79D406FCD43A4A937903F00C035E
:10028000082B384BF9D103221A7140225A719A79FE
:100290009006FCD5334A9179324B4906FBD5324A58
:1002A000324911600221516020221A709A7902F0BD
:1002B0000C020C2AFAD12E4B2E4A1A602E4B2F4AD2
:1002C0001A6000225A60072243F8042C2C4AC3F813
:1002D0000C2D62B603F054FB144B1B68DA0705D5EE
:1002E000284803F0E1FA284B284A1A60284B1B786B
:1002F0005B0609D5244C254B22689A4204D121483B
:1003000003F0D2FA0023236008F018F903F010FA82
:1003100003F03EF9FEE700BF0E20054030800440A8
:10032000823F04000100002B10D0034014D0034092
:1003300002D0074000E007407490FF1F7CA500003A
:100340002087FF1F7490FF1F00AAFF1F0082FF1F5E
:100350000000000000E400E05FE400E008ED00E0E1
:100360000050064000400640448004400000030165
:1003700004800440C010050014E000E0FF76010096
:1003800000002020DB7EFF5C1CE00340A5C3945AE4
:1003900000F00740FFFFFFFFFFFFFFFFFFFFFFFF32
:1003A000FFFFFFFFFFFFFFFFFFFFFFFFFFFFFFFF5D
:1003B000FFFFFFFFFFFFFFFFFFFFFFFFFFFFFFFF4D
:1003C000FFFFFFFFFFFFFFFFFFFFFFFFFFFFFFFF3D
:1003D000FFFFFFFFFFFFFFFFFFFFFFFFFFFFFFFF2D
:1003E000FFFFFFFFFFFFFFFFFFFFFFFFFFFFFFFF1D
:1003F000FFFFFFFFFFFFFFFFFFFFFFFFFFFFFFFF0D
:10040000FFFFFFFFFFFFFFFFFFFFFFFFDEF9FFFF23
:1004100010B5054C237833B9044B13B10448AFF33E
:1004200000800123237010BD7490FF1F00000000A6
:1004300080A50000084B10B51BB108490848AFF370
:1004400000800848036803B910BD074B002BFBD0A0
:10045000BDE81040184700BF000000007890FF1F63
:1004600080A500007490FF1F00000000044B0549A8
:100470001A68137843F0200313700870704700BFA8
:100480009CA6FF1F00A7FF1FF0B540F6055085B0E2
:1004900003F038FB2F4A304B304911601025A02261
:1004A0009D7140F605509A705D7103F041FC2C4B34
:1004B0002C491A680392039E1A680292029F1A68D6
:1004C00001920198284A1B680093284C284B0E6023
:1004D00017602849284A009F284E1860276000238B
:1004E000274C138040F6C41033700B7003F0FAF9F8
:1004F0000E21244804F0CCFC204602F0F1FF2946EE
:10050000214804F0C5FC0A21204804F0C1FC204623
:1005100002F0E6FF0B211E4804F0BAFC204602F070
:10052000DFFF44211B4804F0B3FC204602F0D8FF53
:100530001921194804F0ACFC204602F0D1FF01213A
:100540000D2003F0C9F9154B0121187803F0C4F907
:1005500005B0F0BD9CA6FF1F00A0064006A0064007
:1005600004A7FF1FE4A1FF1FC8A1FF1F2496FF1FC0
:1005700084A6FF1F3C91FF1F56A2FF1F1EA6FF1F50
:100580007887FF1F8092000090920000A4920000E4
:10059000B0920000BC920000049300006887FF1F27
:1005A0002DE9F04FADF2844D03F038FC002835D032
:1005B00003F044FCAC4BC1B20391DB78AA490022A2
:1005C0000A700F2B00F2E781DFE813F0730173016B
:1005D0005601A5018F01B1019D001701F700D70059
:1005E000B3002D0152002C002C0010009E4B9F4A9E
:1005F0005B7B049211465E1E9B4ACB1AF6B29DF8B5
:100600000C10567383F82311002E00F07D82964A59
:100610000023937003F002FC0028C9D10DF2844D31
:10062000BDE8F08F0E2B914B049305D01B88039AE5
:10063000B2EB132F00F0AE868B4A02231370049A9C
:100640009DF80C10137982F8151113F0010F874AE9
:10065000854B00F0F08184491B780F22CA70022B71
:100660004FF00D024A7300F07D8100230B70CEE73E
:100670007E4B04939D687E4EF220C5F317250346FA
:10068000982200210AE0581E43185A1C520888423A
:1006900002EB420240F2C98156F822200133954212
:1006A0004FEA5303EFD31946EED8954200F0B681D6
:1006B00000210B46049D2888434083EA0313DBB2E4
:1006C000DA0082EA032282EA102282EA1313DAB203
:1006D0002B80039B9A4200F05086634B0E22DA7007
:1006E000049B9DF80C2083F8142100298FD05E4BC9
:1006F0008A791B7993428AD25E48D21A1844002123
:1007000008F036FA83E7594B19881D461846039BB3
:10071000C3714B4083EA0313DBB2DA0082EA03229F
:1007200082EA112282EA13132B804F4B0722DA70E0
:100730006DE74E4B039A1D886A4082EA0212D2B2DC
:10074000D1001E4681EA02219B68000400F47F006C
:1007500081EA152140EA132381EA1212F1787372BB
:10076000C3F307201B0CB072F3723280002900F033
:10077000AD813D4A0B23D37049E73C4B1E889D68F1
:100780001F46039B734083EA0313DBB2DA0082EA5D
:10079000032282EA1622000282EA131300F47F4049
:1007A00040EA15213B80304B7972C1F30725080CD4
:1007B0000A22BD72F872DA7029E72C492A4B0888A0
:1007C0001D7B039B4B72434083EA0313DBB2DA00C9
:1007D00082EA032282EA102282EA13130020EA0747
:1007E0000B808872C872204B40F17481CA78002A4D
:1007F00000F073810B22DA7009E71C4B19881D4643
:100800001846039B03724B4083EA0313DBB2DA0002
:1008100082EA032282EA112282EA13132B80124B0E
:100820000822DA70F3E6104B039F1A790F4B0E4D36
:100830001E46134401321F7330883B46434083EA0F
:100840000313DBB2D90081EA032181EA1021F07899
:10085000D2B281EA131382422A7133807FF4D7AE79
:100860000C23EB70D3E600BFECA1FF1F5C91FF1FD0
:10087000489600006891FF1F9D499E4B08881D7B8C
:10088000039BCB70434083EA0313DBB2DA0082EAB6
:10089000032282EA102282EA13130B80954B002276
:1008A000E8071A7140F10F8105200A714A71D8706A
:1008B000ADE6039BFD2B00F06585039BFE2B7FF4CB
:1008C000A6AE8C4B8A4A1B7B104643F00103894934
:1008D0009DF80C500B734FF6FF7200230280854A7F
:1008E000C37002238570D37091E6814B19881D4631
:1008F0001846039B43714B4083EA0313DBB2DA00D3
:1009000082EA032282EA112282EA13132B80794BB6
:100910000522DA707BE676499DF80C300B7110F0F9
:10092000FE0F00F0BE80734A0123D3706FE6704B58
:1009300019881D461846039B83714B4083EA0313B5
:10094000DBB2DA0082EA032282EA112282EA13137E
:100950002B80684B0622DA7059E6664A0023022E85
:1009600093701ED1049A92F8154192F8143143EA1B
:10097000042403985F4901230022FD288B700A702C
:1009800001D0CB7010E6049E02204FF6FF73F27088
:10099000C870338008E6564B0493DD78554B00262B
:1009A0009E70B31E012BE4D9002E3FF4FDAD524ED4
:1009B00096F8683B0A2B6CD08EA940F22312D7A878
:1009C000ADF838428DF83B5202F0EAFDD6F8643BB0
:1009D000ADF85C4303F2231306F65E37BB42C6F85C
:1009E000643B08BF3346D7A940F22312184608BF1C
:1009F000C6F8646B8DF85F5302F0D2FD96F8682B51
:100A00003D490A2A034600F0FC84501C81F8680B1B
:100A1000002A7FF4C9ADC1F8603BC5E5374B01EB57
:100A2000410103EB81010B7944E6344B01EB4102B8
:100A300053F8222039E61B6943B11B6B002B4FD0C2
:100A400091682C48090A9847002849D0294B1E78FC
:100A500028482749012340F22312C3708EA802F0D0
:100A60009FFD049A1488D578012E7FF476AF214B30
:100A7000049A20491B8992794A7103B94B811D4917
:100A80001D4E01330B8196F8683B00220A2B8A70B9
:100A900092D126211A4804F0FBF91A4802F020FDF1
:100AA00082E50888039B434083EA0313DBB2DA0044
:100AB00082EA032282EA102282EA13130B800D4B92
:100AC0000422DA70A3E50322DA70A0E5094A0C23B8
:100AD000D3709CE50922DA7099E50C22DA7096E56C
:100AE000044B1E78022EB3D003261E70B0E700BF61
:100AF0005C91FF1FECA1FF1F2C96FF1F4896000082
:100B0000209300007887FF1F1369526910931C46D9
:100B10001192002B00F06E8454F8100F884D379519
:100B2000884D6168A268E368874F3895874D3D9589
:100B30003A97DFF834E2864FDFF830C23C973EAD9B
:100B4000CDF8ECC0CDF8E4E00FC5824B2069DA782F
:100B50006169E36907921746A26935963C460A34F3
:100B60000FC57C4B0594E40004F580747A4E3494F0
:100B7000023336960693202403E0059B002B00F0F9
:100B8000D080059D069EC4F14003AB4228BF2B4692
:100B9000ED1A05953EA8354620441D441C441A46CE
:100BA0003146069502F0FCFC402CE6D134AA22AB7B
:100BB00092F82B0092F82A101870597092F82900B8
:100BC00092F82810D970987032A90433994202F132
:100BD0000402EDD1369B0893379B0993389B0A9307
:100BE000399B0B933A9B0C933B9B0D933C9B0E9331
:100BF0000DF59A7A3D9B0F93524621AB53F8041F93
:100C000042F8041F31A98B42F8D10DF5B6780DF5E5
:100C1000AC7C0DF59C7E5DAF5646302558F8044FF0
:100C20005EF8043F56F8042F5CF8041F4FEAF440C6
:100C3000114480EA74404FEAB34280EA942082EA89
:100C4000F312014482EAD3030B44013D47F8043F09
:100C5000E4D1424B0F9ADFF81891DDF82CB0DDF8A3
:100C600024E00A9F089EDDF838C0DDF83480019248
:100C70000C9D02930BE0CDF804C0C446A8461D4667
:100C800059F8043F0293BB467746B64606464FEAFC
:100C9000F52205EA080182EAB5122CEA050482EA87
:100CA00075624C405AF8041F019B144487EA0E02F7
:100CB00021444FEA763002EA060407EA0E0219449C
:100CC0005440029B264A80EAB60080EAB650194496
:100CD00020444A4501EB0B030844CCD10B99089AF8
:100CE00039440F460C99399719440B460D993A939C
:100CF0000244294414460D46099A0E99059B3694E0
:100D000032444144164608460A9A0F99379672446F
:100D1000614438923B953C903D910024002B7FF438
:100D200030AF349C04F110039C42349300F278837A
:100D30000C4B06930223C4F3C50405931EE000BFC9
:100D400085AE67BB72F36E3C7F520E5119CDE05BEE
:100D5000ABD9831F5C91FF1F67E6096A982F8A420F
:100D6000449600007092FF1F3AF54FA58C68059BD2
:100D700048950000059B002B00F0D080059D069E45
:100D8000C4F14003AB4228BF2B46ED1A05953EA89F
:100D9000354620441D441C441A463146069502F04F
:100DA000FFFB402CE6D134AA22AB92F82B0092F83C
:100DB0002A101870597092F8290092F82810D970EA
:100DC000987032A90433994202F10402EDD1369BA6
:100DD0000893379B0993389B0A93399B0B933A9B53
:100DE0000C933B9B0D933C9B0E930DF59A7A3D9B88
:100DF0000F93524621AB53F8041F42F8041F31A948
:100E00008B42F8D10DF5B6780DF5AC7C0DF59C7ED6
:100E10005DAF5646302558F8044F5EF8043F56F84B
:100E2000042F5CF8041F4FEAF440114480EA744038
:100E30004FEAB34280EA942082EAF312014482EA44
:100E4000D3030B44013D47F8043FE4D1BD4B0F9A57
:100E5000DFF8FC92DDF82CB0DDF824E00A9F089E54
:100E6000DDF838C0DDF8348001920C9D02930BE070
:100E7000CDF804C0C446A8461D4659F8043F029365
:100E8000BB467746B64606464FEAF52205EA080114
:100E900082EAB5122CEA050482EA75624C405AF8DF
:100EA000041F019B144487EA0E0221444FEA763066
:100EB00002EA060407EA0E0219445440029BA24AC1
:100EC00080EAB60080EAB650194420444A4501EB56
:100ED0000B030844CCD10B99089A39440F460C995E
:100EE000399719440B460D993A9302442944144604
:100EF0000D46099A0E99059B369432444144164694
:100F000008460A9A0F9937967244614438923B9585
:100F10003C903D910024002B7FF430AF349C04F1D1
:100F200038039C42349300F27782884B0693072360
:100F3000C4F3C504059303E0059B002B00F0D080AB
:100F4000059D069EC4F14003AB4228BF2B46ED1A17
:100F500005953EA8354620441D441C441A4631469A
:100F6000069502F01DFB402CE6D134AA22AB92F884
:100F70002B0092F82A101870597092F8290092F8F4
:100F80002810D970987032A90433994202F10402F2
:100F9000EDD1369B0893379B0993389B0A93399B75
:100FA0000B933A9B0C933B9B0D933C9B0E930DF53F
:100FB0009A7A3D9B0F93524621AB53F8041F42F897
:100FC000041F31A98B42F8D10DF5B6780DF5AC7C34
:100FD0000DF59C7E5DAF5646302558F8044F5EF8FF
:100FE000043F56F8042F5CF8041F4FEAF440114404
:100FF00080EA74404FEAB34280EA942082EAF31216
:10100000014482EAD3030B44013D47F8043FE4D195
:101010004C4B0F9ADFF83891DDF82CB0DDF824E066
:101020000A9F089EDDF838C0DDF8348001920C9DDF
:1010300002930BE0CDF804C0C446A8461D4659F8FB
:10104000043F0293BB467746B64606464FEAF52272
:1010500005EA080182EAB5122CEA050482EA756203
:101060004C405AF8041F019B144487EA0E022144A5
:101070004FEA763002EA060407EA0E0219445440A9
:10108000029B314A80EAB60080EAB65019442044F7
:101090004A4501EB0B030844CCD10B99089A39441B
:1010A0000F460C99399719440B460D993A9302440F
:1010B000294414460D46099A0E99059B36943244EC
:1010C0004144164608460A9A0F993796724461447D
:1010D00038923B953C903D910024002B7FF430AF3B
:1010E000349D0599C5F3C504C4F1770680234722D2
:1010F00006F03F060DF189008DF8883007F038FDC5
:1011000006F109021046059222AA1644359B337156
:101110002A0AF2712A0E72711A0C290CB27005EBB0
:10112000C0029542B1714FEA1321F1704FEA136189
:1011300084BF0133359322AB3572717034920693BC
:101140000CE000BF982F8A42449600007292FF1F65
:1011500048950000059B002B00F0D080059D069E61
:10116000C4F14003AB4228BF2B46ED1A05953EA8BB
:10117000354620441D441C441A463146069502F06B
:101180000FFA402CE6D134AA12AB92F82B0092F859
:101190002A101870597092F8290092F82810D97006
:1011A000987022A90433994202F10402EDD1369BD2
:1011B0000893379B0993389B0A93399B0B933A9B6F
:1011C0000C933B9B0D933C9B0E930DF59A7A3D9BA4
:1011D0000F93524611AB53F8041F42F8041F21A984
:1011E0008B42F8D10DF5B6780DF5AC7C0DF59C7EF3
:1011F0005DAF5646302558F8044F5EF8043F56F868
:10120000042F5CF8041F4FEAF440114480EA744054
:101210004FEAB34280EA942082EAF312014482EA60
:10122000D3030B44013D47F8043FE4D1A04B0F9A90
:10123000DFF89092DDF82CB0DDF824E00A9F089EDC
:10124000DDF838C0DDF8348001920C9D02930BE08C
:10125000CDF804C0C446A8461D4659F8043F029381
:10126000BB467746B64606464FEAF52205EA080130
:1012700082EAB5122CEA050482EA75624C405AF8FB
:10128000041F019B144487EA0E0221444FEA763082
:1012900002EA060407EA0E0219445440029B854AFA
:1012A00080EAB60080EAB65019442044914501EB2B
:1012B0000B030844CCD10B99089A39440F460C997A
:1012C000399719440B460D993A9302442944144620
:1012D0000D46099A0E99059B3694324441441646B0
:1012E00008460A9A0F9937967244614438923B95A2
:1012F0003C903D910024002B7FF430AF9DF8DB3013
:101300009DF8DA206C4C9DF8D8008DF848308DF8A7
:1013100049209DF8D9309DF8DF208DF84A308DF8AE
:101320004B009DF8DE308DF84C2004F21D1112A800
:1013300006228DF84D3007F0E9FB002874D0109B91
:101340001B6B4BB1049A5D4891685B4C090A984746
:1013500000284FD1E3780793584B03261E70574857
:1013600055490123C37040F223128EA802F018F9E8
:10137000049B079D1C88FFF777BB504A0D23D37051
:10138000FFF7AEB94D4B4C4A1B7B104623F00103CF
:10139000FFF79DBA494A01231370FFF750B90F2890
:1013A000CDD8DDE92267109B454AD3E90245921961
:1013B0004FF000037B41AB4208BFA242BFD3119A5A
:1013C000049D00EBC0041444EB79E3702B7A237185
:1013D000013084F802E0053410800B6823608B88AC
:1013E0001099A380D1E90223BB4208BFB24201D2C7
:1013F000C1E90267049BDB780793304B01261E701E
:10140000ADE7D1F8603B03F22313BB4208BF0B46A4
:10141000C1F8603BFFF7C8B8359B0133359384E5CD
:10142000359B0133359383E404F217110023002226
:10143000CDE92223119B08688D8894F816E122904B
:10144000ADF88C50002B3FF47AAF18880028A8D054
:10145000E579267A059C04E094B2A04203F10903E1
:101460009DD0DF78AF4204F10102F5D11F79B74278
:10147000F2D19F787745EFD1A04290D0119B04EB39
:10148000C40423441C460DF590650022002365E941
:10149000D22354F8050F2860A388AB80D5E9002338
:1014A000DDE92267BB4208BFB24296D347E700BFDF
:1014B000982F8A42449600005C91FF1FECA1FF1F09
:1014C000808D5B004895000010B5194B197882B0EB
:1014D000C9B9184B184A1B68019301981368C31ABD
:1014E000B3F5FA7F154B08D310601A78C2B10D20FE
:1014F000197002F0EBF902B010BD19780D2002F05E
:10150000E5F902B010BD01230C4C19460D202370E3
:1015100002F0DCF921780D2002F0D8F902B010BDFC
:1015200001210D20197002F0D1F902B010BD00BFE9
:101530001EA6FF1F04A7FF1FACA4FF1F32A6FF1F9C
:10154000064B93F81C320A2B054B0CBF01210021DE
:101550001970044B187802F0B9B900BF70A2FF1FD0
:10156000F6A6FF1F6887FF1F013808281DD8DFE88F
:1015700000F00507090B121416181A000120704715
:1015800002207047032070470139C9B208290ED8DC
:10159000084B585C70470E2070470F207047102092
:1015A00070471120704712207047132070470D209C
:1015B000704700BF74920000F8B5154CE668054608
:1015C0004FF07E51304606F045FF18B1284606F030
:1015D0004BFD0646284606F04BFD0E4906F09CFDE5
:1015E0000D490746304606F097FD0146384606F09D
:1015F0008BFC0A496269E369E060A1FB051502EB17
:10160000951501336561E36106F072FFF8BD00BF17
:101610004487FF1F4CA6AA3E4CA62A3FD34D62101A
:10162000F0B51E4C94F8203085B00546002B32D022
:101630001B4B1A680192019A0021013A84F820108C
:101640001968039103981B680293029B2361801A17
:1016500006F00AFD134906F013FE06F0D3F806461D
:1016600028460F4606F0ACF802460B46304639468F
:1016700006F01CF906F0F2FB0B4906F04DFD0B4994
:1016800006F04AFD034601466068236006F03CFC14
:10169000606005B0F0BD2269014BD1E74487FF1FB0
:1016A00004A7FF1F00BA5B4A000020410000883FEA
:1016B00070B5114D0646FFF7B3FFAC684FF07E5191
:1016C000204606F0C7FE18B1304606F0CDFC0446B1
:1016D000304606F0CDFC094906F01EFD08490646D5
:1016E000204606F019FD0146304606F00DFCA860C4
:1016F00006F0FEFE70BD00BF4487FF1FFA7EAA3EC3
:101700004CA62A3FF8B5144CE66805460021304641
:1017100006F096FE18B1284606F0A6FC06462846B6
:1017200006F0A6FC0D4906F0F7FC0D4907463046C9
:1017300006F0F2FC0146384606F0E6FB094962690C
:10174000E369E060A1FB051502EB951501336561C6
:10175000E36106F0CDFEF8BD2087FF1FFA7EAA3EAA
:10176000FA7E2A3FD34D6210F0B51E4C94F820301B
:1017700085B00546002B32D01B4B1A680192019AA6
:101780000021013A84F820101968039103981B681E
:101790000293029B2361801A06F066FC134906F04F
:1017A0006FFD06F02FF8064628460F4606F008F8AB
:1017B00002460B463046394606F078F806F04EFBF6
:1017C0000B4906F0A9FC0B4906F0A6FC03460146AE
:1017D0006068236006F098FB606005B0F0BD226988
:1017E000014BD1E72087FF1F04A7FF1F00BA5B4A08
:1017F000000020410000883FF8B5114CA66805465E
:101800000021304606F01CFE18B1284606F02CFCDC
:101810000646284606F02CFC0A4906F07DFC0A49DB
:101820000746304606F078FC0146384606F06CFB69
:10183000A0602846FFF798FFA06806F059FEF8BDA3
:101840002087FF1FFA7EAA3EFA7E2A3F2DE9F0414B
:10185000AE4C94F8686BD8B0002E00F02B84D4F80E
:10186000601B40F2231201F223150FA8C4F8605B3D
:1018700001F096FE04F65E339D42A54D28BFC4F8E4
:10188000604B013E0FA9284640F2231284F8686B92
:1018900001F086FEAB68C3F31723212B00F0E9812A
:1018A00040F2A880932B00F07B8340F2F480AD2BB4
:1018B00000F0E98040F25E81B52B00F07B81FD2BCA
:1018C00040F09580934B944E2C7B1C7005F10D07D6
:1018D000B4463D3538687968BA68FB68E646AEE8D4
:1018E0000F001037AF42F446F4D13A88DFF848E2EF
:1018F000894BACF8002032228EF8002003F133052A
:10190000002213F8010B10F0DF0F02F1010104D1E6
:10191000187810F0DF0F00F05F839D420A46F0D187
:1019200033273B4636224FF0350E4FF0340C7B48C0
:101930007B49077000257848F55406F80C5006F8E6
:101940000E50B55407F080F9002840F05183754BD4
:1019500001221A70DFF8D48198F81C320A2B00F0AB
:101960006083714E6C4930463A1D00F8014B354694
:1019700001F016FE0FCD01AC0FC40FCD0FC40FCD7B
:101980000FC4684B86F833701B7886F8343095E8BE
:101990000300D8F8187244F8040B353708F2122CFB
:1019A00067452170C8F8187204BF4746C8F8188206
:1019B00001AE3D460DF1340E34460FCC744528601F
:1019C0006960AA60EB60264605F11005F4D1206835
:1019D000286023792B7198F81C22544B0A2A00F0B6
:1019E0001483511C83F81C120AB9C3F8147258B03E
:1019F000BDE8F081182B00F0FF802BD8012B00F000
:101A0000AF82C0F04382162BF1D1494B1B78002BDB
:101A1000EDD005F114030FCB464C474FDFF850E1F2
:101A2000464E84E80F006B8A4549EA68288ACEF85A
:101A300000201024B3F5B27F3C7030800B8000F0A2
:101A4000ED82B3F5B67FD2D13E493F4B0A60012209
:101A50001A70CCE71D2B00F0A7811E2B00F07681B9
:101A60001B2BC4D1324B1B78002BC0D0374C3849CC
:101A7000384BB5F91460B5F91600B5F91820266091
:101A800008601A60B3E72A4B1B78002BAFD0324BAB
:101A9000EA681A60ABE74A2B00F03B817D2B00F02F
:101AA0002981412BA3D1224B1B78002B9FD02B499E
:101AB0002B4B95F834002F8A6E8AAA8AEC8A08701C
:101AC000288B698B5F809E80AF8BEE8BDA801C81C8
:101AD0002A8C6C8C58819981A88CE98CDF811E82BC
:101AE0002F8D6E8D5A829C82AA8DD88219831D4CAF
:101AF0001D481E49DA835F8301229E83EE8D95F88F
:101B000035501E84257002700A7070E72C96FF1FF6
:101B1000B8A4FF1FEDA5FF1FF890FF1FACA1FF1F8A
:101B2000E4940000ECA5FF1F34A6FF1F70A2FF1F66
:101B30001EA6FF1F88A6FF1F9690FF1FE690FF1F9F
:101B4000F8A5FF1FA0A1FF1FD0A6FF1FB0A6FF1F73
:101B5000B4A6FF1FB8A6FF1FCC90FF1FC8A6FF1F8B
:101B6000FCA5FF1F3491FF1F5CA2FF1FD4A1FF1F24
:101B7000E890FF1FA62B7FF43AAF914B1B78002B08
:101B80003FF435AF8F4B2E7C8F481E708F4A6E7C92
:101B900006708F4FA87C8F4C8F49904B107095F832
:101BA00013E02E7DA889EA8987F800E02670088076
:101BB0001A801CE7824B1B78002B3FF418AFA889D2
:101BC000874CFFF79FFD2080E889FFF715FE2388EB
:101BD000844945F208229342088000F22E8244F2A2
:101BE000A012934240F22D827F4B1A78062A00F011
:101BF000D48105221A70FAE6714B1B78002B3FF452
:101C0000F6AE95F828307948794A95F8291003708E
:101C1000022B11707FF6EBAE764F6869764E774CEB
:101C20003860AF69764B3760EE69764A26602C8C57
:101C30001C807549754B6C8C1480EA8CAC8C1A80B6
:101C40000C8006F015FA7249724C06F019FB034637
:101C50002360384606F00CFA6D4906F011FB034686
:101C60006360304606F004FA6B4906F009FBA06099
:101C7000BDE6534B1B78002B3FF4B9AE5B4B1B7892
:101C8000022B7FF6B4AE654F2869654E654C38600F
:101C90006F69654A3760AE69644B2660EC69146011
:101CA00063492C8C634A1C80634B6C8C0C80A98C20
:101CB000ED8C11801D8006F0DBF95549554C06F07E
:101CC000DFFA03462360384606F0D2F9504906F0A1
:101CD000D7FA03466360304606F0CAF94E4906F06B
:101CE000CFFA564BA060A3FB0530400906F0C0F9BF
:101CF000E0607CE6324B1B78002B3FF478AE504C12
:101D00005049514BAE89E8892A8A268008801A807A
:101D10006DE62B4B1B78002B3FF469AE4B4FB5F9AA
:101D20001C004B4C4B4A3880EF684B4B27604B49AB
:101D30002C694B4E1460EF8BAA696C691A6037806E
:101D40000C6006F095F9334BD86050E61C4B1B78BD
:101D5000002B3FF44CAE434B4349444C6A6AEF6955
:101D60002E6A1A600F60266028694149DFF81881E1
:101D7000404E414C06F0D0F940496F69AD6906F01C
:101D80007FFA3B49C8F80000384606F0C5F93B49E0
:101D900006F076FA36493060284606F0BDF9374934
:101DA00006F06EFA206022E6054B1B78002B3FF40C
:101DB0001EAE3349334B28692A8B08601A8016E619
:101DC0001EA6FF1F3491FF1FE4A5FF1FC9A6FF1F1A
:101DD00054A2FF1FBEA6FF1F5691FF1FA0A6FF1F04
:101DE0006CA6FF1FB0A4FF1F5891FF1F6A87FF1F3B
:101DF000B4A4FF1FF490FF1F28A6FF1F58A2FF1FC7
:101E0000A4A6FF1FBCA6FF1F5491FF1F9490FF1FA5
:101E10008096184B70A6FF1F00007A4460A2FF1F37
:101E2000CCA6FF1FE0A5FF1FC0A1FF1FDAA6FF1F62
:101E3000DCA6FF1FDEA6FF1FD090FF1F1F85EB5102
:101E400098A6FF1F90A4FF1F30A6FF1FC890FF1F7A
:101E5000B4A1FF1FE8A5FF1F3891FF1FA490FF1F2B
:101E60006CA2FF1FF0A6FF1F4491FF1FE0A6FF1FFB
:101E700000003443B0A1FF1F4091FF1FDB0F49401A
:101E8000E090FF1FF4A6FF1FFCA6FF1F297C8A4AD3
:101E90004B1F012B11707FF6AAAD1B293FF4A7AD94
:101EA000864B6A7C864E1868864F3270864C00904E
:101EB000A2F10C028548EB683970DFF884E2009EDD
:101EC00083492660B2FA82F203605209A87C814CF1
:101ED0008EF80020804E95F813E0804F0870804AFD
:101EE000297D87F800E01D0C1B0E2370C309357097
:101EF00011700ED07B4B1A785AB97B497B4A08681F
:101F000010604868506088689060C968D16001229C
:101F10001A70774D2C78002C7FF469AD754E764899
:101F2000338809210133338002F0B2FF31887348CE
:101F300001F026FB2146724802F0AAFF6F4801F02B
:101F4000CFFA3388022B7FF652AD01230C216D4866
:101F50002B7002F09DFF694801F0C2FA348046E51B
:101F6000634B1B78002B3FF442AD688B664CFFF748
:101F700023FB2080A88BFFF79BFB2388634945F256
:101F800008229342088054D844F2A012934268D9A0
:101F90005F4B1A78062A7FF42CAE04221A7026E5CD
:101FA000534B1B78002B3FF422AD95F82C30DFF813
:101FB00094E1584E584C59496F8DEA6895F82F00B6
:101FC0008EF80030378022600870DBB1012B7FF47F
:101FD0000EAD534B1A800AE5D0B2471C8EF80000B4
:101FE00002F1020C02F1030E0B46FFB204329EE432
:101FF0004C494D4806F028FE00287FF4ABAC4B4B13
:102000001870A7E44A4B1A80F1E4D3F81422353251
:10201000624508BF1A46C3F81422E8E4454B1A602B
:10202000E5E41421444802F033FF344801F058FA43
:10203000DDE4374B06221A70D9E4404B06221A70B1
:10204000D5E443F2381293421ED842F2D0029342B2
:102050002BD841F268029342384B0FD800221A70F5
:10206000C5E443F23812934215D842F2D0029342AB
:1020700016D841F268029342254BEFD91A78032A09
:10208000ECD002221A70B2E42C4B1A78052A84D1C3
:1020900003221A70ABE41E4B1A78052AF8D07CE7AD
:1020A0001B4B1A78042AECD0F2E7244B1A78042A46
:1020B000E7D0EDE701F054FBA2A6FF1F04A7FF1F26
:1020C000EDA6FF1F4CA2FF1FE4A1FF1F5091FF1FB1
:1020D00069A6FF1FDDA5FF1F3E91FF1F24A6FF1F5E
:1020E000DE90FF1F3C91FF1F70A6FF1FA890FF1FEF
:1020F0001EA6FF1F56A2FF1FC89400007887FF1F6F
:10210000A0920000D49400006AA6FF1FD290FF1F87
:10211000D8A6FF1FA4A1FF1FDCA1FF1FB8A1FF1FAE
:10212000A6A6FF1FF4940000F890FF1FECA5FF1F68
:10213000C490FF1F9CA1FF1F049500005891FF1F32
:1021400064A2FF1FC690FF1F7E2808B50CD07D2813
:1021500003D0BDE8084001F04BBD01F049FD5D2012
:10216000BDE8084001F044BD7D2001F041FD5E2046
:10217000BDE8084001F03CBD38B50D4B1B78012B84
:1021800004460D4602D00120FEF770F9204655B1F5
:10219000FFF7DAFF074B1888204400EB102000F00F
:1021A000FF00188038BDBDE8384001F021BD00BFF8
:1021B00000A7FF1FAEA1FF1F10B5204B1B7882B0F8
:1021C000012B0092ADF80610044602D00120FEF764
:1021D0004DF900217E20FFF7CFFF20460021FFF7B9
:1021E000CBFF01211020FFF7C7FF9DF80600144C1C
:1021F0000121FFF7C1FF9DF807000121FFF7BCFF98
:102200009DF800000121FFF7B7FF9DF801000121B3
:10221000FFF7B2FF9DF802000121FFF7ADFF01219A
:102220009DF80300FFF7A8FF2078C043C0B2FFF776
:102230008BFF0023238002B010BD00BF00A7FF1F4B
:10224000AEA1FF1F2C4B1B7870B48BB12B4B2C4CC9
:102250001B682C492C4A002B40DBA4FB03035C09C0
:1022600004EB4404002364000C6013701D460FE06F
:10227000264A234C1268002A21DBA4FB024254099F
:102280002048214904EB4404640004600B701D469F
:1022900000221346012000FA03F101331E2B42EA0B
:1022A0000102F8D11A4E336822402B4313433360A6
:1022B0001A464FF400611B2070BCFFF77DBF5242ED
:1022C000A4FB022464090F490F4B04EB440464008F
:1022D00001220C601A704FF08045D9E75B42A4FBE5
:1022E0000334640904EB4404640001230C6013709C
:1022F0004FF08045CCE700BF64A2FF1FF490FF1FA2
:102300001F85EB51A090FF1FE0A1FF1F60A2FF1FE0
:10231000D890FF1F2B4B1B7870B4BBB12A4B2B4CB2
:102320001B682B4A2B491268002BB8BF5B42A4FBE9
:102330000334640904EB44046400002A0C60264B57
:102340003ADB02221A704FF0004611E0234B1F4C7B
:102350001B682049204A002B21DBA4FB03035C09F6
:1023600004EB4404640002230C6013704FF0004639
:1023700000221346012000FA03F101331E2B42EA2A
:102380000102F8D1164D2B682240334313432B60D2
:102390001A464FF400611B2070BCFFF70DBF5B4273
:1023A000A4FB0334640904EB4404640003230C60BD
:1023B00013704FF04046DBE703221A704FF040469F
:1023C000D6E700BF64A2FF1F28A6FF1F1F85EB51A1
:1023D000F490FF1FD4A6FF1FE0A1FF1FCCA6FF1F94
:1023E000D890FF1F2DE9F047564F3E788EB0002E53
:1023F00055D0554B1C78A6423CDA544B54489D5D51
:10240000544C1E444FEA056C96F803E07378B67896
:1024100063700EF07F020CF0FE4C4CEA020C026876
:10242000A6701904002E18BF002B4CEA020C01F410
:10243000FE014FEA06224CEA010102F4FE420CBF03
:10244000012300230A43002D08BF43F0010302606B
:1024500084F803E0257093B9BEF1000F0FD04FF45C
:10246000A0411B20FFF7A8FE3B7804333B700EB061
:10247000BDE8F08700233B700EB0BDE8F087364B17
:102480001B785C05990304F4000401F40041DB01AE
:10249000214303F080030B431A430260DFE7DFF8B8
:1024A000BCE09EF81CC2BCF1000F48D0DEF814421C
:1024B00004F13509CEF8149204F1300AE846206898
:1024C0006168A268E36845460FC510345445A846C4
:1024D000F5D120682860214B22792A7103F212225B
:1024E00091456C4628BFC3F814320FCCDFF87480D6
:1024F000DFF864A0DFF8509045460FC50FCC0FC53C
:102500000FCC0FC594E8030045F8040B98F833305E
:1025100098F8000029701A1D0CF1FF3C8AF80000A1
:1025200008F10101094889F800301C468EF81CC2E8
:1025300001F036F80A4B98F834201A705BE701F086
:102540000FF900BFD1A6FF1F80A6FF1FE895FF1F50
:10255000D890FF1FC090FF1F3D91FF1F70A2FF1F6B
:10256000ECA6FF1F34A6FF1FF8B5264B1B78062BE1
:1025700046D0254B254C1B78254D264A24782648E5
:1025800026492C701278DD11EBB203700B7072BB10
:102590002349244B08680130C0B218702249234BEC
:1025A00091F800E0224E1F78336864014FEA4E2E06
:1025B00004F060010EF400740C43BF0244EA03010E
:1025C00007F44067120302F480523943114341EA91
:1025D000C51141EA052300F01F0003431A4633608A
:1025E00045F201011B20BDE8F840FFF7E5BD114BA6
:1025F000114918780978FEF7B7FF0A4B1870CDE734
:10260000F8BD00BF4CA2FF1F69A6FF1FECA5FF1F6E
:10261000ECA6FF1F64A2FF1F98A4FF1FDBA5FF1FEE
:102620005091FF1FB3A4FF1F33A6FF1F92A4FF1FEB
:10263000D890FF1F3E91FF1FDDA5FF1F30B42E4B2A
:102640001A78042A0AD80132D2B2042A1A700CD09D
:10265000052A3CD0012A24D030BC704727490022EB
:1026600001201A70087030BC7047254B25491A703C
:102670000D6800221346012000FA03F10133182BE4
:1026800042EA0102F8D1204C21682A4041F08063DF
:10269000134323601A4645F207011B2030BCFFF7A5
:1026A0008BBD1A481A49164B05780D6000211A7027
:1026B0000B4602FA03F00133182B41EA0001F8D16E
:1026C000114C2268294042F080730B43E1E70C4B28
:1026D00010491A700D6800221346012000FA03F118
:1026E0000133182B42EA0102F8D1074C21682A4035
:1026F00041F0A063CCE700BF9C90FF1FDCA5FF1F4B
:10270000A6A1FF1FA0A4FF1FD890FF1F4CA2FF1F70
:10271000F8A6FF1FA8A4FF1F144B1B7810B50BB31E
:10272000134B187805F0A4FC124905F0A9FD05F03B
:10273000DFFE114B186000221346012404FA03F156
:102740000133202B42EA0102F8D10C4C23680240ED
:10275000134323601A464FF201111B20BDE81040BD
:10276000FFF72ABD044BFF201860E4E7D4A1FF1F48
:102770003491FF1F5C8F22402896FF1FD890FF1FC7
:1027800010B50229044680EAE070A0EBE47011D095
:10279000032901D0002010BD012A26D0022AF9D138
:1027A000B0F57A7F52DA800080B2002CF3DA40F480
:1027B000805010BD012A31D0022AEBD163285EDDA2
:1027C000B0F57A7F72DA05F04FFC574905F0A4FCAA
:1027D00002F06AFF05F08CFEC0B2800040F00100FC
:1027E000002CD8DA40F4007010BDB0F57A7F49DBD8
:1027F000B0F5205F6CDA05F037FC4B4905F08CFC36
:1028000002F052FF05F074FE80B2400040F001007B
:1028100080B2002CBFDA40F4006010BD63282BDDCD
:1028200040F2F54398423FDC05F01EFC3E4905F0BE
:1028300073FC02F039FF05F05BFEC0B2400040F0CF
:102840000100002CA7DA40F4807010BD42F20F7333
:1028500098421ADD354B98423DD805F005FC3449C5
:1028600005F05AFC02F020FF05F042FE80B2800025
:1028700040F0020080B298E7400080B2E1E78000BB
:1028800080B2ADE7400080B2C3E705F0EDFB26491A
:1028900005F042FC02F008FF05F02AFE80B280003D
:1028A00040F0010080B280E7FF20CAE742F20F73D8
:1028B000984222D805F0D8FB1D4905F02DFC02F006
:1028C000F3FE05F015FEC0B2800040F0020087E77D
:1028D00040F2FF709DE7B0F57A2F1FD205F0C4FBE0
:1028E000144905F019FC02F0DFFE05F001FE80B28C
:1028F000800040F0030080B257E70F4B984210D899
:1029000005F0B2FB0B4905F007FC02F0CDFE05F027
:10291000EFFDC0B2800040F0030061E740F6FF70B9
:1029200043E740F2FF105BE7CDCCCC3D9F86010032
:102930000AD7233C6F12833A17F00100F8B52D4BEC
:102940002D4A1B780F2B4ED90F2313709E462B4A0E
:102950002B4B11782B4E03290A4628BF032203294B
:102960001A70336842D90339CFB2BC0304F4404C27
:1029700025482649058809682548120102F03002D9
:102980001A4380FB013042EA0E03224ADFF890E04E
:10299000C917A2FB05250222C1EB6010114643EACC
:1029A0000C048EF80070FFF7EBFEC5F3C7051A4B59
:1029B00007460122284602211F60FFF7E1FE174B60
:1029C000DFF860E0BF053B40C5B2234343EA85130F
:1029D0008EF800501A46336045F202011B20BDE814
:1029E000F840FFF7E9BB9E461370B0E74FF0000CCC
:1029F0006746BDE7B4A4FF1F3591FF1F6A87FF1F1D
:102A0000D5A1FF1FD890FF1FA4A6FF1F58A2FF1F2C
:102A10001F85EB51CDCCCCCC4891FF1F0000C07F6F
:102A2000EE90FF1FB2A4FF1F1E4B1F491A881F48BC
:102A300070B51F4C1F4D00882B68A4FB0242520941
:102A4000C2F308040A801C4305F012FB1A4905F082
:102A500063FB02F029FE05F025FD01220221FFF7AC
:102A60008FFE164A164B11881880400200F4FF337F
:102A700043EA04024E0411230021012404FA03F066
:102A80000133202B41EA0001F8D1314041EA020331
:102A90002B601A4645F203011B20BDE87040FFF78A
:102AA0008BBB00BF6AA6FF1FB890FF1FD290FF1F0D
:102AB0001F85EB51D890FF1FCDCCCC3DC490FF1F9C
:102AC000EC90FF1F2DE9F04FDFF86493C249D9F86D
:102AD0000400C24EDFF85C83C14FC24DC24C89B0C6
:102AE00005F0CEFBC14905F017FB8346BA49D9F87A
:102AF0000000C6F800B005F0C3FBBC4905F00CFBB4
:102B00008246B549D8F80400C7F800A005F0B8FB24
:102B1000B64905F001FB8146AF49D8F80000C5F879
:102B2000009005F0ADFBB14905F0F6FA8046594634
:102B30004846C4F8008005F0E5F904F063FE02465B
:102B40000B46CDE9062302F06BFDCDE900014046BE
:102B500004F058FE8046894602F018FDCDE90201D6
:102B6000504604F04FFE82468B4602F00FFDCDE941
:102B700004014046494602F053FD804689465046CE
:102B8000594602F04DFDDDE9062382468B4610468C
:102B9000194602F0FBFC42464B46CDE90601DDE951
:102BA000040104F083FE52465B46DDE902AB804639
:102BB00089465046594604F079FEDDE9062304F0C3
:102BC00075FE02460B464046494604F0BBFC5246A1
:102BD000804689465B46DDE9000104F067FE424617
:102BE0004B4602F0DDFD05F039F97B4905F094FA1A
:102BF0007E4905F045FB0021804605F02BFC0028AE
:102C000040F0E4807A4BDFF830A2C3F80080404601
:102C100005F048FC83B2A3F1B40000B20028BCBFA9
:102C200003F1B40000B2B0F5B47FA8BFA0F5B47052
:102C3000704BA8BF00B2188005F01AFA6E4905F073
:102C40006BFA05F02FFC24683F68AAF800003946AB
:102C5000204605F057F9694B31688046C3F800807B
:102C6000286805F04FF9664B054618604FF07C5117
:102C7000404605F051FA04F0C5FD02F0D1FCCDE963
:102C8000000128464FF07C5105F046FA04F0BAFDE9
:102C900002F0C6FC80463846894604F0B3FD02F0D7
:102CA00075FC064620460F4604F0ACFD02F06EFCB3
:102CB000424604460D464B464046494604F0F6FD62
:102CC00032463B4604F0F2FD22462B4604F0EEFD70
:102CD000DDE9002304460D461046194604F0E6FDE2
:102CE0000B4602462946204604F02EFC05F0B6F8B5
:102CF000444A106004F086FD02F054FD02F0F8FC36
:102D000002460B4604F020FC05F0A8F83E4B3F4974
:102D1000186005F001FA3E4B3E4A1B781060002B0C
:102D200052D005F0BFFB80B205F09EF902F0BCFC6A
:102D300005F0B8FB384B394E1B68032186FB032690
:102D4000DB170222C3EB6616FFF71AFD344A002395
:102D500036B210801C46012101FA04F201340C2C19
:102D600043EA0203F8D12F4D2A680340304643EA74
:102D7000020705F07DF902F097FC05F093FB0222B3
:102D80000321FFF7FDFC284B00B21880002203034B
:102D9000012606FA04F10134182C42EA0102F8D1A6
:102DA0001A403A430028BAF90030B8BF42F08072A6
:102DB00042EA43631A4645F204011B202B6009B026
:102DC000BDE8F04FFFF7F8B91846B3E7404617499A
:102DD00005F09AF8804615E70000344350A2FF1F23
:102DE000A8A6FF1F4C91FF1FACA6FF1FDB0F494099
:102DF0009890FF1FC4A1FF1F4CA6AA3ED490FF1FAE
:102E000098A1FF1FCCA1FF1FA8A1FF1F706DC24A90
:102E10003C91FF1F9090FF1FC0A1FF1F1F85EB512A
:102E2000E490FF1FD890FF1FF290FF1F0000B443F3
:102E3000A890FF1F70A6FF1FF090FF1F2DE9F84F0D
:102E4000334B34491868344F344CDFF8DCA0DFF8DA
:102E5000DC8005F061F9324B2E490646186805F012
:102E60005BF9304B8346B3F9000000EB8000400073
:102E700005F0FEF800218146304605F0EBFA3D688A
:102E8000002842D1304602F00FFC05F00BFB012276
:102E90000221FFF775FC064605F0E6F8206058466B
:102EA00002F002FC05F0FEFA01220221FFF768FCA5
:102EB000F6B246EA0504064605F0D6F8760206F4B0
:102EC000FF334FF07C51CAF80000484643EA04063D
:102ED00005F022F9C8F8000005F00AFB01250021E1
:102EE0004004112305FA03F401331C2B41EA0401C9
:102EF000F8D1014041EA06031A463B6045F205015C
:102F00001B20BDE8F84FFFF757B945F48075B9E7C6
:102F10003891FF1F00002041D890FF1FC4A6FF1F5B
:102F2000E8A5FF1FC890FF1FC0A6FF1F20A6FF1F18
:102F3000314B324918682DE9F04105F0EDF8304980
:102F400004F0E2FF05F0D4FA2E4A2F4B2B491FFA6A
:102F500080F8A3F80080106805F0DEF82B4904F033
:102F6000D3FF05F0C5FA2A4A2A4B2B4987B21F80A6
:102F7000106805F0D1F802F097FB05F0B9FA274B7D
:102F800080B2002218800124134604FA03F10133B1
:102F90000B2B42EA0102F8D1214D2E6808EA020209
:102FA000F9021C4642EA060E0023012707FA04F63E
:102FB0000134152C43EA0603F8D10B40012203210A
:102FC00043EA0E07FFF7DCFB0126234640050021FC
:102FD00006FA03F40133202B41EA0401F8D1014041
:102FE00041EA07032B601A4645F206011B20BDE8A3
:102FF000F041FFF7E1B800BFFCA6FF1F0000A040B2
:1030000000006144B0A1FF1FDC90FF1F0000E143FE
:10301000CC90FF1FD2A6FF1F0000C842B6A4FF1F1E
:10302000D890FF1FF8B5224B22481B88224D234F12
:10303000A0FB0330400905F01BF8214B186005F098
:1030400057FA204A2B68C0F30804B2F900001C4369
:1030500005F00EF81C4905F05FF802F025FB05F0BD
:1030600021FA01220221FFF78BFB064604F0FCFF48
:10307000164A38601188730203F4FF3343EA0402EE
:103080004E0411230021012404FA03F00133202B04
:1030900041EA0001F8D1314041EA02031A462B60AF
:1030A00045F208011B20BDE8F840FFF785B800BFD6
:1030B0006AA6FF1F1F85EB51D890FF1FE8A6FF1FD0
:1030C000A4A4FF1FD290FF1FCDCCCC3DA6A6FF1F0E
:1030D000F0B5924C23685A1E99B00B2A27D8DFE826
:1030E00012F0F00074000C008F00DB00BE00EC005A
:1030F000A9003100EA00EE005C00894D2B68894E82
:103100001393139B32689B1AB3F5A77FC0F0EE8030
:10311000854B864A1B78032B28BF0323032B137090
:1031200000F052812B681293129B33602368804A0F
:103130007A49127801339342236001D901230B604D
:1031400019B0F0BD764D2B687A4E0793079B326815
:10315000734F9B1AB3F5FA7F00F21881236801338D
:1031600023602B68744E0593059B32686C4F9B1A45
:10317000C82B00F2FB802368013323602B686F4D5E
:1031800003932A68039B664E9B1A41F2883293424E
:1031900000F2B080236801332360694B1B888BB138
:1031A0005F4E684D33680193019B2A689B1AB3F503
:1031B0007A7F07D9FFF736FF33680093009B2B60B7
:1031C0002368B4E723680133B1E7554D2B685E4EA1
:1031D0001593159B32689B1AB3F5A77FC0F09280B8
:1031E000514B524A1B78032B28BF0323032B137028
:1031F00000F0DC802B681493149B3360236896E7FF
:10320000474D524B93F81C321BB9514B1B78002B86
:1032100064D02B684F4E1193119B3268404F9B1A1C
:10322000C82B5BD9FFF7DEF83B681093109B336027
:1032300023687CE73A4D2B68474E0993099B326817
:103240009B1AB3F5FA7F4DD9384B1B78022B00F24D
:10325000B0802B680893089B3360236867E7304D84
:103260002B683E4E0D930D9B32682D4F9B1AB3F584
:10327000A77F80F083802368013323602B68384E5A
:103280000B930B9B3268264F9B1AB3F57A7F3DD880
:10329000236801332360CEE7214D2B68314E0F9315
:1032A0000F9B32681E4F9B1AB3F5A77F76D2236817
:1032B00001332360D4E71A4D53E7194DDEE7184D6B
:1032C0005CE7174D284A2B681793179B11685B1A08
:1032D000B3F5FA7F70D80223236077E723680133C0
:1032E0002360DAE72368013323602CE72368013386
:1032F000236086E7FFF7A2F933680293029B2B60F5
:10330000236814E7236801332360F7E6FFF78CFB9B
:103310003B680A930A9B3360236808E76C87FF1FAA
:1033200004A7FF1FBCA1FF1F6A87FF1FD5A1FF1FB6
:103330006B87FF1FE4A6FF1FD8A1FF1F9CA4FF1FE0
:10334000A6A6FF1F94A4FF1FE8A1FF1F70A2FF1FE6
:10335000D1A6FF1F2CA6FF1FD0A1FF1FBC90FF1FEF
:1033600068A2FF1FF4A5FF1FF0A5FF1FFFF7E0FDF8
:103370003B680493049B33602368D8E6FFF7DEFACA
:103380003B680C930C9B33602368D0E6FFF756FD37
:103390003B680693069B33602368C8E6FFF7E4F8B2
:1033A0003B680E930E9B33602368C0E6FEF74AFF2E
:1033B00020E7FFF787FB4CE72B681693169B1360FB
:1033C000FFF7AAF92368B2E6FEF7A4FFAAE600BF5A
:1033D00008B5094B1B78012B02D00120FDF746F8F8
:1033E000064B074A1B780021116003B908BDBDE8F0
:1033F0000840FFF76DBE00BF00A7FF1F1EA6FF1FFE
:10340000D890FF1F30B5244C237885B053B1234B9F
:10341000234A1B6801931168019B41F270725B1A89
:1034200093421FD800F0FAFC00282AD11D4B93F8D4
:10343000683B002B2CD1237873B1184D1A4C2B68A4
:103440000293029B22689B1A0A2B05D9FFF7C0FF43
:103450002B680393039B2360FEF736F8FEF770F8A2
:1034600005B030BD00252A211048257001F010FD5F
:103470000F4800F035F80F4B1D8000F0CFFC0028FE
:10348000D4D0FDF78DF8074B93F8683B002BD2D0D2
:10349000FEF7DCF9CFE700BF1EA6FF1F04A7FF1F42
:1034A000E4A1FF1F2C96FF1F2496FF1F1C95000010
:1034B0007887FF1F56A2FF1F074A084BC2F8142245
:1034C0000021C2F8182282F81C1283F8681BC3F886
:1034D000603BC3F8643B704770A2FF1F2C96FF1F30
:1034E00000B5064A036812885B6883B001A9ADF88D
:1034F00004200222984703B05DF804FBA0A100005D
:10350000F0B507468BB0002A33D0012A08BF0A2243
:1035100051B3212400E0F4B2B1FBF2F502FB151126
:10352000C8B2092900F1300198BFC8B20AA988BF02
:103530003730214488BFC0B201F8240C661E2946EA
:10354000002DE8D133B1013CE4B20AAB23442D2273
:1035500003F8242C3B6801AA11195B683846C4F1B2
:10356000220298470BB0F0BD30228DF8252021248F
:10357000E8E70368C9B21B6898470BB0F0BD00BF0D
:103580000029BABF49422D2300230A22FFF7B8BF02
:1035900008B5FCF779FFFFF735FF01F07DFDFAE78D
:1035A000844641EA000313F003036DD1403A41D34E
:1035B00051F8043B40F8043B51F8043B40F8043B0D
:1035C00051F8043B40F8043B51F8043B40F8043BFD
:1035D00051F8043B40F8043B51F8043B40F8043BED
:1035E00051F8043B40F8043B51F8043B40F8043BDD
:1035F00051F8043B40F8043B51F8043B40F8043BCD
:1036000051F8043B40F8043B51F8043B40F8043BBC
:1036100051F8043B40F8043B51F8043B40F8043BAC
:1036200051F8043B40F8043B51F8043B40F8043B9C
:10363000403ABDD2303211D351F8043B40F8043B3C
:1036400051F8043B40F8043B51F8043B40F8043B7C
:1036500051F8043B40F8043B103AEDD20C3205D34C
:1036600051F8043B40F8043B043AF9D2043208D044
:10367000D2071CBF11F8013B00F8013B01D30B88B6
:1036800003806046704700BF082A13D38B078DD094
:1036900010F003038AD0C3F10403D21ADB071CBF66
:1036A00011F8013B00F8013B80D331F8023B20F8D0
:1036B000023B7BE7043AD9D3013A11F8013B00F809
:1036C000013BF9D20B7803704B7843708B78837091
:1036D0006046704708B5104C08E0236859050DD4C2
:1036E00023681A050FD42368DB0411D42368580318
:1036F000F3D500F037FD23685905F1D500F092FAB3
:1037000023681A05EFD500F0CDFB2368DB04EDD567
:1037100001F08EFEEAE700BF3480044008B5FFF7F1
:10372000D9FF00BF014B10221A80704700200540CE
:10373000704700BF094908B50B6830B16A461844A4
:10374000A2F58052904202D20860184608BD04F0EB
:10375000EFFE0C2303604FF0FF3008BD7087FF1FA2
:10376000FEE700BFEFF3138070B9EFF310836BB97E
:10377000EFF305825AB94FF48070EFF311832BB148
:10378000984228BF184670474FF0FF3070470F2A05
:1037900001D81846F1E7014BD05CEEE7F0E300E01A
:1037A000F0B44D1E2E46002400E00134B0FBF2F3CD
:1037B00002FB1300092800F130078ABF3730F8B246
:1037C000C0B206F8010F1846002BEED10A1953704B
:1037D0004CB1107815F8016F28700133E01A83425C
:1037E00002F80169F5DB0846F0BC704710B40F4BD6
:1037F00053F8302092F880422CB1012369B182F84D
:10380000803010BC704703EBC0035B681A6841B995
:1038100022F002021A6010BC704782F8003110BC1E
:10382000704742F003021A6010BC7047A4A1000068
:103830001C4A02EBC00301295B6811D004291BD08C
:1038400052F83000002280F8802229B1022920D0CD
:10385000032922D01A6070474FF480721A607047B3
:1038600052F830004FF4A27280F880121A601A6881
:1038700022F020021A60704752F830104FF4A27202
:10388000012081F880021A601A6842F020021A6052
:10389000704740F203121A6070474FF481721A6049
:1038A000704700BFA4A1000030B4054B054D064C85
:1038B000002210211A602A602060196030BC704715
:1038C00014D0034004D0034000D00340212801D885
:1038D000FFF78CBF704700BF212801D8FFF7A8BFB2
:1038E000704700BF2DE9F843054672B6204F214BC3
:1038F000214A1B683C68126862B6520102D5322B1D
:1039000088BF013495B3C3F5BB331C4EDFF8649018
:10391000DFF86480FF334FF47A72A6FB031302FBD7
:1039200004F404EB931472B6D9F800103A68D8F88E
:1039300000E062B6C1F5BB33FF33A6FB03031EF004
:10394000806FC4EB93134FF47A7002D0322988BF92
:10395000013200FB0233B3F57A7F04D3013D05D079
:1039600004F57A74DFE701F097FBDCE7BDE8F88344
:1039700004A7FF1F18E000E004ED00E0ABAAAAAA2C
:10398000F8B52D4B2D49DFF8D0E0DFF8D0C02C4E34
:103990002C4D2D4C2D4A2E4F4FF4000018604FF047
:1039A000807018604FF0007018604FF080601860F1
:1039B0004FF0006018600020086028234BF6FF716C
:1039C000CCF80010CEF80030336013602B60236019
:1039D0003B60B3629362092245F8242CC4F8D80FE7
:1039E00005F57F65C7F8D41F07F5FF2707F5FA67C8
:1039F000C6F8F83F2B6006F5FF26C4F8D42F05F56E
:103A0000FD2504F5FF24386006F2F4761148316094
:103A100005F5FF6504F5FD642B602360026001F08D
:103A200087FC1920FFF75EFF01F004F940F2131044
:103A3000BDE8F840FFF756BF08E100E0048003400E
:103A400014800340248003402C8003401C800340EA
:103A50003480034000800B400C800340088003400A
:103A60002DE9F84F214B1B6807460BB101221A7054
:103A7000DFF888901E4D99F80040DFF884801D4ED5
:103A800001343F2C8ABF4FF0000A5FFA84FA544693
:103A9000AB462B78A34216D1FFF764FE40281FDC0B
:103AA00033791B06F5D59BF8003001333F2B86BFD9
:103AB00000221346DAB218F80330DBB2F3712A7031
:103AC0002B78A342E8D00C490A4BFFB208F80470E7
:103AD0000120BC22087089F800A0DA70BDE8F88FD8
:103AE000FF28D6DD01F0D8FAD3E700BF98A7FF1F63
:103AF00095A7FF1F00A0064094A7FF1F9CA7FF1FCC
:103B000010A7FF1F2B4A2C491368F0B543F48063BC
:103B100013600A78294F2A4E2A4D2B4C2B4900233B
:103B20003B7033702B7023700B70002A3DD0152A28
:103B300021D0274B1B78012B25D0052B30D01F28F7
:103B400027D8002002460125224B234C1A70234916
:103B50005D7004224FF0020E88273C2640259872A3
:103B60009A704FF4005083F813E05A751F74DE709A
:103B700025700860F0BD1A4B40F213321A60144BE6
:103B80001B78012BD9D1174B4FF451721F281A60A3
:103B9000D7D9C0F34432C0F3471500F01F00D3E774
:103BA000114B4FF451721A60C9E7104B40F21332B7
:103BB0001A60BEE73480044050A7FF1F0CA7FF1F08
:103BC0000DA7FF1F9CA7FF1F95A7FF1F94A7FF1F0F
:103BD0007487FF1F00A006402DE400E004E100E030
:103BE00018C0044044A004401CC0044040A004404D
:103BF000034B1B685B0501D5FFF732BF704700BF61
:103C000034800440054A064B10781B78C0B2DBB202
:103C1000984238BF4030C01A704700BF0CA7FF1F42
:103C20000DA7FF1FF0B4384B1A7912F0300F2CD0CB
:103C300072B6997D01F0FF0200293DD062B6334F84
:103C4000334938780D78334E1C46C0B2EDB2431C70
:103C5000402BE17928BF0023AB4202F1FF32C9B209
:103C60001CBFF154184612F0FF02F0D12A4B1B681A
:103C7000C2B23A704BB1A84236BFC5F14005401BF5
:103C800040192728C4BF01221A701F49CA78D2B22E
:103C9000150616D452060DD51B4B1B795B0609D5AC
:103CA0001E4B1F491B6800220A7003B11A70164B85
:103CB0003C22DA70F0BC70474022D9795A7462B65F
:103CC000E3E70B791C06E5D5164B174E1C783378C5
:103CD000E4B2DBB29C420ED0144D01E0A3420AD004
:103CE0000133402B28BF00230879E85CC0B2C871BB
:103CF000087D0728F2D9DBB2034933700B79180627
:103D000044BF7C23CB70C5E700A006400CA7FF1F73
:103D10000DA7FF1F54A7FF1F08A7FF1F98A7FF1F8E
:103D200094A7FF1F9CA7FF1F95A7FF1F10A7FF1FAA
:103D30002B4A2C491368F0B543F4006313600A78EA
:103D4000294F2A4E2A4D2B4C2B490023092A3B7020
:103D500033702B7023700B703DD01A2A21D0274B63
:103D60001B780A2B25D01F2B30D01F2827D80020E6
:103D700002460125224B234C1A7023495D70042210
:103D80004FF0020E88273C26402598729A704FF417
:103D9000004083F813E05A751F74DE7025700860C8
:103DA000F0BD1A4B40F213321A60144B1B780A2BE9
:103DB000D9D1174B4FF451721F281A60D7D9C0F3CD
:103DC0004432C0F3471500F01F00D3E7114B4FF406
:103DD00051721A60C9E7104B40F213321A60BEE705
:103DE000348004407587FF1F10A8FF1FA5A7FF1F81
:103DF00018A8FF1F11A8FF1FA4A7FF1F7687FF1F8A
:103E000000B006402FE400E004E100E004D00440EC
:103E100010B0044000D004400CB00440054A064BEA
:103E200010781B78C0B2DBB2984238BF4030C01A5D
:103E3000704700BF10A8FF1FA5A7FF1F30B4154B88
:103E4000154C1A782378D2B2DBB29A421ED00133D5
:103E50003F2B0ED91149124B087819680023C0B2C4
:103E6000237021B1D31A1A2B01DC00230B7030BC54
:103E700070470A480A49C05C0968DDB2C0B22570C3
:103E80000029F4D09A4238BF4032EBE74FF0FF30C0
:103E9000EDE700BF10A8FF1FA5A7FF1FD0A7FF1FBA
:103EA000A0A7FF1FF0B4384B1A7912F0300F2CD0B6
:103EB00072B6997D01F0FF0200293DD062B6334F02
:103EC000334938780D78334E1C46C0B2EDB2431CEE
:103ED000402BE17928BF0023AB4202F1FF32C9B287
:103EE0001CBFF154184612F0FF02F0D12A4B1B6898
:103EF000C2B23A704BB1A84236BFC5F14005401B73
:103F000040192728C4BF01221A701F49CA78D2B2AB
:103F1000150616D452060DD51B4B1B795B0609D529
:103F20001E4B1F491B6800220A7003B11A70164B02
:103F30003C22DA70F0BC70474022D9795A7462B6DC
:103F4000E3E70B791C06E5D5164B174E1C78337842
:103F5000E4B2DBB29C420ED0144D01E0A3420AD081
:103F60000133282B28BF00230879E85CC0B2C87150
:103F7000087D0728F2D9DBB2034933700B791806A4
:103F800044BF7C23CB70C5E700B0064010A8FF1FDC
:103F9000A5A7FF1FD0A7FF1FA0A7FF1F14A8FF1FE3
:103FA000A4A7FF1F18A8FF1F11A8FF1FA8A7FF1F86
:103FB000431E032B14D872B60A4951F8230068B186
:103FC00070B4094C058834F81320466841F8236022
:103FD000521B24F8132062B670BC704762B670475B
:103FE0000020704774A8FF1FE8A9FF1F01380328AD
:103FF0000BD872B6074B53F8203043B100205B68F2
:104000000130002BFBD162B6704700207047184684
:10401000F9E700BFC8A8FF1F30B472B62B4A137867
:104020001D0706D52A4B196A002936D0996A00293E
:1040300041D053781C0706D5254B196C00293ED07A
:10404000996C002939D09378190705D5204B196E42
:10405000002936D0996E89B1D3781B0707D51C4B40
:10406000D3F880207AB3D3F8882011213AB162B610
:10407000184B00221A7030BC00F07EBE0D21154C8A
:10408000154D227843F8315003EBC1030830013A53
:104090005860227062B630BC704704220D4C0F4D40
:1040A000217843F8325003EBC20308304A1E5860AF
:1040B000227062B6EFE70521E1E70921DFE7082278
:1040C000ECE70C22EAE71022E8E700BFDCA20000E0
:1040D0000080FF1FF1A8FF1FC800400088004000BB
:1040E000431E032B1DD81B4A400140F0100030B482
:1040F000104472B6184CE25C032A1BD8DFE802F0C9
:104100000212151703220D88E25410F0080F14BF95
:10411000C823882343EA054308310360416062B63F
:1041200030BC704708300222EDE70522EBE708308B
:104130000422E8E7094A52F8230038B1084A52F845
:104140002300416042F8231062B6E9E742F82310E9
:10415000034AF7E70080FF1F00A9FF1FC8A8FF1F41
:10416000D8A8FF1F2DE9F04FDFF80CB3DFF80CA340
:1041700087B044E0AB4F4FEA930807EBC809013E14
:10418000D9F8042003F00803F6B2A2F1080003F006
:10419000FF04002B40F0028157F838301B0C99B215
:1041A00022F8081C002B00F0F0809F4B22F8064CF0
:1041B00042F8044C53F82620002A00F0C5829B4D9B
:1041C00055F8263058609A4C45F8260034F81630D9
:1041D000194424F8161000F0AFFD002800F0AD825D
:1041E000944A954B19F0080F00F1080018BF1346C8
:1041F000C9F8040047F8383008238BF800309BF8E2
:104200000040E4B261071AD58C4B1B78A3B18C49EE
:104210000A7802F0FF0322B1013BDBB20B7003B955
:1042200000BE88490A7802F0FF032AB1013BDBB2E5
:104230000B70002B00F0578204238BF8003004F041
:10424000080303F0FF02002B00F0CC809AF8003046
:10425000DBB21E098ED19C08DFF8C89159F83420D2
:1042600009EBC401C2F38302013A49680C2A00F247
:104270008880DFE802F07C7C868686868686478694
:10428000868607000868704D4A68704F704E286037
:1042900081B240F28160674B6A604FF0010E0022EC
:1042A000814249F834303A60C9F81020C9F8182022
:1042B00086F800E05B4C00F2E380B1F5D06F80F04F
:1042C0004683B1F5817F00F0FC8200F28D82802967
:1042D00000F07783822940F0FA82A98801F07F01FB
:1042E000042900F2F4825B485B4C89000844227088
:1042F00062700278930740F1588484F800E04FF030
:10430000020E42E3514F3A6832B3544B504E544977
:10431000188834780D784028864645F0020828BF72
:104320004FF0400E002C84F001043470CEEB0000FE
:104330000CBF8824C82409EBC80680B285F00105AB
:1043400044EA0E447260188049F8384072440D7097
:10435000002800F045813A603B4B1A88B2F5A06F07
:104360000FD100219A7859703E4B1A7009E0364AF5
:10437000108842F22102904200F037812D4A49F81C
:104380003420394A0123137036E72A4A2A4B19F0A0
:10439000080F18BF134647F838302DE700F0ECFC43
:1043A000324A334952F82630002B00F0D181586848
:1043B0008C5D42F8260003F10802C9F80420032CA2
:1043C00005D8DFE804F02C02292602228A551A8833
:1043D00019F0080F0CBF8823C82343EA024347F8AB
:1043E000383009E7E00700F18181210600F1F28110
:1043F000A20706D51F4A204913780220DBB21370AA
:104400000870E30602D51C4B10221A7007B0BDE8F5
:10441000F08F04228A55DAE705228A55D7E703226E
:104420008A55D4E70080FF1F74A8FF1F20A8FF1F34
:10443000E8A9FF1FC800400088004000FCA8FF1F3B
:1044400085A8FF1F04A9FF1FE8A8FF1F1CA8FF1FC6
:1044500084A8FF1FC0200740F4A8FF1F30A8FF1F3B
:10446000F0A8FF1F9820074094200740C8A8FF1F0E
:1044700000A9FF1F882007408020074090200740A8
:1044800042F22100814200F02A8100F2D880B1F589
:10449000086F00F07682B1F5106F40F01882226A42
:1044A000B349A8780870120600F13A83D9F8282099
:1044B000B049130600F10C83D9F83020AD49150638
:1044C00000F10183D9F83820AA49140600F1F682D8
:1044D000D9F84020A749100600F14A83D9F84820AE
:1044E000A449120600F13F83D9F85020A1491306D0
:1044F00000F13483D9F858209E49150600F129832C
:10450000D9F860209B49140600F11E83D9F8682071
:104510009849100600F11383D9F8702095491206C6
:1045200000F10883D9F878209249130600F1FD8242
:10453000D9F880208F49150600F13183D9F88820F9
:104540008C49140600F12583D9F89020894910067A
:1045500000F11983D9F898208649120600F10D83DD
:104560008548864A864901908648874D874C04973E
:1045700000230596029580460F4616461D46039475
:10458000306828B1446800F0F7FB2046002CF9D1D0
:1045900000233360029B38681A46002342F8253016
:1045A00028B1446800F0E8FB2046002CF9D1002235
:1045B0003A60019A98F800301146002241F8042B25
:1045C000039A0191023B4FF0000122F81510032BD2
:1045D00000F22B81DFE813F0700125017001250145
:1045E000BEF1400F18BF0022B5E6694A0D78487841
:1045F000157050708D78C8789570D07010680D79EE
:10460000157186284D7989795571917100F09B81DA
:104610006049614E0A78307882F00105002842F046
:1046200002020D700CBF8821C82149F8321009EB35
:10463000C20280F001000021307051609EE642F21B
:104640002120814240F0CB81544B554C5549A878EC
:104650001D682560CDF804E00870002002908046B7
:10466000844604464B490D7845F0020E09EBCE0313
:104670000393019B002B039B5C600CBF8824C82420
:1046800044EA080385F0010449F83E3032700C70AA
:10469000DFF8E0E0404BDFF8FC80002840F01E81AE
:1046A000BCF1400F1BD144F0020C09EBCC03029C7F
:1046B000DFF8C0E05C60002A40F02681020442F08E
:1046C00088029DF804304EF83C20044433700D708D
:1046D0002346402803D10020334A3B601080334AF0
:1046E000012313704DE600F0B3FCA5E5214B2F48E4
:1046F00028491A614FF0020E80F800E02C4F0A7032
:104700002C49196099602C4E2C4D2D4C9A610D212D
:104710003970FF213170DFF8B8E029702270294D1F
:10472000294A8EF800109F27012406F8047C5D605A
:104730000470DA6007B0BDE8F08F244A47F838000B
:1047400013780133137057E543F826000E4D3AE510
:104750008B5D032B00F2F08001A252F823F000BF22
:10476000F9410000F94100001D4800001748000011
:10477000FCA8FF1F0080FF1FD8A8FF1F74A8FF1F01
:10478000C8A8FF1F00A9FF1F20A8FF1FE8A9FF1F3F
:10479000F0A9FF1FF0A8FF1F84A8FF1F04A7FF1F99
:1047A000F8A9FF1F14A9FF1F30A8FF1F942007407E
:1047B000C020074088004000882007408020074034
:1047C0009820074034A8FF1F88A8FF1FF1A8FF1FEB
:1047D0008C200740C149C24B80220D2008701A70FE
:1047E000A2077FF50EAE05E640F20232914240F09C
:1047F000EE80A98801F07F01042968D86A88002A20
:1048000065D1B648CDF804E089000844017841F04C
:104810000201017021E701238B55EDE400238B5544
:10482000EAE44FF0010388F800300135042D06F169
:10483000040607F1040708F101087FF4A1AEA94CB2
:10484000A94B2278A94D049F059E002129701A705A
:10485000130700F105816278A549DFF8A0820A708C
:1048600010074FF00001C9F83010C9F8381000F1F6
:10487000E080A049A2780A700021C9F85010C9F858
:1048800058101107DFF8748200F10181E2789A492B
:104890009A4C0A7000211207C9F87010C9F87810F4
:1048A00000F1B08033780193002183F00102C9F850
:1048B0009010C9F89810D0E64FF0000388F8003047
:1048C000B3E7A98801F07F01042940F28D80834A73
:1048D0000F2313708A4A0123137052E540287FF694
:1048E000E2AE44F002040EEBC401029E4E60BAB187
:1048F0009DF80410834A19703346403888F80050F8
:1049000040334EF83420E7E69DF80430337002045B
:10491000029B0D7042F0C80203444EF83C20D8E6DA
:104920009DF804101970029B774A88F800504038AF
:1049300040334EF83420CFE619F0080F0CBF0223A5
:1049400003238B5558E4714A0F21117060E6704AB9
:104950005468002CBBD06888B5F804E003E00C3242
:104960005468002CB3D013888342F8D15388734520
:10497000F5D1000A03280CBF94F800E0B2F808E073
:1049800003E0644A644C12782270E888704580F035
:104990003F8162490D784028844645F0020E28BFC9
:1049A0004FF0400C04EB0C0309EBCE020293012301
:1049B0005460CCEB00004FEA0C4800220193C8245D
:1049C0005EE6554C4FF0020E22706270DDE7B1F5E5
:1049D000A06F7FF47CAF0123002201933DE642F2F9
:1049E00021329142F7D072E76A88002A7FF46FAFD4
:1049F0003A48CDF804E089000844017821F002012A
:104A000001702AE600F098F9002800F0EF800830E5
:104A10003D4AC4F88400C4F8802000F08DF90028D5
:104A200000F0DE800830374AC9F88C00C9F88820C9
:104A300038E700F081F9002800F0C0800830324AE1
:104A4000C8F84400C8F8402000F076F9002800F0CB
:104A5000AF8008302B4AC9F84C00C9F8482008E755
:104A600000F06AF9002800F0CD800830264AC9F825
:104A70002400C9F8202000F05FF9002800F0BC8075
:104A80000830204AC9F82C00C9F82820E3E600F0D5
:104A900053F9002800F09E8008301B4AC8F86400D3
:104AA000C8F8602000F048F9002800F08D80083038
:104AB000144AC9F86C00C9F86820E7E6C86B0838E2
:104AC00000F05AF904E5486B083800F055F9F9E4AC
:104AD000C86A083800F050F9EEE400BFC020074073
:104AE00080200740DCA20000C4200740F1A8FF1F7F
:104AF000C8200740CC200740D02007400080FF1F7F
:104B000094200740C80040008800400085A8FF1F8F
:104B1000E0A20000FCA8FF1FF4A8FF1FF0A8FF1FE1
:104B2000606A083800F028F9C0E4C86F083800F05F
:104B300023F9FDE4486F083800F01EF9F2E4C86E6E
:104B4000083800F019F9E7E4486E083800F014F965
:104B5000DCE4C86D083800F00FF9D1E4486D08387E
:104B600000F00AF9C6E4C86C083800F005F9BBE4A7
:104B7000486C083800F000F9B0E4D1F89C0008381F
:104B800000F0FAF8ECE4D1F89400083800F0F4F8FA
:104B9000E0E4D1F88C00083800F0EEF8D4E4D1F865
:104BA0008400083800F0E8F8C8E44FF0020EECE6A4
:104BB0002A78C9F8480001322A705AE62A78C8F8DB
:104BC000400001322A703FE72A78C9F868000132B4
:104BD0002A705BE62A78C8F8600001322A7061E723
:104BE0002A78C9F8880001322A705BE62A78C4F86E
:104BF000800001322A7010E72A78C9F828000132B3
:104C00002A7028E62A78C9F8200001322A7032E793
:104C1000BEF1400FF44628BF4FF0400C04EB0C03EC
:104C200002930123CCEB0E004FEA0C4800220193C3
:104C300018E500BFF8B500F067FC294B29482A4C5D
:104C40002A4F2B4DDFF8BCC0DFF8BCE0294E002214
:104C50001A605A609A60DA601A615A619A61DA6180
:104C60001A625A629A62DA621A635A639A63DA6360
:104C70001A645A649A64DA641A655A659A65DA6540
:104C80001A665A669A66DA661A675A679A67DA6720
:104C9000C3F880200168C3F8842041F480210160BA
:104CA000C3F307212170C3F30740134938701B0E6B
:104CB0002B70FF238CF80030104D8EF80030104818
:104CC0000B700123337084F8642070264FF4007455
:104CD000102207F82C3C2E70046081F8F820F8BDF3
:104CE0000080FF1F348004409C200740B020074014
:104CF000B4200740942007401020074049E400E01A
:104D000008E100E0802007408820074000F0A4B8B8
:104D100000F07CB800F056B800F090B800F06CB924
:104D200000F046B90846114600F0B2B8084600F057
:104D300033B900BF704700BF72B60D480268B2FABF
:104D400082F30B2B10DC4FF00041D94022EA010224
:104D5000026062B6074803EBC303DB00C218002100
:104D6000C15010465160704762B60020704700BFC6
:104D70008887FF1FBC83FF1F0D4B0E4AC31AA2FB7F
:104D800003231B090B2B0CD80B4A127852B972B6AD
:104D90000A484FF00041026821FA03F31A43026007
:104DA00062B67047064A1278002AF0D0FFF734B98D
:104DB000BC83FF1F398EE338F1A8FF1F8887FF1FD0
:104DC000FCA8FF1F38B50F4D286878B143880288CA
:104DD000C118013393420C7A02D24380204638BD79
:104DE000FFF7CAFF002320462B6038BD064B1B7817
:104DF0002BB10320FFF7DCF828600028E6D14FF044
:104E0000FF3038BD10A9FF1FFCA8FF1F10B5094CCB
:104E1000206818B143881844007A10BD064B1B78EF
:104E20002BB10320FFF7C4F820600028F2D14FF027
:104E3000FF3010BD10A9FF1FFCA8FF1F044B054A3F
:104E40001B6890881BB11A885B88D31A1844704776
:104E500010A9FF1FE8A9FF1F0B4B1B789BB110B5D2
:104E60000A4C206848B1FFF787FF00230320236026
:104E7000FFF79EF830B1FFF77FFF0320FFF798F8A8
:104E80000028F8D110BD7047FCA8FF1F10A9FF1F14
:104E90002DE9F04FDFF8F89083B0012289F8002067
:104EA000019169B3DFF8EC80364F019E8346D8F854
:104EB0000000B0B3344D4488C4F14001B14228BF72
:104EC000314604EB010E00221FFA8EFE2A70761A7C
:104ED000A0F802E000F1080251B1013C224459441B
:104EE0001BF8014B02F8014F8B45F9D1B0F802E0F5
:104EF000BEF13F0F0BD8254A05211170002ED6D1E7
:104F00000198002389F8003003B0BDE8F08F4022FB
:104F1000028001460420FFF7E3F80022C8F80020D1
:104F2000E9E73A782AB3184D4AF2F9244FF0010A1A
:104F300007E0013C16D02A78A2B900F0ADF83A7823
:104F4000BAB10420FFF752F80728F2D889F800A078
:104F5000FFF7F2FEC8F800000028ACD10C4B013C72
:104F60001870E8D101234FF0FF302B7003B0BDE87B
:104F7000F08F00234FF0FF3089F8003003B0BDE818
:104F8000F08F00BFFCA8FF1F0CA9FF1F04A9FF1F83
:104F900005A9FF1F08A9FF1F00B583B002AB0121BF
:104FA00003F8010D1846FFF773FF03B05DF804FB2B
:104FB00038B50E4D0E4C28680123237028B1408867
:104FC00000232370C0F1400038BD0A4B1B7813B991
:104FD0000020207038BD0420FFF708F80728F7D814
:104FE000FFF7AAFE28600028E9D1F1E708A9FF1F12
:104FF00005A9FF1FFCA8FF1FF8B5114B1B788BB14B
:10500000104E114D346801272F7064B10F4A638828
:1050100000271770214623800420FFF761F83760CE
:1050200000232B70F8BDFFF787FE084B28B101461F
:1050300004201C70FFF754F8F2E71F70F0E700BF80
:10504000FCA8FF1F08A9FF1F05A9FF1F04A9FF1F38
:1050500038B50E4B1B7873B90D4C216861B103F064
:10506000FF054B880B800420FFF73AF8256038BD18
:10507000084B01221A7038BDFFF75EFE0028F7D0FA
:105080000146BDE838400420FFF72AB805A9FF1FF4
:1050900008A9FF1F04A9FF1F38B5224C237803B1CC
:1050A00038BD01232370FFF7C9FE70BBFEF7AAFDD0
:1050B00040BBFEF7B3FE10BB00F0AAF9E0B9002335
:1050C0002370EFF30583002BEAD1EFF3108172B662
:1050D000154B1868E0B1154C2278CAB945691D60B6
:1050E00001232370C5B1AA6101B962B600254577D5
:1050F000836898472570D3E700F018F9DFE700F0E0
:1051000013F9D9E700F00EF9D3E7FFF713FECDE767
:105110000029C5D162B638BD054B1D600029E5D117
:10512000E3E700BF15A9FF1F28A9FF1F2CA9FF1F38
:1051300024A9FF1F10B4EFF3108272B6437F33B976
:10514000017F012907D003290FD00123437702B93A
:1051500062B610BC7047124C2168A1B1114943617D
:105160000B68836108605861EFE70F4C216881B1DB
:105170000E4943610B688361086058610C4B4FF026
:1051800080511960E1E7074B41618161206018603F
:10519000DBE7064B4161816120601860EEE700BFEC
:1051A00028A9FF1F24A9FF1F18A9FF1F1CA9FF1F63
:1051B00004ED00E010B4047F4160022CC26002D014
:1051C00010BCFFF7B7BF836810BC184770B5EFF38A
:1051D000108272B60C4C206880B10C4E00254369D9
:1051E000236073B19D6102B962B6457783689847C1
:1051F000EFF3108272B620680028F0D102B962B6CF
:1052000070BD3360EFE700BF18A9FF1F1CA9FF1F87
:10521000FFF7DCBF184A30B41468002C27D00368AD
:1052200021688B420ED2CB1A00218460C1602360BA
:10523000E06010600223037530BC704711688B4238
:10524000144608D3A2685B1A0360002AF6D1826074
:10525000C460A060EEE7D268C2608460E060C568A8
:10526000CB1A0222A8602360027530BC70478460AC
:10527000C4601060DEE700BF20A9FF1FF8B5224E12
:1052800034682CB32368002B3AD1204F1D4604E02C
:105290003468ECB12368002B32D1A36803B1DD6020
:1052A00020693360036825751B68BB4221D1037FE9
:1052B0004560022BC46020D0FFF73CFF6368002BE1
:1052C000E6D023602046FFF7A5FF3468002CE1D12B
:1052D000EFF3108372B60E4A00211068116003B913
:1052E00062B628B18468FFF795FF20460028F9D1FF
:1052F000F8BD224600219847E0E783689847DDE73C
:10530000013B2360E4E700BF20A9FF1FB551000067
:1053100030A9FF1F024A136801331360FFF7AEBFC5
:1053200004A7FF1F704700BF704700BF704700BF52
:1053300030B42948294A2A4B2A4D6024E1210470BF
:1053400011701B78284C082B30D00A2B274828498D
:1053500037D00C2B0CBF35223D2212232A6023604C
:1053600002600B60234B24491B78244ABBB1012304
:105370000B601360224B23491B78234A012B26D94B
:10538000042B0FD9082B1ED9102B94BF86238723FB
:105390000B6013601D4B01221A7030BC70470B600C
:1053A0001360E7E784230B601360F3E700F58E20BA
:1053B0000F490830012213232A60236002600B602A
:1053C000D0E73922F7E785230B601360E2E78023FB
:1053D0000B601360DEE700BF00400740014007405C
:1053E0008C87FF1F08B003400CB0034008B00B408F
:1053F0000CB00B4035A9FF1F20B0034020B00B407C
:105400008D87FF1F24B0034024B00B4034A9FF1F39
:10541000054A064B10781B78C0B2DBB2984238BF01
:105420004030C01A704700BF3CA9FF1F3DA9FF1FB5
:1054300030B42B4B1A7994061FD52A48DA790378B1
:10544000294901333F2B0978C8BF00238B42D2B2D0
:1054500003D0264CD9B2E2540170254A116861B1DB
:10546000244A1278D2B2934236BFC2F140029B1A4C
:105470009B18272BC4BF01230B70194AD378DBB2CA
:10548000180611D45A060DD5154B1B795B0609D5A4
:10549000194B1A491B6800220A7003B11A70104B8D
:1054A0002C22DA7030BC704711790906EAD514490C
:1054B00010480C780178C9B28C420DD04A1C272ABA
:1054C00084BF00210A460F4D054C98BFD1B2AA5C9B
:1054D000D2B2E2710170D5E76C21D170D2E700BF82
:1054E00000C006403CA9FF1F3DA9FF1F68A9FF1F80
:1054F00038A9FF1FA9A9FF1FACA9FF1FA8A9FF1F5B
:10550000B0A9FF1F40A9FF1F70B584B072B6194B38
:10551000194D1A48702241260F2480211A702E70CE
:105520001A460470197013781B06FCD5144B1868C2
:1055300062B6144B144C984298BF00EB800001A94E
:1055400098BF40000A22FEF72BF901A9204600234C
:1055500011F8012B01333AB10A2B20F8022FF7D1B1
:105560001623237004B070BD5B00DBB2237004B05F
:1055700070BD00BF0000024007000240060002406C
:10558000080002407F9698001C88FF1F30B5224A11
:1055900021F00043934287B01BDD204A934205DD92
:1055A00002460B4601F0CEFF07B030BD02AA00F064
:1055B00053FC00F00303012B1AD0022B0FD01BB3B6
:1055C0000124DDE90423DDE90201009401F044FC3B
:1055D000EAE70022002300F023FF07B030BDDDE939
:1055E0000423DDE9020100F01BFF01F10041DBE7CC
:1055F000DDE904450093DDE9020122462B4601F076
:105600002BFC01F10041CFE7DDE90423DDE90201D4
:1056100000F006FFC8E700BFFB21E93FFFFFEF7F77
:1056200030B51F4A21F00043934287B01BDD1D4A6D
:10563000934205DD02460B4601F084FF07B030BD02
:1056400002AA00F009FC00F003000128DDE90423B0
:105650001AD002280FD0E0B1DDE9020100F0E0FE2F
:1056600001F10041EAE7002300930022002301F04A
:10567000F3FB07B030BD0124DDE90201009401F025
:10568000EBFB01F10041D9E7DDE9020100F0C8FEC2
:10569000D4E70124DDE90201009401F0DDFBCDE750
:1056A000FB21E93FFFFFEF7F08B5C0F3C7537F3B06
:1056B000162B01460EDC002B024610DB0B4818416E
:1056C000014205D04FF480011941114421EA000143
:1056D000084608BD802BFBD102F016FC08BD013343
:1056E00000F00041F4D141F07E51F1E7FFFF7F006F
:1056F0002DE9F043DFF8A4808BB004460D4600F09E
:10570000AFF898F90030013306460F462ED02246F6
:105710002B462046294602F063FB814630BB2046DB
:10572000294601F0EFFD0022194B02F04FFBE8B1D2
:10573000184B1948CDF8209001228DE80C00CDE9D6
:105740000445CDE9024501F06DFE98F90030022BC9
:10575000CDE906010FD0684601F062FE58B1089B02
:1057600083B9DDE906010BB0BDE8F0833046394668
:105770000BB0BDE8F08302F0DBFE21230360089B41
:10578000002BEED002F0D4FE089B0360E9E700BFD7
:105790000000F03F34A30000A09200003288FF1FF9
:1057A00000F08EBA2DE9F04F8BB004460D4600F0A4
:1057B00075FD284B93F900A0BAF1FF3F06460F464E
:1057C00012D022462B462046294602F009FB83468A
:1057D00050B94FF000084FF0000942464B462046B2
:1057E000294602F0D5FA20B9304639460BB0BDE85B
:1057F000F08F194BCDF820B00122CDE90445CDE959
:1058000002458DE80C00BAF1000F15D042464B4618
:105810004046494602F074F9BAF1020FCDE906019B
:105820000CD102F085FE21230360089B63B9DDE9FA
:1058300006010BB0BDE8F08FCDE90689684601F09E
:10584000EFFD0028F1D1ECE702F072FE089B036047
:10585000EDE700BF3288FF1F3CA30000FFFFFFFF02
:105860002DE9F047C04B21F00048984584B00D4623
:10587000044614DD08F1404808F58018034658EA4C
:10588000030323D002460B4601F05CFE02460B46A2
:1058900002F036F90446204604B0BDE8F087B34B69
:1058A00098458A462BDCB8F1795F80F2678192A334
:1058B000D3E9002301F048FE0022AD4B02F086FA46
:1058C000E8B12946204604B0BDE8F0878CA3D3E9AF
:1058D000002301F0EBFF8CA3D3E9002306460F461B
:1058E0002046294601F0E2FF02460B463046394683
:1058F00001F02AFE0446204604B0BDE8F0872046A9
:10590000294601F0FFFC02460B460020984901F0B1
:1059100019FE0022974B01F0C9FF7DA3D3E90023B4
:1059200004460D4601F0C2FF7BA3D3E9002301F03A
:105930000BFE22462B4601F0B9FF79A3D3E90023E1
:1059400001F000FE22462B4601F0B0FF76A3D3E91A
:10595000002301F0F9FD22462B4601F0A7FF74A3B6
:10596000D3E9002301F0EEFD22462B4601F09EFF15
:1059700071A3D3E9002301F0E7FD22462B4601F095
:1059800095FF6FA3D3E90023CDE900012046294606
:1059900001F08CFF6CA3D3E9002301F0D3FD224674
:1059A0002B4601F083FF6AA3D3E9002301F0CCFD6D
:1059B00022462B4601F07AFF67A3D3E9002301F0CA
:1059C000C1FD22462B4601F071FF694B002201F018
:1059D000BBFDCDE902012046294600F05FFC664B85
:1059E000984506460F4666DCDDE90223DDE9000145
:1059F00002F086F83246CDE900013B463046394692
:105A000001F0A2FD02460B46DDE9000101F04EFF68
:105A10004FF00008CDE9000142463B46404639467A
:105A200001F044FF02460B462046294601F08AFD5C
:105A3000424604460D463B463046394601F084FD59
:105A400002460B462046294602F05AF802460B460B
:105A500001F07AFD02460B462BA1D1E9000101F0CD
:105A600071FD02460B46DDE9000101F06BFD424687
:105A700004460D463B464046394601F065FD024668
:105A80000B4637A1D1E9000101F05CFD02460B464F
:105A90002046294601F056FD02460B4630A1D1E9C9
:105AA000000101F04FFD0446BAF1000F3FF7F3AEDD
:105AB00001F10041EFE6DDE90223DDE9000102F03A
:105AC0001FF832463B4601F0F1FE32463B4601F0FC
:105AD0003BFD02460B4601F037FD0BA3D3E9002343
