:1000000000800020BD010000E54300009D4300008A
:100010009D4300009D4300009D4300009D43000060
:100020009D4300009D4300009D430000E543000008
:10003000E54300009D430000E54300008D430000C0
:10004000E5430000E5430000E5430000E543000010
:10005000E5430000E5430000E5430000E543000000
:10006000E5430000E5430000E5430000E5430000F0
:10007000E5430000E5430000E5430000E5430000E0
:10008000E5430000E5430000E5430000E5430000D0
:10009000E5430000E5430000E5430000E5430000C0
:1000A000E5430000E5430000E5430000E5430000B0
:1000B000E5430000E5430000E5430000E5430000A0
:1000C000E5430000E5430000E5430000E543000090
:1000D000E5430000E5430000E5430000E543000080
:1000E000E5430000E5430000E5430000E543000070
:1000F000E5430000512D0000E54300008930000079
:10010000E5430000AD320000E5430000E543000098
:10011000E5430000E5430000E5430000E54300003F
:10012000E5430000E5430000E5430000E54300002F
:10013000E5430000E5430000E5430000E54300001F
:10014000E5430000E5430000E5430000E54300000F
:10015000E5430000E5430000E5430000E5430000FF
:10016000E5430000F5340000E5430000E5430000EE
:10017000E5430000E5430000E5430000E5430000DF
:10018000E5430000E5430000E5430000E5430000CF
:10019000E5430000E5430000E5430000E5430000BF
:1001A000E5430000E5430000E5430000E5430000AF
:1001B000E5430000E5430000E5430000564B4CF2E8
:1001C000205210B51A804DF628121A8000BF00BFC9
:1001D00004F00CF9514B4FF010621A60504A9A60CB
:1001E000504ADA60504A136813F4807304D14F49BF
:1001F0000B604FF4A85313604D4B1A78110703D5C9
:100200001A7842F008021A704A4B4B492A221A7097
:100210004A4A4B4B8B4204D252F8040F43F8040B6A
:10022000F8E7484B484900228B4202D243F8042B9E
:10023000FAE74649464A002352F8230041F82300D2
:1002400001336F2BF8D1434B434A802103F8011B44
:100250009342FBD1414B3D4A1A60414B8A221A70AE
:10026000A3F5805324225A70A0221A709A7992071B
:10027000FCD59A79D406FCD43A4A937903F00C035E
:10028000082B384BF9D103221A7140225A719A79FE
:100290009006FCD5334A9179324B4906FBD5324A58
:1002A000324911600221516020221A709A7902F0BD
:1002B0000C020C2AFAD12E4B2E4A1A602E4B2F4AD2
:1002C0001A6000225A60072243F8042C2C4AC3F813
:1002D0000C2D62B602F0F2FB144B1B68DA0705D551
:1002E000284802F085FB284B284A1A60284B1B78C7
:1002F0005B0609D5244C254B22689A4204D121483B
:1003000002F076FB0023236007F0F0F804F074F8A5
:1003100003F080FFFEE700BF0E2005403080044060
:10032000823F04000100002B10D0034014D0034092
:1003300002D0074000E007408490FF1F888700003C
:100340002087FF1F8490FF1FEC98FF1F0082FF1F74
:100350000000000000E400E05FE400E008ED00E0E1
:100360000050064000400640448004400000030165
:1003700004800440C010050014E000E0FF76010096
:1003800000002020CB22215B1CE00340A5C3945A2F
:1003900000F00740FFFFFFFFFFFFFFFFFFFFFFFF32
:1003A000FFFFFFFFFFFFFFFFFFFFFFFFFFFFFFFF5D
:1003B000FFFFFFFFFFFFFFFFFFFFFFFFFFFFFFFF4D
:1003C000FFFFFFFFFFFFFFFFFFFFFFFFFFFFFFFF3D
:1003D000FFFFFFFFFFFFFFFFFFFFFFFFFFFFFFFF2D
:1003E000FFFFFFFFFFFFFFFFFFFFFFFFFFFFFFFF1D
:1003F000FFFFFFFFFFFFFFFFFFFFFFFFFFFFFFFF0D
:10040000FFFFFFFFFFFFFFFFFFFFFFFFDEF9FFFF23
:1004100010B5054C237833B9044B13B10448AFF33E
:1004200000800123237010BD8490FF1F0000000096
:100430008C870000084B10B51BB108490848AFF382
:1004400000800848036803B910BD074B002BFBD0A0
:10045000BDE81040184700BF000000008890FF1F53
:100460008C8700008490FF1F00000000044B0549AA
:100470001A68137843F0200313700870704700BFA8
:100480009C94FF1F0C96FF1FF0B540F6055085B0F9
:1004900002F0D6FB264A274B274911601022A021E3
:1004A0009A7140F6055099705A7102F0D7FC40F2EB
:1004B000836002F06FFE214A21491468214D224FCA
:1004C00040F6C4100B783BB12B789B0704D013681F
:1004D0003E689B1B182B03D813681B1B8342F1D962
:1004E00013680393039913680293029F136801939F
:1004F00001981368154A0093154E164B1160164D5E
:10050000164A1749174C37601860009E2E6000236A
:100510004FF47A700B702370138002F081FA0D2172
:10052000114803F01BFD114803F01CFE05B0F0BD9F
:100530009C94FF1F00A0064006A006401096FF1FD7
:100540008498FF1F9C98FF1FE498FF1FCC92FF1F09
:10055000A892FF1F8494FF1F7092FF1FEC92FF1F51
:100560009D92FF1F5494FF1F348100008887FF1F56
:10057000124A134B1068012210B51A7006F050FD94
:100580001049114C06F054FE104B2060186806F01C
:1005900047FD0C4906F04CFE0D4B6060186806F0F4
:1005A0003FFD0C4906F044FE0B4BA060188806F096
:1005B00033FD0A4906F03CFEE06010BD1493FF1FB6
:1005C0009D92FF1F8096184BBC90FF1FAC92FF1F9F
:1005D000F092FF1F00007A443491FF1F0000C842D0
:1005E000F0B5444B444D454E454F87B006ACADF891
:1005F00004000FCB04E90F00424A434B12781B78EA
:100600008DF806208DF8073001AC0FCCD4F800E04F
:1006100005F108040FC4B2793C48C4F800E0FE2399
:100620001424511CAB7001232A71AB71EC71EC7076
:100630006C713C704FF6FF720370B171EB1CE91DD9
:1006400001E013F8014F544084EA0414E4B2E000DE
:1006500080EA042080EA12228B4282EA1412F0D14E
:100660002B4E2A80104606F1140116F8013B224C4D
:10067000434083EA0313DBB2DA0082EA032282EA10
:10068000202282EA13131BB298B28E422880ECD14A
:1006900083F0D60181EA0111C9B2CD0085EA0125B6
:1006A00085EA102585EA111526462DB21FFA85FC2C
:1006B00056F8020F174FA4F800C0EDB24FEA1C2EF7
:1006C000257784F81DE07168B268F3683C460FC472
:1006D00030697169104A368B03C41C2338461946A9
:1006E0002680137087F81BE0BD7607B0BDE8F040A8
:1006F00002F022BC8894FF1F3093FF1FD492FF1F8B
:100700002493FF1FFD92FF1FC594FF1F5891FF1FE9
:100710003893FF1FF094FF1FA690FF1F00B5104BEA
:10072000197883B0B9B90F4B0F4A1B680193019830
:100730001368C31AB3F5FA7F0C4B0AD310601A780A
:1007400052B119700A4B187802F064F903B05DF8E1
:1007500004FB1978F6E7054B01211970F2E700BF99
:100760005494FF1F1096FF1FF090FF1FA894FF1FC7
:100770002087FF1F0F2810B5044603D80121074822
:1007800003F0ECFB214600231022054803F0FAFC9D
:1007900001210448BDE8104003F0E0BB44810000A3
:1007A0008887FF1F4881000070B5054604212F4847
:1007B00003F0D4FB2878FFF7DDFF6878FFF7DAFF56
:1007C00002212B4803F0CAFBEE782A48082103F0E7
:1007D000C5FB00230A223146274803F0D3FC012140
:1007E000264803F0BBFB2C792548092103F0B6FB12
:1007F00000230A222146204803F0C4FC01211F489F
:1008000003F0ACFBEC791F48092103F0A7FB21465C
:1008100000230A22184803F0B5FC04211A4803F00B
:100820009DFB214600231022134803F0ABFC02215C
:10083000164803F093FB15F8020F0836FFF79AFFEE
:10084000022405E015F8010FFFF794FF072C07D0ED
:100850000134A642F6DC0848BDE8704003F082BCD3
:1008600002220349044803F0E9FCF1E74C8100004F
:1008700054810000588100008887FF1F64810000B8
:100880006881000074810000808100008881000080
:100890002DE9F04FA84DA94EC5B0A84602F0C2FC04
:1008A000002870D002F0CEFCEB780022C4B22A708F
:1008B0000A2B00F21681DFE813F0DC00DC00C70031
:1008C000B500F200E000A100880069000B000B00F9
:1008D0000A2B00F0F6803388DFF860A2B4EB132F08
:1008E00000F0FB8002232B7099462A79DFF84CB286
:1008F00052444FF0010E5472594668464FF48872C4
:1009000085F803E001F0B8FFB9F1010F6F4640F040
:10091000ED80B8F808309BF8042088F805200BB962
:10092000A8F80A3001339AF80320A8F80830002309
:10093000FA7088F802301A218148DFF814B203F007
:100940000DFB804803F00EFC3846FFF72DFFFC78C6
:1009500004F1060A52460DF10201584601F08CFFDF
:100960003B880BF80A300834DA44774AE4B21B12A9
:10097000584621468AF80130147002F0DDFA02F080
:1009800051FC00288ED145B0BDE8F08FF3796F4A55
:100990003188D35C4B4083EA0313DBB2DA0082EA8E
:1009A000032282EA112282EA1313DAB294423380DC
:1009B00014BF0A230923EB702B7933441C72F3789C
:1009C0008DF803300022AA7068E72A79B318013243
:1009D0001C723088F378444084EA0414E4B2E100E5
:1009E00081EA0421D2B281EA102181EA14149A42E8
:1009F0002A713480E4D10822EA70E1E73188F47189
:100A00004C4084EA0414E4B2E20082EA042282EA5E
:100A10001122F37882EA14143480002BEBD00722E1
:100A2000EA70CDE732887471544084EA0414E4B269
:100A3000E30083EA042383EA122383EA14140523E0
:100A4000EB703480F378BBE73188F47084EA0103FB
:100A500083EA0313DBB2DA0082EA032282EA11227C
:100A600082EA131200200421234632802871E970A3
:100A7000A6E7FE2C28D0F378A2E73288B471544060
:100A800084EA0414E4B2E30083EA042383EA122331
:100A900083EA14140623EB703480F37890E73288ED
:100AA0003471544084EA0414E4B2E30083EA04237A
:100AB00083EA122383EA14140323EB703480F3785F
:100AC0007EE7DFF878A00DE7022100234FF6FF72E2
:100AD000B470E970F370328072E701232B7099468D
:100AE00003E7DFF858A04FF000096F469AF803209B
:100AF000FA704FF0000EB9F1020F85F802E02A7982
:100B000015D132440121507A127A85F800E042EA88
:100B10000022FE2C3A80A97001D0E970BEE64FF6A3
:100B2000FF7285F8039086F803E03280B6E6B9F1EB
:100B3000000F3FF4B3AEFEE6D492FF1F6091FF1F9B
:100B40008C8100008887FF1FA690FF1FB0820000E5
:100B5000F094FF1FF8B5154CE66805464FF07E513E
:100B6000304606F04FFC18B1284606F055FA064606
:100B7000284606F055FA0E4906F0A6FA0D49074632
:100B8000304606F0A1FA0146384606F095F90A49C2
:100B90006269E369E060A1FB051502EB951501337D
:100BA0006561E36106F07CFCF8BD00BF5487FF1F60
:100BB000CDCCCC3D6666663FD34D621070B5184C07
:100BC00094F8203084B006463BB3164B1A68019265
:100BD000019A0021013A84F82010196803910398C2
:100BE0001B680293029B2361801A06F015FA0E49D6
:100BF00006F01EFB0546642000FB06F006F00CFA2A
:100C00000146284606F060FA034601466068236004
:100C100006F052F9606004B070BD2269014BDCE758
:100C20005487FF1F1096FF1F00BA5B4AF8B5124C9D
:100C3000A66805464FF07E51304606F0E3FB18B13A
:100C4000284606F0E9F90646284606F0E9F90B4978
:100C500006F03AFA0A490746304606F035FA0146E8
:100C6000384606F029F9A0602846FFF7A7FFA068DC
:100C700006F016FCF8BD00BF5487FF1FCDCCCC3D5D
:100C80006666663FF8B5144CE668054600213046B6
:100C900006F0AEFB18B1284606F0BEF90646284617
:100CA00006F0BEF90D4906F00FFA0D490746304629
:100CB00006F00AFA0146384606F0FEF8094962696C
:100CC000E369E060A1FB051502EB95150133656151
:100CD000E36106F0E5FBF8BD3087FF1FCDCCCC3DCE
:100CE0006666663FD34D621070B5184C94F820309C
:100CF00084B006463BB3164B1A680192019A002154
:100D0000013A84F820101968039103981B68029334
:100D1000029B2361801A06F07FF90E4906F088FADB
:100D20000546642000FB06F006F076F901462846E9
:100D300006F0CAF9034601466068236006F0BCF875
:100D4000606004B070BD2269014BDCE73087FF1F93
:100D50001096FF1F00BA5B4AF8B5114CA66805460D
:100D60000021304606F044FB18B1284606F054F93D
:100D70000646284606F054F90A4906F0A5F90A493C
:100D80000746304606F0A0F90146384606F094F8CA
:100D9000A0602846FFF7A8FFA06806F081FBF8BD19
:100DA0003087FF1FCDCCCC3D6666663F2DE9F04312
:100DB000B64DB74EC7B002F023F9002800F0998075
:100DC00002F02EF9EB780022C4B22A700A2B00F24E
:100DD0001B84DFE813F00A010A01F600E400D200E8
:100DE000C000AB0091006D000B000B000A2BA94B5B
:100DF00004D01A88B4EB122F00F0AD834FF0020834
:100E000085F800802A79DFF88C92134402AF4FF006
:100E1000010E494638465C724FF4887285F803E04B
:100E200001F02AFDB8F1010F40F0F0832B8999F809
:100E300004206A7103B96B81013300222B81AA70EF
:100E4000FB79212B00F0468300F2DC80182B00F0A8
:100E5000198300F2FF80012B00F0F282C0F0A48120
:100E6000162BA8D18C4B1B78002BA4D006AB0FCB34
:100E70008A4CDFF860E2DFF860C284E80F00FB898B
:100E800087488849BA68BC89CCF800201027B3F598
:100E9000B27F8EF8007004800B8000F06E83B3F593
:100EA000B67F88D18049814B0A6001221A7082E79F
:100EB000784B7F49DA7918888A5C424082EA0212CC
:100EC000D2B2D10081EA022181EA102181EA121214
:100ED000D1B28C421A8014BF0A220922EA702A7900
:100EE00013441C720023AB7002F08AF800287FF4D0
:100EF00067AF47B0BDE8F083664B2A799918013295
:100F00000C721888DF78444084EA0414E4B2E100EB
:100F100081EA0421D2B281EA102181EA14149742B5
:100F20002A711C80DED10823EB70DBE7594B19884E
:100F3000DC714C4084EA0414E4B2E20082EA042248
:100F400082EA1122D87882EA14141C800028EAD0A0
:100F50000723EB70C6E74F4B19889C714C4084EA1D
:100F60000414E4B2E20082EA042282EA112282EA54
:100F7000141406221C80EA70B4E7464B19881C71D1
:100F80004C4084EA0414E4B2E20082EA042282EAD9
:100F9000112282EA141403221C80EA70A2E73D4B5E
:100FA00019885C714C4084EA0414E4B2E20082EADD
:100FB000042282EA112282EA141405221C80EA70BB
:100FC00090E7344B1988DC704C4084EA0414E4B296
:100FD000E20082EA042282EA112282EA1414002149
:100FE00004221C802971EA707CE7FE2C7FF47AAF22
:100FF000284B00204FF6FF7102229C70D870198098
:10100000EA706FE7932B00F0578167D84A2B00F006
:1010100065817D2B00F01081412B7FF4CCAE1E4BFF
:101020001B78002B3FF4C7AE2248234A234C2449A7
:10103000244B4FF0010E80F800E097F8300010705C
:10104000B7F810E0788D97F83120A4F800E0088018
:101050001A70B0E61D2B00F07D811E2B00F0FD8084
:101060001B2B7FF4A8AE0C4B1B78002B3FF4A3AED8
:10107000154C1649164BB7F910E0B7F91200B7F93D
:101080001420C4F800E008601A6094E6D492FF1FB0
:101090001F85EB516091FF1F5494FF1F8894FF1F21
:1010A000EE90FF1FE094FF1F8492FF1FC694FF1F66
:1010B000B0820000BC92FF1F8094FF1F3C91FF1F75
:1010C000D490FF1F3291FF1F0093FF1FB094FF1FAA
:1010D000B494FF1FA690FF1FF490FF1FB52B00F0E4
:1010E0001781FD2B1FD0A62B7FF465AE9F4B1B787D
:1010F000002B3FF460AE9E483C7B9E4904709E4BA3
:10110000787B08709D4AB87B18709D4CF87B9D4990
:101110009D4B107097F810E038897A8984F800E0C8
:1011200008801A8047E6994BDFF874E23A7A1A7021
:10113000F4460DF111040DF1410820686168A268C0
:10114000E36867460FC710344445BC46F5D1238891
:101150003B809EF80030DFF848E223F0200372461F
:10116000012104E0537823F0200301310132481EAD
:10117000002BF7D1537823F0200303F0FF04002B5A
:10118000F3D1834F834A844B38700EF80140012716
:101190008249834817701C7006F0B6FC002840F0A6
:1011A000DF81804B1F7006E67F4B80481B680193F0
:1011B0007F49019C04607F4A7F4C387B0870BB7B71
:1011C0007E49787B107023707D48BC687D4A0C6036
:1011D000DB09FC7B397C0470117040F0CB81634FDC
:1011E0003C78002C7FF4E7ADDFF84C827648B8F805
:1011F00000300A210133A8F8003002F0AFFEB8F841
:101200000010724802F0FEFF2146714802F0A6FE6F
:101210006E4802F0A7FFB8F80030022B7FF6CBAD86
:1012200001230C216B483B7002F098FE674802F0E6
:1012300099FFA8F80040BEE54C4B1B78002B3FF40B
:10124000BAAD654C6549664BB7F808E07889BA894C
:10125000A4F800E008801A80ADE5444B1B78002B11
:101260003FF4A9AD5F4A604BBC69604914603A6ABB
:10127000FC691A600C60F8685D495E4CDFF8BC815F
:1012800005F022FF5C49D7F810907F6905F0D0FF88
:1012900057492060484605F017FF5749574C05F05D
:1012A000C7FF5349C8F80000384605F00DFF524902
:1012B00005F0BEFF20607EE52C4B1B78002B3FF431
:1012C0007AAD4F4C4F49504BB7F826E0B86897F8C5
:1012D0002B20A4F800E008601A706CE5234B1B7803
:1012E000002B3FF468AD4949B868494B0860494A4A
:1012F000F8681860484C388B4849494B1080B7F85B
:101300001AE038697A69A4F800E008601A6052E5CA
:10131000164B1B78002B3FF44EAD3889414CFFF73C
:10132000B1FC20807889FFF717FD23883E4945F2FC
:1013300008229342088000F2238144F2A0129342D3
:1013400040F22681394B1A78062A00F0988005224F
:101350001A7030E5054B1B78002B3FF42CAD344957
:10136000344BF868BA8A08601A8024E55494FF1F49
:101370003291FF1F4894FF1FC494FF1FFC92FF1F70
:10138000BA94FF1F5C91FF1FA094FF1F4A94FF1F98
:10139000A690FF1F4C91FF1F3E91FF1F208200006F
:1013A0000091FF1F4994FF1F1096FF1FCC92FF1F53
:1013B000E092FF1FF895FF1F6894FF1F5491FF1FD5
:1013C0005C94FF1FDE90FF1F048200008887FF1FD0
:1013D00050810000108200009894FF1F0493FF1FAB
:1013E0006494FF1F4891FF1FFC95FF1FDC94FF1FB3
:1013F000000034430896FF1FDB0F49404491FF1F54
:101400008892FF1FC492FF1F9C92FF1FF492FF1F40
:10141000B892FF1F8C92FF1FD690FF1FA494FF1F4E
:10142000D090FF1F6C94FF1F2893FF1F5E91FF1F3A
:10143000E090FF1F0096FF1FEC92FF1FE894FF1F34
:10144000814B1B78002B3FF4B6ACF88A7F4CFFF73A
:1014500081FB2080388BFFF7E9FB23887C4945F22C
:1014600008229342088000F28F8044F2A012934237
:1014700040F29E80774B1A78062A7FF468AF0422E8
:101480001A7098E4704B1B78002B3FF494AC97F8DB
:1014900024307148714A97F825100370022B11709F
:1014A0007FF689AC6E483C696E4904606E4B786982
:1014B00008606E4AB86918606D4CB88B6D496E4B08
:1014C0001080B7F81EE0388C7A8CA4F800E0088011
:1014D0001A8070E45C4B1B78002B3FF46CAC5E4BC5
:1014E0001B78022B7FF667AC6449D7F81080644AFA
:1014F000644BC1F8008079691160B969624A19606A
:10150000B98B624B1180F98B614A1980614C624B37
:10151000398CF8687F8C11801F80206005F080FD79
:101520005E495F4C05F084FE2060404605F078FD82
:101530005A4905F07DFE4C4B6060186805F070FD5F
:10154000584905F075FEA6FB0737A060780905F03D
:1015500067FDE0602FE44FF0010885F8008051E45A
:101560005149524806F0D0FA00287FF424AC504B81
:10157000187020E4FEF7FCFF31E64E4B1A601AE4C7
:101580004D4B06221A7016E4324B06221A7012E4F2
:1015900043F23812934228D842F2D00293422ED816
:1015A00041F268029342444B0FD800221A7002E4C1
:1015B00043F2381293420FD842F2D002934219D824
:1015C00041F268029342234BEFD91A78032AECD0F8
:1015D00002221A70FFF7EFBB1E4B1A78052A7FF420
:1015E0004EAF03221A70FFF7E6BB334B1A78052A79
:1015F000F7D044E7174B1A78042AE9D0F1E72E4BCD
:101600001A78042AE4D0ECE74FF000080022B8F181
:10161000020FAA7010D10123FE2C2A70AB7002D0E9
:10162000EB70FFF7C8BB254B85F803804FF6FF71C1
:10163000DA701980FFF7BFBBB8F1000F3FF4BBAB06
:1016400002AFFFF7FDBB00BF5494FF1F6A94FF1F5A
:101650002693FF1FD494FF1F7887FF1F2C93FF1F33
:10166000C894FF1F6094FF1FF092FF1FA294FF1FFA
:10167000B894FF1F5A91FF1FA490FF1FAC92FF1F49
:101680004494FF1FA092FF1FD694FF1FD894FF1F02
:10169000DA94FF1F1493FF1F3491FF1F8096184B9D
:1016A0007094FF1F00007A44308200000091FF1FF9
:1016B0004994FF1F8092FF1F5E91FF1F6091FF1FE3
:1016C0007E2808B50CD07D2803D0BDE8084001F085
:1016D00025BB01F023FB5D20BDE8084001F01EBBE7
:1016E0007D2001F01BFB5E20BDE8084001F016BB29
:1016F00038B50D4B1B78012B04460D4602D0012056
:10170000FEF7B4FE204655B1FFF7DAFF074B188805
:10171000204400EB102000F0FF00188038BDBDE829
:10172000384001F0FBBA00BF0C96FF1F9892FF1FD4
:1017300010B51B4B1B7882B0012B0091ADF8060051
:1017400002D00120FEF792FE01211020FFF7D0FF0A
:101750009DF80600134C0121FFF7CAFF9DF8070012
:101760000121FFF7C5FF9DF800000121FFF7C0FF31
:101770009DF801000121FFF7BBFF9DF80200012148
:10178000FFF7B6FF01219DF80300FFF7B1FF2078B6
:10179000C043C0B2FFF794FF0023238002B010BD06
:1017A0000C96FF1F9892FF1F38B5154B186805F06F
:1017B00037FC144905F03CFD134B00211860054629
:1017C00005F020FE114BA8B9044618700D492846B3
:1017D00005F07AFC05F03EFE0028B8BF40420C4AF6
:1017E00040EA0403194613604FF40060BDE8384036
:1017F000FFF79EBF01221A704FF08044E6E700BF5A
:101800001493FF1F8096184BB890FF1FC892FF1FBC
:10181000D890FF1F38B5164B186805F001FC154924
:1018200005F006FD144B00211860054605F0EAFDA1
:10183000124BB8B902221A704FF000440D492846E5
:1018400005F042FC05F006FE0028B8BF40420C4AF5
:1018500040EA0403194613604FF40060BDE83840C5
:10186000FFF766BF03221A704FF04044E6E700BF5F
:10187000AC92FF1F8096184BD094FF1FC892FF1F99
:10188000D890FF1FF8B51A4B1A4C1A781A4D1B49FD
:1018900023781B482A70023209780170934219DCC0
:1018A0001848194D10F803E02A6803444FF4A0408B
:1018B000D9785F789E7841EA0E610A4342EA07428E
:1018C00042EA062319462B60FFF732FF23780433E0
:1018D0002370F8BD0C4A136843EA817319464FF42C
:1018E000A0401360FFF724FF084B00221A70F8BDD8
:1018F000A690FF1F3E91FF1FD594FF1F4A94FF1F24
:101900006794FF1F0091FF1FD890FF1F4C91FF1F8E
:10191000F0B4194A194B1678194A1B781568194AF8
:1019200019481370F6015B0103F0600206F08003B2
:10193000164C174900780978164E1343164A177843
:1019400022684002134300F400708A02691CC9B285
:10195000034302F44062134301F01F0213430F4A92
:101960003170FF1143EA072317702360194645F2CF
:101970000100F0BCFFF7DCBE4094FF1F4994FF1F3D
:101980005491FF1FF795FF1F6694FF1FD890FF1F0C
:101990004091FF1F2B93FF1F6894FF1F0C93FF1FA5
:1019A000F8B51F4B1F4918681F4D05F08DFB1F49E7
:1019B00005F082FA05F074FD1D4A1E4B194984B2E8
:1019C0001C80106805F080FB1B4905F075FA05F0D6
:1019D00067FD1A49002380B228801A460B80012532
:1019E00005FA03F101330B2B42EA0102F8D1144F3F
:1019F00039682240C0020A430024012606FA03F592
:101A00000133152B44EA0504F8D104401443214660
:101A10003C6045F20600BDE8F840FFF789BE00BF14
:101A20000896FF1F0000A040CC94FF1F00006144F7
:101A3000E894FF1FDC90FF1F0000E1432E93FF1F7F
:101A4000D890FF1F38B5344B1A78042A09D80132D0
:101A5000D2B2042A1A700AD0052A45D0012A26D00B
:101A600038BD2E49002201201A70087038BD2C4B59
:101A70002C491A70086805F013FD2B4B00221860E2
:101A80000124134604FA03F10133182B42EA010240
:101A9000F8D1264C2368024043F080631A43226049
:101AA000114645F20700BDE83840FFF741BE204827
:101AB00020491B4B05780D6000211A700B4602FA75
:101AC00003F00133182B41EA0001F8D1174C2268CA
:101AD000294042F080730B431946236045F207000A
:101AE000BDE83840FFF724BE0D4B13491A70086853
:101AF00005F0D6FC114B002218600124134604FAAD
:101B000003F10133182B42EA0102F8D1074C236894
:101B1000024043F0A063C1E7B090FF1F4194FF1F54
:101B20008A92FF1F8092FF1F1893FF1FD890FF1FFC
:101B3000E092FF1F0496FF1F8492FF1F2093FF1F58
:101B4000144B1B7810B503B3134B187805F068FAE3
:101B5000124905F06DFB05F0A3FC114B1860002243
:101B60001346012404FA03F10133202B42EA010257
:101B7000F8D10C4C236802401A43226011464FF200
:101B80000110BDE81040FFF7D3BD054BFF201860E2
:101B9000E5E700BFBC92FF1F3291FF1F5C8F224020
:101BA0007892FF1FD890FF1F10B50229044680EAE3
:101BB000E070A0EBE47011D0032901D0002010BD2B
:101BC000012A26D0022AF9D1B0F57A7F52DA8000B4
:101BD00080B2002CF3DA40F4805010BD012A31D0DD
:101BE000022AEBD163285EDDB0F57A7F72DA05F068
:101BF00013FA574905F068FA02F030FD05F050FC81
:101C0000C0B2800040F00100002CD8DA40F400702F
:101C100010BDB0F57A7F49DBB0F5205F6CDA05F0D6
:101C2000FBF94B4905F050FA02F018FD05F038FCBD
:101C300080B2400040F0010080B2002CBFDA40F4D6
:101C4000006010BD63282BDD40F2F54398423FDC75
:101C500005F0E2F93E4905F037FA02F0FFFC05F025
:101C60001FFCC0B2400040F00100002CA7DA40F495
:101C7000807010BD42F20F7398421ADD354B9842C6
:101C80003DD805F0C9F9344905F01EFA02F0E6FC2A
:101C900005F006FC80B2800040F0020080B298E7B8
:101CA000400080B2E1E7800080B2ADE7400080B242
:101CB000C3E705F0B1F9264905F006FA02F0CEFCBB
:101CC00005F0EEFB80B2800040F0010080B280E7BA
:101CD000FF20CAE742F20F73984222D805F09CF920
:101CE0001D4905F0F1F902F0B9FC05F0D9FBC0B2CD
:101CF000800040F0020087E740F2FF709DE7B0F5FA
:101D00007A2F1FD205F088F9144905F0DDF902F0A9
:101D1000A5FC05F0C5FB80B2800040F0030080B256
:101D200057E70F4B984210D805F076F90B4905F0AC
:101D3000CBF902F093FC05F0B3FBC0B2800040F099
:101D4000030061E740F6FF7043E740F2FF105BE7F6
:101D5000CDCCCC3D9F8601000AD7233C6F12833A3D
:101D600017F00100F8B5294A294B1178294E1B7844
:101D7000294A34682948137003290A4603F00F03DF
:101D800028BF0322032943EA040302703AD9033926
:101D9000CFB2BC0304F440442149224DDFF898E05F
:101DA00009682D882048120102F03002134380FB9D
:101DB00001C0AEFB0525DFF884C00222C917C1EBC4
:101DC000601011461C438CF80070FFF7EDFEC5F360
:101DD000C705164B07460122284602211F60FFF760
:101DE000E3FE134B134DBF053B40C2B2234343EA0E
:101DF00082132A701946336045F20200BDE8F840AC
:101E0000FFF796BC00242746C6E700BF7887FF1F70
:101E10002C93FF1FD890FF1F9A92FF1FBD92FF1FA8
:101E2000F092FF1FA294FF1F1F85EB515091FF1FDF
:101E30000000C07F2A93FF1FCDCCCCCC9B92FF1F0C
:101E4000F8B51E4B1E491A881E4B1F4C18881F4D93
:101E50001F4B204F26683E80A1FB022149091980B3
:101E60002B68C1F308041C4305F0DAF81A4905F0A1
:101E70002BF902F0F3FB05F0EDFA01220221FFF746
:101E800093FE164B420202F4FF3242EA040118802C
:101E9000760400221123012404FA03F00133202BDD
:101EA00042EA0002F8D132400A432A60114645F264
:101EB0000300BDE8F840FFF73BBC00BF6A94FF1F7A
:101EC0001F85EB512693FF1FC492FF1FD890FF1F61
:101ED000CC90FF1FCE90FF1FCDCCCC3DF890FF1FC4
:101EE0002DE9F04FDFF84CB3C149DBF80400DFF80F
:101EF0004883C04DDFF84493BF4C8DB005F098F98E
:101F0000BE4905F0E1F80346C8F80030B849DBF8EF
:101F10000000009305F08CF9B84905F0D5F8B84BEE
:101F2000B34906462E60586805F082F9B34905F0BA
:101F3000CBF8B34BAE498246C9F800A0186805F04B
:101F400077F9AE4905F0C0F8009B074619462760AF
:101F5000504604F0AFFF04F02DFCCDE9020102F081
:101F600039FBCDE90401384604F024FC02460B4657
:101F7000CDE9082302F0E4FACDE90001304604F08F
:101F800019FC06460F4602F0DBFADDE90823CDE92D
:101F900006011046194602F01DFB02460B4630466C
:101FA0003946CDE90A2302F015FBCDE90801DDE948
:101FB000020102F0C5FADDE90A23CDE90201DDE9FB
:101FC000060104F04BFCDDE9082306460F46DDE977
:101FD000000104F043FCDDE9022304F03FFC02466B
:101FE0000B463046394604F085FADDE90023064603
:101FF0000F46DDE9040104F031FC32463B4602F0B5
:10200000A9FB04F003FF7A4905F05EF87B4905F06F
:102010000FF90021064605F0F5F9002840F0188177
:10202000DFF81CA2CAF8006024682D682046294603
:1020300004F040FF734BD8F8001007461F60D9F832
:10204000000004F037FF704B064618604FF07C51DB
:10205000384605F039F804F0ADFB02F0BBFACDE9E3
:10206000000130464FF07C5105F02EF804F0A2FB41
:1020700002F0B0FA80462846894604F09BFB02F045
:102080005FFA064620460F4604F094FB02F058FA29
:10209000424604460D464B464046494604F0DEFBA8
:1020A00032463B4604F0DAFB22462B4604F0D6FBD0
:1020B000DDE9002304460D461046194604F0CEFB28
:1020C0000B4602462946204604F016FA04F09EFE0E
:1020D0004E4A4F4C106004F06DFB02F03DFB02F0E5
:1020E000E1FA02460B4604F007FA04F08FFE494B72
:1020F0004949186004F0E8FF484B49491B782060C3
:102100000860002B00F0A08005F0A4F9454C83B2D4
:102110001846238004F080FF02F0A0FA05F09AF937
:102120000646DAF800503249284605F089F90028B9
:1021300056D0284605F08EF93B4BA0F1B4071F603E
:102140002F4BDBF80810986804F0B4FE05F082F914
:102150000321054602223046FFF726FD002320809A
:1021600006461C46012101FA04F201340C2C43EA14
:102170000203F8D128461E4004F052FF02F06EFA26
:1021800005F068F903210222FFF70EFDDFF8B480A5
:10219000264BD8F800A018604FEA0039002501212D
:1021A00001FA04F30134182C45EA0305F8D1384646
:1021B00004F032FF1E4904F087FF05F071F94AEA86
:1021C000C06040EA060309EA05051D43294645F2B9
:1021D0000400C8F800500DB0BDE8F04FFFF7A8BAF2
:1021E000284605F037F9104B00F1B4071F60A7E748
:1021F00000003443B490FF1FAC94FF1FDB0F494035
:102200007094FF1F3891FF1F7C92FF1FB092FF1F39
:102210009492FF1F9092FF1F706DC24A9D92FF1F04
:10222000A090FF1FE490FF1FA492FF1FFC90FF1FD0
:10223000213C5A3BBC90FF1FE492FF1FE892FF1F16
:10224000A890FF1FD890FF1F064C1E46238068E70A
:1022500030460549DFF814A004F02EFECAF800004D
:10226000E2E600BFE490FF1F0000B443A890FF1F08
:102270002DE9F84F334B34491868344FDFF8D8B0A4
:10228000DFF8D8A0DFF8D88004F01EFF304B2E49CD
:102290000446186804F018FF2E4B0646188804F010
:1022A000BBFE294904F0C4FF00218146204605F009
:1022B000A9F83D68002841D1204602F0CFF905F089
:1022C000C9F801220221FFF76FFC044604F0A4FEC6
:1022D000CBF80000304602F0C1F905F0BBF801224E
:1022E0000221FFF761FC064604F096FE760204F038
:1022F0007F0406F47E422C43CAF800004FF07C5164
:10230000484642EA040604F0DFFEC8F8000005F083
:10231000C7F8012500224004112305FA03F4013314
:102320001C2B42EA0402F8D1024032433A601146C3
:1023300045F20500BDE8F84FFFF7FAB945F480759E
:10234000BAE700BFD090FF1F00002041D890FF1FC8
:10235000B892FF1F3491FF1FC094FF1FBC94FF1F52
:102360005894FF1F274B28481B88A0FB03302DE9FA
:10237000F041400904F054FE244A254B254DDFF876
:10238000A48004461C60B2F9000004F049FE224B10
:102390000646586805F084F8204B87B21F80204617
:1023A00005F07EF82B681E49C0F3080430461C4334
:1023B00004F08AFE02F052F905F04CF801220221E5
:1023C000FFF7F2FB064604F027FE720202F4FF322A
:1023D00042EA04017F04C8F800000022112301240E
:1023E00004FA03F00133202B42EA0002F8D13A400C
:1023F0000A432A60114645F20800BDE8F041FFF7A4
:1024000097B900BF6C94FF1F1F85EB512893FF1FE6
:102410001C93FF1FD890FF1F3087FF1F5E94FF1F84
:10242000CDCCCC3DEC94FF1F2DE9F041954C2378A9
:102430007E2B98B003D0207018B0BDE8F0811B2827
:10244000F9D1914D914A2B6802931668029B9049ED
:102450009B1BB3F5FA7F4FF000060E6000F2E4809C
:102460008C4B1A78002A2AD12B688B4904930E686A
:10247000049B9B1B41F28836B34205D92B68059318
:10248000864B059E0E601A70854B1B783BB1854BC1
:102490001B7823B1814B1B78002B00F02A81824EE0
:1024A00033685A1E082A49D8DFE812F0AB009700BB
:1024B0005500640073008100120021002F0001907C
:1024C000FFF7E0F901982070B6E733680133336015
:1024D0002B68764F1293129B3A68DFF8AC819B1AF7
:1024E000B3F5FA7F00F2C3803368013333602B68A1
:1024F0006F4F1493149B3A68DFF88C819B1AC82B9A
:1025000000F29F803368013333606A4B1B68002BF5
:1025100000F094802B68684D1693169B2A685A4FDA
:102520009B1AB3F57A7F40F289800190FFF71AFF7A
:102530003B681793179B2B60019833685F4A5A4991
:10254000127801339342336084BF01230B6072E73A
:102550003368013333602B68594F0A930A9B3A68FA
:10256000DFF824819B1AB3F5A77F80F0C78033681A
:10257000013333602B68534F0C930C9B3A68DFF8A0
:1025800008819B1AB3F5A77F80F0A88033680133D8
:1025900033602B684C4F0E930E9B3A68DFF8E8804F
:1025A0009B1AB3F57A7F57D83368013333602B68B1
:1025B000464F1093109B3A689B1AB3F5FA7F84D963
:1025C000434B1B78022B00F2A4802B681193119BC4
:1025D0003B603368B2E7022333602B683D4F0893BA
:1025E000089B3A689B1AB3F5A77FB1D3384B1B7889
:1025F000022B00F293802B680993099B3B603368A0
:102600009CE72A68344F0692069A3968521AB2F546
:10261000A77FE0D32E4A1278022A00F284802A682B
:102620000792079A3A6089E72B680393039B01900E
:102630001360FFF785FA01982070FDE633680133D7
:102640007CE70190FFF7ACF9D8F800301593159BA3
:102650003B603368019871E70190FFF7F1FBD8F810
:1026600000300F930F9B3B603368019866E7019041
:10267000FFF7FEFDD8F800301393139B3B603368DF
:1026800001985BE7CE94FF1F1096FF1F4C94FF1F2D
:10269000D890FF1F4C91FF1F1093FF1F4194FF1F05
:1026A0005494FF1FC694FF1F7C87FF1FE494FF1FF5
:1026B000C092FF1F2093FF1F0893FF1F7987FF1F02
:1026C0005094FF1FAC90FF1FF892FF1FB492FF1FA2
:1026D000BD92FF1FE890FF1FD092FF1F0190FFF7F0
:1026E00041FBD8F800300D930D9B3B603368019897
:1026F00024E7FFF7A7F91B2323709DE60190FFF75E
:1027000007F9D8F800300B930B9B3B6033680198B6
:1027100014E70190FFF7E4FB019856E70190FFF7FB
:1027200079F8019867E70190FFF73EF83368019860
:1027300075E700BF38B5104B1B78012B02D0012084
:10274000FDF794FE0D4C0E4D00217E20FEF7D0FFCC
:1027500023780021E85CFEF7CBFF7E20FFF764FEC4
:102760002378E85CFFF760FE23780133DBB2012BAE
:1027700088BF0023237038BD0C96FF1F7492FF1F83
:102780002487FF1F30B5304C237885B04BB32F4BD7
:102790002F4A1B6801931168019B40F6B8325B1AFF
:1027A00093420CD900252A212A48257001F0D6FB36
:1027B000294801F0D7FC294A237815808BB1284D90
:1027C0002B783BB3274B1B785BB1274B1A7842B968
:1027D0000122202125481A7001F0C0FB1E4801F09B
:1027E000C1FCFEF7E3FAFEF753F8237873B1174DF7
:1027F0001F4C2B680293029B22689B1A0A2B05D957
:10280000FFF798FF2B680393039B2360FDF786FF78
:1028100005B030BD4FF4B270FDF7E2FE4FF4B27078
:10282000FDF7DEFE4FF4B670FDF7DAFE4FF4B6703A
:10283000FDF7D6FE1C210F4801F090FB064801F081
:1028400091FC01232B70CCE75494FF1F1096FF1FBF
:10285000CC92FF1F848200008887FF1FEC92FF1F2D
:102860003F91FF1FC694FF1FEC90FF1F6082000086
:102870007092FF1F40820000844641EA000313F07B
:1028800003036DD1403A41D351F8043B40F8043B77
:1028900051F8043B40F8043B51F8043B40F8043B3A
:1028A00051F8043B40F8043B51F8043B40F8043B2A
:1028B00051F8043B40F8043B51F8043B40F8043B1A
:1028C00051F8043B40F8043B51F8043B40F8043B0A
:1028D00051F8043B40F8043B51F8043B40F8043BFA
:1028E00051F8043B40F8043B51F8043B40F8043BEA
:1028F00051F8043B40F8043B51F8043B40F8043BDA
:1029000051F8043B40F8043B403ABDD2303211D379
:1029100051F8043B40F8043B51F8043B40F8043BB9
:1029200051F8043B40F8043B51F8043B40F8043BA9
:10293000103AEDD20C3205D351F8043B40F8043B79
:10294000043AF9D2043208D0D2071CBF11F8013B77
:1029500000F8013B01D30B8803806046704700BF3D
:10296000082A13D38B078DD010F003038AD0C3F14C
:102970000403D21ADB071CBF11F8013B00F8013B2E
:1029800080D331F8023B20F8023B7BE7043AD9D3ED
:10299000013A11F8013B00F8013BF9D20B780370C2
:1029A0004B7843708B7883706046704710B40F4B40
:1029B00053F8302092F880422CB1012369B182F89B
:1029C000803010BC704703EBC0035B681A6841B9E4
:1029D00022F002021A6010BC704782F8003110BC6D
:1029E000704742F003021A6010BC7047B0830000C9
:1029F00030B4054B054D064C002210211A602A60A8
:102A00002060196030BC704714D0034004D00340EC
:102A100000D00340212801D8FFF7C8BF704700BF8E
:102A20002DE9F843054672B6204F214B214A1B6819
:102A30003C68126862B6520102D5322B88BF01345D
:102A400095B3C3F5BB331C4EDFF86490DFF86480A8
:102A5000FF334FF47A72A6FB031302FB04F404EB7A
:102A6000931472B6D9F800103A68D8F800E062B64C
:102A7000C1F5BB33FF33A6FB03031EF0806FC4EB2D
:102A800093134FF47A7002D0322988BF013200FBD1
:102A90000233B3F57A7F04D3013D05D004F57A748F
:102AA000DFE701F0D5FBDCE7BDE8F8831096FF1FF8
:102AB00018E000E004ED00E0ABAAAAAAF8B52D4B9F
:102AC0002D49DFF8D0E0DFF8D0C02C4E2C4D2D4C36
:102AD0002D4A2E4F4FF4000018604FF080701860A0
:102AE0004FF0007018604FF0806018604FF0006089
:102AF00018600020086028234BF6FF71CCF8001006
:102B0000CEF80030336013602B6023603B60B3620B
:102B10009362092245F8242CC4F8D80F05F57F6587
:102B2000C7F8D41F07F5FF2707F5FA67C6F8F83F7F
:102B30002B6006F5FF26C4F8D42F05F5FD2504F516
:102B4000FF24386006F2F4761148316005F5FF6520
:102B500004F5FD642B602360026001F0A7FB3220C6
:102B6000FFF75EFF01F0F2F84FF4AF70BDE8F840F8
:102B7000FFF756BF08E100E00480034014800340E3
:102B8000248003402C8003401C8003403480034099
:102B900000800B400C800340088003402DE9F84F73
:102BA000214B1B6807460BB101221A70DFF8889091
:102BB0001E4D99F80040DFF884801D4E01343F2CF3
:102BC0008ABF4FF0000A5FFA84FA5446AB462B786E
:102BD000A34216D101F028FC40281FDC33791B06E4
:102BE000F5D59BF8003001333F2B86BF00221346FA
:102BF000DAB218F80330DBB2F3712A702B78A342F3
:102C0000E8D00C490A4BFFB208F804700120BC223E
:102C1000087089F800A0DA70BDE8F88FFF28D6DDCB
:102C200001F016FBD3E700BFA496FF1FA196FF1F7C
:102C300000A00640A096FF1FA896FF1F1C96FF1F2E
:102C4000274A28491368F0B543F4806313600A7873
:102C5000254F264E264D274C274900233B703370C5
:102C60002B7023700B70002A35D0152A26D0234BE9
:102C70001B78012B2AD0052B03D1214B4FF4517225
:102C80001A60204B204C2149C0F34436C0F347154D
:102C90001E7000F01F005D7004224FF0020E8827A6
:102CA0003C26402598729A704FF4005083F813E048
:102CB0005A751F74DE7025700860F0BD144B40F229
:102CC00013321A600D4B1B78012BD4D1114B4FF4EA
:102CD00051721A60D5E7104B40F213321A60C6E702
:102CE000348004405C96FF1F1896FF1F1996FF1F43
:102CF000A896FF1FA196FF1FA096FF1F8087FF1FAA
:102D00001CC0044000A006402DE400E004E100E007
:102D100018C0044044A0044040A00440034B1B687A
:102D20005B0501D5FFF73ABF704700BF3480044010
:102D3000054A064B10781B78C0B2DBB2984238BF08
:102D40004030C01A704700BF1896FF1F1996FF1F2A
:102D5000F0B4384B1A7912F0300F2CD072B6997D3E
:102D600001F0FF0200293DD062B6334F3349387875
:102D70000D78334E1C46C0B2EDB2431C402BE179B6
:102D800028BF0023AB4202F1FF32C9B21CBFF1548D
:102D9000184612F0FF02F0D12A4B1B68C2B23A70FB
:102DA0004BB1A84236BFC5F14005401B401927284A
:102DB000C4BF01221A701F49CA78D2B2150616D4B0
:102DC00052060DD51B4B1B795B0609D51E4B1F49BF
:102DD0001B6800220A7003B11A70164B3C22DA708D
:102DE000F0BC70474022D9795A7462B6E3E70B7998
:102DF0001C06E5D5164B174E1C783378E4B2DBB2CF
:102E00009C420ED0144D01E0A3420AD00133402B66
:102E100028BF00230879E85CC0B2C871087D072884
:102E2000F2D9DBB2034933700B79180644BF7C2317
:102E3000CB70C5E700A006401896FF1F1996FF1F2C
:102E40006096FF1F1496FF1FA496FF1FA096FF1FFA
:102E5000A896FF1FA196FF1F1C96FF1F274A28490F
:102E60001368F0B543F4006313600A78254F264ECB
:102E7000264D274C27490023092A3B7033702B70BD
:102E800023700B7035D01A2A26D0234B1B780A2BBF
:102E90002AD01F2B03D1214B4FF451721A60204BC3
:102EA000204C2149C0F34436C0F347151E7000F092
:102EB0001F005D7004224FF0020E88273C2640253B
:102EC00098729A704FF4004083F813E05A751F749B
:102ED000DE7025700860F0BD144B40F213321A60AA
:102EE0000D4B1B780A2BD4D1114B4FF451721A6041
:102EF000D5E7104B40F213321A60C6E73480044025
:102F00008187FF1F1C97FF1FB196FF1F2497FF1F8C
:102F10001D97FF1FB096FF1F8287FF1F00D0044040
:102F200000B006402FE400E004E100E004D00440DB
:102F300010B004400CB004402DE9F84F294B1B6839
:102F40001A0548D5284B1B6805460BB101221A709B
:102F500005EB010A554540D2DFF89C80234CDFF891
:102F60009C90234F0AE015F8012B09F80B20214A09
:102F70000123AA45137088F800602ED098F800301D
:102F8000227803F1010BBBF1270F86BF0026B34661
:102F90005FFA8BF69345E6D1BC22FA7005E03A79E8
:102FA00013060BD422789345DDD101F03DFA402879
:102FB000F5DDFF28F6DD01F04BF9F3E72278013269
:102FC000272A86BF00210A46D1B219F80220D2B2C0
:102FD000FA712170E6E7BDE8F88F054BBC22DA7084
:102FE000BDE8F88F348004402097FF1F1D97FF1F16
:102FF00000B00640B096FF1F2497FF1FB496FF1F36
:10300000054A064B10781B78C0B2DBB2984238BF35
:103010004030C01A704700BF1C97FF1FB196FF1FBA
:1030200030B4154B154C1A782378D2B2DBB29A42E1
:103030001ED001333F2B0ED91149124B0878196865
:103040000023C0B2237021B1D31A1A2B01DC002354
:103050000B7030BC70470A480A49C05C0968DDB291
:10306000C0B225700029F4D09A4238BF4032EBE755
:103070004FF0FF30EDE700BF1C97FF1FB196FF1F19
:10308000DC96FF1FAC96FF1FF0B4384B1A7912F094
:10309000300F2CD072B6997D01F0FF0200293DD08F
:1030A00062B6334F334938780D78334E1C46C0B280
:1030B000EDB2431C402BE17928BF0023AB4202F163
:1030C000FF32C9B21CBFF154184612F0FF02F0D112
:1030D0002A4B1B68C2B23A704BB1A84236BFC5F149
:1030E0004005401B40192728C4BF01221A701F4900
:1030F000CA78D2B2150616D452060DD51B4B1B79D1
:103100005B0609D51E4B1F491B6800220A7003B1DC
:103110001A70164B3C22DA70F0BC70474022D97905
:103120005A7462B6E3E70B791C06E5D5164B174EC9
:103130001C783378E4B2DBB29C420ED0144D01E02F
:10314000A3420AD00133282B28BF00230879E85C6A
:10315000C0B2C871087D0728F2D9DBB203493370C9
:103160000B79180644BF7C23CB70C5E700B006403E
:103170001C97FF1FB196FF1FDC96FF1FAC96FF1F29
:103180002097FF1FB096FF1F2497FF1F1D97FF1F5B
:10319000B496FF1F184A19491368F0B543F48053D9
:1031A000174C184D184FDFF878E01360174E184A87
:1031B000002323708EF80030164C2B700B703B7080
:1031C00040F213373760144D1449C0F344364FF4BE
:1031D000517727601670C0F347142C2700F01F00AA
:1031E0004026547090724FF4003493701374D7706B
:1031F0002E700C60F0BD00BF348004409997FF1F13
:103200002C97FF1FA097FF1F9897FF1F08C004402F
:1032100000C006400CC0044031E400E004E100E0DE
:103220002D97FF1F054A064B10781B78C0B2DBB202
:10323000984238BF4030C01A704700BF2C97FF1F1C
:103240002D97FF1F30B4154B154C1A782378D2B246
:10325000DBB29A421ED001333F2B0ED91149124BDB
:10326000087819680023C0B2237021B1D31A1A2B31
:1032700001DC00230B7030BC70470A480A49C05C6F
:103280000968DDB2C0B225700029F4D09A4238BF77
:103290004032EBE74FF0FF30EDE700BF2C97FF1F08
:1032A0002D97FF1F5897FF1F2897FF1F30B42B4BF8
:1032B0001A7994061FD52A48DA7903782949013307
:1032C0003F2B0978C8BF00238B42D2B203D0264CD3
:1032D000D9B2E2540170254A116861B1244A1278CA
:1032E000D2B2934236BFC2F140029B1A9B18272BE1
:1032F000C4BF01230B70194AD378DBB2180611D46E
:103300005A060DD5154B1B795B0609D5194B1A4981
:103310001B6800220A7003B11A70104B2C22DA705D
:1033200030BC704711790906EAD5144910480C7869
:103330000178C9B28C420DD04A1C272A84BF0021D3
:103340000A460F4D054C98BFD1B2AA5CD2B2E271C9
:103350000170D5E76C21D170D2E700BF00C00640F4
:103360002C97FF1F2D97FF1F5897FF1F2897FF1FB0
:103370009997FF1F9C97FF1F9897FF1FA097FF1F0C
:103380003097FF1F431E032B14D872B60A4951F819
:10339000230068B170B4094C058834F813204668DE
:1033A00041F82360521B24F8132062B670BC7047AA
:1033B00062B6704700207047FC97FF1FD498FF1F2C
:1033C000013803280BD872B6074B53F8203043B1AD
:1033D00000205B680130002BFBD162B670470020F3
:1033E00070471846F9E700BF5098FF1FF0B472B657
:1033F0001A491B4E012311F8014B194F9A0024075B
:1034000042F0010505D556F8324064B156F8352032
:10341000BAB10133052BEED162B6124B00221A70FD
:10342000F0BC00F00FBD0F4C0F4D217847F8325023
:1034300007EB431308304A1E5860227062B6F0BC96
:1034400070470849094B0A7847F8353007EBC50340
:103450000830013A58600A7062B6F0E7EC84000068
:103460000080FF1F7998FF1F88004000C8004000BF
:10347000431E032B1DD81B4A400140F0100030B4FE
:10348000104472B6184CE25C032A1BD8DFE802F045
:103490000212151703220D88E25410F0080F14BF12
:1034A000C823882343EA054308310360416062B6BC
:1034B00030BC704708300222EDE70522EBE7083008
:1034C0000422E8E7094A52F8230038B1084A52F8C2
:1034D0002300416042F8231062B6E9E742F8231066
:1034E000034AF7E70080FF1F8898FF1F5098FF1FCF
:1034F0006098FF1F2DE9F04FDFF804A3DFF804B355
:1035000087B044E0A94F4FEA930807EBC809013E92
:10351000D9F8042003F00803F6B2A2F1080003F082
:10352000FF04002B40F0FE8057F838301B0C99B296
:1035300022F8081C002B00F0EC809D4B22F8064C72
:1035400042F8044C53F82620002A00F02B82994DB3
:1035500055F826305860984C45F8260034F8163057
:10356000194424F8161000F04DFC002800F01382D6
:10357000924A934B19F0080F00F1080018BF134648
:10358000C9F8040047F8383008238AF800309AF860
:103590000040E4B260071AD58A4B1B78A3B18A4970
:1035A0000A7802F0FF0322B1013BDBB20B7003B9D2
:1035B00000BE86490A7802F0FF032AB1013BDBB264
:1035C0000B70002B00F0BD8104238AF8003004F05A
:1035D000080303F0FF02002B00F0C8809BF80030C6
:1035E000DBB21E098ED19C08704F57F8342007EBD0
:1035F000C401C2F38302013A49680C2A00F28580B3
:10360000DFE802F079798383838383834283838332
:10361000070008686E4B6F4D0193684B4A686E4E09
:1036200047F8343081B240F28164694B6A602860A7
:1036300000220120A1421A603A61BA61307000F2A2
:10364000E380B1F5D06F80F02782B1F5817F00F083
:10365000E08100F2C381802900F03682822940F0A7
:10366000DE81A9885D4B01F07F01042900F2D88139
:103670005B4C89000B44227062701A78930740F10A
:1036800022832070022023E2514B01931A683AB33F
:10369000544B514E5449188834780D78402886464A
:1036A00045F0020828BF4FF0400E002C84F00104C2
:1036B0003470CEEB00000CBF8824C82407EBC8068A
:1036C00080B285F0010544EA0E447260188047F824
:1036D000384072440D70002800F0B780019B1A60DA
:1036E0003C4B1A88B2F5A06F0FD100219A7859701F
:1036F0003E4B1A7009E0374A108842F2210290428C
:1037000000F0A8802D4A47F83420394A012313706D
:103710003AE72A4A2A4B19F0080F18BF134647F810
:10372000383031E700F08EFB324A334952F8263008
:10373000002B00F03B8158688C5D42F8260003F1B5
:103740000802C9F80420032C05D8DFE804F02C0295
:10375000292602228A551A8819F0080F0CBF8823DF
:10376000C82343EA024347F838300DE7E00700F189
:10377000EB80210600F12881A20706D51F4A2049C7
:1037800013780220DBB213700870E30602D51C4BDD
:1037900010221A7007B0BDE8F08F04228A55DAE7CC
:1037A00005228A55D7E703228A55D4E70080FF1FF8
:1037B000FC97FF1FA897FF1FD498FF1FC800400069
:1037C000880040008498FF1F0D98FF1F8C98FF1FF2
:1037D000A497FF1F7098FF1F0C98FF1FC020074081
:1037E0007C98FF1FB897FF1F7898FF1F982007400D
:1037F000942007405098FF1F8898FF1F882007409B
:10380000802007409020074042F22104A14200F0AE
:10381000948043D8B1F5086F00F0A881B1F5106F1E
:1038200040F0FD80B84AB94CA978117004F18005C8
:1038300003E00834AC4200F09E81236A1906F8D5F3
:10384000606A083800F0FEFAF3E7BEF1400F18BFD7
:10385000002243E7AE4ACD1D11F8013B02F8013FBB
:10386000A942F9D1AB4A1268862A00F01181AA490F
:10387000AA4E0A78307882F00105002842F0020250
:103880000D700CBF8821C82147F8321007EBC20227
:1038900080F0010000213070516033E742F22124B2
:1038A000A14240F0FE81DFF8BCC29D4B9D49AC783F
:1038B000DCF800501D6081460C70002002908046AC
:1038C0008446044694490D7845F0020E07EBCE037A
:1038D000B9F1000F5C600CBF8824C82444EA0803D7
:1038E00085F0010447F83E3032700C70DFF81CE2BE
:1038F0008A4BDFF82482002840F09880BCF1400F0A
:103900001BD144F0020407EBC403029FDFF8FCE183
:103910005F60002A40F09F80020442F08802074462
:103920004EF8342086F800900D703B46402804D1B4
:1039300000207D4A019910800B607C4A012313709E
:10394000E3E600F0EBFB3FE6704B784872491A6102
:103950004FF0020E80F800E0754F0A70754919604B
:103960009960754E754D764C9A610D213970FF2125
:103970003170DFF8F4E129702270724D724A8EF8CE
:1039800000109F27012406F8047C5D600470DA6053
:1039900007B0BDE8F08F6D4A47F83800137801335F
:1039A0001370F1E543F82600694DD4E58B5D032BD8
:1039B00067D801A252F823F089350000893500004C
:1039C0000D3A0000073A000059495C4B80220D2057
:1039D00008701A70A2077FF5D8AECFE640F2023227
:1039E000914240F05681A98801F07F01042916D840
:1039F0006A88A2B94E4C89000C448146217841F076
:103A00000201217059E701238B55BDE500238B5539
:103A1000BAE5A98801F07F01042940F24781444BAF
:103A20000F221A70414A012313706EE640287FF678
:103A300068AF44F002040EEBC401029E4E60AAB1CE
:103A4000444A83F800903346403888F800504033A9
:103A50004EF834206DE70204029B86F8009042F095
:103A6000C8020D7003444EF834205FE783F80090DD
:103A7000029B304A88F80050403840334EF83420DA
:103A800057E719F0080F0CBF022303238B557BE582
:103A9000314A0F211170EAE6304A5468002CBED03A
:103AA0006888B5F804E003E00C325468002CB6D006
:103AB00013888342F8D153887345F5D1000A03284F
:103AC0000CBF2078108903E0254C02202270627020
:103AD000EA88824280F00C810F490D78402A45F037
:103AE000020E944607EBCE0028BF4FF0400C04EBCB
:103AF0000C0344600293CCEB02004FEA0C484FF0F9
:103B000001090022C824E9E68498FF1F0080FF1FF6
:103B1000DB98FF1FDC98FF1F7898FF1F0C98FF1F92
:103B2000E498FF1F9C98FF1FB897FF1F9420074041
:103B3000C0200740880040008820074080200740C0
:103B400098200740BC97FF1F1098FF1F7998FF1F10
:103B5000A897FF1FC80040000D98FF1FF0840000C9
:103B60007C98FF1F1096FF1F8C200740684A694C05
:103B700012782270ACE76849684B694A029169493A
:103B8000694C6A4D039405964FF0000988461C461F
:103B900016460495206828B1456800F053F9284678
:103BA000002DF9D100232360049B30681A460023BE
:103BB00042F8293028B1456800F044F92846002D24
:103BC000F9D100223260029A98F8003011460022A2
:103BD00041F8042B039A0291023B4FF0000122F8B6
:103BE0001910032B07D8DFE803F0340234024FF03A
:103BF000010388F8003009F10109B9F1040F04F15B
:103C0000040406F1040608F10108C3D1484B059EDF
:103C1000DFF83091DFF8308100211970012518F8A4
:103C2000013B09F8043B1A0718D4AC0044F0020227
:103C300044F00304002347F8323047F834303D4B5A
:103C4000994505F10105EAD196F8009089F0010245
:103C500033E64FF0000388F80030CCE700F0D2F8EC
:103C6000AC0007EB451300F10802002837D05A607A
:103C7000314B47F8343000F0C5F844F0010307EB4E
:103C8000C30200F1080100B351602C4A47F8332009
:103C9000CCE7B1F5A06F7FF4C2AE00224FF001096E
:103CA0000BE642F221329142F7D0B8E66A88002A48
:103CB0007FF4B5AE224C89000C448146217821F076
:103CC00002012170F9E5022002E7194B44F00102DC
:103CD0001B7847F83200164A01331370A6E7144BDD
:103CE000134A1B78AC00013347F834001370C2E765
:103CF0004028844628BF4FF0400C04EB0C03CCEB6B
:103D000000004FEA0C48029300224FF00109D9E568
:103D10008498FF1F7C98FF1F6098FF1FFC97FF1F70
:103D20005098FF1F8898FF1FD498FF1FA897FF1F68
:103D30007998FF1FD420074088004000C800400049
:103D4000C0200740C4200740EC8400002DE9F84360
:103D5000204C00F0ADFB002204F1880023461A60DD
:103D60005A60083383424FF00001F8D11A4A1B4FC2
:103D700013681B4D1B481C4EDFF87880DFF878C0B5
:103D8000DFF87890DFF878E043F480231360C4F321
:103D900007233B70C4F307432B70240EFF2302F567
:103DA00028320470114D88F8003011488CF800302A
:103DB000D4323370012389F8003070268EF8001059
:103DC0004FF40074102107F8183C2E700460117035
:103DD000BDE8F8830080FF1F348004409C2007402A
:103DE000B0200740B42007401020074049E400E01D
:103DF00008E100E080200740882007409420074029
:103E00000021074072B60D480268B2FA82F30B2B0C
:103E100010DC4FF00041D94022EA0102026062B694
:103E2000074803EBC303DB00C2180021C150104652
:103E30005160704762B60020704700BF8487FF1F43
:103E4000BC83FF1F0D4B0E4AC31AA2FB03231B09A1
:103E50000B2B0CD80B4A127852B972B60A484FF0A5
:103E60000041026821FA03F31A43026062B6704708
:103E7000064A1278002AF0D0FFF7B8BABC83FF1FB9
:103E8000398EE3387998FF1F8487FF1F8498FF1FBE
:103E900038B50F4D286878B143880288C1180133BE
:103EA00093420C7A02D24380204638BDFFF7CAFF06
:103EB000002320462B6038BD064B1B782BB1032016
:103EC000FFF760FA28600028E6D14FF0FF3038BDD8
:103ED0009898FF1F8498FF1F10B5094C206818B1EF
:103EE00043881844007A10BD064B1B782BB1032081
:103EF000FFF748FA20600028F2D14FF0FF3010BDE4
:103F00009898FF1F8498FF1F044B054A1B689088F0
:103F10001BB11A885B88D31A184470479898FF1F02
:103F2000D498FF1F0B4B1B789BB110B50A4C20682F
:103F300048B1FFF787FF002303202360FFF722FA31
:103F400030B1FFF77FFF0320FFF71CFA0028F8D1FC
:103F500010BD70478498FF1F9898FF1F2DE9F04F00
:103F6000DFF8F89083B0012289F80020019169B34D
:103F7000DFF8EC80364F019E8346D8F80000B0B3DE
:103F8000344D4488C4F14001B14228BF314604EBAE
:103F9000010E00221FFA8EFE2A70761AA0F802E0A7
:103FA00000F1080251B1013C224459441BF8014B75
:103FB00002F8014F8B45F9D1B0F802E0BEF13F0F96
:103FC0000BD8254A05211170002ED6D10198002367
:103FD00089F8003003B0BDE8F08F4022028001462E
:103FE0000420FFF745FA0022C8F80020E9E73A78F4
:103FF0002AB3184D4AF2F9244FF0010A07E0013CB8
:1040000016D02A78A2B900F023F93A78BAB1042080
:10401000FFF7D6F90728F2D889F800A0FFF7F2FEDB
:10402000C8F800000028ACD10C4B013C1870E8D156
:1040300001234FF0FF302B7003B0BDE8F08F002359
:104040004FF0FF3089F8003003B0BDE8F08F00BFBB
:104050008498FF1F9498FF1F8C98FF1F8D98FF1F57
:104060009098FF1F00B583B002AB012103F8010D4A
:104070001846FFF773FF03B05DF804FB38B50E4D2B
:104080000E4C28680123237028B140880023237038
:10409000C0F1400038BD0A4B1B7813B900202070D6
:1040A00038BD0420FFF78CF90728F7D8FFF7AAFEE0
:1040B00028600028E9D1F1E79098FF1F8D98FF1F35
:1040C0008498FF1FF8B5114B1B788BB1104E114D22
:1040D000346801272F7064B10F4A63880027177076
:1040E000214623800420FFF7C3F9376000232B709B
:1040F000F8BDFFF787FE084B28B1014604201C706D
:10410000FFF7B6F9F2E71F70F0E700BF8498FF1FD2
:104110009098FF1F8D98FF1F8C98FF1F38B50E4B8E
:104120001B7873B90D4C216861B103F0FF054B8812
:104130000B800420FFF79CF9256038BD084B012255
:104140001A7038BDFFF75EFE0028F7D00146BDE8C3
:1041500038400420FFF78CB98D98FF1F9098FF1FFF
:104160008C98FF1F00B5064A036812885B6883B00D
:1041700001A9ADF804200222984703B05DF804FBC2
:10418000C0840000F0B507468BB0002A33D0012A66
:1041900008BF0A2251B3212400E0F4B2B1FBF2F5CA
:1041A00002FB1511C8B2092900F1300198BFC8B24D
:1041B0000AA988BF3730214488BFC0B201F8240C57
:1041C000661E2946002DE8D133B1013CE4B20AABAA
:1041D00023442D2203F8242C3B6801AA11195B68A3
:1041E0003846C4F1220298470BB0F0BD30228DF85A
:1041F00025202124E8E70368C9B21B6898470BB063
:10420000F0BD00BF0029BABF49422D2300230A2276
:10421000FFF7B8BF08B5FCF737F9FEF7B3FA00F0BF
:1042200017F8FAE7FFF77EBEFFF756BEFFF730BE7E
:10423000FFF76ABEFFF746BFFFF720BF08461146EB
:10424000FFF78CBE0846FFF70DBF00BF704700BFE9
:1042500010B5154C237803B110BD01232370FFF76F
:1042600053FE58B9FEF764FD70B9FEF7C9FE88B970
:10427000FEF7D8FFA0B90023237010BDFFF7E6FFBB
:10428000FEF756FD0028F0D000F054F9FEF7B8FE16
:104290000028EDD000F050F9FEF7C4FF0028EAD066
:1042A00000F04CF9E7E700BF9D98FF1F30B42948A4
:1042B000294A2A4B2A4D6024E121047011701B7891
:1042C000284C082B30D00A2B2748284937D00C2BF4
:1042D0000CBF35223D2212232A60236002600B604E
:1042E000234B24491B78244ABBB101230B60136084
:1042F000224B23491B78234A012B26D9042B0FD9A3
:10430000082B1ED9102B94BF862387230B601360C4
:104310001D4B01221A7030BC70470B601360E7E739
:1043200084230B601360F3E700F58E200F490830FB
:10433000012213232A60236002600B60D0E7392238
:10434000F7E785230B601360E2E780230B601360BF
:10435000DEE700BF00400740014007409887FF1F8D
:1043600008B003400CB0034008B00B400CB00B4049
:104370009F98FF1F20B0034020B00B409987FF1F7C
:1043800024B0034024B00B409E98FF1F024A1368DC
:1043900001331360704700BF1096FF1F08B5104C23
:1043A00008E0236859050DD423681A050FD4236843
:1043B000DB0411D423685803F3D5FFF79BF8236877
:1043C0005905F1D5FEF7C4FC23681A05EFD5FEF7B1
:1043D0005BFE2368DB04EDD5FEF768FFEAE700BF6C
:1043E0003480044008B5FFF7D9FF00BF014B10220D
:1043F0001A80704700200540704700BF094908B582
:104400000B6830B16A461844A2F58052904202D23D
:104410000860184608BD03F063F80C2303604FF0F2
:10442000FF3008BD9C87FF1FEFF3138070B9EFF3D7
:1044300010836BB9EFF305825AB94FF48070EFF334
:1044400011832BB1984228BF184670474FF0FF30B8
:1044500070470F2A01D81846F1E7014BD05CEEE710
:10446000F0E300E0F0B44D1E2E46002400E00134DD
:10447000B0FBF2F302FB1300092800F130078ABFFA
:104480003730F8B2C0B206F8010F1846002BEED153
:104490000A1953704CB1107815F8016F2870013368
:1044A000E01A834202F80169F5DB0846F0BC704768
:1044B00070B584B072B6194B194D1A487022412656
:1044C0000F2480211A702E701A4604701970137808
:1044D0001B06FCD5144B186862B6144B144C98425A
:1044E00098BF00EB800001A998BF40000A22FFF7A7
:1044F000B9FF01A92046002311F8012B01333AB17D
:104500000A2B20F8022FF7D11623237004B070BDB8
:104510005B00DBB2237004B070BD00BF000002403E
:104520000700024006000240080002407F96980003
:104530002C88FF1F704700BF704700BF704700BF47
:1045400030B5224A21F00043934287B01BDD204A58
:10455000934205DD02460B4601F0CCFF07B030BDAB
:1045600002AA00F051FC00F00303012B1AD0022B29
:104570000FD01BB30124DDE90423DDE9020100941F
:1045800001F042FCEAE70022002300F021FF07B01F
:1045900030BDDDE90423DDE9020100F019FF01F17E
:1045A0000041DBE7DDE904450093DDE90201224635
:1045B0002B4601F029FC01F10041CFE7DDE904239E
:1045C000DDE9020100F004FFC8E700BFFB21E93F7D
:1045D000FFFFEF7F30B51F4A21F00043934287B0C1
:1045E0001BDD1D4A934205DD02460B4601F082FFAA
:1045F00007B030BD02AA00F007FC00F0030001285C
:10460000DDE904231AD002280FD0E0B1DDE9020170
:1046100000F0DEFE01F10041EAE7002300930022F2
:10462000002301F0F1FB07B030BD0124DDE90201F8
:10463000009401F0E9FB01F10041D9E7DDE9020155
:1046400000F0C6FED4E70124DDE90201009401F088
:10465000DBFBCDE7FB21E93FFFFFEF7F08B5C0F3B0
:10466000C7537F3B162B01460EDC002B024610DBA6
:104670000B481841014205D04FF480011941114403
:1046800021EA0001084608BD802BFBD102F014FC92
:1046900008BD013300F00041F4D141F07E51F1E753
:1046A000FFFF7F002DE9F043DFF8A4808BB00446C4
:1046B0000D4600F0ADF898F90030013306460F467C
:1046C0002ED022462B462046294602F061FB814629
:1046D00030BB2046294601F0EDFD0022194B02F0C7
:1046E0004DFBE8B1184B1948CDF8209001228DE818
:1046F0000C00CDE90445CDE9024501F06BFE98F9C7
:104700000030022BCDE906010FD0684601F060FEB3
:1047100058B1089B83B9DDE906010BB0BDE8F08311
:10472000304639460BB0BDE8F08302F0D9FE2123B4
:104730000360089B002BEED002F0D2FE089B0360C2
:10474000E9E700BF0000F03F448500005081000011
:104750004288FF1F00F08CBA2DE9F04F8BB0044661
:104760000D4600F073FD284B93F900A0BAF1FF3F0E
:1047700006460F4612D022462B462046294602F016
:1047800007FB834650B94FF000084FF0000942463E
:104790004B462046294602F0D3FA20B93046394626
:1047A0000BB0BDE8F08F194BCDF820B00122CDE958
:1047B0000445CDE902458DE80C00BAF1000F15D093
:1047C00042464B464046494602F072F9BAF1020FA2
:1047D000CDE906010CD102F083FE21230360089B82
:1047E00063B9DDE906010BB0BDE8F08FCDE90689BC
:1047F000684601F0EDFD0028F1D1ECE702F070FE13
:10480000089B0360EDE700BF4288FF1F4C85000056
:104810002DE9F047C04B21F00048984584B00D4683
:10482000044614DD08F1404808F58018034658EAAC
:10483000030323D002460B4601F05CFE02460B4602
:1048400002F036F90446204604B0BDE8F087B34BC9
:1048500098458A462BDCB8F1795F80F2678192A394
:10486000D3E9002301F048FE0022AD4B02F086FAA6
:10487000E8B12946204604B0BDE8F0878CA3D3E90F
:10488000002301F0EBFF8CA3D3E9002306460F467B
:104890002046294601F0E2FF02460B4630463946E3
:1048A00001F02AFE0446204604B0BDE8F087204609
:1048B000294601F0FFFC02460B460020984901F012
:1048C00019FE0022974B01F0C9FF7DA3D3E9002315
:1048D00004460D4601F0C2FF7BA3D3E9002301F09B
:1048E0000BFE22462B4601F0B9FF79A3D3E9002342
:1048F00001F000FE22462B4601F0B0FF76A3D3E97B
:10490000002301F0F9FD22462B4601F0A7FF74A316
:10491000D3E9002301F0EEFD22462B4601F09EFF75
:1049200071A3D3E9002301F0E7FD22462B4601F0F5
:1049300095FF6FA3D3E90023CDE900012046294666
:1049400001F08CFF6CA3D3E9002301F0D3FD2246D4
:104950002B4601F083FF6AA3D3E9002301F0CCFDCD
:1049600022462B4601F07AFF67A3D3E9002301F02A
:10497000C1FD22462B4601F071FF694B002201F078
:10498000BBFDCDE902012046294600F05FFC664BE5
:10499000984506460F4666DCDDE90223DDE90001A5
:1049A00002F086F83246CDE900013B4630463946F2
:1049B00001F0A2FD02460B46DDE9000101F04EFFC9
:1049C0004FF00008CDE9000142463B4640463946DB
:1049D00001F044FF02460B462046294601F08AFDBD
:1049E000424604460D463B463046394601F084FDBA
:1049F00002460B462046294602F05AF802460B466C
:104A000001F07AFD02460B462BA1D1E9000101F02D
:104A100071FD02460B46DDE9000101F06BFD4246E7
:104A200004460D463B464046394601F065FD0246C8
:104A30000B4637A1D1E9000101F05CFD02460B46AF
:104A40002046294601F056FD02460B4630A1D1E929
:104A5000000101F04FFD0446BAF1000F3FF7F3AE3D
:104A600001F10041EFE6DDE90223DDE9000102F09A
:104A70001FF832463B4601F0F1FE32463B4601F05C
:104A80003BFD02460B4601F037FD0BA3D3E90023A3
:104A900001F030FD02460B4605A1D1E9000101F00D
:104AA00029FD0446D8E700BF9C7500883CE4377EAA
:104AB000182D4454FB21F93F075C143326A6913C82
:104AC00009F7FD0DE13D023F88B20175E0EF493F76
:104AD0003B8F68B52882A43F5544880E55C1C93F15
:104AE0007D6FEB0312D6D43F555555555555C53FEF
:104AF00082922EB1C5B8B33F59018D1B6C06E63FBB
:104B0000C88A599CE52A00404B2D8A1C273A03404D
:104B1000182D4454FB21E93FFFFFEF3FFFFFDF3F2C
:104B20000000F03F0000E03F3233EF3F02460B460B
:104B300001F094FE38A3D3E9002306460F4601F0A6
:104B40008DFE37A3D3E9002301F0D6FC32463B4665
:104B500001F084FE34A3D3E9002301F0CBFC3246FC
:104B60003B4601F07BFE32A3D3E9002301F0C4FCF5
:104B700032463B4601F072FE2FA3D3E9002301F039
:104B8000B9FC32463B4601F069FE2DA3D3E9002370
:104B900001F0B2FC32463B4601F060FE2AA3D3E9A5
:104BA0000023804689463046394601F057FE28A347
:104BB000D3E9002301F09EFC32463B4601F04EFE55
:104BC00025A3D3E9002301F097FC32463B4601F0D0
:104BD00045FE23A3D3E9002301F08CFC32463B467B
:104BE00001F03CFE0022204B01F086FC02460B4601
:104BF0004046494601F05CFF22462B4601F02EFE5E
:104C000022462B4601F078FC0446204604B0BDE85D
:104C1000F08700BFAFF3008009F7FD0DE13D023FD3
:104C200088B20175E0EF493F3B8F68B52882A43F09
:104C30005544880E55C1C93F7D6FEB0312D6D43F52
:104C4000555555555555C53F82922EB1C5B8B33F00
:104C500059018D1B6C06E63FC88A599CE52A004025
:104C60004B2D8A1C273A03400000F03FFFFFFFFF57
:104C70002DE9F84F5442144323F00049DFF880E156
:104C800049EAD474744506460D463ED8444204436E
:104C900021F0004B4BEAD47474458A4635D803F1B1
:104CA000404404F58014144344D09C1704F00204DB
:104CB00044EAD17450EA0B012FD052EA090133D0F3
:104CC000F14546D0F3452FD0C9EB0B094FEA2959DE
:104CD000B9F13C0F34DC002B57DB3046294601F09C
:104CE000E7FE01F0E7FA01F047F9012C4AD0022C67
:104CF0003BD084B132A3D3E9002301F0FBFB32A304
:104D0000D3E9002301F0F6FB05E0104619463246D0
:104D10002B4601F0F1FBBDE8F88F022C14D0032CD8
:104D20000CD12D482D49F6E7BAF1000F2A480EDBC9
:104D30002B49F0E7BDE8F84F01F01EB92946EAE734
:104D400023A1D1E90001D0E723482649E3E726491A
:104D5000E1E7CB451FD0022CF6D0032CE1D0012C8B
:104D60004FF0000020D00146D5E715A3D3E900237A
:104D700001F0C0FB02460B4613A1D1E9000101F08E
:104D8000B9FBC8E701F10041C5E719F13C0FA4DA0E
:104D900000200021A9E7022C0ED0032C09D0012C01
:104DA0000D4804D01149B6E74FF00041B3E7104970
:104DB000B1E710481049AEE70E481049ABE700BF15
:104DC000075C143326A6A13C182D4454FB2109404E
:104DD000182D4454FB21F93F182D4454FB2109C0E0
:104DE000FB21F93FFB210940FB21F9BFFB21E93FF2
:104DF000FB21E9BFD221337F7CD902C07CD902409C
:104E00000000F07FFFFFFFFF2DE9F04F944E21F0EF
:104E10000047B74291B040F382809246914A974250
:104E20000C4626DC002984A3D3E9002340F3A881A3
:104E300001F060FB8C4B9F4204460D4600F08480DD
:104E40007FA3D3E9002301F055FB02460B46CAE9D4
:104E500000232046294601F04DFB79A3D3E9002326
:104E600001F048FB0125CAE90201284611B0BDE85E
:104E7000F08F7E4A974240F384807D4A974259DC06
:104E80003D15A5F21645A7EB055319461F460646E4
:104E900001F094FF01F07CFC8046894602460B46F7
:104EA00030463946CDE90A8901F024FB0022714BD6
:104EB00001F0D4FC8946804601F080FF01F068FCD7
:104EC00002460B4606460F4640464946CDE90C676A
:104ED00001F010FB0022674B01F0C0FC0022002310
:104EE000CDE90E0101F022FF002800F075810023BA
:104EF00030463946002201F019FF002814BF012373
:104F000002235D4A0192022100912A4651460AA8D5
:104F100000F082FB002CC0F25181054606E0C2E998
:104F2000000100250024C2E902450025284611B0F1
:104F3000BDE8F08F02460B4601F0DCFA0025CAE915
:104F40000201CAE90001F1E73FA3D3E9002301F020
:104F5000D1FA3FA3D3E900230D46044601F0CAFA73
:104F600002460B46CAE900232946204601F0C2FA50
:104F700037A3D3E9002301F0BDFA0125CAE90201F4
:104F8000D4E701F097F934A3D3E90023804689469A
:104F900001F064FC0022394B01F0AEFA01F00EFF83
:104FA000054601F0F5FB24A3D3E90023CDE9040174
:104FB00001F054FC02460B464046494601F09AFA7D
:104FC0001FA3D3E9002380468946DDE9040101F0EF
:104FD00045FC1F2DCDE9020154DC294B6A1E53F814
:104FE00022309F424ED002460B464046494601F0D1
:104FF00081FA02460B46CAE9002383460E465A460A
:1050000033464046494601F075FADDE9022301F0D6
:1050100071FA002C02460B46CAE9022386DA5B4687
:1050200006F1004601F100418AE84800CAF80C1078
:10503000CAF808006D4279E700004054FB21F93FAF
:105040003163621A61B4D03D0000601A61B4D03D92
:105050007370032E8A19A33B83C8C96D305FE43F88
:10506000FB21E93F7BD90240FB21F93FFB2139417C
:10507000FFFFEF7F00007041D48500000000E03F9B
:1050800054850000DDE902234046494601F032FA2A
:105090003A15C1F30A53D31A102B83460E460992D0
:1050A000CAE90001ABDD5EA3D3E90023DDE9040119
:1050B00001F0D4FB06460F4602460B4640464946E1
:1050C00001F018FACDE9060102460B464046494672
:1050D00001F010FA32463B4601F00CFA52A3D3E934
:1050E000002306460F46DDE9040101F0B7FB324616
:1050F0003B4601F0FFF9DDE90689CDE902010246F0
:105100000B464046494601F0F5F90B46C1F30A57F4
:105110000E460999CF1B0246312F8346CAE9002368
:105120007ADD43A3D3E90023DDE9040101F096FB16
:1051300006460F4602460B4640464946CDE90689DB
:1051400001F0D8F902460B4680468946DDE90601A2
:1051500001F0D0F932463B4601F0CCF936A3D3E951
:10516000002306460F46DDE9040101F077FB3246D5
:105170003B4601F0BFF902460B46CDE9022334E776
:1051800001F0BAF9304B9F4204460D4626D02CA3BD
:10519000D3E9002301F0B0F902460B46CAE9002327
:1051A0002946204601F0A6F925A3D3E9002301F002
:1051B000A3F94FF0FF35CAE90201B7E6DAF8042097
:1051C000DAF80C3002F1004203F100434542CAF81C
:1051D0000420CAF80C30A9E6032392E610A3D3E911
:1051E000002301F089F910A3D3E900230D460446FA
:1051F00001F082F902460B46CAE9002329462046FF
:1052000001F078F908A3D3E9002301F075F94FF014
:10521000FF35CAE9020189E6DDE90689EFE600BF4C
:105220000000601A61B4D03D7370032E8A19A33B4D
:105230000000002E8A19A33BC14920259A837B399F
:105240003163621A61B4D03DFB21F93F2DE9F84387
:105250005D4EB6460E4076450C46054600F09580FC
:1052600000290B46024673DD0F157ED0A7F2FF37EB
:10527000C3F31303F80743F4801364D403EBD27130
:1052800000260B447F105200B64616204FF4001142
:105290000EEB01049C424FEAD2754FEA420203DC56
:1052A0001B1B04EB010E0E44013805EB43034FEAD0
:1052B0005101EDD1844620244FF0004109E020D077
:1052C00003EBD275013C4FEA51012B444FEA4202F5
:1052D00020D09E4501EB0C05F1DA002D05EB010C09
:1052E00009DBF0469542CEEB030300D9013B521B8C
:1052F0000844C646E4E7BCF1000FF2DB0EF10108FA
:10530000F0E7954217D8002D05EB010C47DB9846D6
:105310000023ECE7134310D14008731003F17F53CF
:1053200003F50013F20703EB075948BF40F00040B4
:105330004946BDE8F8837346C2E7411C33D000F00C
:1053400001031844E8E75B0003EBD273520095E7D2
:1053500021F000460643ECD069BB0F46D30A153F47
:105360005205002BFAD0DD0220D4002100E00146D6
:105370005B00DC0201F10100F9D5C0F1200422FA42
:1053800004F423437F1A824070E702460B4601F083
:1053900065FA2A46234601F0AFF8BDE8F883BCF170
:1053A000000FABDAB3E701362046B6E720244FF012
:1053B000FF310020E3E702460B4601F09BF802466E
:1053C0000B4601F075FBB4E70000F07FFFFFFFFF25
:1053D0002DE9F04F21F00046B6F1795F85B00C461B
:1053E00092469B4605466BDA01F0E8FC002800F087
:1053F000E8802A4623462846214601F02FFA74A366
:10540000D3E900238046894601F028FA72A3D3E944
:10541000002301F071F842464B4601F01FFA70A3D9
:10542000D3E9002301F066F842464B4601F016FA34
:105430006DA3D3E9002301F05FF842464B4601F02B
:105440000DFA6BA3D3E9002301F054F842464B4612
:1054500001F004FA68A3D3E9002301F04DF84246B5
:105460004B4601F0FBF9CDE900010022644B4046B8
:10547000494601F0F3F9DDE9002306460F464046B0
:10548000494601F0EBF95246804689465B4628467C
:10549000214601F0E3F902460B464046494601F039
:1054A00029F802460B463046394601F023F80246F9
:1054B0000B460020534901F01DF805B0BDE8F08F00
:1054C00002460B4601F0CAF941A3D3E90023804606
:1054D000894601F0C3F940A3D3E9002301F00CF899
:1054E00042464B4601F0BAF93DA3D3E9002301F04F
:1054F00001F842464B4601F0B1F93BA3D3E9002342
:1055000000F0FAFF42464B4601F0A8F938A3D3E970
:10551000002300F0EFFF42464B4601F09FF936A30F
:10552000D3E9002300F0E8FF4B46424601F096F92C
:10553000354B9E42CDE9000197DD344B9E424FF042
:10554000000238DCA6F5001300202E4916461F463F
:1055500000F0D0FFCDE902010022294B4046494628
:1055600001F07CF932463B4600F0C4FFDDE9002340
:1055700006460F464046494601F070F952468046BD
:1055800089465B462846214601F068F902460B46EB
:105590004046494600F0AEFF02460B4630463946CB
:1055A00000F0A8FF02460B46DDE9020100F0A2FF71
:1055B00005B0BDE8F08F164B164FCDE9022300264B
:1055C000CAE71049002005B0BDE8F08FAFF30080B6
:1055D000D43888BEE9FAA8BDC4B1B4BD9EEE213E60
:1055E000AD529C804F7E923E9015CB19A001FA3EA1
:1055F0007751C1166CC1563F4C5555555555A53F71
:105600000000E03F0000F03F3233D33F0000E93FAD
:105610000000E73F0000D23F2DE9F04FADF51D7DC2
:10562000784CA69E784D54F8264009942646D41E00
:1056300085FB0475E417C4EBA50424EAE4741D4655
:105640000B93631CA3EB8303013D02EBC30308939D
:105650002B460D940295651BF41804900A9116D4FC
:105660002C44013422AEA79F08E057F8250001F032
:105670008FF80135A542E6E9020108D0002DF4DAE1
:10568000013500200021A542E6E90201F6D1099B7F
:10569000002B2FDB099BDDF8089074AA02EBC30BEB
:1056A0000DF5E47A029B002BC0F295810B9BC3EBB6
:1056B000090824AB03EBC808049BA3F1080524AB3D
:1056C00003EBC90400260027F5E9022374E8020170
:1056D00001F0C4F802460B463046394600F00CFF94
:1056E000444506460F46EFD1EAE90267DA4509F17B
:1056F0000109D7D1099D05F18043023B9B001A1D8A
:1057000010A90A440B440F920E939CAB03EBC50304
:10571000002D53E928672BDD9CAB03EBC504A83CA7
:105720000DF13C0A0DF5E47B0022384B304639463A
:1057300001F094F801F042FB01F02AF80022344B0A
:105740008046894601F08AF802460B4630463946C3
:1057500000F0D0FE01F032FB74E802234AF8040F97
:105760004946404600F0C8FE5C4506460F46DBD180
:10577000089C30463946224600F032FE00224FF0A7
:105780007F5306460F4601F069F800F099FD0022AC
:10579000204B01F063F802460B463046394600F0D4
:1057A000A9FE0F46064601F009FB814600F0F0FF16
:1057B00002460B463046394600F09CFE002C064659
:1057C0000F4640F3EF80691E10AAC4F1180352F887
:1057D000212042FA03F000FA03F3D31A10AAC4F10D
:1057E000170842F82130814443FA08F8B8F1000F55
:1057F0003DDD002D09F1010940F3D4820022144659
:105800000FA911E0DC860000ABAAAA2A0000703EB6
:105810000000704100002040C3F180700BB10860AF
:105820000124013295420DDD51F8043F002CF3D0E4
:10583000C3F1FF13013203F57F4395420B604FF034
:105840000104F1DC089B002B0DDD012B00F0B28080
:10585000022B08D16A1E10AB10A953F82230C3F3F3
:10586000150341F82230B8F1020F00F082800022C7
:1058700000233046394601F059FA002800F05C82D6
:10588000099B05F1FF3B5B4510DC05F1804310AA45
:10589000013B0F9802EB8303002253F80419834263
:1058A00042EA0102F9D1002A40F0B280099B10AA15
:1058B000013B52F82330002B40F072820E9A0123F4
:1058C00052F8041901330029FAD0E9186A1C8A42F7
:1058D0000C9149DC0D990B985118DB0001F18041C6
:1058E0000593A79B05440139E80003EB810A24AB2B
:1058F000D20003EB000B74AB13440193A2F1080335
:10590000069007934FF000095AF8040F00F040FF8B
:10591000029B002BEBE8020128DB069B03EB09044A
:10592000079B09EB030824AB1C449844049B002606
:10593000A3F108050027F5E9022374E8020100F04D
:105940008DFF02460B463046394600F0D5FD4445F2
:1059500006460F46EFD1019BE3E802670193059BE2
:1059600009F108099945CFD10C9DCEE60026002704
:10597000F1E732463B460020AF4900F0BBFD06464A
:105980000F46002C3FF473AF089AAB49002000F09B
:1059900027FD02460B463046394600F0ABFD064671
:1059A0000F4664E710D16B1E10AA52F823304FEA5D
:1059B000E3581BE76A1E10AB10A953F82230C3F35B
:1059C000160341F822304EE700229C4B01F0CCF93F
:1059D00058B980464BE700260027EAE90267DA4516
:1059E00009F101097FF45EAE84E6002D09F1010999
:1059F000C8BF4FF002083FF701AF32463B460020D8
:105A00008D4900F077FD4FF0020806460F462EE75D
:105A100010AB089A53F82B30CDF81490183ACDF803
:105A2000048008926BB90BF18043013B10A901EB94
:105A3000830353F804190BF1FF3B183A0029F8D0FF
:105A40000892089A7C49002000F0CAFCBBF1000FC4
:105A500004460D46C0F2B6814FEACB030DF5E87857
:105A600010AA02EB8B0608EB03090493043609F134
:105A7000080756F8040D00F08BFE22462B4600F076
:105A8000EDFE002267E902016D4B2046294600F039
:105A9000E5FEB84504460D46EBD10DF5987A4B4628
:105AA000CDF808A0DDF824A0CDF818B04FF000091B
:105AB0009B46BAF1000FC0F22881DFF888815D466D
:105AC0005BA3D3E9002300260027002403E0A145BF
:105AD00010DBF8E90223F5E8020100F0BFFE024600
