:1000000000800020BD01000045650000FD64000087
:10001000FD640000FD640000FD640000FD6400005C
:10002000FD640000FD640000FD6400004565000003
:1000300045650000FD640000D5870000D9870000F9
:100040004565000045650000456500004565000008
:1000500045650000456500004565000045650000F8
:1000600045650000456500004565000045650000E8
:1000700045650000456500004565000045650000D8
:1000800045650000456500004565000045650000C8
:1000900045650000456500004565000045650000B8
:1000A00045650000456500004565000045650000A8
:1000B0004565000045650000456500004565000098
:1000C0004565000045650000456500004565000088
:1000D0004565000045650000456500004565000078
:1000E0004565000045650000456500004565000068
:1000F00045650000956E000045650000ED75000047
:100100004565000045650000456500004565000047
:100110004565000045650000456500004565000037
:100120004565000045650000456500004565000027
:100130004565000045650000456500004565000017
:100140004565000045650000456500004565000007
:1001500045650000456500004565000045650000F7
:1001600045650000AD78000045650000456500006C
:1001700045650000456500004565000045650000D7
:1001800045650000456500004565000045650000C7
:1001900045650000456500004565000045650000B7
:1001A00045650000456500004565000045650000A7
:1001B000456500004565000045650000564B4CF262
:1001C000205210B51A804DF628121A8000BF00BFC9
:1001D00006F0BCF9514B4FF010621A60504A9A6019
:1001E000504ADA60504A136813F4807304D14F49BF
:1001F0000B604FF4A85313604D4B1A78110703D5C9
:100200001A7842F008021A704A4B4B492A221A7097
:100210004A4A4B4B8B4204D252F8040F43F8040B6A
:10022000F8E7484B484900228B4202D243F8042B9E
:10023000FAE74649464A002352F8230041F82300D2
:1002400001336F2BF8D1434B434A802103F8011B44
:100250009342FBD1414B3D4A1A60414B8A221A70AE
:10026000A3F5805324225A70A0221A709A7992071B
:10027000FCD59A79D406FCD43A4A937903F00C035E
:10028000082B384BF9D103221A7140225A719A79FE
:100290009006FCD5334A9179324B4906FBD5324A58
:1002A000324911600221516020221A709A7902F0BD
:1002B0000C020C2AFAD12E4B2E4A1A602E4B2F4AD2
:1002C0001A6000225A60072243F8042C2C4AC3F813
:1002D0000C2D62B606F040FA144B1B68DA0705D500
:1002E000284806F0CDF9284B284A1A60284B1B787D
:1002F0005B0609D5244C254B22689A4204D121483B
:1003000006F0BEF9002323600CF0AAF806F024F9E9
:1003100008F028FEFEE700BF0E20054030800440B4
:10032000823F04000100002B10D0034014D0034092
:1003300002D0074000E007401092FF1FB02F0100DD
:100340002087FF1F1092FF1FA8C2FF1F0082FF1F00
:100350000000000000E400E05FE400E008ED00E0E1
:100360000050064000400640448004400000030165
:1003700004800440C010050014E000E0FF76010096
:1003800000002020655D3A5F1CE00340A5C3945A3D
:1003900000F00740FFFFFFFFFFFFFFFFFFFFFFFF32
:1003A000FFFFFFFFFFFFFFFFFFFFFFFFFFFFFFFF5D
:1003B000FFFFFFFFFFFFFFFFFFFFFFFFFFFFFFFF4D
:1003C000FFFFFFFFFFFFFFFFFFFFFFFFFFFFFFFF3D
:1003D000FFFFFFFFFFFFFFFFFFFFFFFFFFFFFFFF2D
:1003E000FFFFFFFFFFFFFFFFFFFFFFFFFFFFFFFF1D
:1003F000FFFFFFFFFFFFFFFFFFFFFFFFFFFFFFFF0D
:10040000FFFFFFFFFFFFFFFFFFFFFFFFDEF9FFFF23
:1004100010B5054C237833B9044B13B10448AFF33E
:1004200000800123237010BD1092FF1F0000000008
:10043000AC2F0100084B10B51BB108490848AFF3B9
:1004400000800848036803B910BD074B002BFBD0A0
:10045000BDE81040184700BF000000001492FF1FC5
:10046000AC2F01001092FF1F000000002DE9F041A9
:100470003D4DAA78EC78FE2A5CD0012C0BD92B19C3
:10048000DB7A13B107E0DB7A2BB9013CE4B2012C33
:1004900005EB0403F7D1AB68344E334F3270C3F32E
:1004A00017231A121814A97995F8048095F805E015
:1004B0003272F371EA792B7A70723171727107F1CD
:1004C0000C01224606F10A00747086F803E0B3714D
:1004D00086F8028005F078FF04F10A0118F0010F98
:1004E00006EB010210D1092128881070001250700B
:1004F00000231944033121441D4B1C4889B2BDE837
:10050000F041198006F06EBF3B887354D7F816E1AE
:10051000D7F81A61D7F81E5197F82201C2F802E005
:100520001B125370C2F806600D23C2F80A50907374
:100530000921DEE7AB680D4EA97995F807E02F7A1F
:100540003270C3F317232246B170B01D05F10C01C0
:100550007371747086F803E0377105F035FFA21DE2
:1005600032440521C0E700BF80BEFF1FBC93FF1FC0
:100570003492FF1F70B5044608460D460DF000F892
:1005800023680246294620465B68BDE8704018474C
:1005900038B5044608460D460CF0F2FF23680246C3
:1005A00029465B68204698470546204608F072FABF
:1005B000284438BD828803780A4402EB1222D2B262
:1005C000828003B9704700B583B00B460192009258
:1005D00003480A46034908F075FA03B05DF804FBC6
:1005E000B087FF1FA412010038B590F82D303BB141
:1005F000826A1378002183F02003137080F82D1095
:100600000E4D2C7834B100232B70002006F056F8E4
:10061000204638BD06F0CCFBC4B27D2CF5D106F0E7
:10062000C7FBC0B25E2807D0287006F0C1FBC0B27D
:100630005D28EAD02870E8E77E24E6E73292FF1FC3
:100640002DE9F043394B83B01B6801930021019FD2
:10065000A0F88C1A8E4688468C460E46034608E063
:10066000B242A4BFA84616460131822903F1140301
:100670001ED093F85D208DB2002AF5D0B0F88C4AD8
:100680009A6D0134A0F88C4A93F85690B3F8544010
:10069000BA1AC9EB0202B4F5A04F12B2E0D162451A
:1006A000E2DB01318229AE46944603F11403E0D126
:1006B000DEB9BCF1000F2FD00EEB8E0200EB8202F0
:1006C000734692F85420143AD2B2392A2CD803EB4C
:1006D000830300EB8303603393E80300144B18603B
:1006E0007046998003B0BDE8F08308EB880200EB08
:1006F0008202434692F85420143AD2B2392A11D9D0
:1007000003EB830300EB8300C646026E094B704681
:100710001A6003B0BDE8F0834FF6FF7E704603B069
:10072000BDE8F0839E46D2E7F046E9E724C0FF1F0C
:1007300080B1FF1F70B1FF1FF0B5002383B0A0F898
:100740005030044604E0812D2B46A0F8505024D0B0
:1007500094F85D605D1C1434002EF4D1204CB0F888
:100760008C5A2468019403EB8303A1F1140400EB79
:100770008303E4B2019F01350126392CA0F88C5A7D
:100780009F65A3F8541083F8562083F85D601FD945
:10079000144A12681A6603B0F0BDD0F87C3A0446D9
:1007A00043B1114AA2FB0312120A4FF47A6101FB12
:1007B000123242B933210D4807F0E6FE0C4808F02A
:1007C00069F9D4F87C3A0133C4F87C3A03B0F0BD3F
:1007D000084A92E803001866A3F8641003B0F0BD5D
:1007E00024C0FF1F70B1FF1FD34D62101013010012
:1007F000B087FF1F80B1FF1F2C4B1B78F0B413B9DB
:100800002B4B1B781BB32B4B2B4A1B682B4D2C4CB3
:10081000002B2DDBA2FB03235A0902EB420200232B
:1008200056002E6023701F4600221346012505FA4C
:1008300003F401331E2B42EA0402F8D13240214C6A
:1008400042EA070323600022F0BCFFF775BF1E4A8F
:100850001268002A19DB184E184D194CA6FB0262CB
:10086000520902EB420256002E6023701F46DBE75E
:100870005B42A2FB0332520902EB42025600012303
:100880002E6023704FF08047CEE70B4D0B4C0C4B86
:100890005242A5FB0252520902EB420256000122CB
:1008A00026601A704FF08047BEE700BF1CBAFF1FDA
:1008B000B293FF1F78BEFF1F1F85EB5178B1FF1F5A
:1008C00090B1FF1F70B1FF1FB8BCFF1F1D4B1B78FD
:1008D000F0B413B91C4B1B7823B31C4B1B681C4A88
:1008E0001C4D1D4C002B1FDBA2FB03235A0902EBFE
:1008F0004202560002232E6023704FF00047002270
:100900001346012505FA03F401331E2B42EA0402C3
:10091000F8D13240114C42EA070323600122F0BCB7
:10092000FFF70ABF0E4BD9E75B42A2FB0332520925
:1009300002EB4202560003232E6023704FF0404723
:10094000DDE700BF1CBAFF1FB293FF1FE0BCFF1F13
:100950001F85EB516096FF1F90B1FF1F70B1FF1F05
:1009600058BAFF1F2DE9F04F83B04D4A8DE80300C0
:10097000002303E00133322B00F08F8012F8011FB7
:100980000029F7D1474A9BB21380474C4748484952
:10099000E2185FFA83F880F8008000232046537045
:1009A0009370D37013710CF00FFC00286AD1414B87
:1009B00001241C70404B414A1B7813704048414B46
:1009C000394983F8008008F10402DFF808B1DFF844
:1009D0000C91824605F0F8FC3B4B00271C708BF80D
:1009E00000703A460AEB020302F1030C1AF8027097
:1009F0005C781AF80C6089F801404FEA076E24040D
:100A00000EF0FE4E89F8036006F07F069D7889F8A7
:100A1000025004F4FE044EEA0606930826432B4CCB
:100A200089F8007001332D021A4605F4FE45237043
:100A3000274B3543C4459DE803001D600FDB1F4B6A
:100A40001B785E059C0306F4000604F40044DB01F9
:100A5000344303F0800323431D431D4B1D60FFF708
:100A60006BFE9BF80020174B043293F80080194B63
:100A7000D2B290458BF80020B4D200221A7003B095
:100A8000BDE8F08F204614490CF09EFB094B10B9CD
:100A9000044618708EE71C788CE7024B1B8874E7BD
:100AA000E794FF1F3492FF1FE894FF1FADA6FF1FBE
:100AB0004413010064BCFF1F78BCFF1F4EBCFF1F26
:100AC000D0BFFF1F64BAFF1FFCBCFF1F199BFF1F95
:100AD00070B1FF1F14C0FF1F54130100A4BCFF1FFF
:100AE000013A70B5052A21D8DFE802F03A202054F7
:100AF0002103354C354A364B2678166006240022F1
:100B00001C700125134605FA03F40133182B42EA41
:100B100004024FF00104F6D132402E4D42F0C06382
:100B200006222B60FFF708FE2B4B1C7070BD2B4A72
:100B3000274B1668052400221C700125134605FA70
:100B400003F40133182B42EA0402F8D13240214C5D
:100B500042F0A06323600522BDE87040FFF7ECBDC2
:100B60001F4C204A1A4B26781660012500221D7062
:100B7000134605FA03F40133182B42EA0402F8D1B4
:100B80003240144C42F0807323600122BDE8704073
:100B9000FFF7D2BD144A0E4B1668042400221C70C5
:100BA0000125134605FA03F40133182B42EA040227
:100BB000F8D13240074C42F0806323600422BDE844
:100BC0007040FFF7B9BD00BF9C93FF1F3CBCFF1FE7
:100BD000C5BCFF1F70B1FF1FD8BCFF1F28BEFF1F81
:100BE00001B2FF1F5096FF1F8093FF1F2DE9F04FAA
:100BF00090F82460DFF834B20023042E83B0CBF8E1
:100C0000003000F3C680DFF82892074639F8160056
:100C1000A0F2DC508A460BF0A1F983490BF0F2F9FF
:100C2000B3080021044601930BF09EFB002800F05E
:100C3000B5804FF07C5120460BF0DCF80BF0BEFB8A
:100C400045B26FF03E03721C9D42B8BF1D4639F895
:100C50001200DFF8E0813F2DA8BF3F25A0F2DC5055
:100C600088F801500BF07AF96F490BF0CBF90021AD
:100C700004460BF079FB002800F0CE804FF07C5149
:100C800020460BF0B7F80BF099FB44B26FF03E032F
:100C9000B21C9C42B8BF1C4639F812003F2CA8BFBA
:100CA0003F24A0F2DC5088F802400BF057F95E496F
:100CB0000BF0A8F9002101900BF056FB019B0028D6
:100CC00000F0A28018464FF07C510BF093F80BF027
:100CD00075FB42B26FF03E03F11C9A42B8BF1A4650
:100CE00039F811003F2A9146A0F2DC50A8BF4FF01E
:100CF0003F0988F803900BF031F94B490BF082F96A
:100D0000002101900BF030FB019B002874D01846A5
:100D10004FF07C510BF06EF80BF050FB40B26FF0CF
:100D20003E039842B8BF18463F28A8BF3F20B308EB
:100D3000002D03F00F0388F8040055DB2D0105F4A6
:100D40007C751D43002C47DBE40204F4FC342C4387
:100D5000B9F1000F35DB4FEA894909F47C0949EA0A
:100D60000409002822DB400600F0FC4040EA0900AC
:100D7000CBF8000006F00302013251463846FFF777
:100D8000DBFC97F82430043387F8243003B0BDE847
:100D9000F08F80F8243003B0BDE8F08F4FF07C5125
:100DA00020460BF025F80BF009FB49E743425B06B0
:100DB00003F0FC4343F0004343EA0903CBF800305F
:100DC000D8E7C9F100094FEA894909F47C0949F0DB
:100DD000807949EA0409C4E76442E40204F4FC347B
:100DE00044F400342C43B3E76D422D0105F47C72CA
:100DF00043F480651543A5E718464FF07C510AF08F
:100E0000F7FF0BF0DBFA89E718464FF07C510AF048
:100E1000EFFF0BF0D3FA5CE74FF07C5120460AF06D
:100E2000E7FF0BF0CBFA30E72506013E70B1FF1F5C
:100E300080BCFF1F94B1FF1F0A4B30B40022462430
:100E40001C600125134605FA03F40133202B42EA06
:100E50000402F8D1044C02F046032360012230BCA6
:100E6000FFF76ABC18C0FF1F70B1FF1F164B174A6F
:100E70001B781178994225D000B5137085B083B9DD
:100E80001421134807F080FB124807F003FE1049B5
:100E9000684607F085FF684607F042FF05B05DF839
:100EA00004FB11210C4807F06FFB0A4807F0F2FD24
:100EB0000949684607F074FF684607F031FF05B03E
:100EC0005DF804FB704700BF16B2FF1F7DBCFF1F1B
:100ED00078130100B087FF1F6413010070B5094C3F
:100EE0000E460025204631460CF06EF9E37D1C3499
:100EF00003B128B10135102DF4D14FF6FF7070BD4C
:100F0000A8B270BD6DBAFF1F094BDB78032B0ED85A
:100F1000084B9B681B0A0AD1074B084A1B6882B022
:100F200001930199064B116001221A7002B07047BB
:100F300000BDFF1F80BEFF1F24C0FF1F5CBCFF1F42
:100F400017B2FF1F30B5244C94F8683B0A2BCBB086
:100F5000224B34D02249002540F2231201A81D70F3
:100F600005F032FAD4F8643B04F65E3503F223133D
:100F7000AB42C4F8643B08BF234601A940F22312E8
:100F8000184608BFC4F8644B05F01EFA94F8682BA5
:100F900011490A2A034607D0501C81F8680B0AB988
:100FA000C1F8603B4BB030BDD1F8603B03F2231376
:100FB000AB4208BF0B46C1F8603B4BB030BD0122CD
:100FC000232108481A7007F0DFFA07484BB0BDE844
:100FD000304007F05FBD00BF349BFF1FC9BFFF1F3C
:100FE0002895FF1F90130100B087FF1F2DE9F04FD8
:100FF000ADF50F7D06F078FA002838D006F084FAB7
:10100000AE4BC1B20391DB78AC4900220A700F2BC2
:1010100000F2BF81DFE813F0B201B2019401880150
:1010200071015A013B0124010401E300BF009F004C
:101030005700300030001000A04BA14A5B7B0492A7
:1010400011465E1E9D4A9DF80C00CB1AF6B25673EF
:1010500083F82301002E00F03582CA789949CA70BE
:10106000964A0023937006F03FFA0028C6D101206B
:101070000DF50F7DBDE8F08F0E2B914B049305D03D
:101080001B88039AB2EB132F00F082868B4A02234F
:101090001370049A9DF80C10137982F8151113F04F
:1010A000010F8749854B00F0D58184481B780F22BA
:1010B000C270022B4FF00D02427300F0A086002395
:1010C000CA780370CAE77E4B04939C687E4DFD206E
:1010D000C4F3172403469E2200210AE0581E431839
:1010E0005A1C5208884202EB420240F28E8155F8A7
:1010F0002220013394424FEA5303EFD31946EED82E
:10110000944200F07B8100210B46049C20884340E0
:1011100083EA0313DBB2DA0082EA032282EA1022B6
:1011200082EA1313DAB22380039B9A4200F01A86F4
:10113000624B0E22DA70049B9DF80C2083F8142178
:101140005F4C29B15D4B8A791B799342C0F00F86C1
:10115000049BDA7882E7594B039D1979584B574C19
:101160001E460B4401311D7330882B46434083EAF1
:101170000313DBB2DA0082EA032282EA1020F2785B
:10118000C9B280EA13139142217133807FF466AFB4
:101190000C23E37062E74A4B039A1C88624082EAA0
:1011A0000212D2B2D1001D4681EA02219B680004DE
:1011B00000F47F0081EA142140EA132381EA12112E
:1011C000EA786B72C3F307201B0CA872EB722980BC
:1011D000002A00F0208139490B23CB703EE7384BC1
:1011E000039A1C88624082EA0212D2B21D46D100E4
:1011F0009B68000200F47F4081EA022140EA132349
:1012000081EA142181EA1212190CE9722B496B72DE
:10121000C3F307200A232A80A872EA78CB701DE75F
:101220002749264B08881C7B039B4B72434083EA6B
:101230000313DBB2DA0082EA032282EA102282EA96
:1012400013130020E2070B808872C8721B4B40F119
:10125000FD80CA78002A00F02B810B21D970FDE6B1
:10126000174B19881C461846039B03724B4083EAB0
:101270000313DBB2DA0082EA032282EA112282EA55
:10128000131323800D4BE2780821D970E6E60C4B4E
:1012900019881C461846039BC3714B4083EA03130D
:1012A000DBB2DA0082EA032282EA112282EA131315
:1012B0002380024BE2780721D970CFE6A0B1FF1F4F
:1012C0008C96FF1F2895FF1F841C01009A4B1988DC
:1012D0001C461846039B83714B4083EA0313DBB221
:1012E000DA0082EA032282EA112282EA13132380BF
:1012F000924BE2780621D970B0E68F4B19881C46D4
:101300001846039B43714B4083EA0313DBB2DA00B8
:1013100082EA032282EA112282EA13132380874B96
:10132000E2780521D97099E6834C9DF80C30237141
:1013300010F0FE0F73D08149E2780123CB708DE667
:101340007D497E4B039D08881C7BCD702B46434016
:1013500083EA0313DBB2DA0082EA032282EA102274
:1013600082EA13130B80754B0022E0071A7169D5CE
:1013700005200A714A71D8702A466FE6039BFD2B3F
:1013800000F0DB84039BFE2B00F0FB846A4BDA78D1
:1013900064E6694B04931A46694BD278DA70674B5E
:1013A00000249C70A31E012B16D9002C3FF422AE02
:1013B000FFF7C8FD1EE6624A9DF81410D1705F4920
:1013C0000023022C8B70EDD1049890F8151190F841
:1013D000143143EA01231380039858490123002262
:1013E000FD288B700A7001D0CB7003E6049D0220AB
:1013F0004FF6FF73EA70C8702B80FBE5514B01EB91
:10140000410103EB81010B797FE64E4B01EB410279
:1014100053F8222074E649490C23CB701EE620883D
:10142000039BE278434083EA0313DBB2D90081EAED
:10143000032181EA102181EA131323803F4B042109
:10144000D9700BE60321039AD97007E60920CA7800
:10145000D87003E61B693BB11B6B002B2BD089684E
:101460003648090A984730B3344B1C78334D32491B
:1014700033480123EB7040F2231204F0A5FF049BD4
:10148000DB780593012C96D12C4B049A2B491B89B0
:1014900092794A7103B94B812848294901330022C6
:1014A000038182709DF81430CB70FFF74BFDA1E5EE
:1014B0000C21D970D2E5214B1C78022CD6D0032404
:1014C0001C70D3E71369526910931D461192002BCB
:1014D00000F08E8455F8100F1B4C37941B4C696834
:1014E000AA68EB681A4F38941A4C3D943A97DFF883
:1014F00070E0194FDFF86CC03C973EACCDF8ECC003
:10150000CDF8E4E00FC4049B2869DA786969EB69D7
:1015100005921746AA6935963D460A350FC4049BC5
:101520000295ED0005F580750C4E36960233349524
:10153000069320241CE000BF8C96FF1FA0B1FF1F64
:101540002895FF1F841C010085AE67BB72F36E3CBB
:101550007F520E5119CDE05BABD9831F67E6096A54
:101560003AF54FA58C68059B029B002B00F0CD80BF
:10157000029D069EC4F14003AB4228BF2B46ED1AE4
:1015800002953EA8354620441D441C441A46314667
:10159000069504F019FF402CE6D134AA22AB92F84C
:1015A0002B0092F82A101870597092F8290092F8BE
:1015B0002810D970987032A90433994202F10402BC
:1015C000EDD1369B0793379B0893389B0993399B42
:1015D0000A933A9B0B933B9B0C933C9B0D930DF50D
:1015E0009A7A3D9B0E93524621AB53F8041F42F862
:1015F000041F31A98B42F8D10DF5B6780DF5AC7CFE
:101600000DF59C7E5DAF5646302558F8044F5EF8C8
:10161000043F56F8042F5CF8041F4FEAF4401144CD
:1016200080EA74404FEAB34280EA942082EAF312DF
:10163000014482EAD3030B44013D47F8043FE4D15F
:101640000E9ADFF8B892A94BDDF828B0DDF820E05B
:10165000099F079EDDF834C0DDF8308001920B9DB4
:101660000AE059F8043FCDF804C0BB46C4467746AB
:10167000A846B646254606464FEAF52205EA080181
:1016800082EAB5122CEA050482EA75624C405AF8E7
:10169000041F144421441944019B87EA0E024FEAB7
:1016A0007630194402EA060480EAB60007EA0E0220
:1016B0008F4B544080EAB65020444B4501EB0B045D
:1016C0000844CED10A99079A39440F460B993997A5
:1016D00021440C460C993A940244294413460D4681
:1016E000089A0D9936933244414416460846099AA1
:1016F0000E99029B37967244614438923B953C9018
:101700003D910024002B7FF433AF349C04F110038F
:101710009C42349300F27C83764B07930223C4F3FC
:10172000C504069303E0069B002B00F0D080069DC5
:10173000079EC4F14003AB4228BF2B46ED1A069525
:101740003EA8354620441D441C441A4631460795A0
:1017500004F03AFE402CE6D134AA22AB92F82B00DA
:1017600092F82A101870597092F8290092F82810EF
:10177000D970987032A90433994202F10402EDD174
:10178000369B0893379B0993389B0A93399B0B939D
:101790003A9B0C933B9B0D933C9B0E930DF59A7AD1
:1017A0003D9B0F93524621AB53F8041F42F8041F90
:1017B00031A98B42F8D10DF5B6780DF5AC7C0DF55D
:1017C0009C7E5DAF5646302558F8044F5EF8043FC6
:1017D00056F8042F5CF8041F4FEAF440114480EAE5
:1017E00074404FEAB34280EA942082EAF312014443
:1017F00082EAD3030B44013D47F8043FE4D13B4B5D
:101800000F9ADFF8F890DDF82CB0DDF824E00A9F9D
:10181000089EDDF838C0DDF8348001920C9D0293FB
:101820000BE0CDF804C0C446A8461D4659F8043F55
:101830000293BB467746B64606464FEAF52205EACE
:10184000080182EAB5122CEA050482EA75624C406E
:101850005AF8041F019B144487EA0E0221444FEA00
:10186000763002EA060407EA0E0219445440029B4D
:101870001F4A80EAB60080EAB650194420444A451F
:1018800001EB0B030844CCD10B99089A39440F465D
:101890000C99399719440B460D993A9302442944FF
:1018A00014460D46099A0E99069B369432444144DB
:1018B000164608460A9A0F99379672446144389240
:1018C0003B953C903D910024002B7FF430AF349C3D
:1018D00004F138039C42349300F29682064B07933E
:1018E0000723C4F3C50406930EE000BF982F8A4275
:1018F000A0120100A097FF1FA297FF1FA4110100D3
:10190000069B002B00F0D080069D079EC4F140038B
:10191000AB4228BF2B46ED1A06953EA8354620441B
:101920001D441C441A463146079504F04DFD402CD9
:10193000E6D134AA22AB92F82B0092F82A10187044
:10194000597092F8290092F82810D970987032A92D
:101950000433994202F10402EDD1369B0893379B80
:101960000993389B0A93399B0B933A9B0C933B9BAF
:101970000D933C9B0E930DF59A7A3D9B0F93524627
:1019800021AB53F8041F42F8041F31A98B42F8D150
:101990000DF5B6780DF5AC7C0DF59C7E5DAF564629
:1019A000302558F8044F5EF8043F56F8042F5CF8D1
:1019B000041F4FEAF440114480EA74404FEAB342F6
:1019C00080EA942082EAF312014482EAD3030B44B2
:1019D000013D47F8043FE4D18B4B0F9ADFF830927A
:1019E000DDF82CB0DDF824E00A9F089EDDF838C051
:1019F000DDF8348001920C9D02930BE0CDF804C019
:101A0000C446A8461D4659F8043F0293BB46774694
:101A1000B64606464FEAF52205EA080182EAB51203
:101A20002CEA050482EA75624C405AF8041F019BB7
:101A3000144487EA0E0221444FEA763002EA060493
:101A400007EA0E0219445440029B704A80EAB6002D
:101A500080EAB650194420444A4501EB0B03084480
:101A6000CCD10B99089A39440F460C9939971944EF
:101A70000B460D993A930244294414460D46099A9F
:101A80000E99069B369432444144164608460A9AFB
:101A90000F9937967244614438923B953C903D9142
:101AA0000024002B7FF430AF349D0699C5F3C504A4
:101AB000C4F177068023472206F03F060DF1890026
:101AC0008DF888300BF068F806F10902104606928E
:101AD00022AA1644359B33712A0AF2712A0E7271BA
:101AE0001A0C290CB27005EBC0029542B1714FEA95
:101AF0001321F1704FEA136184BF0133359322AB98
:101B0000357271703492079303E0069B002B00F04E
:101B1000D780069D079EC4F14003AB4228BF2B46E9
:101B2000ED1A06953EA8354620441D441C441A462D
:101B30003146079504F048FC402CE6D134AA12AB9C
:101B400092F82B0092F82A101870597092F8290018
:101B500092F82810D970987022A90433994202F1A2
:101B60000402EDD1369B0893379B0993389B0A9367
:101B7000399B0B933A9B0C933B9B0D933C9B0E9391
:101B80000DF59A7A3D9B0F93524611AB53F8041F03
:101B900042F8041F21A98B42F8D10DF5B6780DF556
:101BA000AC7C0DF59C7E5DAF5646302558F8044F51
:101BB0005EF8043F56F8042F5CF8041F4FEAF44027
:101BC000114480EA74404FEAB34280EA942082EAEA
:101BD000F312014482EAD3030B44013D47F8043F6A
:101BE000E4D1094B0F9ADFF82890DDF82CB0DDF82E
:101BF00024E00A9F089EDDF838C0DDF834800192A9
:101C00000C9D029312E000BF982F8A42A01201009F
:101C1000A4110100CDF804C0C446A8461D4659F8D9
:101C2000043F0293BB467746B64606464FEAF52286
:101C300005EA080182EAB5122CEA050482EA756217
:101C40004C405AF8041F019B144487EA0E022144B9
:101C50004FEA763002EA060407EA0E0219445440BD
:101C6000029B8E4A80EAB60080EAB65019442044AE
:101C7000914501EB0B030844CCD10B99089A3944E8
:101C80000F460C99399719440B460D993A93024423
:101C9000294414460D46099A0E99069B36943244FF
:101CA0004144164608460A9A0F9937967244614491
:101CB00038923B953C903D910024002B7FF429AF56
:101CC0009DF8DB309DF8DA20754C9DF8D8008DF832
:101CD00048308DF849209DF8D9309DF8DF208DF8E7
:101CE0004A308DF84B009DF8DE308DF84C2004F220
:101CF0001D1112A806228DF84D300AF0B7FE0028FB
:101D000000F08A80109B1B6B4BB1049A6548916868
:101D1000634C090A984700286AD1E3780593614B20
:101D200003241C705F4D5E495F48012340F223127B
:101D3000EB7004F049FBFFF7A5BB5A4B584A1B7BDD
:101D4000104623F0010357499DF80C400B734FF6E2
:101D5000FF7354490380002202238470C270CB7049
:101D6000FFF77CB94F4A0D23D370FFF7E4B904F1B4
:101D70000C00D21A184400210AF00EFFE278FFF797
:101D80006DB9484B464A1B7B104643F00103DAE726
:101D9000444A01231370FFF77CB90F28B2D8DDE95C
:101DA0002267109B414AD3E9024592194FF0000384
:101DB0007B41AB4208BFA242A4D3119A049D00EB21
:101DC000C0041444EB79E3702B7A2371013084F85A
:101DD00002E0053410800B6823608B881099A38083
:101DE000D1E90223BB4208BFB24201D2C1E9026776
:101DF000049BDB7805932B4B01241C7092E72A4A45
:101E0000CB78D370FFF7E0BA359B0133359365E5A6
:101E1000359B013335937FE404F217110023002230
:101E2000CDE92223119B08688D8894F816E1229051
:101E3000ADF88C50002B3FF465AF18880028AED069
:101E4000E579267A069C04E094B2844203F1090302
:101E5000A3D0DF78AF4204F10102F5D11F79B74278
:101E6000F2D19F787745EFD1844296D0119B04EB55
:101E7000C40423441C468EAD0022002365E94023A0
:101E800054F8050F2860A388AB80D5E90023DDE96D
:101E90002267BB4208BFB2429DD333E7A0120100C4
:101EA0008C96FF1FA0B1FF1F2895FF1F808D5B0040
:101EB0002DE9F04FADF5137D0026032704244FF0E4
:101EC000060E10AB8DF845708DF8487010948DF8A3
:101ED00044E08DF846608DF8476093E80700974B23
:101EE000DFF890A25E720C3303C39AF80CC09449D9
:101EF00094481A700F70944ADFF87C8203F80A6CD9
:101F00008E4D924F80F800E00CF00203DFF86CC2B7
:101F100016701420012188F80040EE7203F0FF02D1
:101F20008CF80000397043BBDAF81030002B00F059
:101F3000F48593F800E00EEA010E8049FD238B70D2
:101F4000092701F1150313F8016DF9B2002E40F0D5
:101F5000E085013F012FF6D13946784C142001234A
:101F6000E170E0712372BEF1000F00F0D98523719A
:101F700008204FF0FD0C0A2412E0704D09234FF0A9
:101F8000FE0CE871297220461F467446EB70194614
:101F900085F802C00826694B4FF0000E83F804E074
:101FA0009AF80630654D8DF84CC003F101094FF0E9
:101FB0000008AB718AF806908DF84D1085F8058001
:101FC000002A5AD014228DF84E3001238DF851800A
:101FD0008DF84F208DF850304FF6FF7290460DF17E
:101FE0004D0C0B4601E01CF8013F534083EA0313FC
:101FF000DBB2D900013881EA032180B281EA1222E2
:10200000404582EA1312EED151480D36A0F10C037F
:102010001E4410F8013B534083EA0313DBB2D9009E
:1020200081EA032181EA122282EA13131BB2B04231
:102030009AB2EED183F0320383EA0313DBB2D90004
:1020400081EA032181EA12223C4982EA13130F44F8
:102050001BB23B73CA780E469BB20A4419125173E5
:102060003380BEF1000F1FD13A4B9B78002B00F05C
:102070004A850DF5137DBDE8F08F95F804C08DF805
:102080004EC04FF014084FF0010C8DF84F208DF822
:1020900050308DF853208DF854208DF855208DF850
:1020A00051808DF852C097E7DAF81050F3780D930D
:1020B000002DD9D02B78DB07D6D56B7886F8163172
:1020C000D5E9022392A961E9842308688B88C6F8C0
:1020D0001701A6F81B31D5E90223013243F10003B1
:1020E000C5E902231C4E55F8100F3C961B4F1C4EA1
:1020F0006968AA68EB683D973E961A4F1A4E3F975B
:1021000040961A4FDFF878E0419742AECDF8ECE008
:102110000FC6274628696969AA69EB6903944FF4D9
:102120008075134C3A9405EBC705002413AF049750
:1021300039940FC62024389528E000BF80BEFF1FC9
:102140005DBAFF1FBDBCFF1F3C92FF1F1CBEFF1FDF
:102150008CBEFF1F00BDFF1F72F36E3C3AF54FA50A
:102160007F520E518C68059BABD9831F19CDE05B64
:1021700067E6096AA0B1FF1F309BFF1FCABFFF1FA0
:1021800085AE67BB039B002B00F0D180039D049EAE
:10219000C4F14003AB4228BF2B46ED1A039542A879
:1021A000354620441D441C441A463146049504F02B
:1021B0000BF9402CE6D138AA26AB92F82B0092F806
:1021C0002A101870597092F8290092F82810D970C6
:1021D000987036A90433994202F10402EDD13A9B7A
:1021E00005933B9B06933C9B07933D9B08933E9B2B
:1021F00009933F9B0A93409B0B930DF5A27A419B59
:102200000C93524625AB53F8041F42F8041F35A91E
:102210009942F8D10DF5BE780DF5B47C0DF5A47E8C
:1022200061AF5646102558F8044F5EF8043F56F843
:10223000042F5CF8041F4FEAF440114480EA744014
:102240004FEAB34280EA942082EAF312014482EA20
:10225000D30301350B44402D47F8043FE3D1B24B83
:102260000C9ADFF8D092DDF820B0DDF818E0079F77
:10227000059EDDF82CC0DDF828800192099D0293AF
:102280000BE0CDF804C0C446A8461D4659F8043FEB
:102290000293BB467746B64606464FEAF52205EA64
:1022A000080182EAB5122CEA050482EA75624C4004
:1022B0005AF8041F019B144487EA0E0221444FEA96
:1022C000763002EA060407EA0E0219445440029BE3
:1022D000964A80EAB60080EAB650194420444A453E
:1022E00001EB0B030844CCD10899059A39440F46F9
:1022F00009993D9719440B460A993E930244294493
:1023000014460D46069A0B99039B3A943244414475
:1023100016460846079A0C993B96724461443C92D3
:102320003F95409041910024002B7FF42FAF389DC2
:102330000D9B05EBC304A542389402D9399B0133A8
:1023400039930D9BC5F3C505002B00F0DA8003938C
:10235000774B049303E0039B002B00F0D180039C98
:10236000049EC5F14003A34228BF2346E41A039408
:1023700042A8344628441C441D441A46314604945D
:1023800004F022F8402DE6D138AA26AB92F82B00B3
:1023900092F82A101870597092F8290092F82810B3
:1023A000D970987036A90433994202F10402EDD134
:1023B0003A9B05933B9B06933C9B07933D9B08935D
:1023C0003E9B09933F9B0A93409B0B930DF5A27A8A
:1023D000419B0C93524625AB53F8041F42F8041F4F
:1023E00035A99942F8D10DF5BE780DF5B47C0DF5FF
:1023F000A47E61AF5646102558F8044F5EF8043F9E
:1024000056F8042F5CF8041F4FEAF440114480EAA8
:1024100074404FEAB34280EA942082EAF312014406
:1024200082EAD30301350B44402D47F8043FE3D142
:102430003D4B0C9ADFF8FC90DDF820B0DDF818E099
:10244000079F059EDDF82CC0DDF828800192099DCC
:1024500002930BE0CDF804C0C446A8461D4659F8C7
:10246000043F0293BB467746B64606464FEAF5223E
:1024700005EA080182EAB5122CEA050482EA7562CF
:102480004C405AF8041F019B144487EA0E02214471
:102490004FEA763002EA060407EA0E021944544075
:1024A000029B224A80EAB60080EAB65019442044D2
:1024B000914501EB0B030844CCD10899059A3944A6
:1024C0000F4609993D9719440B460A993E930244D9
:1024D00029440D4614460B99069A039B3F953244B6
:1024E000414416460846079A0C993A94724461444E
:1024F0003B963C92409041910025002B7FF42FAFFA
:10250000389C04F11003A342389302D2399B013363
:1025100039930D9B1A46064B1A4402230492C4F3C6
:10252000C50403930CE000BF982F8A42A01201005B
:102530008CBEFF1FA4110100039B002B00F0D18073
:10254000039D049EC4F14003AB4228BF2B46ED1A05
:10255000039542A8354620441D441C441A46314682
:10256000049503F031FF402CE6D138AA26AB92F84F
:10257000281092F82B5092F82A4092F82900D9702E
:102580001D705C70987036A90433994202F1040200
:10259000EDD13A9B05933B9B06933C9B07933D9B58
:1025A00008933E9B09933F9B0A93409B0B930DF529
:1025B000A27A419B0C93524625AB53F8041F42F874
:1025C000041F35A99942F8D10DF5BE780DF5B47CFC
:1025D0000DF5A47E61AF5646102558F8044F5EF8FD
:1025E000043F56F8042F5CF8041F4FEAF4401144EE
:1025F00080EA74404FEAB34280EA942082EAF31200
:10260000014482EAD30301350B44402D47F8043FCF
:10261000E3D1BF4B0C9ADFF80493DDF820B0DDF86E
:1026200018E0079F059EDDF82CC0DDF82880019298
:10263000099D02930BE0CDF804C0C446A8461D4690
:1026400059F8043F0293BB467746B64606464FEA22
:10265000F52205EA080182EAB5122CEA050482EAAD
:1026600075624C405AF8041F019B144487EA0E021D
:1026700021444FEA763002EA060407EA0E021944C2
:102680005440029BA34A80EAB60080EAB65019443F
:1026900020444A4501EB0B030844CCD10899059A24
:1026A00039440F4609993D9719440B460A993E93C0
:1026B0000244294414460D46069A0B99039B3A940A
:1026C0003244414416460846079A0C993B96724498
:1026D00061443C923F95409041910024002B7FF44F
:1026E0002FAF389C04F138039C42389302D9399BB0
:1026F00001333993884B04930723C4F3C504039330
:1027000003E0039B002B00F0D180039D049EC4F1E5
:102710004003AB4228BF2B46ED1A039542A835462D
:1027200020441D441C441A463146049503F04CFED7
:10273000402CE6D138AA26AB92F8281092F82B50FC
:1027400092F82A4092F82900D9701D705C70987038
:1027500036A90433994202F10402EDD13A9B059364
:102760003B9B06933C9B07933D9B08933E9B0993A1
:102770003F9B0A93409B0B930DF5A27A419B0C93D0
:10278000524625AB53F8041F42F8041F35A999425D
:10279000F8D10DF5BE780DF5B47C0DF5A47E61AFD2
:1027A0005646102558F8044F5EF8043F56F8042F9B
:1027B0005CF8041F4FEAF440114480EA74404FEA89
:1027C000B34280EA942082EAF312014482EAD303FE
:1027D00001350B44402D47F8043FE3D14C4B0C9A94
:1027E000DFF83891DDF820B0DDF818E0079F059E8E
:1027F000DDF82CC0DDF828800192099D02930BE0E2
:10280000CDF804C0C446A8461D4659F8043F0293BB
:10281000BB467746B64606464FEAF52205EA08016A
:1028200082EAB5122CEA050482EA75624C405AF835
:10283000041F019B144487EA0E0221444FEA7630BC
:1028400002EA060407EA0E0219445440029B314A88
:1028500080EAB60080EAB65019442044914501EB65
:102860000B030844CCD10899059A39440F460999BD
:102870003D9719440B460A993E9302442944144655
:102880000D46069A0B99039B3A94324441441646EE
:102890000846079A0C993B96724461443C923F95D6
:1028A000409041910024002B7FF42FAF389E039974
:1028B000C6F3C504C4F1770303F03F058027472220
:1028C0000DF199008DF898700AF066F905F1090389
:1028D0001F46039326AB2B44399A1A71310AD971DA
:1028E000310E300C5971110C98719970100A06EB69
:1028F000C701D8708E424FEA12601E72587088BFAE
:10290000013226AB389188BF399204930CE000BFA6
:10291000982F8A42A012010096BFFF1FA411010048
:10292000039B002B00F0D180039D049EC4F1400363
:10293000AB4228BF2B46ED1A039542A835462044EA
:102940001D441C441A463146049503F03DFD402CBD
:10295000E6D138AA16AB92F8281092F82B5092F8CC
:102960002A4092F82900D9701D705C70987026A9D1
:1029700004338B4202F10402EDD13A9B05933B9B59
:1029800006933C9B07933D9B08933E9B09933F9B7B
:102990000A93409B0B930DF5A27A419B0C935246F0
:1029A00015AB53F8041F42F8041F25A99942F8D12A
:1029B0000DF5BE780DF5B47C0DF5A47E61AF5646DD
:1029C000102558F8044F5EF8043F56F8042F5CF8C1
:1029D000041F4FEAF440114480EA74404FEAB342C6
:1029E00080EA942082EAF312014482EAD30301359B
:1029F0000B44402D47F8043FE3D14C4B0C9ADFF8D1
:102A00003C91DDF820B0DDF818E0079F059EDDF869
:102A10002CC0DDF828800192099D02930BE0CDF8CF
:102A200004C0C446A8461D4659F8043F0293BB465D
:102A30007746B64606464FEAF52205EA080182EADD
:102A4000B5122CEA050482EA75624C405AF8041F5C
:102A5000019B144487EA0E0221444FEA763002EAD1
:102A6000060407EA0E0219445440029B304A80EAE9
:102A7000B60080EAB650194420444A4501EB0B03E6
:102A80000844CCD10899059A39440F4609993D97D5
:102A900019440B460A993E930244294414460D46B4
:102AA000069A0B99039B3A943244414416460846D1
:102AB000079A0C993B96724461443C923F95409032
:102AC00041910024002B7FF42FAF1A4E9DF8EE3079
:102AD00086F82231184B9DF8EB509B789DF8EA4020
:102AE0009DF8E9009DF8E8109DF8EF2086F81D514B
:102AF00086F81E4186F81F0186F8201186F82121EC
:102B0000002B7FF4B6AA0DF5137DBDE8F04FFDF75D
:102B1000ADBC4E1EB6B2FFF720BA9646FFF70DBA0F
:102B200008204FF0FD0C0A24FFF735BA982F8A428F
:102B3000A012010080BEFF1F00BDFF1FA4110100F5
:102B40002DE9F04FADF5137D012100228DF83C10E9
:102B50008DF83D108DF83E20934E0F98934D944C78
:102B60003270944E29702170010CB173DFF864E269
:102B700090499EF80C3088818E488F4D8F4C827220
:102B8000FF21C27203F002032B26BE224672297077
:102B900003EA010022709BBBDEF81030002B00F02E
:102BA000E1851F7807F00107824CFF21FD230225F4
:102BB000BE22E171A370E57021462272002F00F061
:102BC000DA859EF806208DF84C3013AC501C8EF838
:102BD0000600002301208A71657008714B710A2577
:102BE0000821744B22711879A0700023FF20E37034
:102BF00023726372BE222B236071A271E37121E004
:102C00006C4DFE230224E9712A72AB70EC70042132
:102C10000625684C9EF80620A27113AC561C237042
:102C2000644B8EF806600027022666701F715F7184
:102C3000002800F09D85FF23A270E370BE222B23A5
:102C4000227163714FF6FF7C66460DF14D00022341
:102C500001E010F8013F83EA0C0383EA0313DBB2BF
:102C6000DA0082EA032282EA1C2C01398CEA13136F
:102C700089B21BB2B1421FFA83FCEAD14D4A4D49D9
:102C8000127B497B534083EA0313DBB21A0282EAC8
:102C9000C30282EA1C2282EA13131BB281EA0302F6
:102CA00082EA0211C9B2CA0082EA0122C3F30723F1
:102CB000534083EA111212B282F0840383EA0313B1
:102CC000DBB2D90081EA0321C2F307224A4082EA3B
:102CD0001313384ADFF8DCC0D2781BB299B26244D1
:102CE0008CF80E300B125373ACF8001067B9344BEC
:102CF0009B781BB10DF5137DBDE8F08F0DF5137DAD
:102D0000BDE8F04FFDF7B2BBDEF810609CF8033071
:102D10000C93002EEBD03378DB07E8D573788CF872
:102D20001631D6E9022392A961E9822308688B88CB
:102D3000CCF81701ACF81B31D6E90223013243F17C
:102D40000003C6E902231F4F56F8100F3C97DFF827
:102D500088E01D4F7168B268F368CDF8F4E03E97E3
:102D6000DFF878E0194FCDF8FCE04097DFF870C04D
:102D7000DFF870E0CDF8ECC042AFCDF804E10FC74A
:102D8000AE4630697169B269F36902954FF4807C8F
:102D90000F4D3A9500260CEBCE050394399620246E
:102DA0000FC7389524E000BFB8A6FF1F3992FF1F58
:102DB0009893FF1F80BEFF1F86B1FF1F30BCFF1F0F
:102DC00000BDFF1F72F36E3C7F520E51ABD9831FC3
:102DD00067E6096AA0B1FF1F3AF54FA58C68059B0D
:102DE00085AE67BB19CDE05B029B002B00F0D18064
:102DF000029D039EC4F14003AB4228BF2B46ED1A4F
:102E0000029542A8354620441D441C441A463146CA
:102E1000039503F0D9FA402CE6D138AA26AB92F8F4
:102E20002B10197092F82A4092F8281092F8290075
:102E3000D9705C70987036A90433994202F104028B
:102E4000EDD13A9B04933B9B05933C9B06933D9BA2
:102E500007933E9B08933F9B0993409B0A930DF574
:102E6000A27A419B0B93524625AB53F8041F42F8BC
:102E7000041F35A99942F8D10DF5BE780DF5B47C43
:102E80000DF5A47E61AF5646102558F8044F5EF844
:102E9000043F56F8042F5CF8041F4FEAF440114435
:102EA00080EA74404FEAB34280EA942082EAF31247
:102EB000014482EAD30301350B44402D47F8043F17
:102EC000E3D1B24B0B9ADFF8D092DDF81CB0DDF8FD
:102ED00014E0069F049EDDF828C0DDF824800092EF
:102EE000089D01930BE0CDF800C0C446A8461D46DE
:102EF00059F8043F0193BB467746B64606464FEA6B
:102F0000F52205EA080182EAB5122CEA050482EAF4
:102F100075624C405AF8041F009B144487EA0E0265
:102F200021444FEA763002EA060407EA0E02194409
:102F30005440019B964A80EAB60080EAB650194494
:102F400020444A4501EB0B030844CCD10799049A6D
:102F500039440F4608993D9719440B4609993E9309
:102F60000244294414460D46059A0A99029B3A9454
:102F70003244414416460846069A0B993B967244E1
:102F800061443C923F95409041910024002B7FF496
:102F90002FAF389D0C9B05EBC304A542389402D992
:102FA000399B013339930C9BC5F3C505002B00F009
:102FB000DC83784B0C9A0D930292039303E0029BFF
:102FC000002B00F0D180029C039EC5F14003A34278
:102FD00028BF2346E41A029442A8344628441C44DD
:102FE0001D441A463146039403F0EEF9402DE6D114
:102FF00038AA26AB92F82B0092F82A101870597054
:1030000092F8290092F82810D970987036A90433E4
:10301000994202F10402EDD13A9B04933B9B059344
:103020003C9B06933D9B07933E9B08933F9B0993D4
:10303000409B0A930DF5A27A419B0B93524625AB18
:1030400053F8041F42F8041F35A99942F8D10DF531
:10305000BE780DF5B47C0DF5A47E61AF5646102503
:1030600058F8044F5EF8043F56F8042F5CF8041F2C
:103070004FEAF440114480EA74404FEAB34280EAD8
:10308000942082EAF312014482EAD30301350B440F
:10309000402D47F8043FE3D13C4B0B9ADFF8F89002
:1030A000DDF81CB0DDF814E0069F049EDDF828C0B2
:1030B000DDF824800092089D01930BE0CDF800C05C
:1030C000C446A8461D4659F8043F0193BB467746BF
:1030D000B64606464FEAF52205EA080182EAB5122D
:1030E0002CEA050482EA75624C405AF8041F009BE2
:1030F000144487EA0E0221444FEA763002EA0604BD
:1031000007EA0E0219445440019B214A80EAB600A6
:1031100080EAB65019442044914501EB0B03084462
:10312000CCD10799049A39440F4608993D97194420
:103130000B4609993E93024429440D4614460A99C8
:10314000059A029B3F953244414416460846069A2A
:103150000B993A94724461443B963C924090419161
:103160000025002B7FF42FAF389C04F11003A342FD
:10317000389302D2399B013339930D9B0C9A134437
:1031800003930223C4F3C50402930BE0982F8A42F1
:10319000A01201008CBEFF1FA4110100029B002B96
:1031A00000F0D180029D039EC4F14003AB4228BFD2
:1031B0002B46ED1A029542A8354620441D441C4476
:1031C0001A463146039503F0FFF8402CE6D138AAA1
:1031D00026AB92F8281092F82B5092F82A4092F8D9
:1031E0002900D9701D705C70987036A9043399421B
:1031F00002F10402EDD13A9B04933B9B05933C9B67
:1032000006933D9B07933E9B08933F9B0993409BEE
:103210000A930DF5A27A419B0B93524625AB53F8C6
:10322000041F42F8041F35A98B42F8D10DF5BE7872
:103230000DF5B47C0DF5A47E61AF5646102558F807
:10324000044F5EF8043F56F8042F5CF8041F4FEA61
:10325000F440114480EA74404FEAB34280EA94207B
:1032600082EAF312014482EAD30301350B44402D74
:1032700047F8043FE3D1BF4B0B9ADFF80493DDF826
:103280001CB0DDF814E0069F049EDDF828C0DDF8D0
:1032900024800092089D01930BE0CDF800C0C44645
:1032A000A8461D4659F8043F0193BB467746B646EB
:1032B00006464FEAF52205EA080182EAB5122CEA31
:1032C000050482EA75624C405AF8041F009B1444BE
:1032D00087EA0E0221444FEA763002EA060407EA42
:1032E0000E0219445440019BA34A80EAB60080EACA
:1032F000B650194420444A4501EB0B030844CCD195
:103300000799049A39440F4608993D9719440B468A
:1033100009993E930244294414460D46059A0A9998
:10332000029B3A943244414416460846069A0B9949
:103330003B96724461443C923F95409041910024F9
:10334000002B7FF42FAF389C04F138039C42389354
:1033500002D9399B01333993884B03930723C4F374
:10336000C504029303E0029B002B00F0D180029D74
:10337000039EC4F14003AB4228BF2B46ED1A0295D1
:1033800042A8354620441D441C441A463146039544
:1033900003F01AF8402CE6D138AA26AB92F8281090
:1033A00092F82B5092F82A4092F82900D9701D709B
:1033B0005C70987036A90433994202F10402EDD191
:1033C0003A9B04933B9B05933C9B06933D9B079341
:1033D0003E9B08933F9B0993409B0A930DF5A27A6D
:1033E000419B0B93524625AB53F8041F42F8041F30
:1033F00035A98B42F8D10DF5BE780DF5B47C0DF5ED
:10340000A47E61AF5646102558F8044F5EF8043F7D
:1034100056F8042F5CF8041F4FEAF440114480EA88
:1034200074404FEAB34280EA942082EAF3120144E6
:1034300082EAD30301350B44402D47F8043FE3D122
:103440004C4B0B9ADFF83891DDF81CB0DDF814E036
:10345000069F049EDDF828C0DDF824800092089DB8
:1034600001930BE0CDF800C0C446A8461D4659F8AC
:10347000043F0193BB467746B64606464FEAF5221F
:1034800005EA080182EAB5122CEA050482EA7562AF
:103490004C405AF8041F009B144487EA0E02214452
:1034A0004FEA763002EA060407EA0E021944544055
:1034B000019B314A80EAB60080EAB65019442044A4
:1034C0004A4501EB0B030844CCD10799049A3944CF
:1034D0000F4608993D9719440B4609993E930244BB
:1034E000294414460D46059A0A99029B3A9432449F
:1034F000414416460846069A0B993B96724461442D
:103500003C923F95409041910024002B7FF42FAFD7
:10351000389E0299C6F3C504C4F1770303F03F0552
:10352000802747220DF199008DF8987009F034FB3F
:1035300005F109031F46029326AB2B44399A1A71F1
:10354000310AD971310E300C5971110C9871997082
:10355000100A06EBC701D8708E424FEA12601E7245
:10356000587088BF013226AB389188BF39920393D7
:103570000CE000BF982F8A42A012010096BFFF1FE7
:10358000A4110100029B002B00F0D180029D039E3C
:10359000C4F14003AB4228BF2B46ED1A029542A866
:1035A000354620441D441C441A463146039502F01A
:1035B0000BFF402CE6D138AA16AB92F8281092F8EF
:1035C0002B5092F82A4092F82900D9701D705C7037
:1035D000987026A90433994202F10402EDD13A9B76
:1035E00004933B9B05933C9B06933D9B07933E9B1B
:1035F00008933F9B0993409B0A930DF5A27A419B48
:103600000B93524615AB53F8041F42F8041F25A92B
:103610009942F8D10DF5BE780DF5B47C0DF5A47E78
:1036200061AF5646102558F8044F5EF8043F56F82F
:10363000042F5CF8041F4FEAF440114480EA744000
:103640004FEAB34280EA942082EAF312014482EA0C
:10365000D30301350B44402D47F8043FE3D1484BD9
:103660000B9ADFF82C91DDF81CB0DDF814E0069F12
:10367000049EDDF828C0DDF824800092089D0193A7
:103680000BE0CDF800C0C446A8461D4659F8043FDB
:103690000193BB467746B64606464FEAF52205EA51
:1036A000080182EAB5122CEA050482EA75624C40F0
:1036B0005AF8041F009B144487EA0E0221444FEA83
:1036C000763002EA060407EA0E0219445440019BD0
:1036D0002C4A80EAB60080EAB6501944204491454D
:1036E00001EB0B030844CCD10799049A39440F46E7
:1036F00008993D9719440B4609993E930244294481
:1037000014460D46059A0A99029B3A943244414464
:1037100016460846069A0B993B96724461443C92C1
:103720003F95409041910024002B7FF42FAF164E1F
:103730009DF8EB509DF8EA409DF8E9009DF8E810EF
:103740009DF8EF209DF8EE3086F81D5186F81E4159
:1037500086F81F0186F8201186F8212186F822318B
:10376000FFF7C5BA0746FFF71FBA084B0D93FCE4F5
:103770000746FFF736BA08210A25FFF74ABA00BF05
:10378000982F8A42A012010080BEFF1F8CBEFF1F2F
:10379000A411010010B5194B197882B0C9B9184BA2
:1037A000184A1B68019301981368C31AB3F5FA7F8E
:1037B000154B08D310601A78C2B10D20197002F0B1
:1037C00071FF02B010BD19780D2002F06BFF02B03E
:1037D00010BD01230C4C19460D20237002F062FF2E
:1037E00021780D2002F05EFF02B010BD01210D20F6
:1037F000197002F057FF02B010BD00BFB4BCFF1F2C
:1038000024C0FF1F4C96FF1FC4BCFF1F7E2810B5AD
:10381000044615D0102813D0322811D00F2C03D80D
:103820000121094804F0B0FE214600231022074878
:1038300005F056F901210648BDE8104004F0A4BE89
:10384000024805F027F9E9E7B4130100B087FF1F2C
:10385000BC13010038B590F82D30012B05460C46FD
:1038600007D0816A0B78012043F020030B7085F8A4
:103870002D0092B17E2C27D07D2C204618D003F04D
:10388000FBF92046FFF7C2FF28462146FCF792FECF
:103890000020BDE8384002F011BF204603F0ECF9EB
:1038A0002046FFF7B3FF0020BDE8384002F006BF16
:1038B00003F0E2F92046FFF7A9FF5D2003F0DCF9F1
:1038C0005D20FFF7A3FFDFE77D2003F0D5F97D2022
:1038D000FFF79CFF5E2003F0CFF95E20FFF796FF15
:1038E000D2E700BF38B51B4B5B78012B044625D0CF
:1038F000194D204600223221FFF7ACFF29782046DF
:103900000022FFF7A7FF697820460022FFF7A2FFF9
:10391000A97820460022FFF79DFFE9782046002283
:10392000FFF798FF297920460022FFF793FF697976
:1039300020460022BDE83840FFF78CBF0D4600222C
:103940007E21FFF787FF294600222046FFF782FFEE
:10395000CEE700BF00BDFF1F80B1FF1F30B5224B77
:103960005B7883B0012BADF80620044630D02046AA
:1039700001221021FFF76EFF1C4D9DF80610204616
:103980000122FFF767FF9DF8071020460122FFF78D
:1039900061FF297820460122FFF75CFF6978204605
:1039A0000122FFF757FFA97820460122FFF752FFB7
:1039B000E97820460122FFF74DFF2179C943C9B2BA
:1039C00000222046FFF746FF0023A38003B030BD4E
:1039D0000D4600227E21FFF73DFF294600222046AA
:1039E000FFF738FFC3E700BF00BDFF1F70B1FF1F27
:1039F000F8B58F007D1800EB85051D4BB5F85420F8
:103A00001A804FF201139A420C46064616D0A2F1D4
:103A10001403DBB2392B15D8164B01253221304661
:103A20001D70FFF75FFF144B00221A609A803C4420
:103A300006EB8404002384F85D30F8BD0F4B5B78FF
:103A4000032B09D10B4B00251B2130461D70FFF7BE
:103A500085FF0B4B1D60EAE700227E21FFF7FAFE8F
:103A600000221B213046FFF7F5FEB5F85420CEE7C3
:103A700060BCFF1FB7BCFF1F80B1FF1F00BDFF1F51
:103A800070B1FF1F10B50446FCF7DAFD4FF6FF7367
:103A9000984205D001462046BDE81040FFF7A8BF78
:103AA00010BD00BF30B5274B5B78012B83B034D0FD
:103AB00090F82D3004463BBB00250BE07E2820D03B
:103AC000B4F84E305A1C92B22344054683F82E00B7
:103AD000A4F84E2003F05CF988B12046FCF784FD81
:103AE000B4F84E301F2B84BF03F1FF33A4F84E30DF
:103AF0007E2DE3D11B28E1D12046FFF7C3FF03B0A1
:103B000030BD01220023DFE7826A1378002183F0B1
:103B10002003137080F82D10CEE70B4B1B78002B81
:103B2000EDD00A4D0A4C2B680093009B22689B1A2B
:103B3000122BE4D9FFF7A6FF2B680193019B2360AA
:103B4000DDE700BF00BDFF1FB4BCFF1F24C0FF1F87
:103B5000B0BCFF1FF8B5154CE66805464FF07E5126
:103B6000304608F0EDFB18B1284608F0F3F9064698
:103B7000284608F0F3F90E4908F044FA0D490746C3
:103B8000304608F03FFA0146384608F033F90A4952
:103B90006269E369E060A1FB051502EB951501334D
:103BA0006561E36108F030FCF8BD00BF2887FF1FA6
:103BB0004CA6AA3E4CA62A3FD34D6210F0B51E4C2F
:103BC00094F8203085B00546002B32D01B4B1A6884
:103BD0000192019A0021013A84F82010196803919A
:103BE00003981B680293029B2361801A08F0B2F9C4
:103BF000134908F0BBFA07F05BFD064628460F465E
:103C000007F034FD02460B463046394607F0A4FD66
:103C100008F09AF80B4908F0F5F90B4908F0F2F9A9
:103C2000034601466068236008F0E4F8606005B070
:103C3000F0BD2269014BD1E72887FF1F24C0FF1F79
:103C400000BA5B4A000020410000883F70B5114D6A
:103C50000646FFF7B3FFAC684FF07E51204608F0F0
:103C60006FFB18B1304608F075F90446304608F08D
:103C700075F9094908F0C6F908490646204608F0D2
:103C8000C1F90146304608F0B5F8A86008F0BCFB61
:103C900070BD00BF2887FF1FFA7EAA3E4CA62A3FB0
:103CA000F8B5144CE66805460021304608F03EFBA6
:103CB00018B1284608F04EF90646284608F04EF995
:103CC0000D4908F09FF90D490746304608F09AF96A
:103CD0000146384608F08EF809496269E369E060F8
:103CE000A1FB051502EB951501336561E36108F051
:103CF0008BFBF8BD5087FF1FFA7EAA3EFA7E2A3F53
:103D0000D34D6210F0B51E4C94F8203085B00546B6
:103D1000002B32D01B4B1A680192019A0021013A04
:103D200084F820101968039103981B680293029B82
:103D30002361801A08F00EF9134908F017FA07F00A
:103D4000B7FC064628460F4607F090FC02460B4695
:103D50003046394607F000FD07F0F6FF0B4908F042
:103D600051F90B4908F04EF903460146606823609B
:103D700008F040F8606005B0F0BD2269014BD1E762
:103D80005087FF1F24C0FF1F00BA5B4A000020417C
:103D90000000883FF8B5114CA66805460021304662
:103DA00008F0C4FA18B1284608F0D4F806462846A8
:103DB00008F0D4F80A4908F025F90A4907463046C0
:103DC00008F020F90146384608F014F8A0602846AB
:103DD000FFF798FFA06808F017FBF8BD5087FF1F9A
:103DE000FA7EAA3EFA7E2A3F10B50129044680EAEF
:103DF000E070A0EBE47026D0022907D0032903D19C
:103E0000012A5AD0022A36D0002010BD012A3CD007
:103E1000022AF9D1632840F38580B0F57A7F80F2D9
:103E20009A8008F097F86B4908F0ECF805F0AEFAC4
:103E300008F0EAFAC0B2800040F00100002CE4DA99
:103E400040F4007010BD012ADED1092864DD9528F8
:103E50007DDC08F07FF85F4908F0D4F805F096FAA9
:103E600008F0D2FAC0B2400040F00100002CCCDAD9
:103E700040F0200010BDB0F57A7F37DA800080B2C4
:103E8000002CC2DA40F4805010BD632847DD40F2B8
:103E9000F54398425DDC08F05DF84E4908F0B2F851
:103EA00005F074FA08F0B0FAC0B2400040F001002A
:103EB000002CAADA40F4807010BDB0F57A7F34DBB4
:103EC000B0F5205F59DA08F045F8424908F09AF851
:103ED00005F05CFA08F098FA80B2400040F001006A
:103EE00080B2002C91DA40F4006010BD42F20F73F2
:103EF00098421DDD384B984242D808F02BF83749DC
:103F000008F080F805F042FA08F07EFA80B28000EE
:103F100040F0020080B2B3E7400080B2A6E7400064
:103F200080B2C5E7800080B288E7400080B2D8E761
:103F300008F010F8274908F065F805F027FA08F0AE
:103F400063FA80B2800040F0010080B298E71F2041
:103F50008CE7FF20ACE742F20F73984222D807F0BB
:103F6000F9FF1E4908F04EF805F010FA08F04CFA77
:103F7000C0B2800040F0020060E740F2FF70B0E79E
:103F8000B0F57A2F1FD207F0E5FF154908F03AF88F
:103F900005F0FCF908F038FA80B2800040F0030028
:103FA00080B26DE70F4B984210D807F0D3FF0C4951
:103FB00008F028F805F0EAF908F026FAC0B2800007
:103FC00040F003003AE740F6FF7059E740F2FF1077
:103FD00034E700BFCDCCCC3D9F8601000AD7233CFF
:103FE0006F12833A17F001002DE9F8432F4B304D43
:103FF0001B78304A0F2B06460F464FD90F231370FC
:104000001C462D4B2D4A197803290B4628BF032344
:104010000329137045D90339C9B24FEA813E0EF422
:10402000404E2748274A0068DFF8A8C012881B01C5
:1040300003F030038CFB008C2343C017224CC0EBF1
:104040006C10DFF894C0A4FB022802228CF8001048
:10405000114643EA0E04FFF7C7FEC8F3C7081B4B1F
:104060008146012240460221C3F80090FFF7BCFEC2
:10407000174BDFF868C04FEA895909EA03035FFA72
:1040800080FE1C4344EA8E148CF800E0394630462A
:104090002C600022BDE8F843FCF74EBB1C461370B1
:1040A000AFE74FF0000E7146BBE700BF3792FF1F2E
:1040B00070B1FF1FA8BCFF1F7487FF1F5CBAFF1FF2
:1040C00060B1FF1FAC93FF1FCDCCCCCC2C9BFF1F4E
:1040D0000000C07F1F85EB515ABEFF1F189BFF1FBA
:1040E000F8B51D4B1D4C1B881D4A1E4EA4FB033406
:1040F00064091480054630880E4607F02FFF1A49E0
:1041000007F080FF05F042F908F058F9012202217A
:10411000FFF76AFE154B164A18801288430203F413
:10412000FF33C4F308041C43570411230022012069
:1041300000FA03F10133202B42EA0102F8D13A40A0
:104140000C4F42EA0403314628463B600022BDE89A
:10415000F840FCF7F1BA00BFE6BCFF1F1F85EB512A
:104160004CBCFF1F48BCFF1FCDCCCC3DDABCFF1FB1
:104170005AB1FF1F70B1FF1F2DE9F04FC24EC34A65
:104180007368DFF84083C24FC24DDFF83C93C24CE6
:104190008FB083461846002313600B91BF4907F088
:1041A000E5FFBF4907F02EFF0346C8F8003030682E
:1041B000BA49009307F0DAFFB94907F023FF064632
:1041C000B64978682E6007F0D1FFB54907F01AFFAD
:1041D0008246B2493868C9F800A007F0C7FFB04965
:1041E00007F010FF009B074619462760504607F06E
:1041F000FFFD07F05DFACDE9020105F083F8CDE996
:104200000401384607F054FA02460B46CDE908236C
:1042100005F02EF8CDE90001304607F049FA0646D0
:104220000F4605F025F8DDE90823CDE90601104623
:10423000194605F067F802460B4630463946CDE987
:104240000C2305F05FF8CDE90801DDE9020105F076
:104250000FF8DDE90C23CDE90201DDE9060107F0E5
:104260007BFADDE9082306460F46DDE9000107F089
:1042700073FADDE9022307F06FFA02460B46304677
:10428000394607F0B5F8DDE9002306460F46DDE9BB
:10429000040107F061FA32463B4605F0F3F807F0F7
:1042A00053FD7E49CBF80C0007F0ACFE7C4907F0CB
:1042B0005DFF0021064608F043F8002840F0088121
:1042C000CBF81060304608F079F883B2A3F1B4005F
:1042D00000B20028BCBF03F1B40000B2B0F5B47F57
:1042E000A8BFA0F5B4706F4BDFF8E0A1A8BF00B283
:1042F000188007F033FE6C4907F084FE08F05EF882
:1043000024682D68AAF800002946204607F070FDB1
:10431000D8F80010CBF81C000746D9F8000007F0C9
:1043200067FD4FF07C510646CBF82000384607F079
:1043300069FE07F0BDF904F0E5FFCDE90001304664
:104340004FF07C5107F05EFE07F0B2F904F0DAFF9F
:1043500080462846894607F0ABF904F089FF0646F7
:1043600020460F4607F0A4F904F082FF42460446B7
:104370000D464B464046494607F0EEF932463B466D
:1043800007F0EAF922462B4607F0E6F9DDE90023BB
:1043900004460D461046194607F0DEF902460B4664
:1043A0002046294607F026F807F0CEFCCBF80C0093
:1043B00007F07EF905F068F805F00CF80B460246A8
:1043C00007F018F807F0C0FC3849CBF8140007F0E4
:1043D00019FE374BCBF818001B78002B52D007F092
:1043E000EDFF80B207F0B6FD04F0D0FF07F0E6FF66
:1043F000304B314E1B68032186FB0326DB1702225C
:10440000C3EB6616FFF7F0FC2C4A002336B210808F
:104410001C46012101FA04F201340C2C43EA020388
:10442000F8D11A4A12680340304643EA020507F001
:1044300095FD04F0ABFF07F0C1FF03210222FFF757
:10444000D3FC1F4B00B2188006030023012101FAA0
:1044500004F20134182C43EA0203F8D133402B4311
:104460000028BAF90050094C0B99B8BF43F080738B
:1044700043EA45635846002223600FB0BDE8F04F81
:10448000FCF75AB91846B3E76493FF1F70B1FF1FDA
:10449000ECBCFF1F20BEFF1F24BEFF1F00003443E3
:1044A000DB0F49401EBAFF1F4CA6AA3E706DC24AE0
:1044B00064B1FF1FCCBCFF1F1F85EB515CB1FF1F18
:1044C00032BCFF1F04B2FF1F08B2FF1F20BAFF1F3C
:1044D0003046024907F08EFC0646F1E60000B44380
:1044E000334B2DE9F04705460E4618683149324CEA
:1044F00007F088FD314B2F490746186807F082FD09
:104500002F4B8246B3F9000000EB8000400007F01B
:1045100025FD00218146384607F012FF0028384665
:1045200014BF4FF480784FF0000804F02FFF07F01D
:1045300045FF01220221FFF757FC074607F00AFD5D
:104540002060504604F022FF07F038FF01220221CC
:10455000FFF74AFC044607F0FDFC1A4B4FF07C5174
:104560001860484607F04EFD174B186007F04CFFE7
:10457000FFB2640247EA080704F4FF3444EA07087C
:10458000124F002240041123012404FA03F10133E5
:104590001C2B42EA0102F8D1024042EA08043146EB
:1045A00028463C600022BDE8F047FCF7C5B800BFD4
:1045B00088B1FF1F000020415896FF1F8893FF1FFE
:1045C0006A96FF1F5496FF1F8493FF1F70B1FF1F51
:1045D000304B2DE9F04105460E4618682E4907F08C
:1045E00011FD2E4907F006FC07F00EFF2C4A2D4B5B
:1045F000294987B21F80106807F004FD2A4907F097
:10460000F9FB07F001FF294A294B2A491FFA80F8D4
:10461000A3F80080106807F0F5FC04F0B7FE07F07F
:10462000F3FE254B80B2002218800124134604FAC1
:1046300003F101330B2B42EA0102F8D107EA020E23
:104640001C464FEAC82700234FF0010C0CFA04F176
:104650000134152C43EA0103F8D13B400122032128
:1046600043EA0E07FFF7C0FB234640050022012462
:1046700004FA03F10133202B42EA0102F8D102408F
:104680000E4B1743314628461F600022BDE8F0411B
:10469000FCF752B810C0FF1F0000A04000006144AA
:1046A000B4A6FF1F22BAFF1F0000E1439093FF1F33
:1046B00002B2FF1F0000C8426896FF1F70B1FF1FC3
:1046C000234B244A1B88A2FB03232DE9F041054616
:1046D00058090E4607F042FC1F4B204ADFF88C8039
:1046E00007461F60B2F9000007F038FC1C4907F0CC
:1046F00089FC04F04BFE07F061FE01220221FFF766
:1047000073FB044607F026FCC8F80000384607F0A3
:104710007BFE144B64021A8804F4FF34C0F30800D3
:104720002043570411230022012404FA03F101332A
:10473000202B42EA0102F8D13A400B4C42EA000336
:104740003146284623600122BDE8F041FBF7F4BF63
:10475000E8BCFF1F1F85EB51ACBCFF1F4ABCFF1F0D
:10476000CDCCCC3D9A93FF1F70B1FF1FB893FF1FB4
:104770002DE9F04F514B524E524A534D534CDFF8F6
:1047800074B1534F12681B883688DFF86C81ABF820
:10479000003083B000233A6026808146B5F90000DE
:1047A000C8F800308A4607F0D9FB4A4A4A4B05460A
:1047B0001D60108807F0D2FB484907F023FC484AE7
:1047C000034619461360284607F012FB07F0F6FD72
:1047D00000B207F0C3FB434904F0B2FE00210546D6
:1047E00007F0AEFD00285DD1284607F0E7FD3E4BFF
:1047F0003E4D163083FB00230344C017C0EB63100B
:104800000540002D54DB3A4B24881D7000221646CB
:10481000012000FA06F101360A2E42EA0102F8D11F
:10482000D8F80030BBF800000193144007F092FB69
:1048300004F0ACFD07F0C2FD02220321FFF7D4FA19
:104840003346ABF8000000224FEA802B4FF0010EF8
:104850000EFA03F10133162B42EA0102F8D138684F
:104860000BEA020B04F092FD07F0A8FD01221146AD
:10487000FFF7BAFA064607F06DFB019B386043EA82
:1048800045752C43B30544EA0B0403F07C631C43D9
:10489000514648460122C8F8004003B0BDE8F04F39
:1048A000FBF74ABF28460F4907F0A4FA05469BE7E5
:1048B000013D65F007050135A5E700BFAAA6FF1F6A
:1048C0006CB1FF1F2495FF1F7ABCFF1F3A92FF1F98
:1048D0002CBEFF1F4CB1FF1FC4BFFF1F0AD7233CD4
:1048E0007096FF1F0000B443B7600BB6070000804E
:1048F000B9A6FF1F5CBEFF1F70B1FF1F2DE9F84373
:10490000264BDFF8B49006460F461868244907F096
:1049100079FB2449244B254A0C881C8020490546F4
:10492000106807F06FFB8046284604F02FFD07F063
:1049300045FD01220221FFF757FA054607F00AFB61
:10494000C9F80000404604F021FD07F037FD0222BF
:104950000321FFF749FA240204F4FE44EDB2254393
:10496000044607F0F7FA124B4FEAC43E18600022E3
:104970000F23012404FA03F101331B2B42EA010245
:10498000F8D10EEA02020B4B1543394630461D6042
:104990000122BDE8F843FBF7CFBE00BFB0A6FF1F62
:1049A000000020417C96FF1F7493FF1F8096FF1F1D
:1049B00060BAFF1F70B1FF1F68BAFF1F01380828D7
:1049C0001DD8DFE800F00507090B121416181A00AD
:1049D0000020704701207047022070470139C9B29A
:1049E00008290ED8084B585C7047032070470420F4
:1049F00070470520704706207047072070470B203E
:104A000070471F20704700BF6C2801002C4B1B789B
:104A1000062B54D02DE9F0412A4B2B4A1B782B4C06
:104A200012782B4E05464FEAE3182A485FFA88F3BE
:104A30000F462949037000202370087082BB274B62
:104A400027491B78002B34D0264B0878187026494C
:104A5000264B09781B78DFF8A0E0DFF8A0C09EF8AD
:104A600000E08CF800E089025B02120301F440616F
:104A700003F4007302F4805441EA0302224342EA41
:104A80008E6242EAC81200F01F0442EA0823234360
:104A90003946284633600022BDE8F041FBF74CBEA2
:104AA000134B144918780978FFF788FF0D4B1870DD
:104AB000CDE708680B4B0130C0B21870C7E77047EC
:104AC00001B2FF1FE4BCFF1F1CBAFF1F44BEFF1F43
:104AD00070B1FF1F31BCFF1FFCBCFF1FB293FF1F53
:104AE0008496FF1FC8BFFF1F9D93FF1F4FBCFF1F72
:104AF0007E96FF1F58BCFF1F38BCFF1FA093FF1FEF
:104B000038B545F20504A14276D00B4615D945F2D9
:104B10000904A14239D021D945F2F202914228D0AC
:104B200042D945F2F30291423DD04FF20112914237
:104B300066D1BDE83840FCF77FB9154645F2010261
:104B4000914245D025D945F20302914219D033D87C
:104B500045F20201BDE83840FFF746BA45F20704C6
:104B6000A1420AD02ED845F20601BDE83840FFF731
:104B70002FBDBDE83840FFF7C1BEBDE83840FBF7A8
:104B8000AFBFBDE83840FFF7ABBABDE83840FFF72C
:104B9000EFBDB1F5006F1FD0B1F5A04F51D1BDE809
:104BA0003840FBF7DFBE38BD45F2F102914227D114
:104BB000BDE83840FCF71AB845F20401BDE83840BA
:104BC000FFF7DABA45F20801BDE83840FFF778BDD3
:104BD000BDE83840FFF71ABF35B3012DE3D11A4BBA
:104BE0001A4A1B78032B28BF0323032B1370DAD137
:104BF000BDE83840FBF76ABEBDE83840FFF770BC3F
:104C00001C461021124803F0BFFC2146002310224D
:104C1000104803F065FF08210F4803F0B5FC0D486C
:104C2000BDE8384003F036BF074B084A1B78032B1A
:104C300028BF0323032B1370B5D1BDE83840FBF721
:104C4000DBBD1629DCD138BD7487FF1F5CBAFF1F9E
:104C50006C160100B087FF1F801601002DE9F04F90
:104C6000A54DAC68C4F317242A2C89B000F08A84BF
:104C700030D81A2C00F000855DD8022C00F00E848C
:104C800000F29C81002C00F05983012C40F00B8233
:104C90009A4B1B78002B00F00682994B6A69688B4F
:104CA0001A60FEF757FF974C2080A88BFEF7CEFFC7
:104CB0002388954945F208229342088040F2E38513
:104CC000924B06221A70002245F203019048FFF72A
:104CD00017FFE8E14D2C00F0F58340F29C80AD2CED
:104CE00000F03C8573D9E22C00F0EC84FD2C00F040
:104CF0007C82B52C40F0D781804B1B78002B00F0D4
:104D0000D281A889834CFEF7CBFF2080E889FFF78A
:104D100041F82388804945F208229342088040F2F6
:104D2000A6857E4B06221A70002245F208017848BB
:104D3000FFF7E6FEB7E1232C00F08E8300F29C80A3
:104D40001E2C00F05583212C40F0AD816B4B1B785D
:104D5000002B00F0A881724B1B78022B40F2A3813C
:104D6000704F2869704E714C38606F69704A3760B7
:104D7000AE69704B2660EC6914606F492C8C6F4AE9
:104D80001C806F4B6C8C0C80A98CED8C11801D806D
:104D900007F0E4F86B496C4C07F0E8F90346236030
:104DA000384607F0DBF8674907F0E0F9034663602F
:104DB000304607F0D3F8654907F0D8F9644BA06096
:104DC000A3FB0530400907F0C9F8E0606BE16D2CEA
:104DD00000F02982932C40F06681484B1B78002B11
:104DE00000F0618195F82C30DFF8CCE1594E5A4C37
:104DF0005A496F8DEA6895F82F008EF80030378099
:104E000022600870002B00F00F85012B40F04B81D1
:104E1000534B1A8047E1412C00F0608400F2398145
:104E20002C2C00F0B1813E2C40F03D81334B1B789F
:104E3000002B00F038814B4EEF684B4B37604B49ED
:104E40002F691F604A4C2F8C4A4A4B484B4E4C4BA3
:104E50000F80D5F814E06F8CA98C27801180AF6982
:104E6000EC69C0F800E0002245F2090128483760EB
:104E70001C60FFF745FE16E1242C00F09381272CDF
:104E800040F011811D4B1B78002B00F00C813D4C34
:104E9000686A3D4F3D4B20602C8D3D4E3C8095F81F
:104EA0002E701F703B496F8D37803B4A95F82F70ED
:104EB0000F703A4B95F830701770394EEF681F60DD
:104EC0003849394B2F69394A3760AF69EE692D6A25
:104ED0001D600F60166007F097FA354BB4F5807FC0
:104EE000187000F2DC84334B013C03EBC40243F83E
:104EF00034605560D7E000BF4092FF1FB4BCFF1F75
:104F00003CBEFF1FE6BCFF1F48BCFF1F58BEFF1F73
:104F1000BCA6FF1FE8BCFF1F4ABCFF1F8896FF1FEF
:104F20007487FF1FB8BCFF1F58BAFF1FC8BCFF1F04
:104F3000CCBCFF1FCCBFFF1F0CC0FF1F0CB2FF1F5C
:104F400030BAFF1F8096184BECBCFF1F00007A445C
:104F50001F85EB511CC0FF1F8CB1FF1F00B2FF1F4C
:104F60009A93FF1F7C93FF1F48BEFF1F7496FF1F7D
:104F70007ABCFF1FAAA6FF1F70BEFF1F14BEFF1F33
:104F80002495FF1FC0BCFF1F6CB1FF1F59BEFF1F40
:104F900018B2FF1FD9BCFF1FACA6FF1F28BAFF1F06
:104FA0002CBAFF1F54BEFF1FA893FF1FA493FF1F1F
:104FB000B8A6FF1F1CB2FF1F4DBEFF1F162C75D0D9
:104FC000182C70D1AC4B1B78002B6CD095F8283086
:104FD000AA48AB4A95F829100370022B11703FD9EB
:104FE000A84F6869A84EA94C3860AF69A84A3760D5
:104FF000EE69A84926602C8C1480A74B6C8C0C8021
:10500000A64AAC8C1C80A649EC8C1480A54BD5F824
:105010002A400C60A44AD5F82E401C60A349A44B3A
:10502000D5F832401460D5F83A20D5F836401A60E9
:105030000C6006F093FF9F499F4C07F097F80346DA
:105040002360384606F08AFF9A4907F08FF8034636
:105050006360304606F082FF984907F087F8A06049
:1050600000224FF400619648FFF74AFD01224FF4F9
:1050700000619348FFF744FD002245F20201904889
:10508000FFF73EFD002245F204018D48FFF738FD91
:1050900009E0492C00F016824A2C04D1764B1B788B
:1050A000002B40F0708309B0BDE8F08F724B1B7885
:1050B000002BF8D005F114030FCB824EDFF840E24D
:1050C000814FDFF86C92DFF86C82D5F80CB0C7F82E
:1050D00000B086E80F002B8A79486D8AA9F8003065
:1050E00010223146AEF80020A8F80050FBF7F6FE7B
:1050F000DFF844A24FF6FF739842AAF8000040F090
:105100006783B5F5B27F00F0D083B5F5B67F0BD1DC
:105110006E4B6B48C3F800B0052245F20701FFF75C
:10512000EFFC6B4B01221A706A496B48FBF722FABD
:105130006A496948FBF71EFA62496748FBF71AFAA1
:1051400067496548FBF716FA386806F0B1FA042497
:1051500002460B460094604803F00AFD61495E4830
:10516000FBF708FAB9F800105B4803F0F9FC0E21D0
:105170005D4803F009FAB8F90010574803F0F0FC55
:10518000554803F087FC8EE73B4B1B78002B8AD0F9
:10519000564BAA891A704A48062245F20701FFF7C2
:1051A000AFFC80E7344B1B78002B3FF47CAF504BB7
:1051B000504E95F820702C8A6A8AA98AE88A37703E
:1051C000B5F818E06F8B1C80AE8BEC8B5A80998001
:1051D000D880002245F2F1013948A3F808E05F8148
:1051E0009E81DC81FFF78CFC5DE7434B2A7B434FBC
:1051F0001A7005F10D0605F13D0430687168B2685A
:10520000F3683D460FC51036A6422F46F5D13288C9
:105210003B4B2A8032242A481C8000224FF4A041B4
:10522000FFF76EFC3FE7144B1B78002B3FF43BAFBE
:10523000344F287C344C354938706F7C2770344AA1
:10524000AF7C0F70334EEF7C1770334B2F7D334A9A
:105250003349344C3770AE891E80ED892580012397
:105260000B70137006F07AFE2F49304C06F07EFF6B
:1052700007F0CAF8207016E7B4BCFF1F7487FF1F41
:105280003792FF1F78BEFF1FE0BCFF1F60B1FF1FFA
:10529000AC93FF1FB093FF1F50BCFF1F4CB1FF1F0B
:1052A00034BCFF1F50B1FF1FB493FF1F50BEFF1F40
:1052B0009493FF1F8096184BECBCFF1F00007A44AC
:1052C000BCA6FF1F68BCFF1F7893FF1FA4A6FF1F8B
:1052D0004CBEFF1F04170100B087FF1F28170100F5
:1052E0003417010044170100541701009C93FF1F5D
:1052F00034BAFF1F2E92FF1F78BCFF1FE894FF1FD8
:105300003492FF1F7CBCFF1F3892FF1F6496FF1F63
:1053100030BEFF1F24BAFF1F3092FF1F74B1FF1F62
:10532000BCBCFF1F9E93FF1F5C8F224018BEFF1F57
:105330007693FF1F46BEFF1F5C96FF1F2B7C994A8A
:105340001B2B137040F21982974A697C974C1068A6
:1053500021700390964E9748039FEA683760A1F149
:105360000C04B4FA84F4A1F10801934F934EDFF8D2
:10537000F4E232606409B1FA81F104704909904C99
:1053800090483970160CA97C2670120E02708E4F50
:105390008E4C8F4AEE7C287D8EF80030CB09397018
:1053A000267010700ED08B4B1A785AB98A498B4AE6
:1053B000086810604868506088689060C968D1606B
:1053C00001221A70864C874E22683578013222609D
:1053D000002D00F02C82002245F201018248FFF7E7
:1053E0008FFB012245F207017F48FFF789FB5AE650
:1053F0007C4B1B78002B3FF456AE7C4B7C497D4C9C
:105400006A6AEF692E6A1A600F60266028697A4915
:10541000DFF85482794E7A4C06F0F4FD79496F69D1
:10542000AD6906F0A3FE7449C8F80000384606F0DE
:10543000E9FD744906F09AFE6F493060284606F08F
:10544000E1FD704906F092FE0022206045F206015F
:105450006548FFF755FB26E6624B1B78002B3FF4AF
:1054600022AE694A694B6A4995F821001278187092
:1054700001230B70002A7FF416AE664A1278002AC8
:105480007FF411AE644A654C137006F067FD644901
:1054900006F06CFE06F0B8FF207004E6514B1B7856
:1054A000002B3FF400AEEA682B695E495E486C69E8
:1054B0000460C1E9002313433FF4F5AD5B4B0122C7
:1054C0001A70F0E5474B1B78002B3FF4ECADDFF88A
:1054D0009CA1AB89DFF89891DFF89881544EAA7BA4
:1054E000287D544F544CAAF80030EB7B89F80020FB
:1054F00088F800302A696B7D3070504950483A6016
:105500002370FBF737F84F494D48FBF733F8BAF8EB
:1055100000104B4803F024FB4B494948FBF72AF89D
:1055200099F80010464800230A2203F0D9FA4749A7
:105530004348FBF71FF800230A2298F80010404860
:1055400003F0CEFA42493E48FBF714F839683C486C
:1055500003F006FB3F493A48FBF70CF8317838482E
:1055600000230A2203F0BCFA3B493548FBF702F856
:105570002178334800230A2203F0B2FA304803F0BE
:1055800089FA90E5174B1B78002B3FF48CADAB8963
:10559000324A1380002B3FF486AD314B01221A7042
:1055A00081E500BF19BEFF1F24C0FF1FA4BFFF1F5E
:1055B0009CB1FF1F1CBAFF1FB293FF1F8496FF1FF1
:1055C0007E96FF1F58BCFF1FE4BCFF1FB5BCFF1F2A
:1055D00062BCFF1F64B1FF1FECBCFF1F6493FF1F81
:1055E00010B2FF1FB4BCFF1FBCA6FF1FA8BFFF1F48
:1055F0007896FF1F74BEFF1F00003443B4A6FF1F40
:105600002CBCFF1FDB0F4940A3BFFF1F32BEFF1F93
:10561000DCBCFF1FBCBCFF1F74B1FF1F18BEFF1F07
:105620005C8F224040BCFF1FD4BCFF1F31BEFF1F58
:1056300058B1FF1F20C0FF1F3692FF1F90170100B7
:10564000B087FF1FB4170100C4170100D417010071
:10565000E817010000180100181801006CB1FF1FC5
:10566000B6BCFF1F01B2FF1F10C0FF1F7CBEFF1F93
:105670007CB1FF1F04BEFF1FA84B1B78002B3FF41B
:1056800012ADA74E2F8AA74C3780A7496E8A268075
:10569000A64BAE8A0E80A648EE8A1E80A54A2E8BA7
:1056A0000680A54F688BA54CA549A64B1080B5F880
:1056B0001CE0EE8B288C6A8CA7F800E0268008801E
:1056C0001A80F0E4954B1B78002B3FF4ECAC9E491C
:1056D0009E4BE8682A6908601A60E4E48F4B1B78E7
:1056E000002B3FF4E0AC9A4A9A4B95F834002F8A8D
:1056F0006E8AAC8A1070E88A2A8B1F805E806F8B5E
:10570000AE8B9C80D880EC8B288C1A8192496A8C55
:105710005F819E81AF8CEE8CDC8118822C8D688D30
:105720005A82AA8D9F82DE821C8358839A838B4E75
:10573000EA8D8B4C0978B5F830E06F8E95F835001E
:10574000DA830122A3F820E05F8430702270002900
:105750007FF4A9AC834B844C1A7096E66F4B1B7890
:10576000002B3FF4A0AC814BEA681A60804800220D
:1057700045F20601FFF7C4F995E47E4ADA40D20704
:105780003FF591ACE0E57C4FB5F91C007B4C7C4AC1
:105790003880EF687B497C4B27607C4E2C69EF8B0F
:1057A0001460AA696C690C601A60378006F0D6FB39
:1057B000774B0246DA606E48002245F20501FFF79A
:1057C0009FF9002245F2F2016948FFF799F96AE46E
:1057D00070497148FAF7CEFE70496F48FAF7CAFE71
:1057E00031466D48FAF7C6FE6D496B48FAF7C2FEBE
:1057F000386805F05DFF032502460B4600956648B4
:1058000003F0B6F9644803F045F9BAF80030654A88
:105810005748C3EBC30302EB8303002521462A4606
:105820001D76FFF76DF93EE45F4B1A803BE45F495C
:105830005948FAF79FFE2B460A222168564803F082
:105840004FF95B495448FAF7A3FE2368022B7FF611
:10585000C2AD0123574950483370FAF799FE04A8A6
:10586000544903F09DFA04A803F05AFAB3E544F250
:10587000A012934223D9504B1A78062A45D005220C
:105880001A70FFF751BA44F2A01293422BD94B4B36
:105890001A78062A3DD005221A70FFF714BA484933
:1058A0003D48FAF775FEFFF7FEBB464B3048C3F89C
:1058B00000B0042245F20701FFF722F934E443F275
:1058C0003812934200F2888042F2D002934200F2F2
:1058D000938041F268029342374B00F29980002294
:1058E0001A70FFF721BA43F2381293426CD842F291
:1058F000D002934278D841F2680293422F4B00F2D3
:10590000838000221A70FFF7DEB904221A70FFF7B5
:105910000BBA04221A70FFF7D6B900BFB4BCFF1F40
:105920007EB1FF1FA8A6FF1F6696FF1F6C96FF1F84
:105930004EBEFF1F14B2FF1F2C92FF1F10BEFF1F91
:105940001ABEFF1F38BCFF1F34BEFF1F38BEFF1F2B
:1059500063BCFF1F80BCFF1FBCBCFF1F5BBEFF1FE3
:10596000A3BFFF1F74B1FF1F18BEFF1F9093FF1F3F
:10597000BCA6FF1F600004086A96FF1FB0A6FF1FA9
:105980008893FF1F8096FF1F88B1FF1F7C96FF1F23
:10599000ECBCFF1FA8160100B087FF1FE016010036
:1059A000F01601006CBAFF1F5AB1FF1F8C160100E0
:1059B000DC160100981601008896FF1F58BEFF1FD5
:1059C00064170100A0A6FF1F134B1A78052AA0D167
:1059D00003221A70FFF777B9104B1A78052A94D171
:1059E00003221A70FFF7A0B90B4B1A78042AEFD1E3
:1059F00002221A70FFF767B9084B1A78042AEFD110
:105A000002221A70FFF790B91A78032AF0D178E7CA
:105A10001A78032AF4D162E758BEFF1F8896FF1F49
:105A20002DE9F043324C334B334F344D344E07CCD9
:105A3000C3F80D00C3F8111003CFC3F81520C3F845
:105A40002B00C3F82F1007CDC3F83F00C3F8431055
:105A5000C3F8472003CE01223F785A70294DB4F88D
:105A6000008083F833704FF46142002703249A606A
:105A70004FF0020C09229C71C3F85D009F701F71EA
:105A80005F71DA701A73A3F8198083F807C0C3F83E
:105A9000611003CD1C4C3688C3F87100C3F8751033
:105AA00007CCA3F86560194EB5F800903688184DFC
:105AB00083F8A270174FA3F888602688A4782D88F1
:105AC0003F88A3F87990C3F88D00C3F89110C3F80C
:105AD0009520A3F8996083F89B4003F1710E83F839
