:1000000000800020BD010000095F0000C15E00000B
:10001000C15E0000C15E0000C15E0000C15E000064
:10002000C15E0000C15E0000C15E0000095F00000B
:10003000095F0000C15E0000157A0000197B000016
:10004000095F0000095F0000095F0000095F000010
:10005000095F0000095F0000095F0000095F000000
:10006000095F0000095F0000095F0000095F0000F0
:10007000095F0000095F0000095F0000095F0000E0
:10008000095F0000095F0000095F0000095F0000D0
:10009000095F0000095F0000095F0000095F0000C0
:1000A000095F0000095F0000095F0000095F0000B0
:1000B000095F0000095F0000095F0000095F0000A0
:1000C000095F0000095F0000095F0000095F000090
:1000D000095F0000095F0000095F0000095F000080
:1000E000095F0000095F0000095F0000095F000070
:1000F000095F000029640000095F000071670000CB
:10010000095F00007D800000095F0000095F0000BA
:10011000095F0000095F0000095F0000095F00003F
:10012000095F0000095F0000095F0000095F00002F
:10013000095F0000095F0000095F0000095F00001F
:10014000095F0000095F0000095F0000095F00000F
:10015000095F0000095F0000095F0000095F0000FF
:10016000095F0000316A0000095F0000095F0000BC
:10017000095F0000095F0000095F0000095F0000DF
:10018000095F0000095F0000095F0000095F0000CF
:10019000095F0000095F0000095F0000095F0000BF
:1001A000095F0000095F0000095F0000095F0000AF
:1001B000095F0000095F0000095F0000564B4CF228
:1001C000205210B51A804DF628121A8000BF00BFC9
:1001D00005F09EFE514B4FF010621A60504A9A6033
:1001E000504ADA60504A136813F4807304D14F49BF
:1001F0000B604FF4A85313604D4B1A78110703D5C9
:100200001A7842F008021A704A4B4B492A221A7097
:100210004A4A4B4B8B4204D252F8040F43F8040B6A
:10022000F8E7484B484900228B4202D243F8042B9E
:10023000FAE74649464A002352F8230041F82300D2
:1002400001336F2BF8D1434B434A802103F8011B44
:100250009342FBD1414B3D4A1A60414B8A221A70AE
:10026000A3F5805324225A70A0221A709A7992071B
:10027000FCD59A79D406FCD43A4A937903F00C035E
:10028000082B384BF9D103221A7140225A719A79FE
:100290009006FCD5334A9179324B4906FBD5324A58
:1002A000324911600221516020221A709A7902F0BD
:1002B0000C020C2AFAD12E4B2E4A1A602E4B2F4AD2
:1002C0001A6000225A60072243F8042C2C4AC3F813
:1002D0000C2D62B605F022FF144B1B68DA0705D51A
:1002E000284805F0AFFE284B284A1A60284B1B7897
:1002F0005B0609D5244C254B22689A4204D121483B
:1003000005F0A0FE002323600BF042F805F006FE86
:1003100007F0A2FDFEE700BF0E200540308004403C
:10032000823F04000100002B10D0034014D0034092
:1003300002D0074000E007407C90FF1F1CE2000055
:100340002087FF1F8090FF1F44BDFF1F0082FF1FFB
:100350000000000000E400E05FE400E008ED00E0E1
:100360000050064000400640448004400000030165
:1003700004800440C010050014E000E0FF76010096
:100380000000202094915E5E1CE00340A5C3945AB7
:1003900000F00740FFFFFFFFFFFFFFFFFFFFFFFF32
:1003A000FFFFFFFFFFFFFFFFFFFFFFFFFFFFFFFF5D
:1003B000FFFFFFFFFFFFFFFFFFFFFFFFFFFFFFFF4D
:1003C000FFFFFFFFFFFFFFFFFFFFFFFFFFFFFFFF3D
:1003D000FFFFFFFFFFFFFFFFFFFFFFFFFFFFFFFF2D
:1003E000FFFFFFFFFFFFFFFFFFFFFFFFFFFFFFFF1D
:1003F000FFFFFFFFFFFFFFFFFFFFFFFFFFFFFFFF0D
:10040000FFFFFFFFFFFFFFFFFFFFFFFFDEF9FFFF23
:1004100010B5054C237833B9044B13B10448AFF33E
:1004200000800123237010BD8090FF1F000000009A
:1004300020E20000084B10B51BB108490848AFF393
:1004400000800848036803B910BD074B002BFBD0A0
:10045000BDE81040184700BF000000008490FF1F57
:1004600020E200007C90FF1F00000000044B0549C3
:100470001A68137843F0200313700870704700BFA8
:1004800068B8FF1F44BAFF1F2DE9F0413D4DAA781F
:10049000EC78FE2A5CD0012C0BD92B19DB7A13B136
:1004A00007E0DB7A2BB9013CE4B2012C05EB040335
:1004B000F7D1AB68344E334F3270C3F317231A129F
:1004C0001814A97995F8048095F805E03272F37153
:1004D000EA792B7A70723171727107F10C01224640
:1004E00006F10A00747086F803E0B37186F80280A2
:1004F00005F04CFC04F10A0118F0010F06EB0102B3
:1005000010D109212888107000125070002319445E
:10051000033121441D4B1C4889B2BDE8F0411980CC
:1005200006F07EB83B887354D7F816E1D7F81A6105
:10053000D7F81E5197F82201C2F802E01B1253703F
:10054000C2F806600D23C2F80A5090730921DEE755
:10055000AB680D4EA97995F807E02F7A3270C3F396
:1005600017232246B170B01D05F10C017371747030
:1005700086F803E0377105F009FCA21D324405211D
:10058000C0E700BFFCB8FF1F5092FF1FA690FF1FDF
:1005900030B5244C94F8683B0A2BCBB0224B34D0B6
:1005A0002249002540F2231201A81D7005F0EEFB40
:1005B000D4F8643B04F65E3503F22313AB42C4F86F
:1005C000643B08BF234601A940F22312184608BF26
:1005D000C4F8644B05F0DAFB94F8682B11490A2A39
:1005E000034607D0501C81F8680B0AB9C1F8603B7C
:1005F0004BB030BDD1F8603B03F22313AB4208BFD0
:100600000B46C1F8603B4BB030BD012223210848A6
:100610001A7007F08DF807484BB0BDE8304007F07E
:10062000A9BA00BFE899FF1F32BAFF1FB893FF1F96
:1006300040CF00008487FF1F2DE9F04FADF50F7DFF
:1006400006F052F8002838D006F05EF8AE4BAE4CFB
:10065000DB78C2B20021039221700F2B00F2BD8122
:10066000DFE813F0B001B0019401880171015A0173
:100670003B0124010401E300BF009F00570030004C
:1006800030001000A04BA14A5B7B049211465E1E15
:100690009D4A9DF80C00CB1AF6B2567383F82301DD
:1006A000002E00F03282CA789949CA70964A002317
:1006B000937006F019F80028C6D101200DF50F7DC2
:1006C000BDE8F08F0E2B914B049305D01B88039A45
:1006D000B2EB132F00F07E868B4A02231370049A2C
:1006E0009DF80C10137982F8151113F0010F87494A
:1006F000854B00F0D28184481B780F22C270022BF8
:100700004FF00D02427300F09C860023CA780370FC
:10071000CAE77E4B04939C687E4DBD20C4F317242A
:1007200003467D2200210AE0581E43185A1C520835
:10073000884202EB420240F28C8155F822200133BC
:1007400094424FEA5303EFD31946EED8944200F097
:10075000798100210B46049C2088434083EA0313DF
:10076000DBB2DA0082EA032282EA102282EA131361
:10077000DAB22380039B9A4200F01686624B0E2267
:10078000DA70049B9DF80C2083F814215F4C29B18A
:100790005D4B8A791B799342C0F00B86049BDA7813
:1007A00082E7594B039D1979584B574C1E460B4411
:1007B00001311D7330882B46434083EA0313DBB2BB
:1007C000DA0082EA032282EA1020F278C9B280EAD3
:1007D00013139142217133807FF466AF0C23E370D1
:1007E00062E74A4B039A1C88624082EA0212D2B244
:1007F000D1001D4681EA02219B68000400F47F00BD
:1008000081EA142140EA132381EA1211EA786B721B
:10081000C3F307201B0CA872EB722980002A00F09A
:100820001E8139490B23CB703EE7384B1C889968F1
:100830001D46039B634083EA0313DBB2DA0082EABE
:10084000032282EA1422000282EA131300F47F409A
:1008500040EA11212B802C4B69720A0CC1F307204E
:100860000A21EA72A872EA78D9701DE72749264B57
:1008700008881C7B039B4B72434083EA0313DBB263
:10088000DA0082EA032282EA102282EA13130020AD
:10089000E2070B808872C8721B4B40F1FA80CA785D
:1008A000002A00F028810B21D970FDE6174B19882A
:1008B0001C461846039B03724B4083EA0313DBB2CA
:1008C000DA0082EA032282EA112282EA13132380E9
:1008D0000D4BE2780821D970E6E60C4B19881C46CE
:1008E0001846039BC3714B4083EA0313DBB2DA0063
:1008F00082EA032282EA112282EA13132380024B46
:10090000E2780721D970CFE6B0A5FF1F0C95FF1F35
:10091000B893FF1F3CD50000984B19881C46184619
:10092000039B83714B4083EA0313DBB2DA0082EA54
:10093000032282EA112282EA13132380904BE27889
:100940000621D970B0E68D4B19881C461846039BCA
:1009500043714B4083EA0313DBB2DA0082EA0322DD
:1009600082EA112282EA13132380854BE278052163
:10097000D97099E6814C9DF80C30237110F0FE0F70
:1009800071D07F49E2780123CB708DE67B487C4BA8
:1009900004881D7B039BC370634083EA0313DBB2AF
:1009A000D90081EA032181EA142181EA131303802B
:1009B000734B0021EC07197168D505240171417151
:1009C000DC7071E6039BFD2B00F0D984039BFE2BAA
:1009D00000F0F984694BDA7866E6684B04931A46AE
:1009E000684BD278DA70664B00249C70A31E012BF2
:1009F00016D9002C3FF424AEFFF7CAFD20E6614A69
:100A00009DF81410D1705E490023022C8B70EDD13B
:100A1000049890F8151190F8143143EA01231380DB
:100A20000398574901230022FD288B700A7001D0DA
:100A3000CB7005E6049D02204FF6FF73EA70C87084
:100A40002B80FDE5504B01EB410103EB81010B795C
:100A500081E64D4B01EB410253F8222076E64849EE
:100A60000C23CB7020E62088039BE278434083EA86
:100A70000313DBB2D90081EA032181EA102181EA64
:100A8000131323803E4B0421D9700DE60321D97046
:100A90000AE60920CA78D87006E61B693BB11B6BD1
:100AA000002B2BD089683648090A984730B3344B5D
:100AB0001C78334D314933480123EB7040F2231247
:100AC00005F064F9049BDB780593012C97D12C4B3E
:100AD000049A2B491B8992794A7103B94B812848A2
:100AE000284901330022038182709DF81430CB70B5
:100AF000FFF74EFDA4E50C21D970D5E5204B1C78FD
:100B0000022CD6D003241C70D3E7136952691093CA
:100B10001C461192002B00F08D8454F8100F1B4DD1
:100B200037951B4D6168A268E3681A4F38951A4DD6
:100B30003D953A97DFF86CE0184FDFF86CC03C97B2
:100B40003EADCDF8ECC0CDF8E4E00FC5049B2069C4
:100B5000DA786169E36905921746A26935963C46E1
:100B60000A340FC5049B0294E40004F580740C4E13
:100B7000349402333696069320241BE00C95FF1F15
:100B8000B0A5FF1FB893FF1F3CD5000085AE67BB23
:100B900072F36E3C7F520E5119CDE05BABD9831FCF
:100BA00067E6096A3AF54FA58C68059B029B002B06
:100BB00000F0CD80029D069EC4F14003AB4228BFE9
:100BC0002B46ED1A02953EA8354620441D441C4490
:100BD0001A463146069505F0D9F8402CE6D134AADC
:100BE00022AB92F82B0092F82A101870597092F8E4
:100BF000290092F82810D970987032A904339942CC
:100C000002F10402EDD1369B0793379B0893389B82
:100C10000993399B0A933A9B0B933B9B0C933C9B08
:100C20000D930DF59A7A3D9B0E93524621AB53F8E6
:100C3000041F42F8041F31A98B42F8D10DF5B67894
:100C40000DF5AC7C0DF59C7E5DAF5646302558F811
:100C5000044F5EF8043F56F8042F5CF8041F4FEA77
:100C6000F440114480EA74404FEAB34280EA942091
:100C700082EAF312014482EAD3030B44013D47F8B0
:100C8000043FE4D10E9ADFF8B892A94BDDF828B002
:100C9000DDF820E0099F079EDDF834C0DDF83080E4
:100CA00001920B9D0AE059F8043FCDF804C0BB4601
:100CB000C4467746A846B646254606464FEAF5227C
:100CC00005EA080182EAB5122CEA050482EA756297
:100CD0004C405AF8041F144421441944019B87EAEC
:100CE0000E024FEA7630194402EA060480EAB600A2
:100CF00007EA0E028F4B544080EAB65020444B4521
:100D000001EB0B040844CED10A99079A39440F46E7
:100D10000B99399721440C460C993A940244294482
:100D200013460D46089A0D993693324441441646AF
:100D30000846099A0E99029B37967244614438928C
:100D40003B953C903D910024002B7FF433AF349CC5
:100D500004F110039C42349300F27C83764B07939A
:100D60000223C4F3C504069303E0069B002B00F0A6
:100D7000D080069D079EC4F14003AB4228BF2B469E
:100D8000ED1A06953EA8354620441D441C441A46DB
:100D90003146079504F0FAFF402CE6D134AA22AB85
:100DA00092F82B0092F82A101870597092F82900C6
:100DB00092F82810D970987032A90433994202F140
:100DC0000402EDD1369B0893379B0993389B0A9315
:100DD000399B0B933A9B0C933B9B0D933C9B0E933F
:100DE0000DF59A7A3D9B0F93524621AB53F8041FA1
:100DF00042F8041F31A98B42F8D10DF5B6780DF5F4
:100E0000AC7C0DF59C7E5DAF5646302558F8044FFE
:100E10005EF8043F56F8042F5CF8041F4FEAF440D4
:100E2000114480EA74404FEAB34280EA942082EA97
:100E3000F312014482EAD3030B44013D47F8043F17
:100E4000E4D13B4B0F9ADFF8F890DDF82CB0DDF8D9
:100E500024E00A9F089EDDF838C0DDF83480019256
:100E60000C9D02930BE0CDF804C0C446A8461D4675
:100E700059F8043F0293BB467746B64606464FEA0A
:100E8000F52205EA080182EAB5122CEA050482EA95
:100E900075624C405AF8041F019B144487EA0E0205
:100EA00021444FEA763002EA060407EA0E021944AA
:100EB0005440029B1F4A80EAB60080EAB6501944AB
:100EC00020444A4501EB0B030844CCD10B99089A06
:100ED00039440F460C99399719440B460D993A93AA
:100EE0000244294414460D46099A0E99069B3694ED
:100EF00032444144164608460A9A0F99379672447E
:100F0000614438923B953C903D910024002B7FF446
:100F100030AF349C04F138039C42349300F2968243
:100F2000064B07930723C4F3C50406930EE000BFE6
:100F3000982F8A423CCF00002096FF1F2296FF1F69
:100F400040CE0000069B002B00F0D080069D079E3F
:100F5000C4F14003AB4228BF2B46ED1A06953EA8CC
:100F6000354620441D441C441A463146079504F07A
:100F70000DFF402CE6D134AA22AB92F82B0092F858
:100F80002A101870597092F8290092F82810D97018
:100F9000987032A90433994202F10402EDD1369BD4
:100FA0000893379B0993389B0A93399B0B933A9B81
:100FB0000C933B9B0D933C9B0E930DF59A7A3D9BB6
:100FC0000F93524621AB53F8041F42F8041F31A976
:100FD0008B42F8D10DF5B6780DF5AC7C0DF59C7E05
:100FE0005DAF5646302558F8044F5EF8043F56F87A
:100FF000042F5CF8041F4FEAF440114480EA744067
:101000004FEAB34280EA942082EAF312014482EA72
:10101000D3030B44013D47F8043FE4D18B4B0F9AB7
:10102000DFF83092DDF82CB0DDF824E00A9F089E4E
:10103000DDF838C0DDF8348001920C9D02930BE09E
:10104000CDF804C0C446A8461D4659F8043F029393
:10105000BB467746B64606464FEAF52205EA080142
:1010600082EAB5122CEA050482EA75624C405AF80D
:10107000041F019B144487EA0E0221444FEA763094
:1010800002EA060407EA0E0219445440029B704A21
:1010900080EAB60080EAB650194420444A4501EB84
:1010A0000B030844CCD10B99089A39440F460C998C
:1010B000399719440B460D993A9302442944144632
:1010C0000D46099A0E99069B3694324441441646C1
:1010D00008460A9A0F9937967244614438923B95B4
:1010E0003C903D910024002B7FF430AF349D069955
:1010F000C5F3C504C4F177068023472206F03F06F6
:101100000DF189008DF888300AF0C8FC06F109025B
:101110001046069222AA1644359B33712A0AF271B0
:101120002A0E72711A0C290CB27005EBC00295429E
:10113000B1714FEA1321F1704FEA136184BF01339B
:10114000359322AB357271703492079303E0069B9E
:10115000002B00F0D780069D079EC4F14003AB42F0
:1011600028BF2B46ED1A06953EA8354620441D445F
:101170001C441A463146079504F008FE402CE6D17F
:1011800034AA12AB92F82B0092F82A1018705970FA
:1011900092F8290092F82810D970987022A9043387
:1011A000994202F10402EDD1369B0893379B0993D3
:1011B000389B0A93399B0B933A9B0C933B9B0D9363
:1011C0003C9B0E930DF59A7A3D9B0F93524611ABC3
:1011D00053F8041F42F8041F21A98B42F8D10DF5E2
:1011E000B6780DF5AC7C0DF59C7E5DAF564630258E
:1011F00058F8044F5EF8043F56F8042F5CF8041FBB
:101200004FEAF440114480EA74404FEAB34280EA66
:10121000942082EAF312014482EAD3030B44013D95
:1012200047F8043FE4D1094B0F9ADFF82890DDF826
:101230002CB0DDF824E00A9F089EDDF838C0DDF808
:10124000348001920C9D029312E000BF982F8A42D5
:101250003CCF000040CE0000CDF804C0C446A846F4
:101260001D4659F8043F0293BB467746B6460646EC
:101270004FEAF52205EA080182EAB5122CEA0504D4
:1012800082EA75624C405AF8041F019B144487EAB5
:101290000E0221444FEA763002EA060407EA0E0203
:1012A00019445440029B8E4A80EAB60080EAB65048
:1012B00019442044914501EB0B030844CCD10B9910
:1012C000089A39440F460C99399719440B460D99E1
:1012D0003A930244294414460D46099A0E99069BF6
:1012E000369432444144164608460A9A0F99379676
:1012F0007244614438923B953C903D910024002B10
:101300007FF429AF9DF8DB309DF8DA20754C9DF80D
:10131000D8008DF848308DF849209DF8D9309DF8D7
:10132000DF208DF84A308DF84B009DF8DE308DF8C7
:101330004C2004F21D1112A806228DF84D300AF03F
:1013400017FB002800F08A80109B1B6B4BB1049A9E
:1013500065489168634C090A984700286AD1E37888
:101360000593614B03241C705F4D5E495F48012368
:1013700040F22312EB7004F009FDFFF7A6BB5A4BB5
:10138000584A1B7B104623F0010357499DF80C4037
:101390000B734FF6FF7354490380002202238470BD
:1013A000C270CB70FFF780B94F4A0D23D370FFF79F
:1013B000E8B904F10C00D21A184400210AF06EFBBF
:1013C000E278FFF771B9484B464A1B7B104643F061
:1013D0000103DAE7444A01231370FFF780B90F28AD
:1013E000B2D8DDE92267109B414AD3E90245921940
:1013F0004FF000037B41AB4208BFA242A4D3119A35
:10140000049D00EBC0041444EB79E3702B7A237144
:10141000013084F802E0053410800B6823608B886B
:101420001099A380D1E90223BB4208BFB24201D286
:10143000C1E90267049BDB7805932B4B01241C70E8
:1014400092E72A4ACB78D370FFF7E2BA359B013393
:10145000359365E5359B013335937FE404F217112D
:1014600000230022CDE92223119B08688D8894F87F
:1014700016E12290ADF88C50002B3FF465AF188830
:101480000028AED0E579267A069C04E094B2844226
:1014900003F10903A3D0DF78AF4204F10102F5D1D3
:1014A0001F79B742F2D19F787745EFD1844296D029
:1014B000119B04EBC40423441C468EAD0022002380
:1014C00065E9402354F8050F2860A388AB80D5E96F
:1014D0000023DDE92267BB4208BFB2429DD333E758
:1014E0003CCF00000C95FF1FB0A5FF1FB893FF1F56
:1014F000808D5B002DE9F04FADF5137D00260327AD
:1015000004244FF0060E10AB8DF845708DF848702E
:1015100010948DF844E08DF846608DF8476093E8AC
:101520000700974BDFF890A25E720C3303C39AF862
:101530000CC0944994481A700F70944ADFF87C826A
:1015400003F80A6C8E4D924F80F800E00CF0020315
:10155000DFF86CC216701420012188F80040EE728A
:1015600003F0FF028CF80000397043BBDAF810304A
:10157000002B00F0F48593F800E00EEA010E80499C
:10158000FD238B70092701F1150313F8016DF9B2E2
:10159000002E40F0E085013F012FF6D13946784C0E
:1015A00014200123E170E0712372BEF1000F00F0FE
:1015B000D985237108204FF0FD0C0A2412E0704DEC
:1015C00009234FF0FE0CE871297220461F4674462D
:1015D000EB70194685F802C00826694B4FF0000EE3
:1015E00083F804E09AF80630654D8DF84CC003F19D
:1015F00001094FF00008AB718AF806908DF84D1084
:1016000085F80580002A5AD014228DF84E30012327
:101610008DF851808DF84F208DF850304FF6FF72C5
:1016200090460DF14D0C0B4601E01CF8013F534074
:1016300083EA0313DBB2D900013881EA032180B2C7
:1016400081EA1222404582EA1312EED151480D364A
:10165000A0F10C031E4410F8013B534083EA03132E
:10166000DBB2D90081EA032181EA122282EA131354
:101670001BB2B0429AB2EED183F0320383EA031375
:10168000DBB2D90081EA032181EA12223C4982EAD5
:1016900013130F441BB23B73CA780E469BB20A4425
:1016A000191251733380BEF1000F1FD13A4B9B7852
:1016B000002B00F04A850DF5137DBDE8F08F95F8FD
:1016C00004C08DF84EC04FF014084FF0010C8DF897
:1016D0004F208DF850308DF853208DF854208DF820
:1016E00055208DF851808DF852C097E7DAF81050E8
:1016F000F3780D93002DD9D02B78DB07D6D56B78F6
:1017000086F81631D5E9022392A961E98423086895
:101710008B88C6F81701A6F81B31D5E902230132E0
:1017200043F10003C5E902231C4E55F8100F3C9607
:101730001B4F1C4E6968AA68EB683D973E961A4F8E
:101740001A4E3F9740961A4FDFF878E0419742AE25
:10175000CDF8ECE00FC6274628696969AA69EB69EC
:1017600003944FF48075134C3A9405EBC70500249D
:1017700013AF049739940FC62024389528E000BF92
:10178000FCB8FF1F81AEFF1F2AB7FF1FB890FF1FD5
:1017900074B8FF1F08B9FF1F54B7FF1F72F36E3CE8
:1017A0003AF54FA57F520E518C68059BABD9831F2C
:1017B00019CDE05B67E6096AB0A5FF1FE499FF1F3A
:1017C00033BAFF1F85AE67BB039B002B00F0D180AF
:1017D000039D049EC4F14003AB4228BF2B46ED1A83
:1017E000039542A8354620441D441C441A46314600
:1017F000049504F0CBFA402CE6D138AA26AB92F837
:101800002B0092F82A101870597092F8290092F85B
:101810002810D970987036A90433994202F1040255
:10182000EDD13A9B05933B9B06933C9B07933D9BD5
:1018300008933E9B09933F9B0A93409B0B930DF5A6
:10184000A27A419B0C93524625AB53F8041F42F8F1
:10185000041F35A99942F8D10DF5BE780DF5B47C79
:101860000DF5A47E61AF5646102558F8044F5EF87A
:10187000043F56F8042F5CF8041F4FEAF44011446B
:1018800080EA74404FEAB34280EA942082EAF3127D
:10189000014482EAD30301350B44402D47F8043F4D
:1018A000E3D1B24B0C9ADFF8D092DDF820B0DDF82E
:1018B00018E0079F059EDDF82CC0DDF82880019216
:1018C000099D02930BE0CDF804C0C446A8461D460E
:1018D00059F8043F0293BB467746B64606464FEAA0
:1018E000F52205EA080182EAB5122CEA050482EA2B
:1018F00075624C405AF8041F019B144487EA0E029B
:1019000021444FEA763002EA060407EA0E0219443F
:101910005440029B964A80EAB60080EAB6501944C9
:1019200020444A4501EB0B030844CCD10899059AA1
:1019300039440F4609993D9719440B460A993E933D
:101940000244294414460D46069A0B99039B3A9487
:101950003244414416460846079A0C993B96724415
:1019600061443C923F95409041910024002B7FF4CC
:101970002FAF389D0D9B05EBC304A542389402D9C7
:10198000399B013339930D9BC5F3C505002B00F03E
:10199000DA800393774B049303E0039B002B00F062
:1019A000D180039C049EC5F14003A34228BF234677
:1019B000E41A039442A8344628441C441D441A46A1
:1019C0003146049404F0E2F9402DE6D138AA26AB62
:1019D00092F82B0092F82A101870597092F829008A
:1019E00092F82810D970987036A90433994202F100
:1019F0000402EDD13A9B05933B9B06933C9B0793D6
:101A00003D9B08933E9B09933F9B0A93409B0B93FE
:101A10000DF5A27A419B0C93524625AB53F8041F57
:101A200042F8041F35A99942F8D10DF5BE780DF59D
:101A3000B47C0DF5A47E61AF5646102558F8044FCE
:101A40005EF8043F56F8042F5CF8041F4FEAF44098
:101A5000114480EA74404FEAB34280EA942082EA5B
:101A6000F312014482EAD30301350B44402D47F8B9
:101A7000043FE3D13D4B0C9ADFF8FC90DDF820B039
:101A8000DDF818E0079F059EDDF82CC0DDF8288002
:101A90000192099D02930BE0CDF804C0C446A8460C
:101AA0001D4659F8043F0293BB467746B6460646A4
:101AB0004FEAF52205EA080182EAB5122CEA05048C
:101AC00082EA75624C405AF8041F019B144487EA6D
:101AD0000E0221444FEA763002EA060407EA0E02BB
:101AE00019445440029B224A80EAB60080EAB6506C
:101AF00019442044914501EB0B030844CCD10899CB
:101B0000059A39440F4609993D9719440B460A999D
:101B10003E93024429440D4614460B99069A039BB2
:101B20003F953244414416460846079A0C993A9428
:101B3000724461443B963C92409041910025002BB9
:101B40007FF42FAF389C04F11003A342389302D2E4
:101B5000399B013339930D9B1A46064B1A440223D5
:101B60000492C4F3C50403930CE000BF982F8A428B
:101B70003CCF000008B9FF1F40CE0000039B002BA4
:101B800000F0D180039D049EC4F14003AB4228BF06
:101B90002B46ED1A039542A8354620441D441C44AB
:101BA0001A463146049504F0F1F8402CE6D138AAE3
:101BB00026AB92F8281092F82B5092F82A4092F80F
:101BC0002900D9701D705C70987036A90433994251
:101BD00002F10402EDD13A9B05933B9B06933C9B9B
:101BE00007933D9B08933E9B09933F9B0A93409B21
:101BF0000B930DF5A27A419B0C93524625AB53F8FB
:101C0000041F42F8041F35A99942F8D10DF5BE789A
:101C10000DF5B47C0DF5A47E61AF5646102558F83D
:101C2000044F5EF8043F56F8042F5CF8041F4FEA97
:101C3000F440114480EA74404FEAB34280EA9420B1
:101C400082EAF312014482EAD30301350B44402DAA
:101C500047F8043FE3D1BF4B0C9ADFF80493DDF85B
:101C600020B0DDF818E0079F059EDDF82CC0DDF8F8
:101C700028800192099D02930BE0CDF804C0C44670
:101C8000A8461D4659F8043F0293BB467746B64620
:101C900006464FEAF52205EA080182EAB5122CEA67
:101CA000050482EA75624C405AF8041F019B1444F3
:101CB00087EA0E0221444FEA763002EA060407EA78
:101CC0000E0219445440029BA34A80EAB60080EAFF
:101CD000B650194420444A4501EB0B030844CCD1CB
:101CE0000899059A39440F4609993D9719440B46BE
:101CF0000A993E930244294414460D46069A0B99CC
:101D0000039B3A943244414416460846079A0C997C
:101D10003B96724461443C923F954090419100242F
:101D2000002B7FF42FAF389C04F138039C4238938A
:101D300002D9399B01333993884B04930723C4F3A9
:101D4000C504039303E0039B002B00F0D180039DA7
:101D5000049EC4F14003AB4228BF2B46ED1A039505
:101D600042A8354620441D441C441A463146049579
:101D700004F00CF8402CE6D138AA26AB92F82810D3
:101D800092F82B5092F82A4092F82900D9701D70D1
:101D90005C70987036A90433994202F10402EDD1C7
:101DA0003A9B05933B9B06933C9B07933D9B089373
:101DB0003E9B09933F9B0A93409B0B930DF5A27AA0
:101DC000419B0C93524625AB53F8041F42F8041F65
:101DD00035A99942F8D10DF5BE780DF5B47C0DF515
:101DE000A47E61AF5646102558F8044F5EF8043FB4
:101DF00056F8042F5CF8041F4FEAF440114480EABF
:101E000074404FEAB34280EA942082EAF31201441C
:101E100082EAD30301350B44402D47F8043FE3D158
:101E20004C4B0C9ADFF83891DDF820B0DDF818E063
:101E3000079F059EDDF82CC0DDF828800192099DE2
:101E400002930BE0CDF804C0C446A8461D4659F8DD
:101E5000043F0293BB467746B64606464FEAF52254
:101E600005EA080182EAB5122CEA050482EA7562E5
:101E70004C405AF8041F019B144487EA0E02214487
:101E80004FEA763002EA060407EA0E02194454408B
:101E9000029B314A80EAB60080EAB65019442044D9
:101EA000914501EB0B030844CCD10899059A3944BC
:101EB0000F4609993D9719440B460A993E930244EF
:101EC000294414460D46069A0B99039B3A943244D2
:101ED000414416460846079A0C993B967244614461
:101EE0003C923F95409041910024002B7FF42FAF0E
:101EF000389E0399C6F3C504C4F1770303F03F0588
:101F0000802747220DF199008DF8987009F0C6FDE1
:101F100005F109031F46039326AB2B44399A1A7126
:101F2000310AD971310E300C5971110C98719970B8
:101F3000100A06EBC701D8708E424FEA12601E727B
:101F4000587088BF013226AB389188BF399204930C
:101F50000CE000BF982F8A423CCF000012BAFF1F4E
:101F600040CE0000039B002B00F0D180039D049E17
:101F7000C4F14003AB4228BF2B46ED1A039542A89B
:101F8000354620441D441C441A463146049503F04E
:101F9000FDFE402CE6D138AA16AB92F8281092F834
:101FA0002B5092F82A4092F82900D9701D705C706D
:101FB000987026A904338B4202F10402EDD13A9BBA
:101FC00005933B9B06933C9B07933D9B08933E9B4D
:101FD00009933F9B0A93409B0B930DF5A27A419B7B
:101FE0000C93524615AB53F8041F42F8041F25A961
:101FF0009942F8D10DF5BE780DF5B47C0DF5A47EAF
:1020000061AF5646102558F8044F5EF8043F56F865
:10201000042F5CF8041F4FEAF440114480EA744036
:102020004FEAB34280EA942082EAF312014482EA42
:10203000D30301350B44402D47F8043FE3D14C4B0B
:102040000C9ADFF83C91DDF820B0DDF818E0079F2E
:10205000059EDDF82CC0DDF828800192099D0293D1
:102060000BE0CDF804C0C446A8461D4659F8043F0D
:102070000293BB467746B64606464FEAF52205EA86
:10208000080182EAB5122CEA050482EA75624C4026
:102090005AF8041F019B144487EA0E0221444FEAB8
:1020A000763002EA060407EA0E0219445440029B05
:1020B000304A80EAB60080EAB650194420444A45C6
:1020C00001EB0B030844CCD10899059A39440F461B
:1020D00009993D9719440B460A993E9302442944B5
:1020E00014460D46069A0B99039B3A943244414498
:1020F00016460846079A0C993B96724461443C92F6
:102100003F95409041910024002B7FF42FAF1A4E51
:102110009DF8EE3086F82231184B9DF8EB509B78F5
:102120009DF8EA409DF8E9009DF8E8109DF8EF2041
:1021300086F81D5186F81E4186F81F0186F8201189
:1021400086F82121002B7FF4B6AA0DF5137DBDE89A
:10215000F04FFEF799B94E1EB6B2FFF720BA964679
:10216000FFF70DBA08204FF0FD0C0A24FFF735BA2F
:10217000982F8A423CCF0000FCB8FF1F54B7FF1FC6
:1021800040CE00002DE9F04FADF5137D0121002276
:102190008DF83C108DF83D108DF83E20934E0F9831
:1021A000934D944C3270944E29702170010CB17390
:1021B000DFF864E290499EF80C3088818E488F4D9C
:1021C0008F4C8272FF21C27203F002032B26BE22C3
:1021D0004672297003EA010022709BBBDEF81030C2
:1021E000002B00F0E1851F7807F00107824CFF21EA
:1021F000FD230225BE22E171A370E5702146227203
:10220000002F00F0DA859EF806208DF84C3013ACD4
:10221000501C8EF80600002301208A716570087139
:102220004B710A250821744B22711879A070002384
:10223000FF20E37023726372BE222B236071A271B0
:10224000E37121E06C4DFE230224E9712A72AB7028
:10225000EC7004210625684C9EF80620A27113AC90
:10226000561C2370644B8EF80660002702266670A9
:102270001F715F71002800F09D85FF23A270E3703D
:10228000BE222B23227163714FF6FF7C66460DF14F
:102290004D00022301E010F8013F83EA0C0383EABA
:1022A0000313DBB2DA0082EA032282EA1C2C013932
:1022B0008CEA131389B21BB2B1421FFA83FCEAD134
:1022C0004D4A4D49127B497B534083EA0313DBB2ED
:1022D0001A0282EAC30282EA1C2282EA13131BB2A8
:1022E00081EA030282EA0211C9B2CA0082EA01222B
:1022F000C3F30723534083EA111212B282F084031E
:1023000083EA0313DBB2D90081EA0321C2F3072277
:102310004A4082EA1313384ADFF8DCC0D2781BB295
:1023200099B262448CF80E300B125373ACF8001063
:1023300067B9344B9B781BB10DF5137DBDE8F08F69
:102340000DF5137DBDE8F04FFEF79EB8DEF8106086
:102350009CF803300C93002EEBD03378DB07E8D5E4
:1023600073788CF81631D6E9022392A961E98223A9
:1023700008688B88CCF81701ACF81B31D6E902232A
:10238000013243F10003C6E902231F4F56F8100F34
:102390003C97DFF888E01D4F7168B268F368CDF8AC
:1023A000F4E03E97DFF878E0194FCDF8FCE0409775
:1023B000DFF870C0DFF870E0CDF8ECC042AFCDF8C8
:1023C00004E10FC7AE4630697169B269F3690295DD
:1023D0004FF4807C0F4D3A9500260CEBCE0503940C
:1023E000399620240FC7389524E000BF78A5FF1F39
:1023F000B090FF1F1A92FF1FFCB8FF1F94B8FF1F79
:102400008CAEFF1F54B7FF1F72F36E3C7F520E510C
:10241000ABD9831F67E6096AB0A5FF1F3AF54FA540
:102420008C68059B85AE67BB19CDE05B029B002BDA
:1024300000F0D180029D039EC4F14003AB4228BF4F
:102440002B46ED1A029542A8354620441D441C44F3
:102450001A463146039503F099FC402CE6D138AA80
:1024600026AB92F82B10197092F82A4092F8281097
:1024700092F82900D9705C70987036A9043399429B
:1024800002F10402EDD13A9B04933B9B05933C9BE4
:1024900006933D9B07933E9B08933F9B0993409B6C
:1024A0000A930DF5A27A419B0B93524625AB53F844
:1024B000041F42F8041F35A99942F8D10DF5BE78E2
:1024C0000DF5B47C0DF5A47E61AF5646102558F885
:1024D000044F5EF8043F56F8042F5CF8041F4FEADF
:1024E000F440114480EA74404FEAB34280EA9420F9
:1024F00082EAF312014482EAD30301350B44402DF2
:1025000047F8043FE3D1B24B0B9ADFF8D092DDF8E5
:102510001CB0DDF814E0069F049EDDF828C0DDF84D
:1025200024800092089D01930BE0CDF800C0C446C2
:10253000A8461D4659F8043F0193BB467746B64668
:1025400006464FEAF52205EA080182EAB5122CEAAE
:10255000050482EA75624C405AF8041F009B14443B
:1025600087EA0E0221444FEA763002EA060407EABF
:102570000E0219445440019B964A80EAB60080EA54
:10258000B650194420444A4501EB0B030844CCD112
:102590000799049A39440F4608993D9719440B4608
:1025A00009993E930244294414460D46059A0A9916
:1025B000029B3A943244414416460846069A0B99C7
:1025C0003B96724461443C923F9540904191002477
:1025D000002B7FF42FAF389D0C9B05EBC304A54265
:1025E000389402D9399B013339930C9BC5F3C50547
:1025F000002B00F0DC83784B0C9A0D93029203932E
:1026000003E0029B002B00F0D180029C039EC5F1E9
:102610004003A34228BF2346E41A029442A834464A
:1026200028441C441D441A463146039403F0AEFB73
:10263000402DE6D138AA26AB92F82B0092F82A104A
:102640001870597092F8290092F82810D970987073
:1026500036A90433994202F10402EDD13A9B049366
:102660003B9B05933C9B06933D9B07933E9B0893A6
:102670003F9B0993409B0A930DF5A27A419B0B93D4
:10268000524625AB53F8041F42F8041F35A999425E
:10269000F8D10DF5BE780DF5B47C0DF5A47E61AFD3
:1026A0005646102558F8044F5EF8043F56F8042F9C
:1026B0005CF8041F4FEAF440114480EA74404FEA8A
:1026C000B34280EA942082EAF312014482EAD303FF
:1026D00001350B44402D47F8043FE3D13C4B0B9AA6
:1026E000DFF8F890DDF81CB0DDF814E0069F049EDA
:1026F000DDF828C0DDF824800092089D01930BE0EE
:10270000CDF800C0C446A8461D4659F8043F0193C1
:10271000BB467746B64606464FEAF52205EA08016B
:1027200082EAB5122CEA050482EA75624C405AF836
:10273000041F009B144487EA0E0221444FEA7630BE
:1027400002EA060407EA0E0219445440019B214A9A
:1027500080EAB60080EAB65019442044914501EB66
:102760000B030844CCD10799049A39440F460899C1
:102770003D9719440B4609993E93024429440D465E
:1027800014460A99059A029B3F95324441441646E5
:102790000846069A0B993A94724461443B963C92DF
:1027A000409041910025002B7FF42FAF389C04F11D
:1027B0001003A342389302D2399B013339930D9B06
:1027C0000C9A134403930223C4F3C50402930BE051
:1027D000982F8A423CCF000008B9FF1F40CE00006E
:1027E000029B002B00F0D180029D039EC4F14003A8
:1027F000AB4228BF2B46ED1A029542A8354620442D
:102800001D441C441A463146039503F0BFFA402C80
:10281000E6D138AA26AB92F8281092F82B5092F8FD
:102820002A4092F82900D9701D705C70987036A902
:102830000433994202F10402EDD13A9B04933B9B8D
:1028400005933C9B06933D9B07933E9B08933F9BC0
:102850000993409B0A930DF5A27A419B0B93524634
:1028600025AB53F8041F42F8041F35A98B42F8D159
:102870000DF5BE780DF5B47C0DF5A47E61AF56461E
:10288000102558F8044F5EF8043F56F8042F5CF802
:10289000041F4FEAF440114480EA74404FEAB34207
:1028A00080EA942082EAF312014482EAD3030135DC
:1028B0000B44402D47F8043FE3D1BF4B0B9ADFF8A0
:1028C0000493DDF81CB0DDF814E0069F049EDDF8EB
:1028D00028C0DDF824800092089D01930BE0CDF81C
:1028E00000C0C446A8461D4659F8043F0193BB46A4
:1028F0007746B64606464FEAF52205EA080182EA1F
:10290000B5122CEA050482EA75624C405AF8041F9D
:10291000009B144487EA0E0221444FEA763002EA13
:10292000060407EA0E0219445440019BA34A80EAB8
:10293000B60080EAB650194420444A4501EB0B0327
:102940000844CCD10799049A39440F4608993D9719
:1029500019440B4609993E930244294414460D46F6
:10296000059A0A99029B3A94324441441646084615
:10297000069A0B993B96724461443C923F95409075
:1029800041910024002B7FF42FAF389C04F13803D1
:102990009C42389302D9399B01333993884B039376
:1029A0000723C4F3C504029303E0029B002B00F04D
:1029B000D180029D039EC4F14003AB4228BF2B4649
:1029C000ED1A029542A8354620441D441C441A467F
:1029D0003146039503F0DAF9402CE6D138AA26AB4C
:1029E00092F8281092F82B5092F82A4092F8290079
:1029F000D9701D705C70987036A90433994202F149
:102A00000402EDD13A9B04933B9B05933C9B0693B8
:102A10003D9B07933E9B08933F9B0993409B0A93E2
:102A20000DF5A27A419B0B93524625AB53F8041F38
:102A300042F8041F35A98B42F8D10DF5BE780DF58B
:102A4000B47C0DF5A47E61AF5646102558F8044FAE
:102A50005EF8043F56F8042F5CF8041F4FEAF44078
:102A6000114480EA74404FEAB34280EA942082EA3B
:102A7000F312014482EAD30301350B44402D47F899
:102A8000043FE3D14C4B0B9ADFF83891DDF81CB0D2
:102A9000DDF814E0069F049EDDF828C0DDF82480F0
:102AA0000092089D01930BE0CDF800C0C446A846F3
:102AB0001D4659F8043F0193BB467746B646064685
:102AC0004FEAF52205EA080182EAB5122CEA05046C
:102AD00082EA75624C405AF8041F009B144487EA4E
:102AE0000E0221444FEA763002EA060407EA0E029B
:102AF00019445440019B314A80EAB60080EAB6503E
:102B0000194420444A4501EB0B030844CCD10799F2
:102B1000049A39440F4608993D9719440B46099980
:102B20003E930244294414460D46059A0A99029B95
:102B30003A943244414416460846069A0B993B960D
:102B4000724461443C923F95409041910024002B97
:102B50007FF42FAF389E0299C6F3C504C4F1770302
:102B600003F03F05802747220DF199008DF89870FA
:102B700008F094FF05F109031F46029326AB2B448E
:102B8000399A1A71310AD971310E300C5971110C00
:102B900098719970100A06EBC701D8708E424FEAFF
:102BA00012601E72587088BF013226AB389188BF00
:102BB000399203930CE000BF982F8A423CCF00006B
:102BC00012BAFF1F40CE0000029B002B00F0D18004
:102BD000029D039EC4F14003AB4228BF2B46ED1A71
:102BE000029542A8354620441D441C441A463146ED
:102BF000039503F0CBF8402CE6D138AA16AB92F837
:102C0000281092F82B5092F82A4092F82900D97097
:102C10001D705C70987026A90433994202F1040279
:102C2000EDD13A9B04933B9B05933C9B06933D9BC4
:102C300007933E9B08933F9B0993409B0A930DF596
:102C4000A27A419B0B93524615AB53F8041F42F8EE
:102C5000041F25A99942F8D10DF5BE780DF5B47C75
:102C60000DF5A47E61AF5646102558F8044F5EF866
:102C7000043F56F8042F5CF8041F4FEAF440114457
:102C800080EA74404FEAB34280EA942082EAF31269
:102C9000014482EAD30301350B44402D47F8043F39
:102CA000E3D1484B0B9ADFF82C91DDF81CB0DDF82E
:102CB00014E0069F049EDDF828C0DDF82480009211
:102CC000089D01930BE0CDF800C0C446A8461D4600
:102CD00059F8043F0193BB467746B64606464FEA8D
:102CE000F52205EA080182EAB5122CEA050482EA17
:102CF00075624C405AF8041F009B144487EA0E0288
:102D000021444FEA763002EA060407EA0E0219442B
:102D10005440019B2C4A80EAB60080EAB650194420
:102D20002044914501EB0B030844CCD10799049A48
:102D300039440F4608993D9719440B4609993E932B
:102D40000244294414460D46059A0A99029B3A9476
:102D50003244414416460846069A0B993B96724403
:102D600061443C923F95409041910024002B7FF4B8
:102D70002FAF164E9DF8EB509DF8EA409DF8E90004
:102D80009DF8E8109DF8EF209DF8EE3086F81D5173
:102D900086F81E4186F81F0186F8201186F8212149
:102DA00086F82231FFF7C5BA0746FFF71FBA084B6E
:102DB0000D93FCE40746FFF736BA08210A25FFF712
:102DC0004ABA00BF982F8A423CCF0000FCB8FF1FD0
:102DD00008B9FF1F40CE000008B50C4B002203F5D8
:102DE00002611A809A705A601A7310338B42F8D1BC
:102DF00040F6055003F054FA054A064B06491160A7
:102E00001022A0219A7199705A7108BD58A6FF1F0F
:102E100068B8FF1F00A0064006A00640F0B51E4C93
:102E2000257B87B06E468DE80F000DB3002301337C
:102E30009BB204EB03121D46127B002AF7D1802BB4
:102E400016D9164A13680133136043B1144AA2FB22
:102E5000031292094FF47A7101FB1233D3B9252181
:102E6000104804F065FC104804F084FE07B0F0BD83
:102E70000E4B0F4F1B680593059B019301238DF8A3
:102E80000C3096E80F0004EB051484E80F003B8833
:102E900001333B8007B0F0BD58A6FF1FD499FF1F38
:102EA000D34D621064CF00008487FF1F48BAFF1F14
:102EB0002CB7FF1F2C4B1B7870B48BB12B4B2C4DB8
:102EC0001B682C492C4A002B40DBA5FB03435D0902
:102ED00005EB450500236D000D6013701E460FE0E5
:102EE000264A234D1268002A21DBA5FB0252550910
:102EF000204C214905EB45056D0025600B701E46F1
:102F000000221346012404FA03F101331E2B42EA86
:102F10000102F8D11A4B1B4C188015403543002292
:102F20009D609A7025600FCB70BCFFF777BF52424F
:102F3000A5FB02256D090F490F4B05EB45056D00FB
:102F400001220D601A704FF08046D9E75B42A5FB65
:102F500003356D0905EB45056D0001230D60137008
:102F60004FF08046CCE700BF48A6FF1F4C92FF1FE2
:102F70001F85EB51B490FF1FA4A5FF1F40A6FF1FA4
:102F80009CAEFF1F2492FF1F1E4B1B7870B44BB3E7
:102F90001D4B1B681D4D1E491E4A002B24DBA5FB43
:102FA00003435D0905EB45056D0002230D601370B9
:102FB0004FF0004600221346012404FA03F10133C6
:102FC0001E2B42EA01024FF00101F6D1124B134CC5
:102FD0009970154035439D60188025600FCB70BCFB
:102FE000FFF71CBF0E4BD4E75B42A5FB03356D0911
:102FF00005EB45056D0003230D6013704FF040464F
:10300000D8E700BF48A6FF1F24B7FF1F1F85EB515D
:10301000E8B8FF1FA4A5FF1F9CAEFF1F2492FF1F4F
:1030200098B8FF1F7E2808B50CD07D2803D0BDE8D6
:10303000084003F0ABB903F0A9F95D20BDE80840F2
:1030400003F0A4B97D2003F0A1F95E20BDE808409B
:1030500003F09CB938B50D4B1B78012B04460D4687
:1030600002D00120FDF702FA204655B1FFF7DAFF42
:10307000074B1888204400EB102000F0FF00188058
:1030800038BDBDE8384003F081B900BF44BAFF1F26
:1030900070A5FF1F10B5224B1B7882B0012B009248
:1030A000ADF80610044602D00120FDF7DFF91D4BF4
:1030B0005B78012B2BD001211020FFF7CBFF9DF86F
:1030C0000600194C0121FFF7C5FF9DF807000121FB
:1030D000FFF7C0FF9DF800000121FFF7BBFF9DF83F
:1030E00001000121FFF7B6FF9DF802000121FFF763
:1030F000B1FF01219DF80300FFF7ACFF2078C0432A
:10310000C0B2FFF78FFF0023238002B010BD002163
:103110007E20FFF79FFF20460021FFF79BFFCAE7B5
:1031200044BAFF1F54B7FF1F70A5FF1F2DE9F04FD2
:10313000304BDFF8D0B01B6883B000200193DDF87E
:1031400004C02D4BABF80000014605468246804680
:10315000864681461C786A1C86B294B153F8081CD6
:1031600013F80A5C33F80C7CC1EB0C01491BB7F572
:10317000A04F95B20AB225D0724501DBB046964603
:1031800021460130822803F11003E3D179BBBEF15F
:10319000000F03D1B9F1000F11D0D0464FEA081843
:1031A000164C34F808104FF20113994210D04444E1
:1031B0001B20A268FFF76EFF0023A360237303B0F8
:1031C000BDE8F08F4A45DBDBB24691462146D8E7A1
:1031D0000B4B5B78032BEAD000217E20FFF73AFFF0
:1031E00000211B20FFF736FF34F80810DFE7ABF8AB
:1031F0000050CCE748BAFF1F64A6FF1F58A6FF1F68
:1032000054B7FF1F2CB7FF1F154B1A782DE9F0415B
:103210003AB1144A11680A78002082F020020A703C
:1032200018700025A846104F104E03F0B9F848B1A9
:1032300003F0C6F87E2DC4B206D0254603F0B0F8E0
:103240000028F5D1BDE8F0811B2CF6D13378C7F802
:103250000080002BF1D0FFF769FF2546EEE700BFA5
:1032600044BAFF1F68B8FF1F2492FF1F18B7FF1F43
:1032700008B5094B1B78012B02D00120FDF7F6F8A9
:10328000064B074A1B780021116003B908BDBDE851
:103290000840FFF74BBF00BF44BAFF1F18B7FF1F1E
:1032A0002492FF1F2DE9F04F83B0504A0190002374
:1032B00003E00133322B00F0968012F8011F002941
:1032C000F7D14B4A9BB213804A4C4B4D4B49E21805
:1032D0005FFA83F92046002385F8009053709370BD
:1032E000D370137108F0B0FE002870D1444B4FF03A
:1032F000010A83F800A0434B434A1B784348DFF898
:103300002C8113703B4988F8009009F10402404F6A
:10331000404D414C064602F039FD404B002083F8F9
:1033200000A03870321800F1030E16F800C0537870
:1033300016F80EA092F802B06B704FEA0C611B04F5
:1033400001F0FE410AF07F0203F4FE030A431A4330
:103350004FEA0B2303F4FE431A438008304B85F8F1
:1033600002B0013018702F4B85F803A0CE4585F8C8
:1033700000C01A6014DB244B93F800E04FEA4E5172
:103380004FEA8E3301F4000103F400434FEACE1EEE
:103390000B430EF0800E43EA0E031A43214B1A60D2
:1033A000BDF804302380A070A26094E80F00FFF7FE
:1033B00035FD387898F80090154B0430C0B281453F
:1033C0003870AFD200221A7003B0BDE8F08F2046EB
:1033D000154908F039FE0A4B10B9824618708AE781
:1033E00093F800A087E7024B1B886DE77B93FF1FD4
:1033F000A690FF1F7C93FF1F6EA5FF1F8CCF0000C0
:10340000E0B6FF1FE1B6FF1FE694FF1F9899FF1F6C
:10341000C8B8FF1FFC91FF1F9CAEFF1FF991FF1F53
:10342000B990FF1F2492FF1F9CCF0000E4B8FF1F3C
:103430002DE9F041424D2B780133DBB25A1E2B703F
:10344000032A26D8DFE802F03D5D27023D493E4AC7
:103450003E4B0C7814600621002219700127134698
:1034600007FA03F10133182B42EA01024FF001067B
:10347000F6D1374B374F188006212240997042F021
:10348000C0640FCB3C60FFF7C9FC334A00231670C1
:103490002B70BDE8F081314A2C4B146805210022C5
:1034A00019700120134600FA03F10133182B42EA88
:1034B0000102F8D1224042F0A064254B254D05229F
:1034C00035E02749274A214B0C781460012500225A
:1034D0001D70134605FA03F10133182B42EA01026D
:1034E0004FF00101F6D11A4B1A4D9970224042F06B
:1034F00080749C6018802C600FCBBDE8F041FFF712
:103500008DBC194A114B1468042100221970012541
:10351000134605FA03F10133182B42EA0102F8D1F0
:103520000B4B0C4D1880224042F0806404229C60BA
:103530009A702C600FCBBDE8F041FFF76FBC00BF65
:10354000C9B8FF1F9CA5FF1F80A5FF1F80B8FF1FE4
:103550009CAEFF1F2492FF1FCAAEFF1F98AEFF1F35
:1035600010A6FF1F34BAFF1F90AEFF1F2DE9F04FCA
:10357000DFF83C82DFF83CB298F800500023042DBD
:1035800083B0CBF8003000F3C380DFF82CA20090AA
:103590003AF81500A0F2DC5007F072FC824907F0FF
:1035A000C3FC00210646AC0807F070FE002800F0BE
:1035B000B4804FF07C51304607F0AEFB07F090FE30
:1035C00047B26FF03E036A1C9F42B8BF1F463AF8ED
:1035D0001200DFF8E8913F2FA8BF3F27A0F2DC5090
:1035E00089F8017007F04CFC6F4907F09DFC002141
:1035F000064607F04BFE002800F0CD804FF07C51CE
:10360000304607F089FB07F06BFE46B26FF03E03D1
:10361000AA1C9E42B8BF1E463AF812003F2EA8BF11
:103620003F26A0F2DC5089F8026007F029FC5E49D1
:1036300007F07AFC0021019007F028FE019B00288A
:1036400000F0A18018464FF07C5107F065FB07F0B1
:1036500047FE42B26FF03E03E91C9A42B8BF1A46D9
:103660003AF811003F2A9246A0F2DC50A8BF4FF072
:103670003F0A89F803A007F003FC4B4907F054FC0C
:103680000021019007F002FE019B002873D018462C
:103690004FF07C5107F040FB07F022FE40B26FF084
:1036A0003E039842B8BF18463F28A8BF3F20002FCE
:1036B00004F00F0489F8040055DB3F0107F47C7720
:1036C0002743002E47DBF40204F4FC343C43BAF1F8
:1036D000000F35DB4FEA8A4A0AF47C0A4AEA040AF8
:1036E000002822DB400600F0FC4040EA0A00CBF84C
:1036F00000002E4BBDF800201A8005F003050135AF
:103700009D7098600FCBFFF789FB98F80030043369
:1037100088F8003003B0BDE8F08F4FF07C513046A0
:1037200007F0F8FA07F0DCFD4AE74042400600F0F7
:10373000FC4040F0004040EA0A00CBF80000D8E727
:10374000CAF1000A4FEA8A4A0AF47C0A4AF0807AEF
:103750004AEA040AC4E77442E40204F4FC3444F480
:1037600000343C43B3E77F423F0107F47C7744F4E5
:1037700080642743A5E718464FF07C5107F0CAFA4A
:1037800007F0AEFD8AE718464FF07C5107F0C2FA09
:1037900007F0A6FD5DE74FF07C51304607F0BAFA1E
:1037A00007F09EFD31E700BF2506013E9CAEFF1FDE
:1037B0004792FF1F2492FF1FF0B6FF1F94A5FF1F23
:1037C0000D4B4621002230B419600124134604FA3F
:1037D00003F10133202B42EA01024FF00101F6D13F
:1037E000064B074D997002F046049C6018802C60CF
:1037F0000FCB30BCFFF712BBDC99FF1F9CAEFF1F45
:103800002492FF1F10B50129044680EAE070A0EB66
:10381000E47026D0022907D0032903D1012A5AD007
:10382000022A36D0002010BD012A3CD0022AF9D14C
:10383000632840F38580B0F57A7F80F29A8007F0A4
:103840001BFB6B4907F070FB04F05AFD07F06EFD9F
:10385000C0B2800040F00100002CE4DA40F40070B7
:1038600010BD012ADED1092864DD95287DDC07F032
:1038700003FB5F4907F058FB04F042FD07F056FDDB
:10388000C0B2400040F00100002CCCDA40F0200033
:1038900010BDB0F57A7F37DA800080B2002CC2DA32
:1038A00040F4805010BD632847DD40F2F543984254
:1038B0005DDC07F0E1FA4E4907F036FB04F020FD2D
:1038C00007F034FDC0B2400040F00100002CAADA3D
:1038D00040F4807010BDB0F57A7F34DBB0F5205F26
:1038E00059DA07F0C9FA424907F01EFB04F008FD57
:1038F00007F01CFD80B2400040F0010080B2002CB7
:1039000091DA40F4006010BD42F20F7398421DDD61
:10391000384B984242D807F0AFFA374907F004FB1A
:1039200004F0EEFC07F002FD80B2800040F00200DF
:1039300080B2B3E7400080B2A6E7400080B2C5E79E
:10394000800080B288E7400080B2D8E707F094FAA0
:10395000274907F0E9FA04F0D3FC07F0E7FC80B24E
:10396000800040F0010080B298E71F208CE7FF2024
:10397000ACE742F20F73984222D807F07DFA1E4955
:1039800007F0D2FA04F0BCFC07F0D0FCC0B2800013
:1039900040F0020060E740F2FF70B0E7B0F57A2F28
:1039A0001FD207F069FA154907F0BEFA04F0A8FC27
:1039B00007F0BCFC80B2800040F0030080B26DE7ED
:1039C0000F4B984210D807F057FA0C4907F0ACFAA1
:1039D00004F096FC07F0AAFCC0B2800040F003009F
:1039E0003AE740F6FF7059E740F2FF1034E700BFB6
:1039F000CDCCCC3D9F8601000AD7233C6F12833A81
:103A000017F001002DE9F0412D4B2E4D1B782E4A69
:103A10000F2B07464DD90F2313701E462B4B2C49F5
:103A20001A78032A134628BF0323032A0B7043D9AD
:103A3000033A5FFA82FE4FEA8E3404F4404425498B
:103A4000254A0968254812881B0103F030033343D7
:103A500080FB01C0224EC917C1EB60102149A6FBB3
:103A60000226022281F800E011461C43FFF7CAFE3D
:103A7000C6F3C7061C4B8046012230460221C3F81C
:103A80000080FFF7BFFE194A194B1A4E1F804FEAFC
:103A9000885808EA0202C7B2144344EA8714002295
:103AA0009C609A7037702C600FCBBDE8F041FFF737
:103AB000B5B91E461370B1E70024A646BFE700BFA4
:103AC000B5AEFF1F2492FF1FDC94FF1F7087FF1FFE
:103AD00099A5FF1F38A6FF1F6CA5FF1F1F85EB517F
:103AE000CDCCCCCC4692FF1FFC94FF1F0000C07FC2
:103AF0009CAEFF1FB2AEFF1F1D4B1E4A1B881E4906
:103B000070B51E4CA4FB0334640914800546088874
:103B100007F0B6F91A4907F007FA04F0F1FB07F0CD
:103B2000DFFB01220221FFF76DFE164B164A1880BB
:103B30001288400200F4FF30C4F308040443560422
:103B400011230022012000FA03F10133202B42EA65
:103B50000102F8D10D4B324014430D4E1D8000225E
:103B60009C609A7034600FCBBDE87040FFF756B987
:103B70003EB7FF1FF491FF1F1C92FF1F1F85EB51E3
:103B8000CDCCCC3D4492FF1F0092FF1F9CAEFF1F87
:103B90002492FF1F2DE9F04FC04EDFF854B3726836
:103BA000BF49DFF85083BF4FBF4DDFF84C93BF4C88
:103BB0008FB000230B901046CBF8003007F068FA66
:103BC000BB4907F0B1F90346C8F800303068B44982
:103BD000009307F05DFAB64907F0A6F90646B0492A
:103BE00078682E6007F054FAB14907F09DF98246D3
:103BF000AB493868C9F800A007F04AFAAC4907F0A9
:103C000093F9009B074619462760504607F082F853
:103C100006F000FDCDE9020104F02EFBCDE9040120
:103C2000384606F0F7FC02460B46CDE9082304F0BF
:103C3000D9FACDE90001304606F0ECFC06460F4605
:103C400004F0D0FADDE90823CDE906011046194653
:103C500004F012FB02460B4630463946CDE90C23F0
:103C600004F00AFBCDE90801DDE9020104F0BAFA2B
:103C7000DDE90C23CDE90201DDE9060106F01EFDB8
:103C8000DDE9082306460F46DDE9000106F016FDD2
:103C9000DDE9022306F012FD02460B4630463946A6
:103CA00006F058FBDDE9002306460F46DDE9040176
:103CB00006F004FD32463B4604F09EFB06F0D6FFBC
:103CC000774907F031F97A4907F0E2F90021064611
:103CD00007F0C8FA002840F01D81764BDFF81CA2DF
:103CE0001E60304607F0FCFA83B2A3F1B40000B2C4
:103CF0000028BCBF03F1B40000B2B0F5B47FA8BF88
:103D0000A0F5B4706C4BA8BF00B2188007F0B8F8EB
:103D10006A4907F009F907F0E3FA24682D68AAF860
:103D200000002946204606F0F5FF654BD8F8001044
:103D300007461F60D9F8000006F0ECFF614B06460D
:103D400018604FF07C51384607F0EEF806F062FC40
:103D500004F092FACDE9000130464FF07C5107F0B3
:103D6000E3F806F057FC04F087FA804628468946B7
:103D700006F050FC04F036FA064620460F4606F0E0
:103D800049FC04F02FFA424604460D464B46404695
:103D9000494606F093FC32463B4606F08FFC22462D
:103DA0002B4606F08BFCDDE9002304460D46104649
:103DB000194606F083FC0B4602462946204606F0CB
:103DC000CBFA06F053FF404A106006F023FC04F0E3
:103DD00015FB04F0B9FA02460B4606F0BDFA06F0F0
:103DE00045FF3A4B3A49186007F09EF8394B3A4A7A
:103DF0001B781060002B00F08B8007F071FA80B206
:103E000007F03AF804F07CFA07F06AFA334B344EC4
:103E10001B68032186FB0326DB170222C3EB661611
:103E2000FFF7F0FC2F4A002336B210801C46012118
:103E300001FA04F201340C2C43EA0203F8D1DBF856
:103E40000050034030461D4307F01AF804F058FABA
:103E500007F046FA02220321FFF7D4FC224B00B2FE
:103E6000188000220303012606FA04F10134182CFD
:103E700042EA0102F8D11A402A430028BAF9005058
:103E80001A49B8BF42F0807242EA45650023BDF886
:103E90002C208D600A808B7032E000BFE491FF1F00
:103EA0000000344344B7FF1F78B8FF1F7CB8FF1FE2
:103EB000DB0F4940A890FF1F8CA5FF1F4CA6AA3E10
:103EC0002092FF1F24BAFF1F60A5FF1F68A5FF1FD8
:103ED000706DC24A85A5FF1F9C90FF1F88A5FF1F1C
:103EE0001F85EB512A92FF1F4892FF1F9CAEFF1FB8
:103EF0002492FF1F20A6FF1F24A6FF1F8EA5FF1FD1
:103F00000FC9CBF800500FB0BDE8F04FFEF786BFE9
:103F100018467BE73046024906F0FEFE0646DCE620
:103F20000000B443344B35492DE9F0470546186885
:103F3000DFF8E49006F0F8FF314B30490646186888
:103F400006F0F2FF2F4B0446B3F9000000EB8000AF
:103F5000400006F095FF00218046304607F082F9C8
:103F60000028304614BF4FF48077002704F0C8F9CA
:103F700007F0B6F901220221FFF744FC064606F0DD
:103F80007BFFC9F80000204604F0BAF907F0A8F951
:103F900001220221FFF736FC044606F06DFF1A4BA2
:103FA0004FF07C511860404606F0BEFF174B18607A
:103FB00007F0BCF9F6B264023E4304F4FF3444EA6D
:103FC0000607134E002240041123012404FA03F1D2
:103FD00001331C2B42EA0102F8D10E4B024042EAA7
:103FE000070400229C601D809A7034600FCBBDE8EE
:103FF000F047FEF713BF00BF30B7FF1F000020419E
:10400000DCB6FF1F1092FF1F8CB8FF1F1CB7FF1FED
:104010002492FF1F9CAEFF1F90B8FF1F2E4B2F490D
:104020002DE9F0410646186806F07EFF2C4906F09F
:1040300073FE07F07BF92B4A2B4B284985B21D8074
:10404000106806F071FF294906F066FE07F06EF968
:10405000274A284B284987B21F80106806F064FF62
:1040600004F04EF907F062F9244B80B20022188068
:104070000124134604FA03F101330B2B42EA010237
:10408000F8D115401C46FA020023012707FA04F173
:104090000134152C43EA0103F8D113400321012216
:1040A0001D43FFF7AFFB234640050022012404FA1D
:1040B00003F10133202B42EA0102F8D11049114CDF
:1040C0000E800240154300238D608B7025600FC960
:1040D000BDE8F041FEF7A2BE3CBAFF1F0000A040C1
:1040E00000006144E0B8FF1F72B8FF1F0000E14309
:1040F000C0B8FF1FCEB8FF1F0000C842B6AEFF1FFA
:104100009CAEFF1F2492FF1F244B254A1B88A2FB55
:1041100003232DE9F0410546580906F0B1FE214B75
:10412000214A224F06461E60B2F9000006F0A8FEA2
:104130001F4906F0F9FE04F0E3F807F0D1F8012278
:104140000221FFF75FFB044606F096FE386030461A
:1041500007F0ECF8174B64021A8804F4FF34C0F33C
:1041600008002043560411230022012404FA03F11D
:104170000133202B42EA01024FF00101F6D10E4B30
:10418000324042EA00040D4E1D809C6099703460FC
:104190000FCBBDE8F041FEF741BE00BF40B7FF1FA7
:1041A0001F85EB5194AEFF1FB0AEFF1F20BAFF1F5B
:1041B000CDCCCC3DEEB8FF1F9CAEFF1F2492FF1F5D
:1041C0002DE9F04F564B574D574A5849584CDFF898
:1041D00088B1584F12681B882D88DFF880812580B0
:1041E00083B0ABF8003001900023B1F900003A60D1
:1041F000C8F8003006F044FE4F4A504B05461D609B
:10420000108806F03DFE4E4906F08EFE4D4A0346EC
:1042100019461360284606F07DFD07F061F800B2EC
:1042200006F02EFE484904F045F90021054607F046
:1042300019F8002866D1284607F052F8434BDFF8FA
:1042400020A1163083FB00230344C017C0EB63108A
:1042500000EA0A0ABAF1000F5ADB3D4B258883F8C1
:1042600000A000231C46012101FA04F201340A2CAB
:1042700043EA0203F8D1BBF80000D8F800601D4003
:1042800006F0FAFD04F03CF807F02AF802220321B8
:10429000FFF7B8FA2346ABF8000000224FEA802B64
:1042A0004FF0010E0EFA03F10133162B42EA010220
:1042B0004FF00104F6D138680BEA020B04F020F845
:1042C00007F00EF822462146FFF79CFA46EA4A76A6
:1042D0008146354306F0D0FD4FEA89531D493860C9
:1042E00045EA0B0503F07C631D43BDF804308D6087
:1042F0000B808C700FC9C8F8005003B0BDE8F04FB8
:10430000FEF78CBD2846104906F006FD054692E7EB
:104310000AF1FF3A6AF0070A0AF1010A9DE700BFB5
:1043200064A5FF1F28B7FF1F44A6FF1FE2B6FF1FAB
:10433000C6B8FF1F84AEFF1FA490FF1F1492FF1F7B
:104340000AD7233CF894FF1F0000B443B7600BB6B4
:104350002892FF1F9CAEFF1FCCB8FF1F2492FF1FA7
:1043600007000080294B2A492DE9F04705461868C7
:10437000DFF8B490DFF8B48006F0D6FD2549264B6F
:10438000264A0C881C8022490646106806F0CCFD9F
:104390000746304603F0B4FF06F0A2FF01220221D7
:1043A000FFF730FA064606F067FDC9F80000384608
:1043B00003F0A6FF06F094FF02220321FFF722FA82
:1043C000240204F4FE44F6B22643044606F054FDEB
:1043D000E703C8F8000000220F23012404FA03F1C8
:1043E00001331B2B42EA01024FF00101F6D10C4BC5
:1043F0003A4042EA06040B4F1D809C6099703C6075
:104400000FCBBDE8F047FEF709BD00BF7CA5FF1F3D
:104410000000204178AEFF1FA6A5FF1FBC90FF1F24
:104420009CAEFF1F2492FF1F50A6FF1FF8B8FF1F6E
:1044300010B5194B197882B0C9B9184B184A1B68C6
:10444000019301981368C31AB3F5FA7F154B08D38B
:1044500010601A78C2B10D20197001F005FE02B08B
:1044600010BD19780D2001F0FFFD02B010BD012331
:104470000C4C19460D20237001F0F6FD21780D201B
:1044800001F0F2FD02B010BD01210D20197001F004
:10449000EBFD02B010BD00BF18B7FF1F48BAFF1FE9
:1044A000ACAEFF1F2EB7FF1F013808281DD8DFE86C
:1044B00000F00507090B121416181A0000207047A7
:1044C00001207047022070470139C9B208290ED86F
:1044D000084B585C70470320704704207047052044
:1044E000704706207047072070470B2070471F2039
:1044F000704700BF24DE00002A4B1B78062B50D0EB
:104500002DE9F041284B294A1B78294F2949127877
:10451000294C0546DE112948F3B2037000203B7098
:104520000870AABB2649274B08680130C0B2187032
:104530002549264B0F781B78DFF8A0E0BF025B020D
:10454000120307F4406703F4007302F4805147EA52
:1045500003029EF80070DFF888E00A4342EA8762AF
:1045600042EAC61242EA0623AEF8005000F01F00ED
:10457000174D43EA00060023CEF808608EF802309B
:104580002F709EE80F002660BDE8F041FEF746BCA4
:10459000104B114918780978FFF786FF094B1870FE
:1045A000C6E7704710A6FF1F3DB7FF1F48A6FF1FB5
:1045B000C9AEFF1FF991FF1F2492FF1F31BAFF1FE1
:1045C0000095FF1FB4AEFF1F80AEFF1FF891FF1FC5
:1045D00045BAFF1FE794FF1FCBAEFF1F34A6FF1F96
:1045E0009CAEFF1F45F20602904210B57FD00346F5
:1045F0001ED845F20202904275D02BD8B0F5A04FDC
:1046000049D06AD8B0F5006F53D100297FD0012975
:1046100038D1454B454A1B78032B28BF0323032B76
:1046200013702FD14FF40060BDE81040FEF7ACBC12
:1046300045F2F102904232D017D845F2080290427A
:1046400025D058D345F20902904232D1BDE810403E
:10465000FFF7B6BD45F20402904214D023D845F2CC
:104660000300BDE81040FFF747BA45F2F30290425D
:1046700008D046D34FF2011290421AD1BDE8104043
:10468000FFF79EB810BDBDE81040FFF783BABDE844
:104690001040FFF739BDBDE81040FEF703BEBDE88E
:1046A0001040FEF763BF45F20500BDE81040FFF77C
:1046B00039BC1C4610211E4803F03AF8214600235D
:1046C00010221C4803F066FA08211B4803F030F85A
:1046D0001848BDE8104003F04DBA45F20100BDE8AE
:1046E0001040FFF709BFBDE81040FFF78BB9BDE8E8
:1046F0001040FFF793BC45F20700BDE81040FEF7FD
:1047000097BE45F2F200BDE81040FFF72BBE064B06
:10471000064A1B78032B28BF0323032B1370B1D148
:10472000BDE81040FEF7C6BB7087FF1F99A5FF1FAD
:104730001CD100008487FF1F30D10000F8B5154C54
:10474000E66805464FF07E51304606F08BFD18B105
:10475000284606F091FB0646284606F091FB0E49D6
:1047600006F0E2FB0D490746304606F0DDFB014648
:10477000384606F0D1FA0A496269E369E060A1FBB4
:10478000051502EB951501336561E36106F0CEFD79
:10479000F8BD00BF2887FF1F4CA6AA3E4CA62A3FA3
:1047A000D34D6210F0B51E4C94F8203085B005460C
:1047B000002B32D01B4B1A680192019A0021013A5A
:1047C00084F820101968039103981B680293029BD8
:1047D0002361801A06F050FB134906F059FC05F0DE
:1047E00019FF064628460F4605F0F2FE02460B4624
:1047F0003046394605F062FF06F038FA0B4906F0FC
:1048000093FB0B4906F090FB03460146606823606A
:1048100006F082FA606005B0F0BD2269014BD1E775
:104820002887FF1F48BAFF1F00BA5B4A00002041DB
:104830000000883F70B5114D0646FFF7B3FFAC6826
:104840004FF07E51204606F00DFD18B1304606F0BF
:1048500013FB0446304606F013FB094906F064FBDF
:1048600008490646204606F05FFB0146304606F042
:1048700053FAA86006F05AFD70BD00BF2887FF1FDD
:10488000FA7EAA3E4CA62A3FF8B5144CE6680546C7
:104890000021304606F0DCFC18B1284606F0ECFAA0
:1048A0000646284606F0ECFA0D4906F03DFB0D4998
:1048B0000746304606F038FB0146384606F02CFA2B
:1048C00009496269E369E060A1FB051502EB9515F2
:1048D00001336561E36106F029FDF8BD4C87FF1FD8
:1048E000FA7EAA3EFA7E2A3FD34D6210F0B51E4CE6
:1048F00094F8203085B00546002B32D01B4B1A6847
:104900000192019A0021013A84F82010196803915C
:1049100003981B680293029B2361801A06F0ACFA8D
:10492000134906F0B5FB05F075FE064628460F460E
:1049300005F04EFE02460B463046394605F0BEFEF7
:1049400006F094F90B4906F0EFFA0B4906F0ECFA81
:10495000034601466068236006F0DEF9606005B03A
:10496000F0BD2269014BD1E74C87FF1F48BAFF1FFA
:1049700000BA5B4A000020410000883FF8B5114CA6
:10498000A66805460021304606F062FC18B12846AC
:1049900006F072FA0646284606F072FA0A4906F050
:1049A000C3FA0A490746304606F0BEFA01463846C1
:1049B00006F0B2F9A0602846FFF798FFA06806F05D
:1049C000B5FCF8BD4C87FF1FFA7EAA3EFA7E2A3F4F
:1049D0002DE9F041AA4CA368C3F31723272B86B017
:1049E00000F0498342D8182B00F07E8340F2B98052
:1049F000212B00F0968100F208811A2B00F08682AC
:104A00001E2B30D19F4B1B78002B2CD09E4B9F49E7
:104A10009F4D626AE769266A1A600F602E602069FE
:104A20009C49DFF8E0829C4E06F07EFA9B4967695C
:104A3000A5699B4C06F02CFB9649C8F80000384647
:104A400006F072FA954906F023FB92493060284639
:104A500006F06AFA914906F01BFB0021206045F23E
:104A60000600FFF7BFFD06B0BDE8F0814A2B53D822
:104A7000492B80F0B4832C2B00F04A8140F2ED806A
:104A80003E2B00F0D483412BEDD17E4B1B78002BC5
:104A9000E9D08449844B94F83400278A668AA58A31
:104AA0000870E08A218B1F805E80678BA68B9D80BB
:104AB000D880E58B208C19817C4A618C5F819E8136
:104AC000A78CE68CDD811882258D608D5982A18DA1
:104AD0009F82DE821D8358839983754DB4F82EE042
:104AE00074491278278E668E94F83500A3F81EE07C
:104AF00001241F845E8428700C70002AB3D16E4B91
:104B00006E4C01221A7006F0BBF96D4906F0C0FA2E
:104B100006F00CFC2070A6E7AD2B00F0438152D8C4
:104B20006D2B00F07F82932B9DD1564B1B78002B71
:104B300099D094F82C30DFF8D0E1624E624D634991
:104B4000678DE26894F82F008EF8003037802A6075
:104B50000870002B00F02E84012B84D15C4B1A804E
:104B600081E7012B00F0B181C0F05C81022B00F0E5
:104B70002781162B7FF477AF424B1B78002B3FF435
:104B800072AF04F114030FCB524D534FDFF87CE1A9
:104B9000524E85E80F00638A5149E268208ACEF8B8
:104BA00000201024B3F5B27F3C8030800B8000F0F1
:104BB0000584B3F5B67F7FF456AF4A494A4B0A6085
:104BC00001221A704FE7B52B00F00E81FD2B7FF408
:104BD0004AAF464B227B464F1A7004F10D053D3417
:104BE00028686968AA68EB683E460FC61035A5427A
:104BF0003746F5D12A88384B3280002132224FF4D3
:104C0000A0401A80FFF7EEFC2DE7232B00F0D082A6
:104C1000242B7FF428AF1B4B1B78002B3FF423AFD2
:104C2000344B354D94F82060228A618AA08AB4F80A
:104C300016E02E70278B668B1A80A58BE28B59802D
:104C40009880002145F2F100A3F806E01F815E8103
:104C50009D81DA81FFF7C6FC05E72A2B7FF403AFBD
:104C6000084B1B78002B3FF4FEAEA389234A138028
:104C7000002B3FF4F8AE224B01221A70F3E600BF7E
:104C8000C090FF1F18B7FF1F2CBAFF1FF494FF1F1F
:104C900074A5FF1F00003443E0B8FF1FDB0F49403D
:104CA00088AEFF1F7AAEFF1FF0B6FF1F28A6FF1FBA
:104CB000EC94FF1FB3AEFF1F90A5FF1FDB94FF1FF7
:104CC0005C8F2240E4B6FF1FA0A5FF1F84A5FF1F35
:104CD000EEB8FF1F54B8FF1FA690FF1F3892FF1FAA
:104CE000ECB6FF1F58A5FF1FC4B8FF1FE1B6FF1F9A
:104CF0007C93FF1F9CB8FF1FA290FF1F28B7FF1FC8
:104D000030BAFF1F3CBAFF1F0892FF1F3C92FF1FE3
:104D1000914B1B78002B3FF4A6AE904BA2891A70E2
:104D2000A1E68D4B1B78002B3FF49DAE8C4B1B787E
:104D3000022B7FF698AE8B4F20698B4E8B4D3860DF
:104D400067698B4A3760A6698A4B2E60E5691560F2
:104D50008949258C894A1D80894B658C0D80A18CE1
:104D6000E58C11801D8006F08BF88649864C06F094
:104D70008FF903462360384606F082F8814906F031
:104D800087F903466360304606F07AF87F4906F0FB
:104D90007FF97F4BA060A3FB0530400906F070F857
:104DA000E06060E66C4B1B78002B3FF45CAE794B07
:104DB000E2681A60002145F20600FFF713FC52E694
:104DC000654B1B78002B3FF44EAEE26823697249B5
:104DD000724864690460C1E9002313433FF443AEA1
:104DE0006F4B01221A703EE65B4B1B78002B3FF4A1
:104DF0003AAEA0896B4DFFF747FD2880E089FFF7A9
:104E0000BDFD2B88684945F208229342088040F294
:104E1000D982664B06221A70002145F20800FFF77E
:104E2000E1FB20E6237C62495A1F012A0B707FF6C2
:104E30001AAE1B2B3FF417AE5E4A617C10680190DE
:104E40005D485E4D019E5E4F06605E48E2682970D7
:104E50003B70A1F10C015C4BDFF8C4E10260B1FAD8
:104E600081F1A07C18704909584B8EF80010584EFB
:104E7000217D584D584F94F813E01970140CC30954
:104E80004FEA126287F800E034702A700ED0534B5C
:104E90001A785AB93C49524A08681060486850600C
:104EA00088689060C968D16001221A704D4C2A4E02
:104EB0002368357801332360002D00F055820021EE
:104EC00045F20100FFF78EFBCDE5234B1B78002B4D
:104ED0003FF4C9AD444B6269608B1A60FFF72EFC4A
:104EE000424D2880A08BFFF7A5FC2B88404945F256
:104EF00008229342088040F270823E4B06221A70CC
:104F0000002145F20300FFF76DFBACE5124B1B7867
:104F1000002B3FF4A8AD384E278A384D37803849EA
:104F2000668A2E80374BA68A0E803748E68A1E8016
:104F3000364A268B0680364F608B364D3649374BC6
:104F40001080B4F81CE0E68B208C628CA7F800E09F
:104F50002E8008801A8086E518B7FF1F9CA5FF1FCA
:104F60007087FF1F40A6FF1F98B8FF1FCCAEFF1F22
:104F700088A5FF1FF2B8FF1FF4B8FF1FF6B8FF1F88
:104F80001892FF1F8096184B44B7FF1F00007A4409
:104F90001F85EB51C0B8FF1F18A6FF1F38B7FF1FB2
:104FA00084B8FF1F40B7FF1FB0AEFF1F0895FF1F5B
:104FB0006EB8FF1F48BAFF1FACA5FF1F28BAFF1F1E
:104FC00010A6FF1F0095FF1F3DB7FF1FD5B6FF1F9F
:104FD000E794FF1FCBAEFF1F20B7FF1F85A5FF1F64
:104FE000E491FF1F2CA6FF1F38BAFF1F3EB7FF1F1B
:104FF0001C92FF1FECB8FF1F9AA5FF1F5CA5FF1FA7
:10500000E494FF1FFA91FF1FCAB8FF1F30A6FF1FCD
:10501000A090FF1FF0B8FF1F70B8FF1F34A6FF1F3E
:1050200048A6FF1F954B1B78002B3FF41CAD944FF7
:10503000207C944D94493870677C2F70934AA77CEC
:105040000F70934EE77C1770924B277D924A9349DD
:105050003770934DA6891E80E4892C8001230B7044
:10506000137005F00DFF8F498F4C06F011F806F014
:105070005DF92070F7E4814B1B78002B3FF4F3AC13
:105080008A4D606A8A4F8B4B2860258D8A4E3D8001
:1050900094F82E701F708949678D3780884A94F87C
:1050A0002F700F70874B94F830701770864EE7683A
:1050B0001F608649864B2769864A3760A769E6697B
:1050C000246A1C600F60166006F030F9824BB5F55B
:1050D000807F187000F28C81804B013D03EBC5028C
:1050E00043F835605460BEE4644B1B78002B3FF4FA
:1050F000BAAC94F828307A487A4A94F829100370A8
:10510000022B11703FD9784E6069784D784F30602E
:10511000A669784A2E60E56977493D60278C17803B
:10512000764B678C0F80764AA78C1F807549E78C79
:105130001780754BD4F82A700F60744AD4F82E701B
:105140001F607349734BD4F832701760D4F83A205B
:10515000D4F836701A600F6005F092FE6E496F4CFD
:1051600005F096FF03462360304605F089FE6A4944
:1051700005F08EFF03466360284605F081FE68490E
:1051800005F086FFA06000214FF40060FFF72AFAC7
:1051900001214FF40060FFF725FA002145F20200DB
:1051A000FFF720FA002145F20400FFF71BFA5AE44A
:1051B000324B1B78002B3FF456AC5A4B5A495B4A92
:1051C00094F821001B78087001211170002B7FF4E6
:1051D0004AAC324B1B78002B7FF445AC8FE4274B55
:1051E0001B78002B3FF43FAC514FB4F91C00514DDC
:1051F000514A3880E7685149514B2F60514E25691B
:10520000E78B1560A26965690D601A60378005F04B
:1052100037FE424B0246002145F20500DA60FFF7F7
:10522000E1F9002145F2F200FFF7DCF91BE4134B32
:105230001B78002B3FF417AC434DE668434B2E60C0
:10524000434826691E60434A268C4349434F444DD8
:10525000444B0680668CA08C1680D4F814E0A669B6
:10526000E2690880002145F20900C7F800E02E60DD
:105270001A60FFF7B7F9FFF7F6BB00BF18B7FF1FBB
:10528000D4B6FF1FC8AEFF1F96B8FF1F79A5FF1F3A
:1052900085B8FF1F0695FF1F90A5FF1F28A6FF1FBB
:1052A0006CB8FF1F48E11A40DB94FF1F3492FF1FC8
:1052B00028B7FF1FEDB8FF1F3CA6FF1F3CB7FF1F1D
:1052C000A8A5FF1FE094FF1F54A6FF1FE894FF1F2F
:1052D0003092FF1F2C92FF1F78A5FF1FD0AEFF1F3B
:1052E0007087FF1FB5AEFF1F4C92FF1F24B7FF1F33
:1052F00038A6FF1F6CA5FF1F82B8FF1F0495FF1F74
:10530000A490FF1FF094FF1FBCB8FF1FD8B6FF1F6B
:105310007CAEFF1F4CA6FF1F8096184B44B7FF1FA3
:1053200000007A44B3AEFF1F95B8FF1FDD94FF1F46
:105330001092FF1F7CA5FF1FDCB6FF1FBC90FF1F54
:1053400030B7FF1F78AEFF1F0492FF1F4092FF1F70
:10535000F691FF1FE2B6FF1F64A5FF1F0C92FF1F0F
:1053600064B8FF1F44A6FF1F09214B4802F0E0F973
:105370002B460A222168494802F00CFC294648487D
:1053800002F0D6F9454802F0F5FB2368022B7FF6C0
:1053900096AD01230C214348337002F0C9F93F4810
:1053A00002F0E8FB02A8404902F074FC02A802F0F7
:1053B00031FC84E53D4B1A80FFF755BB3C4B1A602E
:1053C000FFF751BB44F2A01293422AD9394B1A7805
:1053D000062A39D005221A701EE544F2A012934223
:1053E0000FD9354B1A78062A2BD005221A7087E57B
:1053F0002A21324802F09CF9284802F0BBFBFFF753
:1054000032BB43F23812934228D842F2D002934280
:1054100032D841F268029342274B38D800221A70E2
:105420006EE543F23812934211D842F2D002934211
:105430001BD841F2680293421E4B24D800221A70F6
:10544000EAE404221A705BE504221A70E4E4194BC2
:105450001A78052AF8D103221A70DDE4164B1A785F
:10546000052AEED103221A704AE5124B1A78042A53
:10547000F1D102221A70CFE40F4B1A78042AF1D12D
:1054800002221A703CE51A78032AF2D1D6E71A787C
:10549000032AF5D1C2E700BF4CD100008487FF1F6B
:1054A0002CD1000058D1000068D100000092FF1FED
:1054B00054A5FF1F0895FF1FECB8FF1F78D100000F
:1054C0002DE9F043314C324B324F334D334E07CC44
:1054D000C3F80D00C3F8111003CFC3F81520C3F8AB
:1054E0002B00C3F82F1007CDC3F83F00C3F84310BB
:1054F00003CEC3F8472001223F785A70C3F85D00FD
:105500004FF46142C3F8611025482649264DB4F88E
:10551000008083F83370032400279A604FF0020E56
:105520000922A3F819805C719F701F71DA701A73D9
:1055300083F806E0B0F80090B1F800801B4C328888
:10554000A3F8652003CDC3F87100C3F8751007CC2C
:10555000174E2D8883F8A27037882688A478A3F880
:105560007950C3F88D00C3F89110C3F89520A3F8C3
:10557000996083F89B4083F88CE0A3F88690A3F8A9
:105580008880A3F88A70BDE8F08300BF08D20000CD
:1055900054B7FF1F18D2000024D2000030D2000000
:1055A0007487FF1F2687FF1F3CD2000048D20000EF
:1055B0007287FF1FF0B540F6C4108FB000F060FD99
:1055C0009748984C02F0D6FA9749984802F0AAFBFF
:1055D000974906A802F05EFB06A9944802F00AFC6F
:1055E0009249421C0AA802F02FFC0AA9914802F035
:1055F00091FB0AA802F00EFB06A802F00BFB2E217D
:105600008C4802F0C9FB002203468A490AA802F02E
:10561000F7FB0AA9874802F07DFB0AA802F0FAFA14
:105620000921854802F084F882497D4802F07CFA1D
:105630000621824802F07CF8794802F09BFAFFF7D5
:105640003FFF10217E4802F073F80A217D4802F0E6
:105650006FF8734802F08EFA7A490AA802F01AFB32
:105660000AA802F0D7FA6378012B00F08881022B98
:1056700000F09481032B00F0A9814421724802F0CC
:1056800057F8674802F076FA70490AA802F002FB60
:105690000AA802F0BFFA19216D4802F049F86048E3
:1056A00002F068FA6B490AA802F0F4FA0AA802F0BC
:1056B000B1FA1F21684802F03BF8594802F05AFA43
:1056C00066490AA802F0E6FA0AA802F0A3FAA3784B
:1056D000002B00F04581E378002B00F0DD80A378FB
:1056E000012B00F0EB80E378012B00F0F980A37828
:1056F000022B00F00781E3784A4D022B00F0158160
:10570000032B00F02181A3784649022B50D0CA78A0
:10571000023A012A4CD991F8A220002A48D1032B41
:105720005ED02379012B6CD0FDF756FBA3783D4A60
:105730004BB99068430803F1376303F5D833B3FBE3
:10574000F0F000F0F7FE464B464A19680A910A9DB0
:1057500019680691069819680591059E19680491C3
:10576000049C19680391039F1968029102991B68B0
:1057700001933D4B15603D4D3D4A18603D483E4B01
:105780002E6014603D4E3E4A3E4D3F4C076019600E
:10579000019F3760002301210D202B7023701360BF
:1057A00000F068FC01210E2000F064FC0FB0F0BD99
:1057B000A2791C4D012A00F00081022AAFD10F21ED
:1057C000324801F0B5FF164802F0D4F92F490AA873
:1057D00002F060FA0AA802F01DFAAB78032BA0D100
:1057E0000D212B4801F0A4FF0D4802F0C3F9284910
:1057F0000AA802F04FFA0AA802F00CFA2379012B4A
:1058000092D10E21234801F093FF054802F0B2F92E
:1058100020490AA802F03EFA0AA802F0FBF983E741
:105820008487FF1F54B7FF1F58D20000B8AEFF1F78
:10583000B4D20000D0B8FF1FB8D20000C4D200001C
:10584000CCD20000E0D2000010D3000058D30000FA
:105850006CD3000088D300009CD30000BCD30000B0
:1058600048BAFF1FACA5FF1F34B7FF1FE099FF1F09
:10587000AC90FF1F50B8FF1FD0B6FF1F88B8FF1FA6
:105880002CA6FF1F18B7FF1F85A5FF1FC0D400005F
:10589000D0D40000E0D400001221544801F048FFA9
:1058A000534802F067F951490AA802F0F3F90AA82F
:1058B00002F0B0F9A378012B7FF415AF14214D4805
:1058C00001F036FF4A4802F055F94B490AA802F0A8
:1058D000E1F90AA802F09EF9E378012B7FF407AF03
:1058E0001521464801F024FF414802F043F944499C
:1058F0000AA802F0CFF90AA802F08CF9A378022BCB
:105900007FF4F9AE0F213F483F4D01F011FF3848B9
:1059100002F030F93B490AA802F0BCF90AA802F0EB
:1059200079F9E378022B7FF4EBAE1321374801F0CD
:10593000FFFE37490AA802F0ADF90AA802F06AF999
:10594000EB78032B7FF4DFAE1621324801F0F0FE36
:1059500031490AA802F09EF90AA802F05BF9D2E6E2
:1059600011212E4801F0E4FE214802F003F92B49F1
:105970000AA802F08FF90AA802F04CF9ABE60B2155
:10598000274801F0D5FE1A4802F0F4F824490AA885
:1059900002F080F90AA802F03DF96EE608212148DC
:1059A00001F0C6FE124802F0E5F81E490AA802F00E
:1059B00071F90AA802F02EF95FE612211A4801F0E7
:1059C000B7FE0B4802F0D6F8174900E70A2117483E
:1059D00001F0AEFE064802F0CDF814490AA802F024
:1059E00059F90AA802F016F947E600BFE4D300000F
:1059F0008487FF1FF8D3000010D4000020D40000DB
:105A000038D4000048D4000054B7FF1F58D4000019
:105A10006CD4000080D4000098D40000D0D30000E3
:105A2000ECD20000F8D20000ACD4000004D3000097
:105A3000F0B591F8685B0C46CBB00646D1F8601B18
:105A4000DDB101F22317C4F8607B01A840F22312F4
:105A500000F09CF904F65E339F4205F1FF3528BF44
:105A6000C4F8604B84F8685B01A940F22312304609
:105A700000F08CF930464BB0F0BD40F2231200F03C
:105A800085F930464BB0F0BD70B5234991F8683BBD
:105A9000CEB0EBB9214C6378012B28D0023B012B0F
:105AA00001D94EB070BD1E4B1B78002BF9D01D4D97
:105AB0001D4C2B684D934D9B22689B1A022BF0D9ED
:105AC000FDF7A2FB2B684C934C9B23604EB070BD3E
:105AD0006846124CFFF7ACFF694640F223121348A8
