:1000000000800020BD010000853700003D37000062
:100010003D3700003D3700003D3700003D37000010
:100020003D3700003D3700003D37000085370000B8
:10003000853700003D370000795200007D530000F5
:1000400085370000853700008537000085370000C0
:1000500085370000853700008537000085370000B0
:1000600085370000853700008537000085370000A0
:100070008537000085370000853700008537000090
:100080008537000085370000853700008537000080
:100090008537000085370000853700008537000070
:1000A0008537000085370000853700008537000060
:1000B0008537000085370000853700008537000050
:1000C0008537000085370000853700008537000040
:1000D0008537000085370000853700008537000030
:1000E0008537000085370000853700008537000020
:1000F000853700008D3C0000853700000D3F000073
:1001000085370000995400008537000085370000CE
:1001100085370000853700008537000085370000EF
:1001200085370000853700008537000085370000DF
:1001300085370000853700008537000085370000CF
:1001400085370000853700008537000085370000BF
:1001500085370000853700008537000085370000AF
:1001600085370000CD41000085370000853700004D
:10017000853700008537000085370000853700008F
:10018000853700008537000085370000853700007F
:10019000853700008537000085370000853700006F
:1001A000853700008537000085370000853700005F
:1001B000853700008537000085370000564B4CF22C
:1001C000205210B51A804DF628121A8000BF00BFC9
:1001D00003F0DCFA514B4FF010621A60504A9A60FB
:1001E000504ADA60504A136813F4807304D14F49BF
:1001F0000B604FF4A85313604D4B1A78110703D5C9
:100200001A7842F008021A704A4B4B492A221A7097
:100210004A4A4B4B8B4204D252F8040F43F8040B6A
:10022000F8E7484B484900228B4202D243F8042B9E
:10023000FAE74649464A002352F8230041F82300D2
:1002400001336F2BF8D1434B434A802103F8011B44
:100250009342FBD1414B3D4A1A60414B8A221A70AE
:10026000A3F5805324225A70A0221A709A7992071B
:10027000FCD59A79D406FCD43A4A937903F00C035E
:10028000082B384BF9D103221A7140225A719A79FE
:100290009006FCD5334A9179324B4906FBD5324A58
:1002A000324911600221516020221A709A7902F0BD
:1002B0000C020C2AFAD12E4B2E4A1A602E4B2F4AD2
:1002C0001A6000225A60072243F8042C2C4AC3F813
:1002D0000C2D62B603F088FB144B1B68DA0705D5BA
:1002E000284803F015FB284B284A1A60284B1B7836
:1002F0005B0609D5244C254B22689A4204D121483B
:1003000003F006FB0023236008F04CF903F044FAE5
:1003100003F072F9FEE700BF0E2005403080044074
:10032000823F04000100002B10D0034014D0034092
:1003300002D0074000E007407490FF1FDCA50000DA
:100340002087FF1F7490FF1FFCA9FF1F0082FF1F63
:100350000000000000E400E05FE400E008ED00E0E1
:100360000050064000400640448004400000030165
:1003700004800440C010050014E000E0FF76010096
:100380000000202039AD035D1CE00340A5C3945A52
:1003900000F00740FFFFFFFFFFFFFFFFFFFFFFFF32
:1003A000FFFFFFFFFFFFFFFFFFFFFFFFFFFFFFFF5D
:1003B000FFFFFFFFFFFFFFFFFFFFFFFFFFFFFFFF4D
:1003C000FFFFFFFFFFFFFFFFFFFFFFFFFFFFFFFF3D
:1003D000FFFFFFFFFFFFFFFFFFFFFFFFFFFFFFFF2D
:1003E000FFFFFFFFFFFFFFFFFFFFFFFFFFFFFFFF1D
:1003F000FFFFFFFFFFFFFFFFFFFFFFFFFFFFFFFF0D
:10040000FFFFFFFFFFFFFFFFFFFFFFFFDEF9FFFF23
:1004100010B5054C237833B9044B13B10448AFF33E
:1004200000800123237010BD7490FF1F00000000A6
:10043000E0A50000084B10B51BB108490848AFF310
:1004400000800848036803B910BD074B002BFBD0A0
:10045000BDE81040184700BF000000007890FF1F63
:10046000E0A500007490FF1F00000000044B054948
:100470001A68137843F0200313700870704700BFA8
:1004800094A6FF1FFCA6FF1FF0B540F6055085B0EF
:1004900003F06CFB2F4A304B304911601025A0222D
:1004A0009D7140F605509A705D7103F075FC2C4B00
:1004B0002C491A680392039E1A680292029F1A68D6
:1004C00001920198284A1B680093284C284B0E6023
:1004D00017602849284A009F284E1860276000238B
:1004E000274C138040F6C41033700B7003F02EFAC3
:1004F0000E21244804F000FD204603F025F829468B
:10050000214804F0F9FC0A21204804F0F5FC2046BB
:1005100003F01AF80B211E4804F0EEFC204603F00D
:1005200013F844211B4804F0E7FC204603F00CF8C4
:100530001921194804F0E0FC204603F005F80121D8
:100540000D2003F0FDF9154B0121187803F0F8F99F
:1005500005B0F0BD94A6FF1F00A0064006A006400F
:1005600000A7FF1FDCA1FF1FC0A1FF1F1C96FF1FDC
:100570007CA6FF1F3491FF1F4EA2FF1F16A6FF1F70
:100580007887FF1FE0920000F092000004930000C3
:10059000109300001C930000649300006887FF1F05
:1005A0002DE9F04FADF2844D03F06CFC002835D0FE
:1005B00003F078FCAC4BC1B20391DB78AA4900226E
:1005C0000A700F2B00F2E781DFE813F0730173016B
:1005D0005601A5018F01B1019D001701F700D70059
:1005E000B3002D0152002C002C0010009E4B9F4A9E
:1005F0005B7B049211465E1E9B4ACB1AF6B29DF8B5
:100600000C10567383F82311002E00F07D82964A59
:100610000023937003F036FC0028C9D10DF2844DFD
:10062000BDE8F08F0E2B914B049305D01B88039AE5
:10063000B2EB132F00F0AE868B4A02231370049A9C
:100640009DF80C10137982F8151113F0010F874AE9
:10065000854B00F0F08184491B780F22CA70022B71
:100660004FF00D024A7300F07D8100230B70CEE73E
:100670007E4B04939D687E4EF220C5F317250346FA
:10068000982200210AE0581E43185A1C520888423A
:1006900002EB420240F2C98156F822200133954212
:1006A0004FEA5303EFD31946EED8954200F0B681D6
:1006B00000210B46049D2888434083EA0313DBB2E4
:1006C000DA0082EA032282EA102282EA1313DAB203
:1006D0002B80039B9A4200F05086634B0E22DA7007
:1006E000049B9DF80C2083F8142100298FD05E4BC9
:1006F0008A791B7993428AD25E48D21A1844002123
:1007000008F06AFA83E7594B19881D461846039B7F
:10071000C3714B4083EA0313DBB2DA0082EA03229F
:1007200082EA112282EA13132B804F4B0722DA70E0
:100730006DE74E4B039A1D886A4082EA0212D2B2DC
:10074000D1001E4681EA02219B68000400F47F006C
:1007500081EA152140EA132381EA1212F1787372BB
:10076000C3F307201B0CB072F3723280002900F033
:10077000AD813D4A0B23D37049E73C4B1E889D68F1
:100780001F46039B734083EA0313DBB2DA0082EA5D
:10079000032282EA1622000282EA131300F47F4049
:1007A00040EA15213B80304B7972C1F30725080CD4
:1007B0000A22BD72F872DA7029E72C492A4B0888A0
:1007C0001D7B039B4B72434083EA0313DBB2DA00C9
:1007D00082EA032282EA102282EA13130020EA0747
:1007E0000B808872C872204B40F17481CA78002A4D
:1007F00000F073810B22DA7009E71C4B19881D4643
:100800001846039B03724B4083EA0313DBB2DA0002
:1008100082EA032282EA112282EA13132B80124B0E
:100820000822DA70F3E6104B039F1A790F4B0E4D36
:100830001E46134401321F7330883B46434083EA0F
:100840000313DBB2D90081EA032181EA1021F07899
:10085000D2B281EA131382422A7133807FF4D7AE79
:100860000C23EB70D3E600BFE4A1FF1F5491FF1FE0
:10087000A89600006091FF1F9D499E4B08881D7B34
:10088000039BCB70434083EA0313DBB2DA0082EAB6
:10089000032282EA102282EA13130B80954B002276
:1008A000E8071A7140F10F8105200A714A71D8706A
:1008B000ADE6039BFD2B00F06585039BFE2B7FF4CB
:1008C000A6AE8C4B8A4A1B7B104643F00103894934
:1008D0009DF80C500B734FF6FF7200230280854A7F
:1008E000C37002238570D37091E6814B19881D4631
:1008F0001846039B43714B4083EA0313DBB2DA00D3
:1009000082EA032282EA112282EA13132B80794BB6
:100910000522DA707BE676499DF80C300B7110F0F9
:10092000FE0F00F0BE80734A0123D3706FE6704B58
:1009300019881D461846039B83714B4083EA0313B5
:10094000DBB2DA0082EA032282EA112282EA13137E
:100950002B80684B0622DA7059E6664A0023022E85
:1009600093701ED1049A92F8154192F8143143EA1B
:10097000042403985F4901230022FD288B700A702C
:1009800001D0CB7010E6049E02204FF6FF73F27088
:10099000C870338008E6564B0493DD78554B00262B
:1009A0009E70B31E012BE4D9002E3FF4FDAD524ED4
:1009B00096F8683B0A2B6CD08EA940F22312D7A878
:1009C000ADF838428DF83B5202F01EFED6F8643B7B
:1009D000ADF85C4303F2231306F65E37BB42C6F85C
:1009E000643B08BF3346D7A940F22312184608BF1C
:1009F000C6F8646B8DF85F5302F006FE96F8682B1C
:100A00003D490A2A034600F0FC84501C81F8680B1B
:100A1000002A7FF4C9ADC1F8603BC5E5374B01EB57
:100A2000410103EB81010B7944E6344B01EB4102B8
:100A300053F8222039E61B6943B11B6B002B4FD0C2
:100A400091682C48090A9847002849D0294B1E78FC
:100A500028482749012340F22312C3708EA802F0D0
:100A6000D3FD049A1488D578012E7FF476AF214BFC
:100A7000049A20491B8992794A7103B94B811D4917
:100A80001D4E01330B8196F8683B00220A2B8A70B9
:100A900092D126211A4804F02FFA1A4802F054FD88
:100AA00082E50888039B434083EA0313DBB2DA0044
:100AB00082EA032282EA102282EA13130B800D4B92
:100AC0000422DA70A3E50322DA70A0E5094A0C23B8
:100AD000D3709CE50922DA7099E50C22DA7096E56C
:100AE000044B1E78022EB3D003261E70B0E700BF61
:100AF0005491FF1FE4A1FF1F2496FF1FA89600003A
:100B0000809300007887FF1F1369526910931C4679
:100B10001192002B00F06E8454F8100F884D379519
:100B2000884D6168A268E368874F3895874D3D9589
:100B30003A97DFF834E2864FDFF830C23C973EAD9B
:100B4000CDF8ECC0CDF8E4E00FC5824B2069DA782F
:100B50006169E36907921746A26935963C460A34F3
:100B60000FC57C4B0594E40004F580747A4E3494F0
:100B7000023336960693202403E0059B002B00F0F9
:100B8000D080059D069EC4F14003AB4228BF2B4692
:100B9000ED1A05953EA8354620441D441C441A46CE
:100BA0003146069502F030FD402CE6D134AA22AB46
:100BB00092F82B0092F82A101870597092F82900B8
:100BC00092F82810D970987032A90433994202F132
:100BD0000402EDD1369B0893379B0993389B0A9307
:100BE000399B0B933A9B0C933B9B0D933C9B0E9331
:100BF0000DF59A7A3D9B0F93524621AB53F8041F93
:100C000042F8041F31A98B42F8D10DF5B6780DF5E5
:100C1000AC7C0DF59C7E5DAF5646302558F8044FF0
:100C20005EF8043F56F8042F5CF8041F4FEAF440C6
:100C3000114480EA74404FEAB34280EA942082EA89
:100C4000F312014482EAD3030B44013D47F8043F09
:100C5000E4D1424B0F9ADFF81891DDF82CB0DDF8A3
:100C600024E00A9F089EDDF838C0DDF83480019248
:100C70000C9D02930BE0CDF804C0C446A8461D4667
:100C800059F8043F0293BB467746B64606464FEAFC
:100C9000F52205EA080182EAB5122CEA050482EA87
:100CA00075624C405AF8041F019B144487EA0E02F7
:100CB00021444FEA763002EA060407EA0E0219449C
:100CC0005440029B264A80EAB60080EAB650194496
:100CD00020444A4501EB0B030844CCD10B99089AF8
:100CE00039440F460C99399719440B460D993A939C
:100CF0000244294414460D46099A0E99059B3694E0
:100D000032444144164608460A9A0F99379672446F
:100D1000614438923B953C903D910024002B7FF438
:100D200030AF349C04F110039C42349300F278837A
:100D30000C4B06930223C4F3C50405931EE000BFC9
:100D400085AE67BB72F36E3C7F520E5119CDE05BEE
:100D5000ABD9831F5491FF1F67E6096A982F8A4217
:100D6000A49600006892FF1F3AF54FA58C68059B7A
:100D7000A8950000059B002B00F0D080059D069EE5
:100D8000C4F14003AB4228BF2B46ED1A05953EA89F
:100D9000354620441D441C441A463146069502F04F
:100DA00033FC402CE6D134AA22AB92F82B0092F807
:100DB0002A101870597092F8290092F82810D970EA
:100DC000987032A90433994202F10402EDD1369BA6
:100DD0000893379B0993389B0A93399B0B933A9B53
:100DE0000C933B9B0D933C9B0E930DF59A7A3D9B88
:100DF0000F93524621AB53F8041F42F8041F31A948
:100E00008B42F8D10DF5B6780DF5AC7C0DF59C7ED6
:100E10005DAF5646302558F8044F5EF8043F56F84B
:100E2000042F5CF8041F4FEAF440114480EA744038
:100E30004FEAB34280EA942082EAF312014482EA44
:100E4000D3030B44013D47F8043FE4D1BD4B0F9A57
:100E5000DFF8FC92DDF82CB0DDF824E00A9F089E54
:100E6000DDF838C0DDF8348001920C9D02930BE070
:100E7000CDF804C0C446A8461D4659F8043F029365
:100E8000BB467746B64606464FEAF52205EA080114
:100E900082EAB5122CEA050482EA75624C405AF8DF
:100EA000041F019B144487EA0E0221444FEA763066
:100EB00002EA060407EA0E0219445440029BA24AC1
:100EC00080EAB60080EAB650194420444A4501EB56
:100ED0000B030844CCD10B99089A39440F460C995E
:100EE000399719440B460D993A9302442944144604
:100EF0000D46099A0E99059B369432444144164694
:100F000008460A9A0F9937967244614438923B9585
:100F10003C903D910024002B7FF430AF349C04F1D1
:100F200038039C42349300F27782884B0693072360
:100F3000C4F3C504059303E0059B002B00F0D080AB
:100F4000059D069EC4F14003AB4228BF2B46ED1A17
:100F500005953EA8354620441D441C441A4631469A
:100F6000069502F051FB402CE6D134AA22AB92F850
:100F70002B0092F82A101870597092F8290092F8F4
:100F80002810D970987032A90433994202F10402F2
:100F9000EDD1369B0893379B0993389B0A93399B75
:100FA0000B933A9B0C933B9B0D933C9B0E930DF53F
:100FB0009A7A3D9B0F93524621AB53F8041F42F897
:100FC000041F31A98B42F8D10DF5B6780DF5AC7C34
:100FD0000DF59C7E5DAF5646302558F8044F5EF8FF
:100FE000043F56F8042F5CF8041F4FEAF440114404
:100FF00080EA74404FEAB34280EA942082EAF31216
:10100000014482EAD3030B44013D47F8043FE4D195
:101010004C4B0F9ADFF83891DDF82CB0DDF824E066
:101020000A9F089EDDF838C0DDF8348001920C9DDF
:1010300002930BE0CDF804C0C446A8461D4659F8FB
:10104000043F0293BB467746B64606464FEAF52272
:1010500005EA080182EAB5122CEA050482EA756203
:101060004C405AF8041F019B144487EA0E022144A5
:101070004FEA763002EA060407EA0E0219445440A9
:10108000029B314A80EAB60080EAB65019442044F7
:101090004A4501EB0B030844CCD10B99089A39441B
:1010A0000F460C99399719440B460D993A9302440F
:1010B000294414460D46099A0E99059B36943244EC
:1010C0004144164608460A9A0F993796724461447D
:1010D00038923B953C903D910024002B7FF430AF3B
:1010E000349D0599C5F3C504C4F1770680234722D2
:1010F00006F03F060DF189008DF8883007F06CFD91
:1011000006F109021046059222AA1644359B337156
:101110002A0AF2712A0E72711A0C290CB27005EBB0
:10112000C0029542B1714FEA1321F1704FEA136189
:1011300084BF0133359322AB3572717034920693BC
:101140000CE000BF982F8A42A49600006A92FF1F0D
:10115000A8950000059B002B00F0D080059D069E01
:10116000C4F14003AB4228BF2B46ED1A05953EA8BB
:10117000354620441D441C441A463146069502F06B
:1011800043FA402CE6D134AA12AB92F82B0092F825
:101190002A101870597092F8290092F82810D97006
:1011A000987022A90433994202F10402EDD1369BD2
:1011B0000893379B0993389B0A93399B0B933A9B6F
:1011C0000C933B9B0D933C9B0E930DF59A7A3D9BA4
:1011D0000F93524611AB53F8041F42F8041F21A984
:1011E0008B42F8D10DF5B6780DF5AC7C0DF59C7EF3
:1011F0005DAF5646302558F8044F5EF8043F56F868
:10120000042F5CF8041F4FEAF440114480EA744054
:101210004FEAB34280EA942082EAF312014482EA60
:10122000D3030B44013D47F8043FE4D1A04B0F9A90
:10123000DFF89092DDF82CB0DDF824E00A9F089EDC
:10124000DDF838C0DDF8348001920C9D02930BE08C
:10125000CDF804C0C446A8461D4659F8043F029381
:10126000BB467746B64606464FEAF52205EA080130
:1012700082EAB5122CEA050482EA75624C405AF8FB
:10128000041F019B144487EA0E0221444FEA763082
:1012900002EA060407EA0E0219445440029B854AFA
:1012A00080EAB60080EAB65019442044914501EB2B
:1012B0000B030844CCD10B99089A39440F460C997A
:1012C000399719440B460D993A9302442944144620
:1012D0000D46099A0E99059B3694324441441646B0
:1012E00008460A9A0F9937967244614438923B95A2
:1012F0003C903D910024002B7FF430AF9DF8DB3013
:101300009DF8DA206C4C9DF8D8008DF848308DF8A7
:1013100049209DF8D9309DF8DF208DF84A308DF8AE
:101320004B009DF8DE308DF84C2004F21D1112A800
:1013300006228DF84D3007F01DFC002874D0109B5C
:101340001B6B4BB1049A5D4891685B4C090A984746
:1013500000284FD1E3780793584B03261E70574857
:1013600055490123C37040F223128EA802F04CF9B4
:10137000049B079D1C88FFF777BB504A0D23D37051
:10138000FFF7AEB94D4B4C4A1B7B104623F00103CF
:10139000FFF79DBA494A01231370FFF750B90F2890
:1013A000CDD8DDE92267109B454AD3E90245921961
:1013B0004FF000037B41AB4208BFA242BFD3119A5A
:1013C000049D00EBC0041444EB79E3702B7A237185
:1013D000013084F802E0053410800B6823608B88AC
:1013E0001099A380D1E90223BB4208BFB24201D2C7
:1013F000C1E90267049BDB780793304B01261E701E
:10140000ADE7D1F8603B03F22313BB4208BF0B46A4
:10141000C1F8603BFFF7C8B8359B0133359384E5CD
:10142000359B0133359383E404F217110023002226
:10143000CDE92223119B08688D8894F816E122904B
:10144000ADF88C50002B3FF47AAF18880028A8D054
:10145000E579267A059C04E094B2A04203F10903E1
:101460009DD0DF78AF4204F10102F5D11F79B74278
:10147000F2D19F787745EFD1A04290D0119B04EB39
:10148000C40423441C460DF590650022002365E941
:10149000D22354F8050F2860A388AB80D5E9002338
:1014A000DDE92267BB4208BFB24296D347E700BFDF
:1014B000982F8A42A49600005491FF1FE4A1FF1FB9
:1014C000808D5B00A895000010B5194B197882B08B
:1014D000C9B9184B184A1B68019301981368C31ABD
:1014E000B3F5FA7F154B08D310601A78C2B10D20FE
:1014F000197002F01FFA02B010BD19780D2002F029
:1015000019FA02B010BD01230C4C19460D202370AE
:1015100002F010FA21780D2002F00CFA02B010BD92
:1015200001210D20197002F005FA02B010BD00BFB4
:1015300016A6FF1F00A7FF1FA4A4FF1F2AA6FF1FB8
:10154000064B93F81C320A2B054B0CBF01210021DE
:101550001970044B187802F0EDB900BF68A2FF1FA4
:10156000F2A6FF1F6887FF1F013808281DD8DFE893
:1015700000F00507090B121416181A000120704715
:1015800002207047032070470139C9B208290ED8DC
:10159000084B585C70470E2070470F207047102092
:1015A00070471120704712207047132070470D209C
:1015B000704700BFD4920000F8B5184DEE6804469D
:1015C0004FF07E51304606F079FF00BB204606F012
:1015D00083FD07463046124906F0D2FD1149064602
:1015E000384606F0CDFD0146304606F0C1FC0E49F6
:1015F0006E69EA69E86081FB0431E317C3EBA1146B
:10160000344401326C61EA6106F0A6FFF8BD204661
:1016100006F062FD07460646DCE700BF4487FF1F71
:101620004CA62A3F4CA6AA3ED34D6210F0B51E4CE4
:1016300094F8203085B00546002B32D01B4B1A6839
:101640000192019A0021013A84F82010196803914F
:1016500003981B680293029B2361801A06F038FDF1
:10166000134906F041FE06F001F9064628460F46EA
:1016700006F0EAF802460B463046394606F04AF9CB
:1016800006F020FC0B4906F07BFD0B4906F078FDC7
:10169000034601466068236006F06AFC606005B09E
:1016A000F0BD2269014BD1E74487FF1F00A7FF1F50
:1016B00000BA5B4A000020410000883F70B5134D1E
:1016C0000646FFF7B3FFAC684FF07E51204606F0A8
:1016D000F5FEA0B9304606F0FFFC064620460C4950
:1016E00006F04EFD0B490446304606F049FD014622
:1016F000204606F03DFCA86006F02EFF70BD304687
:1017000006F0EAFC06460446E8E700BF4487FF1FF0
:101710004CA62A3FFA7EAA3EF8B5164CE668054666
:101720000021304606F0C0FEF8B1284606F0D4FC91
:10173000074606463046104906F022FD0F49064688
:10174000384606F01DFD0146304606F011FC0C49F6
:101750006269E369E060A1FB051502EB95150133B1
:101760006561E36106F0F8FEF8BD284606F0B4FCBA
:101770000746DFE72087FF1FFA7E2A3FFA7EAA3E50
:10178000D34D6210F0B51E4C94F8203085B005465C
:10179000002B32D01B4B1A680192019A0021013AAA
:1017A00084F820101968039103981B680293029B28
:1017B0002361801A06F08CFC134906F095FD06F0B3
:1017C00055F8064628460F4606F02EF802460B4608
:1017D0003046394606F09EF806F074FB0B4906F0D9
:1017E000CFFC0B4906F0CCFC034601466068236041
:1017F00006F0BEFB606005B0F0BD2269014BD1E789
:101800002087FF1F00A7FF1F00BA5B4A000020418E
:101810000000883FF8B5134CA5680646002128460D
:1018200006F042FEC8B1304606F056FC07460546B3
:1018300028460D4906F0A4FC0C490546384606F03A
:101840009FFC0146284606F093FBA0603046FFF758
:1018500099FFA06806F080FEF8BD304606F03CFC1B
:101860000746E5E72087FF1FFA7E2A3FFA7EAA3E59
:101870002DE9F041AE4C94F8686BD8B0002E00F022
:101880003A84D4F8601B40F2231201F223150FA80A
:10189000C4F8605B01F0B8FE04F65E339D42A54DCE
:1018A00028BFC4F8604B013E0FA9284640F223121E
:1018B00084F8686B01F0A8FEAB68C3F31723212BF3
:1018C00000F0EC8140F2A880932B00F0828340F27C
:1018D000F480AD2B00F0E98040F25E81B52B00F082
:1018E0007B81FD2B40F09580934B944E2C7B1C709C
:1018F00005F10D07B4463D3538687968BA68FB686C
:10190000E646AEE80F001037AF42F446F4D13A880D
:10191000DFF848E2894BACF8002032228EF8002034
:1019200003F13305002213F8010B10F0DF0F02F171
:10193000010104D1187810F0DF0F00F06C839D4294
:101940000A46F0D133273B4636224FF0350E4FF092
:10195000340C7B487B49077000257848F55406F81D
:101960000C5006F80E50B55407F09EF9002840F0D0
:101970005E83754B01221A70DFF8D48198F81C320F
:101980000A2B00F06E83714E6C4930463A1D00F808
:10199000014B354601F038FE0FCD01AC0FC40FCD21
:1019A0000FC40FCD0FC4684B86F833701B7886F8D0
:1019B000343095E80300D8F8187244F8040B353732
:1019C00008F2122C67452170C8F8187204BF474608
:1019D000C8F8188201AE3D460DF1340E34460FCCE6
:1019E000744528606960AA60EB60264605F1100521
:1019F000F4D12068286023792B7198F81C22544B6D
:101A00000A2A00F02283511C83F81C120AB9C3F879
:101A1000147258B0BDE8F081182B00F002812BD869
:101A2000012B00F0B382C0F04782162BF1D1494B55
:101A30001B78002BEDD005F114030FCB464C474F1C
:101A4000DFF850E1464E84E80F006B8A4549EA68AA
:101A5000288ACEF800201024B3F5B27F3C70308085
:101A60000B8000F0FB82B3F5B67FD2D13E493F4BED
:101A70000A6001221A70CCE71D2B00F0AA811E2BF0
:101A800000F079811B2BC4D1324B1B78002BC0D0C6
:101A9000374C3849384BB5F91460B5F91600B5F92B
:101AA0001820266008601A60B3E72A4B1B78002BC9
:101AB000AFD0324BEA681A60ABE74A2B00F03E81A8
:101AC0007D2B00F02C81412BA3D1224B1B78002BC6
:101AD0009FD02B492B4B95F834002F8A6E8AAA8A07
:101AE000EC8A0870288B698B5F809E80AF8BEE8BB1
:101AF000DA801C812A8C6C8C58819981A88CE98CA5
:101B0000DF811E822F8D6E8D5A829C82AA8DD88293
:101B100019831D4C1D481E49DA835F8301229E8371
:101B2000EE8D95F835501E84257002700A7070E7AE
:101B30002496FF1FB0A4FF1FE5A5FF1FF090FF1F15
:101B4000A4A1FF1F44950000E4A5FF1F2CA6FF1FC2
:101B500068A2FF1F16A6FF1F80A6FF1F9690FF1FFB
:101B6000DE90FF1FF0A5FF1F98A1FF1FC8A6FF1F53
:101B7000A8A6FF1FACA6FF1FB0A6FF1FC490FF1FA3
:101B8000C0A6FF1FF4A5FF1F2C91FF1F54A2FF1F2B
:101B9000CCA1FF1FE090FF1FA62B7FF43AAF934B21
:101BA0001B78002B3FF435AF914B2E7C91481E7073
:101BB000914A6E7C0670914FA87C914C9149924B52
:101BC000107095F813E02E7DA889EA8987F800E067
:101BD000267008801A801CE7844B1B78002B3FF48A
:101BE00018AFB5F90C00894CFFF796FD2080B5F9C8
:101BF0000E00FFF70FFEB4F90030854945F20822C8
:101C00009342088000F3398244F2A012934240F3D9
:101C10003882804B1A78062A00F0D88105221A7083
:101C2000F7E6724B1B78002B3FF4F3AE95F82830A3
:101C300079487A4A95F829100370022B11707FF6C3
:101C4000E8AE774F6869774E774C3860AF69774B6D
:101C50003760EE69764A26602C8C1C807549764B7D
:101C60006C8C1480EA8CAC8C1A800C8006F034FAF0
:101C70007249734C06F038FB03462360384606F081
:101C80002BFA6E4906F030FB03466360304606F0DF
:101C900023FA6C4906F028FBA060BAE6534B1B7888
:101CA000002B3FF4B6AE5C4B1B78022B7FF6B1AE37
:101CB000654F2869654E664C38606F69654A3760C4
:101CC000AE69654B2660EC69146064492C8C644AEB
:101CD0001C80644B6C8C0C80A98CED8C11801D8059
:101CE00006F0FAF95549564C06F0FEFA0346236011
:101CF000384606F0F1F9514906F0F6FA03466360FA
:101D0000304606F0E9F94F4906F0EEFA564BA0606E
:101D1000A3FB0530400906F0DFF9E06079E6334BBC
:101D20001B78002B3FF475AE504C5149514BAE8996
:101D3000E8892A8A268008801A806AE62B4B1B785D
:101D4000002B3FF466AE4C4FB5F91C004B4C4C4A8F
:101D50003880EF684B4B27604B492C694B4E146021
:101D6000EF8BAA696C691A6037800C6006F0B4F9D1
:101D7000334BD8604DE61D4B1B78002B3FF449AE2A
:101D8000434B4449444C6A6AEF692E6A1A600F60FB
:101D9000266028694149DFF81C81414E414C06F01C
:101DA000EFF941496F69AD6906F09EFA3B49C8F801
:101DB0000000384606F0E4F93B4906F095FA374949
:101DC0003060284606F0DCF9374906F08DFA2060CD
:101DD0001FE6064B1B78002B3FF41BAE3349344BF8
:101DE00028692A8B08601A8013E600BF16A6FF1F19
:101DF0002C91FF1FDCA5FF1FC1A6FF1F4CA2FF1FD8
:101E0000B6A6FF1F4E91FF1F98A6FF1F64A6FF1FD7
:101E1000A8A4FF1F5091FF1F6A87FF1FACA4FF1FDC
:101E2000EC90FF1F20A6FF1F50A2FF1F9CA6FF1FC4
:101E3000B4A6FF1F4C91FF1F9490FF1F8096184B74
:101E400068A6FF1F00007A4458A2FF1FC4A6FF1F08
:101E5000D8A5FF1FB8A1FF1FD6A6FF1FD8A6FF1F3A
:101E6000DAA6FF1FC890FF1F1F85EB5190A6FF1F2A
:101E700088A4FF1F28A6FF1FC090FF1FACA1FF1F53
:101E8000E0A5FF1F3091FF1F9C90FF1F64A2FF1F62
:101E9000ECA6FF1F3C91FF1FDCA6FF1F0000344390
:101EA000A8A1FF1F3891FF1FDB0F4940D890FF1FEB
:101EB000F0A6FF1FF8A6FF1F297C904A4B1F012B9D
:101EC00011707FF6A6AD1B293FF4A3AD8C4B6A7C45
:101ED0008C4E18688C4F32708C4C0090A2F10C0222
:101EE0008B48EB683970DFF89CE2009E89492660D8
:101EF000B2FA82F203605209A87C874C8EF8002067
:101F0000864E95F813E0864F0870864A297D87F83B
:101F100000E01D0C1B0E2370C309357011700ED02C
:101F2000814B1A785AB98149814A0868106048681B
:101F3000506088689060C968D16001221A707D4D38
:101F40002C78002C7FF465AD7B4E7C4833880921CA
:101F50000133338002F0D0FF3188794801F044FB2F
:101F60002146784802F0C8FF754801F0EDFA338841
:101F7000022B7FF64EAD01230C2173482B7002F02B
:101F8000BBFF6F4801F0E0FA348042E5694B1B78F3
:101F9000002B3FF43EADB5F91A006C4CFFF70CFB7B
:101FA0002080B5F91C00FFF789FBB4F900306849BF
:101FB00045F20822934208805BDC44F2A01293426F
:101FC0006FDD644B1A78062A7FF428AE04221A705B
:101FD0001FE5584B1B78002B3FF41BADEA685E49A8
:101FE000DFF8A4E15D4E5E4895F82C300A60002AC7
:101FF0006F8D95F82F408EF80030B8BF00223780E3
:102000000470B8BF0A60E3B1012B7FF402AD554BF9
:102010000A681A80FDE4D0B2471C8EF8000002F175
:10202000020C02F1030E0B46FFB2043291E44E495A
:102030004E4806F039FE00287FF49EAC4C4B1870D9
:102040009AE44C4B0A681A80E3E4D3F81422353240
:10205000624508BF1A46C3F81422DAE4464B1A60F8
:10206000D7E41421454802F047FF354801F06CFAE7
:10207000CFE4384B06221A70CBE4414B06221A708B
:10208000C7E443F2381293421EDC42F2D00293427C
:102090002CDC41F268029342394B0FDC00221A70AB
:1020A000B7E443F23812934216DC42F2D002934274
:1020B00017DC41F268029342264BEFDD1A78032ABF
:1020C000ECD002221A70A4E42D4B1A78052A7FF472
:1020D0007DAF03221A709CE41E4B1A78052AF8D0B3
:1020E00074E71C4B1A78042AEBD0F2E7244B1A78D9
:1020F000042AE6D0EDE701F067FB00BF9AA6FF1FB8
:1021000000A7FF1FE9A6FF1F44A2FF1FDCA1FF1FBE
:102110004891FF1F61A6FF1FD5A5FF1F3691FF1F26
:102120001CA6FF1FD690FF1F3491FF1F68A6FF1F3C
:10213000A090FF1F16A6FF1F4EA2FF1F28950000AC
:102140007887FF1F009300003495000062A6FF1FF0
:10215000CA90FF1FD4A6FF1FD4A1FF1F9CA1FF1F81
:10216000B0A1FF1F9EA6FF1F54950000F090FF1F17
:10217000E4A5FF1FBC90FF1F94A1FF1F6495000002
:102180005091FF1F5CA2FF1FBE90FF1F7E2808B565
:102190000CD07D2803D0BDE8084001F05DBD01F002
:1021A0005BFD5D20BDE8084001F056BD7D2001F0DB
:1021B00053FD5E20BDE8084001F04EBD38B50D4B23
:1021C0001B78012B04460D4602D00120FEF74EF984
:1021D000204655B1FFF7DAFF074B1888204400EB83
:1021E000102000F0FF00188038BDBDE8384001F035
:1021F00033BD00BFFCA6FF1FA6A1FF1F10B5204BDB
:102200001B7882B0012B0092ADF80610044602D074
:102210000120FEF72BF900217E20FFF7CFFF20469B
:102220000021FFF7CBFF01211020FFF7C7FF9DF82A
:102230000600144C0121FFF7C1FF9DF807000121A2
:10224000FFF7BCFF9DF800000121FFF7B7FF9DF8E5
:1022500001000121FFF7B2FF9DF802000121FFF705
:10226000ADFF01219DF80300FFF7A8FF2078C043D0
:10227000C0B2FFF78BFF0023238002B010BD00BF68
:10228000FCA6FF1FA6A1FF1F2C4B1B7870B48BB1BF
:102290002B4B2C4C1B682C492C4A002B40DBA4FBFD
:1022A00003035C0904EB4404002364000C60137016
:1022B0001D460FE0264A234C1268002A21DBA4FBAE
:1022C000024254092048214904EB4404640004609C
:1022D0000B701D4600221346012000FA03F1013362
:1022E0001E2B42EA0102F8D11A4E336822402B43DA
:1022F000134333601A464FF400611B2070BCFFF794
:102300007DBF5242A4FB022464090F490F4B04EB2A
:102310004404640001220C601A704FF08045D9E734
:102320005B42A4FB0334640904EB4404640001230E
:102330000C6013704FF08045CCE700BF5CA2FF1F1C
:10234000EC90FF1F1F85EB519890FF1FD8A1FF1F36
:1023500058A2FF1FD090FF1F2B4B1B7870B4BBB14E
:102360002A4B2B4C1B682B4A2B491268002BB8BFF9
:102370005B42A4FB0334640904EB44046400002AB8
:102380000C60264B3ADB02221A704FF0004611E037
:10239000234B1F4C1B682049204A002B21DBA4FB48
:1023A00003035C0904EB4404640002230C60137013
:1023B0004FF0004600221346012000FA03F10133DA
:1023C0001E2B42EA0102F8D1164D2B6822403343FE
:1023D00013432B601A464FF400611B2070BCFFF7BB
:1023E0000DBF5B42A4FB0334640904EB44046400A6
:1023F00003230C6013704FF04046DBE703221A7092
:102400004FF04046D6E700BF5CA2FF1F20A6FF1F8B
:102410001F85EB51EC90FF1FD0A6FF1FD8A1FF1F17
:10242000C4A6FF1FD090FF1F2DE9F047564F3E78FE
:102430008EB0002E55D0554B1C78A6423CDA544B3A
:1024400054489D5D544C1E444FEA056C96F803E0D9
:102450007378B67863700EF07F020CF0FE4C4CEA95
:10246000020C0268A6701904002E18BF002B4CEA5B
:10247000020C01F4FE014FEA06224CEA010102F4CB
:10248000FE420CBF012300230A43002D08BF43F086
:102490000103026084F803E0257093B9BEF1000FD8
:1024A0000FD04FF4A0411B20FFF7A8FE3B78043368
:1024B0003B700EB0BDE8F08700233B700EB0BDE866
:1024C000F087364B1B785C05990304F4000401F493
:1024D0000041DB01214303F080030B431A430260F8
:1024E000DFE7DFF8BCE09EF81CC2BCF1000F48D06B
:1024F000DEF8144204F13509CEF8149204F1300AE2
:10250000E84620686168A268E36845460FC5103454
:102510005445A846F5D120682860214B22792A71BC
:1025200003F2122291456C4628BFC3F814320FCC37
:10253000DFF87480DFF864A0DFF8509045460FC5DF
:102540000FCC0FC50FCC0FC594E8030045F8040B62
:1025500098F8333098F8000029701A1D0CF1FF3CF0
:102560008AF8000008F10101094889F800301C468A
:102570008EF81CC201F048F80A4B98F834201A7003
:102580005BE701F021F900BFC9A6FF1F78A6FF1F76
:10259000E095FF1FD090FF1FB890FF1F3591FF1FE0
:1025A00068A2FF1FE8A6FF1F2CA6FF1FF8B5264B49
:1025B0001B78062B46D0254B254C1B78254D264AEB
:1025C0002478264826492C701278DD11EBB203706E
:1025D0000B7072BB2349244B08680130C0B21870DD
:1025E0002249234B91F800E0224E1F7833686401A2
:1025F0004FEA4E2E04F060010EF400740C43BF024B
:1026000044EA030107F44067120302F4805239439D
:10261000114341EAC51141EA052300F01F000343BD
:102620001A46336045F201011B20BDE8F840FFF770
:10263000E5BD114B114918780978FEF795FF0A4B53
:102640001870CDE7F8BD00BF44A2FF1F61A6FF1FB1
:10265000E4A5FF1FE8A6FF1F5CA2FF1F90A4FF1FB9
:10266000D3A5FF1F4891FF1FABA4FF1F2BA6FF1F81
:102670008AA4FF1FD090FF1F3691FF1FD5A5FF1F13
:1026800030B42E4B1A78042A0AD80132D2B2042A66
:102690001A700CD0052A3CD0012A24D030BC7047D7
:1026A0002749002201201A70087030BC7047254B62
:1026B00025491A700D6800221346012000FA03F123
:1026C0000133182B42EA0102F8D1204C21682A403C
:1026D00041F08063134323601A4645F207011B2033
:1026E00030BCFFF78BBD1A481A49164B05780D60B0
:1026F00000211A700B4602FA03F00133182B41EA4D
:102700000001F8D1114C2268294042F080730B433C
:10271000E1E70C4B10491A700D68002213460120A6
:1027200000FA03F10133182B42EA0102F8D1074CF9
:1027300021682A4041F0A063CCE700BF9790FF1FBB
:10274000D4A5FF1F9EA1FF1F98A4FF1FD090FF1FBD
:1027500044A2FF1FF4A6FF1FA0A4FF1F144B1B7869
:1027600010B50BB3134B187805F0B6FC124905F001
:10277000BBFD05F0F1FE114B186000221346012449
:1027800004FA03F10133202B42EA0102F8D10C4C88
:1027900023680240134323601A464FF201111B20A5
:1027A000BDE81040FFF72ABD044BFF201860E4E7A6
:1027B000CCA1FF1F2C91FF1F5C8F22402096FF1F92
:1027C000D090FF1F10B50229044680EAE070A0EB0C
:1027D000E47011D0032901D0002010BD012A26D0B9
:1027E000022AF9D1B0F57A7F52DA800080B2002C4B
:1027F000F3DA40F4805010BD012A31D0022AEBD127
:1028000063285EDDB0F57A7F72DA05F061FC574926
:1028100005F0B6FC02F07CFF05F09EFEC0B2800021
:1028200040F00100002CD8DA40F4007010BDB0F583
:102830007A7F49DBB0F5205F6CDA05F049FC4B4943
:1028400005F09EFC02F064FF05F086FE80B24000B9
:1028500040F0010080B2002CBFDA40F4006010BDEF
:1028600063282BDD40F2F54398423FDC05F030FC55
:102870003E4905F085FC02F04BFF05F06DFEC0B24D
:10288000400040F00100002CA7DA40F4807010BD39
:1028900042F20F7398421ADD354B98423DD805F04D
:1028A00017FC344905F06CFC02F032FF05F054FED1
:1028B00080B2800040F0020080B298E7400080B211
:1028C000E1E7800080B2ADE7400080B2C3E705F0E9
:1028D000FFFB264905F054FC02F01AFF05F03CFE10
:1028E00080B2800040F0010080B280E7FF20CAE79C
:1028F00042F20F73984222D805F0EAFB1D4905F019
:102900003FFC02F005FF05F027FEC0B2800040F05A
:10291000020087E740F2FF709DE7B0F57A2F1FD2E3
:1029200005F0D6FB144905F02BFC02F0F1FE05F092
:1029300013FE80B2800040F0030080B257E70F4BD7
:10294000984210D805F0C4FB0B4905F019FC02F0C1
:10295000DFFE05F001FEC0B2800040F0030061E739
:1029600040F6FF7043E740F2FF105BE7CDCCCC3D73
:102970009F8601000AD7233C6F12833A17F00100AB
:10298000F8B52D4B2D4A1B780F2B4ED90F23137002
:102990009E462B4A2B4B11782B4E03290A4628BF03
:1029A000032203291A70336842D90339CFB2BC031A
:1029B00004F4404C25482649058809682548120139
:1029C00002F030021A4380FB013042EA0E03224A31
:1029D000DFF890E0C917A2FB05250222C1EB6010C9
:1029E000114643EA0C048EF80070FFF7EBFEC5F3C6
:1029F000C7051A4B07460122284602211F60FFF730
:102A0000E1FE174BDFF860E0BF053B40C5B2234352
:102A100043EA85138EF800501A46336045F20201EE
:102A20001B20BDE8F840FFF7E9BB9E461370B0E7F6
:102A30004FF0000C6746BDE7ACA4FF1F2D91FF1FB0
:102A40006A87FF1FCDA1FF1FD090FF1F9CA6FF1F0D
:102A500050A2FF1F1F85EB51CDCCCCCC4091FF1F66
:102A60000000C07FE690FF1FAAA4FF1F234BB3F90D
:102A70000020002A70B53BDB214CD31784FB0224D5
:102A8000C3EB641424B2A6B21E4D1F4A1F492B6823
:102A9000168008881C4305F01FFB1D4905F070FBDC
:102AA00002F036FE05F032FD01220221FFF78AFE18
:102AB000184A194B11881880400200F4FF3343EA8A
:102AC00004024E0411230021012404FA03F001330F
:102AD000202B41EA0001F8D1314041EA02032B608A
:102AE0001A4645F203011B20BDE87040FFF786BB84
:102AF000002214461A801646C6E700BF62A6FF1FD2
:102B00001F85EB51D090FF1FB090FF1FCA90FF1F91
:102B1000CDCCCC3DBC90FF1FE490FF1F2DE9F04FC2
:102B2000DFF86493C249D9F80400C24EDFF85C8331
:102B3000C14FC24DC24C89B005F0D6FBC14905F06A
:102B40001FFB8346BA49D9F80000C6F800B005F06B
:102B5000CBFBBC4905F014FB8246B549D8F804000C
:102B6000C7F800A005F0C0FBB64905F009FB814697
:102B7000AF49D8F80000C5F8009005F0B5FBB149A1
:102B800005F0FEFA804659464846C4F8008005F034
:102B9000EDF904F06BFE02460B46CDE9062302F088
:102BA00073FDCDE90001404604F060FE8046894691
:102BB00002F020FDCDE90201504604F057FE8246A6
:102BC0008B4602F017FDCDE904014046494602F06C
:102BD0005BFD804689465046594602F055FDDDE9C9
:102BE000062382468B461046194602F003FD4246F4
:102BF0004B46CDE90601DDE9040104F08BFE5246A7
:102C00005B46DDE902AB804689465046594604F0F2
:102C100081FEDDE9062304F07DFE02460B464046B8
:102C2000494604F0C3FC5246804689465B46DDE9CE
:102C3000000104F06FFE42464B4602F0E5FD05F050
:102C400041F97B4905F09CFA7E4905F04DFB0021D6
:102C5000804605F033FC002840F0E4807A4BDFF832
:102C600030A2C3F80080404605F050FC83B2A3F1C7
:102C7000B40000B20028BCBF03F1B40000B2B0F54C
:102C8000B47FA8BFA0F5B470704BA8BF00B2188085
:102C900005F022FA6E4905F073FA05F037FC246856
:102CA0003F68AAF800003946204605F05FF9694BF5
:102CB00031688046C3F80080286805F057F9664BF4
:102CC000054618604FF07C51404605F059FA04F073
:102CD000CDFD02F0D9FCCDE9000128464FF07C5132
:102CE00005F04EFA04F0C2FD02F0CEFC80463846F4
:102CF000894604F0BBFD02F07DFC064620460F46E7
:102D000004F0B4FD02F076FC424604460D464B4604
:102D10004046494604F0FEFD32463B4604F0FAFDCB
:102D200022462B4604F0F6FDDDE9002304460D465D
:102D30001046194604F0EEFD0B4602462946204691
:102D400004F036FC05F0BEF8444A106004F08EFD35
:102D500002F05CFD02F000FD02460B4604F028FC88
:102D600005F0B0F83E4B3F49186005F009FA3E4BBC
:102D70003E4A1B781060002B52D005F0C7FB80B292
:102D800005F0A6F902F0C4FC05F0C0FB384B394E43
:102D90001B68032186FB0326DB170222C3EB6616A2
:102DA000FFF710FD344A002336B210801C46012183
:102DB00001FA04F201340C2C43EA0203F8D12F4D3E
:102DC0002A680340304643EA020705F085F902F01D
:102DD0009FFC05F09BFB02220321FFF7F3FC284B2D
:102DE00000B2188000220303012606FA04F1013420
:102DF000182C42EA0102F8D11A403A430028BAF9E5
:102E00000030B8BF42F0807242EA43631A4645F28E
:102E100004011B202B6009B0BDE8F04FFFF7EEB9AD
:102E20001846B3E74046174905F0A2F8804615E773
:102E30000000344348A2FF1FA0A6FF1F4491FF1FBC
:102E4000A4A6FF1FDB0F4940CCA6FF1FBCA1FF1F9C
:102E50004CA6AA3ECC90FF1F90A1FF1FC4A1FF1F4C
:102E6000A0A1FF1F706DC24A3491FF1F9090FF1FF9
:102E7000B8A1FF1F1F85EB51DC90FF1FD090FF1FF3
:102E8000EA90FF1F0000B443A090FF1F68A6FF1F39
:102E9000E890FF1F2DE9F84F334B34491868344F41
:102EA000344CDFF8DCA0DFF8DC8005F069F9324B48
:102EB0002E490646186805F063F9304B8346B3F98E
:102EC000000000EB8000400005F006F9002181467B
:102ED000304605F0F3FA3D68002842D1304602F052
:102EE00017FC05F013FB01220221FFF76BFC0646DD
:102EF00005F0EEF82060584602F00AFC05F006FBEB
:102F000001220221FFF75EFCF6B246EA05040646FE
:102F100005F0DEF8760206F4FF334FF07C51CAF874
:102F20000000484643EA040605F02AF9C8F8000004
:102F300005F012FB012500214004112305FA03F4DA
:102F400001331C2B41EA0401F8D1014041EA060398
:102F50001A463B6045F205011B20BDE8F84FFFF71C
:102F60004DB945F48075B9E73091FF1F000020414D
:102F7000D090FF1FBCA6FF1FE0A5FF1FC090FF1F42
:102F8000B8A6FF1F18A6FF1F314B324918682DE95C
:102F9000F04105F0F5F8304904F0EAFF05F0DCFAFD
:102FA0002E4A2F4B2B491FFA80F8A3F80080106897
:102FB00005F0E6F82B4904F0DBFF05F0CDFA2A4ACC
:102FC0002A4B2B4987B21F80106805F0D9F802F010
:102FD0009FFB05F0C1FA274B80B200221880012424
:102FE000134604FA03F101330B2B42EA0102F8D134
:102FF000214D2E6808EA0202F9021C4642EA060E3A
:103000000023012707FA04F60134152C43EA0603CE
:10301000F8D10B400122032143EA0E07FFF7D2FB50
:10302000012623464005002106FA03F40133202B34
:1030300041EA0401F8D1014041EA07032B601A4636
:1030400045F206011B20BDE8F041FFF7D7B800BFED
:10305000F8A6FF1F0000A04000006144A8A1FF1FC8
:10306000D490FF1F0000E143C490FF1FCAA6FF1FBA
:103070000000C842AEA4FF1FD090FF1FF8B5264B3A
:10308000B3F90020002A42DB244CD31784FB02242E
:10309000C3EB641424B2204605F01EF80646204D0A
:1030A000204A21492B681660B1F900001F4F1C43CC
:1030B00005F012F81E4905F063F802F029FB05F04F
:1030C00025FA01220221FFF77DFB064605F000F8F4
:1030D000184A38601188730203F4FF3343EA04028C
:1030E0004E0411230021012404FA03F00133202BA4
:1030F00041EA0001F8D1314041EA02031A462B604F
:1031000045F208011B20BDE8F840FFF777B800241E
:1031100000261C80C3E700BF64A6FF1F1F85EB517C
:10312000D090FF1F9CA4FF1FA8A4FF1FE4A6FF1FB1
:10313000CDCCCC3D9EA6FF1FF0B5924C23685A1E05
:1031400099B00B2A27D8DFE812F0F00074000C00C9
:103150008F00DB00BE00EC00A9003100EA00EE00A9
:103160005C00894D2B68894E1393139B32689B1A20
:10317000B3F5A77FC0F0EE80854B864A1B78032B02
:1031800028BF0323032B137000F052812B68129386
:10319000129B33602368804A7A4912780133934244
:1031A000236001D901230B6019B0F0BD764D2B6867
:1031B0007A4E0793079B3268734F9B1AB3F5FA7FD9
:1031C00000F218812368013323602B68744E059345
:1031D000059B32686C4F9B1AC82B00F2FB8023685A
:1031E000013323602B686F4D03932A68039B664E5F
:1031F0009B1A41F28832934200F2B0802368013377
:103200002360694B1B888BB15F4E684D3368019317
:10321000019B2A689B1AB3F57A7F07D9FFF72EFF27
:1032200033680093009B2B602368B4E72368013365
:10323000B1E7554D2B685E4E1593159B32689B1A6E
:10324000B3F5A77FC0F09280514B524A1B78032BF5
:1032500028BF0323032B137000F0DC802B6814932A
:10326000149B3360236896E7474D524B93F81C320A
:103270001BB9514B1B78002B64D02B684F4E119318
:10328000119B3268404F9B1AC82B5BD9FFF7CCF8D3
:103290003B681093109B336023687CE73A4D2B68A2
:1032A000474E0993099B32689B1AB3F5FA7F4DD9B3
:1032B000384B1B78022B00F2B0802B680893089BD8
:1032C0003360236867E7304D2B683E4E0D930D9BAE
:1032D00032682D4F9B1AB3F5A77F80F08380236857
:1032E000013323602B68384E0B930B9B3268264FBB
:1032F0009B1AB3F57A7F3DD8236801332360CEE76C
:10330000214D2B68314E0F930F9B32681E4F9B1A35
:10331000B3F5A77F76D2236801332360D4E71A4D33
:1033200053E7194DDEE7184D5CE7174D284A2B6827
:103330001793179B11685B1AB3F5FA7F70D80223B5
:10334000236077E7236801332360DAE723680133DA
:1033500023602CE723680133236086E7FFF790F9A9
:1033600033680293029B2B60236814E723680133C0
:103370002360F7E6FFF77AFB3B680A930A9B33600A
:10338000236808E76C87FF1F00A7FF1FB4A1FF1F7A
:103390006A87FF1FCDA1FF1F6B87FF1FE0A6FF1FDE
:1033A000D0A1FF1F94A4FF1F9EA6FF1F8CA4FF1F88
:1033B000E0A1FF1F68A2FF1FC9A6FF1F24A6FF1FD1
:1033C000C8A1FF1FB490FF1F60A2FF1FECA5FF1F45
:1033D000E8A5FF1FFFF7D8FD3B680493049B33600B
:1033E0002368D8E6FFF7CCFA3B680C930C9B33605C
:1033F0002368D0E6FFF74EFD3B680693069B3360DB
:103400002368C8E6FFF7D2F83B680E930E9B336043
:103410002368C0E6FEF738FF20E7FFF77FFB4CE7A5
:103420002B681693169B1360FFF798F92368B2E692
:10343000FEF792FFAAE600BF08B5094B1B78012BE7
:1034400002D00120FDF712F8064B074A1B78002135
:10345000116003B908BDBDE80840FFF76DBE00BFAD
:10346000FCA6FF1F16A6FF1FD090FF1F30B5244CEF
:10347000237885B053B1234B234A1B68019311680D
:10348000019B41F270725B1A93421FD800F0FAFC64
:1034900000282AD11D4B93F8683B002B2CD12378B0
:1034A00073B1184D1A4C2B680293029B22689B1A29
:1034B0000A2B05D9FFF7C0FF2B680393039B2360FA
:1034C000FEF702F8FEF73CF805B030BD00252A21D2
:1034D0001048257001F010FD0F4800F035F80F4B33
:1034E0001D8000F0CFFC0028D4D0FDF759F8074B21
:1034F00093F8683B002BD2D0FEF7BAF9CFE700BFB4
:1035000016A6FF1F00A7FF1FDCA1FF1F2496FF1FA9
:103510001C96FF1F7C9500007887FF1F4EA2FF1F9F
:10352000074A084BC2F814220021C2F8182282F878
:103530001C1283F8681BC3F8603BC3F8643B7047F8
:1035400068A2FF1F2496FF1F00B5064A0368128871
:103550005B6883B001A9ADF804200222984703B04C
:103560005DF804FB00A20000F0B507468BB0002A0E
:1035700033D0012A08BF0A2251B3212400E0F4B25B
:10358000B1FBF2F502FB1511C8B2092900F13001B7
:1035900098BFC8B20AA988BF3730214488BFC0B2DB
:1035A00001F8240C661E2946002DE8D133B1013CF8
:1035B000E4B20AAB23442D2203F8242C3B6801AA71
:1035C00011195B683846C4F1220298470BB0F0BD70
:1035D00030228DF825202124E8E70368C9B21B6852
:1035E00098470BB0F0BD00BF0029BABF49422D2358
:1035F00000230A22FFF7B8BF08B5FCF745FFFFF725
:1036000035FF01F07DFDFAE7844641EA000313F03F
:1036100003036DD1403A41D351F8043B40F8043BD9
:1036200051F8043B40F8043B51F8043B40F8043B9C
:1036300051F8043B40F8043B51F8043B40F8043B8C
:1036400051F8043B40F8043B51F8043B40F8043B7C
:1036500051F8043B40F8043B51F8043B40F8043B6C
:1036600051F8043B40F8043B51F8043B40F8043B5C
:1036700051F8043B40F8043B51F8043B40F8043B4C
:1036800051F8043B40F8043B51F8043B40F8043B3C
:1036900051F8043B40F8043B403ABDD2303211D3DC
:1036A00051F8043B40F8043B51F8043B40F8043B1C
:1036B00051F8043B40F8043B51F8043B40F8043B0C
:1036C000103AEDD20C3205D351F8043B40F8043BDC
:1036D000043AF9D2043208D0D2071CBF11F8013BDA
:1036E00000F8013B01D30B8803806046704700BFA0
:1036F000082A13D38B078DD010F003038AD0C3F1AF
:103700000403D21ADB071CBF11F8013B00F8013B90
:1037100080D331F8023B20F8023B7BE7043AD9D34F
:10372000013A11F8013B00F8013BF9D20B78037024
:103730004B7843708B7883706046704708B5104CA7
:1037400008E0236859050DD423681A050FD42368AF
:10375000DB0411D423685803F3D500F037FD236848
:103760005905F1D500F092FA23681A05EFD500F05B
:10377000CDFB2368DB04EDD501F08EFEEAE700BF48
:103780003480044008B5FFF7D9FF00BF014B102279
:103790001A80704700200540704700BF094908B5EE
:1037A0000B6830B16A461844A2F58052904202D2AA
:1037B0000860184608BD04F0EFFE0C2303604FF0CC
:1037C000FF3008BD7087FF1FFEE700BFEFF31380D7
:1037D00070B9EFF310836BB9EFF305825AB94FF468
:1037E0008070EFF311832BB1984228BF18467047C1
:1037F0004FF0FF3070470F2A01D81846F1E7014B10
:10380000D05CEEE7F0E300E0F0B44D1E2E4600245D
:1038100000E00134B0FBF2F302FB1300092800F1D1
:1038200030078ABF3730F8B2C0B206F8010F184629
:10383000002BEED10A1953704CB1107815F8016FB6
:1038400028700133E01A834202F80169F5DB08466B
:10385000F0BC704710B40F4B53F8302092F8804200
:103860002CB1012369B182F8803010BC704703EBA2
:10387000C0035B681A6841B922F002021A6010BCEA
:10388000704782F8003110BC704742F003021A60A2
:1038900010BC704704A200001C4A02EBC0030129BF
:1038A0005B6811D004291BD052F83000002280F848
:1038B000802229B1022920D0032922D01A60704722
:1038C0004FF480721A60704752F830004FF4A272C1
:1038D00080F880121A601A6822F020021A6070477D
:1038E00052F830104FF4A272012081F880021A6061
:1038F0001A6842F020021A60704740F203121A6000
:1039000070474FF481721A60704700BF04A2000034
:1039100030B4054B054D064C002210211A602A6078
:103920002060196030BC704714D0034004D00340BD
:1039300000D00340212801D8FFF78CBF704700BF9B
:10394000212801D8FFF7A8BF704700BF2DE9F84331
:10395000054672B6204F214B214A1B683C6812680D
:1039600062B6520102D5322B88BF013495B3C3F53C
:10397000BB331C4EDFF86490DFF86480FF334FF4F4
:103980007A72A6FB031302FB04F404EB931472B6E1
:10399000D9F800103A68D8F800E062B6C1F5BB3338
:1039A000FF33A6FB03031EF0806FC4EB93134FF4A9
:1039B0007A7002D0322988BF013200FB0233B3F59E
:1039C0007A7F04D3013D05D004F57A74DFE701F076
:1039D00097FBDCE7BDE8F88300A7FF1F18E000E0D5
:1039E00004ED00E0ABAAAAAAF8B52D4B2D49DFF8EB
:1039F000D0E0DFF8D0C02C4E2C4D2D4C2D4A2E4F50
:103A00004FF4000018604FF0807018604FF00070A5
:103A100018604FF0806018604FF000601860002060
:103A2000086028234BF6FF71CCF80010CEF8003068
:103A3000336013602B6023603B60B36293620922A2
:103A400045F8242CC4F8D80F05F57F65C7F8D41FB6
:103A500007F5FF2707F5FA67C6F8F83F2B6006F56C
:103A6000FF26C4F8D42F05F5FD2504F5FF243860A2
:103A700006F2F4761148316005F5FF6504F5FD6442
:103A80002B602360026001F087FC1920FFF75EFFC6
:103A900001F004F940F21310BDE8F840FFF756BFFB
:103AA00008E100E0048003401480034024800340C8
:103AB0002C8003401C8003403480034000800B4076
:103AC0000C800340088003402DE9F84F214B1B6810
:103AD00007460BB101221A70DFF888901E4D99F845
:103AE0000040DFF884801D4E01343F2C8ABF4FF028
:103AF000000A5FFA84FA5446AB462B78A34216D1EB
:103B0000FFF764FE40281FDC33791B06F5D59BF8D0
:103B1000003001333F2B86BF00221346DAB218F87B
:103B20000330DBB2F3712A702B78A342E8D00C4942
:103B30000A4BFFB208F804700120BC22087089F813
:103B400000A0DA70BDE8F88FFF28D6DD01F0D8FAC2
:103B5000D3E700BF94A7FF1F91A7FF1F00A0064057
:103B600090A7FF1F98A7FF1F0CA7FF1F2B4A2C49E8
:103B70001368F0B543F4806313600A78294F2A4E26
:103B80002A4D2B4C2B4900233B7033702B70237034
:103B90000B70002A3DD0152A21D0274B1B78012B12
:103BA00025D0052B30D01F2827D80020024601251C
:103BB000224B234C1A7023495D7004224FF0020EF1
:103BC00088273C26402598729A704FF4005083F85D
:103BD00013E05A751F74DE7025700860F0BD1A4B33
:103BE00040F213321A60144B1B78012BD9D1174BBA
:103BF0004FF451721F281A60D7D9C0F34432C0F372
:103C0000471500F01F00D3E7114B4FF451721A60B3
:103C1000C9E7104B40F213321A60BEE7348004400B
:103C20004CA7FF1F08A7FF1F09A7FF1F98A7FF1F8B
:103C300091A7FF1F90A7FF1F7487FF1F00A00640DA
:103C40002DE400E004E100E018C0044044A004407A
:103C50001CC0044040A00440034B1B685B0501D519
:103C6000FFF732BF704700BF34800440054A064B5F
:103C700010781B78C0B2DBB2984238BF4030C01A0F
:103C8000704700BF08A7FF1F09A7FF1FF0B4384BFC
:103C90001A7912F0300F2CD072B6997D01F0FF0224
:103CA00000293DD062B6334F334938780D78334E12
:103CB0001C46C0B2EDB2431C402BE17928BF002363
:103CC000AB4202F1FF32C9B21CBFF154184612F0E8
:103CD000FF02F0D12A4B1B68C2B23A704BB1A84226
:103CE00036BFC5F14005401B40192728C4BF01223B
:103CF0001A701F49CA78D2B2150616D452060DD5CD
:103D00001B4B1B795B0609D51E4B1F491B68002204
:103D10000A7003B11A70164B3C22DA70F0BC70477F
:103D20004022D9795A7462B6E3E70B791C06E5D5CF
:103D3000164B174E1C783378E4B2DBB29C420ED09F
:103D4000144D01E0A3420AD00133402B28BF0023C9
:103D50000879E85CC0B2C871087D0728F2D9DBB2E7
:103D6000034933700B79180644BF7C23CB70C5E739
:103D700000A0064008A7FF1F09A7FF1F50A7FF1FAD
:103D800004A7FF1F94A7FF1F90A7FF1F98A7FF1F5F
:103D900091A7FF1F0CA7FF1F2B4A2C491368F0B5F2
:103DA00043F4006313600A78294F2A4E2A4D2B4CA6
:103DB0002B490023092A3B7033702B7023700B7042
:103DC0003DD01A2A21D0274B1B780A2B25D01F2B38
:103DD00030D01F2827D8002002460125224B234C33
:103DE0001A7023495D7004224FF0020E88273C268A
:103DF000402598729A704FF4004083F813E05A758A
:103E00001F74DE7025700860F0BD1A4B40F213324B
:103E10001A60144B1B780A2BD9D1174B4FF45172EF
:103E20001F281A60D7D9C0F34432C0F3471500F0F9
:103E30001F00D3E7114B4FF451721A60C9E7104BC2
:103E400040F213321A60BEE7348004407587FF1FCA
:103E50000CA8FF1FA1A7FF1F14A8FF1F0DA8FF1F7D
:103E6000A0A7FF1F7687FF1F00B006402FE400E0E9
:103E700004E100E004D0044010B0044000D004404D
:103E80000CB00440054A064B10781B78C0B2DBB278
:103E9000984238BF4030C01A704700BF0CA8FF1FBF
:103EA000A1A7FF1F30B4154B154C1A782378D2B256
:103EB000DBB29A421ED001333F2B0ED91149124B6F
:103EC000087819680023C0B2237021B1D31A1A2BC5
:103ED00001DC00230B7030BC70470A480A49C05C03
:103EE0000968DDB2C0B225700029F4D09A4238BF0B
:103EF0004032EBE74FF0FF30EDE700BF0CA8FF1FAB
:103F0000A1A7FF1FCCA7FF1F9CA7FF1FF0B4384B32
:103F10001A7912F0300F2CD072B6997D01F0FF02A1
:103F200000293DD062B6334F334938780D78334E8F
:103F30001C46C0B2EDB2431C402BE17928BF0023E0
:103F4000AB4202F1FF32C9B21CBFF154184612F065
:103F5000FF02F0D12A4B1B68C2B23A704BB1A842A3
:103F600036BFC5F14005401B40192728C4BF0122B8
:103F70001A701F49CA78D2B2150616D452060DD54A
:103F80001B4B1B795B0609D51E4B1F491B68002282
:103F90000A7003B11A70164B3C22DA70F0BC7047FD
:103FA0004022D9795A7462B6E3E70B791C06E5D54D
:103FB000164B174E1C783378E4B2DBB29C420ED01D
:103FC000144D01E0A3420AD00133282B28BF00235F
:103FD0000879E85CC0B2C871087D0728F2D9DBB265
:103FE000034933700B79180644BF7C23CB70C5E7B7
:103FF00000B006400CA8FF1FA1A7FF1FCCA7FF1F02
:104000009CA7FF1F10A8FF1FA0A7FF1F14A8FF1F3A
:104010000DA8FF1FA4A7FF1F431E032B14D872B6C1
:104020000A4951F8230068B170B4094C058834F886
:104030001320466841F82360521B24F8132062B60F
:1040400070BC704762B670470020704770A8FF1FB1
:10405000E4A9FF1F013803280BD872B6074B53F8A9
:10406000203043B100205B680130002BFBD162B6E9
:104070007047002070471846F9E700BFC4A8FF1F2B
:1040800030B472B62B4A13781D0706D52A4B196A2D
:10409000002936D0996A002941D053781C0706D5EB
:1040A000254B196C00293ED0996C002939D09378A2
:1040B000190705D5204B196E002936D0996E89B1A4
:1040C000D3781B0707D51C4BD3F880207AB3D3F8DD
:1040D000882011213AB162B6184B00221A7030BC08
:1040E00000F07EBE0D21154C154D227843F831505D
:1040F00003EBC1030830013A5860227062B630BC4D
:10410000704704220D4C0F4D217843F8325003EBD9
:10411000C20308304A1E5860227062B6EFE70521DC
:10412000E1E70921DFE70822ECE70C22EAE71022A9
:10413000E8E700BF3CA300000080FF1FEDA8FF1FC1
:10414000C800400088004000431E032B1DD81B4AB6
:10415000400140F0100030B4104472B6184CE25CDC
:10416000032A1BD8DFE802F00212151703220D887C
:10417000E25410F0080F14BFC823882343EA054314
:1041800008310360416062B630BC704708300222DB
:10419000EDE70522EBE708300422E8E7094A52F888
:1041A000230038B1084A52F82300416042F8231036
:1041B00062B6E9E742F82310034AF7E70080FF1FE1
:1041C000FCA8FF1FC4A8FF1FD4A8FF1F2DE9F04FB4
:1041D000DFF80CB3DFF80CA387B044E0AB4F4FEA35
:1041E000930807EBC809013ED9F8042003F008033F
:1041F000F6B2A2F1080003F0FF04002B40F00281A8
:1042000057F838301B0C99B222F8081C002B00F02C
:10421000F0809F4B22F8064C42F8044C53F82620BD
:10422000002A00F0C5829B4D55F8263058609A4C04
:1042300045F8260034F81630194424F8161000F01A
:10424000AFFD002800F0AD82944A954B19F0080F9D
:1042500000F1080018BF1346C9F8040047F83830C9
:1042600008238BF800309BF80040E4B261071AD5B0
:104270008C4B1B78A3B18C490A7802F0FF0322B162
:10428000013BDBB20B7003B900BE88490A7802F02B
:10429000FF032AB1013BDBB20B70002B00F0578209
:1042A00004238BF8003004F0080303F0FF02002B16
:1042B00000F0CC809AF80030DBB21E098ED19C0849
:1042C000DFF8C89159F8342009EBC401C2F3830226
:1042D000013A49680C2A00F28880DFE802F07C7C11
:1042E0008686868686864786868607000868704D9D
:1042F0004A68704F704E286081B240F28160674B0F
:104300006A604FF0010E0022814249F834303A6071
:10431000C9F81020C9F8182086F800E05B4C00F2BC
:10432000E380B1F5D06F80F04683B1F5817F00F076
:10433000FC8200F28D82802900F07783822940F090
:10434000FA82A98801F07F01042900F2F4825B4817
:104350005B4C89000844227062700278930740F138
:10436000588484F800E04FF0020E42E3514F3A685F
:1043700032B3544B504E5449188834780D78402845
:10438000864645F0020828BF4FF0400E002C84F00E
:1043900001043470CEEB00000CBF8824C82409EB64
:1043A000C80680B285F0010544EA0E4472601880A8
:1043B00049F8384072440D70002800F045813A6099
:1043C0003B4B1A88B2F5A06F0FD100219A78597033
:1043D0003E4B1A7009E0364A108842F221029042A0
:1043E00000F037812D4A49F83420394A01231370EF
:1043F00036E72A4A2A4B19F0080F18BF134647F828
:1044000038302DE700F0ECFC324A334952F82630C0
:10441000002B00F0D18158688C5D42F8260003F132
:104420000802C9F80420032C05D8DFE804F02C02A8
:10443000292602228A551A8819F0080F0CBF8823F2
:10444000C82343EA024347F8383009E7E00700F1A0
:104450008181210600F1F281A20706D51F4A204979
:1044600013780220DBB213700870E30602D51C4BF0
:1044700010221A7007B0BDE8F08F04228A55DAE7DF
:1044800005228A55D7E703228A55D4E70080FF1F0B
:1044900070A8FF1F1CA8FF1FE4A9FF1FC800400051
:1044A00088004000F8A8FF1F81A8FF1F00A9FF1F78
:1044B000E4A8FF1F18A8FF1F80A8FF1FC020074007
:1044C000F0A8FF1F2CA8FF1FECA8FF1F9820074093
:1044D00094200740C4A8FF1FFCA8FF1F88200740A6
:1044E000802007409020074042F22100814200F0E6
:1044F0002A8100F2D880B1F5086F00F07682B1F51C
:10450000106F40F01882226AB349A878087012062A
:1045100000F13A83D9F82820B049130600F10C8342
:10452000D9F83020AD49150600F10183D9F83820BB
:10453000AA49140600F1F682D9F84020A7491006CE
:1045400000F14A83D9F84820A449120600F13F83BC
:10455000D9F85020A149130600F13483D9F8582026
:104560009E49150600F12983D9F860209B4914065D
:1045700000F11E83D9F868209849100600F11383D2
:10458000D9F870209549120600F10883D9F87820EF
:104590009249130600F1FD82D9F880208F49150653
:1045A00000F13183D9F888208C49140600F1258365
:1045B000D9F890208949100600F11983D9F898207C
:1045C0008649120600F10D838548864A8649019086
:1045D0008648874D874C04970023059602958046B0
:1045E0000F4616461D460394306828B1446800F013
:1045F000F7FB2046002CF9D100233360029B38687A
:104600001A46002342F8253028B1446800F0E8FB40
:104610002046002CF9D100223A60019A98F8003027
:104620001146002241F8042B039A0191023B4FF0FE
:10463000000122F81510032B00F22B81DFE813F0A4
:104640007001250170012501BEF1400F18BF002245
:10465000B5E6694A0D784878157050708D78C8783D
:104660009570D07010680D79157186284D7989790B
:104670005571917100F09B816049614E0A783078E4
:1046800082F00105002842F002020D700CBF882163
:10469000C82149F8321009EBC20280F00100002164
:1046A000307051609EE642F22120814240F0CB8181
:1046B000544B554C5549A8781D682560CDF804E049
:1046C0000870002002908046844604464B490D78CD
:1046D00045F0020E09EBCE030393019B002B039BD5
:1046E0005C600CBF8824C82444EA080385F00104F8
:1046F00049F83E3032700C70DFF8E0E0404BDFF8F4
:10470000FC80002840F01E81BCF1400F1BD144F01A
:10471000020C09EBCC03029CDFF8C0E05C60002ACD
:1047200040F02681020442F088029DF804304EF8E1
:104730003C20044433700D702346402803D10020F0
:10474000334A3B601080334A012313704DE600F07A
:10475000B3FCA5E5214B2F4828491A614FF0020E02
:1047600080F800E02C4F0A702C49196099602C4E9B
:104770002C4D2D4C9A610D213970FF213170DFF8DD
:10478000B8E029702270294D294A8EF800109F2721
:10479000012406F8047C5D600470DA6007B0BDE8AF
:1047A000F08F244A47F8380013780133137057E527
:1047B00043F826000E4D3AE58B5D032B00F2F080A6
:1047C00001A252F823F000BF6142000061420000E4
:1047D000854800007F480000F8A8FF1F0080FF1FE9
:1047E000D4A8FF1F70A8FF1FC4A8FF1FFCA8FF1FAD
:1047F0001CA8FF1FE4A9FF1FECA9FF1FECA8FF1FC7
:1048000080A8FF1F00A7FF1FF4A9FF1F10A9FF1F0B
:104810002CA8FF1F94200740C020074088004000BC
:1048200088200740802007409820074030A8FF1FBD
:1048300084A8FF1FEDA8FF1F8C200740C149C24B71
:1048400080220D2008701A70A2077FF50EAE05E6D3
:1048500040F20232914240F0EE80A98801F07F01DF
:10486000042968D86A88002A65D1B648CDF804E0E2
:1048700089000844017841F00201017021E7012319
:104880008B55EDE400238B55EAE44FF0010388F8E3
:1048900000300135042D06F1040607F1040708F184
:1048A00001087FF4A1AEA94CA94B2278A94D049F21
:1048B000059E002129701A70130700F105816278A6
:1048C000A549DFF8A0820A7010074FF00001C9F86F
:1048D0003010C9F8381000F1E080A049A2780A70C1
:1048E0000021C9F85010C9F858101107DFF8748278
:1048F00000F10181E2789A499A4C0A70002112076E
:10490000C9F87010C9F8781000F1B08033780193BD
:10491000002183F00102C9F89010C9F89810D0E680
:104920004FF0000388F80030B3E7A98801F07F0159
:10493000042940F28D80834A0F2313708A4A012391
:10494000137052E540287FF6E2AE44F002040EEB0D
:10495000C401029E4E60BAB19DF80410834A1970DA
:104960003346403888F8005040334EF83420E7E6AC
:104970009DF8043033700204029B0D7042F0C802AF
:1049800003444EF83C20D8E69DF804101970029BB1
:10499000774A88F80050403840334EF83420CFE64C
:1049A00019F0080F0CBF022303238B5558E4714AFA
:1049B0000F21117060E6704A5468002CBBD06888E3
:1049C000B5F804E003E00C325468002CB3D013882F
:1049D0008342F8D153887345F5D1000A03280CBFF0
:1049E00094F800E0B2F808E003E0644A644C1278FE
:1049F0002270E888704580F03F8162490D78402838
:104A0000844645F0020E28BF4FF0400C04EB0C0327
:104A100009EBCE02029301235460CCEB00004FEA75
:104A20000C4800220193C8245EE6554C4FF0020E5C
:104A300022706270DDE7B1F5A06F7FF47CAF0123D7
:104A4000002201933DE642F221329142F7D072E713
:104A50006A88002A7FF46FAF3A48CDF804E08900F5
:104A60000844017821F0020101702AE600F098F96B
:104A7000002800F0EF8008303D4AC4F88400C4F8F4
:104A8000802000F08DF9002800F0DE800830374AE1
:104A9000C9F88C00C9F8882038E700F081F90028AF
:104AA00000F0C0800830324AC8F84400C8F84020FE
:104AB00000F076F9002800F0AF8008302B4AC9F8E2
:104AC0004C00C9F8482008E700F06AF9002800F017
:104AD000CD800830264AC9F82400C9F8202000F00B
:104AE0005FF9002800F0BC800830204AC9F82C008B
:104AF000C9F82820E3E600F053F9002800F09E8072
:104B000008301B4AC8F86400C8F8602000F048F973
:104B1000002800F08D800830144AC9F86C00C9F8EC
:104B20006820E7E6C86B083800F05AF904E5486BDE
:104B3000083800F055F9F9E4C86A083800F050F96F
:104B4000EEE400BFC0200740802007403CA30000E7
:104B5000C4200740EDA8FF1FC8200740CC20074015
:104B6000D02007400080FF1F94200740C80040006D
:104B70008800400081A8FF1F40A30000F8A8FF1F85
:104B8000F0A8FF1FECA8FF1F606A083800F028F9A2
:104B9000C0E4C86F083800F023F9FDE4486F083816
:104BA00000F01EF9F2E4C86E083800F019F9E7E4E5
:104BB000486E083800F014F9DCE4C86D083800F0DD
:104BC0000FF9D1E4486D083800F00AF9C6E4C86C62
:104BD000083800F005F9BBE4486C083800F000F92B
:104BE000B0E4D1F89C00083800F0FAF8ECE4D1F811
:104BF0009400083800F0F4F8E0E4D1F88C000838AC
:104C000000F0EEF8D4E4D1F88400083800F0E8F8B9
:104C1000C8E44FF0020EECE62A78C9F848000132E9
:104C20002A705AE62A78C8F8400001322A703FE715
:104C30002A78C9F8680001322A705BE62A78C8F839
:104C4000600001322A7061E72A78C9F888000132D1
:104C50002A705BE62A78C4F8800001322A7010E7D7
:104C60002A78C9F8280001322A7028E62A78C9F87B
:104C7000200001322A7032E7BEF1400FF44628BF0F
:104C80004FF0400C04EB0C0302930123CCEB0E001D
:104C90004FEA0C480022019318E500BFF8B500F078
:104CA00067FC294B29482A4C2A4F2B4DDFF8BCC002
:104CB000DFF8BCE0294E00221A605A609A60DA6080
:104CC0001A615A619A61DA611A625A629A62DA6208
:104CD0001A635A639A63DA631A645A649A64DA64E8
:104CE0001A655A659A65DA651A665A669A66DA66C8
:104CF0001A675A679A67DA67C3F880200168C3F8B1
:104D0000842041F480210160C3F307212170C3F3A3
:104D10000740134938701B0E2B70FF238CF80030AE
:104D2000104D8EF8003010480B700123337084F85A
:104D3000642070264FF40074102207F82C3C2E706B
:104D4000046081F8F820F8BD0080FF1F3480044023
:104D50009C200740B0200740B42007409420074023
:104D60001020074049E400E008E100E0802007400F
:104D70008820074000F0A4B800F07CB800F056B8D6
:104D800000F090B800F06CB900F046B90846114642
:104D900000F0B2B8084600F033B900BF704700BF5A
:104DA00072B60D480268B2FA82F30B2B10DC4FF09A
:104DB0000041D94022EA0102026062B6074803EBD3
:104DC000C303DB00C2180021C15010465160704778
:104DD00062B60020704700BF8887FF1FBC83FF1F9B
:104DE0000D4B0E4AC31AA2FB03231B090B2B0CD835
:104DF0000B4A127852B972B60A484FF00041026865
:104E000021FA03F31A43026062B67047064A127829
:104E1000002AF0D0FFF734B9BC83FF1F398EE33886
:104E2000EDA8FF1F8887FF1FF8A8FF1F38B50F4D9B
:104E3000286878B143880288C118013393420C7AFC
:104E400002D24380204638BDFFF7CAFF0023204628
:104E50002B6038BD064B1B782BB10320FFF7DCF825
:104E600028600028E6D14FF0FF3038BD0CA9FF1FA5
:104E7000F8A8FF1F10B5094C206818B143881844E2
:104E8000007A10BD064B1B782BB10320FFF7C4F846
:104E900020600028F2D14FF0FF3010BD0CA9FF1F99
:104EA000F8A8FF1F044B054A1B6890881BB11A889D
:104EB0005B88D31A184470470CA9FF1FE4A9FF1F91
:104EC0000B4B1B789BB110B50A4C206848B1FFF71B
:104ED00087FF002303202360FFF79EF830B1FFF720
:104EE0007FFF0320FFF798F80028F8D110BD704726
:104EF000F8A8FF1F0CA9FF1F2DE9F04FDFF8F8906D
:104F000083B0012289F80020019169B3DFF8EC80B9
:104F1000364F019E8346D8F80000B0B3344D448824
:104F2000C4F14001B14228BF314604EB010E00221A
:104F30001FFA8EFE2A70761AA0F802E000F108022D
:104F400051B1013C224459441BF8014B02F8014F76
:104F50008B45F9D1B0F802E0BEF13F0F0BD8254ADE
:104F600005211170002ED6D10198002389F8003058
:104F700003B0BDE8F08F4022028001460420FFF715
:104F8000E3F80022C8F80020E9E73A782AB3184D80
:104F90004AF2F9244FF0010A07E0013C16D02A78C2
:104FA000A2B900F0ADF83A78BAB10420FFF752F890
:104FB0000728F2D889F800A0FFF7F2FEC8F8000031
:104FC0000028ACD10C4B013C1870E8D101234FF004
:104FD000FF302B7003B0BDE8F08F00234FF0FF309F
:104FE00089F8003003B0BDE8F08F00BFF8A8FF1FBC
:104FF00008A9FF1F00A9FF1F01A9FF1F04A9FF1F88
:1050000000B583B002AB012103F8010D1846FFF78C
:1050100073FF03B05DF804FB38B50E4D0E4C2868E5
:105020000123237028B1408800232370C0F1400081
:1050300038BD0A4B1B7813B90020207038BD0420FE
:10504000FFF708F80728F7D8FFF7AAFE286000281E
:10505000E9D1F1E704A9FF1F01A9FF1FF8A8FF1F6D
:10506000F8B5114B1B788BB1104E114D34680127E8
:105070002F7064B10F4A6388002717702146238080
:105080000420FFF761F8376000232B70F8BDFFF7AD
:1050900087FE084B28B1014604201C70FFF754F826
:1050A000F2E71F70F0E700BFF8A8FF1F04A9FF1F79
:1050B00001A9FF1F00A9FF1F38B50E4B1B7873B95C
:1050C0000D4C216861B103F0FF054B880B80042073
:1050D000FFF73AF8256038BD084B01221A7038BD39
:1050E000FFF75EFE0028F7D00146BDE838400420F7
:1050F000FFF72AB801A9FF1F04A9FF1F00A9FF1F7E
:1051000038B5224C237803B138BD01232370FFF753
:10511000C9FE70BBFEF7AAFD40BBFEF7B3FE10BB95
:1051200000F0AAF9E0B900232370EFF30583002B08
:10513000EAD1EFF3108172B6154B1868E0B1154C47
:105140002278CAB945691D6001232370C5B1AA61DF
:1051500001B962B600254577836898472570D3E783
:1051600000F018F9DFE700F013F9D9E700F00EF9C5
:10517000D3E7FFF713FECDE70029C5D162B638BDEE
:10518000054B1D600029E5D1E3E700BF11A9FF1F12
:1051900024A9FF1F28A9FF1F20A9FF1F10B4EFF3A8
:1051A000108272B6437F33B9017F012907D00329EA
:1051B0000FD00123437702B962B610BC7047124C7E
:1051C0002168A1B1114943610B688361086058618E
:1051D000EFE70F4C216881B10E4943610B68836191
:1051E000086058610C4B4FF080511960E1E7074BA4
:1051F0004161816120601860DBE7064B416181619C
:1052000020601860EEE700BF24A9FF1F20A9FF1F40
:1052100014A9FF1F18A9FF1F04ED00E010B4047FBC
:105220004160022CC26002D010BCFFF7B7BF836898
:1052300010BC184770B5EFF3108272B60C4C2068A2
:1052400080B10C4E00254369236073B19D6102B9A2
:1052500062B6457783689847EFF3108272B620688C
:105260000028F0D102B962B670BD3360EFE700BF2D
:1052700014A9FF1F18A9FF1FFFF7DCBF184A30B49D
:105280001468002C27D0036821688B420ED2CB1AF9
:1052900000218460C1602360E06010600223037518
:1052A00030BC704711688B42144608D3A2685B1A61
:1052B0000360002AF6D18260C460A060EEE7D26885
:1052C000C2608460E060C568CB1A0222A8602360D7
:1052D000027530BC70478460C4601060DEE700BFB8
:1052E0001CA9FF1FF8B5224E34682CB32368002B8D
:1052F0003AD1204F1D4604E03468ECB12368002BFE
:1053000032D1A36803B1DD6020693360036825757D
:105310001B68BB4221D1037F4560022BC46020D0B3
:10532000FFF73CFF6368002BE6D023602046FFF7C1
:10533000A5FF3468002CE1D1EFF3108372B60E4A5A
:1053400000211068116003B962B628B18468FFF7C4
:1053500095FF20460028F9D1F8BD22460021984744
:10536000E0E783689847DDE7013B2360E4E700BF9F
:105370001CA9FF1F1D5200002CA9FF1F024A136821
:1053800001331360FFF7AEBF00A7FF1F704700BFD8
:10539000704700BF704700BF30B42948294A2A4BE4
:1053A0002A4D6024E121047011701B78284C082BD1
:1053B00030D00A2B2748284937D00C2B0CBF352278
:1053C0003D2212232A60236002600B60234B244994
:1053D0001B78244ABBB101230B601360224B234985
:1053E0001B78234A012B26D9042B0FD9082B1ED951
:1053F000102B94BF862387230B6013601D4B012263
:105400001A7030BC70470B601360E7E784230B60B1
:105410001360F3E700F58E200F49083001221323B3
:105420002A60236002600B60D0E73922F7E785230A
:105430000B601360E2E780230B601360DEE700BFC0
:1054400000400740014007408C87FF1F08B0034021
:105450000CB0034008B00B400CB00B4031A9FF1F4B
:1054600020B0034020B00B408D87FF1F24B00340C5
:1054700024B00B4030A9FF1F054A064B10781B785B
:10548000C0B2DBB2984238BF4030C01A704700BF8C
:1054900038A9FF1F39A9FF1F30B42B4B1A79940686
:1054A0001FD52A48DA790378294901333F2B097837
:1054B000C8BF00238B42D2B203D0264CD9B2E254EB
:1054C0000170254A116861B1244A1278D2B2934220
:1054D00036BFC2F140029B1A9B18272BC4BF012381
:1054E0000B70194AD378DBB2180611D45A060DD5C1
:1054F000154B1B795B0609D5194B1A491B6800220D
:105500000A7003B11A70104B2C22DA7030BC70474D
:1055100011790906EAD5144910480C780178C9B206
:105520008C420DD04A1C272A84BF00210A460F4D09
:10553000054C98BFD1B2AA5CD2B2E2710170D5E736
:105540006C21D170D2E700BF00C0064038A9FF1F10
:1055500039A9FF1F64A9FF1F34A9FF1FA5A9FF1FB9
:10556000A8A9FF1FA4A9FF1FACA9FF1F3CA9FF1FEB
:1055700070B584B072B6194B194D1A487022412685
:105580000F2480211A702E701A4604701970137837
:105590001B06FCD5144B186862B6144B144C984289
:1055A00098BF00EB800001A998BF40000A22FEF7D7
:1055B0002BF901A92046002311F8012B01333AB140
:1055C0000A2B20F8022FF7D11623237004B070BDE8
:1055D0005B00DBB2237004B070BD00BF000002406E
:1055E0000700024006000240080002407F96980033
:1055F0001C88FF1F30B5224A21F00043934287B038
:105600001BDD204A934205DD02460B4601F0CEFF2A
:1056100007B030BD02AA00F053FC00F00303012BD9
:105620001AD0022B0FD01BB30124DDE90423DDE9DE
:105630000201009401F044FCEAE70022002300F09C
:1056400023FF07B030BDDDE90423DDE9020100F0EE
:105650001BFF01F10041DBE7DDE904450093DDE9D3
:10566000020122462B4601F02BFC01F10041CFE75D
:10567000DDE90423DDE9020100F006FFC8E700BF11
:10568000FB21E93FFFFFEF7F30B51F4A21F00043C8
:10569000934287B01BDD1D4A934205DD02460B464F
:1056A00001F084FF07B030BD02AA00F009FC00F051
:1056B00003000128DDE904231AD002280FD0E0B14D
:1056C000DDE9020100F0E0FE01F10041EAE700231C
:1056D00000930022002301F0F3FB07B030BD01244A
:1056E000DDE90201009401F0EBFB01F10041D9E793
:1056F000DDE9020100F0C8FED4E70124DDE9020182
:10570000009401F0DDFBCDE7FB21E93FFFFFEF7FD8
:1057100008B5C0F3C7537F3B162B01460EDC002BA8
:10572000024610DB0B481841014205D04FF48001BE
:105730001941114421EA0001084608BD802BFBD124
:1057400002F016FC08BD013300F00041F4D141F035
:105750007E51F1E7FFFF7F002DE9F043DFF8A480E1
:105760008BB004460D4600F0AFF898F900300133D5
:1057700006460F462ED022462B462046294602F0EA
:1057800063FB814630BB2046294601F0EFFD002235
:10579000194B02F04FFBE8B1184B1948CDF8209097
:1057A00001228DE80C00CDE90445CDE9024501F068
:1057B0006DFE98F90030022BCDE906010FD0684646
:1057C00001F062FE58B1089B83B9DDE906010BB018
:1057D000BDE8F083304639460BB0BDE8F08302F0F7
:1057E000DBFE21230360089B002BEED002F0D4FEE9
:1057F000089B0360E9E700BF0000F03F94A30000AE
:10580000009300003288FF1F00F08EBA2DE9F04FA0
:105810008BB004460D4600F075FD284B93F900A0AF
:10582000BAF1FF3F06460F4612D022462B462046CD
:10583000294602F009FB834650B94FF000084FF0AB
:10584000000942464B462046294602F0D5FA20B9C7
:10585000304639460BB0BDE8F08F194BCDF820B07B
:105860000122CDE90445CDE902458DE80C00BAF1ED
:10587000000F15D042464B464046494602F074F9A7
:10588000BAF1020FCDE906010CD102F085FE212309
:105890000360089B63B9DDE906010BB0BDE8F08F3A
:1058A000CDE90689684601F0EFFD0028F1D1ECE76B
:1058B00002F072FE089B0360EDE700BF3288FF1F15
:1058C0009CA30000FFFFFFFF2DE9F047C04B21F034
:1058D0000048984584B00D46044614DD08F1404860
:1058E00008F58018034658EA030323D002460B4606
:1058F00001F05CFE02460B4602F036F904462046F3
:1059000004B0BDE8F087B34B98458A462BDCB8F16C
:10591000795F80F2678192A3D3E9002301F048FE0A
:105920000022AD4B02F086FAE8B12946204604B0C9
:10593000BDE8F0878CA3D3E9002301F0EBFF8CA333
:10594000D3E9002306460F462046294601F0E2FF30
:1059500002460B463046394601F02AFE04462046F0
:1059600004B0BDE8F0872046294601F0FFFC02465E
:105970000B460020984901F019FE0022974B01F0D8
:10598000C9FF7DA3D3E9002304460D4601F0C2FF01
:105990007BA3D3E9002301F00BFE22462B4601F046
:1059A000B9FF79A3D3E9002301F000FE22462B467C
:1059B00001F0B0FF76A3D3E9002301F0F9FD224600
:1059C0002B4601F0A7FF74A3D3E9002301F0EEFDFD
:1059D00022462B4601F09EFF71A3D3E9002301F07C
:1059E000E7FD22462B4601F095FF6FA3D3E9002384
:1059F000CDE900012046294601F08CFF6CA3D3E9D4
:105A0000002301F0D3FD22462B4601F083FF6AA359
:105A1000D3E9002301F0CCFD22462B4601F07AFFAA
:105A200067A3D3E9002301F0C1FD22462B4601F014
:105A300071FF694B002201F0BBFDCDE90201204658
:105A4000294600F05FFC664B984506460F4666DC2B
:105A5000DDE90223DDE9000102F086F83246CDE9F6
:105A600000013B463046394601F0A2FD02460B4696
:105A7000DDE9000101F04EFF4FF00008CDE9000123
:105A800042463B464046394601F044FF02460B463B
:105A90002046294601F08AFD424604460D463B4613
:105AA0003046394601F084FD02460B462046294621
:105AB00002F05AF802460B4601F07AFD02460B4608
:105AC0002BA1D1E9000101F071FD02460B46DDE991
:105AD000000101F06BFD424604460D463B46404640
