:1000000000800020BD010000153F0000CD3E000033
:10001000CD3E0000CD3E0000CD3E0000CD3E0000B4
:10002000CD3E0000CD3E0000CD3E0000153F00005B
:10003000153F0000CD3E0000394200003D43000066
:10004000153F0000153F0000153F0000153F000060
:10005000153F0000153F0000153F0000153F000050
:10006000153F0000153F0000153F0000153F000040
:10007000153F0000153F0000153F0000153F000030
:10008000153F0000153F0000153F0000153F000020
:10009000153F0000153F0000153F0000153F000010
:1000A000153F0000153F0000153F0000153F000000
:1000B000153F0000153F0000153F0000153F0000F0
:1000C000153F0000153F0000153F0000153F0000E0
:1000D000153F0000153F0000153F0000153F0000D0
:1000E000153F0000153F0000153F0000153F0000C0
:1000F000153F0000F92A0000153F0000792D00008F
:10010000153F000001400000153F0000153F0000B2
:10011000153F0000153F0000153F0000153F00008F
:10012000153F0000153F0000153F0000153F00007F
:10013000153F0000153F0000153F0000153F00006F
:10014000153F0000153F0000153F0000153F00005F
:10015000153F0000153F0000153F0000153F00004F
:10016000153F0000F52F0000153F0000153F00006F
:10017000153F0000153F0000153F0000153F00002F
:10018000153F0000153F0000153F0000153F00001F
:10019000153F0000153F0000153F0000153F00000F
:1001A000153F0000153F0000153F0000153F0000FF
:1001B000153F0000153F0000153F0000564B4CF264
:1001C000205210B51A804DF628121A8000BF00BFC9
:1001D00003F0A4FE514B4FF010621A60504A9A602F
:1001E000504ADA60504A136813F4807304D14F49BF
:1001F0000B604FF4A85313604D4B1A78110703D5C9
:100200001A7842F008021A704A4B4B492A221A7097
:100210004A4A4B4B8B4204D252F8040F43F8040B6A
:10022000F8E7484B484900228B4202D243F8042B9E
:10023000FAE74649464A002352F8230041F82300D2
:1002400001336F2BF8D1434B434A802103F8011B44
:100250009342FBD1414B3D4A1A60414B8A221A70AE
:10026000A3F5805324225A70A0221A709A7992071B
:10027000FCD59A79D406FCD43A4A937903F00C035E
:10028000082B384BF9D103221A7140225A719A79FE
:100290009006FCD5334A9179324B4906FBD5324A58
:1002A000324911600221516020221A709A7902F0BD
:1002B0000C020C2AFAD12E4B2E4A1A602E4B2F4AD2
:1002C0001A6000225A60072243F8042C2C4AC3F813
:1002D0000C2D62B602F0BEFA144B1B68DA0705D586
:1002E000284802F04BFA284B284A1A60284B1B7802
:1002F0005B0609D5244C254B22689A4204D121483B
:1003000002F03CFA0023236007F008F803F00CFE2B
:1003100003F000FDFEE700BF0E20054030800440E2
:10032000823F04000100002B10D0034014D0034092
:1003300002D0074000E007407490FF1FAC8500002A
:100340002087FF1F7490FF1F7899FF1F0082FF1FF7
:100350000000000000E400E05FE400E008ED00E0E1
:100360000050064000400640448004400000030165
:1003700004800440C010050014E000E0FF76010096
:1003800000002020BEFD4D5B1CE00340A5C3945A35
:1003900000F00740FFFFFFFFFFFFFFFFFFFFFFFF32
:1003A000FFFFFFFFFFFFFFFFFFFFFFFFFFFFFFFF5D
:1003B000FFFFFFFFFFFFFFFFFFFFFFFFFFFFFFFF4D
:1003C000FFFFFFFFFFFFFFFFFFFFFFFFFFFFFFFF3D
:1003D000FFFFFFFFFFFFFFFFFFFFFFFFFFFFFFFF2D
:1003E000FFFFFFFFFFFFFFFFFFFFFFFFFFFFFFFF1D
:1003F000FFFFFFFFFFFFFFFFFFFFFFFFFFFFFFFF0D
:10040000FFFFFFFFFFFFFFFFFFFFFFFFDEF9FFFF23
:1004100010B5054C237833B9044B13B10448AFF33E
:1004200000800123237010BD7490FF1F00000000A6
:10043000B0850000084B10B51BB108490848AFF360
:1004400000800848036803B910BD074B002BFBD0A0
:10045000BDE81040184700BF000000007890FF1F63
:10046000B08500007490FF1F00000000704700BFBF
:10047000044B05491A68137843F020031370087081
:10048000704700BF0C96FF1F7C96FF1FF0B540F62B
:10049000055085B002F0A0FA294A2A4B2A4911607A
:1004A0001022A0219A7140F6055099705A7102F0FD
:1004B000A9FB264B264A19680391039918680290F4
:1004C000029F1868019001981B680093214E224BEF
:1004D0001160224D224A2349234C37601860009E48
:1004E0002E6000234FF4FA60138023700B701F4CB2
:1004F00002F062F909211E4803F0B0FA0F211D48ED
:1005000003F0ACFA204603F0ADFB2B211A4803F0B0
:10051000A5FA204603F0A6FB1921184803F09EFA1D
:10052000204603F09FFB164B0121187802F03EF99C
:10053000144B0121187802F039F905B0F0BD00BF65
:100540000C96FF1F00A0064006A006408096FF1FE5
:100550001495FF1FF094FF1FF495FF1FBC94FF1F1D
:100560003495FF1F5293FF1FC095FF1F7C87FF1F0D
:10057000547F0000607F0000707F00009C7F0000BF
:100580006D87FF1F6C87FF1F124A134B10680122F3
:1005900010B51A7006F050FC1049114C06F054FDCD
:1005A000104B2060186806F047FC0C4906F04CFD23
:1005B0000D4B6060186806F03FFC0C4906F044FDE6
:1005C0000B4BA060188806F033FC0A4906F03CFD8E
:1005D000E06010BD5895FF1F5293FF1F8096184B87
:1005E000AC90FF1FF494FF1F3895FF1F00007A4462
:1005F0004A93FF1F0000C84200B5104B197883B022
:10060000B9B90F4B0F4A1B68019301981368C31ABD
:10061000B3F5FA7F0C4B0AD310601A7852B11970F7
:100620000A4B187802F0BCF803B05DF804FB1978A7
:10063000F6E7054B01211970F2E700BFC095FF1FD7
:100640008096FF1FA095FF1FD695FF1F6D87FF1F88
:10065000064BB3F81C320A2B054B0CBF01210021BD
:100660001970044B187802F09BB800BFC090FF1FB0
:100670007296FF1F6C87FF1FF8B5154CE66805469C
:100680004FF07E51304606F0C9FD18B1284606F0FD
:10069000CFFB0646284606F0CFFB0E4906F020FCAD
:1006A0000D490746304606F01BFC0146384606F069
:1006B0000FFB0A496269E369E060A1FB051502EBE3
:1006C000951501336561E36106F0F6FDF8BD00BFE5
:1006D0004887FF1FCDCC4C3ECDCC4C3FD34D621054
:1006E00070B5184C94F8203084B006463BB3164BD6
:1006F0001A680192019A0021013A84F820101968C1
:10070000039103981B680293029B2361801A06F0F1
:100710008FFB0E4906F098FC0546642000FB06F0AE
:1007200006F086FB0146284606F0DAFB0346014642
:100730006068236006F0CCFA606004B070BD226986
:10074000014BDCE74887FF1F8096FF1F00BA5B4A1A
:10075000F8B5124CA66805464FF07E51304606F0BB
:100760005DFD18B1284606F063FB0646284606F0F4
:1007700063FB0B4906F0B4FB0A490746304606F016
:10078000AFFB0146384606F0A3FAA0602846FFF703
:10079000A7FFA06806F090FDF8BD00BF4887FF1FC7
:1007A000CDCCCC3D6666663FF8B5144CE668054690
:1007B0000021304606F028FD18B1284606F038FB27
:1007C0000646284606F038FB0D4906F089FB0D4920
:1007D0000746304606F084FB0146384606F078FAB4
:1007E00009496269E369E060A1FB051502EB951513
:1007F00001336561E36106F05FFDF8BD2487FF1FEB
:10080000CDCC4C3ECDCC4C3FD34D621070B5184C86
:1008100094F8203084B006463BB3164B1A68019218
:10082000019A0021013A84F8201019680391039875
:100830001B680293029B2361801A06F0F9FA0E49A5
:1008400006F002FC0546642000FB06F006F0F0FA14
:100850000146284606F044FB0346014660682360D3
:1008600006F036FA606004B070BD2269014BDCE727
:100870002487FF1F8096FF1F00BA5B4AF8B5114C12
:10088000A66805460021304606F0BEFC18B1284691
:1008900006F0CEFA0646284606F0CEFA0A4906F0D9
:1008A0001FFB0A490746304606F01AFB0146384648
:1008B00006F00EFAA0602846FFF7A8FFA06806F031
:1008C000FBFCF8BD2487FF1FCDCCCC3D6666663FA0
:1008D0002DE9F047B54DDFF81C83D4B002F008FADB
:1008E000002800F09C8002F013FAEB780022C4B2DA
:1008F0002A700A2B00F2D484DFE813F012011201EF
:10090000FC00E900D600C300AE0094006D000B00AF
:100910000B000A2BA64E04D03388B4EB132F00F043
:1009200000844FF0020985F800902B79DFF880A24F
:10093000334410AF4FF0010E514638465C724FF40D
:10094000887285F803E001F021FEB9F1010F40F053
:10095000AB842B899AF804206A7103B96B81013347
:10096000F2782B810023FA70AB70FB79212B00F019
:10097000898300F2DB80182B00F05E8300F2FA809E
:10098000012B00F03883C0F0F881162BA6D1894BDB
:100990001B78002BA2D014AB0FCB874C874EDFF80F
:1009A00058E284E80F00FB8985488649BA68BC890B
:1009B000CEF800201027B3F5B27F377004800B808B
:1009C00000F0D383B3F5B67F88D17F497F4B0A60AF
:1009D00001221A7082E7764E7D4AF3793188D35C22
:1009E0004B4083EA0313DBB2DA0082EA032282EA95
:1009F000112282EA1313DAB29442338014BF0A231D
:100A00000923EB702B7933441C72F3788DF8433053
:100A10000022AA7002F06CF900287FF464AF54B091
:100A2000BDE8F087624E2A79B31801321C72308813
:100A3000F378444084EA0414E4B2E10081EA04213A
:100A4000D2B281EA102181EA14149A422A713480C8
:100A5000DCD10822EA70D9E7554E3188F4714C4058
:100A600084EA0414E4B2E20082EA042282EA112257
:100A7000F37882EA14143480002BEAD00722EA705B
:100A8000C4E74B4E3288B471544084EA0414E4B293
:100A9000E30083EA042383EA122383EA1414062280
:100AA0003480F378EA70B1E7414E328834715440B3
:100AB00084EA0414E4B2E30083EA042383EA122301
:100AC00083EA141403223480F378EA709EE7384EE8
:100AD00032887471544084EA0414E4B2E30083EA77
:100AE000042383EA122383EA141405223480F37862
:100AF000EA708BE72E4E3188F47084EA010383EAB2
:100B00000313DBB2DA0082EA032282EA112282EACC
:100B1000131200200421234632802871E97075E702
:100B2000FE2C234E00F0F482F3786FE7932B00F055
:100B3000258263D84A2B00F0A8817D2B00F06981C3
:100B4000412B7FF4CBAE1B4B1B78002B3FF4C6AE82
:100B50002048214A214C2249224B0126067097F851
:100B6000300010703E8A788D97F8312026800880FA
:100B70001A70B3E61D2B00F032821E2B00F0588154
:100B80001B2B7FF4ABAE0B4B1B78002B3FF4A6AEB8
:100B9000154C1649164BB7F91060B7F91200B7F9A2
:100BA0001420266008601A6098E600BF1C95FF1F9D
:100BB0007093FF1FC095FF1FF895FF1F9690FF1FB2
:100BC0000293FF1F5896FF1FCC94FF1F3D96FF1FF7
:100BD000D48000000495FF1FF195FF1F5093FF1F65
:100BE000EC92FF1F4893FF1F2496FF1F2896FF1FBC
:100BF0002C96FF1F1F85EB510493FF1FB52B00F0B0
:100C0000CD81FD2B1DD0A62B7FF468AEAB4B1B789E
:100C1000002B3FF463AEAA483C7BAA490470AA4B60
:100C2000787B0870A94AB87B1870A94CF87BA94951
:100C3000A94B10703E7C38897A89267008801A800A
:100C40004CE6A64BA64E3C7A1C70B4460DF1490703
:100C50000DF1790938687968BA68FB68E646AEE84C
:100C60000F0010374F45F446F4D13A88DFF804E31B
:100C70009B4BACF8002032228EF8002003F13307A2
:100C8000002213F8011B11F0DF0F02F1010004D163
:100C9000197811F0DF0F00F04A829F420246F0D12E
:100CA0003327384636224FF0350E4FF0340C8D4B3B
:100CB0008D491F7000233354894806F80C3006F81C
:100CC0000E30B35406F030FE002840F03B82874BD4
:100CD00001221A70864EB6F81CA2BAF10A0F00F073
:100CE0003B82DFF894927E4948463A1D00F8014B5A
:100CF00001F04CFCCE46BEE80F0002AC0FC4BEE8CB
:100D00000F000FC4BEE80F000FC4784B89F8337092
:100D10001B7889F834309EE80300D6F8183244F87E
:100D2000040B03F1350C06F212239C452170C6F822
:100D300018C204BFB446C6F818620DF1080E674623
:100D40000DF1380974460FCC4C4538607960BA60B3
:100D5000FB60A64607F11007F4D1206838602379BC
:100D60003B710AF10103A6F81C32614BBAF1000F86
:100D70007FF4B4ADC3F814C2B0E53B7B5D495A1FA4
:100D8000012A0B707FF6AAAD5B4A5C4812685C4989
:100D9000019203705B4A5C4C01980860BB7B5B4925
:100DA000787B107023705A48BC685A4A0C60DB0983
:100DB000FC7B397C0470117004D0574B1B78002BDE
:100DC00000F0E1813D4E3478002C7FF487AD534F25
:100DD00053483B880A2101333B8002F03FFE3988AB
:100DE000504802F08FFF21464F4802F037FE4D4831
:100DF00002F038FF3B88022B7FF670AD01230C21F7
:100E00004A48337002F02AFE464802F02BFF3C802D
:100E100064E52A4B1B78002B3FF460AD444C4549F8
:100E2000454B3E897889BA89268008801A8055E525
:100E3000224B1B78002B3FF451AD404A404BBC691C
:100E4000404914603A6AFC691A600C60F8683E49CF
:100E50003E4C06F045F83E49D7F810907E693D4F6C
:100E600006F0F2F838492060484606F039F838496B
:100E7000394C06F0E9F834493860304606F030F86D
:100E8000334906F0E1F8206028E50C4B1B78002B75
:100E90003FF424AD3149B868314B0860314AF868F5
:100EA0001860314C388B3149314B10807E8B38695A
:100EB0007A69268008601A6010E500BFC095FF1FA0
:100EC0004893FF1FB495FF1F3C96FF1F4495FF1FDB
:100ED0003296FF1F6A93FF1F1096FF1FB695FF1FE4
:100EE0000C93FF1F5493FF1F74800000B595FF1FE4
:100EF000C090FF1F1296FF1F8096FF1F2895FF1FAF
:100F00001495FF1F6996FF1FD895FF1F6493FF1F5D
:100F1000C895FF1FFA92FF1F5293FF1F3495FF1FC2
:100F2000588000007C87FF1FC07F000064800000A5
:100F30000896FF1F4695FF1FD495FF1F5C93FF1F68
:100F40006C96FF1F5496FF1F000034437896FF1FD6
:100F5000DB0F49406096FF1F5893FF1F3C95FF1F12
:100F60000095FF1FD494FF1FF092FF1F1896FF1FDC
:100F7000E892FF1F9690FF1F6895FF1FA24B1B78FA
:100F8000002B3FF4ABACA14CA149A24BFE8CB8683E
:100F900097F82B20268008601A709FE49A4B1B78E4
:100FA000002B3FF49BAC38899B4CFFF7FDFB208066
:100FB0007889FFF763FC2388984945F20822934219
:100FC000088000F2D68044F2A012934240F2DE8004
:100FD000934B1A78062A2CD005221A707EE48A4B8D
:100FE0001B78002B3FF47AAC8E498F4BF868BA8A95
:100FF00008601A8072E4844B1B78002B3FF46EACBF
:10100000F88A8A4CFFF738FB2080388BFFF7A0FB6B
:101010002388874945F208229342088000F2AE8077
:1010200044F2A012934240F2C280824B1A78062A00
:10103000D2D104221A7051E4734B1B78002B3FF479
:101040004DAC97F824307C487C4A97F82510037003
:10105000022B11707FF642AC79483C6979490460F3
:10106000794B78690860794AB8691860784CB88B10
:101070007849794B1080FE8B388C7A8C26800880DA
:101080001A802BE4604B1B78002B3FF427AC6A4B93
:101090001B78022B7FF622AC704B7149D7F8149065
:1010A000C3F800906F4ABB690B606F4BB98B11801E
:1010B0006E4EF98B6E4A1980F8686E4B6E4C398C07
:1010C0003060D7F810A07E8C11801E80C4F800A07C
:1010D00005F0B2FE69496A4C05F0B6FF034623608D
:1010E000504605F0A9FE654905F0AEFF0346636072
:1010F000484605F0A1FE634905F0A6FF0346A8FB9C
:1011000006204009A36005F097FEE060FFF7E6BB0C
:101110004FF6FF7100230222B4703180F370EA7041
:1011200074E44FF0010985F80090FFF7FEBBD3B2DD
:101130005F1C8EF8003002F1020C02F1030EFFB2C8
:101140000432B4E55049514806F0EEFB00287FF424
:10115000C1AD4F4B1870BDE511214E4802F07EFC29
:101160004D4802F07FFDFFF7B9BB4C4B1A60FFF70B
:10117000B5BB2B4B06221A70FFF7B0BB2D4B0622D6
:101180001A70FFF7ABBBFFF7FFF91BE643F238120B
:10119000934229D842F2D00293422FD841F26802FA
:1011A00093421F4B10D800221A70FFF797BB43F2EF
:1011B000381293420FD842F2D002934219D841F22A
:1011C000680293421B4BEED91A78032AEBD0022215
:1011D0001A70FFF783BB174B1A78052A7FF429AFE3
:1011E00003221A70FFF77ABB0D4B1A78052AF7D045
:1011F0001FE7104B1A78042AE9D0F1E7084B1A7858
:10120000042AE4D0ECE700BFC095FF1FD094FF1F75
:101210000C95FF1FE094FF1FDC95FF1FA495FF1F97
:101220006C93FF1FFC92FF1F7096FF1FDA95FF1F44
:10123000EE92FF1F4C96FF1F6E87FF1FA895FF1FA2
:101240004096FF1FD095FF1F3895FF1F1496FF1F74
:101250003096FF1F6893FF1F9490FF1FB095FF1FEC
:10126000E894FF1F4E96FF1F5096FF1F5895FF1FD3
:101270005296FF1F4A93FF1FF494FF1F8096184B4E
:10128000E095FF1F00007A44848000000C93FF1F4C
:10129000B595FF1F948000007C87FF1FC894FF1F37
:1012A000144E4FF0000910AFF378FB700026B9F12F
:1012B000020FAE702B790F4815D103440122597AE1
:1012C0001B7A2E7043EA0123FE2C3B80AA7002D0C9
:1012D000EA70FFF703BB4FF6FF7385F80390C67003
:1012E0000380FFF7FBBAB9F1000F7FF43EABFFF7C5
:1012F000F5BA00BF7093FF1F7E2808B50CD07D287B
:1013000003D0BDE8084001F0DDBB01F0DBFB5D2050
:10131000BDE8084001F0D6BB7D2001F0D3FB5E2084
:10132000BDE8084001F0CEBB38B50D4B1B78012B52
:1013300004460D4602D00120FFF79AF8204655B129
:10134000FFF7DAFF074B1888204400EB102000F06D
:10135000FF00188038BDBDE8384001F0B3BB00BFC6
:101360007C96FF1FDC94FF1F10B5204B1B7882B0CA
:10137000012B0092ADF80610044602D00120FFF7C1
:1013800077F800217E20FFF7CFFF20460021FFF7EE
:10139000CBFF01211020FFF7C7FF9DF80600144C7A
:1013A0000121FFF7C1FF9DF807000121FFF7BCFFF6
:1013B0009DF800000121FFF7B7FF9DF80100012112
:1013C000FFF7B2FF9DF802000121FFF7ADFF0121F9
:1013D0009DF80300FFF7A8FF2078C043C0B2FFF7D5
:1013E0008BFF0023238002B010BD00BF7C96FF1F3F
:1013F000DC94FF1F1A4B1B491B681B4A002B70B45F
:101400001A4C20DBA4FB03035C0904EB4404002317
:1014100064000C6013701D4600221346012000FA80
:1014200003F101331E2B42EA0102F8D1104E33685A
:1014300022402B43134333601A464FF400611B20B4
:1014400070BCFFF791BF5B42A4FB0334640904EB5B
:101450004404640001230C6013704FF08045DBE707
:101460005895FF1FA890FF1F1095FF1F1F85EB5178
:10147000F492FF1F38B51D4B1868002825DB05F0D6
:10148000D7FC1B4905F02CFD05F016FF194A1A4B35
:10149000106002221A704FF000450022134601240A
:1014A00004FA03F101331E2B42EA0102F8D1134C76
:1014B000236802402B4313431A4623604FF4006114
:1014C0001B20BDE83840FFF74FBF404205F0B0FC9D
:1014D000074905F005FD05F0EFFE064A064B1060D2
:1014E00003221A704FF04045D7E700BFF494FF1F66
:1014F0008FC2753D4896FF1F1095FF1FF492FF1F86
:101500002DE9F0435B4E33788FB0002B47D05A4A19
:101510001478A34280F29480584A5948D55C0768F1
:10152000584C13442A0693F803E093F8018093F88B
:1015300002C084F801800EF07F0302F0FE421A43DD
:101540004FEA0841BCF1000F18BFB8F1000F47EA9D
:10155000020701F4FE014FEA0C2241EA070102F4FE
:10156000FE420CBF012300230A43002D08BF43F0B5
:101570000103026084F802C084F803E02570002BA8
:1015800063D1BEF1000F60D04FF4A0411B20FFF7E4
:10159000EBFE3378043333700FB0BDE8F083DFF82F
:1015A000E880B8F81C72002F5FD0D8F8144204F11C
:1015B000350CC8F814C204F13009EE4620686168A1
:1015C000A268E36875460FC510344C45AE46F5D1A8
:1015D000206828602C4B22792A7103F2122294454C
:1015E0006C4628BFC3F814320FCCDFF8A890DFF8A0
:1015F000A0C0DFF884E04D460FC50FCC0FC50FCC5F
:101600000FC594E8030045F8040B99F8333099F8B6
:10161000000029701A1D09F101018CF80000013F3A
:1016200016488EF800301C46A8F81C7200F0AEFF79
:101630003378164A99F834101170A342FFF66CAF54
:10164000002333700FB0BDE8F083114B1B785C05AD
:10165000990304F4000401F40041DB01214303F089
:1016600080030B431A4302608EE7B847B8F81C7238
:101670009BE700BF3E96FF1FF095FF1F8094FF1F62
:10168000F492FF1FE092FF1FC090FF1F6896FF1F9C
:101690005393FF1F6895FF1FF0B5234B23491B7819
:1016A000234A09781170062B36D0224A224B126841
:1016B0001B78224D224C23480132DB09D2B22A701A
:1016C000237003701F46204C204894F800E0204C03
:1016D0000678256849014FEA4E2E01F060000EF4AD
:1016E00000710143B002294300F4406002F01F0280
:1016F000FE010143114306F080001B0203F48072D7
:1017000041EA0003134323601A4645F201011B20FE
:10171000BDE8F040FFF728BE084A0A48084B127897
:1017200007781B78CFE700BF2895FF1FB595FF1FEF
:101730006896FF1F6493FF1FD895FF1FA795FF1F93
:101740005095FF1FAC95FF1FD795FF1F4895FF1FB2
:10175000F492FF1FF8B5204B20491868204C05F083
:10176000BFFB204905F0B4FA05F0A6FD1E4A1F4B49
:101770001A4987B21F80106805F0B2FB1C4905F0BA
:10178000A7FA05F099FD1B49002380B21A46208074
:101790000B80012505FA03F401330B2B42EA040206
:1017A000F8D1154E34683A40C00222430021012589
:1017B00005FA03F40133152B41EA0401F8D1014085
:1017C00041EA02031A46336045F206011B20BDE8D8
:1017D000F840FFF7C9BD00BF7896FF1F0000A0408A
:1017E0004496FF1F000061446096FF1FF892FF1FA0
:1017F0000000E143AA95FF1FF492FF1F70B42E4B27
:101800001A78042A0AD80132D2B2042A1A700CD0EB
:10181000052A3FD0012A28D070BC704727490022F2
:1018200001201A70087070BC70472549254B0A705A
:1018300040F6E441002219600120134600FA03F14A
:101840000133182B42EA0102F8D11F4C216840F6FF
:10185000E44341F0806113400B4323601A4645F294
:1018600007011B2070BCFFF77FBD18481849144BB7
:1018700005780D6000211A700B4602FA03F001335F
:10188000182B41EA0001F8D10F4C2268294042F0A0
:101890008073E1E70C4C0A4923680E4D0A7043F04F
:1018A000A063002623602E601A4645F207011B2024
:1018B00070BCFFF759BD00BFA090FF1FAD95FF1F83
:1018C000D294FF1F5C95FF1FF492FF1F2895FF1F06
:1018D0007496FF1F6495FF1F144B1B7810B50BB354
:1018E000134B187805F0A8FA124905F0ADFB05F086
:1018F000E3FC114B186000221346012404FA03F1A3
:101900000133202B42EA0102F8D10C4C236802403B
:10191000134323601A464FF201111B20BDE810400B
:10192000FFF722BD044BFF201860E4E70495FF1F7A
:101930004893FF1F5C8F2240C094FF1FF492FF1F4B
:1019400010B50229044680EAE070A0EBE47011D0E3
:10195000032901D0002010BD012A26D0022AF9D186
:10196000B0F57A7F52DA800080B2002CF3DA40F4CE
:10197000805010BD012A31D0022AEBD163285EDDF0
:10198000B0F57A7F72DA05F053FA574905F0A8FAF4
:1019900002F070FD05F090FCC0B2800040F0010044
:1019A000002CD8DA40F4007010BDB0F57A7F49DB26
:1019B000B0F5205F6CDA05F03BFA4B4905F090FA80
:1019C00002F058FD05F078FC80B2400040F00100C4
:1019D00080B2002CBFDA40F4006010BD63282BDD1C
:1019E00040F2F54398423FDC05F022FA3E4905F00B
:1019F00077FA02F03FFD05F05FFCC0B2400040F016
:101A00000100002CA7DA40F4807010BD42F20F7381
:101A100098421ADD354B98423DD805F009FA344911
:101A200005F05EFA02F026FD05F046FC80B280006B
:101A300040F0020080B298E7400080B2E1E7800009
:101A400080B2ADE7400080B2C3E705F0F1F9264966
:101A500005F046FA02F00EFD05F02EFC80B2800083
:101A600040F0010080B280E7FF20CAE742F20F7326
:101A7000984222D805F0DCF91D4905F031FA02F050
:101A8000F9FC05F019FCC0B2800040F0020087E7C5
:101A900040F2FF709DE7B0F57A2F1FD205F0C8F92C
:101AA000144905F01DFA02F0E5FC05F005FC80B2D2
:101AB000800040F0030080B257E70F4B984210D8E7
:101AC00005F0B6F90B4905F00BFA02F0D3FC05F06E
:101AD000F3FBC0B2800040F0030061E740F6FF7006
:101AE00043E740F2FF105BE7CDCCCC3D9F86010081
:101AF0000AD7233C6F12833A17F00100F8B52D4B3B
:101B00002D4A1B780F2B4ED90F2313709E462B4A5C
:101B10002B4B11782B4E03290A4628BF0322032999
:101B20001A70336842D90339CFB2BC0304F4404C75
:101B300025482649058809682548120102F0300227
:101B40001A4380FB013042EA0E03224ADFF890E09C
:101B5000C917A2FB05250222C1EB6010114643EA1A
:101B60000C048EF80070FFF7EBFEC5F3C7051A4BA7
:101B700007460122284602211F60FFF7E1FE174BAE
:101B8000DFF860E0BF053B40C5B2234343EA85135D
:101B90008EF800501A46336045F202011B20BDE862
:101BA000F840FFF7E1BB9E461370B0E74FF0000C22
:101BB0006746BDE7A895FF1FDE94FF1F6E87FF1FD6
:101BC0000595FF1FF492FF1F1496FF1F3895FF1F06
:101BD0001F85EB51CDCCCCCC6093FF1F0000C07FA4
:101BE000DF94FF1FA695FF1FF8B51F4B1F4C1A88E7
:101BF0001F49204B204D0E68204F214918882B6823
:101C00000E80A4FB02425209C2F308043A801C432E
:101C100005F012F91B4905F063F902F02BFC05F001
:101C200025FB01220221FFF78BFE1749430203F433
:101C3000FF3343EA040208807604002111230124C3
:101C400004FA03F00133202B41EA0001F8D13140BE
:101C500041EA02031A462B6045F203011B20BDE84E
:101C6000F840FFF781BB00BFDA95FF1F1F85EB51DE
:101C70000C95FF1FEE92FF1FF492FF1FBC90FF1FF9
:101C8000E492FF1FCDCCCC3D1C96FF1F2DE9F04FF9
:101C9000DFF86493C249D9F80400C24EDFF85C83D0
:101CA000C14FC24DC24C89B005F0CEF9C14905F013
:101CB00017F98346BA49D9F80000C6F800B005F014
:101CC000C3F9BC4905F00CF98246B549D8F80400BF
:101CD000C7F800A005F0B8F9B64905F001F981464A
:101CE000AF49D8F80000C5F8009005F0ADF9B1494A
:101CF00005F0F6F8804659464846C4F8008004F0DE
:101D0000E5FF04F063FC02460B46CDE9062302F032
:101D10006DFBCDE90001404604F058FC8046894641
:101D200002F01AFBCDE90201504604F04FFC824656
:101D30008B4602F011FBCDE904014046494602F012
:101D400055FB804689465046594602F04FFBDDE977
:101D5000062382468B461046194602F0FDFA42469B
:101D60004B46CDE90601DDE9040104F083FC52464F
:101D70005B46DDE902AB804689465046594604F091
:101D800079FCDDE9062304F075FC02460B4640466B
:101D9000494604F0BBFA5246804689465B46DDE977
:101DA000000104F067FC42464B4602F0DFFB04F002
:101DB00039FF7B4905F094F87E4905F045F900218B
:101DC000804605F02BFA002840F0E4807A4BDFF8DB
:101DD00030A2C3F80080404605F048FA83B2A3F170
:101DE000B40000B20028BCBF03F1B40000B2B0F5EB
:101DF000B47FA8BFA0F5B470704BA8BF00B2188024
:101E000005F01AF86E4905F06BF805F02FFA246812
:101E10003F68AAF800003946204604F057FF694B96
:101E200031688046C3F80080286804F04FFF664B95
:101E3000054618604FF07C51404605F051F804F01B
:101E4000C5FB02F0D3FACDE9000128464FF07C51E2
:101E500005F046F804F0BAFB02F0C8FA80463846AE
:101E6000894604F0B3FB02F077FA064620460F4697
:101E700004F0ACFB02F070FA424604460D464B46B5
:101E80004046494604F0F6FB32463B4604F0F2FB7E
:101E900022462B4604F0EEFBDDE9002304460D4606
:101EA0001046194604F0E6FB0B460246294620463A
:101EB00004F02EFA04F0B6FE444A106004F086FBEB
:101EC00002F056FB02F0FAFA02460B4604F020FA42
:101ED00004F0A8FE3E4B3F49186005F001F83E4B68
:101EE0003E4A1B781060002B52D005F0BFF980B23B
:101EF00004F09EFF02F0BEFA05F0B8F9384B394EF7
:101F00001B68032186FB0326DB170222C3EB661640
:101F1000FFF716FD344A002336B210801C4601211B
:101F200001FA04F201340C2C43EA0203F8D12F4DDC
:101F30002A680340304643EA020704F07DFF02F0BE
:101F400099FA05F093F902220321FFF7F9FC284BD7
:101F500000B2188000220303012606FA04F10134BE
:101F6000182C42EA0102F8D11A403A430028BAF983
:101F70000030B8BF42F0807242EA43631A4645F22D
:101F800004011B202B6009B0BDE8F04FFFF7ECB94E
:101F90001846B3E74046174904F09AFE804615E715
:101FA000000034432C95FF1FA490FF1F3095FF1FA6
:101FB0002096FF1FDB0F49409890FF1FEC94FF1FF6
:101FC0004CA6AA3E4C93FF1FC494FF1FF894FF1F1A
:101FD000D894FF1F706DC24A5293FF1F9090FF1F4D
:101FE000E894FF1F1F85EB510093FF1FF492FF1F22
:101FF0000A93FF1F0000B443AC90FF1FE095FF1F42
:102000000893FF1F2DE9F84F334B34491868344FBC
:10201000DFF8D8B0DFF8D8A0DFF8D88004F060FF90
:10202000304B2E490446186804F05AFF2E4B0646E2
:10203000188804F0FDFE294905F006F800218146C4
:10204000204605F0EBF83D68002842D1204602F01A
:1020500011FA05F00BF901220221FFF771FC044689
:1020600004F0E6FECBF80000304602F003FA05F07B
:10207000FDF801220221FFF763FC064604F0D8FEBA
:102080007602E4B206F4FF334FF07C512C43CAF8D9
:102090000000484643EA040604F022FFC8F80000A6
:1020A00005F00AF9012500214004112305FA03F483
:1020B00001331C2B41EA0401F8D1014041EA060337
:1020C0001A463B6045F205011B20BDE8F84FFFF7BB
:1020D0004BB945F48075B9E7E892FF1F0000204135
:1020E000F492FF1F0095FF1F4A93FF1F3896FF1FB2
:1020F0003496FF1FC495FF1F284B29481B88A0FB5F
:1021000003302DE9F041400904F096FE254A264BA4
:10211000264DDFF8A88004461C60B2F9000004F0E8
:102120008BFE234B0646586805F0C6F8214B87B254
:102130001F80204605F0C0F82B681F49C0F3080433
:1021400030461C4304F0CCFE02F094F905F08EF802
:1021500001220221FFF7F4FB064604F069FE730238
:1021600003F4FF3343EA04027F04C8F800000021AF
:102170001123012404FA03F00133202B41EA00016A
:10218000F8D1394041EA02032B601A4645F20801B2
:102190001B20BDE8F041FFF7E7B800BFDC95FF1F4B
:1021A0001F85EB51A495FF1F6095FF1FF492FF1F41
:1021B0002487FF1FCA95FF1FCDCCCC3D6496FF1F1F
:1021C000F0B5914C23685A1E99B00B2A22D8DFE84B
:1021D00012F0E6006F000C008500D100B400E200B0
:1021E0009F002C00E000E4005700884D2B68884ECB
:1021F0001393139B32689B1AB3F5A77FC0F0E4805A
:10220000844B1B78022B00F24B812B681293129B9C
:1022100033602368804A7C491278013393422360FB
:1022200001D901230B6019B0F0BD784D2B687B4EAE
:102230000793079B3268754F9B1AB3F5FA7F00F23C
:1022400011812368013323602B68754E0593059B2C
:1022500032686E4F9B1AC82B00F2CE802368013380
:1022600023602B686F4D03932A68039B674E9B1A6C
:1022700041F28832934200F2AB802368013323603D
:10228000694B1B688BB1614E684D33680193019BAC
:102290002A689B1AB3F57A7F07D9FFF72DFF3368B9
:1022A0000093009B2B602368B4E723680133B1E7F8
:1022B000564D2B685E4E1593159B32689B1AB3F5ED
:1022C000A77FC0F08D80534B1B78022B00F2DA8081
:1022D0002B681493149B336023689BE74B4D554B3D
:1022E000B3F81C321BB9544B1B78002B64D02B68FD
:1022F000524E1193119B3268444F9B1AC82B5BD9E5
:10230000FFF7FEF83B681093109B3360236881E76A
:102310003E4D2B684A4E0993099B32689B1AB3F5D0
:10232000FA7F4DD93B4B1B78022B00F2AE802B6815
:102330000893089B336023686CE7344D2B68414E4B
:102340000D930D9B3268314F9B1AB3F5A77F80F038
:1023500081802368013323602B683B4E0B930B9BDA
:1023600032682A4F9B1AB3F57A7F3DD82368013330
:102370002360CEE7254D2B68344E0F930F9B3268B8
:10238000224F9B1AB3F5A77F74D2236801332360D1
:10239000D4E71E4D58E71D4DDEE71C4D61E71B4D90
:1023A0002B4A2B681793179B11685B1AB3F5FA7FBA
:1023B0006ED8022323607CE7236801332360DAE7C9
:1023C00023680133236031E723680133236086E704
:1023D000FFF714FA33680293029B2B60236819E716
:1023E00023680133236001E7FFF7FEFB3B680A9394
:1023F0000A9B336023680DE7FFF7ACF93B68049351
:10240000049B3360236805E77087FF1F8096FF1FDA
:10241000E494FF1F0595FF1F6F87FF1F5C96FF1F4A
:102420000895FF1F5495FF1F6495FF1F4C95FF1FD4
:102430001895FF1FC090FF1F3E96FF1FCC95FF1FF2
:10244000FC94FF1F9C90FF1F4095FF1FBC95FF1F32
:10245000B895FF1FFFF752FB3B680C930C9B336052
:102460002368D7E6FFF7CEFD3B680693069B3360F3
:102470002368CFE6FFF710F93B680E930E9B33609D
:102480002368C7E6FEF7B6FF22E7FFF7FFFB4EE73C
:102490002B681693169B1360FFF71EFA2368B9E6A4
:1024A000FEF7E8FFB1E600BF08B5094B1B78012B2A
:1024B00002D00120FDF7DCFF064B074A1B78002104
:1024C000116003B908BDBDE80840FFF779BE00BF41
:1024D0007C96FF1FC095FF1FF492FF1F30B5194C6B
:1024E000237885B053B1184B184A1B6801931168C3
:1024F000019B40F6B8325B1A934217D8FEF7E8F911
:1025000023786BB1104D124C2B680293029B22680A
:102510009A4205D0FFF7C8FF2B680393039B236003
:10252000FEF76AF8FEF794F805B030BD00252A21C1
:102530000848257001F092FA074801F093FB074B19
:102540001D80DBE7C095FF1F8096FF1F1495FF1FBE
:10255000BC94FF1FA88000007C87FF1F3495FF1FDD
:10256000074B084A084910B40024A3F81C42184637
:1025700010BCC3F81432C3F8183204F0BDBE00BF5B
:10258000C090FF1F2087FF1F6D040000844641EAB2
:10259000000313F003036DD1403A41D351F8043BDB
:1025A00040F8043B51F8043B40F8043B51F8043B2D
:1025B00040F8043B51F8043B40F8043B51F8043B1D
:1025C00040F8043B51F8043B40F8043B51F8043B0D
:1025D00040F8043B51F8043B40F8043B51F8043BFD
:1025E00040F8043B51F8043B40F8043B51F8043BED
:1025F00040F8043B51F8043B40F8043B51F8043BDD
:1026000040F8043B51F8043B40F8043B51F8043BCC
:1026100040F8043B51F8043B40F8043B403ABDD23B
:10262000303211D351F8043B40F8043B51F8043BDD
:1026300040F8043B51F8043B40F8043B51F8043B9C
:1026400040F8043B103AEDD20C3205D351F8043B6C
:1026500040F8043B043AF9D2043208D0D2071CBF38
:1026600011F8013B00F8013B01D30B880380604661
:10267000704700BF082A13D38B078DD010F00303D7
:102680008AD0C3F10403D21ADB071CBF11F8013B47
:1026900000F8013B80D331F8023B20F8023B7BE796
:1026A000043AD9D3013A11F8013B00F8013BF9D2C1
:1026B0000B7803704B7843708B788370604670475B
:1026C00010B40F4B53F8302092F880422CB1012304
:1026D00069B182F8803010BC704703EBC0035B68BF
:1026E0001A6841B922F002021A6010BC704782F8E1
:1026F000003110BC704742F003021A6010BC7047F2
:10270000D48100001C4A02EBC00301295B6811D090
:1027100004291BD052F83000002280F8802229B111
:10272000022920D0032922D01A6070474FF480720A
:102730001A60704752F830004FF4A27280F880128D
:102740001A601A6822F020021A60704752F830109E
:102750004FF4A272012081F880021A601A6842F0D8
:1027600020021A60704740F203121A6070474FF45B
:1027700081721A60704700BFD481000030B4054BED
:10278000054D064C002210211A602A602060196055
:1027900030BC704714D0034004D0034000D0034045
:1027A000212801D8FFF78CBF704700BF212801D82E
:1027B000FFF7A8BF704700BF2DE9F843054672B682
:1027C000204F214B214A1B683C68126862B65201B7
:1027D00002D5322B88BF013495B3C3F5BB331C4EF1
:1027E000DFF86490DFF86480FF334FF47A72A6FB61
:1027F000031302FB04F404EB931472B6D9F800102F
:102800003A68D8F800E062B6C1F5BB33FF33A6FBE7
:1028100003031EF0806FC4EB93134FF47A7002D061
:10282000322988BF013200FB0233B3F57A7F04D32B
:10283000013D05D004F57A74DFE701F089FADCE7A1
:10284000BDE8F8838096FF1F18E000E004ED00E08B
:10285000ABAAAAAAF8B52D4B2D49DFF8D0E0DFF8D6
:10286000D0C02C4E2C4D2D4C2D4A2E4F4FF4000035
:1028700018604FF0807018604FF0007018604FF0D3
:10288000806018604FF00060186000200860282306
:102890004BF6FF71CCF80010CEF8003033601360B7
:1028A0002B6023603B60B3629362092245F8242CBD
:1028B000C4F8D80F05F57F65C7F8D41F07F5FF27C3
:1028C00007F5FA67C6F8F83F2B6006F5FF26C4F84F
:1028D000D42F05F5FD2504F5FF24386006F2F476C3
:1028E0001148316005F5FF6504F5FD642B60236038
:1028F000026001F07BFA1920FFF75EFF00F0A6FFEF
:1029000040F21310BDE8F840FFF756BF08E100E0C1
:102910000480034014800340248003402C80034043
:102920001C8003403480034000800B400C80034037
:10293000088003402DE9F84F214B1B6807460BB177
:1029400001221A70DFF888901E4D99F80040DFF8D8
:1029500084801D4E01343F2C8ABF4FF0000A5FFA7D
:1029600084FA5446AB462B78A34216D101F0F4FA10
:1029700040281FDC33791B06F5D59BF80030013366
:102980003F2B86BF00221346DAB218F80330DBB2C1
:10299000F3712A702B78A342E8D00C490A4BFFB29E
:1029A00008F804700120BC22087089F800A0DA70D1
:1029B000BDE8F88FFF28D6DD01F0CAF9D3E700BFE4
:1029C0001497FF1F1197FF1F00A006401097FF1FCD
:1029D0001897FF1F8C96FF1F2B4A2C491368F0B5E0
:1029E00043F4806313600A78294F2A4E2A4D2B4CFA
:1029F0002B4900233B7033702B7023700B70002A1F
:102A00003DD0152A21D0274B1B78012B25D0052B33
:102A100030D01F2827D8002002460125224B234C06
:102A20001A7023495D7004224FF0020E88273C265D
:102A3000402598729A704FF4005083F813E05A754D
:102A40001F74DE7025700860F0BD1A4B40F213321F
:102A50001A60144B1B78012BD9D1174B4FF45172CC
:102A60001F281A60D7D9C0F34432C0F3471500F0CD
:102A70001F00D3E7114B4FF451721A60C9E7104B96
:102A800040F213321A60BEE734800440CC96FF1F38
:102A90008896FF1F8996FF1F1897FF1F1197FF1F2A
:102AA0001097FF1F7487FF1F00A006402DE400E071
:102AB00004E100E018C0044044A004401CC00440ED
:102AC00040A00440034B1B685B0501D5FFF732BFF4
:102AD000704700BF34800440054A064B10781B78CD
:102AE000C0B2DBB2984238BF4030C01A704700BF56
:102AF0008896FF1F8996FF1FF0B4384B1A7912F0A1
:102B0000300F2CD072B6997D01F0FF0200293DD024
:102B100062B6334F334938780D78334E1C46C0B215
:102B2000EDB2431C402BE17928BF0023AB4202F1F8
:102B3000FF32C9B21CBFF154184612F0FF02F0D1A7
:102B40002A4B1B68C2B23A704BB1A84236BFC5F1DE
:102B50004005401B40192728C4BF01221A701F4995
:102B6000CA78D2B2150616D452060DD51B4B1B7966
:102B70005B0609D51E4B1F491B6800220A7003B172
:102B80001A70164B3C22DA70F0BC70474022D9799B
:102B90005A7462B6E3E70B791C06E5D5164B174E5F
:102BA0001C783378E4B2DBB29C420ED0144D01E0C5
:102BB000A3420AD00133402B28BF00230879E85CE8
:102BC000C0B2C871087D0728F2D9DBB2034933705F
:102BD0000B79180644BF7C23CB70C5E700A00640E4
:102BE0008896FF1F8996FF1FD096FF1F8496FF1FB0
:102BF0001497FF1F1097FF1F1897FF1F1197FF1FB4
:102C00008C96FF1F2B4A2C491368F0B543F40063E0
:102C100013600A78294F2A4E2A4D2B4C2B4900234A
:102C2000092A3B7033702B7023700B703DD01A2A29
:102C300021D0274B1B780A2B25D01F2B30D01F28E3
:102C400027D8002002460125224B234C1A70234925
:102C50005D7004224FF0020E88273C2640259872B2
:102C60009A704FF4004083F813E05A751F74DE70B9
:102C700025700860F0BD1A4B40F213321A60144BF5
:102C80001B780A2BD9D1174B4FF451721F281A60A9
:102C9000D7D9C0F34432C0F3471500F01F00D3E783
:102CA000114B4FF451721A60C9E7104B40F21332C6
:102CB0001A60BEE7348004407587FF1F8C97FF1FA2
:102CC0002197FF1F9497FF1F8D97FF1F2097FF1FCE
:102CD0007687FF1F00B006402FE400E004E100E02B
:102CE00004D0044010B0044000D004400CB00440B4
:102CF000054A064B10781B78C0B2DBB2984238BF49
:102D00004030C01A704700BF8C97FF1F2197FF1FEC
:102D100030B4154B154C1A782378D2B2DBB29A42F4
:102D20001ED001333F2B0ED91149124B0878196878
:102D30000023C0B2237021B1D31A1A2B01DC002367
:102D40000B7030BC70470A480A49C05C0968DDB2A4
:102D5000C0B225700029F4D09A4238BF4032EBE768
:102D60004FF0FF30EDE700BF8C97FF1F2197FF1F4B
:102D70004C97FF1F1C97FF1FF0B4384B1A7912F0C5
:102D8000300F2CD072B6997D01F0FF0200293DD0A2
:102D900062B6334F334938780D78334E1C46C0B293
:102DA000EDB2431C402BE17928BF0023AB4202F176
:102DB000FF32C9B21CBFF154184612F0FF02F0D125
:102DC0002A4B1B68C2B23A704BB1A84236BFC5F15C
:102DD0004005401B40192728C4BF01221A701F4913
:102DE000CA78D2B2150616D452060DD51B4B1B79E4
:102DF0005B0609D51E4B1F491B6800220A7003B1F0
:102E00001A70164B3C22DA70F0BC70474022D97918
:102E10005A7462B6E3E70B791C06E5D5164B174EDC
:102E20001C783378E4B2DBB29C420ED0144D01E042
:102E3000A3420AD00133282B28BF00230879E85C7D
:102E4000C0B2C871087D0728F2D9DBB203493370DC
:102E50000B79180644BF7C23CB70C5E700B0064051
:102E60008C97FF1F2197FF1F4C97FF1F1C97FF1F79
:102E70009097FF1F2097FF1F9497FF1F8D97FF1FAD
:102E80002497FF1F431E032B14D872B60A4951F82A
:102E9000230068B170B4094C058834F813204668E3
:102EA00041F82360521B24F8132062B670BC7047AF
:102EB00062B6704700207047F097FF1F6099FF1FB0
:102EC000013803280BD872B6074B53F8203043B1B2
:102ED00000205B680130002BFBD162B670470020F8
:102EE00070471846F9E700BF4498FF1FF0B472B668
:102EF0001A491B4E012311F8014B194F9A00240760
:102F000042F0010505D556F8324064B156F8352037
:102F1000BAB10133052BEED162B6124B00221A7002
:102F2000F0BC00F00FBD0F4C0F4D217847F8325028
:102F300007EB431308304A1E5860227062B6F0BC9B
:102F400070470849094B0A7847F8353007EBC50345
:102F50000830013A58600A7062B6F0E7108300004A
:102F60000080FF1F6D98FF1F88004000C8004000D0
:102F7000431E032B1DD81B4A400140F0100030B403
:102F8000104472B6184CE25C032A1BD8DFE802F04A
:102F90000212151703220D88E25410F0080F14BF17
:102FA000C823882343EA054308310360416062B6C1
:102FB00030BC704708300222EDE70522EBE708300D
:102FC0000422E8E7094A52F8230038B1084A52F8C7
:102FD0002300416042F8231062B6E9E742F823106B
:102FE000034AF7E70080FF1F7C98FF1F4498FF1FEC
:102FF0005498FF1F2DE9F04FDFF804A3DFF804B366
:1030000087B044E0A94F4FEA930807EBC809013E97
:10301000D9F8042003F00803F6B2A2F1080003F087
:10302000FF04002B40F0FE8057F838301B0C99B29B
:1030300022F8081C002B00F0EC809D4B22F8064C77
:1030400042F8044C53F82620002A00F02B82994DB8
:1030500055F826305860984C45F8260034F816305C
:10306000194424F8161000F04DFC002800F01382DB
:10307000924A934B19F0080F00F1080018BF13464D
:10308000C9F8040047F8383008238AF800309AF865
:103090000040E4B260071AD58A4B1B78A3B18A4975
:1030A0000A7802F0FF0322B1013BDBB20B7003B9D7
:1030B00000BE86490A7802F0FF032AB1013BDBB269
:1030C0000B70002B00F0BD8104238AF8003004F05F
:1030D000080303F0FF02002B00F0C8809BF80030CB
:1030E000DBB21E098ED19C08704F57F8342007EBD5
:1030F000C401C2F38302013A49680C2A00F28580B8
:10310000DFE802F079798383838383834283838337
:10311000070008686E4B6F4D0193684B4A686E4E0E
:1031200047F8343081B240F28164694B6A602860AC
:1031300000220120A1421A603A61BA61307000F2A7
:10314000E380B1F5D06F80F02782B1F5817F00F088
:10315000E08100F2C381802900F03682822940F0AC
:10316000DE81A9885D4B01F07F01042900F2D8813E
:103170005B4C89000B44227062701A78930740F10F
:1031800022832070022023E2514B01931A683AB344
:10319000544B514E5449188834780D78402886464F
:1031A00045F0020828BF4FF0400E002C84F00104C7
:1031B0003470CEEB00000CBF8824C82407EBC8068F
:1031C00080B285F0010544EA0E447260188047F829
:1031D000384072440D70002800F0B780019B1A60DF
:1031E0003C4B1A88B2F5A06F0FD100219A78597024
:1031F0003E4B1A7009E0374A108842F22102904291
:1032000000F0A8802D4A47F83420394A0123137072
:103210003AE72A4A2A4B19F0080F18BF134647F815
:10322000383031E700F08EFB324A334952F826300D
:10323000002B00F03B8158688C5D42F8260003F1BA
:103240000802C9F80420032C05D8DFE804F02C029A
:10325000292602228A551A8819F0080F0CBF8823E4
:10326000C82343EA024347F838300DE7E00700F18E
:10327000EB80210600F12881A20706D51F4A2049CC
:1032800013780220DBB213700870E30602D51C4BE2
:1032900010221A7007B0BDE8F08F04228A55DAE7D1
:1032A00005228A55D7E703228A55D4E70080FF1FFD
:1032B000F097FF1F9C97FF1F6099FF1FC8004000F9
:1032C000880040007898FF1F0198FF1F8098FF1F1B
:1032D0009897FF1F6498FF1F0098FF1FC0200740AA
:1032E0007098FF1FAC97FF1F6C98FF1F9820074036
:1032F000942007404498FF1F7C98FF1F88200740B8
:10330000802007409020074042F22104A14200F0B3
:10331000948043D8B1F5086F00F0A881B1F5106F23
:1033200040F0FD80B84AB94CA978117004F18005CD
:1033300003E00834AC4200F09E81236A1906F8D5F8
:10334000606A083800F0FEFAF3E7BEF1400F18BFDC
:10335000002243E7AE4ACD1D11F8013B02F8013FC0
:10336000A942F9D1AB4A1268862A00F01181AA4914
:10337000AA4E0A78307882F00105002842F0020255
:103380000D700CBF8821C82147F8321007EBC2022C
:1033900080F0010000213070516033E742F22124B7
:1033A000A14240F0FE81DFF8BCC29D4B9D49AC7844
:1033B000DCF800501D6081460C70002002908046B1
:1033C0008446044694490D7845F0020E07EBCE037F
:1033D000B9F1000F5C600CBF8824C82444EA0803DC
:1033E00085F0010447F83E3032700C70DFF81CE2C3
:1033F0008A4BDFF82482002840F09880BCF1400F0F
:103400001BD144F0020407EBC403029FDFF8FCE188
:103410005F60002A40F09F80020442F08802074467
:103420004EF8342086F800900D703B46402804D1B9
:1034300000207D4A019910800B607C4A01231370A3
:10344000E3E600F0EBFB3FE6704B784872491A6107
:103450004FF0020E80F800E0754F0A707549196050
:103460009960754E754D764C9A610D213970FF212A
:103470003170DFF8F4E129702270724D724A8EF8D3
:1034800000109F27012406F8047C5D600470DA6058
:1034900007B0BDE8F08F6D4A47F838001378013364
:1034A0001370F1E543F82600694DD4E58B5D032BDD
:1034B00067D801A252F823F089300000893000005B
:1034C0000D3500000735000059495C4B80220D2066
:1034D00008701A70A2077FF5D8AECFE640F202322C
:1034E000914240F05681A98801F07F01042916D845
:1034F0006A88A2B94E4C89000C448146217841F07B
:103500000201217059E701238B55BDE500238B553E
:10351000BAE5A98801F07F01042940F24781444BB4
:103520000F221A70414A012313706EE640287FF67D
:1035300068AF44F002040EEBC401029E4E60AAB1D3
:10354000444A83F800903346403888F800504033AE
:103550004EF834206DE70204029B86F8009042F09A
:10356000C8020D7003444EF834205FE783F80090E2
:10357000029B304A88F80050403840334EF83420DF
:1035800057E719F0080F0CBF022303238B557BE587
:10359000314A0F211170EAE6304A5468002CBED03F
:1035A0006888B5F804E003E00C325468002CB6D00B
:1035B00013888342F8D153887345F5D1000A032854
:1035C0000CBF2078108903E0254C02202270627025
:1035D000EA88824280F00C810F490D78402A45F03C
:1035E000020E944607EBCE0028BF4FF0400C04EBD0
:1035F0000C0344600293CCEB02004FEA0C484FF0FE
:1036000001090022C824E9E67898FF1F0080FF1F07
:103610006799FF1F6899FF1F6C98FF1F0098FF1F95
:103620007099FF1F9098FF1FAC97FF1F94200740D1
:10363000C0200740880040008820074080200740C5
:1036400098200740B097FF1F0498FF1F6D98FF1F39
:103650009C97FF1FC80040000198FF1F14830000C3
:103660007098FF1F8096FF1F8C200740684A694CA6
:1036700012782270ACE76849684B694A029169493F
:10368000694C6A4D039405964FF0000988461C4624
:1036900016460495206828B1456800F053F928467D
:1036A000002DF9D100232360049B30681A460023C3
:1036B00042F8293028B1456800F044F92846002D29
:1036C000F9D100223260029A98F8003011460022A7
:1036D00041F8042B039A0291023B4FF0000122F8BB
:1036E0001910032B07D8DFE803F0340234024FF03F
:1036F000010388F8003009F10109B9F1040F04F160
:10370000040406F1040608F10108C3D1484B059EE4
:10371000DFF83091DFF8308100211970012518F8A9
:10372000013B09F8043B1A0718D4AC0044F002022C
:1037300044F00304002347F8323047F834303D4B5F
:10374000994505F10105EAD196F8009089F001024A
:1037500033E64FF0000388F80030CCE700F0D2F8F1
:10376000AC0007EB451300F10802002837D05A607F
:10377000314B47F8343000F0C5F844F0010307EB53
:10378000C30200F1080100B351602C4A47F833200E
:10379000CCE7B1F5A06F7FF4C2AE00224FF0010973
:1037A0000BE642F221329142F7D0B8E66A88002A4D
:1037B0007FF4B5AE224C89000C448146217821F07B
:1037C00002012170F9E5022002E7194B44F00102E1
:1037D0001B7847F83200164A01331370A6E7144BE2
:1037E000134A1B78AC00013347F834001370C2E76A
:1037F0004028844628BF4FF0400C04EB0C03CCEB70
:1038000000004FEA0C48029300224FF00109D9E56D
:103810007898FF1F7098FF1F5498FF1FF097FF1FA5
:103820004498FF1F7C98FF1F6099FF1F9C97FF1F04
:103830006D98FF1FD420074088004000C80040005A
:10384000C0200740C4200740108300002DE9F84342
:10385000204C00F041FC002204F1880023461A604D
:103860005A60083383424FF00001F8D11A4A1B4FC7
:1038700013681B4D1B481C4EDFF87880DFF878C0BA
:10388000DFF87890DFF878E043F480231360C4F326
:1038900007233B70C4F307432B70240EFF2302F56C
:1038A00028320470114D88F8003011488CF800302F
:1038B000D4323370012389F8003070268EF800105E
:1038C0004FF40074102107F8183C2E70046011703A
:1038D000BDE8F8830080FF1F348004409C2007402F
:1038E000B0200740B42007401020074049E400E022
:1038F00008E100E08020074088200740942007402E
:103900000021074072B60D480268B2FA82F30B2B11
:1039100010DC4FF00041D94022EA0102026062B699
:10392000074803EBC303DB00C2180021C150104657
:103930005160704762B60020704700BF7887FF1F54
:10394000BC83FF1F0D4B0E4AC31AA2FB03231B09A6
:103950000B2B0CD80B4A127852B972B60A484FF0AA
:103960000041026821FA03F31A43026062B670470D
:10397000064A1278002AF0D0FFF7B8BABC83FF1FBE
:10398000398EE3386D98FF1F7887FF1F7898FF1FE7
:1039900038B50F4D286878B143880288C1180133C3
:1039A00093420C7A02D24380204638BDFFF7CAFF0B
:1039B000002320462B6038BD064B1B782BB103201B
:1039C000FFF760FA28600028E6D14FF0FF3038BDDD
:1039D0008C98FF1F7898FF1F10B5094C206818B10C
:1039E00043881844007A10BD064B1B782BB1032086
:1039F000FFF748FA20600028F2D14FF0FF3010BDE9
:103A00008C98FF1F7898FF1F044B054A1B6890880D
:103A10001BB11A885B88D31A184470478C98FF1F13
:103A20006099FF1F0B4B1B789BB110B50A4C2068A7
:103A300048B1FFF787FF002303202360FFF722FA36
:103A400030B1FFF77FFF0320FFF71CFA0028F8D101
:103A500010BD70477898FF1F8C98FF1F2DE9F04F1D
:103A6000DFF8F89083B0012289F80020019169B352
:103A7000DFF8EC80364F019E8346D8F80000B0B3E3
:103A8000344D4488C4F14001B14228BF314604EBB3
:103A9000010E00221FFA8EFE2A70761AA0F802E0AC
:103AA00000F1080251B1013C224459441BF8014B7A
:103AB00002F8014F8B45F9D1B0F802E0BEF13F0F9B
:103AC0000BD8254A05211170002ED6D1019800236C
:103AD00089F8003003B0BDE8F08F40220280014633
:103AE0000420FFF745FA0022C8F80020E9E73A78F9
:103AF0002AB3184D4AF2F9244FF0010A07E0013CBD
:103B000016D02A78A2B900F023F93A78BAB1042085
:103B1000FFF7D6F90728F2D889F800A0FFF7F2FEE0
:103B2000C8F800000028ACD10C4B013C1870E8D15B
:103B300001234FF0FF302B7003B0BDE8F08F00235E
:103B40004FF0FF3089F8003003B0BDE8F08F00BFC0
:103B50007898FF1F8898FF1F8098FF1F8198FF1F8C
:103B60008498FF1F00B583B002AB012103F8010D5B
:103B70001846FFF773FF03B05DF804FB38B50E4D30
:103B80000E4C28680123237028B14088002323703D
:103B9000C0F1400038BD0A4B1B7813B900202070DB
:103BA00038BD0420FFF78CF90728F7D8FFF7AAFEE5
:103BB00028600028E9D1F1E78498FF1F8198FF1F52
:103BC0007898FF1FF8B5114B1B788BB1104E114D33
:103BD000346801272F7064B10F4A6388002717707B
:103BE000214623800420FFF7C3F9376000232B70A0
:103BF000F8BDFFF787FE084B28B1014604201C7072
:103C0000FFF7B6F9F2E71F70F0E700BF7898FF1FE3
:103C10008498FF1F8198FF1F8098FF1F38B50E4BB7
:103C20001B7873B90D4C216861B103F0FF054B8817
:103C30000B800420FFF79CF9256038BD084B01225A
:103C40001A7038BDFFF75EFE0028F7D00146BDE8C8
:103C500038400420FFF78CB98198FF1F8498FF1F1C
:103C60008098FF1F00B5064A036812885B6883B01E
:103C700001A9ADF804200222984703B05DF804FBC7
:103C8000E4820000F0B507468BB0002A33D0012A49
:103C900008BF0A2251B3212400E0F4B2B1FBF2F5CF
:103CA00002FB1511C8B2092900F1300198BFC8B252
:103CB0000AA988BF3730214488BFC0B201F8240C5C
:103CC000661E2946002DE8D133B1013CE4B20AABAF
:103CD00023442D2203F8242C3B6801AA11195B68A8
:103CE0003846C4F1220298470BB0F0BD30228DF85F
:103CF00025202124E8E70368C9B21B6898470BB068
:103D0000F0BD00BF0029BABF49422D2300230A227B
:103D1000FFF7B8BF08B5FCF7B9FBFEF7DFFB00F013
:103D200017F8FAE7FFF77EBEFFF756BEFFF730BE83
:103D3000FFF76ABEFFF746BFFFF720BF08461146F0
:103D4000FFF78CBE0846FFF70DBF00BF704700BFEE
:103D500038B5224C237803B138BD01232370FFF717
:103D600053FE70BBFEF7B8FE40BBFEF7C1FF10BBB1
:103D700000F036F9E0B900232370EFF30583002B40
:103D8000EAD1EFF3108172B6154B1868E0B1154C0B
:103D90002278CAB945691D6001232370C5B1AA61A3
:103DA00001B962B600254577836898472570D3E747
:103DB00000F0D0FADFE700F0CBFAD9E700F0C6FA5E
:103DC000D3E7FFF7C3FFCDE70029C5D162B638BD01
:103DD000054B1D600029E5D1E3E700BF9198FF1F67
:103DE0002099FF1F2499FF1F1C99FF1F30B42948F9
:103DF000294A2A4B2A4D6024E121047011701B7856
:103E0000284C082B30D00A2B2748284937D00C2BB8
:103E10000CBF35223D2212232A60236002600B6012
:103E2000234B24491B78244ABBB101230B60136048
:103E3000224B23491B78234A012B26D9042B0FD967
:103E4000082B1ED9102B94BF862387230B60136089
:103E50001D4B01221A7030BC70470B601360E7E7FE
:103E600084230B601360F3E700F58E200F490830C0
:103E7000012213232A60236002600B60D0E73922FD
:103E8000F7E785230B601360E2E780230B60136084
:103E9000DEE700BF00400740014007408C87FF1F5E
:103EA00008B003400CB0034008B00B400CB00B400E
:103EB0009398FF1F20B0034020B00B408D87FF1F59
:103EC00024B0034024B00B409298FF1F08B5104C5B
:103ED00008E0236859050DD423681A050FD4236818
:103EE000DB0411D423685803F3D5FFF783F8236864
:103EF0005905F1D5FEF700FE23681A05EFD5FEF748
:103F00003BFF2368DB04EDD500F07AF8EAE700BF59
:103F10003480044008B5FFF7D9FF00BF014B1022E1
:103F20001A80704700200540704700BF094908B556
:103F30000B6830B16A461844A2F58052904202D212
:103F40000860184608BD03F0E3F90C2303604FF046
:103F5000FF3008BD9087FF1FEFF3138070B9EFF3B8
:103F600010836BB9EFF305825AB94FF48070EFF309
:103F700011832BB1984228BF184670474FF0FF308D
:103F800070470F2A01D81846F1E7014BD05CEEE7E5
:103F9000F0E300E0F0B44D1E2E46002400E00134B2
:103FA000B0FBF2F302FB1300092800F130078ABFCF
:103FB0003730F8B2C0B206F8010F1846002BEED128
:103FC0000A1953704CB1107815F8016F287001333D
:103FD000E01A834202F80169F5DB0846F0BC70473D
:103FE000054A064B10781B78C0B2DBB2984238BF46
:103FF0004030C01A704700BF9898FF1F9998FF1F64
:1040000030B42B4B1A7994061FD52A48DA790378F5
:10401000294901333F2B0978C8BF00238B42D2B214
:1040200003D0264CD9B2E2540170254A116861B11F
:10403000244A1278D2B2934236BFC2F140029B1A90
:104040009B18272BC4BF01230B70194AD378DBB20E
:10405000180611D45A060DD5154B1B795B0609D5E8
:10406000194B1A491B6800220A7003B11A70104BD1
:104070002C22DA7030BC704711790906EAD5144950
:1040800010480C780178C9B28C420DD04A1C272AFE
:1040900084BF00210A460F4D054C98BFD1B2AA5CDF
:1040A000D2B2E2710170D5E76C21D170D2E700BFC6
:1040B00000C006409898FF1F9998FF1FC498FF1FE3
:1040C0009498FF1F0599FF1F0899FF1F0499FF1F70
:1040D0000C99FF1F9C98FF1F70B584B072B6194BE6
:1040E000194D1A48702241260F2480211A702E7013
:1040F0001A460470197013781B06FCD5144B186807
:1041000062B6144B144C984298BF00EB800001A992
:1041100098BF40000A22FFF73DFF01A92046002377
:1041200011F8012B01333AB10A2B20F8022FF7D1F5
:104130001623237004B070BD5B00DBB2237004B0A3
:1041400070BD00BF000002400700024006000240B0
:10415000080002407F9698002088FF1F10B4EFF3FC
:10416000108272B6437F33B9017F012907D003293A
:104170000FD00123437702B962B610BC7047124CCE
:104180002168A1B1114943610B68836108605861DE
:10419000EFE70F4C216881B10E4943610B688361E1
:1041A000086058610C4B4FF080511960E1E7074BF4
:1041B0004161816120601860DBE7064B41618161EC
:1041C00020601860EEE700BF2099FF1F1C99FF1FB9
:1041D0001099FF1F1499FF1F04ED00E010B4047F35
:1041E0004160022CC26002D010BCFFF7B7BF8368E9
:1041F00010BC184770B5EFF3108272B60C4C2068F3
:1042000080B10C4E00254369236073B19D6102B9F2
:1042100062B6457783689847EFF3108272B62068DC
:104220000028F0D102B962B670BD3360EFE700BF7D
:104230001099FF1F1499FF1FFFF7DCBF184A30B415
:104240001468002C27D0036821688B420ED2CB1A49
:1042500000218460C1602360E06010600223037568
:1042600030BC704711688B42144608D3A2685B1AB1
:104270000360002AF6D18260C460A060EEE7D268D5
:10428000C2608460E060C568CB1A0222A860236027
:10429000027530BC70478460C4601060DEE700BF08
:1042A0001899FF1FF8B5224E34682CB32368002BF1
:1042B0003AD1204F1D4604E03468ECB12368002B4E
:1042C00032D1A36803B1DD602069336003682575CE
:1042D0001B68BB4221D1037F4560022BC46020D004
:1042E000FFF73CFF6368002BE6D023602046FFF712
:1042F000A5FF3468002CE1D1EFF3108372B60E4AAB
:1043000000211068116003B962B628B18468FFF714
:1043100095FF20460028F9D1F8BD22460021984794
:10432000E0E783689847DDE7013B2360E4E700BFEF
:104330001899FF1FDD4100002899FF1F024A1368EA
:1043400001331360FFF7AEBF8096FF1F704700BFB9
:10435000704700BF704700BF30B5224A21F00043CC
:10436000934287B01BDD204A934205DD02460B468F
:1043700001F0CCFF07B030BD02AA00F051FC00F004
:104380000303012B1AD0022B0FD01BB30124DDE94C
:104390000423DDE90201009401F042FCEAE7002277
:1043A000002300F021FF07B030BDDDE90423DDE983
:1043B000020100F019FF01F10041DBE7DDE90445EE
:1043C0000093DDE9020122462B4601F029FC01F1B0
:1043D0000041CFE7DDE90423DDE9020100F004FF3D
:1043E000C8E700BFFB21E93FFFFFEF7F30B51F4A61
:1043F00021F00043934287B01BDD1D4A934205DD47
:1044000002460B4601F082FF07B030BD02AA00F061
:1044100007FC00F003000128DDE904231AD002287C
:104420000FD0E0B1DDE9020100F0DEFE01F1004154
:10443000EAE7002300930022002301F0F1FB07B01C
:1044400030BD0124DDE90201009401F0E9FB01F136
:104450000041D9E7DDE9020100F0C6FED4E70124FE
:10446000DDE90201009401F0DBFBCDE7FB21E93F30
:10447000FFFFEF7F08B5C0F3C7537F3B162B014604
:104480000EDC002B024610DB0B481841014205D020
:104490004FF480011941114421EA0001084608BD8A
:1044A000802BFBD102F014FC08BD013300F0004169
:1044B000F4D141F07E51F1E7FFFF7F002DE9F04399
:1044C000DFF8A4808BB004460D4600F0ADF898F9F3
:1044D0000030013306460F462ED022462B4620469A
:1044E000294602F061FB814630BB2046294601F097
:1044F000EDFD0022194B02F04DFBE8B1184B1948B5
:10450000CDF8209001228DE80C00CDE90445CDE9DD
:10451000024501F06BFE98F90030022BCDE906014F
:104520000FD0684601F060FE58B1089B83B9DDE901
:1045300006010BB0BDE8F083304639460BB0BDE84C
:10454000F08302F0E5FE21230360089B002BEED0F0
:1045500002F0DEFE089B0360E9E700BF0000F03FC9
:1045600068830000C07F00003688FF1F00F08CBA0F
:104570002DE9F04F8BB004460D4600F073FD284B3B
:1045800093F900A0BAF1FF3F06460F4612D022462B
:104590002B462046294602F007FB834650B94FF0D0
:1045A00000084FF0000942464B462046294602F0DB
:1045B000D3FA20B9304639460BB0BDE8F08F194B1D
:1045C000CDF820B00122CDE90445CDE902458DE8C2
:1045D0000C00BAF1000F15D042464B464046494602
:1045E00002F072F9BAF1020FCDE906010CD102F026
:1045F0008FFE21230360089B63B9DDE906010BB040
:10460000BDE8F08FCDE90689684601F0EDFD002890
:10461000F1D1ECE702F07CFE089B0360EDE700BF00
:104620003688FF1F708300002DE9F047C04B21F052
:104630000048984584B00D46044614DD08F1404812
:1046400008F58018034658EA030323D002460B46B8
:1046500001F05CFE02460B4602F036F904462046A5
:1046600004B0BDE8F087B34B98458A462BDCB8F11F
:10467000795F80F2678192A3D3E9002301F048FEBD
:104680000022AD4B02F086FAE8B12946204604B07C
:10469000BDE8F0878CA3D3E9002301F0EBFF8CA3E6
:1046A000D3E9002306460F462046294601F0E2FFE3
:1046B00002460B463046394601F02AFE04462046A3
:1046C00004B0BDE8F0872046294601F0FFFC024611
:1046D0000B460020984901F019FE0022974B01F08B
:1046E000C9FF7DA3D3E9002304460D4601F0C2FFB4
:1046F0007BA3D3E9002301F00BFE22462B4601F0F9
:10470000B9FF79A3D3E9002301F000FE22462B462E
:1047100001F0B0FF76A3D3E9002301F0F9FD2246B2
:104720002B4601F0A7FF74A3D3E9002301F0EEFDAF
:1047300022462B4601F09EFF71A3D3E9002301F02E
:10474000E7FD22462B4601F095FF6FA3D3E9002336
:10475000CDE900012046294601F08CFF6CA3D3E986
:10476000002301F0D3FD22462B4601F083FF6AA30C
:10477000D3E9002301F0CCFD22462B4601F07AFF5D
:1047800067A3D3E9002301F0C1FD22462B4601F0C7
:1047900071FF694B002201F0BBFDCDE9020120460B
:1047A000294600F05FFC664B984506460F4666DCDE
:1047B000DDE90223DDE9000102F086F83246CDE9A9
:1047C00000013B463046394601F0A2FD02460B4649
:1047D000DDE9000101F04EFF4FF00008CDE90001D6
:1047E00042463B464046394601F044FF02460B46EE
:1047F0002046294601F08AFD424604460D463B46C6
:104800003046394601F084FD02460B4620462946D3
:1048100002F05AF802460B4601F07AFD02460B46BA
:104820002BA1D1E9000101F071FD02460B46DDE943
:10483000000101F06BFD424604460D463B464046F2
:10484000394601F065FD02460B4637A1D1E900016A
:1048500001F05CFD02460B462046294601F056FD5C
:1048600002460B4630A1D1E9000101F04FFD04469C
:10487000BAF1000F3FF7F3AE01F10041EFE6DDE9D9
:104880000223DDE9000102F01FF832463B4601F049
:10489000F1FE32463B4601F03BFD02460B4601F07D
:1048A00037FD0BA3D3E9002301F030FD02460B4690
:1048B00005A1D1E9000101F029FD0446D8E700BFB8
:1048C0009C7500883CE4377E182D4454FB21F93F49
:1048D000075C143326A6913C09F7FD0DE13D023F2C
:1048E00088B20175E0EF493F3B8F68B52882A43F4D
:1048F0005544880E55C1C93F7D6FEB0312D6D43F96
:10490000555555555555C53F82922EB1C5B8B33F43
:1049100059018D1B6C06E63FC88A599CE52A004068
:104920004B2D8A1C273A0340182D4454FB21E93FA4
:10493000FFFFEF3FFFFFDF3F0000F03F0000E03FE1
:104940003233EF3F02460B4601F094FE38A3D3E921
:10495000002306460F4601F08DFE37A3D3E900235E
:1049600001F0D6FC32463B4601F084FE34A3D3E985
:10497000002301F0CBFC32463B4601F07BFE32A324
:10498000D3E9002301F0C4FC32463B4601F072FE3D
:104990002FA3D3E9002301F0B9FC32463B4601F0D6
:1049A00069FE2DA3D3E9002301F0B2FC32463B4659
:1049B00001F060FE2AA3D3E90023804689463046F1
:1049C000394601F057FE28A3D3E9002301F09EFCED
:1049D00032463B4601F04EFE25A3D3E9002301F009
:1049E00097FC32463B4601F045FE23A3D3E9002362
:1049F00001F08CFC32463B4601F03CFE0022204B8D
:104A000001F086FC02460B464046494601F05CFF39
:104A100022462B4601F02EFE22462B4601F078FC62
:104A20000446204604B0BDE8F08700BFAFF3008025
:104A300009F7FD0DE13D023F88B20175E0EF493F06
:104A40003B8F68B52882A43F5544880E55C1C93FA5
:104A50007D6FEB0312D6D43F555555555555C53F7F
:104A600082922EB1C5B8B33F59018D1B6C06E63F4B
:104A7000C88A599CE52A00404B2D8A1C273A0340DE
:104A80000000F03FFFFFFFFF2DE9F84F54421443B1
:104A900023F00049DFF880E149EAD4747445064602
:104AA0000D463ED84442044321F0004B4BEAD474F7
:104AB00074458A4635D803F1404404F58014144304
:104AC00044D09C1704F0020444EAD17450EA0B016C
:104AD0002FD052EA090133D0F14546D0F3452FD00B
:104AE000C9EB0B094FEA2959B9F13C0F34DC002B13
:104AF00057DB3046294601F0E7FE01F0E7FA01F006
:104B000047F9012C4AD0022C3BD084B132A3D3E91F
:104B1000002301F0FBFB32A3D3E9002301F0F6FBF5
:104B200005E01046194632462B4601F0F1FBBDE880
:104B3000F88F022C14D0032C0CD12D482D49F6E708
:104B4000BAF1000F2A480EDB2B49F0E7BDE8F84F19
:104B500001F01EB92946EAE723A1D1E90001D0E717
:104B600023482649E3E72649E1E7CB451FD0022C3D
:104B7000F6D0032CE1D0012C4FF0000020D00146EC
:104B8000D5E715A3D3E9002301F0C0FB02460B468D
:104B900013A1D1E9000101F0B9FBC8E701F100411F
:104BA000C5E719F13C0FA4DA00200021A9E7022C87
:104BB0000ED0032C09D0012C0D4804D01149B6E7C2
:104BC0004FF00041B3E71049B1E710481049AEE794
:104BD0000E481049ABE700BF075C143326A6A13C82
:104BE000182D4454FB210940182D4454FB21F93F52
:104BF000182D4454FB2109C0FB21F93FFB2109403A
:104C0000FB21F9BFFB21E93FFB21E9BFD221337F23
:104C10007CD902C07CD902400000F07FFFFFFFFF7B
:104C20002DE9F04F944E21F00047B74291B040F388
:104C300082809246914A97420C4626DC002984A342
:104C4000D3E9002340F3A88101F060FB8C4B9F4225
:104C500004460D4600F084807FA3D3E9002301F0D1
:104C600055FB02460B46CAE900232046294601F0BF
:104C70004DFB79A3D3E9002301F048FB0125CAE9E4
:104C80000201284611B0BDE8F08F7E4A974240F3FA
:104C900084807D4A974259DC3D15A5F21645A7EB65
:104CA000055319461F46064601F094FF01F07CFCAF
:104CB0008046894602460B4630463946CDE90A8988
:104CC00001F024FB0022714B01F0D4FC89468046A0
:104CD00001F080FF01F068FC02460B4606460F46D5
:104CE00040464946CDE90C6701F010FB0022674BB6
:104CF00001F0C0FC00220023CDE90E0101F022FFEB
:104D0000002800F07581002330463946002201F06A
:104D100019FF002814BF012302235D4A01920221DA
:104D200000912A4651460AA800F082FB002CC0F2EE
:104D30005181054606E0C2E9000100250024C2E9D0
:104D400002450025284611B0BDE8F08F02460B460B
:104D500001F0DCFA0025CAE90201CAE90001F1E725
:104D60003FA3D3E9002301F0D1FA3FA3D3E9002305
:104D70000D46044601F0CAFA02460B46CAE9002372
:104D80002946204601F0C2FA37A3D3E9002301F0F7
:104D9000BDFA0125CAE90201D4E701F097F934A36D
:104DA000D3E900238046894601F064FC0022394B98
:104DB00001F0AEFA01F00EFF054601F0F5FB24A369
:104DC000D3E90023CDE9040101F054FC02460B466F
:104DD0004046494601F09AFA1FA3D3E900238046D2
:104DE0008946DDE9040101F045FC1F2DCDE90201F2
:104DF00054DC294B6A1E53F822309F424ED00246A3
:104E00000B464046494601F081FA02460B46CAE984
:104E1000002383460E465A4633464046494601F033
:104E200075FADDE9022301F071FA002C02460B4607
:104E3000CAE9022386DA5B4606F1004601F1004129
:104E40008AE84800CAF80C10CAF808006D4279E7F1
:104E500000004054FB21F93F3163621A61B4D03D38
:104E60000000601A61B4D03D7370032E8A19A33B11
:104E700083C8C96D305FE43FFB21E93F7BD9024025
:104E8000FB21F93FFB213941FFFFEF7F000070411B
:104E9000F88300000000E03F78830000DDE9022392
:104EA0004046494601F032FA3A15C1F30A53D31A83
:104EB000102B83460E460992CAE90001ABDD5EA3C2
:104EC000D3E90023DDE9040101F0D4FB06460F46D7
:104ED00002460B464046494601F018FACDE9060164
:104EE00002460B464046494601F010FA32463B4620
:104EF00001F00CFA52A3D3E9002306460F46DDE980
:104F0000040101F0B7FB32463B4601F0FFF9DDE951
:104F10000689CDE9020102460B464046494601F0AA
:104F2000F5F90B46C1F30A570E460999CF1B024605
:104F3000312F8346CAE900237ADD43A3D3E9002356
:104F4000DDE9040101F096FB06460F4602460B46DA
:104F500040464946CDE9068901F0D8F902460B469C
:104F600080468946DDE9060101F0D0F932463B462C
:104F700001F0CCF936A3D3E9002306460F46DDE95C
:104F8000040101F077FB32463B4601F0BFF90246CF
:104F90000B46CDE9022334E701F0BAF9304B9F42CA
:104FA00004460D4626D02CA3D3E9002301F0B0F926
:104FB00002460B46CAE900232946204601F0A6F91D
:104FC00025A3D3E9002301F0A3F94FF0FF35CAE987
:104FD0000201B7E6DAF80420DAF80C3002F10042F8
:104FE00003F100434542CAF80420CAF80C30A9E690
:104FF000032392E610A3D3E9002301F089F910A35B
:10500000D3E900230D46044601F082F902460B461F
:10501000CAE900232946204601F078F908A3D3E91C
:10502000002301F075F94FF0FF35CAE9020189E666
:10503000DDE90689EFE600BF0000601A61B4D03DEB
:105040007370032E8A19A33B0000002E8A19A33B1C
:10505000C14920259A837B393163621A61B4D03DFE
:10506000FB21F93F2DE9F8435D4EB6460E407645EB
:105070000C46054600F0958000290B46024673DD7C
:105080000F157ED0A7F2FF37C3F31303F80743F4DD
:10509000801364D403EBD27100260B447F105200BE
:1050A000B64616204FF400110EEB01049C424FEA65
:1050B000D2754FEA420203DC1B1B04EB010E0E44C7
:1050C000013805EB43034FEA5101EDD1844620241A
:1050D0004FF0004109E020D003EBD275013C4FEACC
:1050E00051012B444FEA420220D09E4501EB0C05B2
:1050F000F1DA002D05EB010C09DBF0469542CEEB11
:10510000030300D9013B521B0844C646E4E7BCF147
:10511000000FF2DB0EF10108F0E7954217D8002DE1
:1051200005EB010C47DB98460023ECE7134310D155
:105130004008731003F17F5303F50013F20703EBEC
:10514000075948BF40F000404946BDE8F883734620
:10515000C2E7411C33D000F001031844E8E75B00CC
:1051600003EBD273520095E721F000460643ECD0E2
:1051700069BB0F46D30A153F5205002BFAD0DD025A
:1051800020D4002100E001465B00DC0201F10100B7
:10519000F9D5C0F1200422FA04F423437F1A824097
:1051A00070E702460B4601F065FA2A46234601F0F5
:1051B000AFF8BDE8F883BCF1000FABDAB3E7013616
:1051C0002046B6E720244FF0FF310020E3E70246F7
:1051D0000B4601F09BF802460B4601F075FBB4E765
:1051E0000000F07FFFFFFFFF2DE9F04F21F00046A8
:1051F000B6F1795F85B00C4692469B4605466BDA60
:1052000001F0E8FC002800F0E8802A462346284602
:10521000214601F02FFA74A3D3E900238046894682
:1052200001F028FA72A3D3E9002301F071F8424695
:105230004B4601F01FFA70A3D3E9002301F066F892
:1052400042464B4601F016FA6DA3D3E9002301F064
:105250005FF842464B4601F00DFA6BA3D3E90023F9
:1052600001F054F842464B4601F004FA68A3D3E932
:10527000002301F04DF842464B4601F0FBF9CDE921
:1052800000010022644B4046494601F0F3F9DDE994
:10529000002306460F464046494601F0EBF95246C8
:1052A000804689465B462846214601F0E3F90246DE
:1052B0000B464046494601F029F802460B46304667
:1052C000394601F023F802460B460020534901F00D
:1052D0001DF805B0BDE8F08F02460B4601F0CAF993
:1052E00041A3D3E900238046894601F0C3F940A3D6
:1052F000D3E9002301F00CF842464B4601F0BAF91D
:105300003DA3D3E9002301F001F842464B4601F0EA
:10531000B1F93BA3D3E9002300F0FAFF42464B4624
:1053200001F0A8F938A3D3E9002300F0EFFF4246CB
:105330004B4601F09FF936A3D3E9002300F0E8FFC4
:105340004B46424601F096F9354B9E42CDE90001AD
:1053500097DD344B9E424FF0000238DCA6F5001377
:1053600000202E4916461F4600F0D0FFCDE902016D
:105370000022294B4046494601F07CF932463B4623
:1053800000F0C4FFDDE9002306460F4640464946CB
:1053900001F070F95246804689465B462846214610
:1053A00001F068F902460B464046494600F0AEFF60
:1053B00002460B463046394600F0A8FF02460B462F
:1053C000DDE9020100F0A2FF05B0BDE8F08F164B49
:1053D000164FCDE902230026CAE71049002005B088
:1053E000BDE8F08FAFF30080D43888BEE9FAA8BDDD
:1053F000C4B1B4BD9EEE213EAD529C804F7E923E24
:105400009015CB19A001FA3E7751C1166CC1563FD9
:105410004C5555555555A53F0000E03F0000F03F65
:105420003233D33F0000E93F0000E73F0000D23FA6
:105430002DE9F04FADF51D7D784CA69E784D54F8C2
:10544000264009942646D41E85FB0475E417C4EB58
:10545000A50424EAE4741D460B93631CA3EB8303A9
:10546000013D02EBC30308932B460D940295651B87
:10547000F41804900A9116D42C44013422AEA79F4C
:1054800008E057F8250001F08FF80135A542E6E95C
:10549000020108D0002DF4DA013500200021A542D8
:1054A000E6E90201F6D1099B002B2FDB099BDDF811
:1054B000089074AA02EBC30B0DF5E47A029B002B53
:1054C000C0F295810B9BC3EB090824AB03EBC80822
:1054D000049BA3F1080524AB03EBC90400260027B5
:1054E000F5E9022374E8020101F0C4F802460B4614
:1054F0003046394600F00CFF444506460F46EFD1D2
:10550000EAE90267DA4509F10109D7D1099D05F1F8
:105510008043023B9B001A1D10A90A440B440F92C2
:105520000E939CAB03EBC503002D53E928672BDDDD
:105530009CAB03EBC504A83C0DF13C0A0DF5E47BE4
:105540000022384B3046394601F094F801F042FB16
:1055500001F02AF80022344B8046894601F08AF88F
:1055600002460B463046394600F0D0FE01F032FBD1
:1055700074E802234AF8040F4946404600F0C8FE8A
:105580005C4506460F46DBD1089C3046394622462C
:1055900000F032FE00224FF07F5306460F4601F026
:1055A00069F800F099FD0022204B01F063F80246F3
:1055B0000B463046394600F0A9FE0F46064601F07C
:1055C00009FB814600F0F0FF02460B4630463946A3
:1055D00000F09CFE002C06460F4640F3EF80691E4B
:1055E00010AAC4F1180352F8212042FA03F000FA7D
:1055F00003F3D31A10AAC4F1170842F821308144EA
:1056000043FA08F8B8F1000F3DDD002D09F101095A
:1056100040F3D482002214460FA911E00085000057
:10562000ABAAAA2A0000703E000070410000204092
:10563000C3F180700BB108600124013295420DDD89
:1056400051F8043F002CF3D0C3F1FF13013203F5EE
:105650007F4395420B604FF00104F1DC089B002B67
:105660000DDD012B00F0B280022B08D16A1E10ABB9
:1056700010A953F82230C3F3150341F82230B8F1D2
:10568000020F00F08280002200233046394601F0EC
:1056900059FA002800F05C82099B05F1FF3B5B454D
:1056A00010DC05F1804310AA013B0F9802EB830345
:1056B000002253F80419834242EA0102F9D1002A78
:1056C00040F0B280099B10AA013B52F82330002B16
:1056D00040F072820E9A012352F804190133002916
:1056E000FAD0E9186A1C8A420C9149DC0D990B9892
:1056F0005118DB0001F180410593A79B0544013956
:10570000E80003EB810A24ABD20003EB000B74AB7F
:1057100013440193A2F10803069007934FF0000988
:105720005AF8040F00F040FF029B002BEBE8020147
:1057300028DB069B03EB0904079B09EB030824AB5A
:105740001C449844049B0026A3F108050027F5E9B2
:10575000022374E8020100F08DFF02460B4630463A
:10576000394600F0D5FD444506460F46EFD1019B72
:10577000E3E802670193059B09F108099945CFD138
:105780000C9DCEE600260027F1E732463B4600207E
:10579000AF4900F0BBFD06460F46002C3FF473AF47
:1057A000089AAB49002000F027FD02460B46304620
:1057B000394600F0ABFD06460F4664E710D16B1E7C
:1057C00010AA52F823304FEAE3581BE76A1E10ABC9
:1057D00010A953F82230C3F3160341F822304EE7E4
:1057E00000229C4B01F0CCF958B980464BE70026CB
:1057F0000027EAE90267DA4509F101097FF45EAEA4
:1058000084E6002D09F10109C8BF4FF002083FF7F7
:1058100001AF32463B4600208D4900F077FD4FF046
:10582000020806460F462EE710AB089A53F82B30B5
:10583000CDF81490183ACDF8048008926BB90BF1AA
:105840008043013B10A901EB830353F804190BF1CA
:10585000FF3B183A0029F8D00892089A7C490020AA
:1058600000F0CAFCBBF1000F04460D46C0F2B68141
:105870004FEACB030DF5E87810AA02EB8B0608EB94
:1058800003090493043609F1080756F8040D00F0E3
:105890008BFE22462B4600F0EDFE002267E9020156
:1058A0006D4B2046294600F0E5FEB84504460D46FE
:1058B000EBD10DF5987A4B46CDF808A0DDF824A081
:1058C000CDF818B04FF000099B46BAF1000FC0F2B6
:1058D0002881DFF888815D465BA3D3E90023002699
:1058E0000027002403E0A14510DBF8E90223F5E8D6
:1058F000020100F0BFFE02460B463046394600F07A
:1059000007FD0134A24506460F46ECDA029B03EB85
:10591000C903ABF1080BC3E9006772AB5B4509F142
:105920000109D2D1A69BDDF818B0DDF808A0032B41
:1059300000F28380DFE813F0D300940094000400A9
:10594000BBF1000F40F35481049BCDF808B00AEB83
:105950000308D8E90067D34658E9029A32463B4625
:105960004846514600F0D4FC04460D4602460B461C
:105970004846514600F0CAFC32463B4600F0C8FC9F
:10598000C8E9000168E90245C34526462F46E3D130
:10599000DA46DDF808B0BBF1010F40F32981049B22
:1059A0005344D3E90067984699460DF59C7B59E925
:1059B00002343046CDE902341A463946234600F017
:1059C000A7FC04460D4602460B46DDE9020100F045
:1059D0009DFC32463B4600F09BFCC9E9000169E9A9
:1059E0000245CB4526462F46E1D1002308F10808A1
:1059F0001D4650AC1846294678E9022300F088FC81
:105A0000444503460D46F5D1019A002A00F0D8809E
:105A10000A9FDAF80440DAF80C20DAF80010DAF815
:105A200008003B6105F1004504F1004402F1004328
:105A30007D617C60FB603960B860059B03F0070006
:105A40000DF51D7DBDE8F08F00000040FB21F93F02
:105A50000000F03F0000E03F0000703E10850000B5
:105A6000049C00260834544433463046194674E9F1
:105A7000022300F04DFC544506460B46F5D1019A31
:105A800030461946002A4FD00A9803F100443246A6
:105A900044600660DAE9000100F038FCBBF1000F59
:105AA00002460B460DDD012410461946FAE9022391
:105AB00000F02EFC0134A34502460B46F4DA0199AE
:105AC00009B103F1004319460A9B1046C3E90201DC
:105AD000059B03F007000DF51D7DBDE8F08F049BCD
