:1000000000800020BD0100000D850000C5840000B7
:10001000C5840000C5840000C5840000C5840000BC
:10002000C5840000C5840000C58400000D85000063
:100030000D850000C58400006DA9000071A90000B5
:100040000D8500000D8500000D8500000D85000068
:100050000D8500000D8500000D8500000D85000058
:100060000D8500000D8500000D8500000D85000048
:100070000D8500000D8500000D8500000D85000038
:100080000D8500000D8500000D8500000D85000028
:100090000D8500000D8500000D8500000D85000018
:1000A0000D8500000D8500000D8500000D85000008
:1000B0000D8500000D8500000D8500000D850000F8
:1000C0000D8500000D8500000D8500000D850000E8
:1000D0000D8500000D8500000D8500000D850000D8
:1000E0000D8500000D8500000D8500000D850000C8
:1000F0000D8500002D9000000D8500008597000003
:100100000D8500000D8500000D8500000D850000A7
:100110000D8500000D8500000D8500000D85000097
:100120000D8500000D8500000D8500000D85000087
:100130000D8500000D8500000D8500000D85000077
:100140000D8500000D8500000D8500000D85000067
:100150000D8500000D8500000D8500000D85000057
:100160000D850000459A00000D8500000D850000FA
:100170000D8500000D8500000D8500000D85000037
:100180000D8500000D8500000D8500000D85000027
:100190000D8500000D8500000D8500000D85000017
:1001A0000D8500000D8500000D8500000D85000007
:1001B0000D8500000D8500000D850000564B4CF2AA
:1001C000205210B51A804DF628121A8000BF00BFC9
:1001D00008F0A0F9514B4FF010621A60504A9A6033
:1001E000504ADA60504A136813F4807304D14F49BF
:1001F0000B604FF4A85313604D4B1A78110703D5C9
:100200001A7842F008021A704A4B4B492A221A7097
:100210004A4A4B4B8B4204D252F8040F43F8040B6A
:10022000F8E7484B484900228B4202D243F8042B9E
:10023000FAE74649464A002352F8230041F82300D2
:1002400001336F2BF8D1434B434A802103F8011B44
:100250009342FBD1414B3D4A1A60414B8A221A70AE
:10026000A3F5805324225A70A0221A709A7992071B
:10027000FCD59A79D406FCD43A4A937903F00C035E
:10028000082B384BF9D103221A7140225A719A79FE
:100290009006FCD5334A9179324B4906FBD5324A58
:1002A000324911600221516020221A709A7902F0BD
:1002B0000C020C2AFAD12E4B2E4A1A602E4B2F4AD2
:1002C0001A6000225A60072243F8042C2C4AC3F813
:1002D0000C2D62B608F054FA144B1B68DA0705D5EA
:1002E000284808F0B1F9284B284A1A60284B1B7897
:1002F0005B0609D5244C254B22689A4204D121483B
:1003000008F0A2F9002323600EF0F6F808F008F9CF
:100310000AF094FEFEE700BF0E2005403080044046
:10032000823F04000100002B10D0034014D0034092
:1003300002D0074000E007401892FF1F80530100E1
:100340002087FF1F1892FF1FD8C4FF1F0082FF1FC6
:100350000000000000E400E05FE400E008ED00E0E1
:100360000050064000400640448004400000030165
:1003700004800440C010050014E000E0FF76010096
:10038000000020204A48F9611CE00340A5C3945AAC
:1003900000F00740FFFFFFFFFFFFFFFFFFFFFFFF32
:1003A000FFFFFFFFFFFFFFFFFFFFFFFFFFFFFFFF5D
:1003B000FFFFFFFFFFFFFFFFFFFFFFFFFFFFFFFF4D
:1003C000FFFFFFFFFFFFFFFFFFFFFFFFFFFFFFFF3D
:1003D000FFFFFFFFFFFFFFFFFFFFFFFFFFFFFFFF2D
:1003E000FFFFFFFFFFFFFFFFFFFFFFFFFFFFFFFF1D
:1003F000FFFFFFFFFFFFFFFFFFFFFFFFFFFFFFFF0D
:10040000FFFFFFFFFFFFFFFFFFFFFFFFDEF9FFFF23
:1004100010B5054C237833B9044B13B10448AFF33E
:1004200000800123237010BD1892FF1F0000000000
:100430007C530100084B10B51BB108490848AFF3C5
:1004400000800848036803B910BD074B002BFBD0A0
:10045000BDE81040184700BF000000001C92FF1FBD
:100460007C5301001892FF1F000000002DE9F04F9F
:100470000468DFB004EBC2039C4205900292039132
:10048000036002D9436801334360029BC4F3C5048F
:10049000002B00F0DA80059B2833049303E0029BD5
:1004A000002B00F0D280029D039E0498C4F140030B
:1004B000AB4228BF2B46ED1A0295354620441D4419
:1004C0001C441A463146039507F062FF402CE6D1E2
:1004D000049A0EABD5789478507812F8041BD97032
:1004E0001D705C7098701EA904339942F2D1059A70
:1004F000936806931346D26807921A4619461B69F9
:10050000089353690993CB690B930B6A92690C9317
:100510000DF1740A4B6A0A920D9352460DAB53F8D3
:10052000041F42F8041F9A45F9D10DF1AC080DF1F2
:10053000980C0DF1780E2DAF5646102558F8044F43
:100540005EF8043F56F8042F5CF8041F4FEAF440AD
:10055000114480EA74404FEAB34280EA942082EA70
:10056000F312014482EAD30301350B44402D47F8CE
:10057000043FE3D1364B0D9ADFF8DC90DDF824B070
:10058000DDF81CE0089F069EDDF830C0DDF82C8009
:1005900000920A9D01930BE0CDF800C0C446A84626
:1005A0001D4659F8043F0193BB467746B6460646BA
:1005B0004FEAF52205EA080182EAB5122CEA0504A1
:1005C00082EA75624C405AF8041F009B144487EA83
:1005D0000E0221444FEA763002EA060407EA0E02D0
:1005E00019445440019B1B4A80EAB60080EAB65089
:1005F000194420444A4501EB0B030844CCD1099926
:10060000069A39440F460A9919440B9B2B4402441D
:100610001D460C9B1446079A4344324418460D9BD2
:100620001646089A634472448E461946059B9C60A0
:10063000DE601A615F61C3F818E0DD61186259621B
:10064000029B0024002B7FF42EAF5FB0BDE8F08F3B
:10065000982F8A42D4330100D83201002DE9F041AD
:100660003D4DAA78EC78FE2A5CD0012C0BD92B19D1
:10067000DB7A13B107E0DB7A2BB9013CE4B2012C41
:1006800005EB0403F7D1AB68344E334F3270C3F33C
:1006900017231A121814A97995F8048095F805E023
:1006A0003272F371EA792B7A70723171727107F1DB
:1006B0000C01224606F10A00747086F803E0B3715B
:1006C00086F8028007F064FE04F10A0118F0010FB9
:1006D00006EB010210D10921288810700012507019
:1006E00000231944033121441D4B1C4889B2BDE845
:1006F000F041198008F042BF3B887354D7F816E1E7
:10070000D7F81A61D7F81E5197F82201C2F802E013
:100710001B125370C2F806600D23C2F80A50907382
:100720000921DEE7AB680D4EA97995F807E02F7A2D
:100730003270C3F317232246B170B01D05F10C01CE
:100740007371747086F803E0377107F021FEA21D03
:1007500032440521C0E700BFA495FF1F3892FF1F58
:100760006297FF1F2DE9F04FADF50F7D08F088FF70
:10077000002838D008F094FFAE4BC1B20391DB786B
:10078000AC4900220A700F2B00F2BF81DFE813F0A2
:10079000B201B2019401880171015A013A012301A9
:1007A0000301E200BE009E0056002F002F00100043
:1007B000A04BA14A5B7B049211465E1E9D4A9DF8A8
:1007C0000C00CB1AF6B2567383F82301002E00F00A
:1007D0003782CA789949CA70964A0023937008F004
:1007E0004FFF0028C6D10DF50F7DBDE8F08F0E2B11
:1007F000914B049305D01B88039AB2EB132F00F0A2
:1008000087868C4A02231370049A9DF80C10137982
:1008100082F8151113F0010F8749864B00F0D7813C
:1008200084481B780F22C270022B4FF00D024273D6
:1008300000F0A5860023CA780370CBE77E4B0493B3
:100840009C687F4DFD20C4F3172403469E2200219F
:100850000AE0581E43185A1C5208884202EB420212
:1008600040F2908155F82220013394424FEA53031D
:10087000EFD31946EED8944200F07D8100210B465B
:10088000049C2088434083EA0313DBB2DA0082EA47
:10089000032282EA102282EA1313DAB22380039B36
:1008A0009A4200F01F86634B0E22DA70049B9DF87B
:1008B0000C2083F81421604C29B15E4B8A791B7996
:1008C0009342C0F01486049BDA7883E7594B039D6A
:1008D0001979594B574C1E460B4401311D73308812
:1008E0002B46434083EA0313DBB2DA0082EA032299
:1008F00082EA1020F278C9B280EA13139142217182
:1009000033807FF467AF0C23E37063E74A4B039AAD
:100910001C88624082EA0212D2B2D1001D4681EAEE
:1009200002219B68000400F47F0081EA142140EA60
:10093000132381EA1211EA786B72C3F307201B0CB0
:10094000A872EB722980002A00F0228139490B231A
:10095000CB703FE7384B039A1C88624082EA021250
:10096000D2B21D46D1009B68000200F47F4081EAAC
:10097000022140EA132381EA142181EA1212190CA0
:10098000E9722C496B72C3F307200A232A80A872EC
:10099000EA78CB701EE72849264B08881C7B039B0E
:1009A0004B72434083EA0313DBB2DA0082EA03228C
:1009B00082EA102282EA13130020E2070B80887279
:1009C000C8721C4B40F1FF80CA78002A00F02E81CB
:1009D0000B21D970FEE6184B19881C461846039B5C
:1009E00003724B4083EA0313DBB2DA0082EA03228C
:1009F00082EA112282EA131323800E4BE278082147
:100A0000D970E7E60C4B19881C461846039BC37146
:100A10004B4083EA0313DBB2DA0082EA032282EA64
:100A2000112282EA13132380024BE2780721D97046
:100A3000D0E600BF089BFF1FA0B1FF1FA495FF1FBA
:100A4000D83301009B4B19881C461846039B8371C1
:100A50004B4083EA0313DBB2DA0082EA032282EA24
:100A6000112282EA13132380934BE2780621D97076
:100A7000B0E6904B19881C461846039B43714B40C7
:100A800083EA0313DBB2DA0082EA032282EA11224C
:100A900082EA13132380884BE2780521D97099E606
:100AA000844C9DF80C30237110F0FE0F74D08249F5
:100AB000E2780123CB708DE67E497F4B039D088849
:100AC0001C7BCD702B46434083EA0313DBB2DA0074
:100AD00082EA032282EA102282EA13130B80764B09
:100AE0000022E0071A716AD505200A714A71D87090
:100AF0002A466FE6039BFD2B00F0DF84039BFE2B51
:100B000000F0FF846B4BDA7864E66A4B04931A4674
:100B10006A4BD278DA70684B00249C70A31E012BBC
:100B200017D9002C3FF422AE654B01221A701DE646
:100B3000624A9DF81410D1705F490023022C8B701B
:100B4000ECD1049890F8151190F8143143EA012380
:100B500013800398584901230022FD288B700A70E6
:100B600001D0CB7002E6049D02204FF6FF73EA70BD
:100B7000C8702B80FAE5534B01EB410103EB810177
:100B80000B797DE64F4B01EB410253F8222072E6D0
:100B900049490C23CB701DE62088039BE278434033
:100BA00083EA0313DBB2D90081EA032181EA102131
:100BB00081EA13132380404B0421D9700AE60321F4
:100BC000039AD97006E60920CA78D87002E61B6934
:100BD0003BB11B6B002B2CD089683748090A98471A
:100BE00038B3354B1C78344D324934480123EB700F
:100BF00040F2231207F0CCFB049BDB780593012C19
:100C000096D12D4B049A2C491B8992794A7103B9CC
:100C10004B8129482949013303819DF81430CB7059
:100C20000022274B827001221A709FE50C21D97097
:100C3000D0E5214B1C78022CD5D003241C70D2E7C0
:100C40001369526910931D461192002B00F0908495
:100C500055F8100F1C4C37941C4C6968AA68EB6857
:100C60001B4F38941B4C3D943A97DFF874E01A4FB1
:100C7000DFF870C03C973EACCDF8ECC0CDF8E4E0B6
:100C80000FC4049B2869DA786969EB6905921746F5
:100C9000AA6935963D460A350FC4049B0295ED00BE
:100CA00005F580750D4E3696023334950693202453
:100CB0001EE000BFA0B1FF1F089BFF1FA495FF1FF0
:100CC00054A8FF1FD833010085AE67BB72F36E3C9A
:100CD0007F520E5119CDE05BABD9831F67E6096ADD
:100CE0003AF54FA58C68059B029B002B00F0CD8048
:100CF000029D069EC4F14003AB4228BF2B46ED1A6D
:100D000002953EA8354620441D441C441A463146EF
:100D1000069507F03DFB402CE6D134AA22AB92F8B1
:100D20002B0092F82A101870597092F8290092F846
:100D30002810D970987032A90433994202F1040244
:100D4000EDD1369B0793379B0893389B0993399BCA
:100D50000A933A9B0B933B9B0C933C9B0D930DF595
:100D60009A7A3D9B0E93524621AB53F8041F42F8EA
:100D7000041F31A98B42F8D10DF5B6780DF5AC7C86
:100D80000DF59C7E5DAF5646302558F8044F5EF851
:100D9000043F56F8042F5CF8041F4FEAF440114456
:100DA00080EA74404FEAB34280EA942082EAF31268
:100DB000014482EAD3030B44013D47F8043FE4D1E8
:100DC0000E9ADFF8B892A94BDDF828B0DDF820E0E4
:100DD000099F079EDDF834C0DDF8308001920B9D3D
:100DE0000AE059F8043FCDF804C0BB46C446774634
:100DF000A846B646254606464FEAF52205EA08010A
:100E000082EAB5122CEA050482EA75624C405AF86F
:100E1000041F144421441944019B87EA0E024FEA3F
:100E20007630194402EA060480EAB60007EA0E02A8
:100E30008F4B544080EAB65020444B4501EB0B04E5
:100E40000844CED10A99079A39440F460B9939972D
:100E500021440C460C993A940244294413460D4609
:100E6000089A0D9936933244414416460846099A29
:100E70000E99029B37967244614438923B953C90A0
:100E80003D910024002B7FF433AF349C04F1100318
:100E90009C42349300F27C83764B07930223C4F385
:100EA000C504069303E0069B002B00F0D080069D4E
:100EB000079EC4F14003AB4228BF2B46ED1A0695AE
:100EC0003EA8354620441D441C441A463146079529
:100ED00007F05EFA402CE6D134AA22AB92F82B0040
:100EE00092F82A101870597092F8290092F8281078
:100EF000D970987032A90433994202F10402EDD1FD
:100F0000369B0893379B0993389B0A93399B0B9325
:100F10003A9B0C933B9B0D933C9B0E930DF59A7A59
:100F20003D9B0F93524621AB53F8041F42F8041F18
:100F300031A98B42F8D10DF5B6780DF5AC7C0DF5E5
:100F40009C7E5DAF5646302558F8044F5EF8043F4E
:100F500056F8042F5CF8041F4FEAF440114480EA6D
:100F600074404FEAB34280EA942082EAF3120144CB
:100F700082EAD3030B44013D47F8043FE4D13B4BE5
:100F80000F9ADFF8F890DDF82CB0DDF824E00A9F26
:100F9000089EDDF838C0DDF8348001920C9D029384
:100FA0000BE0CDF804C0C446A8461D4659F8043FDE
:100FB0000293BB467746B64606464FEAF52205EA57
:100FC000080182EAB5122CEA050482EA75624C40F7
:100FD0005AF8041F019B144487EA0E0221444FEA89
:100FE000763002EA060407EA0E0219445440029BD6
:100FF0001F4A80EAB60080EAB650194420444A45A8
:1010000001EB0B030844CCD10B99089A39440F46E5
:101010000C99399719440B460D993A930244294487
:1010200014460D46099A0E99069B36943244414463
:10103000164608460A9A0F993796724461443892C8
:101040003B953C903D910024002B7FF430AF349CC5
:1010500004F138039C42349300F29682064B0793C6
:101060000723C4F3C50406930EE000BF982F8A42FD
:10107000D4330100B4B2FF1FB6B2FF1FD832010053
:10108000069B002B00F0D080069D079EC4F1400314
:10109000AB4228BF2B46ED1A06953EA835462044A4
:1010A0001D441C441A463146079507F071F9402C3F
:1010B000E6D134AA22AB92F82B0092F82A101870CD
:1010C000597092F8290092F82810D970987032A9B6
:1010D0000433994202F10402EDD1369B0893379B09
:1010E0000993389B0A93399B0B933A9B0C933B9B38
:1010F0000D933C9B0E930DF59A7A3D9B0F935246B0
:1011000021AB53F8041F42F8041F31A98B42F8D1D8
:101110000DF5B6780DF5AC7C0DF59C7E5DAF5646B1
:10112000302558F8044F5EF8043F56F8042F5CF859
:10113000041F4FEAF440114480EA74404FEAB3427E
:1011400080EA942082EAF312014482EAD3030B443A
:10115000013D47F8043FE4D18B4B0F9ADFF8309202
:10116000DDF82CB0DDF824E00A9F089EDDF838C0D9
:10117000DDF8348001920C9D02930BE0CDF804C0A1
:10118000C446A8461D4659F8043F0293BB4677461D
:10119000B64606464FEAF52205EA080182EAB5128C
:1011A0002CEA050482EA75624C405AF8041F019B40
:1011B000144487EA0E0221444FEA763002EA06041C
:1011C00007EA0E0219445440029B704A80EAB600B6
:1011D00080EAB650194420444A4501EB0B03084409
:1011E000CCD10B99089A39440F460C993997194478
:1011F0000B460D993A930244294414460D46099A28
:101200000E99069B369432444144164608460A9A83
:101210000F9937967244614438923B953C903D91CA
:101220000024002B7FF430AF349D0699C5F3C5042C
:10123000C4F177068023472206F03F060DF18900AE
:101240008DF888300DF0F4FC06F109021046069284
:1012500022AA1644359B33712A0AF2712A0E727142
:101260001A0C290CB27005EBC0029542B1714FEA1D
:101270001321F1704FEA136184BF0133359322AB20
:10128000357271703492079303E0069B002B00F0D7
:10129000D780069D079EC4F14003AB4228BF2B4672
:1012A000ED1A06953EA8354620441D441C441A46B6
:1012B0003146079507F06CF8402CE6D134AA12AB02
:1012C00092F82B0092F82A101870597092F82900A1
:1012D00092F82810D970987022A90433994202F12B
:1012E0000402EDD1369B0893379B0993389B0A93F0
:1012F000399B0B933A9B0C933B9B0D933C9B0E931A
:101300000DF59A7A3D9B0F93524611AB53F8041F8B
:1013100042F8041F21A98B42F8D10DF5B6780DF5DE
:10132000AC7C0DF59C7E5DAF5646302558F8044FD9
:101330005EF8043F56F8042F5CF8041F4FEAF440AF
:10134000114480EA74404FEAB34280EA942082EA72
:10135000F312014482EAD3030B44013D47F8043FF2
:10136000E4D1094B0F9ADFF82890DDF82CB0DDF8B6
:1013700024E00A9F089EDDF838C0DDF83480019231
:101380000C9D029312E000BF982F8A42D4330100D3
:10139000D8320100CDF804C0C446A8461D4659F80D
:1013A000043F0293BB467746B64606464FEAF5220F
:1013B00005EA080182EAB5122CEA050482EA7562A0
:1013C0004C405AF8041F019B144487EA0E02214442
:1013D0004FEA763002EA060407EA0E021944544046
:1013E000029B8E4A80EAB60080EAB6501944204437
:1013F000914501EB0B030844CCD10B99089A394471
:101400000F460C99399719440B460D993A930244AB
:10141000294414460D46099A0E99069B3694324487
:101420004144164608460A9A0F9937967244614419
:1014300038923B953C903D910024002B7FF429AFDE
:101440009DF8DB309DF8DA20754C9DF8D8008DF8BA
:1014500048308DF849209DF8D9309DF8DF208DF86F
:101460004A308DF84B009DF8DE308DF84C2004F2A8
:101470001D1112A806228DF84D300DF043FB0028F7
:1014800000F08A80109B1B6B4BB1049A65489168F1
:10149000634C090A984700286AD1E3780593614BA9
:1014A00003241C705F4D5E495F48012340F2231204
:1014B000EB7006F06DFFFFF7A2BB5A4B584A1B7B3F
:1014C000104623F0010357499DF80C400B734FF66B
:1014D000FF7354490380002202238470C270CB70D2
:1014E000FFF778B94F4A0D23D370FFF7DFB904F146
:1014F0000C00D21A184400210DF09AFBE278FFF795
:1015000069B9484B464A1B7B104643F00103DAE7B2
:10151000444A01231370FFF777B90F28B2D8DDE9E9
:101520002267109B414AD3E9024592194FF000030C
:101530007B41AB4208BFA242A4D3119A049D00EBA9
:10154000C0041444EB79E3702B7A2371013084F8E2
:1015500002E0053410800B6823608B881099A3800B
:10156000D1E90223BB4208BFB24201D2C1E90267FE
:10157000049BDB7805932B4B01241C7092E72A4ACD
:10158000CB78D370FFF7DDBA359B0133359365E532
:10159000359B013335937FE404F2171100230022B9
:1015A000CDE92223119B08688D8894F816E12290DA
:1015B000ADF88C50002B3FF465AF18880028AED0F2
:1015C000E579267A069C04E094B2844203F109038B
:1015D000A3D0DF78AF4204F10102F5D11F79B74201
:1015E000F2D19F787745EFD1844296D0119B04EBDE
:1015F000C40423441C468EAD0022002365E9402329
:1016000054F8050F2860A388AB80D5E90023DDE9F5
:101610002267BB4208BFB2429DD333E7D4330100F7
:10162000A0B1FF1F089BFF1FA495FF1F808D5B00CB
:1016300030B4324802787E2A2AD0A2F10D03DBB200
:10164000162B07D9082A01D11A2910D901700020B8
:1016500030BC70472A4A22FA03F303F0010383F0F7
:101660000102002BF2D0FF2937D0F129EED1254A13
:10167000137801335BB20A2B1370E7DD224C234948
:1016800000230370237013700B70022030BC70476E
:10169000082912D0192910D01B29D7D11A4A13783A
:1016A00001335BB20A2B26DD184C16490023037068
:1016B000237013700B700320CAE7144A124D13787D
:1016C00001335BB200240A2B13702C70BEDD0D4B6E
:1016D000047014701C700120BAE70A4C237801339F
:1016E0005BB20A2B2370B1DD0749084B22700A70E8
:1016F0001A700220ACE71370A8E700BFD493FF1F55
:10170000010840000D94FF1F6BB6FF1F3594FF1FAB
:1017100090F89D30012B70B504460D4608D0D0F8E6
:1017200098100B78012043F020030B7084F89D0083
:10173000CAB1237803F0FD03012B20D0204BDB78C6
:10174000DA0702D5284607F063FBB4F88E30E918B3
:1017500001EB112101F0FF01A4F88E100020BDE87B
:10176000704006F0BFBF164BDB78DB07F6D5284686
:1017700007F04EFB0020BDE8704006F0B3BF7E2DA1
:101780000FD07D2DDAD10E4EF378D807DDD528465F
:1017900007F03EFBF378D907D7D55D2007F038FB7B
:1017A000D3E7074EF378DB07CFD57D2007F030FB7A
:1017B000F378DE07C9D55E2007F02AFBC5E700BF36
:1017C0005494FF1F2DE9F0433B4B83B01B680193FA
:1017D0000021019FA0F8101B8E4688468C460E46BD
:1017E000034608E0B242A4BFA8461646013180294C
:1017F00003F114031FD093F809218DB2002AF5D00C
:10180000B0F8104BD3F804210134A0F8104B93F832
:101810000291B3F80041BA1AC9EB0202B4F5A04F25
:1018200012B2DFD16245E1DB01318029AE46944638
:1018300003F11403DFD1E6B9BCF1000F31D00EEB98
:101840008E0200EB8202734692F80021143AD2B263
:10185000392A2ED803EB830300EB830303F5867349
:1018600093E80300154B18607046998003B0BDE8FB
:10187000F08308EB880200EB8202434692F80021D5
:10188000143AD2B2392A12D903EB830300EB830056
:10189000C646D0F80C210A4B70461A6003B0BDE86A
:1018A000F0834FF6FF7E704603B0BDE8F0839E469E
:1018B000D0E7F046E8E700BF54C2FF1F8C93FF1F3C
:1018C00080A9FF1F2DE9F84F90F89D30012B0446A9
:1018D0008846914608D0D0F898201378012143F02B
:1018E0002003137080F89D104FEA880505EB08036C
:1018F00004EB8303874FB3F80021874EDFF824B24F
:101900003280A2F11403DBB2392B4FF201118CBFEC
:10191000002301238A423B7066D09BF80130012BE3
:1019200000F08780023B012B40F2AC803A78DFF870
:10193000E4A1002A3FD0012A50D0784E317801220C
:101940002046FFF7E5FE012271782046FFF7E0FE12
:101950000122B1782046FFF7DBFE0122F178204614
:10196000FFF7D6FE97F80090B9F1010F00F09C80C8
:1019700094F88E10C9430122C9B22046FFF7C8FE71
:1019800023780022012BA4F88E2000F098803B7869
:1019900073B1012B07D0454404EB8504002384F880
:1019A0000931BDE8F88F5E4B00221A609A80F2E799
:1019B0005A4A1360EFE7012249462046FFF7A8FE86
:1019C000012231782046FFF7A3FE012271782046DC
:1019D000FFF79EFE9AF80020012AAED14946204624
:1019E000FFF796FE4E4EA9E79BF80130032B49D036
:1019F00094F800A00AF0FD03012B2CD0BAF1020FDD
:101A000062D0BAF1030F6CD09BF80130012B89D161
:101A1000BAF1010F6BD0BAF1020F87D12046002234
:101A20000821FFF775FE01221B212046FFF770FEFB
:101A30007CE794F800A0BAF1030FE9D100227E21DF
:101A40002046FFF765FE00221B212046FFF760FEBF
:101A500094F800A0DCE700227E212046FFF758FE24
:101A600094F800A0BAF1010FC8D1524608212046CF
:101A7000FFF74EFE524681212046FFF749FE94F8BB
:101A800000A0BBE794F800A0BAF1010FC3D1524601
:101A900008212046FFF73CFE524681212046FFF7F1
:101AA00037FE94F800A0B6E74A4631792046FFF7A2
:101AB0002FFE4A4671792046FFF72AFE58E77E211D
:101AC0002046FFF725FE62E7002208212046FFF7A7
:101AD0001FFE01221B212046FFF71AFE94F800A0EA
:101AE0008FE700221B212046FFF712FE15E7002298
:101AF0007E212046FFF70CFE524608212046FFF7C4
:101B000007FE524651462046FFF702FE94F800A019
:101B100081E700BFB893FF1F68B6FF1F80A9FF1FB2
:101B20008C93FF1F5494FF1F38B50D460446FFF7F2
:101B300049FE4FF6FF73984206D02A4601462046DA
:101B4000BDE83840FFF7BEBE38BD00BFF0B500238A
:101B500083B0A0F8FC30044604E07F2D2B46A0F8AB
:101B6000FC5026D094F809615D1C1434002EF4D189
:101B7000224CB0F8105B2468019403EB8303A1F1BD
:101B8000140400EB8303E4B2019F01350126392CD4
:101B9000A0F8105BC3F80471A3F8001183F80221C8
:101BA00083F8096120D9164A1268C3F80C2103B0E2
:101BB000F0BDD0F8003B044643B1124AA2FB031229
:101BC000D20B49F6404101FB123242B944210E4882
:101BD00008F0A6FD0D4809F029F8D4F8003B0133C0
:101BE000C4F8003B03B0F0BD094A92E80300C3F813
:101BF0000C01A3F8101103B0F0BD00BF54C2FF1FC9
:101C000080A9FF1F5917B7D128400100B487FF1FD3
:101C10008C93FF1F2C4B1B78F0B413B92B4B1B7804
:101C20001BB32B4B2B4A1B682B4D2C4C002B2DDB55
:101C3000A2FB03235A0902EB4202002356002E6046
:101C400023701F4600221346012505FA03F40133D1
:101C50001E2B42EA0402F8D13240214C42EA07032B
:101C600023600022F0BCFFF771BF1E4A1268002AF1
:101C700019DB184E184D194CA6FB0262520902EBF3
:101C8000420256002E6023701F46DBE75B42A2FB38
:101C90000332520902EB4202560001232E602370E8
:101CA0004FF08047CEE70B4D0B4C0C4B5242A5FB3F
:101CB0000252520902EB42025600012226601A70BB
:101CC0004FF08047BEE700BF4CA8FF1FB993FF1F2E
:101CD000F493FF1F1F85EB513492FF1F8C95FF1F5C
:101CE00080A9FF1F3094FF1F1D4B1B78F0B413B960
:101CF0001C4B1B7823B31C4B1B681C4A1C4D1D4CF2
:101D0000002B1FDBA2FB03235A0902EB4202560001
:101D100002232E6023704FF0004700221346012556
:101D200005FA03F401331E2B42EA0402F8D13240D3
:101D3000114C42EA070323600122F0BCFFF706BF03
:101D40000E4BD9E75B42A2FB0332520902EB42027F
:101D5000560003232E6023704FF04047DDE700BF9D
:101D60004CA8FF1FB993FF1F7093FF1F1F85EB51F6
:101D7000DCC1FF1F8C95FF1F80A9FF1F70B6FF1FDE
:101D80002DE9F04F83B04D4A8DE80300002303E0B6
:101D90000133322B00F08F8012F8011F0029F7D198
:101DA000474A9BB21380474C47484849E2185FFABC
:101DB00083F880F800800023204653709370D3701E
:101DC00013710DF051FA00286AD1414B01241C70A7
:101DD000404B414A1B7813704048414B394983F8C6
:101DE000008008F10402DFF808B1DFF80C918246A8
:101DF00006F0CEFA3B4B00271C708BF800703A4679
:101E00000AEB020302F1030C1AF802705C781AF86C
:101E10000C6089F801404FEA076E24040EF0FE4E74
:101E200089F8036006F07F069D7889F8025004F473
:101E3000FE044EEA0606930826432B4C89F80070F0
:101E400001332D021A4605F4FE452370274B354316
:101E5000C4459DE803001D600FDB1F4B1B785E052A
:101E60009C0306F4000604F40044DB01344303F051
:101E7000800323431D431D4B1D60FFF767FE9BF846
:101E80000020174B043293F80080194BD2B29045D2
:101E90008BF80020B4D200221A7003B0BDE8F08F96
:101EA000204614490DF0E0F9094B10B904461870AA
:101EB0008EE71C788CE7024B1B8874E7C79AFF1FDC
:101EC0006297FF1FC89AFF1FC097FF1F7040010055
:101ED0000C94FF1F6CB6FF1F709BFF1F9CC1FF1F60
:101EE0008A95FF1F5297FF1FB093FF1F80A9FF1F06
:101EF000CB93FF1F80400100D093FF1F013AF8B53C
:101F000004460D46052A23D8DFE802F04222225E6D
:101F100023033D493D4A3E4B0F78176006210022BE
:101F200019700120134600FA03F10133182B42EA1D
:101F300001024FF00106F6D13A40364F42F0C0633D
:101F40002946204606223B60FFF700FE324B1E70FA
:101F5000F8BD324A2E4B106805221A700CF0A0FA18
:101F60002F4B002218600126134606FA03F10133B5
:101F7000182B42EA0102F8D10240264E42F0A0633B
:101F80002946204633600522BDE8F840FFF7DEBD54
:101F90002449254A1E4B0E78166001200022187035
:101FA000134600FA03F10133182B42EA0102F8D17B
:101FB0003240184E42F08073294620463360012299
:101FC000BDE8F840FFF7C2BD184A114B1068042263
:101FD0001A700CF065FA164B0022186001261346A1
:101FE00006FA03F10133182B42EA0102F8D102404C
:101FF000084E42F080632946204633600422BDE843
:10200000F840FFF7A3BD00BFBE93FF1F8897FF1FD7
:1020100086A9FF1F80A9FF1FD8C1FF1F7C97FF1F44
:102020007C93FF1F6097FF1F9493FF1F9495FF1FE2
:1020300040B6FF1F1F4B2DE9F04105460E461868BC
:102040001D490CF02BF809F00DFA0CF003FA1B4AAD
:102050001B4B19490FFA80F8A3F8008010680CF0A8
:102060001DF809F0FFF90CF0F5F9164B00B200224B
:1020700018800127134607FA03F40133102B42EAB4
:102080000402F8D108EA020200040021012707FA3D
:1020900003F40133202B41EA0401F8D100EA0103E3
:1020A000094C13433146284623600122BDE8F04124
:1020B000FFF74CBD4C94FF1FCDCCCC3D7097FF1F5C
:1020C0009895FF1F9A95FF1F80A9FF1F2DE9F04FDC
:1020D00090F8C060DFF834B20023042E83B0CBF850
:1020E000003000F3C680DFF82892074639F8160062
:1020F000A0F2DC508A460BF07DFF83490BF0CEFF47
:10210000B3080021044601930CF07AF9002800F08E
:10211000B5804FF07C5120460BF0B8FE0CF09AF9D8
:1021200045B26FF03E03721C9D42B8BF1D4639F8A0
:102130001200DFF8E0813F2DA8BF3F25A0F2DC5060
:1021400088F801500BF056FF6F490BF0A7FF0021F4
:1021500004460CF055F9002800F0CE804FF07C5179
:1021600020460BF093FE0CF075F944B26FF03E037D
:10217000B21C9C42B8BF1C4639F812003F2CA8BFC5
:102180003F24A0F2DC5088F802400BF033FF5E4998
:102190000BF084FF002101900CF032F9019B002824
:1021A00000F0A28018464FF07C510BF06FFE0CF04F
:1021B00051F942B26FF03E03F11C9A42B8BF1A4681
:1021C00039F811003F2A9146A0F2DC50A8BF4FF029
:1021D0003F0988F803900BF00DFF4B490BF05EFFB1
:1021E000002101900CF00CF9019B002874D01846D6
:1021F0004FF07C510BF04AFE0CF02CF940B26FF01E
:102200003E039842B8BF18463F28A8BF3F20B308F6
:10221000002D03F00F0388F8040055DB2D0105F4B1
:102220007C751D43002C47DBE40204F4FC342C4392
:10223000B9F1000F35DB4FEA894909F47C0949EA15
:102240000409002822DB400600F0FC4040EA0900B7
:10225000CBF8000006F00302013251463846FFF782
:1022600075FC97F8C030043387F8C03003B0BDE880
:10227000F08F80F8C03003B0BDE8F08F4FF07C5194
:1022800020460BF001FE0CF0E5F849E743425B06FF
:1022900003F0FC4343F0004343EA0903CBF800306A
:1022A000D8E7C9F100094FEA894909F47C0949F0E6
:1022B000807949EA0409C4E76442E40204F4FC3486
:1022C00044F400342C43B3E76D422D0105F47C72D5
:1022D00043F480651543A5E718464FF07C510BF099
:1022E000D3FD0CF0B7F889E718464FF07C510BF09E
:1022F000CBFD0CF0AFF85CE74FF07C5120460BF0C3
:10230000C3FD0CF0A7F830E72506013E80A9FF1FAA
:10231000FCC1FF1F50B6FF1F0A4B30B400224624F9
:102320001C600125134605FA03F40133202B42EA11
:102330000402F8D1044C02F046032360012230BCB1
:10234000FFF704BC38C2FF1F80A9FF1F70B5094CFE
:102350000E460025204631460CF086FFE37D1C34F6
:1023600003B128B10135102DF4D14FF6FF7070BDC7
:10237000A8B270BD0199FF1F10B5437982799A42C6
:1023800084B004460FD083711BB31121204808F09C
:10239000C7F9204808F04AFC68461F4908F0F4FCD9
:1023A000684608F0B1FCE379227A9A420FD0237292
:1023B000F3B90E21194808F0B3F9164808F036FCB5
:1023C0006846164908F0E0FC684608F09DFC04B039
:1023D00010BD1421124808F0A3F90E4808F026FC9D
:1023E0006846104908F0D0FC684608F08DFCDAE732
:1023F0000B210D4808F094F9064808F017FC0A492B
:10240000684608F0C1FC684608F07EFC04B010BDC8
:10241000AC400100B487FF1FC0400100044101002F
:10242000D0400100E8400100F840010010B5154B14
:1024300004691A6884B041F288310192019A121B32
:102440008A4203D9002202714271C2711A68029253
:10245000029AC46841F28831121B8A4202D90022D2
:102460004271C2711B680393039B416941F2883238
:102470005B1A934284BF0023C371FFF77DFF04B052
:1024800010BD00BF54C2FF1F30B590F89D3083B01F
:1024900004464BB3D0F89820137883F020031370D0
:1024A000B0F89030002280F89D204BB92046FFF70D
:1024B000BDFF06F039FD80B2A4F890000028F5D0E9
:1024C0000C4B1B680193019B23610123237106F0D0
:1024D0003BFDB4F89030013BA4F89030054608F07D
:1024E000CDFDE8B203B030BDB0F89030002BDDD0A8
:1024F000E6E700BF54C2FF1F90F89D3010B50446B8
:1025000043B1D0F898201378002183F02003137092
:1025100080F89D1006F008FD80B20928A4F890000C
:1025200001D8002010BD2046FFF7AEFF014620462F
:10253000BDE81040FFF77CB870B590F89D3082B0D0
:1025400004460D4643B1D0F898201378002183F05B
:102550002003137080F89D1000260EE07E2812BF25
:10256000B4F8C830A4F8C8600023E854B4F8C83000
:1025700084F8C1000133A4F8C83006F0D5FCF8B1E6
:102580002046FFF781FFB4F8C8302F2B84BF03F13A
:10259000FF33A4F8C83094F8C1307E2BDED11B285D
:1025A000DCD1084B1B680193019BE360012363713D
:1025B00006F076F8044B102118602046FFF7B4FAB5
:1025C00002B070BD54C2FF1F90B1FF1F38B590F824
:1025D0009D30044643B1D0F898201378002183F051
:1025E0002003137080F89D102046FFF74DFF7D28D3
:1025F000054604D0002006F075F8284638BD204670
:10260000FFF742FF80F02000C5B2002006F06AF814
:10261000284638BD2DE9F041561C022E904605464D
:102620000F464FF0030408DD2846FFF7CFFF631C79
:1026300068703855DCB2B442F6DD2846FFF7C6FFB5
:10264000687038552B78012B29D0022B05D02B6AC6
:1026500001332B620020BDE8F08118F0FF0807F17C
:10266000020236D008F102031F441146002311F87C
:10267000010B034403EB2323B942DBB2F7D1C3F1CF
:10268000FF03DBB212F80800C01AB0FA80F040096C
:102690000028DCD0EB690133EB61BDE8F08116F076
:1026A000FF0607F1010016D0731C1F4402460023E9
:1026B00012F8011B0B4403EB2323BA42DBB2F7D120
:1026C000C3F1FF03DBB2805DC01AB0FA80F04009AD
:1026D000DEE7FF23D6E7FF23F5E700BF2DE9F0474C
:1026E00090F89D3086B004460E46154643B1D0F8AA
:1026F00098201378002183F02003137080F89D1038
:1027000006F012FC80B20928A4F890000ED9DFF878
:102710004C92616AD9F800300393039B864A5B1A96
:10272000934206D8012D61D0022D25D006B0BDE818
:10273000F087D9F80030276A0493049B6362642011
:1027400000FB07F00BF052FCD4F81C80824607EB2C
:1027500008000BF04BFC014650460BF053FD0BF00C
:1027600013F83B46CDE9000142467449744808F02D
:1027700075FA012DD8D139E06078724DDFF8E0812B
:10278000714FA0702046FFF77FFE2B786070002B02
:1027900040F09680A3780D3BDBB2162B27FA03F2AC
:1027A00079D9236823F07F4323F0FF03C8EB0303A9
:1027B000B3FA83F35B09002BE3D000233370A278D4
:1027C0007270637884F89220B37094F8922084F841
:1027D0009330A2F10801C9B2182976D9236A5B495E
:1027E00057480133236208F039FA9FE76778554D5F
:1027F00006E0FFF749FE2B7860700746002B5FD19B
:102800007E2F2046F5D184F8307003E02B78002B22
:1028100056D137702046FFF737FE7E28034660709A
:10282000F4D0707084F892302046FFF72DFE2B789C
:10283000B07084F89300002B42D194F89230082BAA
:1028400002D0192B7FF472AFD9F800300293029BAB
:10285000E3600123637105F023FF94F893303C4D4E
:10286000012B286065D05CD30D2B7FF45FAF05F0A2
:1028700017FF94F89220286031462046FFF7CAFEE1
:10288000207600283FF452AFF17884F89410204667
:10289000FFF74AF94AE7D30783D5F1288DD023689B
:1028A00023F07F4323F0FF03C8EB0303B3FA83F362
:1028B000FF284FEA531380D0002B3FF462AF7CE730
:1028C00000232B7006B0BDE8F087224820FA01F102
:1028D000C90783D5D9F8001005910599E160F22B5D
:1028E0004FF0010161710DD8F02BBFF41FAF0D2B1C
:1028F00001D01B2B0FD105F0D3FE154B94F892207D
:102900001860B9E7FF2B06D1013231462046FFF7A8
:1029100081FE20760AE71A460F49094808F09EF919
:1029200004E7314694F892202046FFF773FE2076A4
:10293000FCE694F892209FE7C0D401001441010006
:10294000B487FF1F1097FF1F01084000644101007A
:1029500090B1FF1F210001014841010054C2FF1F37
:10296000001B0800F0B503783F4D87B004461BB943
:10297000AB78042B57D003706B78012B21D0204605
:10298000FFF754FD2278531E012B35D9032A01D0BD
:1029900007B0F0BD354B1B78002BF9D03449354AD0
:1029A0000B680493049B10681B1A022BF0D90B6868
:1029B0000593059B136004F1CB012046FFF7BCFD96
:1029C000E6E72A4B1B7893B1294F2B4E3B680093C7
:1029D000009B32689B1A182B09D9102184F8941097
:1029E0002046FFF7A1F83B680193019B336095F8FF
:1029F000AB30002BC3D1CBE71C4B1B78002BC7D0CF
:102A00001B481C4903680293029B0D685B1B012B4A
:102A1000BED903680393039B0B60204604F1CB01EE
:102A2000FFF75CFEB4E7FFF767FD032820700BD0CB
:102A3000012811D002289FD10F21104807F070FE05
:102A40000F4808F0F3F897E70E210E4807F068FEEC
:102A50000B4808F0EBF88FE70F210B4807F060FEFA
:102A6000074808F0E3F887E75494FF1FBA93FF1F65
:102A700054C2FF1F1897FF1F58B6FF1FA441010043
:102A8000B487FF1F84410100944101002DE9F0410A
:102A900000250F462E464FF47A744FF47A58384684
:102AA00005F0EAFD002808BF0135384605F0E4FDD1
:102AB0004346012808BF0136013BFDD1013CEED160
:102AC000B5F57A7F09D015B9B6F57A7F07D0B5424A
:102AD0002CBF00200120BDE8F081002EF7D102209C
:102AE000BDE8F081F8B50D4617463ABB284605F01B
:102AF000C3FD0028FAD0304E0A2441F28832012169
:102B000028461FB141F288320021284605F04CFFCB
:102B100010B1864228BF0646013CEED13B2E18D8A4
:102B2000282E45D2132E20D80C2E3ED2022E37D07E
:102B300022D9042E37D34FF4E130F8BD284605F0F2
:102B40009BFD0128D7D1284605F096FD0128F5D038
:102B5000D1E7B6F5967F14D2962E1BD2502E34BFF5
:102B60004FF461504FF41650F8BD1D2E34BF4FF492
:102B700016404FF4E140F8BD012E14D14FF461200E
:102B8000F8BDB6F5167F08D3B6F5966F0BD24FF4A5
:102B90009660F8BD4FF49650F8BD4FF41660F8BD3E
:102BA0004FF4E120F8BD0020F8BD4FF46140F8BDBE
:102BB0004FF49640F8BD00BF3F420F002DE9F047AB
:102BC00006460D461446224629463046FFF78AFF40
:102BD00007460A2005F086FD224629463046FFF7C3
:102BE00081FF80460A2005F07DFD224629463046B9
:102BF000FFF778FF81460A2005F074FD224629463A
:102C00003046FFF76FFF82460A2005F06BFD224633
:102C100029463046FFF766FF4745D4D14F45D2D10C
:102C20005745D0D18742CED1BDE8F0872DE9F04796
:102C30000E468CB0054617214A48174607F070FD2E
:102C400000230A223146484808F016F8464807F0A3
:102C5000EDFF3046002105F01DFD3046012105F055
:102C600005FD3A4631462846FFF7A8FF8246002870
:102C700043D10446DFF80481814608E03C2C22D889
:102C80003A4631462846FFF799FF8246A8BB09F12C
:102C900001095FFA89F9A8FB09239B0895F8FB2035
:102CA00003EB8303C3EB090312B1002285F8FB2079
:102CB00013F0FF0FE2D1013401212C48E4B207F0F8
:102CC0002FFD3C2CDCD9284807F0B0FF1A212848FA
:102CD00007F026FD00230A223146234807F0CCFFE7
:102CE000214807F0A3FF3A4631462846FFF766FF22
:102CF0000024A14682460028C9D095F8FB3013B9BC
:102D0000194807F093FF0A211A4807F009FD00232C
:102D10000A225146144807F0AFFF0421164807F075
:102D2000FFFC114807F082FF04A8124908F02CF8B4
:102D30000A225146684608F06DF8694604A808F072
:102D4000E5F8014608A808F033F808A807F0DCFF0A
:102D5000684607F0D9FF04A807F0D6FF50460CB02C
:102D6000BDE8F087B4410100B487FF1FCC410100EA
:102D7000D0410100EC410100F8410100CDCCCCCCA8
:102D80000D4B5B79032B16D810B40C4B0C499A6889
:102D9000DC790C481B7A0B70130A83B0047008D1DD
:102DA000094B0A4A1B6801930199094B11600122E2
:102DB0001A7003B010BC70475494FF1FA495FF1FF6
:102DC0006C9BFF1F7FA9FF1F54C2FF1F4094FF1F72
:102DD0005CB6FF1F30B5244C94F8683B0A2BCBB08F
:102DE000224B34D02249002540F2231201A81D7045
:102DF00005F0CEFAD4F8643B04F65E3503F22313F3
:102E0000AB42C4F8643B08BF234601A940F2231239
:102E1000184608BFC4F8644B05F0BAFA94F8682B5A
:102E200011490A2A034607D0501C81F8680B0AB9D9
:102E3000C1F8603B4BB030BDD1F8603B03F22313C7
:102E4000AB4208BF0B46C1F8603B4BB030BD01221E
:102E5000262108481A7007F063FC07484BB0BDE80C
:102E6000304007F0E3BE00BFC89CFF1FE693FF1F82
:102E70005CA8FF1F28420100B487FF1F2DE9F04F17
:102E8000ADF50F7D06F0FCFB002838D006F008FCFD
:102E9000AE4BC1B20391DB78AC4900220A700F2B14
:102EA00000F2BF81DFE813F0B201B20194018801A2
:102EB00071015A013B0124010401E300BF009F009E
:102EC0005700300030001000A04BA14A5B7B0492F9
:102ED00011465E1E9D4A9DF80C00CB1AF6B2567341
:102EE00083F82301002E00F03582CA789949CA7010
:102EF000964A0023937006F0C3FB0028C6D1012038
:102F00000DF50F7DBDE8F08F0E2B914B049305D08E
:102F10001B88039AB2EB132F00F082868B4A0223A0
:102F20001370049A9DF80C10137982F8151113F0A0
:102F3000010F8749854B00F0D58184481B780F220B
:102F4000C270022B4FF00D02427300F0A0860023E6
:102F5000CA780370CAE77E4B04939C687E4DFD20BF
:102F6000C4F3172403469E2200210AE0581E43188A
:102F70005A1C5208884202EB420240F28E8155F8F8
:102F80002220013394424FEA5303EFD31946EED87F
:102F9000944200F07B8100210B46049C2088434032
:102FA00083EA0313DBB2DA0082EA032282EA102208
:102FB00082EA1313DAB22380039B9A4200F01A8646
:102FC000624B0E22DA70049B9DF80C2083F81421CA
:102FD0005F4C29B15D4B8A791B799342C0F00F8613
:102FE000049BDA7882E7594B039D1979584B574C6B
:102FF0001E460B4401311D7330882B46434083EA43
:103000000313DBB2DA0082EA032282EA1020F278AC
:10301000C9B280EA13139142217133807FF466AF05
:103020000C23E37062E74A4B039A1C88624082EAF1
:103030000212D2B2D1001D4681EA02219B6800042F
:1030400000F47F0081EA142140EA132381EA12117F
:10305000EA786B72C3F307201B0CA872EB7229800D
:10306000002A00F0208139490B23CB703EE7384B12
:10307000039A1C88624082EA0212D2B21D46D10035
:103080009B68000200F47F4081EA022140EA13239A
:1030900081EA142181EA1212190CE9722B496B7230
:1030A000C3F307200A232A80A872EA78CB701DE7B1
:1030B0002749264B08881C7B039B4B72434083EABD
:1030C0000313DBB2DA0082EA032282EA102282EAE8
:1030D00013130020E2070B808872C8721B4B40F16B
:1030E000FD80CA78002A00F02B810B21D970FDE603
:1030F000174B19881C461846039B03724B4083EA02
:103100000313DBB2DA0082EA032282EA112282EAA6
:10311000131323800D4BE2780821D970E6E60C4B9F
:1031200019881C461846039BC3714B4083EA03135E
:10313000DBB2DA0082EA032282EA112282EA131366
:103140002380024BE2780721D970CFE6089BFF1F4E
:10315000A0B1FF1F5CA8FF1FD83301009A4B19884C
:103160001C461846039B83714B4083EA0313DBB272
:10317000DA0082EA032282EA112282EA1313238010
:10318000924BE2780621D970B0E68F4B19881C4625
:103190001846039B43714B4083EA0313DBB2DA000A
:1031A00082EA032282EA112282EA13132380874BE8
:1031B000E2780521D97099E6834C9DF80C30237193
:1031C00010F0FE0F73D08149E2780123CB708DE6B9
:1031D0007D497E4B039D08881C7BCD702B46434068
:1031E00083EA0313DBB2DA0082EA032282EA1022C6
:1031F00082EA13130B80754B0022E0071A7169D520
:1032000005200A714A71D8702A466FE6039BFD2B90
:1032100000F0DB84039BFE2B00F0FB846A4BDA7822
:1032200064E6694B04931A46694BD278DA70674BAF
:1032300000249C70A31E012B16D9002C3FF422AE53
:10324000FFF7C8FD1EE6624A9DF81410D1705F4971
:103250000023022C8B70EDD1049890F8151190F892
:10326000143143EA012313800398584901230022B3
:10327000FD288B700A7001D0CB7003E6049D0220FC
:103280004FF6FF73EA70C8702B80FBE5514B01EBE2
:10329000410103EB81010B797FE64E4B01EB4102CB
:1032A00053F8222074E649490C23CB701EE620888F
:1032B000039BE278434083EA0313DBB2D90081EA3F
:1032C000032181EA102181EA131323803F4B04215B
:1032D000D9700BE60321039AD97007E60920CA7852
:1032E000D87003E61B693BB11B6B002B2BD08968A0
:1032F0003648090A984730B3344B1C78334D32496D
:1033000033480123EB7040F2231205F041F8049B8F
:10331000DB780593012C96D12C4B049A2B491B8901
:1033200092794A7103B94B81284829490133002217
:10333000038182709DF81430CB70FFF74BFDA1E53F
:103340000C21D970D2E5214B1C78022CD6D0032455
:103350001C70D3E71369526910931D461192002B1C
:1033600000F08E8455F8100F1B4C37941B4C696885
:10337000AA68EB681A4F38941A4C3D943A97DFF8D4
:1033800070E0194FDFF86CC03C973EACCDF8ECC054
:10339000CDF8E4E00FC4049B2869DA786969EB6929
:1033A00005921746AA6935963D460A350FC4049B17
:1033B0000295ED0005F580750C4E36960233349576
:1033C000069320241CE000BFA0B1FF1F089BFF1F35
:1033D0005CA8FF1FD833010085AE67BB72F36E3C5B
:1033E0007F520E5119CDE05BABD9831F67E6096AA6
:1033F0003AF54FA58C68059B029B002B00F0CD8011
:10340000029D069EC4F14003AB4228BF2B46ED1A35
:1034100002953EA8354620441D441C441A463146B8
:10342000069504F0B5FF402CE6D134AA22AB92F801
:103430002B0092F82A101870597092F8290092F80F
:103440002810D970987032A90433994202F104020D
:10345000EDD1369B0793379B0893389B0993399B93
:103460000A933A9B0B933B9B0C933C9B0D930DF55E
:103470009A7A3D9B0E93524621AB53F8041F42F8B3
:10348000041F31A98B42F8D10DF5B6780DF5AC7C4F
:103490000DF59C7E5DAF5646302558F8044F5EF81A
:1034A000043F56F8042F5CF8041F4FEAF44011441F
:1034B00080EA74404FEAB34280EA942082EAF31231
:1034C000014482EAD3030B44013D47F8043FE4D1B1
:1034D0000E9ADFF8B892A94BDDF828B0DDF820E0AD
:1034E000099F079EDDF834C0DDF8308001920B9D06
:1034F0000AE059F8043FCDF804C0BB46C4467746FD
:10350000A846B646254606464FEAF52205EA0801D2
:1035100082EAB5122CEA050482EA75624C405AF838
:10352000041F144421441944019B87EA0E024FEA08
:103530007630194402EA060480EAB60007EA0E0271
:103540008F4B544080EAB65020444B4501EB0B04AE
:103550000844CED10A99079A39440F460B993997F6
:1035600021440C460C993A940244294413460D46D2
:10357000089A0D9936933244414416460846099AF2
:103580000E99029B37967244614438923B953C9069
:103590003D910024002B7FF433AF349C04F11003E1
:1035A0009C42349300F27C83764B07930223C4F34E
:1035B000C504069303E0069B002B00F0D080069D17
:1035C000079EC4F14003AB4228BF2B46ED1A069577
:1035D0003EA8354620441D441C441A4631460795F2
:1035E00004F0D6FE402CE6D134AA22AB92F82B0090
:1035F00092F82A101870597092F8290092F8281041
:10360000D970987032A90433994202F10402EDD1C5
:10361000369B0893379B0993389B0A93399B0B93EE
:103620003A9B0C933B9B0D933C9B0E930DF59A7A22
:103630003D9B0F93524621AB53F8041F42F8041FE1
:1036400031A98B42F8D10DF5B6780DF5AC7C0DF5AE
:103650009C7E5DAF5646302558F8044F5EF8043F17
:1036600056F8042F5CF8041F4FEAF440114480EA36
:1036700074404FEAB34280EA942082EAF312014494
:1036800082EAD3030B44013D47F8043FE4D13B4BAE
:103690000F9ADFF8F890DDF82CB0DDF824E00A9FEF
:1036A000089EDDF838C0DDF8348001920C9D02934D
:1036B0000BE0CDF804C0C446A8461D4659F8043FA7
:1036C0000293BB467746B64606464FEAF52205EA20
:1036D000080182EAB5122CEA050482EA75624C40C0
:1036E0005AF8041F019B144487EA0E0221444FEA52
:1036F000763002EA060407EA0E0219445440029B9F
:103700001F4A80EAB60080EAB650194420444A4570
:1037100001EB0B030844CCD10B99089A39440F46AE
:103720000C99399719440B460D993A930244294450
:1037300014460D46099A0E99069B3694324441442C
:10374000164608460A9A0F99379672446144389291
:103750003B953C903D910024002B7FF430AF349C8E
:1037600004F138039C42349300F29682064B07938F
:103770000723C4F3C50406930EE000BF982F8A42C6
:10378000D4330100B4B2FF1FB6B2FF1FD83201001C
:10379000069B002B00F0D080069D079EC4F14003DD
:1037A000AB4228BF2B46ED1A06953EA8354620446D
:1037B0001D441C441A463146079504F0E9FD402C8F
:1037C000E6D134AA22AB92F82B0092F82A10187096
:1037D000597092F8290092F82810D970987032A97F
:1037E0000433994202F10402EDD1369B0893379BD2
:1037F0000993389B0A93399B0B933A9B0C933B9B01
:103800000D933C9B0E930DF59A7A3D9B0F93524678
:1038100021AB53F8041F42F8041F31A98B42F8D1A1
:103820000DF5B6780DF5AC7C0DF59C7E5DAF56467A
:10383000302558F8044F5EF8043F56F8042F5CF822
:10384000041F4FEAF440114480EA74404FEAB34247
:1038500080EA942082EAF312014482EAD3030B4403
:10386000013D47F8043FE4D18B4B0F9ADFF83092CB
:10387000DDF82CB0DDF824E00A9F089EDDF838C0A2
:10388000DDF8348001920C9D02930BE0CDF804C06A
:10389000C446A8461D4659F8043F0293BB467746E6
:1038A000B64606464FEAF52205EA080182EAB51255
:1038B0002CEA050482EA75624C405AF8041F019B09
:1038C000144487EA0E0221444FEA763002EA0604E5
:1038D00007EA0E0219445440029B704A80EAB6007F
:1038E00080EAB650194420444A4501EB0B030844D2
:1038F000CCD10B99089A39440F460C993997194441
:103900000B460D993A930244294414460D46099AF0
:103910000E99069B369432444144164608460A9A4C
:103920000F9937967244614438923B953C903D9193
:103930000024002B7FF430AF349D0699C5F3C504F5
:10394000C4F177068023472206F03F060DF1890077
:103950008DF888300BF06CF906F1090210460692DA
:1039600022AA1644359B33712A0AF2712A0E72710B
:103970001A0C290CB27005EBC0029542B1714FEAE6
:103980001321F1704FEA136184BF0133359322ABE9
:10399000357271703492079303E0069B002B00F0A0
:1039A000D780069D079EC4F14003AB4228BF2B463B
:1039B000ED1A06953EA8354620441D441C441A467F
:1039C0003146079504F0E4FC402CE6D134AA12AB52
:1039D00092F82B0092F82A101870597092F829006A
:1039E00092F82810D970987022A90433994202F1F4
:1039F0000402EDD1369B0893379B0993389B0A93B9
:103A0000399B0B933A9B0C933B9B0D933C9B0E93E2
:103A10000DF59A7A3D9B0F93524611AB53F8041F54
:103A200042F8041F21A98B42F8D10DF5B6780DF5A7
:103A3000AC7C0DF59C7E5DAF5646302558F8044FA2
:103A40005EF8043F56F8042F5CF8041F4FEAF44078
:103A5000114480EA74404FEAB34280EA942082EA3B
:103A6000F312014482EAD3030B44013D47F8043FBB
:103A7000E4D1094B0F9ADFF82890DDF82CB0DDF87F
:103A800024E00A9F089EDDF838C0DDF834800192FA
:103A90000C9D029312E000BF982F8A42D43301009C
:103AA000D8320100CDF804C0C446A8461D4659F8D6
:103AB000043F0293BB467746B64606464FEAF522D8
:103AC00005EA080182EAB5122CEA050482EA756269
:103AD0004C405AF8041F019B144487EA0E0221440B
:103AE0004FEA763002EA060407EA0E02194454400F
:103AF000029B8E4A80EAB60080EAB6501944204400
:103B0000914501EB0B030844CCD10B99089A394439
:103B10000F460C99399719440B460D993A93024474
:103B2000294414460D46099A0E99069B3694324450
:103B30004144164608460A9A0F99379672446144E2
:103B400038923B953C903D910024002B7FF429AFA7
:103B50009DF8DB309DF8DA20754C9DF8D8008DF883
:103B600048308DF849209DF8D9309DF8DF208DF838
:103B70004A308DF84B009DF8DE308DF84C2004F271
:103B80001D1112A806228DF84D300AF0BBFF002847
:103B900000F08A80109B1B6B4BB1049A65489168BA
:103BA000634C090A984700286AD1E3780593614B72
:103BB00003241C705F4D5E495F48012340F22312CD
:103BC000EB7004F0E5FBFFF7A5BB5A4B584A1B7B93
:103BD000104623F0010357499DF80C400B734FF634
:103BE000FF7354490380002202238470C270CB709B
:103BF000FFF77CB94F4A0D23D370FFF7E4B904F106
:103C00000C00D21A184400210BF012F8E278FFF7EA
:103C10006DB9484B464A1B7B104643F00103DAE777
:103C2000444A01231370FFF77CB90F28B2D8DDE9AD
:103C30002267109B414AD3E9024592194FF00003D5
:103C40007B41AB4208BFA242A4D3119A049D00EB72
:103C5000C0041444EB79E3702B7A2371013084F8AB
:103C600002E0053410800B6823608B881099A380D4
:103C7000D1E90223BB4208BFB24201D2C1E90267C7
:103C8000049BDB7805932B4B01241C7092E72A4A96
:103C9000CB78D370FFF7E0BA359B0133359365E5F8
:103CA000359B013335937FE404F217110023002282
:103CB000CDE92223119B08688D8894F816E12290A3
:103CC000ADF88C50002B3FF465AF18880028AED0BB
:103CD000E579267A069C04E094B2844203F1090354
:103CE000A3D0DF78AF4204F10102F5D11F79B742CA
:103CF000F2D19F787745EFD1844296D0119B04EBA7
:103D0000C40423441C468EAD0022002365E94023F1
:103D100054F8050F2860A388AB80D5E90023DDE9BE
:103D20002267BB4208BFB2429DD333E7D4330100C0
:103D3000A0B1FF1F089BFF1F5CA8FF1F808D5B00C9
:103D4000404B5B79002B4DD12DE9F0413E4DAA78D7
:103D5000EC78FE2A5DD0012C0BD92B19DB7A13B13C
:103D600007E0DB7A2BB9013CE4B2012C05EB04033C
:103D7000F7D1AB68354E344F3270C3F317231A12A4
:103D80001814A97995F8048095F805E03272F3715A
:103D9000EA792B7A70723171727107F10C01224647
:103DA00006F10A00747086F803E0B37186F80280A9
:103DB00004F0EEFA04F10A0118F0010F06EB01021B
:103DC00011D1092128881070001250700023194465
:103DD000033121441E4B1D4889B2BDE8F0411980D2
:103DE00005F0CCBB70473B887354D7F816E1D7F881
:103DF0001A61D7F81E5197F82201C2F802E01B128F
:103E00005370C2F806600D23C2F80A50907309215E
:103E1000DDE7AB680D4EA97995F807E02F7A32708F
:103E2000C3F317232246B170B01D05F10C01737165
:103E3000747086F803E0377104F0AAFAA21D3244C8
:103E40000521BFE75494FF1FCC97FF1F749BFF1FF2
:103E50006297FF1F2DE9F04FB5B000234FF0030824
:103E60004FF0060C04248DF80D808DF810808DF82D
:103E70000E308DF80F308DF80CC0029402AA07CADC
:103E8000CC4ECD4FDFF8689397F80CA089F80080EE
:103E900006F10C05AE46AEE80300C8488EF80020D7
:103EA000DFF850E3C64903700AF00202DFF848B3B6
:103EB000DFF848A3DFF84893C2488EF800404FF07F
:103EC000FB0E7372B372F37281F800E001239E213E
:103ED0008BF800C002F0FF088AF8001089F8003063
:103EE00003703ABB3B69002B00F05D8193F800E062
:103EF0000EF0010EFD23B44AB370092012F8011D23
:103F0000C3B2002940F04A8101380128F6D18C461D
:103F100003469E22FB213272F370F171A54ABEF175
:103F2000000F00F04281012111714FF0FD090821BD
:103F30000A2411E009234FF0FE0931721846214688
:103F400086F807E06446F37086F802904FF0080C9C
:103F50004FF0000E86F804E0BA798DF8149002F163
:103F6000010A4FF0000987F806A08DF81530B271EC
:103F700086F80590DFF83CA2B8F1000F5BD04FF057
:103F8000FB088DF816209E228DF819908DF8178069
:103F90008DF818204FF6FF78C2460DF1150901E0A3
:103FA00019F8013F83EA080383EA0313DBB2DA005E
:103FB000013982EA032289B282EA1822514582EA53
:103FC0001318EDD10CF10D0C8049B44411F8013BEC
:103FD00083EA080383EA0313DBB2DA0082EA0322EE
:103FE00082EA182282EA13131BB261451FFA83F892
:103FF000ECD183F0320181EA0111C9B2CA0082EA30
:10400000012282EA182282EA1111304409B20173B6
:10401000F378DFF8A08189B233440A125A733180F1
:10402000BEF1000F1ED16A4B1B790BB9FCF716FBD2
:1040300035B0BDE8F08F9AF804908DF816904FF0E7
:10404000FB0A4FF09E098DF817808DF818208DF827
:104050001B808DF81C808DF81D808DF819A08DF8BF
:104060001A9097E739690029DDD00B78DB07DAD59C
:104070004B7888F81631D1E90223CDE9002334AB1F
:10408000544F53F8D00DC8F817019B88A8F81B317E
:10409000D1E90223013243F10003C1E902234E4B6F
:1040A0001D934E4B4E4A1C9720934E4F1E9203F188
:1040B0002D634D4A1F9703F51E334C4F219203F297
:1040C0009A23002610311AA82022229798F803700C
:1040D00023931A961B96FCF7C9F922461AA805A93C
:1040E000FCF7C4F93A461AA808F10C01FCF7BEF92E
:1040F000E9191AA80222FCF7B9F91AA8072208F54B
:104100008B71FCF7B3F91A9D34AFC5F3C504314682
:1041100080234722C4F177040DF1210007F8B03D58
:1041200004F03F040AF084FD34AB23441B9E03F8E3
:10413000A85C04F109022C0C39464FEA152C4FEA11
:10414000156E03F8AA4C1AA8350C340E370A03F87A
:10415000AE5C03F8AF4C03F8A9CC03F8ABEC03F862
:10416000AC6C03F8AD7CFCF781F99DF873509DF8B9
:1041700072409DF871009DF870109DF877209DF8B1
:10418000763088F81D5188F81E4188F81F0188F89C
:10419000201188F8212188F8223144E703F1FF3CFF
:1041A0001FFA8CFCB5E6C646A4E608214FF0FD09CF
:1041B0000A24CDE6A495FF1F089BFF1F55B6FF1FDD
:1041C0002597FF1F5397FF1FB995FF1FB095FF1F3E
:1041D0005494FF1F67E6096A85AE67BB7F520E5194
:1041E00072F36E3C3AF54FA58C68059BABD9831FE3
:1041F0004DB6FF1F6D9BFF1FF8C1FF1F7697FF1F76
:1042000040A8FF1F2DE9F047B6B0D34ED34DD44C94
:10421000D44AADF814000123FB279E2023708DF8AB
:1042200016308DF817301370377028700B46002940
:1042300000F0B98108689A684968DB6806AC0FC469
:1042400005AD0FCDC84CD5F800E0C84D04F10C0603
:1042500037460FC72B7BC7F800E0002103F00203AD
:10426000142203F0FF086272A172E1723BBB2B695A
:10427000002B00F0968193F800E00EF0010EFD2374
:10428000BB4AA370142012F8011DC3B2002940F0EC
:10429000838101380128F6D18C4603469E22FB21FA
:1042A0002272E370E171B04ABEF1000F00F080812C
:1042B000012111714FF0FD0908210A2712E0FB27A7
:1042C0009E214FF0FE09E77121721046E2701346FD
:1042D00084F802904FF0130C042106274FF0000ED3
:1042E00084F804E0AA798DF8089002F1010A4FF0F1
:1042F000000984F805908DF80930A27185F806A0B0
:10430000DFF86492B8F1000F5DD04FF0FB098DF833
:104310000A204FF09E0814228DF80B908DF80C8027
:104320008DF80D204FF6FF78C2460DF1090901E026
:1043300019F8013F83EA080383EA0313DBB2DA00CA
:10434000013982EA032289B282EA1822514582EABF
:104350001318EDD10CF10D0C8649A44411F8013B62
:1043600083EA080383EA0313DBB2DA0082EA03225A
:1043700082EA182282EA13131BB261451FFA83F8FE
:10438000ECD183F0D60383EA0313DBB2DA0082EACE
:10439000032282EA182282EA131320441BB2037319
:1043A000E278DFF8C4819BB2224419125173238052
:1043B000BEF1000F1FD1704B1B790BB9FCF74EF902
:1043C00036B0BDE8F08799F804908DF80A904FF068
:1043D000FB0A4FF09E098DF80C2014228DF80B80FB
:1043E0008DF810808DF811808DF80DA08DF80E904D
:1043F0008DF80F2096E798F803A029695644002904
:10440000D9D00B78DB07D6D54B7888F81631D1E9AF
:104410000223CDE9002336AB0D4653F8D80DC8F87A
:1044200017019B88A8F81B31D1E90223013243F11F
:104430000003C1E90223514B1E93A3F16263A3F56C
:104440001123DFF84CC1DFF84CE14D4C4D484E498B
:104450004E4ACDF87CC0A3F64E13CDF880E02194EF
:10446000229023912492259355F8100F6968AA6829
:10447000EB6826AC0FC40DF1D8094FF4807E49F8E3
:1044800068EDEB6928696969AA6900251D950FC463
:104490003A46484602A9FBF7E9FF5246484608F16A
:1044A0000C01FBF7E3FF314648460222FBF7DEFF33
:1044B0004846072208F58B71FBF7D8FF1C9E36AFE4
:1044C000C6F3C504294680234722C4F177040DF1C1
:1044D000290007F8B03D04F03F040AF0A9FB1D9D38
:1044E00036AB23443946484604F109024FEA152EFB
:1044F0002C0E4FEA166C2F0C4FEA162A4FEA16497B
:1045000003F8AC5C03F8AF4C03F8A86C03F8A9AC53
:1045100003F8AA9C03F8ABCC03F8ADEC03F8AE7C2F
:10452000FBF7A4FF9DF87B509DF87A409DF8790039
:104530009DF878109DF87F209DF87E3088F81D51F9
:1045400088F81E4188F81F0188F8201188F8212179
:1045500088F822312FE700BF2597FF1F7697FF1FAE
:1045600040A8FF1F5397FF1FA495FF1F089BFF1F25
:10457000C495FF1FB095FF1F5494FF1F67E6096A9B
:104580003AF54FA57F520E518C68059BABD9831F1E
:1045900085AE67BB72F36E3C03F1FF3C1FFA8CFCE7
:1045A0007CE6C6466BE6069107910891099147E6BD
:1045B00008214FF0FD090A2790E600BF2DE9F043DE
:1045C000CF4AD04B14781B78CF4FD048D04DDFF86E
:1045D00060C3DFF86083DFF860E3CE4EB5B0002241
:1045E0008DF804308DF806208DF8054001993B7B4D
:1045F0002A7082720D0CC2729E2203F00203857330
:1046000081812B25FB218CF800204FF0010C457295
:1046100088F8001003F0FF058EF800C086F800C08F
:1046200003BB3B69002B00F0588193F800E0FD23A9
:104630000EEA0C0E8370002C40F05E8166466346E5
:10464000AC469E22FB210272C370C171AF4ABEF11B
:10465000000F00F08181012111714FF0FD08082148
:104660000A240EE002234FF0FE08C1711E460272BA
:10467000C37080F80280042106244FF0000E80F8F9
:1046800004E0BA798DF8148002F101094FF00008B6
:1046900080F805808DF81530827187F80690DFF874
:1046A0006C82002D5CD04FF0FB088DF816209E2503
:1046B0002B228DF817808DF818508DF819204FF6A1
:1046C000FF78C1460DF1150501E015F8013F83EAB9
:1046D000080383EA0313DBB2DA00013982EA03221A
:1046E00089B282EA1822494582EA1318EDD18A4D2F
:1046F0000CF10D0C8444294611F8013B83EA0803B0
:1047000083EA0313DBB2DA0082EA032282EA182288
:1047100082EA13131BB261451FFA83F8ECD183F0D0
:10472000840181EA0111C9B2CA0082EA012282EA47
:104730001822064482EA111109B23173C378734E0C
:1047400089B203440A125A730180BEF1000F1FD1CF
:10475000724B1B790BB9FBF781FF35B0BDE8F083D5
:1047600098F804808DF816804FF0FB094FF09E08F2
:104770008DF818202B228DF817508DF81C508DF8CD
:104780001D508DF819908DF81A808DF81B2096E732
:1047900039690029DCD00B78DB07D9D54B7886F84E
:1047A0001631D1E90223CDE9022334ABDFF88CE1E5
:1047B00053F8C80DC6F817019B88A6F81B31D1E93C
:1047C0000223013243F10003C1E90223544B1D933C
:1047D000544B554A209303F12D63CDF870E01E929F
:1047E000DFF85CE1514A96F80380CDF87CE003F5F0
:1047F0001E33DFF850E1219203F29A230027103193
:104800001AA82022CDF888E023931A971B97FBF76C
:104810002DFE22461AA805A9FBF728FE42461AA833
:1048200006F10C01FBF722FE05EB08011AA8022293
:10483000FBF71CFE1AA8072206F58B71FBF716FE84
:104840001A9D0DF1D008C5F3C504394680234722CF
:10485000C4F177040DF1210008F8B03D04F03F04E5
:104860000AF0E6F934AB23441B9F03F8A85C04F17B
:1048700009022C0C41464FEA156C03F8AA4C1AA801
:104880004FEA15284FEA172E3D0C3C0E03F8AE5C9C
:1048900003F8AF4C03F8A98C03F8ABCC03F8AC7C5D
:1048A00003F8ADECFBF7E2FD9DF873509DF8724004
:1048B0009DF871009DF870109DF877209DF8763076
:1048C00086F81D5186F81E4186F81F0186F82011D2
:1048D00086F8212186F822313AE74FF0FD0880F86A
:1048E00002808CBB664680F803C0C17163460272C9
:1048F000AC4608210A24C0E602263346A1E600BFE2
:104900005397FF1F40A8FF1F089BFF1FA495FF1F81
:1049100084A9FF1FFA98FF1FB095FF1F5494FF1F33
:1049200085AE67BB7F520E5172F36E3C8C68059B5F
:104930007697FF1F2597FF1F34C2FF1F67E6096A9E
:104940003AF54FA5ABD9831F0223C1711E460272EF
:10495000C37008210A2490E608214FF0FD080A24BC
:104960008BE600BF2DE9F04FB64BADF51B7D186807
:104970009A889C79129053F8080FADF84C2059682A
:104980009A688DF84E401AAC07C4AF489D892580BF
:1049900001210170AD480B460A460170AC494FF049
:1049A000FF0C81F800C0AB494FF0BE0E81F800E06B
:1049B0000DF1470105910DF1660106910599069CDF
:1049C00011F8010F05918DF8422034F8021F06946A
:1049D00001228DF843308DF8452010AB8DF844004E
:1049E000ADF8401093E803009B4B9C4A1B7B9180E1
:1049F0009B49106003F00203002042248872C872B1
:104A00004C7203F0FF029449002B40F0B8800B6910
:104A1000002B00F00C861F7807F00107914BFD2159
:104A200003F8101C062613F8015DF1B2002D40F0CA
:104A3000FA85013E012EF6D13146894BD97083F8B3
:104A400007C083F808E0002F00F0F48584480123B4
:104A500003714FF0FD0808204FF00A0A7E4B804C8E
:104A60009B79A3717C4C8DF85C8003F1010984F87B
:104A700006907B4C8DF85D104FF0000884F805809F
:104A8000002A67D042228DF85E308DF85FC08DF825
:104A900060E08DF861204FF6FF7294460DF15D0ED7
:104AA00054460B4601E01EF8013F534083EA0313CE
:104AB000DBB2D900013881EA032180B281EA1222F7
:104AC000604582EA1312EED164480D35A0F10C0363
:104AD0001D4410F8013B534083EA0313DBB2D900B5
:104AE00081EA032181EA122282EA13131BB2A8424F
:104AF0009AB2EED183F0940383EA0313DBB2D900B8
:104B000081EA032181EA1222554982EA13130E44F5
:104B10001BB23373CA789BB20A4419125173504ABC
:104B2000A2461380002F3FD14F4B1B79002B00F082
:104B30006E85059B0DF14E02934200F07085444B4B
:104B400093F800C0434B93F800E03F4B1A783F4B7B
:104B50001B7833E7424C8DF8603094F804808DF870
:104B60005F2042238DF861C08DF862E08DF86420EB
:104B70008DF865208DF85E808DF863308BE73849BD
:104B80000623CB701E4681F807C081F808E09A46DC
:104B90001946334B4FF0FE0883F8028005250420A8
:104BA0002F4B00271F7159E72B4B1D69D3780F93AB
:104BB000002DB9D02B78DB07B6D56B7882F816318B
:104BC000D5E902239AA961E98623284B08688A88D7
:104BD00018609A80D5E90223013243F10003C5E948
:104BE0000223234C55F8100F4394224E6968AA689B
:104BF000EB684596A4F1BF441F4F204E4697A4F59D
:104C0000DC244796A4F5B674DFF87CE01C4F499489
:104C10004AAECDF810E148970FC6EB69286969697B
:104C2000AA69184D42954FF48074002504EBCA041C
:104C3000CDF80CA041950FC617AB409404932024E7
:104C400028E000BFB432010040A8FF1F5397FF1FA8
:104C50002597FF1F7697FF1F089BFF1FB095FF1F2B
:104C6000A495FF1FB695FF1F5494FF1FBB96FF1F0F
:104C700085AE67BB3AF54FA57F520E518C68059BF8
:104C8000ABD9831F67E6096A72F36E3C039B002B66
:104C900000F0D180039D049EC4F14003AB4228BFC5
:104CA0002B46ED1A03954AA8354620441D441C4462
:104CB0001A463146049503F06BFB402CE6D140AA1E
:104CC0002EAB92F82B0092F82A101870597092F8B7
:104CD000290092F82810D97098703EA9043399429F
:104CE00002F10402EDD1429B0793439B0893449B3E
:104CF0000993459B0A93469B0B93479B0C93489BB8
:104D00000D930DF5B27A499B0E9352462DAB53F895
:104D1000041F42F8041F3DA99942F8D10DF5CE7841
:104D20000DF5C47C0DF5B47E69AF5646102558F8D4
:104D3000044F5EF8043F56F8042F5CF8041F4FEA56
:104D4000F440114480EA74404FEAB34280EA942070
:104D500082EAF312014482EAD30301350B44402D69
:104D600047F8043FE3D1B24B0E9ADFF8D092DDF85A
:104D700028B0DDF820E0099F079EDDF834C0DDF89B
:104D8000308001920B9D02930BE0CDF804C0C44625
:104D9000A8461D4659F8043F0293BB467746B646DF
:104DA00006464FEAF52205EA080182EAB5122CEA26
:104DB000050482EA75624C405AF8041F019B1444B2
:104DC00087EA0E0221444FEA763002EA060407EA37
:104DD0000E0219445440029B964A80EAB60080EACB
:104DE000B650194420444A4501EB0B030844CCD18A
:104DF0000A99079A39440F460B99459719440B466F
:104E00000C9946930244294414460D46089A0D997C
:104E1000039B42943244414416460846099A0E992F
:104E200043967244614444924795489049910024C6
:104E3000002B7FF42FAF409D0F9B05EBC304A542D1
:104E4000409402D9419B013341930F9BC5F3C505A3
:104E5000002B00F0DA800393774B049303E0039B6D
:104E6000002B00F0D180039C049EC5F14003A342B7
:104E700028BF2346E41A03944AA8344628441C4415
:104E80001D441A463146049403F082FA402DE6D1BF
:104E900040AA2EAB92F82B0092F82A101870597085
:104EA00092F8290092F82810D97098703EA904331E
:104EB000994202F10402EDD1429B0793439B089370
:104EC000449B0993459B0A93469B0B93479B0C93EA
:104ED000489B0D930DF5B27A499B0E9352462DAB2C
:104EE00053F8041F42F8041F3DA99942F8D10DF56B
:104EF000CE780DF5C47C0DF5B47E69AF564610250D
:104F000058F8044F5EF8043F56F8042F5CF8041F6D
:104F10004FEAF440114480EA74404FEAB34280EA19
:104F2000942082EAF312014482EAD30301350B4450
:104F3000402D47F8043FE3D13D4B0E9ADFF8FC903B
:104F4000DDF828B0DDF820E0099F079EDDF834C0C9
:104F5000DDF8308001920B9D02930BE0CDF804C088
:104F6000C446A8461D4659F8043F0293BB467746FF
:104F7000B64606464FEAF52205EA080182EAB5126E
:104F80002CEA050482EA75624C405AF8041F019B22
:104F9000144487EA0E0221444FEA763002EA0604FE
:104FA00007EA0E0219445440029B224A80EAB600E6
:104FB00080EAB650194420444A4501EB0B030844EB
:104FC000CCD10A99079A39440F460B994597194451
:104FD0000B460C994693024429440D4614460D99FC
:104FE000089A039B47953244414416460846099A5D
:104FF0000E99429472446144439644924890499178
:105000000025002B7FF42FAF409C04F11003A34236
:10501000409302D2419B013341930F9B1A46064BAA
:105020001A4402230492C4F3C50403930CE000BFA6
:10503000982F8A42D4330100B095FF1FD832010067
:10504000039B002B00F0D180039D049EC4F140031C
:10505000AB4228BF2B46ED1A03954AA8354620449B
:105060001D441C441A463146049503F091F9402C26
:10507000E6D140AA2EAB92F82B0092F82A101870B5
:10508000597092F8290092F82810D97098703EA9AA
:105090000433994202F10402EDD1429B0793439BF2
:1050A0000893449B0993459B0A93469B0B93479B0C
:1050B0000C93489B0D930DF5B27A499B0E93524683
:1050C0002DAB53F8041F42F8041F3DA99942F8D1B3
:1050D0000DF5CE780DF5C47C0DF5B47E69AF56465E
:1050E000102558F8044F5EF8043F56F8042F5CF87A
:1050F000041F4FEAF440114480EA74404FEAB3427F
:1051000080EA942082EAF312014482EAD303013553
:105110000B44402D47F8043FE3D1BE4B0E9ADFF815
:105120000093DDF828B0DDF820E0099F079EDDF848
:1051300034C0DDF8308001920B9D02930BE0CDF876
:1051400004C0C446A8461D4659F8043F0293BB4616
:105150007746B64606464FEAF52205EA080182EA96
:10516000B5122CEA050482EA75624C405AF8041F15
:10517000019B144487EA0E0221444FEA763002EA8A
:10518000060407EA0E0219445440029BA24A80EA30
:10519000B60080EAB650194420444A4501EB0B039F
:1051A0000844CCD10A99079A39440F460B99459780
:1051B00019440B460C9946930244294414460D4663
:1051C000089A0D99039B429432444144164608467E
:1051D000099A0E99439672446144449247954890C7
:1051E00049910024002B7FF42FAF409C04F1380339
:1051F0009C42409302D9419B01334193874B0493D6
:105200000723C4F3C504039303E0039B002B00F0C2
:10521000D180039D049EC4F14003AB4228BF2B46BE
:10522000ED1A03954AA8354620441D441C441A46ED
:105230003146049503F0ACF8402CE6D140AA2EABE1
:1052400092F82B0092F82A101870597092F82900E1
:1052500092F82810D97098703EA90433994202F14F
:105260000402EDD1429B0793439B0893449B09930F
:10527000459B0A93469B0B93479B0C93489B0D932E
:105280000DF5B27A499B0E9352462DAB53F8041F8D
:1052900042F8041F3DA99942F8D10DF5CE780DF5DD
:1052A000C47C0DF5B47E69AF5646102558F8044FFE
:1052B0005EF8043F56F8042F5CF8041F4FEAF440F0
:1052C000114480EA74404FEAB34280EA942082EAB3
:1052D000F312014482EAD30301350B44402D47F811
:1052E000043FE3D14B4B0E9ADFF83491DDF828B040
:1052F000DDF820E0099F079EDDF834C0DDF830803E
:1053000001920B9D02930BE0CDF804C0C446A84661
:105310001D4659F8043F0293BB467746B6460646FB
:105320004FEAF52205EA080182EAB5122CEA0504E3
:1053300082EA75624C405AF8041F019B144487EAC4
:105340000E0221444FEA763002EA060407EA0E0212
:1053500019445440029B304A80EAB60080EAB650B5
:1053600019442044914501EB0B030844CCD10A9920
:10537000079A39440F460B99459719440B460C99E7
:1053800046930244294414460D46089A0D99039BFE
:1053900042943244414416460846099A0E9943966F
:1053A0007244614444924795489049910024002BEF
:1053B0007FF42FAF409E0399C6F3C504C4F1770371
:1053C00003F03F05802747220DF1B9008DF8B87032
:1053D00009F02EFC05F109031F4603932EAB2B4465
:1053E000419A1E72310AD971310E5971300C110C6B
:1053F00098719970100A06EBC701D8708E424FEA77
:1054000012601A71587084BF531C41932EAB4091A7
:1054100004930BE0982F8A42D4330100BA96FF1F01
:10542000D8320100039B002B00F0D180039D049E25
:10543000C4F14003AB4228BF2B46ED1A03954AA89E
:10544000354620441D441C441A463146049502F05A
:105450009FFF402CE6D140AA1EAB92F82B0092F899
:105460002A101870597092F8290092F82810D970F3
:1054700098702EA904338B4202F10402EDD1429BB5
:105480000793439B0893449B0993459B0A93469B30
:105490000B93479B0C93489B0D930DF5B27A499B58
:1054A0000E9352461DAB53F8041F42F8041F2DA95A
:1054B0008B42F8D10DF5CE780DF5C47C0DF5B47E98
:1054C00069AF5646102558F8044F5EF8043F56F869
:1054D000042F5CF8041F4FEAF440114480EA744042
:1054E0004FEAB34280EA942082EAF312014482EA4E
:1054F000D30301350B44402D47F8043FE3D1514B12
:105500000E9ADFF85091DDF828B0DDF820E0099F11
:10551000079EDDF834C0DDF8308001920B9D0293C8
:105520000BE0CDF804C0C446A8461D4659F8043F18
:105530000293BB467746B64606464FEAF52205EA91
:10554000080182EAB5122CEA050482EA75624C4031
:105550005AF8041F019B144487EA0E0221444FEAC3
:10556000763002EA060407EA0E0219445440029B10
:10557000354A80EAB60080EAB65019442044914585
:1055800001EB0B030844CCD10A99079A39440F4622
:105590000B99459719440B460C99469302442944AC
:1055A00014460D46089A0D99039B42943244414497
:1055B00016460846099A0E994396724461444492ED
:1055C0004795489049910024002B7FF42FAF1F4945
:1055D0009DF80A219DF80B3181F81E211B4A1B48BA
:1055E00081F81D319DF8093182F81F319DF80E3187
:1055F00080F82231164B9DF808111B799DF80F2178
:1056000080F8201180F82121002B7FF492AAFBF76B
:1056100025F8059B0DF14E0293427FF490AA0DF5FB
:105620001B7DBDE8F08F4D1EADB2FFF706BA1746E1
:10563000FFF7F4B908204FF0FD084FF00A0AFFF712
:10564000AFBA00BF982F8A42D4330100A495FF1F40
:105650005494FF1FD832010010B5194B197882B04D
:10566000C9B9184B184A1B68019301981368C31AEB
:10567000B3F5FA7F154B08D310601A78C2B10D202C
:10568000197002F0F3FF02B010BD19780D2002F07E
:10569000EDFF02B010BD01230C4C19460D20237004
:1056A00002F0E4FF21780D2002F0E0FF02B010BD0F
:1056B00001210D20197002F0D9FF02B010BD00BF0A
:1056C000BA93FF1F54C2FF1F5497FF1FCA93FF1FB7
:1056D000F8B5154CE66805464FF07E51304608F0A7
:1056E0007BFE18B1284608F081FC0646284608F0E3
:1056F00081FC0E4908F0D2FC0D490746304608F0FF
:10570000CDFC0146384608F0C1FB0A496269E369ED
:10571000E060A1FB051502EB951501336561E361BE
:1057200008F0BEFEF8BD00BF2887FF1F4CA6AA3EAA
:105730004CA62A3FD34D6210F0B51E4C94F8203091
:1057400085B00546002B32D01B4B1A680192019A96
:105750000021013A84F820101968039103981B680E
:105760000293029B2361801A08F040FC134908F061
:1057700049FD08F009F8064628460F4607F0E2FF03
:1057800002460B463046394608F052F808F028FB2E
:105790000B4908F083FC0B4908F080FC03460146E6
:1057A0006068236008F072FB606005B0F0BD22699C
:1057B000014BD1E72887FF1F54C2FF1F00BA5B4A85
:1057C000000020410000883F70B5114D0646FFF7EC
:1057D000B3FFAC684FF07E51204608F0FDFD18B1D4
:1057E000304608F003FC0446304608F003FC094943
:1057F00008F054FC08490646204608F04FFC0146D4
:10580000304608F043FBA86008F04AFE70BD00BFB8
:105810002887FF1FFA7EAA3E4CA62A3FF8B51D4CEA
:10582000E56806460021284608F0CCFD00282BD06C
:10583000304608F0DBFB07460546304608F0DAFB49
:10584000154908F02BFC15490646284608F026FCA9
:105850000146304608F01AFB0546E560606908F02D
:10586000C5FB0F490646384608F018FC014630468D
:1058700008F00CFB08F014FEE36960610133284670
:10588000E36108F00DFEF8BD304608F0AFFB0746B7
:10589000D3E700BF4C87FF1FFA7EAA3EFA7E2A3F5D
:1058A0006F12833AF0B51E4C94F8203085B005464F
:1058B000002B32D01B4B1A680192019A0021013A49
:1058C00084F820101968039103981B680293029BC7
:1058D0002361801A08F08AFB134908F093FC07F053
:1058E00053FF064628460F4607F02CFF02460B469C
:1058F0003046394607F09CFF08F072FA0B4908F071
:10590000CDFB0B4908F0CAFB0346014660682360E3
:1059100008F0BCFA606005B0F0BD2269014BD1E728
:105920004C87FF1F54C2FF1F00BA5B4A0000204192
:105930000000883FF8B5114CA668054600213046A6
:1059400008F040FD18B1284608F050FB06462846EE
:1059500008F050FB0A4908F0A1FB0A490746304607
:1059600008F09CFB0146384608F090FAA0602846F3
:10597000FFF798FFA06808F093FDF8BD4C87FF1F64
:10598000FA7EAA3EFA7E2A3F10B50129044680EA33
:10599000E070A0EBE47026D0022907D0032903D1E0
:1059A000012A5AD0022A36D0002010BD012A3CD04C
:1059B000022AF9D1632840F38580B0F57A7F80F21E
:1059C0009A8008F013FB6B4908F068FB05F04AFD6C
:1059D00008F066FDC0B2800040F00100002CE4DA5F
:1059E00040F4007010BD012ADED1092864DD95283D
:1059F0007DDC08F0FBFA5F4908F050FB05F032FD52
:105A000008F04EFDC0B2400040F00100002CCCDA9E
:105A100040F0200010BDB0F57A7F37DA800080B208
:105A2000002CC2DA40F4805010BD632847DD40F2FC
:105A3000F54398425DDC08F0D9FA4E4908F02EFB98
:105A400005F010FD08F02CFDC0B2400040F0010050
:105A5000002CAADA40F4807010BDB0F57A7F34DBF8
:105A6000B0F5205F59DA08F0C1FA424908F016FB98
:105A700005F0F8FC08F014FD80B2400040F0010091
:105A800080B2002C91DA40F4006010BD42F20F7336
:105A900098421DDD384B984242D808F0A7FA3749A2
:105AA00008F0FCFA05F0DEFC08F0FAFC80B2800099
:105AB00040F0020080B2B3E7400080B2A6E74000A9
:105AC00080B2C5E7800080B288E7400080B2D8E7A6
:105AD00008F08CFA274908F0E1FA05F0C3FC08F059
